{
  "contractName": "MarketPlace_CustomerInterface",
  "abi": [
    {
      "inputs": [],
      "stateMutability": "nonpayable",
      "type": "constructor"
    },
    {
      "anonymous": false,
      "inputs": [
        {
          "indexed": false,
          "internalType": "uint256",
          "name": "manufacturerID",
          "type": "uint256"
        },
        {
          "indexed": false,
          "internalType": "uint256",
          "name": "customerID",
          "type": "uint256"
        },
        {
          "indexed": false,
          "internalType": "uint256",
          "name": "quantity",
          "type": "uint256"
        },
        {
          "indexed": false,
          "internalType": "uint256",
          "name": "price",
          "type": "uint256"
        },
        {
          "indexed": false,
          "internalType": "uint256[100]",
          "name": "carTag",
          "type": "uint256[100]"
        }
      ],
      "name": "AllocateFromManufacturer",
      "type": "event"
    },
    {
      "anonymous": false,
      "inputs": [
        {
          "indexed": false,
          "internalType": "uint256",
          "name": "supplierID",
          "type": "uint256"
        },
        {
          "indexed": false,
          "internalType": "uint256",
          "name": "manufacturerID",
          "type": "uint256"
        },
        {
          "indexed": false,
          "internalType": "uint256",
          "name": "quantity",
          "type": "uint256"
        },
        {
          "indexed": false,
          "internalType": "uint256",
          "name": "price",
          "type": "uint256"
        }
      ],
      "name": "AllocateFromSupplier",
      "type": "event"
    },
    {
      "anonymous": false,
      "inputs": [
        {
          "indexed": false,
          "internalType": "uint256",
          "name": "CustomerID",
          "type": "uint256"
        },
        {
          "indexed": false,
          "internalType": "uint256",
          "name": "ManufacturerID",
          "type": "uint256"
        },
        {
          "indexed": false,
          "internalType": "uint256",
          "name": "Quantity",
          "type": "uint256"
        },
        {
          "indexed": false,
          "internalType": "uint256",
          "name": "Price",
          "type": "uint256"
        }
      ],
      "name": "CustomerRequest",
      "type": "event"
    },
    {
      "anonymous": false,
      "inputs": [
        {
          "indexed": false,
          "internalType": "uint256",
          "name": "manufacturerID",
          "type": "uint256"
        },
        {
          "indexed": false,
          "internalType": "uint256",
          "name": "endTime",
          "type": "uint256"
        }
      ],
      "name": "EndManufacturerAuction",
      "type": "event"
    },
    {
      "anonymous": false,
      "inputs": [
        {
          "indexed": false,
          "internalType": "uint256",
          "name": "supplierID",
          "type": "uint256"
        },
        {
          "indexed": false,
          "internalType": "uint256",
          "name": "endTime",
          "type": "uint256"
        }
      ],
      "name": "EndSupplierAuction",
      "type": "event"
    },
    {
      "anonymous": false,
      "inputs": [
        {
          "indexed": false,
          "internalType": "uint256",
          "name": "supplierID",
          "type": "uint256"
        },
        {
          "indexed": false,
          "internalType": "uint256",
          "name": "manufacturerID",
          "type": "uint256"
        },
        {
          "indexed": false,
          "internalType": "bytes32",
          "name": "blindBidPrice",
          "type": "bytes32"
        },
        {
          "indexed": false,
          "internalType": "bytes32",
          "name": "blindBidQuantity",
          "type": "bytes32"
        }
      ],
      "name": "ManufacturerBids",
      "type": "event"
    },
    {
      "anonymous": false,
      "inputs": [
        {
          "indexed": false,
          "internalType": "uint256",
          "name": "supplierID",
          "type": "uint256"
        },
        {
          "indexed": false,
          "internalType": "uint256",
          "name": "manufacturerID",
          "type": "uint256"
        },
        {
          "indexed": false,
          "internalType": "uint256",
          "name": "price",
          "type": "uint256"
        },
        {
          "indexed": false,
          "internalType": "uint256",
          "name": "quantity",
          "type": "uint256"
        }
      ],
      "name": "ManufacturerReveal",
      "type": "event"
    },
    {
      "anonymous": false,
      "inputs": [
        {
          "indexed": false,
          "internalType": "uint256",
          "name": "manufacturerID",
          "type": "uint256"
        },
        {
          "indexed": false,
          "internalType": "uint256",
          "name": "startTime",
          "type": "uint256"
        }
      ],
      "name": "StartManufacturerAuction",
      "type": "event"
    },
    {
      "anonymous": false,
      "inputs": [
        {
          "indexed": false,
          "internalType": "uint256",
          "name": "supplierID",
          "type": "uint256"
        },
        {
          "indexed": false,
          "internalType": "uint256",
          "name": "startTime",
          "type": "uint256"
        }
      ],
      "name": "StartSupplierAuction",
      "type": "event"
    },
    {
      "inputs": [
        {
          "internalType": "uint256",
          "name": "",
          "type": "uint256"
        }
      ],
      "name": "customers",
      "outputs": [
        {
          "internalType": "uint256",
          "name": "_tag",
          "type": "uint256"
        },
        {
          "internalType": "address",
          "name": "wallet",
          "type": "address"
        }
      ],
      "stateMutability": "view",
      "type": "function",
      "constant": true
    },
    {
      "inputs": [
        {
          "internalType": "uint256",
          "name": "manufacturerID",
          "type": "uint256"
        },
        {
          "internalType": "uint256",
          "name": "supplierID",
          "type": "uint256"
        },
        {
          "internalType": "uint256",
          "name": "price",
          "type": "uint256"
        },
        {
          "internalType": "uint256",
          "name": "quantity",
          "type": "uint256"
        }
      ],
      "name": "manufactuerRevealBid",
      "outputs": [
        {
          "internalType": "bool",
          "name": "",
          "type": "bool"
        }
      ],
      "stateMutability": "nonpayable",
      "type": "function"
    },
    {
      "inputs": [
        {
          "internalType": "uint256",
          "name": "manufacturerID",
          "type": "uint256"
        },
        {
          "internalType": "uint256",
          "name": "supplierID",
          "type": "uint256"
        },
        {
          "internalType": "bytes32",
          "name": "blindPrice",
          "type": "bytes32"
        },
        {
          "internalType": "bytes32",
          "name": "blindQuantity",
          "type": "bytes32"
        },
        {
          "internalType": "uint256",
          "name": "limit",
          "type": "uint256"
        }
      ],
      "name": "manufacturerPlacesBid",
      "outputs": [],
      "stateMutability": "payable",
      "type": "function",
      "payable": true
    },
    {
      "inputs": [
        {
          "internalType": "uint256",
          "name": "",
          "type": "uint256"
        }
      ],
      "name": "manufacturers",
      "outputs": [
        {
          "internalType": "uint256",
          "name": "_tag",
          "type": "uint256"
        },
        {
          "internalType": "uint256",
          "name": "quantityA",
          "type": "uint256"
        },
        {
          "internalType": "uint256",
          "name": "quantityB",
          "type": "uint256"
        },
        {
          "internalType": "uint256",
          "name": "cars",
          "type": "uint256"
        },
        {
          "internalType": "uint256",
          "name": "carsprice",
          "type": "uint256"
        },
        {
          "internalType": "enum MarketPlace_Structures.AuctionState",
          "name": "currentState",
          "type": "uint8"
        },
        {
          "internalType": "address",
          "name": "wallet",
          "type": "address"
        },
        {
          "internalType": "uint256",
          "name": "maxBidders",
          "type": "uint256"
        },
        {
          "internalType": "uint256",
          "name": "QA_sellerID",
          "type": "uint256"
        },
        {
          "internalType": "uint256",
          "name": "QB_sellerID",
          "type": "uint256"
        }
      ],
      "stateMutability": "view",
      "type": "function",
      "constant": true
    },
    {
      "inputs": [
        {
          "internalType": "uint256",
          "name": "a",
          "type": "uint256"
        },
        {
          "internalType": "uint256",
          "name": "b",
          "type": "uint256"
        }
      ],
      "name": "minimum",
      "outputs": [
        {
          "internalType": "uint256",
          "name": "",
          "type": "uint256"
        }
      ],
      "stateMutability": "pure",
      "type": "function",
      "constant": true
    },
    {
      "inputs": [],
      "name": "num_customer",
      "outputs": [
        {
          "internalType": "uint256",
          "name": "",
          "type": "uint256"
        }
      ],
      "stateMutability": "view",
      "type": "function",
      "constant": true
    },
    {
      "inputs": [],
      "name": "num_manufacturer",
      "outputs": [
        {
          "internalType": "uint256",
          "name": "",
          "type": "uint256"
        }
      ],
      "stateMutability": "view",
      "type": "function",
      "constant": true
    },
    {
      "inputs": [],
      "name": "num_products",
      "outputs": [
        {
          "internalType": "uint256",
          "name": "",
          "type": "uint256"
        }
      ],
      "stateMutability": "view",
      "type": "function",
      "constant": true
    },
    {
      "inputs": [],
      "name": "num_supplier",
      "outputs": [
        {
          "internalType": "uint256",
          "name": "",
          "type": "uint256"
        }
      ],
      "stateMutability": "view",
      "type": "function",
      "constant": true
    },
    {
      "inputs": [],
      "name": "owner",
      "outputs": [
        {
          "internalType": "address payable",
          "name": "",
          "type": "address"
        }
      ],
      "stateMutability": "view",
      "type": "function",
      "constant": true
    },
    {
      "inputs": [
        {
          "internalType": "uint256",
          "name": "manufacturerID",
          "type": "uint256"
        },
        {
          "internalType": "uint256",
          "name": "price",
          "type": "uint256"
        }
      ],
      "name": "set_cars_price",
      "outputs": [],
      "stateMutability": "nonpayable",
      "type": "function"
    },
    {
      "inputs": [
        {
          "internalType": "uint256",
          "name": "suppliedID",
          "type": "uint256"
        },
        {
          "internalType": "uint256",
          "name": "quantityToAdd",
          "type": "uint256"
        }
      ],
      "name": "supplierAddQuantity",
      "outputs": [],
      "stateMutability": "nonpayable",
      "type": "function"
    },
    {
      "inputs": [
        {
          "internalType": "uint256",
          "name": "tag",
          "type": "uint256"
        }
      ],
      "name": "supplierEndAuction",
      "outputs": [
        {
          "internalType": "uint256",
          "name": "",
          "type": "uint256"
        }
      ],
      "stateMutability": "nonpayable",
      "type": "function"
    },
    {
      "inputs": [
        {
          "internalType": "uint256",
          "name": "tag",
          "type": "uint256"
        }
      ],
      "name": "supplierEndReveal",
      "outputs": [
        {
          "internalType": "uint256",
          "name": "",
          "type": "uint256"
        }
      ],
      "stateMutability": "nonpayable",
      "type": "function"
    },
    {
      "inputs": [
        {
          "internalType": "uint256",
          "name": "tag",
          "type": "uint256"
        }
      ],
      "name": "supplierStartAuction",
      "outputs": [
        {
          "internalType": "uint256",
          "name": "",
          "type": "uint256"
        }
      ],
      "stateMutability": "nonpayable",
      "type": "function"
    },
    {
      "inputs": [
        {
          "internalType": "uint256",
          "name": "",
          "type": "uint256"
        }
      ],
      "name": "suppliers",
      "outputs": [
        {
          "internalType": "uint256",
          "name": "tag",
          "type": "uint256"
        },
        {
          "internalType": "int256",
          "name": "partType",
          "type": "int256"
        },
        {
          "internalType": "uint256",
          "name": "quantityAvailable",
          "type": "uint256"
        },
        {
          "internalType": "enum MarketPlace_Structures.AuctionState",
          "name": "currentState",
          "type": "uint8"
        },
        {
          "internalType": "address",
          "name": "wallet",
          "type": "address"
        },
        {
          "internalType": "uint256",
          "name": "maxBidders",
          "type": "uint256"
        },
        {
          "internalType": "uint256",
          "name": "bidsPlaced",
          "type": "uint256"
        },
        {
          "internalType": "uint256",
          "name": "bidsRevealed",
          "type": "uint256"
        }
      ],
      "stateMutability": "view",
      "type": "function",
      "constant": true
    },
    {
      "inputs": [
        {
          "internalType": "address",
          "name": "senderaddr",
          "type": "address"
        },
        {
          "internalType": "uint256",
          "name": "effectivePrice",
          "type": "uint256"
        }
      ],
      "name": "transferMoney",
      "outputs": [],
      "stateMutability": "payable",
      "type": "function",
      "payable": true
    },
    {
      "inputs": [
        {
          "internalType": "uint256",
          "name": "customerID",
          "type": "uint256"
        },
        {
          "internalType": "uint256",
          "name": "manufacturerID",
          "type": "uint256"
        },
        {
          "internalType": "uint256",
          "name": "quantity",
          "type": "uint256"
        }
      ],
      "name": "customerPurchase",
      "outputs": [],
      "stateMutability": "payable",
      "type": "function",
      "payable": true
    },
    {
      "inputs": [
        {
          "internalType": "uint256",
          "name": "manufacturerID",
          "type": "uint256"
        }
      ],
      "name": "manufacturerSupplyCars",
      "outputs": [],
      "stateMutability": "nonpayable",
      "type": "function"
    },
    {
      "inputs": [
        {
          "internalType": "int256",
          "name": "partType",
          "type": "int256"
        },
        {
          "internalType": "uint256",
          "name": "quantityAvailable",
          "type": "uint256"
        },
        {
          "internalType": "address payable",
          "name": "addr",
          "type": "address"
        },
        {
          "internalType": "uint256",
          "name": "auctionBidders",
          "type": "uint256"
        }
      ],
      "name": "addSupplier",
      "outputs": [
        {
          "internalType": "uint256",
          "name": "tag",
          "type": "uint256"
        }
      ],
      "stateMutability": "nonpayable",
      "type": "function"
    },
    {
      "inputs": [
        {
          "internalType": "address payable",
          "name": "addr",
          "type": "address"
        },
        {
          "internalType": "uint256",
          "name": "auctionBidders",
          "type": "uint256"
        }
      ],
      "name": "addManufacturer",
      "outputs": [
        {
          "internalType": "uint256",
          "name": "tag",
          "type": "uint256"
        }
      ],
      "stateMutability": "nonpayable",
      "type": "function"
    },
    {
      "inputs": [
        {
          "internalType": "address payable",
          "name": "addr",
          "type": "address"
        }
      ],
      "name": "addCustomer",
      "outputs": [
        {
          "internalType": "uint256",
          "name": "tag",
          "type": "uint256"
        }
      ],
      "stateMutability": "nonpayable",
      "type": "function"
    },
    {
      "inputs": [
        {
          "internalType": "uint256",
          "name": "customerID",
          "type": "uint256"
        },
        {
          "internalType": "uint256",
          "name": "car_tag",
          "type": "uint256"
        }
      ],
      "name": "verifyproduct",
      "outputs": [
        {
          "internalType": "uint256",
          "name": "carID",
          "type": "uint256"
        },
        {
          "internalType": "uint256",
          "name": "manfID",
          "type": "uint256"
        },
        {
          "internalType": "uint256",
          "name": "sellerIDA",
          "type": "uint256"
        },
        {
          "internalType": "uint256",
          "name": "sellerIDB",
          "type": "uint256"
        }
      ],
      "stateMutability": "view",
      "type": "function",
      "constant": true
    }
  ],
  "bytecode": "0x608060405234801561001057600080fd5b50336000806101000a81548173ffffffffffffffffffffffffffffffffffffffff021916908373ffffffffffffffffffffffffffffffffffffffff16021790555060006002819055506000600181905550600060038190555061556680620000796000396000f3fe6080604052600436106101405760003560e01c8063ad973d74116100b6578063dd2d2a121161006f578063dd2d2a12146104af578063e2416a2c146104ec578063eb16d0e414610529578063edcac78b14610554578063f895c5201461057f578063fee666ad146105bf57610140565b8063ad973d7414610373578063c0405217146103b0578063c0abda2a146103db578063c2ff9e4414610419578063cea2312114610442578063d6470b491461048657610140565b806362949a5d1161010857806362949a5d1461022f5780638da5cb5b1461024b57806390175af1146102765780639a7a9b13146102bc578063a436792b146102f9578063aa8613c41461033657610140565b80630cf3750d146101455780631788b2d91461016e57806317c9dea6146101ab57806318c15d42146101e85780634cc9aff814610204575b600080fd5b34801561015157600080fd5b5061016c60048036038101906101679190614315565b6105db565b005b34801561017a57600080fd5b5061019560048036038101906101909190614355565b610689565b6040516101a291906143d7565b60405180910390f35b3480156101b757600080fd5b506101d260048036038101906101cd91906143f2565b610db3565b6040516101df919061442e565b60405180910390f35b61020260048036038101906101fd919061447f565b610f3c565b005b34801561021057600080fd5b50610219611315565b604051610226919061442e565b60405180910390f35b610249600480360381019061024491906144fa565b61131b565b005b34801561025757600080fd5b50610260611660565b60405161026d919061458e565b60405180910390f35b34801561028257600080fd5b5061029d600480360381019061029891906143f2565b611684565b6040516102b39a99989796959493929190614641565b60405180910390f35b3480156102c857600080fd5b506102e360048036038101906102de919061473f565b611705565b6040516102f0919061442e565b60405180910390f35b34801561030557600080fd5b50610320600480360381019061031b91906147a6565b61185e565b60405161032d919061442e565b60405180910390f35b34801561034257600080fd5b5061035d600480360381019061035891906143f2565b6119db565b60405161036a919061442e565b60405180910390f35b34801561037f57600080fd5b5061039a600480360381019061039591906147e6565b611b48565b6040516103a7919061442e565b60405180910390f35b3480156103bc57600080fd5b506103c5611c02565b6040516103d2919061442e565b60405180910390f35b3480156103e757600080fd5b5061040260048036038101906103fd91906143f2565b611c08565b604051610410929190614813565b60405180910390f35b34801561042557600080fd5b50610440600480360381019061043b91906143f2565b611c4c565b005b34801561044e57600080fd5b50610469600480360381019061046491906143f2565b6128fb565b60405161047d98979695949392919061484b565b60405180910390f35b34801561049257600080fd5b506104ad60048036038101906104a89190614315565b612970565b005b3480156104bb57600080fd5b506104d660048036038101906104d19190614315565b612a89565b6040516104e3919061442e565b60405180910390f35b3480156104f857600080fd5b50610513600480360381019061050e91906143f2565b612aa3565b604051610520919061442e565b60405180910390f35b34801561053557600080fd5b5061053e613d6d565b60405161054b919061442e565b60405180910390f35b34801561056057600080fd5b50610569613d73565b604051610576919061442e565b60405180910390f35b34801561058b57600080fd5b506105a660048036038101906105a19190614315565b613d79565b6040516105b694939291906148c9565b60405180910390f35b6105d960048036038101906105d4919061493a565b613f01565b005b3373ffffffffffffffffffffffffffffffffffffffff166005600084815260200190815260200160002060030160019054906101000a900473ffffffffffffffffffffffffffffffffffffffff1673ffffffffffffffffffffffffffffffffffffffff161461064957600080fd5b81600154101561065857600080fd5b8060056000848152602001908152602001600020600201600082825461067e91906149a9565b925050819055505050565b60006002548511156106d0576040517f08c379a00000000000000000000000000000000000000000000000000000000081526004016106c790614a3a565b60405180910390fd5b600160038111156106e4576106e36145a9565b5b6005600086815260200190815260200160002060030160009054906101000a900460ff16600381111561071a576107196145a9565b5b1461072457600080fd5b60005b600860006005600088815260200190815260200160002060030160019054906101000a900473ffffffffffffffffffffffffffffffffffffffff1673ffffffffffffffffffffffffffffffffffffffff1673ffffffffffffffffffffffffffffffffffffffff16815260200190815260200160002080549050811015610da55785600860006005600089815260200190815260200160002060030160019054906101000a900473ffffffffffffffffffffffffffffffffffffffff1673ffffffffffffffffffffffffffffffffffffffff1673ffffffffffffffffffffffffffffffffffffffff168152602001908152602001600020828154811061082f5761082e614a5a565b5b90600052602060002090600a02016006015403610d9257600860006005600088815260200190815260200160002060030160019054906101000a900473ffffffffffffffffffffffffffffffffffffffff1673ffffffffffffffffffffffffffffffffffffffff1673ffffffffffffffffffffffffffffffffffffffff16815260200190815260200160002081815481106108cd576108cc614a5a565b5b90600052602060002090600a020160030154846040516020016108f09190614aaa565b6040516020818303038152906040528051906020012014610946576040517f08c379a000000000000000000000000000000000000000000000000000000000815260040161093d90614b37565b60405180910390fd5b600860006005600088815260200190815260200160002060030160019054906101000a900473ffffffffffffffffffffffffffffffffffffffff1673ffffffffffffffffffffffffffffffffffffffff1673ffffffffffffffffffffffffffffffffffffffff16815260200190815260200160002081815481106109cd576109cc614a5a565b5b90600052602060002090600a020160040154836040516020016109f09190614aaa565b6040516020818303038152906040528051906020012014610a46576040517f08c379a0000000000000000000000000000000000000000000000000000000008152600401610a3d90614bc9565b60405180910390fd5b60008385610a549190614be9565b9050600860006005600089815260200190815260200160002060030160019054906101000a900473ffffffffffffffffffffffffffffffffffffffff1673ffffffffffffffffffffffffffffffffffffffff1673ffffffffffffffffffffffffffffffffffffffff1681526020019081526020016000208281548110610add57610adc614a5a565b5b90600052602060002090600a020160080154811115610b31576040517f08c379a0000000000000000000000000000000000000000000000000000000008152600401610b2890614cb5565b60405180910390fd5b600160086000600560008a815260200190815260200160002060030160019054906101000a900473ffffffffffffffffffffffffffffffffffffffff1673ffffffffffffffffffffffffffffffffffffffff1673ffffffffffffffffffffffffffffffffffffffff1681526020019081526020016000208381548110610bba57610bb9614a5a565b5b90600052602060002090600a020160090160006101000a81548160ff0219169083151502179055508460086000600560008a815260200190815260200160002060030160019054906101000a900473ffffffffffffffffffffffffffffffffffffffff1673ffffffffffffffffffffffffffffffffffffffff1673ffffffffffffffffffffffffffffffffffffffff1681526020019081526020016000208381548110610c6a57610c69614a5a565b5b90600052602060002090600a0201600001819055508360086000600560008a815260200190815260200160002060030160019054906101000a900473ffffffffffffffffffffffffffffffffffffffff1673ffffffffffffffffffffffffffffffffffffffff1673ffffffffffffffffffffffffffffffffffffffff1681526020019081526020016000208381548110610d0757610d06614a5a565b5b90600052602060002090600a0201600101819055507fee291b467c1ae7dd29ffc047df3454190c09d3730496830a392209c7bc38f5ca86888787604051610d5194939291906148c9565b60405180910390a16001600560008881526020019081526020016000206006016000828254610d8091906149a9565b92505081905550600192505050610dab565b8080610d9d90614cd5565b915050610727565b50600090505b949350505050565b6000600154821115610dfa576040517f08c379a0000000000000000000000000000000000000000000000000000000008152600401610df190614d69565b60405180910390fd5b60006003811115610e0e57610e0d6145a9565b5b6005600084815260200190815260200160002060030160009054906101000a900460ff166003811115610e4457610e436145a9565b5b03610e84576040517f08c379a0000000000000000000000000000000000000000000000000000000008152600401610e7b90614dd5565b60405180910390fd5b60006005600084815260200190815260200160002060030160006101000a81548160ff02191690836003811115610ebe57610ebd6145a9565b5b021790555060006005600084815260200190815260200160002060050181905550600060056000848152602001908152602001600020600601819055507f10449cff8425a2b933fdd57a667ad5bdad3da817ddd9179f125f5c7756582e178242604051610f2c929190614df5565b60405180910390a1429050919050565b846002541015610f81576040517f08c379a0000000000000000000000000000000000000000000000000000000008152600401610f7890614e6a565b60405180910390fd5b836001541015610fc6576040517f08c379a0000000000000000000000000000000000000000000000000000000008152600401610fbd90614ed6565b60405180910390fd5b60006003811115610fda57610fd96145a9565b5b6005600086815260200190815260200160002060030160009054906101000a900460ff1660038111156110105761100f6145a9565b5b14611050576040517f08c379a000000000000000000000000000000000000000000000000000000000815260040161104790614f68565b60405180910390fd5b8484148061105e5750600384145b61109d576040517f08c379a000000000000000000000000000000000000000000000000000000000815260040161109490614fd4565b60405180910390fd5b6110a56141b1565b33816040019073ffffffffffffffffffffffffffffffffffffffff16908173ffffffffffffffffffffffffffffffffffffffff16815250503481610100018181525050858160c0018181525050848160e00181815250508381606001818152505082816080018181525050818160a00181815250506000816000018181525050600081602001818152505060008161012001901515908115158152505060006005600087815260200190815260200160002060030160019054906101000a900473ffffffffffffffffffffffffffffffffffffffff169050600860008273ffffffffffffffffffffffffffffffffffffffff1673ffffffffffffffffffffffffffffffffffffffff1681526020019081526020016000208290806001815401808255809150506001900390600052602060002090600a0201600090919091909150600082015181600001556020820151816001015560408201518160020160006101000a81548173ffffffffffffffffffffffffffffffffffffffff021916908373ffffffffffffffffffffffffffffffffffffffff160217905550606082015181600301556080820151816004015560a0820151816005015560c0820151816006015560e0820151816007015561010082015181600801556101208201518160090160006101000a81548160ff021916908315150217905550505060016005600088815260200190815260200160002060050160008282546112c891906149a9565b925050819055507fdbd4ed8ca35fd076d8fdc3ddae80bf4fac4fc55dd918d5868cf2b92f82d2de53868887876040516113049493929190615003565b60405180910390a150505050505050565b60025481565b3373ffffffffffffffffffffffffffffffffffffffff166007600085815260200190815260200160002060010160009054906101000a900473ffffffffffffffffffffffffffffffffffffffff1673ffffffffffffffffffffffffffffffffffffffff1614806113d657503373ffffffffffffffffffffffffffffffffffffffff1660008054906101000a900473ffffffffffffffffffffffffffffffffffffffff1673ffffffffffffffffffffffffffffffffffffffff16145b611415576040517f08c379a000000000000000000000000000000000000000000000000000000000815260040161140c90615094565b60405180910390fd5b61141d614222565b8281600001818152505033816060019073ffffffffffffffffffffffffffffffffffffffff16908173ffffffffffffffffffffffffffffffffffffffff1681525050818160400181815250508381602001818152505034816080018181525050600060066000858152602001908152602001600020600401549050600083826114a69190614be9565b905080836080015110156114ef576040517f08c379a00000000000000000000000000000000000000000000000000000000081526004016114e690615100565b60405180910390fd5b60006006600087815260200190815260200160002060050160019054906101000a900473ffffffffffffffffffffffffffffffffffffffff169050600960008273ffffffffffffffffffffffffffffffffffffffff1673ffffffffffffffffffffffffffffffffffffffff16815260200190815260200160002084908060018154018082558091505060019003906000526020600020906005020160009091909190915060008201518160000155602082015181600101556040820151816002015560608201518160030160006101000a81548173ffffffffffffffffffffffffffffffffffffffff021916908373ffffffffffffffffffffffffffffffffffffffff1602179055506080820151816004015550507ffee408fb277c265efa7c7adea166e7ebe6ce1e4bf153cc84a610be9a46d4ba82878787600660008b81526020019081526020016000206004015460405161164f94939291906148c9565b60405180910390a150505050505050565b60008054906101000a900473ffffffffffffffffffffffffffffffffffffffff1681565b60066020528060005260406000206000915090508060000154908060010154908060020154908060030154908060040154908060050160009054906101000a900460ff16908060050160019054906101000a900473ffffffffffffffffffffffffffffffffffffffff1690806006015490806007015490806008015490508a565b60006001600081548092919061171a90614cd5565b9190505550604051806101000160405280600154815260200186815260200185815260200160026003811115611753576117526145a9565b5b81526020018473ffffffffffffffffffffffffffffffffffffffff16815260200183815260200160008152602001600081525060056000600154815260200190815260200160002060008201518160000155602082015181600101556040820151816002015560608201518160030160006101000a81548160ff021916908360038111156117e4576117e36145a9565b5b021790555060808201518160030160016101000a81548173ffffffffffffffffffffffffffffffffffffffff021916908373ffffffffffffffffffffffffffffffffffffffff16021790555060a0820151816004015560c0820151816005015560e082015181600601559050506001549050949350505050565b60006002600081548092919061187390614cd5565b9190505550604051806101400160405280600254815260200160008152602001600081526020016000815260200160008152602001600260038111156118bc576118bb6145a9565b5b81526020018473ffffffffffffffffffffffffffffffffffffffff168152602001838152602001600081526020016000815250600660006002548152602001908152602001600020600082015181600001556020820151816001015560408201518160020155606082015181600301556080820151816004015560a08201518160050160006101000a81548160ff02191690836003811115611961576119606145a9565b5b021790555060c08201518160050160016101000a81548173ffffffffffffffffffffffffffffffffffffffff021916908373ffffffffffffffffffffffffffffffffffffffff16021790555060e0820151816006015561010082015181600701556101208201518160080155905050600254905092915050565b6000600154821115611a22576040517f08c379a0000000000000000000000000000000000000000000000000000000008152600401611a1990614d69565b60405180910390fd5b60006003811115611a3657611a356145a9565b5b6005600084815260200190815260200160002060030160009054906101000a900460ff166003811115611a6c57611a6b6145a9565b5b14611aac576040517f08c379a0000000000000000000000000000000000000000000000000000000008152600401611aa39061516c565b60405180910390fd5b60016005600084815260200190815260200160002060030160006101000a81548160ff02191690836003811115611ae657611ae56145a9565b5b0217905550600060056000848152602001908152602001600020600601819055507f0c368e4cdd0e23707857d20056076efe6f588f9ce71ab6ce676d331fdc035f5b8242604051611b38929190614df5565b60405180910390a1429050919050565b600060036000815480929190611b5d90614cd5565b9190505550604051806040016040528060035481526020018373ffffffffffffffffffffffffffffffffffffffff168152506007600060035481526020019081526020016000206000820151816000015560208201518160010160006101000a81548173ffffffffffffffffffffffffffffffffffffffff021916908373ffffffffffffffffffffffffffffffffffffffff1602179055509050506003549050919050565b60045481565b60076020528060005260406000206000915090508060000154908060010160009054906101000a900473ffffffffffffffffffffffffffffffffffffffff16905082565b806002541015611c5b57600080fd5b6006600082815260200190815260200160002060050160019054906101000a900473ffffffffffffffffffffffffffffffffffffffff1673ffffffffffffffffffffffffffffffffffffffff163373ffffffffffffffffffffffffffffffffffffffff161480611d16575060008054906101000a900473ffffffffffffffffffffffffffffffffffffffff1673ffffffffffffffffffffffffffffffffffffffff163373ffffffffffffffffffffffffffffffffffffffff16145b611d1f57600080fd5b60005b600960006006600085815260200190815260200160002060050160019054906101000a900473ffffffffffffffffffffffffffffffffffffffff1673ffffffffffffffffffffffffffffffffffffffff1673ffffffffffffffffffffffffffffffffffffffff1681526020019081526020016000208054905081101561278b576006600083815260200190815260200160002060030154600960006006600086815260200190815260200160002060050160019054906101000a900473ffffffffffffffffffffffffffffffffffffffff1673ffffffffffffffffffffffffffffffffffffffff1673ffffffffffffffffffffffffffffffffffffffff1681526020019081526020016000208281548110611e4057611e3f614a5a565b5b9060005260206000209060050201600201541161273d5760006006600084815260200190815260200160002060040154600960006006600087815260200190815260200160002060050160019054906101000a900473ffffffffffffffffffffffffffffffffffffffff1673ffffffffffffffffffffffffffffffffffffffff1673ffffffffffffffffffffffffffffffffffffffff1681526020019081526020016000208381548110611ef757611ef6614a5a565b5b906000526020600020906005020160020154611f139190614be9565b9050600081600960006006600088815260200190815260200160002060050160019054906101000a900473ffffffffffffffffffffffffffffffffffffffff1673ffffffffffffffffffffffffffffffffffffffff1673ffffffffffffffffffffffffffffffffffffffff1681526020019081526020016000208481548110611f9f57611f9e614a5a565b5b906000526020600020906005020160040154611fbb919061518c565b9050600960006006600087815260200190815260200160002060050160019054906101000a900473ffffffffffffffffffffffffffffffffffffffff1673ffffffffffffffffffffffffffffffffffffffff1673ffffffffffffffffffffffffffffffffffffffff168152602001908152602001600020838154811061204457612043614a5a565b5b90600052602060002090600502016002015460066000868152602001908152602001600020600301600082825461207b919061518c565b925050819055506000600960006006600088815260200190815260200160002060050160019054906101000a900473ffffffffffffffffffffffffffffffffffffffff1673ffffffffffffffffffffffffffffffffffffffff1673ffffffffffffffffffffffffffffffffffffffff168152602001908152602001600020848154811061210b5761210a614a5a565b5b906000526020600020906005020160020154905060006006600087815260200190815260200160002060050160019054906101000a900473ffffffffffffffffffffffffffffffffffffffff169050612162614267565b6000805b848110156124aa5760006001600a60008773ffffffffffffffffffffffffffffffffffffffff1673ffffffffffffffffffffffffffffffffffffffff168152602001908152602001600020805490506121bf919061518c565b90506121c961428a565b600a60008773ffffffffffffffffffffffffffffffffffffffff1673ffffffffffffffffffffffffffffffffffffffff168152602001908152602001600020828154811061221a57612219614a5a565b5b9060005260206000209060040201600001548160000181815250508a816020018181525050600a60008773ffffffffffffffffffffffffffffffffffffffff1673ffffffffffffffffffffffffffffffffffffffff16815260200190815260200160002082815481106122905761228f614a5a565b5b906000526020600020906004020160020154816040018181525050600a60008773ffffffffffffffffffffffffffffffffffffffff1673ffffffffffffffffffffffffffffffffffffffff16815260200190815260200160002082815481106122fc576122fb614a5a565b5b906000526020600020906004020160030154816060018181525050600b6000600960008973ffffffffffffffffffffffffffffffffffffffff1673ffffffffffffffffffffffffffffffffffffffff168152602001908152602001600020848154811061236c5761236b614a5a565b5b9060005260206000209060050201600101548152602001908152602001600020819080600181540180825580915050600190039060005260206000209060040201600090919091909150600082015181600001556020820151816001015560408201518160020155606082015181600301555050600a60008773ffffffffffffffffffffffffffffffffffffffff1673ffffffffffffffffffffffffffffffffffffffff16815260200190815260200160002080548061242f5761242e6151c0565b5b600190038181906000526020600020906004020160008082016000905560018201600090556002820160009055600382016000905550509055806000015185858061247990614cd5565b96506064811061248c5761248b614a5a565b5b602002018181525050505080806124a290614cd5565b915050612166565b506124eb600660008a815260200190815260200160002060050160019054906101000a900473ffffffffffffffffffffffffffffffffffffffff1687613f01565b6125c36007600060096000600660008e815260200190815260200160002060050160019054906101000a900473ffffffffffffffffffffffffffffffffffffffff1673ffffffffffffffffffffffffffffffffffffffff1673ffffffffffffffffffffffffffffffffffffffff1681526020019081526020016000208a8154811061257957612578614a5a565b5b906000526020600020906005020160010154815260200190815260200160002060010160009054906101000a900473ffffffffffffffffffffffffffffffffffffffff1686613f01565b7f1aff87a36f8ab51e6d00c79e403e67535da25af06a6dc7b9cac3fc96a25cbfb38860096000600660008d815260200190815260200160002060050160019054906101000a900473ffffffffffffffffffffffffffffffffffffffff1673ffffffffffffffffffffffffffffffffffffffff1673ffffffffffffffffffffffffffffffffffffffff168152602001908152602001600020898154811061266c5761266b614a5a565b5b90600052602060002090600502016001015460096000600660008e815260200190815260200160002060050160019054906101000a900473ffffffffffffffffffffffffffffffffffffffff1673ffffffffffffffffffffffffffffffffffffffff1673ffffffffffffffffffffffffffffffffffffffff1681526020019081526020016000208a8154811061270557612704614a5a565b5b906000526020600020906005020160020154898660405161272a95949392919061529a565b60405180910390a1505050505050612778565b6040517f08c379a000000000000000000000000000000000000000000000000000000000815260040161276f9061533a565b60405180910390fd5b808061278390614cd5565b915050611d22565b505b6000600960006006600085815260200190815260200160002060050160019054906101000a900473ffffffffffffffffffffffffffffffffffffffff1673ffffffffffffffffffffffffffffffffffffffff1673ffffffffffffffffffffffffffffffffffffffff1681526020019081526020016000208054905011156128f857600960006006600084815260200190815260200160002060050160019054906101000a900473ffffffffffffffffffffffffffffffffffffffff1673ffffffffffffffffffffffffffffffffffffffff1673ffffffffffffffffffffffffffffffffffffffff168152602001908152602001600020805480612893576128926151c0565b5b6001900381819060005260206000209060050201600080820160009055600182016000905560028201600090556003820160006101000a81549073ffffffffffffffffffffffffffffffffffffffff021916905560048201600090555050905561278d565b50565b60056020528060005260406000206000915090508060000154908060010154908060020154908060030160009054906101000a900460ff16908060030160019054906101000a900473ffffffffffffffffffffffffffffffffffffffff16908060040154908060050154908060060154905088565b6006600083815260200190815260200160002060050160019054906101000a900473ffffffffffffffffffffffffffffffffffffffff1673ffffffffffffffffffffffffffffffffffffffff163373ffffffffffffffffffffffffffffffffffffffff161480612a2b575060008054906101000a900473ffffffffffffffffffffffffffffffffffffffff1673ffffffffffffffffffffffffffffffffffffffff163373ffffffffffffffffffffffffffffffffffffffff16145b612a6a576040517f08c379a0000000000000000000000000000000000000000000000000000000008152600401612a61906153a6565b60405180910390fd5b8060066000848152602001908152602001600020600401819055505050565b600081831015612a995782612a9b565b815b905092915050565b6000600154821115612aea576040517f08c379a0000000000000000000000000000000000000000000000000000000008152600401612ae190614ed6565b60405180910390fd5b60016003811115612afe57612afd6145a9565b5b6005600084815260200190815260200160002060030160009054906101000a900460ff166003811115612b3457612b336145a9565b5b14612b74576040517f08c379a0000000000000000000000000000000000000000000000000000000008152600401612b6b90615412565b60405180910390fd5b60036005600084815260200190815260200160002060030160006101000a81548160ff02191690836003811115612bae57612bad6145a9565b5b021790555060005b600860006005600086815260200190815260200160002060030160019054906101000a900473ffffffffffffffffffffffffffffffffffffffff1673ffffffffffffffffffffffffffffffffffffffff1673ffffffffffffffffffffffffffffffffffffffff1681526020019081526020016000208054905081101561326b5760005b8181101561325757600860006005600087815260200190815260200160002060030160019054906101000a900473ffffffffffffffffffffffffffffffffffffffff1673ffffffffffffffffffffffffffffffffffffffff1673ffffffffffffffffffffffffffffffffffffffff1681526020019081526020016000208181548110612cc857612cc7614a5a565b5b90600052602060002090600a020160000154600860006005600088815260200190815260200160002060030160019054906101000a900473ffffffffffffffffffffffffffffffffffffffff1673ffffffffffffffffffffffffffffffffffffffff1673ffffffffffffffffffffffffffffffffffffffff1681526020019081526020016000208381548110612d6157612d60614a5a565b5b90600052602060002090600a0201600001541015613244576000600860006005600088815260200190815260200160002060030160019054906101000a900473ffffffffffffffffffffffffffffffffffffffff1673ffffffffffffffffffffffffffffffffffffffff1673ffffffffffffffffffffffffffffffffffffffff1681526020019081526020016000208381548110612e0257612e01614a5a565b5b90600052602060002090600a02016040518061014001604052908160008201548152602001600182015481526020016002820160009054906101000a900473ffffffffffffffffffffffffffffffffffffffff1673ffffffffffffffffffffffffffffffffffffffff1673ffffffffffffffffffffffffffffffffffffffff1681526020016003820154815260200160048201548152602001600582015481526020016006820154815260200160078201548152602001600882015481526020016009820160009054906101000a900460ff1615151515815250509050600860006005600088815260200190815260200160002060030160019054906101000a900473ffffffffffffffffffffffffffffffffffffffff1673ffffffffffffffffffffffffffffffffffffffff1673ffffffffffffffffffffffffffffffffffffffff1681526020019081526020016000208281548110612f6657612f65614a5a565b5b90600052602060002090600a0201600860006005600089815260200190815260200160002060030160019054906101000a900473ffffffffffffffffffffffffffffffffffffffff1673ffffffffffffffffffffffffffffffffffffffff1673ffffffffffffffffffffffffffffffffffffffff1681526020019081526020016000208481548110612ffb57612ffa614a5a565b5b90600052602060002090600a020160008201548160000155600182015481600101556002820160009054906101000a900473ffffffffffffffffffffffffffffffffffffffff168160020160006101000a81548173ffffffffffffffffffffffffffffffffffffffff021916908373ffffffffffffffffffffffffffffffffffffffff1602179055506003820154816003015560048201548160040155600582015481600501556006820154816006015560078201548160070155600882015481600801556009820160009054906101000a900460ff168160090160006101000a81548160ff02191690831515021790555090505080600860006005600089815260200190815260200160002060030160019054906101000a900473ffffffffffffffffffffffffffffffffffffffff1673ffffffffffffffffffffffffffffffffffffffff1673ffffffffffffffffffffffffffffffffffffffff168152602001908152602001600020838154811061317857613177614a5a565b5b90600052602060002090600a0201600082015181600001556020820151816001015560408201518160020160006101000a81548173ffffffffffffffffffffffffffffffffffffffff021916908373ffffffffffffffffffffffffffffffffffffffff160217905550606082015181600301556080820151816004015560a0820151816005015560c0820151816006015560e0820151816007015561010082015181600801556101208201518160090160006101000a81548160ff021916908315150217905550905050505b808061324f90614cd5565b915050612c39565b50808061326390614cd5565b915050612bb6565b50613274614267565b61327c614267565b613284614267565b60005b600860006005600089815260200190815260200160002060030160019054906101000a900473ffffffffffffffffffffffffffffffffffffffff1673ffffffffffffffffffffffffffffffffffffffff1673ffffffffffffffffffffffffffffffffffffffff1681526020019081526020016000208054905081101561361a57600060086000600560008a815260200190815260200160002060030160019054906101000a900473ffffffffffffffffffffffffffffffffffffffff1673ffffffffffffffffffffffffffffffffffffffff1673ffffffffffffffffffffffffffffffffffffffff16815260200190815260200160002082815481106133905761338f614a5a565b5b90600052602060002090600a02016040518061014001604052908160008201548152602001600182015481526020016002820160009054906101000a900473ffffffffffffffffffffffffffffffffffffffff1673ffffffffffffffffffffffffffffffffffffffff1673ffffffffffffffffffffffffffffffffffffffff1681526020016003820154815260200160048201548152602001600582015481526020016006820154815260200160078201548152602001600882015481526020016009820160009054906101000a900460ff1615151515815250509050600015158161012001511515036134845750613607565b806101000151838260c00151606481106134a1576134a0614a5a565b5b60200201818152505060006134d0600560008a8152602001908152602001600020600201548360a00151612a89565b90506134e0818360200151612a89565b90508160000151868360c00151606481106134fe576134fd614a5a565b5b60200201818152505080858360c001516064811061351f5761351e614a5a565b5b60200201818152505080600560008a8152602001908152602001600020600201600082825461354e919061518c565b925050819055508060086000600560008c815260200190815260200160002060030160019054906101000a900473ffffffffffffffffffffffffffffffffffffffff1673ffffffffffffffffffffffffffffffffffffffff1673ffffffffffffffffffffffffffffffffffffffff16815260200190815260200160002084815481106135dd576135dc614a5a565b5b90600052602060002090600a020160010160008282546135fd919061518c565b9250508190555050505b808061361290614cd5565b915050613287565b5060005b600860006005600089815260200190815260200160002060030160019054906101000a900473ffffffffffffffffffffffffffffffffffffffff1673ffffffffffffffffffffffffffffffffffffffff1673ffffffffffffffffffffffffffffffffffffffff1681526020019081526020016000208054905081101561396557600060086000600560008a815260200190815260200160002060030160019054906101000a900473ffffffffffffffffffffffffffffffffffffffff1673ffffffffffffffffffffffffffffffffffffffff1673ffffffffffffffffffffffffffffffffffffffff168152602001908152602001600020828154811061372757613726614a5a565b5b90600052602060002090600a02016040518061014001604052908160008201548152602001600182015481526020016002820160009054906101000a900473ffffffffffffffffffffffffffffffffffffffff1673ffffffffffffffffffffffffffffffffffffffff1673ffffffffffffffffffffffffffffffffffffffff1681526020016003820154815260200160048201548152602001600582015481526020016006820154815260200160078201548152602001600882015481526020016009820160009054906101000a900460ff16151515158152505090506000151581610120015115150361381b5750613952565b6000613841600560008a8152602001908152602001600020600201548360200151612a89565b905080858360c001516064811061385b5761385a614a5a565b5b6020020181815161386c91906149a9565b9150818152505080600560008a81526020019081526020016000206002016000828254613899919061518c565b925050819055508060086000600560008c815260200190815260200160002060030160019054906101000a900473ffffffffffffffffffffffffffffffffffffffff1673ffffffffffffffffffffffffffffffffffffffff1673ffffffffffffffffffffffffffffffffffffffff168152602001908152602001600020848154811061392857613927614a5a565b5b90600052602060002090600a02016001016000828254613948919061518c565b9250508190555050505b808061395d90614cd5565b91505061361e565b506000600190505b6002548111613bc157600083826064811061398b5761398a614a5a565b5b60200201511115613bae577f389cc4d2b135e7b676a809ad7bacdde1b644b0bbe73afdd545a176ea73b9551786828584606481106139cc576139cb614a5a565b5b60200201518785606481106139e4576139e3614a5a565b5b60200201516040516139f994939291906148c9565b60405180910390a1613a9c6006600083815260200190815260200160002060050160019054906101000a900473ffffffffffffffffffffffffffffffffffffffff16848360648110613a4e57613a4d614a5a565b5b6020020151868460648110613a6657613a65614a5a565b5b6020020151613a759190614be9565b848460648110613a8857613a87614a5a565b5b6020020151613a97919061518c565b613f01565b613b156005600088815260200190815260200160002060030160019054906101000a900473ffffffffffffffffffffffffffffffffffffffff16848360648110613ae957613ae8614a5a565b5b6020020151868460648110613b0157613b00614a5a565b5b6020020151613b109190614be9565b613f01565b6001600560008881526020019081526020016000206001015403613b5e57613b5981848360648110613b4a57613b49614a5a565b5b60200201516000896000613f79565b613bad565b6002600560008881526020019081526020016000206001015403613ba757613ba2816000858460648110613b9557613b94614a5a565b5b602002015160008a613f79565b613bac565b600080fd5b5b5b8080613bb990614cd5565b91505061396d565b505b6000600860006005600089815260200190815260200160002060030160019054906101000a900473ffffffffffffffffffffffffffffffffffffffff1673ffffffffffffffffffffffffffffffffffffffff1673ffffffffffffffffffffffffffffffffffffffff168152602001908152602001600020805490501115613d6257600860006005600088815260200190815260200160002060030160019054906101000a900473ffffffffffffffffffffffffffffffffffffffff1673ffffffffffffffffffffffffffffffffffffffff1673ffffffffffffffffffffffffffffffffffffffff168152602001908152602001600020805480613cc957613cc86151c0565b5b60019003818190600052602060002090600a020160008082016000905560018201600090556002820160006101000a81549073ffffffffffffffffffffffffffffffffffffffff02191690556003820160009055600482016000905560058201600090556006820160009055600782016000905560088201600090556009820160006101000a81549060ff021916905550509055613bc3565b429350505050919050565b60035481565b60015481565b60008060008060005b600b600088815260200190815260200160002080549050811015613ea45785600b60008981526020019081526020016000208281548110613dc657613dc5614a5a565b5b90600052602060002090600402016000015403613e915785600b60008981526020019081526020016000208281548110613e0357613e02614a5a565b5b906000526020600020906004020160010154600b60008a81526020019081526020016000208381548110613e3a57613e39614a5a565b5b906000526020600020906004020160020154600b60008b81526020019081526020016000208481548110613e7157613e70614a5a565b5b906000526020600020906004020160030154945094509450945050613ef8565b8080613e9c90614cd5565b915050613d82565b506001600014613ee9576040517f08c379a0000000000000000000000000000000000000000000000000000000008152600401613ee0906154a4565b60405180910390fd5b60008060008093509350935093505b92959194509250565b8173ffffffffffffffffffffffffffffffffffffffff166108fc829081150290604051600060405180830381858888f19350505050613f75576040517f08c379a0000000000000000000000000000000000000000000000000000000008152600401613f6c90615510565b60405180910390fd5b5050565b83600660008781526020019081526020016000206001016000828254613f9f91906149a9565b9250508190555082600660008781526020019081526020016000206002016000828254613fcc91906149a9565b92505081905550600061400b60066000888152602001908152602001600020600101546006600089815260200190815260200160002060020154612a89565b905080600660008881526020019081526020016000206001016000828254614033919061518c565b9250508190555080600660008881526020019081526020016000206002016000828254614060919061518c565b925050819055508060066000888152602001908152602001600020600301600082825461408d91906149a9565b9250508190555061409c6142b2565b600460008154809291906140af90614cd5565b919050555060045481600001818152505086816020018181525050868160400181815250506003816060018181525050600a6000600660008a815260200190815260200160002060050160019054906101000a900473ffffffffffffffffffffffffffffffffffffffff1673ffffffffffffffffffffffffffffffffffffffff1673ffffffffffffffffffffffffffffffffffffffff16815260200190815260200160002081908060018154018082558091505060019003906000526020600020906004020160009091909190915060008201518160000155602082015181600101556040820151816002015560608201518160030155505050505050505050565b6040518061014001604052806000815260200160008152602001600073ffffffffffffffffffffffffffffffffffffffff1681526020016000801916815260200160008019168152602001600081526020016000815260200160008152602001600081526020016000151581525090565b6040518060a00160405280600081526020016000815260200160008152602001600073ffffffffffffffffffffffffffffffffffffffff168152602001600081525090565b60405180610c800160405280606490602082028036833780820191505090505090565b6040518060800160405280600081526020016000815260200160008152602001600081525090565b6040518060800160405280600081526020016000815260200160008152602001600081525090565b600080fd5b6000819050919050565b6142f2816142df565b81146142fd57600080fd5b50565b60008135905061430f816142e9565b92915050565b6000806040838503121561432c5761432b6142da565b5b600061433a85828601614300565b925050602061434b85828601614300565b9150509250929050565b6000806000806080858703121561436f5761436e6142da565b5b600061437d87828801614300565b945050602061438e87828801614300565b935050604061439f87828801614300565b92505060606143b087828801614300565b91505092959194509250565b60008115159050919050565b6143d1816143bc565b82525050565b60006020820190506143ec60008301846143c8565b92915050565b600060208284031215614408576144076142da565b5b600061441684828501614300565b91505092915050565b614428816142df565b82525050565b6000602082019050614443600083018461441f565b92915050565b6000819050919050565b61445c81614449565b811461446757600080fd5b50565b60008135905061447981614453565b92915050565b600080600080600060a0868803121561449b5761449a6142da565b5b60006144a988828901614300565b95505060206144ba88828901614300565b94505060406144cb8882890161446a565b93505060606144dc8882890161446a565b92505060806144ed88828901614300565b9150509295509295909350565b600080600060608486031215614513576145126142da565b5b600061452186828701614300565b935050602061453286828701614300565b925050604061454386828701614300565b9150509250925092565b600073ffffffffffffffffffffffffffffffffffffffff82169050919050565b60006145788261454d565b9050919050565b6145888161456d565b82525050565b60006020820190506145a3600083018461457f565b92915050565b7f4e487b7100000000000000000000000000000000000000000000000000000000600052602160045260246000fd5b600481106145e9576145e86145a9565b5b50565b60008190506145fa826145d8565b919050565b600061460a826145ec565b9050919050565b61461a816145ff565b82525050565b600061462b8261454d565b9050919050565b61463b81614620565b82525050565b600061014082019050614657600083018d61441f565b614664602083018c61441f565b614671604083018b61441f565b61467e606083018a61441f565b61468b608083018961441f565b61469860a0830188614611565b6146a560c0830187614632565b6146b260e083018661441f565b6146c061010083018561441f565b6146ce61012083018461441f565b9b9a5050505050505050505050565b6000819050919050565b6146f0816146dd565b81146146fb57600080fd5b50565b60008135905061470d816146e7565b92915050565b61471c8161456d565b811461472757600080fd5b50565b60008135905061473981614713565b92915050565b60008060008060808587031215614759576147586142da565b5b6000614767878288016146fe565b945050602061477887828801614300565b93505060406147898782880161472a565b925050606061479a87828801614300565b91505092959194509250565b600080604083850312156147bd576147bc6142da565b5b60006147cb8582860161472a565b92505060206147dc85828601614300565b9150509250929050565b6000602082840312156147fc576147fb6142da565b5b600061480a8482850161472a565b91505092915050565b6000604082019050614828600083018561441f565b6148356020830184614632565b9392505050565b614845816146dd565b82525050565b600061010082019050614861600083018b61441f565b61486e602083018a61483c565b61487b604083018961441f565b6148886060830188614611565b6148956080830187614632565b6148a260a083018661441f565b6148af60c083018561441f565b6148bc60e083018461441f565b9998505050505050505050565b60006080820190506148de600083018761441f565b6148eb602083018661441f565b6148f8604083018561441f565b614905606083018461441f565b95945050505050565b61491781614620565b811461492257600080fd5b50565b6000813590506149348161490e565b92915050565b60008060408385031215614951576149506142da565b5b600061495f85828601614925565b925050602061497085828601614300565b9150509250929050565b7f4e487b7100000000000000000000000000000000000000000000000000000000600052601160045260246000fd5b60006149b4826142df565b91506149bf836142df565b92508282019050808211156149d7576149d661497a565b5b92915050565b600082825260208201905092915050565b7f496e76616c6964206d616e756661637475726572000000000000000000000000600082015250565b6000614a246014836149dd565b9150614a2f826149ee565b602082019050919050565b60006020820190508181036000830152614a5381614a17565b9050919050565b7f4e487b7100000000000000000000000000000000000000000000000000000000600052603260045260246000fd5b6000819050919050565b614aa4614a9f826142df565b614a89565b82525050565b6000614ab68284614a93565b60208201915081905092915050565b7f496e636f7272656374207072696365202d2d206b656570696e6720796f75722060008201527f6d6f6e6579000000000000000000000000000000000000000000000000000000602082015250565b6000614b216025836149dd565b9150614b2c82614ac5565b604082019050919050565b60006020820190508181036000830152614b5081614b14565b9050919050565b7f496e636f7272656374207175616e74697479202d2d206b656570696e6720796f60008201527f7572206d6f6e6579000000000000000000000000000000000000000000000000602082015250565b6000614bb36028836149dd565b9150614bbe82614b57565b604082019050919050565b60006020820190508181036000830152614be281614ba6565b9050919050565b6000614bf4826142df565b9150614bff836142df565b9250817fffffffffffffffffffffffffffffffffffffffffffffffffffffffffffffffff0483118215151615614c3857614c3761497a565b5b828202905092915050565b7f496e73756666696369656e742066756e64732073656e74202d2d206b6565706960008201527f6e6720796f7572206d6f6e657900000000000000000000000000000000000000602082015250565b6000614c9f602d836149dd565b9150614caa82614c43565b604082019050919050565b60006020820190508181036000830152614cce81614c92565b9050919050565b6000614ce0826142df565b91507fffffffffffffffffffffffffffffffffffffffffffffffffffffffffffffffff8203614d1257614d1161497a565b5b600182019050919050565b7f5573657220646f65736e27742065786973740000000000000000000000000000600082015250565b6000614d536012836149dd565b9150614d5e82614d1d565b602082019050919050565b60006020820190508181036000830152614d8281614d46565b9050919050565b7f41756374696f6e20696e2d70726f677265737320616c72656164790000000000600082015250565b6000614dbf601b836149dd565b9150614dca82614d89565b602082019050919050565b60006020820190508181036000830152614dee81614db2565b9050919050565b6000604082019050614e0a600083018561441f565b614e17602083018461441f565b9392505050565b7f4d616e75666163747572657220646f65736e2774206578697374000000000000600082015250565b6000614e54601a836149dd565b9150614e5f82614e1e565b602082019050919050565b60006020820190508181036000830152614e8381614e47565b9050919050565b7f537570706c69657220646f65736e277420657869737400000000000000000000600082015250565b6000614ec06016836149dd565b9150614ecb82614e8a565b602082019050919050565b60006020820190508181036000830152614eef81614eb3565b9050919050565b7f537570706c6965722069736e27742072756e6e696e6720616e2061756374696f60008201527f6e207269676874206e6f77000000000000000000000000000000000000000000602082015250565b6000614f52602b836149dd565b9150614f5d82614ef6565b604082019050919050565b60006020820190508181036000830152614f8181614f45565b9050919050565b7f537570706c69657220646f65736e742073656c6c20796f750000000000000000600082015250565b6000614fbe6018836149dd565b9150614fc982614f88565b602082019050919050565b60006020820190508181036000830152614fed81614fb1565b9050919050565b614ffd81614449565b82525050565b6000608082019050615018600083018761441f565b615025602083018661441f565b6150326040830185614ff4565b61503f6060830184614ff4565b95945050505050565b7f4163636573732044656e69656400000000000000000000000000000000000000600082015250565b600061507e600d836149dd565b915061508982615048565b602082019050919050565b600060208201905081810360008301526150ad81615071565b9050919050565b7f4d6f6e6579206e6f7420656e6f75676800000000000000000000000000000000600082015250565b60006150ea6010836149dd565b91506150f5826150b4565b602082019050919050565b60006020820190508181036000830152615119816150dd565b9050919050565b7f41756374696f6e20656e64656420616c72656164790000000000000000000000600082015250565b60006151566015836149dd565b915061516182615120565b602082019050919050565b6000602082019050818103600083015261518581615149565b9050919050565b6000615197826142df565b91506151a2836142df565b92508282039050818111156151ba576151b961497a565b5b92915050565b7f4e487b7100000000000000000000000000000000000000000000000000000000600052603160045260246000fd5b600060649050919050565b600081905092915050565b6000819050919050565b615218816142df565b82525050565b600061522a838361520f565b60208301905092915050565b6000602082019050919050565b61524c816151ef565b61525681846151fa565b925061526182615205565b8060005b83811015615292578151615279878261521e565b965061528483615236565b925050600181019050615265565b505050505050565b6000610d00820190506152b0600083018861441f565b6152bd602083018761441f565b6152ca604083018661441f565b6152d7606083018561441f565b6152e46080830184615243565b9695505050505050565b7f5175616e74697479206e6f7420417661696c61626c6500000000000000000000600082015250565b60006153246016836149dd565b915061532f826152ee565b602082019050919050565b6000602082019050818103600083015261535381615317565b9050919050565b7f43616e6e6f742062652073657420627920796f75000000000000000000000000600082015250565b60006153906014836149dd565b915061539b8261535a565b602082019050919050565b600060208201905081810360008301526153bf81615383565b9050919050565b7f52657665616c207068617365206e6f742072756e6e696e670000000000000000600082015250565b60006153fc6018836149dd565b9150615407826153c6565b602082019050919050565b6000602082019050818103600083015261542b816153ef565b9050919050565b7f436172206e6f7420666f756e6420696e2074686579206275796572732070757260008201527f6368617365730000000000000000000000000000000000000000000000000000602082015250565b600061548e6026836149dd565b915061549982615432565b604082019050919050565b600060208201905081810360008301526154bd81615481565b9050919050565b7f5472616e73666572206661696c65642100000000000000000000000000000000600082015250565b60006154fa6010836149dd565b9150615505826154c4565b602082019050919050565b60006020820190508181036000830152615529816154ed565b905091905056fea2646970667358221220099fe38541ac71dfc1634a4b3a6703ad5be82c9915388241bf7aa207824b7b9264736f6c63430008100033",
  "immutableReferences": {},
  "source": "pragma solidity >=0.8.16;\n\nimport {MarketPlace_Bidding} from \"./MarketPlace_Bidding.sol\";\n\ncontract MarketPlace_CustomerInterface is MarketPlace_Bidding {\n    constructor() {\n        owner = payable(msg.sender);\n        num_manufacturer = 0;\n        num_supplier = 0;\n        num_customer = 0;\n    }\n\n    function customerPurchase(\n        uint256 customerID,\n        uint256 manufacturerID,\n        uint256 quantity\n    ) external payable {\n        require(\n            customers[customerID].wallet == msg.sender || owner == msg.sender,\n            \"Access Denied\"\n        );\n        Purchase memory newpurchase;\n        newpurchase.sellerID = manufacturerID;\n        newpurchase.customeraddr = payable(msg.sender);\n        newpurchase.quantity = quantity;\n        newpurchase.buyerID = customerID;\n        newpurchase.money = msg.value;\n        uint256 unit_cost = manufacturers[manufacturerID].carsprice;\n        uint256 total_cost = unit_cost * quantity;\n        require(newpurchase.money >= total_cost, \"Money not enough\");\n        address manf_adrr = manufacturers[manufacturerID].wallet;\n        purchasesTillNow[manf_adrr].push(newpurchase);\n        emit CustomerRequest(\n            customerID,\n            manufacturerID,\n            quantity,\n            manufacturers[manufacturerID].carsprice\n        );\n    }\n\n    function manufacturerSupplyCars(uint256 manufacturerID) public {\n        require(num_manufacturer >= manufacturerID);\n        require(\n            msg.sender == manufacturers[manufacturerID].wallet ||\n                msg.sender == owner\n        );\n        for (\n            uint256 i = 0;\n            i < purchasesTillNow[manufacturers[manufacturerID].wallet].length;\n            i++\n        ) {\n            //Money is already checked, Quantity check is done here\n            if (\n                purchasesTillNow[manufacturers[manufacturerID].wallet][i]\n                    .quantity <= manufacturers[manufacturerID].cars\n            ) {\n                uint256 effective_price = purchasesTillNow[\n                    manufacturers[manufacturerID].wallet\n                ][i].quantity * manufacturers[manufacturerID].carsprice;\n                uint256 refund_amount = purchasesTillNow[\n                    manufacturers[manufacturerID].wallet\n                ][i].money - effective_price;\n\n                manufacturers[manufacturerID].cars -= purchasesTillNow[\n                    manufacturers[manufacturerID].wallet\n                ][i].quantity;\n                uint256 num_of_cars = purchasesTillNow[\n                    manufacturers[manufacturerID].wallet\n                ][i].quantity;\n                address mf_adrr = manufacturers[manufacturerID].wallet;\n                uint256[100] memory carTags;\n                uint256 carTagsIdx = 0;\n                for (uint256 j = 0; j < num_of_cars; j++) {\n                    uint256 idx = productsTillNow[mf_adrr].length - 1;\n                    Car memory newcar;\n                    newcar.tag = productsTillNow[mf_adrr][idx].tag;\n                    newcar.manufacturerID = manufacturerID;\n                    newcar.sellerIDA = productsTillNow[mf_adrr][idx].sellerA;\n                    newcar.sellerIDB = productsTillNow[mf_adrr][idx].sellerB;\n                    carsBought[purchasesTillNow[mf_adrr][idx].buyerID].push(\n                        newcar\n                    );\n                    productsTillNow[mf_adrr].pop();\n                    carTags[carTagsIdx++] = newcar.tag;\n                }\n                transferMoney(\n                    manufacturers[manufacturerID].wallet,\n                    effective_price\n                );\n                transferMoney(\n                    customers[\n                        purchasesTillNow[manufacturers[manufacturerID].wallet][\n                            i\n                        ].buyerID\n                    ].wallet,\n                    refund_amount\n                );\n                // refundMoney(\n                // customers[purchasesTillNow[manufacturers[manufacturerID].wallet][i].buyerID].wallet,\n                // refund_amount);\n                emit AllocateFromManufacturer(\n                    manufacturerID,\n                    purchasesTillNow[manufacturers[manufacturerID].wallet][i]\n                        .buyerID,\n                    purchasesTillNow[manufacturers[manufacturerID].wallet][i]\n                        .quantity,\n                    effective_price,\n                    carTags\n                );\n            } else {\n                //send them back the amount saying quantity not available\n                revert(\"Quantity not Available\"); //gas to caller\n            }\n        }\n        while (\n            purchasesTillNow[manufacturers[manufacturerID].wallet].length > 0\n        ) purchasesTillNow[manufacturers[manufacturerID].wallet].pop();\n    }\n\n    function addSupplier(\n        int256 partType,\n        uint256 quantityAvailable,\n        address payable addr,\n        uint256 auctionBidders\n    ) public returns (uint256 tag) {\n        num_supplier++;\n        suppliers[num_supplier] = Supplier(\n            num_supplier,\n            partType,\n            quantityAvailable,\n            AuctionState.NOT_STARTED,\n            addr,\n            auctionBidders,\n            0,\n            0\n        );\n        return num_supplier;\n    }\n\n    function addManufacturer(address payable addr, uint256 auctionBidders)\n        public\n        returns (uint256 tag)\n    {\n        num_manufacturer++;\n        manufacturers[num_manufacturer] = Manufacturer(\n            num_manufacturer,\n            0,\n            0,\n            0,\n            0,\n            AuctionState.NOT_STARTED,\n            addr,\n            auctionBidders,\n            0,\n            0\n        );\n        return num_manufacturer;\n    }\n\n    function addCustomer(address payable addr) public returns (uint256 tag) {\n        num_customer++;\n        customers[num_customer] = Customer(num_customer, addr);\n        return num_customer;\n    }\n\n    function verifyproduct(uint256 customerID, uint256 car_tag)\n        public\n        view\n        returns (\n            uint256 carID,\n            uint256 manfID,\n            uint256 sellerIDA,\n            uint256 sellerIDB\n        )\n    {\n        for (uint256 i = 0; i < carsBought[customerID].length; i++) {\n            if (carsBought[customerID][i].tag == car_tag)\n                return (\n                    car_tag,\n                    carsBought[customerID][i].manufacturerID,\n                    carsBought[customerID][i].sellerIDA,\n                    carsBought[customerID][i].sellerIDB\n                );\n        }\n        require(0 == 1, \"Car not found in they buyers purchases\");\n        return (0, 0, 0, 0);\n    }\n}\n",
  "sourcePath": "/home/sahithi/acads/sem7/dtb/Supply-Chain-Smartcontract/contracts/MarketPlace_CustomerInterface.sol",
  "compiler": {
    "name": "solc",
    "version": "0.8.16+commit.07a7930e.Emscripten.clang"
  },
  "schemaVersion": "3.4.8",
  "updatedAt": "2022-09-16T12:52:59.648Z",
  "networkType": "ethereum",
  "devdoc": {
    "kind": "dev",
    "methods": {},
    "version": 1
  },
  "userdoc": {
    "kind": "user",
    "methods": {},
    "version": 1
  }
}