{
  "contractName": "MarketPlace_Bidding",
  "abi": [
    {
      "anonymous": false,
      "inputs": [
        {
          "indexed": false,
          "internalType": "uint256",
          "name": "manufacturerID",
          "type": "uint256"
        },
        {
          "indexed": false,
          "internalType": "uint256",
          "name": "customerID",
          "type": "uint256"
        },
        {
          "indexed": false,
          "internalType": "uint256",
          "name": "quantity",
          "type": "uint256"
        },
        {
          "indexed": false,
          "internalType": "uint256",
          "name": "price",
          "type": "uint256"
        },
        {
          "indexed": false,
          "internalType": "uint256[100]",
          "name": "carTag",
          "type": "uint256[100]"
        }
      ],
      "name": "AllocateFromManufacturer",
      "type": "event"
    },
    {
      "anonymous": false,
      "inputs": [
        {
          "indexed": false,
          "internalType": "uint256",
          "name": "supplierID",
          "type": "uint256"
        },
        {
          "indexed": false,
          "internalType": "uint256",
          "name": "manufacturerID",
          "type": "uint256"
        },
        {
          "indexed": false,
          "internalType": "uint256",
          "name": "quantity",
          "type": "uint256"
        },
        {
          "indexed": false,
          "internalType": "uint256",
          "name": "price",
          "type": "uint256"
        }
      ],
      "name": "AllocateFromSupplier",
      "type": "event"
    },
    {
      "anonymous": false,
      "inputs": [
        {
          "indexed": false,
          "internalType": "uint256",
          "name": "CustomerID",
          "type": "uint256"
        },
        {
          "indexed": false,
          "internalType": "uint256",
          "name": "ManufacturerID",
          "type": "uint256"
        },
        {
          "indexed": false,
          "internalType": "uint256",
          "name": "Quantity",
          "type": "uint256"
        },
        {
          "indexed": false,
          "internalType": "uint256",
          "name": "Price",
          "type": "uint256"
        }
      ],
      "name": "CustomerRequest",
      "type": "event"
    },
    {
      "anonymous": false,
      "inputs": [
        {
          "indexed": false,
          "internalType": "uint256",
          "name": "manufacturerID",
          "type": "uint256"
        },
        {
          "indexed": false,
          "internalType": "uint256",
          "name": "endTime",
          "type": "uint256"
        }
      ],
      "name": "EndManufacturerAuction",
      "type": "event"
    },
    {
      "anonymous": false,
      "inputs": [
        {
          "indexed": false,
          "internalType": "uint256",
          "name": "supplierID",
          "type": "uint256"
        },
        {
          "indexed": false,
          "internalType": "uint256",
          "name": "endTime",
          "type": "uint256"
        }
      ],
      "name": "EndSupplierAuction",
      "type": "event"
    },
    {
      "anonymous": false,
      "inputs": [
        {
          "indexed": false,
          "internalType": "uint256",
          "name": "supplierID",
          "type": "uint256"
        },
        {
          "indexed": false,
          "internalType": "uint256",
          "name": "manufacturerID",
          "type": "uint256"
        },
        {
          "indexed": false,
          "internalType": "bytes32",
          "name": "blindBidPrice",
          "type": "bytes32"
        },
        {
          "indexed": false,
          "internalType": "bytes32",
          "name": "blindBidQuantity",
          "type": "bytes32"
        }
      ],
      "name": "ManufacturerBids",
      "type": "event"
    },
    {
      "anonymous": false,
      "inputs": [
        {
          "indexed": false,
          "internalType": "uint256",
          "name": "supplierID",
          "type": "uint256"
        },
        {
          "indexed": false,
          "internalType": "uint256",
          "name": "manufacturerID",
          "type": "uint256"
        },
        {
          "indexed": false,
          "internalType": "uint256",
          "name": "price",
          "type": "uint256"
        },
        {
          "indexed": false,
          "internalType": "uint256",
          "name": "quantity",
          "type": "uint256"
        }
      ],
      "name": "ManufacturerReveal",
      "type": "event"
    },
    {
      "anonymous": false,
      "inputs": [
        {
          "indexed": false,
          "internalType": "uint256",
          "name": "manufacturerID",
          "type": "uint256"
        },
        {
          "indexed": false,
          "internalType": "uint256",
          "name": "startTime",
          "type": "uint256"
        }
      ],
      "name": "StartManufacturerAuction",
      "type": "event"
    },
    {
      "anonymous": false,
      "inputs": [
        {
          "indexed": false,
          "internalType": "uint256",
          "name": "supplierID",
          "type": "uint256"
        },
        {
          "indexed": false,
          "internalType": "uint256",
          "name": "startTime",
          "type": "uint256"
        }
      ],
      "name": "StartSupplierAuction",
      "type": "event"
    },
    {
      "inputs": [
        {
          "internalType": "uint256",
          "name": "",
          "type": "uint256"
        }
      ],
      "name": "customers",
      "outputs": [
        {
          "internalType": "uint256",
          "name": "_tag",
          "type": "uint256"
        },
        {
          "internalType": "address",
          "name": "wallet",
          "type": "address"
        }
      ],
      "stateMutability": "view",
      "type": "function"
    },
    {
      "inputs": [
        {
          "internalType": "uint256",
          "name": "",
          "type": "uint256"
        }
      ],
      "name": "manufacturers",
      "outputs": [
        {
          "internalType": "uint256",
          "name": "_tag",
          "type": "uint256"
        },
        {
          "internalType": "uint256",
          "name": "quantityA",
          "type": "uint256"
        },
        {
          "internalType": "uint256",
          "name": "quantityB",
          "type": "uint256"
        },
        {
          "internalType": "uint256",
          "name": "cars",
          "type": "uint256"
        },
        {
          "internalType": "uint256",
          "name": "carsprice",
          "type": "uint256"
        },
        {
          "internalType": "enum MarketPlace_Structures.AuctionState",
          "name": "currentState",
          "type": "uint8"
        },
        {
          "internalType": "address",
          "name": "wallet",
          "type": "address"
        },
        {
          "internalType": "uint256",
          "name": "maxBidders",
          "type": "uint256"
        },
        {
          "internalType": "uint256",
          "name": "QA_sellerID",
          "type": "uint256"
        },
        {
          "internalType": "uint256",
          "name": "QB_sellerID",
          "type": "uint256"
        }
      ],
      "stateMutability": "view",
      "type": "function"
    },
    {
      "inputs": [
        {
          "internalType": "uint256",
          "name": "a",
          "type": "uint256"
        },
        {
          "internalType": "uint256",
          "name": "b",
          "type": "uint256"
        }
      ],
      "name": "minimum",
      "outputs": [
        {
          "internalType": "uint256",
          "name": "",
          "type": "uint256"
        }
      ],
      "stateMutability": "pure",
      "type": "function"
    },
    {
      "inputs": [],
      "name": "num_customer",
      "outputs": [
        {
          "internalType": "uint256",
          "name": "",
          "type": "uint256"
        }
      ],
      "stateMutability": "view",
      "type": "function"
    },
    {
      "inputs": [],
      "name": "num_manufacturer",
      "outputs": [
        {
          "internalType": "uint256",
          "name": "",
          "type": "uint256"
        }
      ],
      "stateMutability": "view",
      "type": "function"
    },
    {
      "inputs": [],
      "name": "num_products",
      "outputs": [
        {
          "internalType": "uint256",
          "name": "",
          "type": "uint256"
        }
      ],
      "stateMutability": "view",
      "type": "function"
    },
    {
      "inputs": [],
      "name": "num_supplier",
      "outputs": [
        {
          "internalType": "uint256",
          "name": "",
          "type": "uint256"
        }
      ],
      "stateMutability": "view",
      "type": "function"
    },
    {
      "inputs": [],
      "name": "owner",
      "outputs": [
        {
          "internalType": "address payable",
          "name": "",
          "type": "address"
        }
      ],
      "stateMutability": "view",
      "type": "function"
    },
    {
      "inputs": [
        {
          "internalType": "uint256",
          "name": "",
          "type": "uint256"
        }
      ],
      "name": "suppliers",
      "outputs": [
        {
          "internalType": "uint256",
          "name": "tag",
          "type": "uint256"
        },
        {
          "internalType": "int256",
          "name": "partType",
          "type": "int256"
        },
        {
          "internalType": "uint256",
          "name": "quantityAvailable",
          "type": "uint256"
        },
        {
          "internalType": "enum MarketPlace_Structures.AuctionState",
          "name": "currentState",
          "type": "uint8"
        },
        {
          "internalType": "address",
          "name": "wallet",
          "type": "address"
        },
        {
          "internalType": "uint256",
          "name": "maxBidders",
          "type": "uint256"
        },
        {
          "internalType": "uint256",
          "name": "bidsPlaced",
          "type": "uint256"
        },
        {
          "internalType": "uint256",
          "name": "bidsRevealed",
          "type": "uint256"
        }
      ],
      "stateMutability": "view",
      "type": "function"
    },
    {
      "inputs": [
        {
          "internalType": "address",
          "name": "senderaddr",
          "type": "address"
        },
        {
          "internalType": "uint256",
          "name": "effectivePrice",
          "type": "uint256"
        }
      ],
      "name": "transferMoney",
      "outputs": [],
      "stateMutability": "payable",
      "type": "function"
    },
    {
      "inputs": [
        {
          "internalType": "uint256",
          "name": "tag",
          "type": "uint256"
        }
      ],
      "name": "supplierStartAuction",
      "outputs": [
        {
          "internalType": "uint256",
          "name": "",
          "type": "uint256"
        }
      ],
      "stateMutability": "nonpayable",
      "type": "function"
    },
    {
      "inputs": [
        {
          "internalType": "uint256",
          "name": "tag",
          "type": "uint256"
        }
      ],
      "name": "supplierEndAuction",
      "outputs": [
        {
          "internalType": "uint256",
          "name": "",
          "type": "uint256"
        }
      ],
      "stateMutability": "nonpayable",
      "type": "function"
    },
    {
      "inputs": [
        {
          "internalType": "uint256",
          "name": "tag",
          "type": "uint256"
        }
      ],
      "name": "supplierEndReveal",
      "outputs": [
        {
          "internalType": "uint256",
          "name": "",
          "type": "uint256"
        }
      ],
      "stateMutability": "nonpayable",
      "type": "function"
    },
    {
      "inputs": [
        {
          "internalType": "uint256",
          "name": "manufacturerID",
          "type": "uint256"
        },
        {
          "internalType": "uint256",
          "name": "supplierID",
          "type": "uint256"
        },
        {
          "internalType": "bytes32",
          "name": "blindPrice",
          "type": "bytes32"
        },
        {
          "internalType": "bytes32",
          "name": "blindQuantity",
          "type": "bytes32"
        },
        {
          "internalType": "uint256",
          "name": "limit",
          "type": "uint256"
        }
      ],
      "name": "manufacturerPlacesBid",
      "outputs": [],
      "stateMutability": "payable",
      "type": "function"
    },
    {
      "inputs": [
        {
          "internalType": "uint256",
          "name": "manufacturerID",
          "type": "uint256"
        },
        {
          "internalType": "uint256",
          "name": "supplierID",
          "type": "uint256"
        },
        {
          "internalType": "uint256",
          "name": "price",
          "type": "uint256"
        },
        {
          "internalType": "uint256",
          "name": "quantity",
          "type": "uint256"
        }
      ],
      "name": "manufactuerRevealBid",
      "outputs": [
        {
          "internalType": "bool",
          "name": "",
          "type": "bool"
        }
      ],
      "stateMutability": "nonpayable",
      "type": "function"
    },
    {
      "inputs": [
        {
          "internalType": "uint256",
          "name": "suppliedID",
          "type": "uint256"
        },
        {
          "internalType": "uint256",
          "name": "quantityToAdd",
          "type": "uint256"
        }
      ],
      "name": "supplierAddQuantity",
      "outputs": [],
      "stateMutability": "nonpayable",
      "type": "function"
    },
    {
      "inputs": [
        {
          "internalType": "uint256",
          "name": "manufacturerID",
          "type": "uint256"
        },
        {
          "internalType": "uint256",
          "name": "price",
          "type": "uint256"
        }
      ],
      "name": "set_cars_price",
      "outputs": [],
      "stateMutability": "nonpayable",
      "type": "function"
    }
  ],
  "bytecode": "0x608060405234801561001057600080fd5b50613a1b806100206000396000f3fe6080604052600436106100fe5760003560e01c8063c040521711610095578063dd2d2a1211610064578063dd2d2a1214610371578063e2416a2c146103ae578063eb16d0e4146103eb578063edcac78b14610416578063fee666ad14610441576100fe565b8063c04052171461029b578063c0abda2a146102c6578063cea2312114610304578063d6470b4914610348576100fe565b80634cc9aff8116100d15780634cc9aff8146101c25780638da5cb5b146101ed57806390175af114610218578063aa8613c41461025e576100fe565b80630cf3750d146101035780631788b2d91461012c57806317c9dea61461016957806318c15d42146101a6575b600080fd5b34801561010f57600080fd5b5061012a60048036038101906101259190612c1e565b61045d565b005b34801561013857600080fd5b50610153600480360381019061014e9190612c5e565b61050b565b6040516101609190612ce0565b60405180910390f35b34801561017557600080fd5b50610190600480360381019061018b9190612cfb565b610c35565b60405161019d9190612d37565b60405180910390f35b6101c060048036038101906101bb9190612d88565b610dbe565b005b3480156101ce57600080fd5b506101d7611197565b6040516101e49190612d37565b60405180910390f35b3480156101f957600080fd5b5061020261119d565b60405161020f9190612e44565b60405180910390f35b34801561022457600080fd5b5061023f600480360381019061023a9190612cfb565b6111c1565b6040516102559a99989796959493929190612ef7565b60405180910390f35b34801561026a57600080fd5b5061028560048036038101906102809190612cfb565b611242565b6040516102929190612d37565b60405180910390f35b3480156102a757600080fd5b506102b06113af565b6040516102bd9190612d37565b60405180910390f35b3480156102d257600080fd5b506102ed60048036038101906102e89190612cfb565b6113b5565b6040516102fb929190612f93565b60405180910390f35b34801561031057600080fd5b5061032b60048036038101906103269190612cfb565b6113f9565b60405161033f989796959493929190612fd5565b60405180910390f35b34801561035457600080fd5b5061036f600480360381019061036a9190612c1e565b61146e565b005b34801561037d57600080fd5b5061039860048036038101906103939190612c1e565b611587565b6040516103a59190612d37565b60405180910390f35b3480156103ba57600080fd5b506103d560048036038101906103d09190612cfb565b6115a1565b6040516103e29190612d37565b60405180910390f35b3480156103f757600080fd5b5061040061286b565b60405161040d9190612d37565b60405180910390f35b34801561042257600080fd5b5061042b612871565b6040516104389190612d37565b60405180910390f35b61045b6004803603810190610456919061307f565b612877565b005b3373ffffffffffffffffffffffffffffffffffffffff166005600084815260200190815260200160002060030160019054906101000a900473ffffffffffffffffffffffffffffffffffffffff1673ffffffffffffffffffffffffffffffffffffffff16146104cb57600080fd5b8160015410156104da57600080fd5b8060056000848152602001908152602001600020600201600082825461050091906130ee565b925050819055505050565b6000600254851115610552576040517f08c379a00000000000000000000000000000000000000000000000000000000081526004016105499061317f565b60405180910390fd5b6001600381111561056657610565612e5f565b5b6005600086815260200190815260200160002060030160009054906101000a900460ff16600381111561059c5761059b612e5f565b5b146105a657600080fd5b60005b600860006005600088815260200190815260200160002060030160019054906101000a900473ffffffffffffffffffffffffffffffffffffffff1673ffffffffffffffffffffffffffffffffffffffff1673ffffffffffffffffffffffffffffffffffffffff16815260200190815260200160002080549050811015610c275785600860006005600089815260200190815260200160002060030160019054906101000a900473ffffffffffffffffffffffffffffffffffffffff1673ffffffffffffffffffffffffffffffffffffffff1673ffffffffffffffffffffffffffffffffffffffff16815260200190815260200160002082815481106106b1576106b061319f565b5b90600052602060002090600a02016006015403610c1457600860006005600088815260200190815260200160002060030160019054906101000a900473ffffffffffffffffffffffffffffffffffffffff1673ffffffffffffffffffffffffffffffffffffffff1673ffffffffffffffffffffffffffffffffffffffff168152602001908152602001600020818154811061074f5761074e61319f565b5b90600052602060002090600a0201600301548460405160200161077291906131ef565b60405160208183030381529060405280519060200120146107c8576040517f08c379a00000000000000000000000000000000000000000000000000000000081526004016107bf9061327c565b60405180910390fd5b600860006005600088815260200190815260200160002060030160019054906101000a900473ffffffffffffffffffffffffffffffffffffffff1673ffffffffffffffffffffffffffffffffffffffff1673ffffffffffffffffffffffffffffffffffffffff168152602001908152602001600020818154811061084f5761084e61319f565b5b90600052602060002090600a0201600401548360405160200161087291906131ef565b60405160208183030381529060405280519060200120146108c8576040517f08c379a00000000000000000000000000000000000000000000000000000000081526004016108bf9061330e565b60405180910390fd5b600083856108d6919061332e565b9050600860006005600089815260200190815260200160002060030160019054906101000a900473ffffffffffffffffffffffffffffffffffffffff1673ffffffffffffffffffffffffffffffffffffffff1673ffffffffffffffffffffffffffffffffffffffff168152602001908152602001600020828154811061095f5761095e61319f565b5b90600052602060002090600a0201600801548111156109b3576040517f08c379a00000000000000000000000000000000000000000000000000000000081526004016109aa906133fa565b60405180910390fd5b600160086000600560008a815260200190815260200160002060030160019054906101000a900473ffffffffffffffffffffffffffffffffffffffff1673ffffffffffffffffffffffffffffffffffffffff1673ffffffffffffffffffffffffffffffffffffffff1681526020019081526020016000208381548110610a3c57610a3b61319f565b5b90600052602060002090600a020160090160006101000a81548160ff0219169083151502179055508460086000600560008a815260200190815260200160002060030160019054906101000a900473ffffffffffffffffffffffffffffffffffffffff1673ffffffffffffffffffffffffffffffffffffffff1673ffffffffffffffffffffffffffffffffffffffff1681526020019081526020016000208381548110610aec57610aeb61319f565b5b90600052602060002090600a0201600001819055508360086000600560008a815260200190815260200160002060030160019054906101000a900473ffffffffffffffffffffffffffffffffffffffff1673ffffffffffffffffffffffffffffffffffffffff1673ffffffffffffffffffffffffffffffffffffffff1681526020019081526020016000208381548110610b8957610b8861319f565b5b90600052602060002090600a0201600101819055507fee291b467c1ae7dd29ffc047df3454190c09d3730496830a392209c7bc38f5ca86888787604051610bd3949392919061341a565b60405180910390a16001600560008881526020019081526020016000206006016000828254610c0291906130ee565b92505081905550600192505050610c2d565b8080610c1f9061345f565b9150506105a9565b50600090505b949350505050565b6000600154821115610c7c576040517f08c379a0000000000000000000000000000000000000000000000000000000008152600401610c73906134f3565b60405180910390fd5b60006003811115610c9057610c8f612e5f565b5b6005600084815260200190815260200160002060030160009054906101000a900460ff166003811115610cc657610cc5612e5f565b5b03610d06576040517f08c379a0000000000000000000000000000000000000000000000000000000008152600401610cfd9061355f565b60405180910390fd5b60006005600084815260200190815260200160002060030160006101000a81548160ff02191690836003811115610d4057610d3f612e5f565b5b021790555060006005600084815260200190815260200160002060050181905550600060056000848152602001908152602001600020600601819055507f10449cff8425a2b933fdd57a667ad5bdad3da817ddd9179f125f5c7756582e178242604051610dae92919061357f565b60405180910390a1429050919050565b846002541015610e03576040517f08c379a0000000000000000000000000000000000000000000000000000000008152600401610dfa906135f4565b60405180910390fd5b836001541015610e48576040517f08c379a0000000000000000000000000000000000000000000000000000000008152600401610e3f90613660565b60405180910390fd5b60006003811115610e5c57610e5b612e5f565b5b6005600086815260200190815260200160002060030160009054906101000a900460ff166003811115610e9257610e91612e5f565b5b14610ed2576040517f08c379a0000000000000000000000000000000000000000000000000000000008152600401610ec9906136f2565b60405180910390fd5b84841480610ee05750600384145b610f1f576040517f08c379a0000000000000000000000000000000000000000000000000000000008152600401610f169061375e565b60405180910390fd5b610f27612b27565b33816040019073ffffffffffffffffffffffffffffffffffffffff16908173ffffffffffffffffffffffffffffffffffffffff16815250503481610100018181525050858160c0018181525050848160e00181815250508381606001818152505082816080018181525050818160a00181815250506000816000018181525050600081602001818152505060008161012001901515908115158152505060006005600087815260200190815260200160002060030160019054906101000a900473ffffffffffffffffffffffffffffffffffffffff169050600860008273ffffffffffffffffffffffffffffffffffffffff1673ffffffffffffffffffffffffffffffffffffffff1681526020019081526020016000208290806001815401808255809150506001900390600052602060002090600a0201600090919091909150600082015181600001556020820151816001015560408201518160020160006101000a81548173ffffffffffffffffffffffffffffffffffffffff021916908373ffffffffffffffffffffffffffffffffffffffff160217905550606082015181600301556080820151816004015560a0820151816005015560c0820151816006015560e0820151816007015561010082015181600801556101208201518160090160006101000a81548160ff0219169083151502179055505050600160056000888152602001908152602001600020600501600082825461114a91906130ee565b925050819055507fdbd4ed8ca35fd076d8fdc3ddae80bf4fac4fc55dd918d5868cf2b92f82d2de5386888787604051611186949392919061378d565b60405180910390a150505050505050565b60025481565b60008054906101000a900473ffffffffffffffffffffffffffffffffffffffff1681565b60066020528060005260406000206000915090508060000154908060010154908060020154908060030154908060040154908060050160009054906101000a900460ff16908060050160019054906101000a900473ffffffffffffffffffffffffffffffffffffffff1690806006015490806007015490806008015490508a565b6000600154821115611289576040517f08c379a0000000000000000000000000000000000000000000000000000000008152600401611280906134f3565b60405180910390fd5b6000600381111561129d5761129c612e5f565b5b6005600084815260200190815260200160002060030160009054906101000a900460ff1660038111156112d3576112d2612e5f565b5b14611313576040517f08c379a000000000000000000000000000000000000000000000000000000000815260040161130a9061381e565b60405180910390fd5b60016005600084815260200190815260200160002060030160006101000a81548160ff0219169083600381111561134d5761134c612e5f565b5b0217905550600060056000848152602001908152602001600020600601819055507f0c368e4cdd0e23707857d20056076efe6f588f9ce71ab6ce676d331fdc035f5b824260405161139f92919061357f565b60405180910390a1429050919050565b60045481565b60076020528060005260406000206000915090508060000154908060010160009054906101000a900473ffffffffffffffffffffffffffffffffffffffff16905082565b60056020528060005260406000206000915090508060000154908060010154908060020154908060030160009054906101000a900460ff16908060030160019054906101000a900473ffffffffffffffffffffffffffffffffffffffff16908060040154908060050154908060060154905088565b6006600083815260200190815260200160002060050160019054906101000a900473ffffffffffffffffffffffffffffffffffffffff1673ffffffffffffffffffffffffffffffffffffffff163373ffffffffffffffffffffffffffffffffffffffff161480611529575060008054906101000a900473ffffffffffffffffffffffffffffffffffffffff1673ffffffffffffffffffffffffffffffffffffffff163373ffffffffffffffffffffffffffffffffffffffff16145b611568576040517f08c379a000000000000000000000000000000000000000000000000000000000815260040161155f9061388a565b60405180910390fd5b8060066000848152602001908152602001600020600401819055505050565b6000818310156115975782611599565b815b905092915050565b60006001548211156115e8576040517f08c379a00000000000000000000000000000000000000000000000000000000081526004016115df90613660565b60405180910390fd5b600160038111156115fc576115fb612e5f565b5b6005600084815260200190815260200160002060030160009054906101000a900460ff16600381111561163257611631612e5f565b5b14611672576040517f08c379a0000000000000000000000000000000000000000000000000000000008152600401611669906138f6565b60405180910390fd5b60036005600084815260200190815260200160002060030160006101000a81548160ff021916908360038111156116ac576116ab612e5f565b5b021790555060005b600860006005600086815260200190815260200160002060030160019054906101000a900473ffffffffffffffffffffffffffffffffffffffff1673ffffffffffffffffffffffffffffffffffffffff1673ffffffffffffffffffffffffffffffffffffffff16815260200190815260200160002080549050811015611d695760005b81811015611d5557600860006005600087815260200190815260200160002060030160019054906101000a900473ffffffffffffffffffffffffffffffffffffffff1673ffffffffffffffffffffffffffffffffffffffff1673ffffffffffffffffffffffffffffffffffffffff16815260200190815260200160002081815481106117c6576117c561319f565b5b90600052602060002090600a020160000154600860006005600088815260200190815260200160002060030160019054906101000a900473ffffffffffffffffffffffffffffffffffffffff1673ffffffffffffffffffffffffffffffffffffffff1673ffffffffffffffffffffffffffffffffffffffff168152602001908152602001600020838154811061185f5761185e61319f565b5b90600052602060002090600a0201600001541015611d42576000600860006005600088815260200190815260200160002060030160019054906101000a900473ffffffffffffffffffffffffffffffffffffffff1673ffffffffffffffffffffffffffffffffffffffff1673ffffffffffffffffffffffffffffffffffffffff1681526020019081526020016000208381548110611900576118ff61319f565b5b90600052602060002090600a02016040518061014001604052908160008201548152602001600182015481526020016002820160009054906101000a900473ffffffffffffffffffffffffffffffffffffffff1673ffffffffffffffffffffffffffffffffffffffff1673ffffffffffffffffffffffffffffffffffffffff1681526020016003820154815260200160048201548152602001600582015481526020016006820154815260200160078201548152602001600882015481526020016009820160009054906101000a900460ff1615151515815250509050600860006005600088815260200190815260200160002060030160019054906101000a900473ffffffffffffffffffffffffffffffffffffffff1673ffffffffffffffffffffffffffffffffffffffff1673ffffffffffffffffffffffffffffffffffffffff1681526020019081526020016000208281548110611a6457611a6361319f565b5b90600052602060002090600a0201600860006005600089815260200190815260200160002060030160019054906101000a900473ffffffffffffffffffffffffffffffffffffffff1673ffffffffffffffffffffffffffffffffffffffff1673ffffffffffffffffffffffffffffffffffffffff1681526020019081526020016000208481548110611af957611af861319f565b5b90600052602060002090600a020160008201548160000155600182015481600101556002820160009054906101000a900473ffffffffffffffffffffffffffffffffffffffff168160020160006101000a81548173ffffffffffffffffffffffffffffffffffffffff021916908373ffffffffffffffffffffffffffffffffffffffff1602179055506003820154816003015560048201548160040155600582015481600501556006820154816006015560078201548160070155600882015481600801556009820160009054906101000a900460ff168160090160006101000a81548160ff02191690831515021790555090505080600860006005600089815260200190815260200160002060030160019054906101000a900473ffffffffffffffffffffffffffffffffffffffff1673ffffffffffffffffffffffffffffffffffffffff1673ffffffffffffffffffffffffffffffffffffffff1681526020019081526020016000208381548110611c7657611c7561319f565b5b90600052602060002090600a0201600082015181600001556020820151816001015560408201518160020160006101000a81548173ffffffffffffffffffffffffffffffffffffffff021916908373ffffffffffffffffffffffffffffffffffffffff160217905550606082015181600301556080820151816004015560a0820151816005015560c0820151816006015560e0820151816007015561010082015181600801556101208201518160090160006101000a81548160ff021916908315150217905550905050505b8080611d4d9061345f565b915050611737565b508080611d619061345f565b9150506116b4565b50611d72612b98565b611d7a612b98565b611d82612b98565b60005b600860006005600089815260200190815260200160002060030160019054906101000a900473ffffffffffffffffffffffffffffffffffffffff1673ffffffffffffffffffffffffffffffffffffffff1673ffffffffffffffffffffffffffffffffffffffff1681526020019081526020016000208054905081101561211857600060086000600560008a815260200190815260200160002060030160019054906101000a900473ffffffffffffffffffffffffffffffffffffffff1673ffffffffffffffffffffffffffffffffffffffff1673ffffffffffffffffffffffffffffffffffffffff1681526020019081526020016000208281548110611e8e57611e8d61319f565b5b90600052602060002090600a02016040518061014001604052908160008201548152602001600182015481526020016002820160009054906101000a900473ffffffffffffffffffffffffffffffffffffffff1673ffffffffffffffffffffffffffffffffffffffff1673ffffffffffffffffffffffffffffffffffffffff1681526020016003820154815260200160048201548152602001600582015481526020016006820154815260200160078201548152602001600882015481526020016009820160009054906101000a900460ff161515151581525050905060001515816101200151151503611f825750612105565b806101000151838260c0015160648110611f9f57611f9e61319f565b5b6020020181815250506000611fce600560008a8152602001908152602001600020600201548360a00151611587565b9050611fde818360200151611587565b90508160000151868360c0015160648110611ffc57611ffb61319f565b5b60200201818152505080858360c001516064811061201d5761201c61319f565b5b60200201818152505080600560008a8152602001908152602001600020600201600082825461204c9190613916565b925050819055508060086000600560008c815260200190815260200160002060030160019054906101000a900473ffffffffffffffffffffffffffffffffffffffff1673ffffffffffffffffffffffffffffffffffffffff1673ffffffffffffffffffffffffffffffffffffffff16815260200190815260200160002084815481106120db576120da61319f565b5b90600052602060002090600a020160010160008282546120fb9190613916565b9250508190555050505b80806121109061345f565b915050611d85565b5060005b600860006005600089815260200190815260200160002060030160019054906101000a900473ffffffffffffffffffffffffffffffffffffffff1673ffffffffffffffffffffffffffffffffffffffff1673ffffffffffffffffffffffffffffffffffffffff1681526020019081526020016000208054905081101561246357600060086000600560008a815260200190815260200160002060030160019054906101000a900473ffffffffffffffffffffffffffffffffffffffff1673ffffffffffffffffffffffffffffffffffffffff1673ffffffffffffffffffffffffffffffffffffffff16815260200190815260200160002082815481106122255761222461319f565b5b90600052602060002090600a02016040518061014001604052908160008201548152602001600182015481526020016002820160009054906101000a900473ffffffffffffffffffffffffffffffffffffffff1673ffffffffffffffffffffffffffffffffffffffff1673ffffffffffffffffffffffffffffffffffffffff1681526020016003820154815260200160048201548152602001600582015481526020016006820154815260200160078201548152602001600882015481526020016009820160009054906101000a900460ff1615151515815250509050600015158161012001511515036123195750612450565b600061233f600560008a8152602001908152602001600020600201548360200151611587565b905080858360c00151606481106123595761235861319f565b5b6020020181815161236a91906130ee565b9150818152505080600560008a815260200190815260200160002060020160008282546123979190613916565b925050819055508060086000600560008c815260200190815260200160002060030160019054906101000a900473ffffffffffffffffffffffffffffffffffffffff1673ffffffffffffffffffffffffffffffffffffffff1673ffffffffffffffffffffffffffffffffffffffff16815260200190815260200160002084815481106124265761242561319f565b5b90600052602060002090600a020160010160008282546124469190613916565b9250508190555050505b808061245b9061345f565b91505061211c565b506000600190505b60025481116126bf5760008382606481106124895761248861319f565b5b602002015111156126ac577f389cc4d2b135e7b676a809ad7bacdde1b644b0bbe73afdd545a176ea73b9551786828584606481106124ca576124c961319f565b5b60200201518785606481106124e2576124e161319f565b5b60200201516040516124f7949392919061341a565b60405180910390a161259a6006600083815260200190815260200160002060050160019054906101000a900473ffffffffffffffffffffffffffffffffffffffff1684836064811061254c5761254b61319f565b5b60200201518684606481106125645761256361319f565b5b6020020151612573919061332e565b8484606481106125865761258561319f565b5b60200201516125959190613916565b612877565b6126136005600088815260200190815260200160002060030160019054906101000a900473ffffffffffffffffffffffffffffffffffffffff168483606481106125e7576125e661319f565b5b60200201518684606481106125ff576125fe61319f565b5b602002015161260e919061332e565b612877565b600160056000888152602001908152602001600020600101540361265c57612657818483606481106126485761264761319f565b5b602002015160008960006128ef565b6126ab565b60026005600088815260200190815260200160002060010154036126a5576126a08160008584606481106126935761269261319f565b5b602002015160008a6128ef565b6126aa565b600080fd5b5b5b80806126b79061345f565b91505061246b565b505b6000600860006005600089815260200190815260200160002060030160019054906101000a900473ffffffffffffffffffffffffffffffffffffffff1673ffffffffffffffffffffffffffffffffffffffff1673ffffffffffffffffffffffffffffffffffffffff16815260200190815260200160002080549050111561286057600860006005600088815260200190815260200160002060030160019054906101000a900473ffffffffffffffffffffffffffffffffffffffff1673ffffffffffffffffffffffffffffffffffffffff1673ffffffffffffffffffffffffffffffffffffffff1681526020019081526020016000208054806127c7576127c661394a565b5b60019003818190600052602060002090600a020160008082016000905560018201600090556002820160006101000a81549073ffffffffffffffffffffffffffffffffffffffff02191690556003820160009055600482016000905560058201600090556006820160009055600782016000905560088201600090556009820160006101000a81549060ff0219169055505090556126c1565b429350505050919050565b60035481565b60015481565b8173ffffffffffffffffffffffffffffffffffffffff166108fc829081150290604051600060405180830381858888f193505050506128eb576040517f08c379a00000000000000000000000000000000000000000000000000000000081526004016128e2906139c5565b60405180910390fd5b5050565b8360066000878152602001908152602001600020600101600082825461291591906130ee565b925050819055508260066000878152602001908152602001600020600201600082825461294291906130ee565b92505081905550600061298160066000888152602001908152602001600020600101546006600089815260200190815260200160002060020154611587565b9050806006600088815260200190815260200160002060010160008282546129a99190613916565b92505081905550806006600088815260200190815260200160002060020160008282546129d69190613916565b9250508190555080600660008881526020019081526020016000206003016000828254612a0391906130ee565b92505081905550612a12612bbb565b60046000815480929190612a259061345f565b919050555060045481600001818152505086816020018181525050868160400181815250506003816060018181525050600a6000600660008a815260200190815260200160002060050160019054906101000a900473ffffffffffffffffffffffffffffffffffffffff1673ffffffffffffffffffffffffffffffffffffffff1673ffffffffffffffffffffffffffffffffffffffff16815260200190815260200160002081908060018154018082558091505060019003906000526020600020906004020160009091909190915060008201518160000155602082015181600101556040820151816002015560608201518160030155505050505050505050565b6040518061014001604052806000815260200160008152602001600073ffffffffffffffffffffffffffffffffffffffff1681526020016000801916815260200160008019168152602001600081526020016000815260200160008152602001600081526020016000151581525090565b60405180610c800160405280606490602082028036833780820191505090505090565b6040518060800160405280600081526020016000815260200160008152602001600081525090565b600080fd5b6000819050919050565b612bfb81612be8565b8114612c0657600080fd5b50565b600081359050612c1881612bf2565b92915050565b60008060408385031215612c3557612c34612be3565b5b6000612c4385828601612c09565b9250506020612c5485828601612c09565b9150509250929050565b60008060008060808587031215612c7857612c77612be3565b5b6000612c8687828801612c09565b9450506020612c9787828801612c09565b9350506040612ca887828801612c09565b9250506060612cb987828801612c09565b91505092959194509250565b60008115159050919050565b612cda81612cc5565b82525050565b6000602082019050612cf56000830184612cd1565b92915050565b600060208284031215612d1157612d10612be3565b5b6000612d1f84828501612c09565b91505092915050565b612d3181612be8565b82525050565b6000602082019050612d4c6000830184612d28565b92915050565b6000819050919050565b612d6581612d52565b8114612d7057600080fd5b50565b600081359050612d8281612d5c565b92915050565b600080600080600060a08688031215612da457612da3612be3565b5b6000612db288828901612c09565b9550506020612dc388828901612c09565b9450506040612dd488828901612d73565b9350506060612de588828901612d73565b9250506080612df688828901612c09565b9150509295509295909350565b600073ffffffffffffffffffffffffffffffffffffffff82169050919050565b6000612e2e82612e03565b9050919050565b612e3e81612e23565b82525050565b6000602082019050612e596000830184612e35565b92915050565b7f4e487b7100000000000000000000000000000000000000000000000000000000600052602160045260246000fd5b60048110612e9f57612e9e612e5f565b5b50565b6000819050612eb082612e8e565b919050565b6000612ec082612ea2565b9050919050565b612ed081612eb5565b82525050565b6000612ee182612e03565b9050919050565b612ef181612ed6565b82525050565b600061014082019050612f0d600083018d612d28565b612f1a602083018c612d28565b612f27604083018b612d28565b612f34606083018a612d28565b612f416080830189612d28565b612f4e60a0830188612ec7565b612f5b60c0830187612ee8565b612f6860e0830186612d28565b612f76610100830185612d28565b612f84610120830184612d28565b9b9a5050505050505050505050565b6000604082019050612fa86000830185612d28565b612fb56020830184612ee8565b9392505050565b6000819050919050565b612fcf81612fbc565b82525050565b600061010082019050612feb600083018b612d28565b612ff8602083018a612fc6565b6130056040830189612d28565b6130126060830188612ec7565b61301f6080830187612ee8565b61302c60a0830186612d28565b61303960c0830185612d28565b61304660e0830184612d28565b9998505050505050505050565b61305c81612ed6565b811461306757600080fd5b50565b60008135905061307981613053565b92915050565b6000806040838503121561309657613095612be3565b5b60006130a48582860161306a565b92505060206130b585828601612c09565b9150509250929050565b7f4e487b7100000000000000000000000000000000000000000000000000000000600052601160045260246000fd5b60006130f982612be8565b915061310483612be8565b925082820190508082111561311c5761311b6130bf565b5b92915050565b600082825260208201905092915050565b7f496e76616c6964206d616e756661637475726572000000000000000000000000600082015250565b6000613169601483613122565b915061317482613133565b602082019050919050565b600060208201905081810360008301526131988161315c565b9050919050565b7f4e487b7100000000000000000000000000000000000000000000000000000000600052603260045260246000fd5b6000819050919050565b6131e96131e482612be8565b6131ce565b82525050565b60006131fb82846131d8565b60208201915081905092915050565b7f496e636f7272656374207072696365202d2d206b656570696e6720796f75722060008201527f6d6f6e6579000000000000000000000000000000000000000000000000000000602082015250565b6000613266602583613122565b91506132718261320a565b604082019050919050565b6000602082019050818103600083015261329581613259565b9050919050565b7f496e636f7272656374207175616e74697479202d2d206b656570696e6720796f60008201527f7572206d6f6e6579000000000000000000000000000000000000000000000000602082015250565b60006132f8602883613122565b91506133038261329c565b604082019050919050565b60006020820190508181036000830152613327816132eb565b9050919050565b600061333982612be8565b915061334483612be8565b9250817fffffffffffffffffffffffffffffffffffffffffffffffffffffffffffffffff048311821515161561337d5761337c6130bf565b5b828202905092915050565b7f496e73756666696369656e742066756e64732073656e74202d2d206b6565706960008201527f6e6720796f7572206d6f6e657900000000000000000000000000000000000000602082015250565b60006133e4602d83613122565b91506133ef82613388565b604082019050919050565b60006020820190508181036000830152613413816133d7565b9050919050565b600060808201905061342f6000830187612d28565b61343c6020830186612d28565b6134496040830185612d28565b6134566060830184612d28565b95945050505050565b600061346a82612be8565b91507fffffffffffffffffffffffffffffffffffffffffffffffffffffffffffffffff820361349c5761349b6130bf565b5b600182019050919050565b7f5573657220646f65736e27742065786973740000000000000000000000000000600082015250565b60006134dd601283613122565b91506134e8826134a7565b602082019050919050565b6000602082019050818103600083015261350c816134d0565b9050919050565b7f41756374696f6e20696e2d70726f677265737320616c72656164790000000000600082015250565b6000613549601b83613122565b915061355482613513565b602082019050919050565b600060208201905081810360008301526135788161353c565b9050919050565b60006040820190506135946000830185612d28565b6135a16020830184612d28565b9392505050565b7f4d616e75666163747572657220646f65736e2774206578697374000000000000600082015250565b60006135de601a83613122565b91506135e9826135a8565b602082019050919050565b6000602082019050818103600083015261360d816135d1565b9050919050565b7f537570706c69657220646f65736e277420657869737400000000000000000000600082015250565b600061364a601683613122565b915061365582613614565b602082019050919050565b600060208201905081810360008301526136798161363d565b9050919050565b7f537570706c6965722069736e27742072756e6e696e6720616e2061756374696f60008201527f6e207269676874206e6f77000000000000000000000000000000000000000000602082015250565b60006136dc602b83613122565b91506136e782613680565b604082019050919050565b6000602082019050818103600083015261370b816136cf565b9050919050565b7f537570706c69657220646f65736e742073656c6c20796f750000000000000000600082015250565b6000613748601883613122565b915061375382613712565b602082019050919050565b600060208201905081810360008301526137778161373b565b9050919050565b61378781612d52565b82525050565b60006080820190506137a26000830187612d28565b6137af6020830186612d28565b6137bc604083018561377e565b6137c9606083018461377e565b95945050505050565b7f41756374696f6e20656e64656420616c72656164790000000000000000000000600082015250565b6000613808601583613122565b9150613813826137d2565b602082019050919050565b60006020820190508181036000830152613837816137fb565b9050919050565b7f43616e6e6f742062652073657420627920796f75000000000000000000000000600082015250565b6000613874601483613122565b915061387f8261383e565b602082019050919050565b600060208201905081810360008301526138a381613867565b9050919050565b7f52657665616c207068617365206e6f742072756e6e696e670000000000000000600082015250565b60006138e0601883613122565b91506138eb826138aa565b602082019050919050565b6000602082019050818103600083015261390f816138d3565b9050919050565b600061392182612be8565b915061392c83612be8565b9250828203905081811115613944576139436130bf565b5b92915050565b7f4e487b7100000000000000000000000000000000000000000000000000000000600052603160045260246000fd5b7f5472616e73666572206661696c65642100000000000000000000000000000000600082015250565b60006139af601083613122565b91506139ba82613979565b602082019050919050565b600060208201905081810360008301526139de816139a2565b905091905056fea2646970667358221220c623bdbe3252cb0195806d7fd0c73823145f23fba8014f4153daf6951804259264736f6c63430008100033",
  "immutableReferences": {},
  "source": "pragma solidity >=0.8.16;\n\nimport {MarketPlace_Events} from \"./MarketPlace_Events.sol\";\n\ncontract MarketPlace_Bidding is MarketPlace_Events {\n    // @notice Transfer money to address\n    // @param senderaddr Wallet address of the person to send money to\n    // @param effectivePrice Amount to send\n    function transferMoney(address senderaddr, uint256 effectivePrice)\n        public\n        payable\n    {\n        // do eth transactions here\n        require(payable(senderaddr).send(effectivePrice), \"Transfer failed!\");\n    }\n\n    // @notice Supplier start their auction here\n    // @param tag Tag ID of the supplier\n    function supplierStartAuction(uint256 tag) public returns (uint256) {\n        require(tag <= num_supplier, \"User doesn't exist\");\n        require(\n            suppliers[tag].currentState != AuctionState.RUNNING,\n            \"Auction in-progress already\"\n        );\n\n        // TODO: UNCOMMENT THE FOLLOWING TO ENSURE PEOPLE ARE STARTING AUCTIONS FOR THEMSELVES ONLY\n        // require(\n        //     suppliers[tag].wallet == msg.sender,\n        //     \"Start auction only for yourself!\"\n        // );\n\n        suppliers[tag].currentState = AuctionState.RUNNING;\n        suppliers[tag].bidsPlaced = 0;\n        suppliers[tag].bidsRevealed = 0;\n        emit StartSupplierAuction(tag, block.timestamp);\n        return block.timestamp;\n    }\n\n    // @notice Supplier end their auction here\n    // @param tag Tag ID of the supplier\n    function supplierEndAuction(uint256 tag) public returns (uint256) {\n        // function for suppilier to end their auction\n        require(tag <= num_supplier, \"User doesn't exist\");\n        require(\n            suppliers[tag].currentState == AuctionState.RUNNING,\n            \"Auction ended already\"\n        );\n\n        // TODO: UNCOMMENT THE FOLLOWING TO ENSURE PEOPLE ARE ENDING AUCTIONS FOR THEMSELVES ONLY\n        // require(\n        //     suppliers[tag].wallet == msg.sender,\n        //     \"End auction only for yourself!\"\n        // );\n\n        suppliers[tag].currentState = AuctionState.REVEALING;\n        suppliers[tag].bidsRevealed = 0;\n        emit EndSupplierAuction(tag, block.timestamp);\n        return block.timestamp;\n    }\n\n    // @notice Supplier end their reveal phase and allocate resources\n    // @param tag Tag ID of the supplier\n    function supplierEndReveal(uint256 tag)\n        public\n        returns (\n            // afterOnly(supplierEndAuction(tag))\n            uint256\n        )\n    {\n        require(tag <= num_supplier, \"Supplier doesn't exist\");\n        require(\n            suppliers[tag].currentState == AuctionState.REVEALING,\n            \"Reveal phase not running\"\n        );\n\n        // TODO: UNCOMMENT THE FOLLOWING TO ENSURE PEOPLE ARE ALLOCATING FOR THEMSELVES ONLY\n        // require(\n        //     (suppliers[tag].wallet == msg.sender || owner == msg.sender),\n        //     \"Operation now allowed\"\n        // );\n\n        suppliers[tag].currentState = AuctionState.FINISHED;\n\n        // do allocation logic and emit\n\n        // bubble sort according to bid value\n        for (uint256 i = 0; i < bidsTillNow[suppliers[tag].wallet].length; i++)\n            for (uint256 j = 0; j < i; j++)\n                if (\n                    bidsTillNow[suppliers[tag].wallet][i].valuePrice <\n                    bidsTillNow[suppliers[tag].wallet][j].valuePrice\n                ) {\n                    Bid memory x = bidsTillNow[suppliers[tag].wallet][i];\n                    bidsTillNow[suppliers[tag].wallet][i] = bidsTillNow[\n                        suppliers[tag].wallet\n                    ][j];\n                    bidsTillNow[suppliers[tag].wallet][j] = x;\n                }\n        // allocate according to limiting resource first\n        uint256[100] memory allocatingPrices;\n        uint256[100] memory allocatingQuantities;\n        uint256[100] memory moneySentWithBid;\n\n        for (\n            uint256 i = 0;\n            i < bidsTillNow[suppliers[tag].wallet].length;\n            i++\n        ) {\n            Bid memory bid = bidsTillNow[suppliers[tag].wallet][i];\n            if (bid.correctReveal == false) continue;\n\n            moneySentWithBid[bid.buyerID] = bid.moneySent;\n\n            uint256 allocatingHere = minimum(\n                suppliers[tag].quantityAvailable,\n                bid.limitingResourceQuantity\n            );\n            allocatingHere = minimum(allocatingHere, bid.valueQuantity);\n\n            allocatingPrices[bid.buyerID] = bid.valuePrice;\n            allocatingQuantities[bid.buyerID] = allocatingHere;\n            suppliers[tag].quantityAvailable -= allocatingHere;\n            bidsTillNow[suppliers[tag].wallet][i]\n                .valueQuantity -= allocatingHere;\n        }\n\n        // allocate remaining for maximum profit\n        for (\n            uint256 i = 0;\n            i < bidsTillNow[suppliers[tag].wallet].length;\n            i++\n        ) {\n            Bid memory bid = bidsTillNow[suppliers[tag].wallet][i];\n            if (bid.correctReveal == false) continue;\n\n            uint256 allocatingHere = minimum(\n                suppliers[tag].quantityAvailable,\n                bid.valueQuantity\n            );\n\n            allocatingQuantities[bid.buyerID] += allocatingHere;\n            suppliers[tag].quantityAvailable -= allocatingHere;\n            bidsTillNow[suppliers[tag].wallet][i]\n                .valueQuantity -= allocatingHere;\n        }\n\n        // emit all allocations\n        for (uint256 i = 1; i <= num_manufacturer; i++)\n            if (allocatingQuantities[i] > 0) {\n                emit AllocateFromSupplier(\n                    tag,\n                    i,\n                    allocatingQuantities[i],\n                    allocatingPrices[i]\n                );\n                transferMoney(\n                    manufacturers[i].wallet,\n                    (moneySentWithBid[i] -\n                        allocatingPrices[i] *\n                        allocatingQuantities[i])\n                );\n                transferMoney(\n                    suppliers[tag].wallet,\n                    (allocatingPrices[i] * allocatingQuantities[i])\n                );\n                //update all the manufacturers quanitites to make cars\n                if (suppliers[tag].partType == 1)\n                    updateManufacturerQuantities(\n                        i,\n                        allocatingQuantities[i],\n                        0,\n                        tag,\n                        0\n                    );\n                else if (suppliers[tag].partType == 2)\n                    updateManufacturerQuantities(\n                        i,\n                        0,\n                        allocatingQuantities[i],\n                        0,\n                        tag\n                    );\n                else revert();\n            }\n        while (bidsTillNow[suppliers[tag].wallet].length > 0)\n            bidsTillNow[suppliers[tag].wallet].pop();\n        return block.timestamp;\n    }\n\n    // @notice Manufacturer place their bids\n    // @param manufacturerID Tag ID of the manufacturer\n    // @param supplierID Tag ID of the supplier\n    // @param blindPrice Bidding price blinded using encryption\n    // @param blindQuantity Bidding quantity blinded using encryption\n    // @param limit Limiting resource of the manufacturer\n    function manufacturerPlacesBid(\n        uint256 manufacturerID,\n        uint256 supplierID,\n        bytes32 blindPrice,\n        bytes32 blindQuantity,\n        uint256 limit\n    ) public payable {\n        require(\n            num_manufacturer >= manufacturerID,\n            \"Manufacturer doesn't exist\"\n        );\n        require(num_supplier >= supplierID, \"Supplier doesn't exist\");\n        require(\n            suppliers[supplierID].currentState == AuctionState.RUNNING,\n            \"Supplier isn't running an auction right now\"\n        );\n        require(\n            supplierID == manufacturerID || supplierID == 3,\n            \"Supplier doesnt sell you\"\n        );\n\n        // TODO: UNCOMMENT THE FOLLOWING TO ENSURE PEOPLE ARE ONLY PLACING BIDS FOR THEMSELVES\n        // require(\n        //     manufacturers[manufacturerID].wallet == msg.sender,\n        //     \"You can only bid for yourself!\"\n        // );\n\n        Bid memory newbid;\n        newbid.bidderAddress = payable(msg.sender);\n        newbid.moneySent = msg.value;\n        newbid.buyerID = manufacturerID;\n        newbid.sellerID = supplierID;\n        newbid.blindBidPrice = blindPrice;\n        newbid.blindBidQuantity = blindQuantity;\n        newbid.limitingResourceQuantity = limit;\n        newbid.valuePrice = 0;\n        newbid.valueQuantity = 0;\n        newbid.correctReveal = false;\n\n        address supplieraddr = suppliers[supplierID].wallet;\n        bidsTillNow[supplieraddr].push(newbid);\n\n        suppliers[supplierID].bidsPlaced += 1;\n\n        emit ManufacturerBids(\n            supplierID,\n            manufacturerID,\n            blindPrice,\n            blindQuantity\n        );\n    }\n\n    // @notice Manufacturer reveal their bids\n    // @param manufacturerID Tag ID of the manufacturer\n    // @param supplierID Tag ID of the supplier\n    // @param price Bidding price\n    // @param quantity Bidding quantity\n    function manufactuerRevealBid(\n        uint256 manufacturerID,\n        uint256 supplierID,\n        uint256 price,\n        uint256 quantity\n    ) public returns (bool) {\n        require(manufacturerID <= num_manufacturer, \"Invalid manufacturer\");\n        require(suppliers[supplierID].currentState == AuctionState.REVEALING);\n        // TODO: UNCOMMENT THE FOLLOWING TO ENSURE PEOPLE ARE ONLY REVEALING BIDS FOR THEMSELVES\n        // require(\n        //     manufacturers[manufacturerID].wallet == msg.sender,\n        //     \"Reveal only for yourself!\"\n        // );\n\n        for (\n            uint256 i = 0;\n            i < bidsTillNow[suppliers[supplierID].wallet].length;\n            i++\n        )\n            if (\n                bidsTillNow[suppliers[supplierID].wallet][i].buyerID ==\n                manufacturerID\n            ) {\n                require(\n                    keccak256(abi.encodePacked(price)) ==\n                        bidsTillNow[suppliers[supplierID].wallet][i]\n                            .blindBidPrice,\n                    \"Incorrect price -- keeping your money\"\n                );\n                require(\n                    keccak256(abi.encodePacked(quantity)) ==\n                        bidsTillNow[suppliers[supplierID].wallet][i]\n                            .blindBidQuantity,\n                    \"Incorrect quantity -- keeping your money\"\n                );\n\n                uint256 effectivePrice = price * quantity;\n                require(\n                    effectivePrice <=\n                        bidsTillNow[suppliers[supplierID].wallet][i].moneySent,\n                    \"Insufficient funds sent -- keeping your money\"\n                );\n\n                bidsTillNow[suppliers[supplierID].wallet][i]\n                    .correctReveal = true;\n\n                bidsTillNow[suppliers[supplierID].wallet][i].valuePrice = price;\n                bidsTillNow[suppliers[supplierID].wallet][i]\n                    .valueQuantity = quantity;\n                emit ManufacturerReveal(\n                    supplierID,\n                    manufacturerID,\n                    price,\n                    quantity\n                );\n\n                suppliers[supplierID].bidsRevealed += 1;\n                return true;\n            }\n        return false;\n    }\n\n    // @notice Updates quantities for manufacturers including cars\n    // @param manufacturerID Tag ID of the manufacturer\n    // @param quantityA Quantity of product A\n    // @param quantityB Quantitu of product B\n    // @param supplierA Supplier of product A\n    // @param supplierB Supplier of product B\n    function updateManufacturerQuantities(\n        uint256 manufacturerID,\n        uint256 quantityA,\n        uint256 quantityB,\n        uint256 supplierA,\n        uint256 supplierB\n    ) private {\n        manufacturers[manufacturerID].quantityA += quantityA;\n        manufacturers[manufacturerID].quantityB += quantityB;\n        uint256 max_cars = minimum(\n            manufacturers[manufacturerID].quantityA,\n            manufacturers[manufacturerID].quantityB\n        );\n        manufacturers[manufacturerID].quantityA -= max_cars;\n        manufacturers[manufacturerID].quantityB -= max_cars;\n        manufacturers[manufacturerID].cars += max_cars;\n\n        Product memory newcar;\n        num_products++;\n        newcar.tag = num_products;\n        newcar.manufacturerID = manufacturerID;\n        newcar.sellerA = manufacturerID;\n        newcar.sellerB = 3;\n        productsTillNow[manufacturers[manufacturerID].wallet].push(newcar);\n    }\n\n    function supplierAddQuantity(uint256 suppliedID, uint256 quantityToAdd)\n        public\n    {\n        require(suppliers[suppliedID].wallet == msg.sender);\n        require(num_supplier >= suppliedID);\n        // increase the supplier quantity\n        suppliers[suppliedID].quantityAvailable += quantityToAdd;\n    }\n\n    function set_cars_price(uint256 manufacturerID, uint256 price) public {\n        require(\n            msg.sender == manufacturers[manufacturerID].wallet ||\n                msg.sender == owner,\n            \"Cannot be set by you\"\n        );\n        manufacturers[manufacturerID].carsprice = price;\n    }\n\n    modifier beforeOnly(uint256 _time) {\n        require(block.timestamp < _time);\n        _;\n    }\n    modifier afterOnly(uint256 _time) {\n        require(block.timestamp > _time);\n        _;\n    }\n}\n",
  "sourcePath": "/home/sahithi/acads/sem7/dtb/Supply-Chain-Smartcontract/contracts/MarketPlace_Bidding.sol",
  "compiler": {
    "name": "solc",
    "version": "0.8.16+commit.07a7930e.Emscripten.clang"
  },
  "schemaVersion": "3.4.8",
  "updatedAt": "2022-09-14T13:53:22.468Z",
  "devdoc": {
    "kind": "dev",
    "methods": {},
    "version": 1
  },
  "userdoc": {
    "kind": "user",
    "methods": {},
    "version": 1
  }
}