{
  "contractName": "Marketplace",
  "abi": [
    {
      "inputs": [],
      "stateMutability": "nonpayable",
      "type": "constructor"
    },
    {
      "anonymous": false,
      "inputs": [
        {
          "indexed": false,
          "internalType": "uint256",
          "name": "manufacturerID",
          "type": "uint256"
        },
        {
          "indexed": false,
          "internalType": "uint256",
          "name": "customerID",
          "type": "uint256"
        },
        {
          "indexed": false,
          "internalType": "uint256",
          "name": "quantity",
          "type": "uint256"
        },
        {
          "indexed": false,
          "internalType": "uint256",
          "name": "price",
          "type": "uint256"
        },
        {
          "indexed": false,
          "internalType": "uint256[100]",
          "name": "carTag",
          "type": "uint256[100]"
        }
      ],
      "name": "AllocateFromManufacturer",
      "type": "event"
    },
    {
      "anonymous": false,
      "inputs": [
        {
          "indexed": false,
          "internalType": "uint256",
          "name": "supplierID",
          "type": "uint256"
        },
        {
          "indexed": false,
          "internalType": "uint256",
          "name": "manufacturerID",
          "type": "uint256"
        },
        {
          "indexed": false,
          "internalType": "uint256",
          "name": "quantity",
          "type": "uint256"
        },
        {
          "indexed": false,
          "internalType": "uint256",
          "name": "price",
          "type": "uint256"
        }
      ],
      "name": "AllocateFromSupplier",
      "type": "event"
    },
    {
      "anonymous": false,
      "inputs": [
        {
          "indexed": false,
          "internalType": "uint256",
          "name": "manufacturerID",
          "type": "uint256"
        },
        {
          "indexed": false,
          "internalType": "uint256",
          "name": "customerID",
          "type": "uint256"
        },
        {
          "indexed": false,
          "internalType": "bytes32",
          "name": "blindBid",
          "type": "bytes32"
        }
      ],
      "name": "CustomerBid",
      "type": "event"
    },
    {
      "anonymous": false,
      "inputs": [
        {
          "indexed": false,
          "internalType": "uint256",
          "name": "CustomerID",
          "type": "uint256"
        },
        {
          "indexed": false,
          "internalType": "uint256",
          "name": "ManufacturerID",
          "type": "uint256"
        },
        {
          "indexed": false,
          "internalType": "uint256",
          "name": "Quantity",
          "type": "uint256"
        },
        {
          "indexed": false,
          "internalType": "uint256",
          "name": "Price",
          "type": "uint256"
        }
      ],
      "name": "CustomerRequest",
      "type": "event"
    },
    {
      "anonymous": false,
      "inputs": [
        {
          "indexed": false,
          "internalType": "uint256",
          "name": "manufacturerID",
          "type": "uint256"
        },
        {
          "indexed": false,
          "internalType": "uint256",
          "name": "customerID",
          "type": "uint256"
        },
        {
          "indexed": false,
          "internalType": "uint256",
          "name": "price",
          "type": "uint256"
        },
        {
          "indexed": false,
          "internalType": "uint256",
          "name": "quantity",
          "type": "uint256"
        }
      ],
      "name": "CustomerReveal",
      "type": "event"
    },
    {
      "anonymous": false,
      "inputs": [
        {
          "indexed": false,
          "internalType": "uint256",
          "name": "i",
          "type": "uint256"
        },
        {
          "indexed": false,
          "internalType": "uint256",
          "name": "quantity",
          "type": "uint256"
        }
      ],
      "name": "DummyEvent",
      "type": "event"
    },
    {
      "anonymous": false,
      "inputs": [
        {
          "indexed": false,
          "internalType": "uint256",
          "name": "manufacturerID",
          "type": "uint256"
        },
        {
          "indexed": false,
          "internalType": "uint256",
          "name": "endTime",
          "type": "uint256"
        }
      ],
      "name": "EndManufacturerAuction",
      "type": "event"
    },
    {
      "anonymous": false,
      "inputs": [
        {
          "indexed": false,
          "internalType": "uint256",
          "name": "supplierID",
          "type": "uint256"
        },
        {
          "indexed": false,
          "internalType": "uint256",
          "name": "endTime",
          "type": "uint256"
        }
      ],
      "name": "EndSupplierAuction",
      "type": "event"
    },
    {
      "anonymous": false,
      "inputs": [
        {
          "indexed": false,
          "internalType": "uint256",
          "name": "supplierID",
          "type": "uint256"
        },
        {
          "indexed": false,
          "internalType": "uint256",
          "name": "manufacturerID",
          "type": "uint256"
        },
        {
          "indexed": false,
          "internalType": "bytes32",
          "name": "blindBidPrice",
          "type": "bytes32"
        },
        {
          "indexed": false,
          "internalType": "bytes32",
          "name": "blindBidQuantity",
          "type": "bytes32"
        },
        {
          "indexed": false,
          "internalType": "bytes32",
          "name": "blindKey",
          "type": "bytes32"
        }
      ],
      "name": "ManufacturerBids",
      "type": "event"
    },
    {
      "anonymous": false,
      "inputs": [
        {
          "indexed": false,
          "internalType": "uint256",
          "name": "supplierID",
          "type": "uint256"
        },
        {
          "indexed": false,
          "internalType": "uint256",
          "name": "manufacturerID",
          "type": "uint256"
        },
        {
          "indexed": false,
          "internalType": "uint256",
          "name": "price",
          "type": "uint256"
        },
        {
          "indexed": false,
          "internalType": "uint256",
          "name": "quantity",
          "type": "uint256"
        },
        {
          "indexed": false,
          "internalType": "uint256",
          "name": "key",
          "type": "uint256"
        }
      ],
      "name": "ManufacturerReveal",
      "type": "event"
    },
    {
      "anonymous": false,
      "inputs": [
        {
          "indexed": false,
          "internalType": "uint256",
          "name": "manufacturerID",
          "type": "uint256"
        },
        {
          "indexed": false,
          "internalType": "uint256",
          "name": "startTime",
          "type": "uint256"
        }
      ],
      "name": "StartManufacturerAuction",
      "type": "event"
    },
    {
      "anonymous": false,
      "inputs": [
        {
          "indexed": false,
          "internalType": "uint256",
          "name": "supplierID",
          "type": "uint256"
        },
        {
          "indexed": false,
          "internalType": "uint256",
          "name": "startTime",
          "type": "uint256"
        }
      ],
      "name": "StartSupplierAuction",
      "type": "event"
    },
    {
      "inputs": [
        {
          "internalType": "uint256",
          "name": "",
          "type": "uint256"
        }
      ],
      "name": "customers",
      "outputs": [
        {
          "internalType": "uint256",
          "name": "_tag",
          "type": "uint256"
        },
        {
          "internalType": "address",
          "name": "wallet",
          "type": "address"
        }
      ],
      "stateMutability": "view",
      "type": "function",
      "constant": true
    },
    {
      "inputs": [
        {
          "internalType": "uint256",
          "name": "",
          "type": "uint256"
        }
      ],
      "name": "manufacturers",
      "outputs": [
        {
          "internalType": "uint256",
          "name": "_tag",
          "type": "uint256"
        },
        {
          "internalType": "uint256",
          "name": "quantityA",
          "type": "uint256"
        },
        {
          "internalType": "uint256",
          "name": "quantityB",
          "type": "uint256"
        },
        {
          "internalType": "uint256",
          "name": "cars",
          "type": "uint256"
        },
        {
          "internalType": "uint256",
          "name": "carsprice",
          "type": "uint256"
        },
        {
          "internalType": "enum Marketplace.AuctionState",
          "name": "currentState",
          "type": "uint8"
        },
        {
          "internalType": "address",
          "name": "wallet",
          "type": "address"
        },
        {
          "internalType": "uint256",
          "name": "maxBidders",
          "type": "uint256"
        },
        {
          "internalType": "uint256",
          "name": "QA_sellerID",
          "type": "uint256"
        },
        {
          "internalType": "uint256",
          "name": "QB_sellerID",
          "type": "uint256"
        }
      ],
      "stateMutability": "view",
      "type": "function",
      "constant": true
    },
    {
      "inputs": [],
      "name": "num_customer",
      "outputs": [
        {
          "internalType": "uint256",
          "name": "",
          "type": "uint256"
        }
      ],
      "stateMutability": "view",
      "type": "function",
      "constant": true
    },
    {
      "inputs": [],
      "name": "num_manufacturer",
      "outputs": [
        {
          "internalType": "uint256",
          "name": "",
          "type": "uint256"
        }
      ],
      "stateMutability": "view",
      "type": "function",
      "constant": true
    },
    {
      "inputs": [],
      "name": "num_products",
      "outputs": [
        {
          "internalType": "uint256",
          "name": "",
          "type": "uint256"
        }
      ],
      "stateMutability": "view",
      "type": "function",
      "constant": true
    },
    {
      "inputs": [],
      "name": "num_supplier",
      "outputs": [
        {
          "internalType": "uint256",
          "name": "",
          "type": "uint256"
        }
      ],
      "stateMutability": "view",
      "type": "function",
      "constant": true
    },
    {
      "inputs": [],
      "name": "owner",
      "outputs": [
        {
          "internalType": "address payable",
          "name": "",
          "type": "address"
        }
      ],
      "stateMutability": "view",
      "type": "function",
      "constant": true
    },
    {
      "inputs": [
        {
          "internalType": "uint256",
          "name": "",
          "type": "uint256"
        }
      ],
      "name": "suppliers",
      "outputs": [
        {
          "internalType": "uint256",
          "name": "tag",
          "type": "uint256"
        },
        {
          "internalType": "int256",
          "name": "partType",
          "type": "int256"
        },
        {
          "internalType": "uint256",
          "name": "quantityAvailable",
          "type": "uint256"
        },
        {
          "internalType": "enum Marketplace.AuctionState",
          "name": "currentState",
          "type": "uint8"
        },
        {
          "internalType": "address",
          "name": "wallet",
          "type": "address"
        },
        {
          "internalType": "uint256",
          "name": "maxBidders",
          "type": "uint256"
        },
        {
          "internalType": "uint256",
          "name": "bidsPlaced",
          "type": "uint256"
        },
        {
          "internalType": "uint256",
          "name": "bidsRevealed",
          "type": "uint256"
        }
      ],
      "stateMutability": "view",
      "type": "function",
      "constant": true
    },
    {
      "inputs": [
        {
          "internalType": "uint256",
          "name": "a",
          "type": "uint256"
        },
        {
          "internalType": "uint256",
          "name": "b",
          "type": "uint256"
        }
      ],
      "name": "minimum",
      "outputs": [
        {
          "internalType": "uint256",
          "name": "",
          "type": "uint256"
        }
      ],
      "stateMutability": "pure",
      "type": "function",
      "constant": true
    },
    {
      "inputs": [
        {
          "internalType": "uint256",
          "name": "tag",
          "type": "uint256"
        }
      ],
      "name": "supplierStartAuction",
      "outputs": [
        {
          "internalType": "uint256",
          "name": "",
          "type": "uint256"
        }
      ],
      "stateMutability": "nonpayable",
      "type": "function"
    },
    {
      "inputs": [
        {
          "internalType": "uint256",
          "name": "tag",
          "type": "uint256"
        }
      ],
      "name": "supplierEndAuction",
      "outputs": [
        {
          "internalType": "uint256",
          "name": "",
          "type": "uint256"
        }
      ],
      "stateMutability": "nonpayable",
      "type": "function"
    },
    {
      "inputs": [
        {
          "internalType": "address",
          "name": "senderaddr",
          "type": "address"
        },
        {
          "internalType": "uint256",
          "name": "effectivePrice",
          "type": "uint256"
        }
      ],
      "name": "transferMoney",
      "outputs": [],
      "stateMutability": "payable",
      "type": "function",
      "payable": true
    },
    {
      "inputs": [
        {
          "internalType": "uint256",
          "name": "tag",
          "type": "uint256"
        }
      ],
      "name": "supplierEndReveal",
      "outputs": [
        {
          "internalType": "uint256",
          "name": "",
          "type": "uint256"
        }
      ],
      "stateMutability": "nonpayable",
      "type": "function"
    },
    {
      "inputs": [
        {
          "internalType": "uint256",
          "name": "manufacturerID",
          "type": "uint256"
        },
        {
          "internalType": "uint256",
          "name": "supplierID",
          "type": "uint256"
        },
        {
          "internalType": "bytes32",
          "name": "blindPrice",
          "type": "bytes32"
        },
        {
          "internalType": "bytes32",
          "name": "blindQuantity",
          "type": "bytes32"
        },
        {
          "internalType": "bytes32",
          "name": "blindKey",
          "type": "bytes32"
        },
        {
          "internalType": "uint256",
          "name": "limit",
          "type": "uint256"
        }
      ],
      "name": "manufacturerPlacesBid",
      "outputs": [],
      "stateMutability": "payable",
      "type": "function",
      "payable": true
    },
    {
      "inputs": [
        {
          "internalType": "uint256",
          "name": "customerID",
          "type": "uint256"
        },
        {
          "internalType": "uint256",
          "name": "manufacturerID",
          "type": "uint256"
        },
        {
          "internalType": "uint256",
          "name": "quantity",
          "type": "uint256"
        }
      ],
      "name": "customerPurchase",
      "outputs": [],
      "stateMutability": "payable",
      "type": "function",
      "payable": true
    },
    {
      "inputs": [
        {
          "internalType": "uint256",
          "name": "manufacturerID",
          "type": "uint256"
        },
        {
          "internalType": "uint256",
          "name": "supplierID",
          "type": "uint256"
        },
        {
          "internalType": "uint256",
          "name": "price",
          "type": "uint256"
        },
        {
          "internalType": "uint256",
          "name": "quantity",
          "type": "uint256"
        },
        {
          "internalType": "uint256",
          "name": "key",
          "type": "uint256"
        }
      ],
      "name": "manufactuerRevealBid",
      "outputs": [
        {
          "internalType": "bool",
          "name": "",
          "type": "bool"
        }
      ],
      "stateMutability": "nonpayable",
      "type": "function"
    },
    {
      "inputs": [
        {
          "internalType": "uint256",
          "name": "manufacturerID",
          "type": "uint256"
        }
      ],
      "name": "manufacturerSupplyCars",
      "outputs": [],
      "stateMutability": "nonpayable",
      "type": "function"
    },
    {
      "inputs": [
        {
          "internalType": "int256",
          "name": "partType",
          "type": "int256"
        },
        {
          "internalType": "uint256",
          "name": "quantityAvailable",
          "type": "uint256"
        },
        {
          "internalType": "address payable",
          "name": "addr",
          "type": "address"
        },
        {
          "internalType": "uint256",
          "name": "auctionBidders",
          "type": "uint256"
        }
      ],
      "name": "addSupplier",
      "outputs": [],
      "stateMutability": "nonpayable",
      "type": "function"
    },
    {
      "inputs": [
        {
          "internalType": "address payable",
          "name": "addr",
          "type": "address"
        },
        {
          "internalType": "uint256",
          "name": "auctionBidders",
          "type": "uint256"
        }
      ],
      "name": "addManufacturer",
      "outputs": [],
      "stateMutability": "nonpayable",
      "type": "function"
    },
    {
      "inputs": [
        {
          "internalType": "address payable",
          "name": "addr",
          "type": "address"
        }
      ],
      "name": "addCustomer",
      "outputs": [],
      "stateMutability": "nonpayable",
      "type": "function"
    },
    {
      "inputs": [
        {
          "internalType": "uint256",
          "name": "suppliedID",
          "type": "uint256"
        },
        {
          "internalType": "uint256",
          "name": "quantityToAdd",
          "type": "uint256"
        }
      ],
      "name": "supplierAddQuantity",
      "outputs": [],
      "stateMutability": "nonpayable",
      "type": "function"
    },
    {
      "inputs": [
        {
          "internalType": "uint256",
          "name": "manufacturerID",
          "type": "uint256"
        },
        {
          "internalType": "uint256",
          "name": "price",
          "type": "uint256"
        }
      ],
      "name": "set_cars_price",
      "outputs": [],
      "stateMutability": "nonpayable",
      "type": "function"
    },
    {
      "inputs": [
        {
          "internalType": "uint256",
          "name": "customerID",
          "type": "uint256"
        },
        {
          "internalType": "uint256",
          "name": "car_tag",
          "type": "uint256"
        }
      ],
      "name": "verifyproduct",
      "outputs": [
        {
          "internalType": "uint256",
          "name": "carID",
          "type": "uint256"
        },
        {
          "internalType": "uint256",
          "name": "manfID",
          "type": "uint256"
        },
        {
          "internalType": "uint256",
          "name": "sellerIDA",
          "type": "uint256"
        },
        {
          "internalType": "uint256",
          "name": "sellerIDB",
          "type": "uint256"
        }
      ],
      "stateMutability": "view",
      "type": "function",
      "constant": true
    },
    {
      "inputs": [
        {
          "internalType": "uint256",
          "name": "manfID",
          "type": "uint256"
        }
      ],
      "name": "get_cars_price_quantity",
      "outputs": [
        {
          "internalType": "uint256",
          "name": "price",
          "type": "uint256"
        },
        {
          "internalType": "uint256",
          "name": "quantity",
          "type": "uint256"
        }
      ],
      "stateMutability": "view",
      "type": "function",
      "constant": true
    },
    {
      "inputs": [
        {
          "internalType": "uint256",
          "name": "manfID",
          "type": "uint256"
        }
      ],
      "name": "get_manufacturer_data",
      "outputs": [
        {
          "internalType": "uint256",
          "name": "tag",
          "type": "uint256"
        },
        {
          "internalType": "uint256",
          "name": "quantA",
          "type": "uint256"
        },
        {
          "internalType": "uint256",
          "name": "quantB",
          "type": "uint256"
        },
        {
          "internalType": "uint256",
          "name": "cars",
          "type": "uint256"
        }
      ],
      "stateMutability": "view",
      "type": "function",
      "constant": true
    },
    {
      "inputs": [
        {
          "internalType": "uint256",
          "name": "customerID",
          "type": "uint256"
        }
      ],
      "name": "get_car_data",
      "outputs": [
        {
          "internalType": "uint256[10]",
          "name": "cars",
          "type": "uint256[10]"
        }
      ],
      "stateMutability": "view",
      "type": "function",
      "constant": true
    },
    {
      "inputs": [],
      "name": "getsuppliers",
      "outputs": [
        {
          "internalType": "uint256",
          "name": "",
          "type": "uint256"
        }
      ],
      "stateMutability": "view",
      "type": "function",
      "constant": true
    },
    {
      "inputs": [],
      "name": "getmanufacturers",
      "outputs": [
        {
          "internalType": "uint256",
          "name": "",
          "type": "uint256"
        }
      ],
      "stateMutability": "view",
      "type": "function",
      "constant": true
    },
    {
      "inputs": [
        {
          "internalType": "uint256",
          "name": "supplierID",
          "type": "uint256"
        }
      ],
      "name": "getstatus",
      "outputs": [
        {
          "internalType": "enum Marketplace.AuctionState",
          "name": "",
          "type": "uint8"
        }
      ],
      "stateMutability": "view",
      "type": "function",
      "constant": true
    },
    {
      "inputs": [
        {
          "internalType": "uint256",
          "name": "supID",
          "type": "uint256"
        }
      ],
      "name": "getbidcount",
      "outputs": [
        {
          "internalType": "uint256",
          "name": "len",
          "type": "uint256"
        }
      ],
      "stateMutability": "view",
      "type": "function",
      "constant": true
    },
    {
      "inputs": [
        {
          "internalType": "uint256",
          "name": "manfID",
          "type": "uint256"
        },
        {
          "internalType": "uint256",
          "name": "quant",
          "type": "uint256"
        }
      ],
      "name": "set_cars",
      "outputs": [],
      "stateMutability": "nonpayable",
      "type": "function"
    }
  ],
  "bytecode": "0x608060405234801561001057600080fd5b5033600a60006101000a81548173ffffffffffffffffffffffffffffffffffffffff021916908373ffffffffffffffffffffffffffffffffffffffff1602179055506000600181905550600080819055506000600281905550615f7280620000796000396000f3fe6080604052600436106101d85760003560e01c8063ad973d7411610102578063dd2d2a1211610095578063f1e4e1bd11610064578063f1e4e1bd14610715578063f895c52014610752578063fad23bdc14610792578063fee666ad146107cf576101d8565b8063dd2d2a1214610645578063e2416a2c14610682578063eb16d0e4146106bf578063edcac78b146106ea576101d8565b8063c2ff9e44116100d1578063c2ff9e4414610586578063c5828c7d146105af578063cea23121146105d8578063d6470b491461061c576101d8565b8063ad973d74146104b6578063b1877fb9146104df578063c04052171461051d578063c0abda2a14610548576101d8565b80638da5cb5b1161017a578063a436792b11610149578063a436792b146103f4578063a83a6c441461041d578063aa8613c414610439578063ac4ca43c14610476576101d8565b80638da5cb5b1461031d57806390175af1146103485780639a7a9b131461038e5780639adc51f9146103b7576101d8565b80634075ccea116101b65780634075ccea146102805780634cc9aff8146102ab5780635ad27277146102d657806362949a5d14610301576101d8565b80630cf3750d146101dd5780630dc98f501461020657806317c9dea614610243575b600080fd5b3480156101e957600080fd5b5061020460048036038101906101ff9190614ae1565b6107eb565b005b34801561021257600080fd5b5061022d60048036038101906102289190614b21565b610899565b60405161023a9190614bb7565b60405180910390f35b34801561024f57600080fd5b5061026a60048036038101906102659190614bd2565b611107565b6040516102779190614c0e565b60405180910390f35b34801561028c57600080fd5b5061029561128f565b6040516102a29190614c0e565b60405180910390f35b3480156102b757600080fd5b506102c0611298565b6040516102cd9190614c0e565b60405180910390f35b3480156102e257600080fd5b506102eb61129e565b6040516102f89190614c0e565b60405180910390f35b61031b60048036038101906103169190614c29565b6112a8565b005b34801561032957600080fd5b506103326115ef565b60405161033f9190614cbd565b60405180910390f35b34801561035457600080fd5b5061036f600480360381019061036a9190614bd2565b611615565b6040516103859a99989796959493929190614d70565b60405180910390f35b34801561039a57600080fd5b506103b560048036038101906103b09190614e6e565b611696565b005b3480156103c357600080fd5b506103de60048036038101906103d99190614bd2565b6117e4565b6040516103eb9190614c0e565b60405180910390f35b34801561040057600080fd5b5061041b60048036038101906104169190614ed5565b611866565b005b61043760048036038101906104329190614f4b565b6119da565b005b34801561044557600080fd5b50610460600480360381019061045b9190614bd2565b611dcc565b60405161046d9190614c0e565b60405180910390f35b34801561048257600080fd5b5061049d60048036038101906104989190614bd2565b611f38565b6040516104ad9493929190614fd8565b60405180910390f35b3480156104c257600080fd5b506104dd60048036038101906104d8919061501d565b612066565b005b3480156104eb57600080fd5b5061050660048036038101906105019190614bd2565b612117565b60405161051492919061504a565b60405180910390f35b34801561052957600080fd5b50610532612196565b60405161053f9190614c0e565b60405180910390f35b34801561055457600080fd5b5061056f600480360381019061056a9190614bd2565b61219c565b60405161057d929190615073565b60405180910390f35b34801561059257600080fd5b506105ad60048036038101906105a89190614bd2565b6121e0565b005b3480156105bb57600080fd5b506105d660048036038101906105d19190614ae1565b612edc565b005b3480156105e457600080fd5b506105ff60048036038101906105fa9190614bd2565b612efb565b6040516106139897969594939291906150ab565b60405180910390f35b34801561062857600080fd5b50610643600480360381019061063e9190614ae1565b612f70565b005b34801561065157600080fd5b5061066c60048036038101906106679190614ae1565b61308b565b6040516106799190614c0e565b60405180910390f35b34801561068e57600080fd5b506106a960048036038101906106a49190614bd2565b6130a5565b6040516106b69190614c0e565b60405180910390f35b3480156106cb57600080fd5b506106d4614430565b6040516106e19190614c0e565b60405180910390f35b3480156106f657600080fd5b506106ff614436565b60405161070c9190614c0e565b60405180910390f35b34801561072157600080fd5b5061073c60048036038101906107379190614bd2565b61443c565b60405161074991906151d4565b60405180910390f35b34801561075e57600080fd5b5061077960048036038101906107749190614ae1565b6144eb565b6040516107899493929190614fd8565b60405180910390f35b34801561079e57600080fd5b506107b960048036038101906107b49190614bd2565b614673565b6040516107c691906151f0565b60405180910390f35b6107e960048036038101906107e49190615237565b6146a0565b005b3373ffffffffffffffffffffffffffffffffffffffff166004600084815260200190815260200160002060030160019054906101000a900473ffffffffffffffffffffffffffffffffffffffff1673ffffffffffffffffffffffffffffffffffffffff161461085957600080fd5b81600054101561086857600080fd5b8060046000848152602001908152602001600020600201600082825461088e91906152a6565b925050819055505050565b60006001548611156108e0576040517f08c379a00000000000000000000000000000000000000000000000000000000081526004016108d790615337565b60405180910390fd5b600160038111156108f4576108f3614cd8565b5b6004600087815260200190815260200160002060030160009054906101000a900460ff16600381111561092a57610929614cd8565b5b1461093457600080fd5b60005b600760006004600089815260200190815260200160002060030160019054906101000a900473ffffffffffffffffffffffffffffffffffffffff1673ffffffffffffffffffffffffffffffffffffffff1673ffffffffffffffffffffffffffffffffffffffff168152602001908152602001600020805490508110156110f8578660076000600460008a815260200190815260200160002060030160019054906101000a900473ffffffffffffffffffffffffffffffffffffffff1673ffffffffffffffffffffffffffffffffffffffff1673ffffffffffffffffffffffffffffffffffffffff1681526020019081526020016000208281548110610a3f57610a3e615357565b5b90600052602060002090600b020160070154036110e557600760006004600089815260200190815260200160002060030160019054906101000a900473ffffffffffffffffffffffffffffffffffffffff1673ffffffffffffffffffffffffffffffffffffffff1673ffffffffffffffffffffffffffffffffffffffff1681526020019081526020016000208181548110610add57610adc615357565b5b90600052602060002090600b02016005015483604051602001610b0091906153a7565b6040516020818303038152906040528051906020012014610b56576040517f08c379a0000000000000000000000000000000000000000000000000000000008152600401610b4d90615434565b60405180910390fd5b600760006004600089815260200190815260200160002060030160019054906101000a900473ffffffffffffffffffffffffffffffffffffffff1673ffffffffffffffffffffffffffffffffffffffff1673ffffffffffffffffffffffffffffffffffffffff1681526020019081526020016000208181548110610bdd57610bdc615357565b5b90600052602060002090600b0201600301548386610bfb91906152a6565b604051602001610c0b91906153a7565b6040516020818303038152906040528051906020012014610c61576040517f08c379a0000000000000000000000000000000000000000000000000000000008152600401610c58906154c6565b60405180910390fd5b600760006004600089815260200190815260200160002060030160019054906101000a900473ffffffffffffffffffffffffffffffffffffffff1673ffffffffffffffffffffffffffffffffffffffff1673ffffffffffffffffffffffffffffffffffffffff1681526020019081526020016000208181548110610ce857610ce7615357565b5b90600052602060002090600b0201600401548385610d0691906152a6565b604051602001610d1691906153a7565b6040516020818303038152906040528051906020012014610d6c576040517f08c379a0000000000000000000000000000000000000000000000000000000008152600401610d6390615558565b60405180910390fd5b60008486610d7a9190615578565b905060076000600460008a815260200190815260200160002060030160019054906101000a900473ffffffffffffffffffffffffffffffffffffffff1673ffffffffffffffffffffffffffffffffffffffff1673ffffffffffffffffffffffffffffffffffffffff1681526020019081526020016000208281548110610e0357610e02615357565b5b90600052602060002090600b0201600901548110610e56576040517f08c379a0000000000000000000000000000000000000000000000000000000008152600401610e4d90615644565b60405180910390fd5b600160076000600460008b815260200190815260200160002060030160019054906101000a900473ffffffffffffffffffffffffffffffffffffffff1673ffffffffffffffffffffffffffffffffffffffff1673ffffffffffffffffffffffffffffffffffffffff1681526020019081526020016000208381548110610edf57610ede615357565b5b90600052602060002090600b0201600a0160006101000a81548160ff0219169083151502179055508560076000600460008b815260200190815260200160002060030160019054906101000a900473ffffffffffffffffffffffffffffffffffffffff1673ffffffffffffffffffffffffffffffffffffffff1673ffffffffffffffffffffffffffffffffffffffff1681526020019081526020016000208381548110610f8f57610f8e615357565b5b90600052602060002090600b0201600001819055508460076000600460008b815260200190815260200160002060030160019054906101000a900473ffffffffffffffffffffffffffffffffffffffff1673ffffffffffffffffffffffffffffffffffffffff1673ffffffffffffffffffffffffffffffffffffffff168152602001908152602001600020838154811061102c5761102b615357565b5b90600052602060002090600b0201600101819055507f1e03b01ba1997c24040f0a2e5145f9dc2be2d1821b811bd7def13c7f41cda8748789888888604051611078959493929190615664565b60405180910390a160016004600089815260200190815260200160002060060160008282546110a791906152a6565b9250508190555060046000888152602001908152602001600020600401546004600089815260200190815260200160002050506001925050506110fe565b80806110f0906156b7565b915050610937565b50600090505b95945050505050565b6000805482111561114d576040517f08c379a00000000000000000000000000000000000000000000000000000000081526004016111449061574b565b60405180910390fd5b6000600381111561116157611160614cd8565b5b6004600084815260200190815260200160002060030160009054906101000a900460ff16600381111561119757611196614cd8565b5b036111d7576040517f08c379a00000000000000000000000000000000000000000000000000000000081526004016111ce906157b7565b60405180910390fd5b60006004600084815260200190815260200160002060030160006101000a81548160ff0219169083600381111561121157611210614cd8565b5b021790555060006004600084815260200190815260200160002060050181905550600060046000848152602001908152602001600020600601819055507f10449cff8425a2b933fdd57a667ad5bdad3da817ddd9179f125f5c7756582e17824260405161127f92919061504a565b60405180910390a1429050919050565b60008054905090565b60015481565b6000600154905090565b3373ffffffffffffffffffffffffffffffffffffffff166006600085815260200190815260200160002060010160009054906101000a900473ffffffffffffffffffffffffffffffffffffffff1673ffffffffffffffffffffffffffffffffffffffff16148061136557503373ffffffffffffffffffffffffffffffffffffffff16600a60009054906101000a900473ffffffffffffffffffffffffffffffffffffffff1673ffffffffffffffffffffffffffffffffffffffff16145b6113a4576040517f08c379a000000000000000000000000000000000000000000000000000000000815260040161139b90615823565b60405180910390fd5b6113ac614950565b8281600001818152505033816060019073ffffffffffffffffffffffffffffffffffffffff16908173ffffffffffffffffffffffffffffffffffffffff1681525050818160400181815250508381602001818152505034816080018181525050600060056000858152602001908152602001600020600401549050600083826114359190615578565b9050808360800151101561147e576040517f08c379a00000000000000000000000000000000000000000000000000000000081526004016114759061588f565b60405180910390fd5b60006005600087815260200190815260200160002060050160019054906101000a900473ffffffffffffffffffffffffffffffffffffffff169050600860008273ffffffffffffffffffffffffffffffffffffffff1673ffffffffffffffffffffffffffffffffffffffff16815260200190815260200160002084908060018154018082558091505060019003906000526020600020906005020160009091909190915060008201518160000155602082015181600101556040820151816002015560608201518160030160006101000a81548173ffffffffffffffffffffffffffffffffffffffff021916908373ffffffffffffffffffffffffffffffffffffffff1602179055506080820151816004015550507ffee408fb277c265efa7c7adea166e7ebe6ce1e4bf153cc84a610be9a46d4ba82878787600560008b8152602001908152602001600020600401546040516115de9493929190614fd8565b60405180910390a150505050505050565b600a60009054906101000a900473ffffffffffffffffffffffffffffffffffffffff1681565b60056020528060005260406000206000915090508060000154908060010154908060020154908060030154908060040154908060050160009054906101000a900460ff16908060050160019054906101000a900473ffffffffffffffffffffffffffffffffffffffff1690806006015490806007015490806008015490508a565b6000808154809291906116a8906156b7565b91905055506040518061010001604052806000548152602001858152602001848152602001600260038111156116e1576116e0614cd8565b5b81526020018373ffffffffffffffffffffffffffffffffffffffff168152602001828152602001600081526020016000815250600460008054815260200190815260200160002060008201518160000155602082015181600101556040820151816002015560608201518160030160006101000a81548160ff0219169083600381111561177157611770614cd8565b5b021790555060808201518160030160016101000a81548173ffffffffffffffffffffffffffffffffffffffff021916908373ffffffffffffffffffffffffffffffffffffffff16021790555060a0820151816004015560c0820151816005015560e0820151816006015590505050505050565b6000600760006004600085815260200190815260200160002060030160019054906101000a900473ffffffffffffffffffffffffffffffffffffffff1673ffffffffffffffffffffffffffffffffffffffff1673ffffffffffffffffffffffffffffffffffffffff168152602001908152602001600020805490509050919050565b60016000815480929190611879906156b7565b9190505550604051806101400160405280600154815260200160008152602001600081526020016000815260200160008152602001600260038111156118c2576118c1614cd8565b5b81526020018373ffffffffffffffffffffffffffffffffffffffff168152602001828152602001600081526020016000815250600560006001548152602001908152602001600020600082015181600001556020820151816001015560408201518160020155606082015181600301556080820151816004015560a08201518160050160006101000a81548160ff0219169083600381111561196757611966614cd8565b5b021790555060c08201518160050160016101000a81548173ffffffffffffffffffffffffffffffffffffffff021916908373ffffffffffffffffffffffffffffffffffffffff16021790555060e08201518160060155610100820151816007015561012082015181600801559050505050565b856001541015611a1f576040517f08c379a0000000000000000000000000000000000000000000000000000000008152600401611a16906158fb565b60405180910390fd5b846000541015611a64576040517f08c379a0000000000000000000000000000000000000000000000000000000008152600401611a5b90615967565b60405180910390fd5b60006003811115611a7857611a77614cd8565b5b6004600087815260200190815260200160002060030160009054906101000a900460ff166003811115611aae57611aad614cd8565b5b14611aee576040517f08c379a0000000000000000000000000000000000000000000000000000000008152600401611ae5906159f9565b60405180910390fd5b85851480611afc5750600385145b611b3b576040517f08c379a0000000000000000000000000000000000000000000000000000000008152600401611b3290615a65565b60405180910390fd5b611b43614995565b33816040019073ffffffffffffffffffffffffffffffffffffffff16908173ffffffffffffffffffffffffffffffffffffffff16815250503481610120018181525050868160e001818152505085816101000181815250508481606001818152505083816080018181525050828160a0018181525050818160c00181815250506000816000018181525050600081602001818152505060008161014001901515908115158152505060006004600088815260200190815260200160002060030160019054906101000a900473ffffffffffffffffffffffffffffffffffffffff169050600760008273ffffffffffffffffffffffffffffffffffffffff1673ffffffffffffffffffffffffffffffffffffffff1681526020019081526020016000208290806001815401808255809150506001900390600052602060002090600b0201600090919091909150600082015181600001556020820151816001015560408201518160020160006101000a81548173ffffffffffffffffffffffffffffffffffffffff021916908373ffffffffffffffffffffffffffffffffffffffff160217905550606082015181600301556080820151816004015560a0820151816005015560c0820151816006015560e082015181600701556101008201518160080155610120820151816009015561014082015181600a0160006101000a81548160ff02191690831515021790555050506001600460008981526020019081526020016000206005016000828254611d7c91906152a6565b925050819055507f8a06846852690683a485d2a83db8d92c70d8aaaf4693c2c3b223705fb4c916278789888888604051611dba959493929190615a94565b60405180910390a15050505050505050565b60008054821115611e12576040517f08c379a0000000000000000000000000000000000000000000000000000000008152600401611e099061574b565b60405180910390fd5b60006003811115611e2657611e25614cd8565b5b6004600084815260200190815260200160002060030160009054906101000a900460ff166003811115611e5c57611e5b614cd8565b5b14611e9c576040517f08c379a0000000000000000000000000000000000000000000000000000000008152600401611e9390615b33565b60405180910390fd5b60016004600084815260200190815260200160002060030160006101000a81548160ff02191690836003811115611ed657611ed5614cd8565b5b0217905550600060046000848152602001908152602001600020600601819055507f0c368e4cdd0e23707857d20056076efe6f588f9ce71ab6ce676d331fdc035f5b8242604051611f2892919061504a565b60405180910390a1429050919050565b6000806000806000600560008781526020019081526020016000206040518061014001604052908160008201548152602001600182015481526020016002820154815260200160038201548152602001600482015481526020016005820160009054906101000a900460ff166003811115611fb657611fb5614cd8565b5b6003811115611fc857611fc7614cd8565b5b81526020016005820160019054906101000a900473ffffffffffffffffffffffffffffffffffffffff1673ffffffffffffffffffffffffffffffffffffffff1673ffffffffffffffffffffffffffffffffffffffff1681526020016006820154815260200160078201548152602001600882015481525050905080600001518160200151826040015183606001519450945094509450509193509193565b60026000815480929190612079906156b7565b9190505550604051806040016040528060025481526020018273ffffffffffffffffffffffffffffffffffffffff168152506006600060025481526020019081526020016000206000820151816000015560208201518160010160006101000a81548173ffffffffffffffffffffffffffffffffffffffff021916908373ffffffffffffffffffffffffffffffffffffffff16021790555090505050565b60008082600154101561215f576040517f08c379a000000000000000000000000000000000000000000000000000000000815260040161215690615b9f565b60405180910390fd5b6005600084815260200190815260200160002060040154600560008581526020019081526020016000206003015491509150915091565b60035481565b60066020528060005260406000206000915090508060000154908060010160009054906101000a900473ffffffffffffffffffffffffffffffffffffffff16905082565b8060015410156121ef57600080fd5b6005600082815260200190815260200160002060050160019054906101000a900473ffffffffffffffffffffffffffffffffffffffff1673ffffffffffffffffffffffffffffffffffffffff163373ffffffffffffffffffffffffffffffffffffffff1614806122ac5750600a60009054906101000a900473ffffffffffffffffffffffffffffffffffffffff1673ffffffffffffffffffffffffffffffffffffffff163373ffffffffffffffffffffffffffffffffffffffff16145b6122b557600080fd5b60005b600860006005600085815260200190815260200160002060050160019054906101000a900473ffffffffffffffffffffffffffffffffffffffff1673ffffffffffffffffffffffffffffffffffffffff1673ffffffffffffffffffffffffffffffffffffffff16815260200190815260200160002080549050811015612d6c576005600083815260200190815260200160002060030154600860006005600086815260200190815260200160002060050160019054906101000a900473ffffffffffffffffffffffffffffffffffffffff1673ffffffffffffffffffffffffffffffffffffffff1673ffffffffffffffffffffffffffffffffffffffff16815260200190815260200160002082815481106123d6576123d5615357565b5b90600052602060002090600502016002015411612d1e5760006005600084815260200190815260200160002060040154600860006005600087815260200190815260200160002060050160019054906101000a900473ffffffffffffffffffffffffffffffffffffffff1673ffffffffffffffffffffffffffffffffffffffff1673ffffffffffffffffffffffffffffffffffffffff168152602001908152602001600020838154811061248d5761248c615357565b5b9060005260206000209060050201600201546124a99190615578565b9050600081600860006005600088815260200190815260200160002060050160019054906101000a900473ffffffffffffffffffffffffffffffffffffffff1673ffffffffffffffffffffffffffffffffffffffff1673ffffffffffffffffffffffffffffffffffffffff168152602001908152602001600020848154811061253557612534615357565b5b9060005260206000209060050201600401546125519190615bbf565b9050600860006005600087815260200190815260200160002060050160019054906101000a900473ffffffffffffffffffffffffffffffffffffffff1673ffffffffffffffffffffffffffffffffffffffff1673ffffffffffffffffffffffffffffffffffffffff16815260200190815260200160002083815481106125da576125d9615357565b5b9060005260206000209060050201600201546005600086815260200190815260200160002060030160008282546126119190615bbf565b925050819055506000600860006005600088815260200190815260200160002060050160019054906101000a900473ffffffffffffffffffffffffffffffffffffffff1673ffffffffffffffffffffffffffffffffffffffff1673ffffffffffffffffffffffffffffffffffffffff16815260200190815260200160002084815481106126a1576126a0615357565b5b906000526020600020906005020160020154905060006005600087815260200190815260200160002060050160019054906101000a900473ffffffffffffffffffffffffffffffffffffffff1690506126f8614a10565b6000805b84811015612a8b576000600960008673ffffffffffffffffffffffffffffffffffffffff1673ffffffffffffffffffffffffffffffffffffffff168152602001908152602001600020805490500315612a8b5760006001600960008773ffffffffffffffffffffffffffffffffffffffff1673ffffffffffffffffffffffffffffffffffffffff168152602001908152602001600020805490506127a09190615bbf565b90506127aa614a33565b600960008773ffffffffffffffffffffffffffffffffffffffff1673ffffffffffffffffffffffffffffffffffffffff16815260200190815260200160002082815481106127fb576127fa615357565b5b9060005260206000209060040201600001548160000181815250508a816020018181525050600960008773ffffffffffffffffffffffffffffffffffffffff1673ffffffffffffffffffffffffffffffffffffffff168152602001908152602001600020828154811061287157612870615357565b5b906000526020600020906004020160020154816040018181525050600960008773ffffffffffffffffffffffffffffffffffffffff1673ffffffffffffffffffffffffffffffffffffffff16815260200190815260200160002082815481106128dd576128dc615357565b5b906000526020600020906004020160030154816060018181525050600b6000600860008973ffffffffffffffffffffffffffffffffffffffff1673ffffffffffffffffffffffffffffffffffffffff168152602001908152602001600020848154811061294d5761294c615357565b5b9060005260206000209060050201600101548152602001908152602001600020819080600181540180825580915050600190039060005260206000209060040201600090919091909150600082015181600001556020820151816001015560408201518160020155606082015181600301555050600960008773ffffffffffffffffffffffffffffffffffffffff1673ffffffffffffffffffffffffffffffffffffffff168152602001908152602001600020805480612a1057612a0f615bf3565b5b6001900381819060005260206000209060040201600080820160009055600182016000905560028201600090556003820160009055505090558060000151858580612a5a906156b7565b965060648110612a6d57612a6c615357565b5b60200201818152505050508080612a83906156b7565b9150506126fc565b50612acc600560008a815260200190815260200160002060050160019054906101000a900473ffffffffffffffffffffffffffffffffffffffff16876146a0565b612ba46006600060086000600560008e815260200190815260200160002060050160019054906101000a900473ffffffffffffffffffffffffffffffffffffffff1673ffffffffffffffffffffffffffffffffffffffff1673ffffffffffffffffffffffffffffffffffffffff1681526020019081526020016000208a81548110612b5a57612b59615357565b5b906000526020600020906005020160010154815260200190815260200160002060010160009054906101000a900473ffffffffffffffffffffffffffffffffffffffff16866146a0565b7f1aff87a36f8ab51e6d00c79e403e67535da25af06a6dc7b9cac3fc96a25cbfb38860086000600560008d815260200190815260200160002060050160019054906101000a900473ffffffffffffffffffffffffffffffffffffffff1673ffffffffffffffffffffffffffffffffffffffff1673ffffffffffffffffffffffffffffffffffffffff1681526020019081526020016000208981548110612c4d57612c4c615357565b5b90600052602060002090600502016001015460086000600560008e815260200190815260200160002060050160019054906101000a900473ffffffffffffffffffffffffffffffffffffffff1673ffffffffffffffffffffffffffffffffffffffff1673ffffffffffffffffffffffffffffffffffffffff1681526020019081526020016000208a81548110612ce657612ce5615357565b5b9060005260206000209060050201600201548986604051612d0b959493929190615ca6565b60405180910390a1505050505050612d59565b6040517f08c379a0000000000000000000000000000000000000000000000000000000008152600401612d5090615d46565b60405180910390fd5b8080612d64906156b7565b9150506122b8565b505b6000600860006005600085815260200190815260200160002060050160019054906101000a900473ffffffffffffffffffffffffffffffffffffffff1673ffffffffffffffffffffffffffffffffffffffff1673ffffffffffffffffffffffffffffffffffffffff168152602001908152602001600020805490501115612ed957600860006005600084815260200190815260200160002060050160019054906101000a900473ffffffffffffffffffffffffffffffffffffffff1673ffffffffffffffffffffffffffffffffffffffff1673ffffffffffffffffffffffffffffffffffffffff168152602001908152602001600020805480612e7457612e73615bf3565b5b6001900381819060005260206000209060050201600080820160009055600182016000905560028201600090556003820160006101000a81549073ffffffffffffffffffffffffffffffffffffffff0219169055600482016000905550509055612d6e565b50565b8060056000848152602001908152602001600020600301819055505050565b60046020528060005260406000206000915090508060000154908060010154908060020154908060030160009054906101000a900460ff16908060030160019054906101000a900473ffffffffffffffffffffffffffffffffffffffff16908060040154908060050154908060060154905088565b6005600083815260200190815260200160002060050160019054906101000a900473ffffffffffffffffffffffffffffffffffffffff1673ffffffffffffffffffffffffffffffffffffffff163373ffffffffffffffffffffffffffffffffffffffff16148061302d5750600a60009054906101000a900473ffffffffffffffffffffffffffffffffffffffff1673ffffffffffffffffffffffffffffffffffffffff163373ffffffffffffffffffffffffffffffffffffffff16145b61306c576040517f08c379a000000000000000000000000000000000000000000000000000000000815260040161306390615db2565b60405180910390fd5b8060056000848152602001908152602001600020600401819055505050565b60008183101561309b578261309d565b815b905092915050565b600080548211156130eb576040517f08c379a00000000000000000000000000000000000000000000000000000000081526004016130e290615967565b60405180910390fd5b600160038111156130ff576130fe614cd8565b5b6004600084815260200190815260200160002060030160009054906101000a900460ff16600381111561313557613134614cd8565b5b14613175576040517f08c379a000000000000000000000000000000000000000000000000000000000815260040161316c90615e1e565b60405180910390fd5b60036004600084815260200190815260200160002060030160006101000a81548160ff021916908360038111156131af576131ae614cd8565b5b021790555060005b600760006004600086815260200190815260200160002060030160019054906101000a900473ffffffffffffffffffffffffffffffffffffffff1673ffffffffffffffffffffffffffffffffffffffff1673ffffffffffffffffffffffffffffffffffffffff1681526020019081526020016000208054905081101561391257600060018261324691906152a6565b90505b600760006004600087815260200190815260200160002060030160019054906101000a900473ffffffffffffffffffffffffffffffffffffffff1673ffffffffffffffffffffffffffffffffffffffff1673ffffffffffffffffffffffffffffffffffffffff168152602001908152602001600020805490508110156138fe57600760006004600087815260200190815260200160002060030160019054906101000a900473ffffffffffffffffffffffffffffffffffffffff1673ffffffffffffffffffffffffffffffffffffffff1673ffffffffffffffffffffffffffffffffffffffff16815260200190815260200160002081815481106133505761334f615357565b5b90600052602060002090600b020160000154600760006004600088815260200190815260200160002060030160019054906101000a900473ffffffffffffffffffffffffffffffffffffffff1673ffffffffffffffffffffffffffffffffffffffff1673ffffffffffffffffffffffffffffffffffffffff16815260200190815260200160002083815481106133e9576133e8615357565b5b90600052602060002090600b02016000015410156138eb576000600760006004600088815260200190815260200160002060030160019054906101000a900473ffffffffffffffffffffffffffffffffffffffff1673ffffffffffffffffffffffffffffffffffffffff1673ffffffffffffffffffffffffffffffffffffffff168152602001908152602001600020838154811061348a57613489615357565b5b90600052602060002090600b02016040518061016001604052908160008201548152602001600182015481526020016002820160009054906101000a900473ffffffffffffffffffffffffffffffffffffffff1673ffffffffffffffffffffffffffffffffffffffff1673ffffffffffffffffffffffffffffffffffffffff16815260200160038201548152602001600482015481526020016005820154815260200160068201548152602001600782015481526020016008820154815260200160098201548152602001600a820160009054906101000a900460ff1615151515815250509050600760006004600088815260200190815260200160002060030160019054906101000a900473ffffffffffffffffffffffffffffffffffffffff1673ffffffffffffffffffffffffffffffffffffffff1673ffffffffffffffffffffffffffffffffffffffff16815260200190815260200160002082815481106135f8576135f7615357565b5b90600052602060002090600b0201600760006004600089815260200190815260200160002060030160019054906101000a900473ffffffffffffffffffffffffffffffffffffffff1673ffffffffffffffffffffffffffffffffffffffff1673ffffffffffffffffffffffffffffffffffffffff168152602001908152602001600020848154811061368d5761368c615357565b5b90600052602060002090600b020160008201548160000155600182015481600101556002820160009054906101000a900473ffffffffffffffffffffffffffffffffffffffff168160020160006101000a81548173ffffffffffffffffffffffffffffffffffffffff021916908373ffffffffffffffffffffffffffffffffffffffff16021790555060038201548160030155600482015481600401556005820154816005015560068201548160060155600782015481600701556008820154816008015560098201548160090155600a820160009054906101000a900460ff1681600a0160006101000a81548160ff02191690831515021790555090505080600760006004600089815260200190815260200160002060030160019054906101000a900473ffffffffffffffffffffffffffffffffffffffff1673ffffffffffffffffffffffffffffffffffffffff1673ffffffffffffffffffffffffffffffffffffffff168152602001908152602001600020838154811061381457613813615357565b5b90600052602060002090600b0201600082015181600001556020820151816001015560408201518160020160006101000a81548173ffffffffffffffffffffffffffffffffffffffff021916908373ffffffffffffffffffffffffffffffffffffffff160217905550606082015181600301556080820151816004015560a0820151816005015560c0820151816006015560e082015181600701556101008201518160080155610120820151816009015561014082015181600a0160006101000a81548160ff021916908315150217905550905050505b80806138f6906156b7565b915050613249565b50808061390a906156b7565b9150506131b7565b5061391b614a10565b613923614a10565b61392b614a10565b60005b600760006004600089815260200190815260200160002060030160019054906101000a900473ffffffffffffffffffffffffffffffffffffffff1673ffffffffffffffffffffffffffffffffffffffff1673ffffffffffffffffffffffffffffffffffffffff16815260200190815260200160002080549050811015613ccb57600060076000600460008a815260200190815260200160002060030160019054906101000a900473ffffffffffffffffffffffffffffffffffffffff1673ffffffffffffffffffffffffffffffffffffffff1673ffffffffffffffffffffffffffffffffffffffff1681526020019081526020016000208281548110613a3757613a36615357565b5b90600052602060002090600b02016040518061016001604052908160008201548152602001600182015481526020016002820160009054906101000a900473ffffffffffffffffffffffffffffffffffffffff1673ffffffffffffffffffffffffffffffffffffffff1673ffffffffffffffffffffffffffffffffffffffff16815260200160038201548152602001600482015481526020016005820154815260200160068201548152602001600782015481526020016008820154815260200160098201548152602001600a820160009054906101000a900460ff161515151581525050905060001515816101400151151503613b355750613cb8565b806101200151838260e0015160648110613b5257613b51615357565b5b6020020181815250506000613b81600460008a8152602001908152602001600020600201548360c0015161308b565b9050613b9181836020015161308b565b90508160000151868360e0015160648110613baf57613bae615357565b5b60200201818152505080858360e0015160648110613bd057613bcf615357565b5b60200201818152505080600460008a81526020019081526020016000206002016000828254613bff9190615bbf565b925050819055508060076000600460008c815260200190815260200160002060030160019054906101000a900473ffffffffffffffffffffffffffffffffffffffff1673ffffffffffffffffffffffffffffffffffffffff1673ffffffffffffffffffffffffffffffffffffffff1681526020019081526020016000208481548110613c8e57613c8d615357565b5b90600052602060002090600b02016001016000828254613cae9190615bbf565b9250508190555050505b8080613cc3906156b7565b91505061392e565b5060005b600760006004600089815260200190815260200160002060030160019054906101000a900473ffffffffffffffffffffffffffffffffffffffff1673ffffffffffffffffffffffffffffffffffffffff1673ffffffffffffffffffffffffffffffffffffffff1681526020019081526020016000208054905081101561402057600060076000600460008a815260200190815260200160002060030160019054906101000a900473ffffffffffffffffffffffffffffffffffffffff1673ffffffffffffffffffffffffffffffffffffffff1673ffffffffffffffffffffffffffffffffffffffff1681526020019081526020016000208281548110613dd857613dd7615357565b5b90600052602060002090600b02016040518061016001604052908160008201548152602001600182015481526020016002820160009054906101000a900473ffffffffffffffffffffffffffffffffffffffff1673ffffffffffffffffffffffffffffffffffffffff1673ffffffffffffffffffffffffffffffffffffffff16815260200160038201548152602001600482015481526020016005820154815260200160068201548152602001600782015481526020016008820154815260200160098201548152602001600a820160009054906101000a900460ff161515151581525050905060001515816101400151151503613ed6575061400d565b6000613efc600460008a815260200190815260200160002060020154836020015161308b565b905080858360e0015160648110613f1657613f15615357565b5b60200201818151613f2791906152a6565b9150818152505080600460008a81526020019081526020016000206002016000828254613f549190615bbf565b925050819055508060076000600460008c815260200190815260200160002060030160019054906101000a900473ffffffffffffffffffffffffffffffffffffffff1673ffffffffffffffffffffffffffffffffffffffff1673ffffffffffffffffffffffffffffffffffffffff1681526020019081526020016000208481548110613fe357613fe2615357565b5b90600052602060002090600b020160010160008282546140039190615bbf565b9250508190555050505b8080614018906156b7565b915050613ccf565b506000600190505b600154811161427c57600083826064811061404657614045615357565b5b60200201511115614269577f389cc4d2b135e7b676a809ad7bacdde1b644b0bbe73afdd545a176ea73b95517868285846064811061408757614086615357565b5b602002015187856064811061409f5761409e615357565b5b60200201516040516140b49493929190614fd8565b60405180910390a16141576005600083815260200190815260200160002060050160019054906101000a900473ffffffffffffffffffffffffffffffffffffffff1684836064811061410957614108615357565b5b602002015186846064811061412157614120615357565b5b60200201516141309190615578565b84846064811061414357614142615357565b5b60200201516141529190615bbf565b6146a0565b6141d06004600088815260200190815260200160002060030160019054906101000a900473ffffffffffffffffffffffffffffffffffffffff168483606481106141a4576141a3615357565b5b60200201518684606481106141bc576141bb615357565b5b60200201516141cb9190615578565b6146a0565b6001600460008881526020019081526020016000206001015403614219576142148184836064811061420557614204615357565b5b60200201516000896000614718565b614268565b60026004600088815260200190815260200160002060010154036142625761425d8160008584606481106142505761424f615357565b5b602002015160008a614718565b614267565b600080fd5b5b5b8080614274906156b7565b915050614028565b505b6000600760006004600089815260200190815260200160002060030160019054906101000a900473ffffffffffffffffffffffffffffffffffffffff1673ffffffffffffffffffffffffffffffffffffffff1673ffffffffffffffffffffffffffffffffffffffff16815260200190815260200160002080549050111561442557600760006004600088815260200190815260200160002060030160019054906101000a900473ffffffffffffffffffffffffffffffffffffffff1673ffffffffffffffffffffffffffffffffffffffff1673ffffffffffffffffffffffffffffffffffffffff16815260200190815260200160002080548061438457614383615bf3565b5b60019003818190600052602060002090600b020160008082016000905560018201600090556002820160006101000a81549073ffffffffffffffffffffffffffffffffffffffff02191690556003820160009055600482016000905560058201600090556006820160009055600782016000905560088201600090556009820160009055600a820160006101000a81549060ff02191690555050905561427e565b429350505050919050565b60025481565b60005481565b614444614a5b565b61444c614a5b565b6000805b600b6000868152602001908152602001600020805490508110156144e057600b6000868152602001908152602001600020818154811061449357614492615357565b5b9060005260206000209060040201600001548383806144b1906156b7565b9450600a81106144c4576144c3615357565b5b60200201818152505080806144d8906156b7565b915050614450565b508192505050919050565b60008060008060005b600b6000888152602001908152602001600020805490508110156146165785600b6000898152602001908152602001600020828154811061453857614537615357565b5b906000526020600020906004020160000154036146035785600b6000898152602001908152602001600020828154811061457557614574615357565b5b906000526020600020906004020160010154600b60008a815260200190815260200160002083815481106145ac576145ab615357565b5b906000526020600020906004020160020154600b60008b815260200190815260200160002084815481106145e3576145e2615357565b5b90600052602060002090600402016003015494509450945094505061466a565b808061460e906156b7565b9150506144f4565b50600160001461465b576040517f08c379a000000000000000000000000000000000000000000000000000000000815260040161465290615eb0565b60405180910390fd5b60008060008093509350935093505b92959194509250565b60006004600083815260200190815260200160002060030160009054906101000a900460ff169050919050565b8173ffffffffffffffffffffffffffffffffffffffff166108fc829081150290604051600060405180830381858888f19350505050614714576040517f08c379a000000000000000000000000000000000000000000000000000000000815260040161470b90615f1c565b60405180910390fd5b5050565b8360056000878152602001908152602001600020600101600082825461473e91906152a6565b925050819055508260056000878152602001908152602001600020600201600082825461476b91906152a6565b9250508190555060006147aa6005600088815260200190815260200160002060010154600560008981526020019081526020016000206002015461308b565b9050806005600088815260200190815260200160002060010160008282546147d29190615bbf565b92505081905550806005600088815260200190815260200160002060020160008282546147ff9190615bbf565b925050819055508060056000888152602001908152602001600020600301600082825461482c91906152a6565b9250508190555061483b614a7e565b6003600081548092919061484e906156b7565b91905055506003548160000181815250508681602001818152505086816040018181525050600381606001818152505060096000600560008a815260200190815260200160002060050160019054906101000a900473ffffffffffffffffffffffffffffffffffffffff1673ffffffffffffffffffffffffffffffffffffffff1673ffffffffffffffffffffffffffffffffffffffff16815260200190815260200160002081908060018154018082558091505060019003906000526020600020906004020160009091909190915060008201518160000155602082015181600101556040820151816002015560608201518160030155505050505050505050565b6040518060a00160405280600081526020016000815260200160008152602001600073ffffffffffffffffffffffffffffffffffffffff168152602001600081525090565b6040518061016001604052806000815260200160008152602001600073ffffffffffffffffffffffffffffffffffffffff168152602001600080191681526020016000801916815260200160008019168152602001600081526020016000815260200160008152602001600081526020016000151581525090565b60405180610c800160405280606490602082028036833780820191505090505090565b6040518060800160405280600081526020016000815260200160008152602001600081525090565b604051806101400160405280600a90602082028036833780820191505090505090565b6040518060800160405280600081526020016000815260200160008152602001600081525090565b600080fd5b6000819050919050565b614abe81614aab565b8114614ac957600080fd5b50565b600081359050614adb81614ab5565b92915050565b60008060408385031215614af857614af7614aa6565b5b6000614b0685828601614acc565b9250506020614b1785828601614acc565b9150509250929050565b600080600080600060a08688031215614b3d57614b3c614aa6565b5b6000614b4b88828901614acc565b9550506020614b5c88828901614acc565b9450506040614b6d88828901614acc565b9350506060614b7e88828901614acc565b9250506080614b8f88828901614acc565b9150509295509295909350565b60008115159050919050565b614bb181614b9c565b82525050565b6000602082019050614bcc6000830184614ba8565b92915050565b600060208284031215614be857614be7614aa6565b5b6000614bf684828501614acc565b91505092915050565b614c0881614aab565b82525050565b6000602082019050614c236000830184614bff565b92915050565b600080600060608486031215614c4257614c41614aa6565b5b6000614c5086828701614acc565b9350506020614c6186828701614acc565b9250506040614c7286828701614acc565b9150509250925092565b600073ffffffffffffffffffffffffffffffffffffffff82169050919050565b6000614ca782614c7c565b9050919050565b614cb781614c9c565b82525050565b6000602082019050614cd26000830184614cae565b92915050565b7f4e487b7100000000000000000000000000000000000000000000000000000000600052602160045260246000fd5b60048110614d1857614d17614cd8565b5b50565b6000819050614d2982614d07565b919050565b6000614d3982614d1b565b9050919050565b614d4981614d2e565b82525050565b6000614d5a82614c7c565b9050919050565b614d6a81614d4f565b82525050565b600061014082019050614d86600083018d614bff565b614d93602083018c614bff565b614da0604083018b614bff565b614dad606083018a614bff565b614dba6080830189614bff565b614dc760a0830188614d40565b614dd460c0830187614d61565b614de160e0830186614bff565b614def610100830185614bff565b614dfd610120830184614bff565b9b9a5050505050505050505050565b6000819050919050565b614e1f81614e0c565b8114614e2a57600080fd5b50565b600081359050614e3c81614e16565b92915050565b614e4b81614c9c565b8114614e5657600080fd5b50565b600081359050614e6881614e42565b92915050565b60008060008060808587031215614e8857614e87614aa6565b5b6000614e9687828801614e2d565b9450506020614ea787828801614acc565b9350506040614eb887828801614e59565b9250506060614ec987828801614acc565b91505092959194509250565b60008060408385031215614eec57614eeb614aa6565b5b6000614efa85828601614e59565b9250506020614f0b85828601614acc565b9150509250929050565b6000819050919050565b614f2881614f15565b8114614f3357600080fd5b50565b600081359050614f4581614f1f565b92915050565b60008060008060008060c08789031215614f6857614f67614aa6565b5b6000614f7689828a01614acc565b9650506020614f8789828a01614acc565b9550506040614f9889828a01614f36565b9450506060614fa989828a01614f36565b9350506080614fba89828a01614f36565b92505060a0614fcb89828a01614acc565b9150509295509295509295565b6000608082019050614fed6000830187614bff565b614ffa6020830186614bff565b6150076040830185614bff565b6150146060830184614bff565b95945050505050565b60006020828403121561503357615032614aa6565b5b600061504184828501614e59565b91505092915050565b600060408201905061505f6000830185614bff565b61506c6020830184614bff565b9392505050565b60006040820190506150886000830185614bff565b6150956020830184614d61565b9392505050565b6150a581614e0c565b82525050565b6000610100820190506150c1600083018b614bff565b6150ce602083018a61509c565b6150db6040830189614bff565b6150e86060830188614d40565b6150f56080830187614d61565b61510260a0830186614bff565b61510f60c0830185614bff565b61511c60e0830184614bff565b9998505050505050505050565b6000600a9050919050565b600081905092915050565b6000819050919050565b61515281614aab565b82525050565b60006151648383615149565b60208301905092915050565b6000602082019050919050565b61518681615129565b6151908184615134565b925061519b8261513f565b8060005b838110156151cc5781516151b38782615158565b96506151be83615170565b92505060018101905061519f565b505050505050565b6000610140820190506151ea600083018461517d565b92915050565b60006020820190506152056000830184614d40565b92915050565b61521481614d4f565b811461521f57600080fd5b50565b6000813590506152318161520b565b92915050565b6000806040838503121561524e5761524d614aa6565b5b600061525c85828601615222565b925050602061526d85828601614acc565b9150509250929050565b7f4e487b7100000000000000000000000000000000000000000000000000000000600052601160045260246000fd5b60006152b182614aab565b91506152bc83614aab565b92508282019050808211156152d4576152d3615277565b5b92915050565b600082825260208201905092915050565b7f496e76616c6964206d616e756661637475726572000000000000000000000000600082015250565b60006153216014836152da565b915061532c826152eb565b602082019050919050565b6000602082019050818103600083015261535081615314565b9050919050565b7f4e487b7100000000000000000000000000000000000000000000000000000000600052603260045260246000fd5b6000819050919050565b6153a161539c82614aab565b615386565b82525050565b60006153b38284615390565b60208201915081905092915050565b7f496e636f7272656374206b6579202d2d206b656570696e6720796f7572206d6f60008201527f6e65790000000000000000000000000000000000000000000000000000000000602082015250565b600061541e6023836152da565b9150615429826153c2565b604082019050919050565b6000602082019050818103600083015261544d81615411565b9050919050565b7f496e636f7272656374207072696365202d2d206b656570696e6720796f75722060008201527f6d6f6e6579000000000000000000000000000000000000000000000000000000602082015250565b60006154b06025836152da565b91506154bb82615454565b604082019050919050565b600060208201905081810360008301526154df816154a3565b9050919050565b7f496e636f7272656374207175616e74697479202d2d206b656570696e6720796f60008201527f7572206d6f6e6579000000000000000000000000000000000000000000000000602082015250565b60006155426028836152da565b915061554d826154e6565b604082019050919050565b6000602082019050818103600083015261557181615535565b9050919050565b600061558382614aab565b915061558e83614aab565b9250817fffffffffffffffffffffffffffffffffffffffffffffffffffffffffffffffff04831182151516156155c7576155c6615277565b5b828202905092915050565b7f496e73756666696369656e742066756e64732073656e74202d2d206b6565706960008201527f6e6720796f7572206d6f6e657900000000000000000000000000000000000000602082015250565b600061562e602d836152da565b9150615639826155d2565b604082019050919050565b6000602082019050818103600083015261565d81615621565b9050919050565b600060a0820190506156796000830188614bff565b6156866020830187614bff565b6156936040830186614bff565b6156a06060830185614bff565b6156ad6080830184614bff565b9695505050505050565b60006156c282614aab565b91507fffffffffffffffffffffffffffffffffffffffffffffffffffffffffffffffff82036156f4576156f3615277565b5b600182019050919050565b7f5573657220646f65736e27742065786973740000000000000000000000000000600082015250565b60006157356012836152da565b9150615740826156ff565b602082019050919050565b6000602082019050818103600083015261576481615728565b9050919050565b7f41756374696f6e20696e2d70726f677265737320616c72656164790000000000600082015250565b60006157a1601b836152da565b91506157ac8261576b565b602082019050919050565b600060208201905081810360008301526157d081615794565b9050919050565b7f4163636573732044656e69656400000000000000000000000000000000000000600082015250565b600061580d600d836152da565b9150615818826157d7565b602082019050919050565b6000602082019050818103600083015261583c81615800565b9050919050565b7f4d6f6e6579206e6f7420656e6f75676800000000000000000000000000000000600082015250565b60006158796010836152da565b915061588482615843565b602082019050919050565b600060208201905081810360008301526158a88161586c565b9050919050565b7f4d616e75666163747572657220646f65736e2774206578697374000000000000600082015250565b60006158e5601a836152da565b91506158f0826158af565b602082019050919050565b60006020820190508181036000830152615914816158d8565b9050919050565b7f537570706c69657220646f65736e277420657869737400000000000000000000600082015250565b60006159516016836152da565b915061595c8261591b565b602082019050919050565b6000602082019050818103600083015261598081615944565b9050919050565b7f537570706c6965722069736e27742072756e6e696e6720616e2061756374696f60008201527f6e207269676874206e6f77000000000000000000000000000000000000000000602082015250565b60006159e3602b836152da565b91506159ee82615987565b604082019050919050565b60006020820190508181036000830152615a12816159d6565b9050919050565b7f537570706c69657220646f65736e742073656c6c20796f750000000000000000600082015250565b6000615a4f6018836152da565b9150615a5a82615a19565b602082019050919050565b60006020820190508181036000830152615a7e81615a42565b9050919050565b615a8e81614f15565b82525050565b600060a082019050615aa96000830188614bff565b615ab66020830187614bff565b615ac36040830186615a85565b615ad06060830185615a85565b615add6080830184615a85565b9695505050505050565b7f41756374696f6e20656e64656420616c72656164790000000000000000000000600082015250565b6000615b1d6015836152da565b9150615b2882615ae7565b602082019050919050565b60006020820190508181036000830152615b4c81615b10565b9050919050565b7f4d616e75666163747572657220494420646f65736e6f74206578697374000000600082015250565b6000615b89601d836152da565b9150615b9482615b53565b602082019050919050565b60006020820190508181036000830152615bb881615b7c565b9050919050565b6000615bca82614aab565b9150615bd583614aab565b9250828203905081811115615bed57615bec615277565b5b92915050565b7f4e487b7100000000000000000000000000000000000000000000000000000000600052603160045260246000fd5b600060649050919050565b600081905092915050565b6000819050919050565b6000602082019050919050565b615c5881615c22565b615c628184615c2d565b9250615c6d82615c38565b8060005b83811015615c9e578151615c858782615158565b9650615c9083615c42565b925050600181019050615c71565b505050505050565b6000610d0082019050615cbc6000830188614bff565b615cc96020830187614bff565b615cd66040830186614bff565b615ce36060830185614bff565b615cf06080830184615c4f565b9695505050505050565b7f5175616e74697479206e6f7420417661696c61626c6500000000000000000000600082015250565b6000615d306016836152da565b9150615d3b82615cfa565b602082019050919050565b60006020820190508181036000830152615d5f81615d23565b9050919050565b7f43616e6e6f742062652073657420627920796f75000000000000000000000000600082015250565b6000615d9c6014836152da565b9150615da782615d66565b602082019050919050565b60006020820190508181036000830152615dcb81615d8f565b9050919050565b7f52657665616c207068617365206e6f742072756e6e696e670000000000000000600082015250565b6000615e086018836152da565b9150615e1382615dd2565b602082019050919050565b60006020820190508181036000830152615e3781615dfb565b9050919050565b7f436172206e6f7420666f756e6420696e2074686579206275796572732070757260008201527f6368617365730000000000000000000000000000000000000000000000000000602082015250565b6000615e9a6026836152da565b9150615ea582615e3e565b604082019050919050565b60006020820190508181036000830152615ec981615e8d565b9050919050565b7f5472616e73666572206661696c65642100000000000000000000000000000000600082015250565b6000615f066010836152da565b9150615f1182615ed0565b602082019050919050565b60006020820190508181036000830152615f3581615ef9565b905091905056fea2646970667358221220d7e575416ae5c8f7bfc8b228b95449ba5e6bc5a6bf63e15c91979d84faf1f31764736f6c63430008100033",
  "immutableReferences": {},
  "source": "// SPDX-License-Identifier: MIT\npragma solidity >=0.8.16;\npragma experimental ABIEncoderV2;\n\nimport {FirstAuction} from \"./auction.sol\";\n\ncontract Marketplace {\n    enum AuctionState {\n        RUNNING, // auction is running and bids are being places\n        REVEALING, // auction has ended and bidders are revealing their bids\n        NOT_STARTED, // auction hasn't started yet\n        FINISHED // auction has finished\n    }\n\n    struct Bid {\n        uint256 valuePrice;\n        uint256 valueQuantity;\n        address payable bidderAddress;\n        bytes32 blindBidPrice; // will have price and quantity you are bidding\n        bytes32 blindBidQuantity;\n        bytes32 blindKey;\n        uint256 limitingResourceQuantity;\n        uint256 buyerID;\n        uint256 sellerID;\n        uint256 moneySent;\n        bool correctReveal;\n    }\n\n    struct Purchase {\n        uint256 sellerID;\n        uint256 buyerID;\n        uint256 quantity;\n        address payable customeraddr;\n        uint256 money;\n    }\n\n    struct Product {\n        uint256 tag;\n        uint256 manufacturerID;\n        uint256 sellerA; //wheels\n        uint256 sellerB; //car_body\n    }\n\n    uint256 public num_supplier;\n    uint256 public num_manufacturer;\n    uint256 public num_customer;\n    uint256 public num_products;\n\n    mapping(uint256 => Supplier) public suppliers;\n    mapping(uint256 => Manufacturer) public manufacturers;\n    mapping(uint256 => Customer) public customers;\n    mapping(address => Bid[]) bidsTillNow;\n    mapping(address => Purchase[]) purchasesTillNow;\n    mapping(address => Product[]) productsTillNow;\n\n    address payable public owner;\n\n    constructor() {\n        owner = payable(msg.sender);\n        num_manufacturer = 0;\n        num_supplier = 0;\n        num_customer = 0;\n    }\n\n    struct Supplier {\n        uint256 tag;\n        int256 partType; // 0 is wheels, 1 is car_parts\n        uint256 quantityAvailable;\n        AuctionState currentState;\n        address wallet;\n        uint256 maxBidders;\n        uint256 bidsPlaced;\n        uint256 bidsRevealed;\n    }\n\n    struct Manufacturer {\n        uint256 _tag;\n        uint256 quantityA;\n        uint256 quantityB;\n        uint256 cars;\n        uint256 carsprice;\n        AuctionState currentState;\n        address wallet;\n        uint256 maxBidders;\n        uint256 QA_sellerID;\n        uint256 QB_sellerID;\n    }\n\n    mapping(uint256 => Car[]) carsBought;\n\n    struct Car {\n        uint256 tag;\n        uint256 manufacturerID;\n        uint256 sellerIDA;\n        uint256 sellerIDB;\n    }\n\n    struct Customer {\n        uint256 _tag;\n        address wallet;\n    }\n\n    // function makeBidSupplier(int index, ...) public {\n    //     suppliers[index].auction.makeBid(...);\n    // }\n    // Helpers\n    function minimum(uint256 a, uint256 b) public pure returns (uint256) {\n        return a >= b ? b : a;\n    }\n\n    function supplierStartAuction(uint256 tag) public returns (uint256) {\n        // function for supplier to start their bidding process\n        require(tag <= num_supplier, \"User doesn't exist\");\n        require(\n            suppliers[tag].currentState != AuctionState.RUNNING,\n            \"Auction in-progress already\"\n        );\n\n        // TODO: UNCOMMENT THE FOLLOWING TO ENSURE PEOPLE ARE STARTING AUCTIONS FOR THEMSELVES ONLY\n        // require(\n        //     suppliers[tag].wallet == msg.sender,\n        //     \"Start auction only for yourself!\"\n        // );\n\n        suppliers[tag].currentState = AuctionState.RUNNING;\n        suppliers[tag].bidsPlaced = 0;\n        suppliers[tag].bidsRevealed = 0;\n        emit StartSupplierAuction(tag, block.timestamp);\n        return block.timestamp;\n    }\n\n    function supplierEndAuction(uint256 tag) public returns (uint256) {\n        // function for suppilier to end their auction\n        require(tag <= num_supplier, \"User doesn't exist\");\n        require(\n            suppliers[tag].currentState == AuctionState.RUNNING,\n            \"Auction ended already\"\n        );\n\n        // TODO: UNCOMMENT THE FOLLOWING TO ENSURE PEOPLE ARE ENDING AUCTIONS FOR THEMSELVES ONLY\n        // require(\n        //     suppliers[tag].wallet == msg.sender,\n        //     \"End auction only for yourself!\"\n        // );\n\n        suppliers[tag].currentState = AuctionState.REVEALING;\n        suppliers[tag].bidsRevealed = 0;\n        emit EndSupplierAuction(tag, block.timestamp);\n        return block.timestamp;\n    }\n\n    function transferMoney(address senderaddr, uint256 effectivePrice)\n        public\n        payable\n    {\n        // do eth transactions here\n        require(payable(senderaddr).send(effectivePrice), \"Transfer failed!\");\n    }\n\n    function supplierEndReveal(uint256 tag)\n        public\n        returns (\n            // afterOnly(supplierEndAuction(tag))\n            uint256\n        )\n    {\n        require(tag <= num_supplier, \"Supplier doesn't exist\");\n        require(\n            suppliers[tag].currentState == AuctionState.REVEALING,\n            \"Reveal phase not running\"\n        );\n\n        // TODO: UNCOMMENT THE FOLLOWING TO ENSURE PEOPLE ARE ALLOCATING FOR THEMSELVES ONLY\n        // require(\n        //     (suppliers[tag].wallet == msg.sender || owner == msg.sender),\n        //     \"Operation now allowed\"\n        // );\n\n        suppliers[tag].currentState = AuctionState.FINISHED;\n\n        // do allocation logic and emit\n\n        // bubble sort according to bid value\n        for (uint256 i = 0; i < bidsTillNow[suppliers[tag].wallet].length; i++)\n            for (uint256 j = i + 1; j < bidsTillNow[suppliers[tag].wallet].length; j++)\n                if (\n                    bidsTillNow[suppliers[tag].wallet][i].valuePrice <\n                    bidsTillNow[suppliers[tag].wallet][j].valuePrice\n                ) {\n                    Bid memory x = bidsTillNow[suppliers[tag].wallet][i];\n                    bidsTillNow[suppliers[tag].wallet][i] = bidsTillNow[\n                        suppliers[tag].wallet\n                    ][j];\n                    bidsTillNow[suppliers[tag].wallet][j] = x;\n                }\n        // allocate according to limiting resource first\n        uint256[100] memory allocatingPrices;\n        uint256[100] memory allocatingQuantities;\n        uint256[100] memory moneySentWithBid;\n\n        for (\n            uint256 i = 0;\n            i < bidsTillNow[suppliers[tag].wallet].length;\n            i++\n        ) {\n            Bid memory bid = bidsTillNow[suppliers[tag].wallet][i];\n            if (bid.correctReveal == false) continue;\n\n            moneySentWithBid[bid.buyerID] = bid.moneySent;\n\n            uint256 allocatingHere = minimum(\n                suppliers[tag].quantityAvailable,\n                bid.limitingResourceQuantity\n            );\n            allocatingHere = minimum(allocatingHere, bid.valueQuantity);\n\n            allocatingPrices[bid.buyerID] = bid.valuePrice;\n            allocatingQuantities[bid.buyerID] = allocatingHere;\n            suppliers[tag].quantityAvailable -= allocatingHere;\n            bidsTillNow[suppliers[tag].wallet][i]\n                .valueQuantity -= allocatingHere;\n        }\n\n        // allocate remaining for maximum profit\n        for (\n            uint256 i = 0;\n            i < bidsTillNow[suppliers[tag].wallet].length;\n            i++\n        ) {\n            Bid memory bid = bidsTillNow[suppliers[tag].wallet][i];\n            if (bid.correctReveal == false) continue;\n            uint256 allocatingHere = minimum(\n                suppliers[tag].quantityAvailable,\n                bid.valueQuantity\n            );\n\n            allocatingQuantities[bid.buyerID] += allocatingHere;\n            suppliers[tag].quantityAvailable -= allocatingHere;\n            bidsTillNow[suppliers[tag].wallet][i]\n                .valueQuantity -= allocatingHere;\n        }\n\n        // emit all allocations\n        for (uint256 i = 1; i <= num_manufacturer; i++)\n            if (allocatingQuantities[i] > 0) {\n                emit AllocateFromSupplier(\n                    tag,\n                    i,\n                    allocatingQuantities[i],\n                    allocatingPrices[i]\n                );\n                transferMoney(\n                    manufacturers[i].wallet,\n                    (moneySentWithBid[i] -\n                        allocatingPrices[i] *\n                        allocatingQuantities[i])\n                );\n                transferMoney(\n                    suppliers[tag].wallet,\n                    (allocatingPrices[i] * allocatingQuantities[i])\n                );\n                //update all the manufacturers quanitites to make cars\n                if (suppliers[tag].partType == 1)\n                    updateManufacturerQuantities(\n                        i,\n                        allocatingQuantities[i],\n                        0,\n                        tag,\n                        0\n                    );\n                else if (suppliers[tag].partType == 2)\n                    updateManufacturerQuantities(\n                        i,\n                        0,\n                        allocatingQuantities[i],\n                        0,\n                        tag\n                    );\n                else revert();\n            }\n        while (bidsTillNow[suppliers[tag].wallet].length > 0)\n            bidsTillNow[suppliers[tag].wallet].pop();\n        return block.timestamp;\n    }\n\n    function manufacturerPlacesBid(\n        uint256 manufacturerID,\n        uint256 supplierID,\n        bytes32 blindPrice,\n        bytes32 blindQuantity,\n        bytes32 blindKey,\n        uint256 limit // beforeOnly(supplierEndAuction(supplierID)) // afterOnly(supplierEndAuction(supplierID))\n    ) public payable {\n        //should get all data needed for bid\n        // function for manufacturer to place a bid\n        require(\n            num_manufacturer >= manufacturerID,\n            \"Manufacturer doesn't exist\"\n        );\n        require(num_supplier >= supplierID, \"Supplier doesn't exist\");\n        require(\n            suppliers[supplierID].currentState == AuctionState.RUNNING,\n            \"Supplier isn't running an auction right now\"\n        );\n        require(\n            supplierID == manufacturerID || supplierID == 3,\n            \"Supplier doesnt sell you\"\n        );\n\n        // TODO: UNCOMMENT THE FOLLOWING TO ENSURE PEOPLE ARE ONLY PLACING BIDS FOR THEMSELVES\n        // require(\n        //     manufacturers[manufacturerID].wallet == msg.sender,\n        //     \"You can only bid for yourself!\"\n        // );\n\n        Bid memory newbid;\n        newbid.bidderAddress = payable(msg.sender);\n        newbid.moneySent = msg.value;\n        newbid.buyerID = manufacturerID;\n        newbid.sellerID = supplierID;\n        newbid.blindBidPrice = blindPrice;\n        newbid.blindBidQuantity = blindQuantity;\n        newbid.blindKey = blindKey;\n        newbid.limitingResourceQuantity = limit;\n        newbid.valuePrice = 0;\n        newbid.valueQuantity = 0;\n        newbid.correctReveal = false;\n\n        address supplieraddr = suppliers[supplierID].wallet;\n        bidsTillNow[supplieraddr].push(newbid);\n\n        suppliers[supplierID].bidsPlaced += 1;\n\n        emit ManufacturerBids(\n            supplierID,\n            manufacturerID,\n            blindPrice,\n            blindQuantity,\n            blindKey\n        );\n\n        // if (\n        //     suppliers[supplierID].bidsPlaced == suppliers[supplierID].maxBidders\n        // ) {\n        //     // go to reveal phase\n        //     suppliers[supplierID].currentState = AuctionState.REVEALING;\n        //     supplierEndAuction()\n        // }\n    }\n\n    function customerPurchase(\n        uint256 customerID,\n        uint256 manufacturerID,\n        uint256 quantity\n    ) external payable {\n        require(\n            customers[customerID].wallet == msg.sender || owner == msg.sender,\n            \"Access Denied\"\n        );\n        Purchase memory newpurchase;\n        newpurchase.sellerID = manufacturerID;\n        newpurchase.customeraddr = payable(msg.sender);\n        newpurchase.quantity = quantity;\n        newpurchase.buyerID = customerID;\n        newpurchase.money = msg.value;\n        uint256 unit_cost = manufacturers[manufacturerID].carsprice;\n        uint256 total_cost = unit_cost * quantity;\n        require(newpurchase.money >= total_cost, \"Money not enough\");\n        address manf_adrr = manufacturers[manufacturerID].wallet;\n        purchasesTillNow[manf_adrr].push(newpurchase);\n        emit CustomerRequest(\n            customerID,\n            manufacturerID,\n            quantity,\n            manufacturers[manufacturerID].carsprice\n        );\n    }\n\n    function manufactuerRevealBid(\n        uint256 manufacturerID,\n        uint256 supplierID,\n        uint256 price,\n        uint256 quantity,\n        uint256 key\n    ) public returns (bool) {\n        require(manufacturerID <= num_manufacturer, \"Invalid manufacturer\");\n        require(suppliers[supplierID].currentState == AuctionState.REVEALING);\n        // TODO: UNCOMMENT THE FOLLOWING TO ENSURE PEOPLE ARE ONLY REVEALING BIDS FOR THEMSELVES\n        // require(\n        //     manufacturers[manufacturerID].wallet == msg.sender,\n        //     \"Reveal only for yourself!\"\n        // );\n\n        for (\n            uint256 i = 0;\n            i < bidsTillNow[suppliers[supplierID].wallet].length;\n            i++\n        )\n            if (\n                bidsTillNow[suppliers[supplierID].wallet][i].buyerID ==\n                manufacturerID\n            ) {\n                require(\n                    keccak256(abi.encodePacked(key)) ==\n                        bidsTillNow[suppliers[supplierID].wallet][i]\n                            .blindKey,\n                    \"Incorrect key -- keeping your money\"\n                );\n                require(\n                    keccak256(abi.encodePacked(price + key)) ==\n                        bidsTillNow[suppliers[supplierID].wallet][i]\n                            .blindBidPrice,\n                    \"Incorrect price -- keeping your money\"\n                );\n                require(\n                    keccak256(abi.encodePacked(quantity + key)) ==\n                        bidsTillNow[suppliers[supplierID].wallet][i]\n                            .blindBidQuantity,\n                    \"Incorrect quantity -- keeping your money\"\n                );\n\n                uint256 effectivePrice = price * quantity;\n                require(\n                    effectivePrice <\n                        bidsTillNow[suppliers[supplierID].wallet][i].moneySent,\n                    \"Insufficient funds sent -- keeping your money\"\n                );\n\n                bidsTillNow[suppliers[supplierID].wallet][i]\n                    .correctReveal = true;\n\n                bidsTillNow[suppliers[supplierID].wallet][i].valuePrice = price;\n                bidsTillNow[suppliers[supplierID].wallet][i]\n                    .valueQuantity = quantity;\n                emit ManufacturerReveal(\n                    supplierID,\n                    manufacturerID,\n                    price,\n                    quantity,\n                    key\n                );\n\n                suppliers[supplierID].bidsRevealed += 1;\n                if (\n                    suppliers[supplierID].bidsRevealed ==\n                    suppliers[supplierID].maxBidders\n                ) {\n                    // go to allocation\n                    // supplierEndReveal(supplierID);\n                }\n\n                return true;\n            }\n        return false;\n    }\n\n\n    event DummyEvent(uint256 i, uint256 quantity);\n\n    function manufacturerSupplyCars(uint256 manufacturerID) public {\n        require(num_manufacturer >= manufacturerID);\n        require(\n            msg.sender == manufacturers[manufacturerID].wallet ||\n                msg.sender == owner\n        );\n        for (\n            uint256 i = 0;\n            i < purchasesTillNow[manufacturers[manufacturerID].wallet].length;\n            i++\n        ) {\n            \n            //Money is already checked, Quantity check is done here\n            if (\n                purchasesTillNow[manufacturers[manufacturerID].wallet][i]\n                    .quantity <= manufacturers[manufacturerID].cars\n            ) {\n                uint256 effective_price = purchasesTillNow[\n                    manufacturers[manufacturerID].wallet\n                ][i].quantity * manufacturers[manufacturerID].carsprice;\n                uint256 refund_amount = purchasesTillNow[\n                    manufacturers[manufacturerID].wallet\n                ][i].money - effective_price;\n\n                manufacturers[manufacturerID].cars -= purchasesTillNow[\n                    manufacturers[manufacturerID].wallet\n                ][i].quantity;\n                uint256 num_of_cars = purchasesTillNow[\n                    manufacturers[manufacturerID].wallet\n                ][i].quantity;\n                address mf_adrr = manufacturers[manufacturerID].wallet;\n                uint256[100] memory carTags;\n                uint256 carTagsIdx = 0;\n                for (uint256 j = 0; j < num_of_cars; j++) {\n                    if(productsTillNow[mf_adrr].length == 0)\n                        break;\n                    uint256 idx = productsTillNow[mf_adrr].length - 1;\n                    Car memory newcar;\n                    newcar.tag = productsTillNow[mf_adrr][idx].tag;\n                    newcar.manufacturerID = manufacturerID;\n                    newcar.sellerIDA = productsTillNow[mf_adrr][idx].sellerA;\n                    newcar.sellerIDB = productsTillNow[mf_adrr][idx].sellerB;\n                    carsBought[purchasesTillNow[mf_adrr][idx].buyerID].push(\n                        newcar\n                    );\n                    productsTillNow[mf_adrr].pop();\n                    carTags[carTagsIdx++] = newcar.tag;\n                }\n                transferMoney(\n                    manufacturers[manufacturerID].wallet,\n                    effective_price\n                );\n                transferMoney(\n                    customers[\n                        purchasesTillNow[manufacturers[manufacturerID].wallet][\n                            i\n                        ].buyerID\n                    ].wallet,\n                    refund_amount\n                );\n                // refundMoney(\n                // customers[purchasesTillNow[manufacturers[manufacturerID].wallet][i].buyerID].wallet,\n                // refund_amount);\n                emit AllocateFromManufacturer(\n                    manufacturerID,\n                    purchasesTillNow[manufacturers[manufacturerID].wallet][i]\n                        .buyerID,\n                    purchasesTillNow[manufacturers[manufacturerID].wallet][i]\n                        .quantity,\n                    effective_price,\n                    carTags\n                );\n            } else {\n                //send them back the amount saying quantity not available\n                revert(\"Quantity not Available\"); //gas to caller\n            }\n        }\n        while(purchasesTillNow[manufacturers[manufacturerID].wallet].length>0)\n        {\n            purchasesTillNow[manufacturers[manufacturerID].wallet].pop();\n        }\n\n    }\n\n    function addSupplier(\n        int256 partType,\n        uint256 quantityAvailable,\n        address payable addr,\n        uint256 auctionBidders\n    ) public {\n        num_supplier++;\n        suppliers[num_supplier] = Supplier(\n            num_supplier,\n            partType,\n            quantityAvailable,\n            AuctionState.NOT_STARTED,\n            addr,\n            auctionBidders,\n            0,\n            0\n        );\n    }\n\n    function addManufacturer(address payable addr, uint256 auctionBidders)\n        public\n    {\n        num_manufacturer++;\n        manufacturers[num_manufacturer] = Manufacturer(\n            num_manufacturer,\n            0,\n            0,\n            0,\n            0,\n            AuctionState.NOT_STARTED,\n            addr,\n            auctionBidders,\n            0,\n            0\n        );\n    }\n\n    function addCustomer(address payable addr) public {\n        num_customer++;\n        customers[num_customer] = Customer(num_customer, addr);\n    }\n\n    // Setter functions\n    function supplierAddQuantity(uint256 suppliedID, uint256 quantityToAdd)\n        public\n    {\n        require(suppliers[suppliedID].wallet == msg.sender);\n        require(num_supplier >= suppliedID);\n        // increase the supplier quantity\n        suppliers[suppliedID].quantityAvailable += quantityToAdd;\n    }\n\n    function updateManufacturerQuantities(\n        uint256 manufacturerID,\n        uint256 quantityA,\n        uint256 quantityB,\n        uint256 supplierA,\n        uint256 supplierB\n    ) private {\n        manufacturers[manufacturerID].quantityA += quantityA;\n        manufacturers[manufacturerID].quantityB += quantityB;\n        uint256 max_cars = minimum(\n            manufacturers[manufacturerID].quantityA,\n            manufacturers[manufacturerID].quantityB\n        );\n        manufacturers[manufacturerID].quantityA -= max_cars;\n        manufacturers[manufacturerID].quantityB -= max_cars;\n        manufacturers[manufacturerID].cars += max_cars;\n        \n        Product memory newcar;\n        num_products++;\n        newcar.tag = num_products;\n        newcar.manufacturerID = manufacturerID;\n        newcar.sellerA = manufacturerID;\n        newcar.sellerB = 3;\n        productsTillNow[manufacturers[manufacturerID].wallet].push(newcar);\n        \n    }\n\n    function set_cars_price(uint256 manufacturerID, uint256 price) public {\n        require(\n            msg.sender == manufacturers[manufacturerID].wallet ||\n                msg.sender == owner,\n            \"Cannot be set by you\"\n        );\n        manufacturers[manufacturerID].carsprice = price;\n    }\n\n    // Starting, ending and allocation of auction by supplier\n    event StartSupplierAuction(uint256 supplierID, uint256 startTime);\n    event EndSupplierAuction(uint256 supplierID, uint256 endTime);\n    event AllocateFromSupplier(\n        uint256 supplierID,\n        uint256 manufacturerID,\n        uint256 quantity,\n        uint256 price\n    );\n\n    // Starting, ending and allocation of auctions by manufacturers\n    event StartManufacturerAuction(uint256 manufacturerID, uint256 startTime);\n    event EndManufacturerAuction(uint256 manufacturerID, uint256 endTime);\n    event CustomerRequest(\n        uint256 CustomerID,\n        uint256 ManufacturerID,\n        uint256 Quantity,\n        uint256 Price\n    );\n    event AllocateFromManufacturer(\n        uint256 manufacturerID,\n        uint256 customerID,\n        uint256 quantity,\n        uint256 price,\n        uint256[100] carTag\n    );\n\n    // Manufacturer places a bid to the supplier\n    event ManufacturerBids(\n        uint256 supplierID,\n        uint256 manufacturerID,\n        bytes32 blindBidPrice,\n        bytes32 blindBidQuantity,\n        bytes32 blindKey\n    );\n    // Manufacturer reveals it's bid to the supplier by providing the key\n    event ManufacturerReveal(\n        uint256 supplierID,\n        uint256 manufacturerID,\n        uint256 price,\n        uint256 quantity,\n        uint256 key\n    );\n\n    // Customer places a bid to the manufacturer\n    event CustomerBid(\n        uint256 manufacturerID,\n        uint256 customerID,\n        bytes32 blindBid\n    );\n    event CustomerReveal(\n        uint256 manufacturerID,\n        uint256 customerID,\n        uint256 price,\n        uint256 quantity\n    );\n\n    // ALL GET FUNCTIONS\n\n    function verifyproduct(uint256 customerID, uint256 car_tag)\n        public\n        view\n        returns (\n            uint256 carID,\n            uint256 manfID,\n            uint256 sellerIDA,\n            uint256 sellerIDB\n        )\n    {\n        for (uint256 i = 0; i < carsBought[customerID].length; i++) {\n            if (carsBought[customerID][i].tag == car_tag)\n                return (\n                    car_tag,\n                    carsBought[customerID][i].manufacturerID,\n                    carsBought[customerID][i].sellerIDA,\n                    carsBought[customerID][i].sellerIDB\n                );\n        }\n        require(0 == 1, \"Car not found in they buyers purchases\");\n        return (0, 0, 0, 0);\n    }\n\n    //everyone can access it\n    function get_cars_price_quantity(uint256 manfID)\n        public\n        view\n        returns (uint256 price, uint256 quantity)\n    {\n        require(num_manufacturer >= manfID, \"Manufacturer ID doesnot exist\");\n        return (manufacturers[manfID].carsprice, manufacturers[manfID].cars);\n    }\n\n    function get_manufacturer_data(uint256 manfID)\n        public\n        view\n        returns (\n            uint256 tag,\n            uint256 quantA,\n            uint256 quantB,\n            uint256 cars\n        )\n    {\n        Manufacturer memory t = manufacturers[manfID];\n        return (t._tag, t.quantityA, t.quantityB, t.cars);\n    }\n\n    function get_car_data(uint256 customerID)\n        public\n        view\n        returns (uint256[10] memory cars)\n    {\n        uint256[10] memory data;\n        uint256 idx = 0;\n        for (uint256 i = 0; i < carsBought[customerID].length; i++) {\n            data[idx++] = carsBought[customerID][i].tag;\n        }\n        return data;\n    }\n    // all modifiers\n    modifier beforeOnly(uint256 _time) {\n        require(block.timestamp < _time);\n        _;\n    }\n    modifier afterOnly(uint256 _time) {\n        require(block.timestamp > _time);\n        _;\n    }\n    function getsuppliers() public view returns(uint256)\n    {\n        return num_supplier;\n    }\n    function getmanufacturers() public view returns(uint256)\n    {\n        return num_manufacturer;\n    }\n    function getstatus(uint256 supplierID) public view returns(AuctionState)\n    {\n        return suppliers[supplierID].currentState;\n    }\n    function getbidcount(uint256 supID) public view  returns (uint len){\n        return bidsTillNow[suppliers[supID].wallet].length;\n    }\n    //test only\n    function set_cars(uint256 manfID, uint256 quant) public {\n        manufacturers[manfID].cars = quant;\n    }\n}\n",
  "sourcePath": "/home/prince/Course_M22/BLOCKCHAIN/Supply-Chain-Smartcontract/contracts/Marketplace.sol",
  "compiler": {
    "name": "solc",
    "version": "0.8.16+commit.07a7930e.Emscripten.clang"
  },
  "schemaVersion": "3.4.8",
  "updatedAt": "2022-09-14T10:00:22.160Z",
  "networkType": "ethereum",
  "devdoc": {
    "kind": "dev",
    "methods": {},
    "version": 1
  },
  "userdoc": {
    "kind": "user",
    "methods": {},
    "version": 1
  }
}