{
  "contractName": "NewMarketPlace",
  "abi": [
    {
      "inputs": [],
      "stateMutability": "nonpayable",
      "type": "constructor"
    },
    {
      "anonymous": false,
      "inputs": [
        {
          "indexed": false,
          "internalType": "uint256",
          "name": "supplierID",
          "type": "uint256"
        },
        {
          "indexed": false,
          "internalType": "uint256",
          "name": "manufacturerID",
          "type": "uint256"
        },
        {
          "indexed": false,
          "internalType": "uint256",
          "name": "quantity",
          "type": "uint256"
        },
        {
          "indexed": false,
          "internalType": "uint256",
          "name": "price",
          "type": "uint256"
        }
      ],
      "name": "AllocateFromSupplier",
      "type": "event"
    },
    {
      "anonymous": false,
      "inputs": [
        {
          "indexed": false,
          "internalType": "uint256",
          "name": "carID",
          "type": "uint256"
        },
        {
          "indexed": false,
          "internalType": "uint256",
          "name": "manufacturerID",
          "type": "uint256"
        },
        {
          "indexed": false,
          "internalType": "uint256",
          "name": "customerID",
          "type": "uint256"
        }
      ],
      "name": "CarSold",
      "type": "event"
    },
    {
      "anonymous": false,
      "inputs": [
        {
          "indexed": false,
          "internalType": "uint256",
          "name": "manufacturerID",
          "type": "uint256"
        },
        {
          "indexed": false,
          "internalType": "uint256",
          "name": "supplierID",
          "type": "uint256"
        },
        {
          "indexed": false,
          "internalType": "bytes32",
          "name": "blindPrice",
          "type": "bytes32"
        },
        {
          "indexed": false,
          "internalType": "bytes32",
          "name": "blindQuantity",
          "type": "bytes32"
        },
        {
          "indexed": false,
          "internalType": "bytes32",
          "name": "blindKey",
          "type": "bytes32"
        }
      ],
      "name": "ManufacturerBids",
      "type": "event"
    },
    {
      "anonymous": false,
      "inputs": [
        {
          "indexed": false,
          "internalType": "uint256",
          "name": "manufacturerID",
          "type": "uint256"
        },
        {
          "indexed": false,
          "internalType": "uint256",
          "name": "supplierID",
          "type": "uint256"
        },
        {
          "indexed": false,
          "internalType": "uint256",
          "name": "actualPrice",
          "type": "uint256"
        },
        {
          "indexed": false,
          "internalType": "uint256",
          "name": "actualQuantity",
          "type": "uint256"
        },
        {
          "indexed": false,
          "internalType": "uint256",
          "name": "actualKey",
          "type": "uint256"
        }
      ],
      "name": "ManufacturerReveal",
      "type": "event"
    },
    {
      "anonymous": false,
      "inputs": [
        {
          "indexed": false,
          "internalType": "uint256",
          "name": "tag",
          "type": "uint256"
        },
        {
          "indexed": false,
          "internalType": "uint256",
          "name": "timestamp",
          "type": "uint256"
        }
      ],
      "name": "StartSupplierBidding",
      "type": "event"
    },
    {
      "anonymous": false,
      "inputs": [
        {
          "indexed": false,
          "internalType": "uint256",
          "name": "tag",
          "type": "uint256"
        },
        {
          "indexed": false,
          "internalType": "uint256",
          "name": "timestamp",
          "type": "uint256"
        }
      ],
      "name": "StartSupplierReveal",
      "type": "event"
    },
    {
      "inputs": [
        {
          "internalType": "uint256",
          "name": "",
          "type": "uint256"
        }
      ],
      "name": "customers",
      "outputs": [
        {
          "internalType": "uint256",
          "name": "tag",
          "type": "uint256"
        },
        {
          "internalType": "address",
          "name": "wallet",
          "type": "address"
        }
      ],
      "stateMutability": "view",
      "type": "function",
      "constant": true
    },
    {
      "inputs": [
        {
          "internalType": "uint256",
          "name": "",
          "type": "uint256"
        }
      ],
      "name": "manufacturers",
      "outputs": [
        {
          "internalType": "uint256",
          "name": "tag",
          "type": "uint256"
        },
        {
          "internalType": "uint256",
          "name": "wheelSupplier",
          "type": "uint256"
        },
        {
          "internalType": "uint256",
          "name": "wheelQuant",
          "type": "uint256"
        },
        {
          "internalType": "uint256",
          "name": "bodySupplier",
          "type": "uint256"
        },
        {
          "internalType": "uint256",
          "name": "bodyQuant",
          "type": "uint256"
        },
        {
          "internalType": "uint256",
          "name": "carsAvailable",
          "type": "uint256"
        },
        {
          "internalType": "uint256",
          "name": "carPrice",
          "type": "uint256"
        },
        {
          "internalType": "address",
          "name": "wallet",
          "type": "address"
        }
      ],
      "stateMutability": "view",
      "type": "function",
      "constant": true
    },
    {
      "inputs": [],
      "name": "owner",
      "outputs": [
        {
          "internalType": "address payable",
          "name": "",
          "type": "address"
        }
      ],
      "stateMutability": "view",
      "type": "function",
      "constant": true
    },
    {
      "inputs": [
        {
          "internalType": "uint256",
          "name": "",
          "type": "uint256"
        }
      ],
      "name": "suppliers",
      "outputs": [
        {
          "internalType": "uint256",
          "name": "tag",
          "type": "uint256"
        },
        {
          "internalType": "enum NewMarketPlace.PartType",
          "name": "partType",
          "type": "uint8"
        },
        {
          "internalType": "uint256",
          "name": "quantityAvailable",
          "type": "uint256"
        },
        {
          "internalType": "enum NewMarketPlace.AuctionState",
          "name": "currentState",
          "type": "uint8"
        },
        {
          "internalType": "address",
          "name": "wallet",
          "type": "address"
        },
        {
          "internalType": "uint256",
          "name": "maxBidders",
          "type": "uint256"
        },
        {
          "internalType": "uint256",
          "name": "bidsPlaced",
          "type": "uint256"
        },
        {
          "internalType": "uint256",
          "name": "bidsRevealed",
          "type": "uint256"
        }
      ],
      "stateMutability": "view",
      "type": "function",
      "constant": true
    },
    {
      "inputs": [],
      "name": "isSupplier",
      "outputs": [
        {
          "internalType": "bool",
          "name": "",
          "type": "bool"
        }
      ],
      "stateMutability": "view",
      "type": "function",
      "constant": true
    },
    {
      "inputs": [],
      "name": "numSuppliers",
      "outputs": [
        {
          "internalType": "uint256",
          "name": "",
          "type": "uint256"
        }
      ],
      "stateMutability": "view",
      "type": "function",
      "constant": true
    },
    {
      "inputs": [
        {
          "internalType": "uint256",
          "name": "id",
          "type": "uint256"
        }
      ],
      "name": "getSupplierByID",
      "outputs": [
        {
          "internalType": "uint256",
          "name": "tag",
          "type": "uint256"
        },
        {
          "internalType": "uint256",
          "name": "partType",
          "type": "uint256"
        },
        {
          "internalType": "uint256",
          "name": "quantityAvailable",
          "type": "uint256"
        },
        {
          "internalType": "address",
          "name": "wallet",
          "type": "address"
        }
      ],
      "stateMutability": "view",
      "type": "function",
      "constant": true
    },
    {
      "inputs": [],
      "name": "isManufacturer",
      "outputs": [
        {
          "internalType": "bool",
          "name": "",
          "type": "bool"
        }
      ],
      "stateMutability": "view",
      "type": "function",
      "constant": true
    },
    {
      "inputs": [
        {
          "internalType": "uint256",
          "name": "a",
          "type": "uint256"
        },
        {
          "internalType": "uint256",
          "name": "b",
          "type": "uint256"
        }
      ],
      "name": "minimum",
      "outputs": [
        {
          "internalType": "uint256",
          "name": "",
          "type": "uint256"
        }
      ],
      "stateMutability": "pure",
      "type": "function",
      "constant": true
    },
    {
      "inputs": [
        {
          "internalType": "uint256",
          "name": "tag",
          "type": "uint256"
        }
      ],
      "name": "supplierStartBidding",
      "outputs": [
        {
          "internalType": "uint256",
          "name": "",
          "type": "uint256"
        }
      ],
      "stateMutability": "nonpayable",
      "type": "function"
    },
    {
      "inputs": [
        {
          "internalType": "uint256",
          "name": "tag",
          "type": "uint256"
        }
      ],
      "name": "supplierStartReveal",
      "outputs": [
        {
          "internalType": "uint256",
          "name": "",
          "type": "uint256"
        }
      ],
      "stateMutability": "nonpayable",
      "type": "function"
    },
    {
      "inputs": [
        {
          "internalType": "uint256",
          "name": "tag",
          "type": "uint256"
        }
      ],
      "name": "supplierEndAuction",
      "outputs": [
        {
          "internalType": "uint256",
          "name": "",
          "type": "uint256"
        }
      ],
      "stateMutability": "nonpayable",
      "type": "function"
    },
    {
      "inputs": [
        {
          "internalType": "uint256",
          "name": "manufacturerID",
          "type": "uint256"
        },
        {
          "internalType": "uint256",
          "name": "supplierID",
          "type": "uint256"
        },
        {
          "internalType": "bytes32",
          "name": "blindPrice",
          "type": "bytes32"
        },
        {
          "internalType": "bytes32",
          "name": "blindQuantity",
          "type": "bytes32"
        },
        {
          "internalType": "bytes32",
          "name": "blindKey",
          "type": "bytes32"
        }
      ],
      "name": "manufacturerPlacesBid",
      "outputs": [
        {
          "internalType": "uint256",
          "name": "limitingQuantity",
          "type": "uint256"
        }
      ],
      "stateMutability": "payable",
      "type": "function",
      "payable": true
    },
    {
      "inputs": [
        {
          "internalType": "uint256",
          "name": "manufacturerID",
          "type": "uint256"
        },
        {
          "internalType": "uint256",
          "name": "supplierID",
          "type": "uint256"
        },
        {
          "internalType": "uint256",
          "name": "actualPrice",
          "type": "uint256"
        },
        {
          "internalType": "uint256",
          "name": "actualQuantity",
          "type": "uint256"
        },
        {
          "internalType": "uint256",
          "name": "actualKey",
          "type": "uint256"
        }
      ],
      "name": "manufacturerRevealsBid",
      "outputs": [
        {
          "internalType": "bool",
          "name": "",
          "type": "bool"
        }
      ],
      "stateMutability": "nonpayable",
      "type": "function"
    },
    {
      "inputs": [
        {
          "internalType": "uint256",
          "name": "customerID",
          "type": "uint256"
        },
        {
          "internalType": "uint256",
          "name": "manufacturerID",
          "type": "uint256"
        },
        {
          "internalType": "uint256",
          "name": "priceOfferedPerCar",
          "type": "uint256"
        },
        {
          "internalType": "uint256",
          "name": "quantityRequested",
          "type": "uint256"
        }
      ],
      "name": "customerBuysCar",
      "outputs": [
        {
          "internalType": "uint256",
          "name": "",
          "type": "uint256"
        }
      ],
      "stateMutability": "payable",
      "type": "function",
      "payable": true
    },
    {
      "inputs": [
        {
          "internalType": "uint256",
          "name": "customerID",
          "type": "uint256"
        },
        {
          "internalType": "uint256",
          "name": "idx",
          "type": "uint256"
        }
      ],
      "name": "verifyCar",
      "outputs": [
        {
          "internalType": "uint256",
          "name": "id",
          "type": "uint256"
        },
        {
          "internalType": "uint256",
          "name": "manufacturerID",
          "type": "uint256"
        },
        {
          "internalType": "uint256",
          "name": "wheelSupplier",
          "type": "uint256"
        },
        {
          "internalType": "uint256",
          "name": "bodySupplier",
          "type": "uint256"
        }
      ],
      "stateMutability": "view",
      "type": "function",
      "constant": true
    },
    {
      "inputs": [
        {
          "internalType": "uint256",
          "name": "partType",
          "type": "uint256"
        },
        {
          "internalType": "uint256",
          "name": "quantityAvailable",
          "type": "uint256"
        },
        {
          "internalType": "address payable",
          "name": "addr",
          "type": "address"
        },
        {
          "internalType": "uint256",
          "name": "auctionBidders",
          "type": "uint256"
        }
      ],
      "name": "addSupplier",
      "outputs": [
        {
          "internalType": "uint256",
          "name": "tag",
          "type": "uint256"
        }
      ],
      "stateMutability": "payable",
      "type": "function",
      "payable": true
    },
    {
      "inputs": [
        {
          "internalType": "uint256",
          "name": "tag",
          "type": "uint256"
        },
        {
          "internalType": "uint256",
          "name": "newQuantity",
          "type": "uint256"
        }
      ],
      "name": "updateSupplierQuantity",
      "outputs": [
        {
          "internalType": "uint256",
          "name": "totalQuantity",
          "type": "uint256"
        }
      ],
      "stateMutability": "nonpayable",
      "type": "function"
    },
    {
      "inputs": [
        {
          "internalType": "address payable",
          "name": "addr",
          "type": "address"
        },
        {
          "internalType": "uint256",
          "name": "wheelSupplier",
          "type": "uint256"
        },
        {
          "internalType": "uint256",
          "name": "bodySupplier",
          "type": "uint256"
        },
        {
          "internalType": "uint256",
          "name": "askingPrice",
          "type": "uint256"
        }
      ],
      "name": "addManufacturer",
      "outputs": [
        {
          "internalType": "uint256",
          "name": "tag",
          "type": "uint256"
        }
      ],
      "stateMutability": "nonpayable",
      "type": "function"
    },
    {
      "inputs": [
        {
          "internalType": "address payable",
          "name": "addr",
          "type": "address"
        }
      ],
      "name": "addCustomer",
      "outputs": [
        {
          "internalType": "uint256",
          "name": "tag",
          "type": "uint256"
        }
      ],
      "stateMutability": "nonpayable",
      "type": "function"
    },
    {
      "inputs": [
        {
          "internalType": "uint256",
          "name": "tag",
          "type": "uint256"
        }
      ],
      "name": "getManufacturerQuantities",
      "outputs": [
        {
          "internalType": "uint256",
          "name": "quantityWheel",
          "type": "uint256"
        },
        {
          "internalType": "uint256",
          "name": "quantityBody",
          "type": "uint256"
        },
        {
          "internalType": "uint256",
          "name": "quantityCar",
          "type": "uint256"
        }
      ],
      "stateMutability": "view",
      "type": "function",
      "constant": true
    },
    {
      "inputs": [
        {
          "internalType": "address",
          "name": "supplier_addr",
          "type": "address"
        }
      ],
      "name": "getSupplierID",
      "outputs": [
        {
          "internalType": "uint256",
          "name": "tag",
          "type": "uint256"
        }
      ],
      "stateMutability": "view",
      "type": "function",
      "constant": true
    },
    {
      "inputs": [
        {
          "internalType": "address",
          "name": "manufacturer_addr",
          "type": "address"
        }
      ],
      "name": "getManufacturerID",
      "outputs": [
        {
          "internalType": "uint256",
          "name": "tag",
          "type": "uint256"
        },
        {
          "internalType": "uint256",
          "name": "wheelSupplier",
          "type": "uint256"
        },
        {
          "internalType": "uint256",
          "name": "wheelQuant",
          "type": "uint256"
        },
        {
          "internalType": "uint256",
          "name": "bodySupplier",
          "type": "uint256"
        },
        {
          "internalType": "uint256",
          "name": "bodyQuant",
          "type": "uint256"
        },
        {
          "internalType": "uint256",
          "name": "carsAvailable",
          "type": "uint256"
        },
        {
          "internalType": "uint256",
          "name": "carPrice",
          "type": "uint256"
        }
      ],
      "stateMutability": "view",
      "type": "function",
      "constant": true
    },
    {
      "inputs": [
        {
          "internalType": "uint256",
          "name": "tag",
          "type": "uint256"
        }
      ],
      "name": "getAuctionState",
      "outputs": [
        {
          "internalType": "uint256",
          "name": "state",
          "type": "uint256"
        }
      ],
      "stateMutability": "view",
      "type": "function",
      "constant": true
    },
    {
      "inputs": [
        {
          "internalType": "address",
          "name": "wallet",
          "type": "address"
        }
      ],
      "name": "getNumberOfBids",
      "outputs": [
        {
          "internalType": "uint256",
          "name": "",
          "type": "uint256"
        }
      ],
      "stateMutability": "view",
      "type": "function",
      "constant": true
    },
    {
      "inputs": [
        {
          "internalType": "address",
          "name": "wallet",
          "type": "address"
        },
        {
          "internalType": "uint256",
          "name": "idx",
          "type": "uint256"
        }
      ],
      "name": "getSupplierBids",
      "outputs": [
        {
          "internalType": "bytes32",
          "name": "blindPrice",
          "type": "bytes32"
        },
        {
          "internalType": "bytes32",
          "name": "blindQuantity",
          "type": "bytes32"
        },
        {
          "internalType": "uint256",
          "name": "buyerID",
          "type": "uint256"
        },
        {
          "internalType": "bool",
          "name": "correctReveal",
          "type": "bool"
        }
      ],
      "stateMutability": "view",
      "type": "function",
      "constant": true
    },
    {
      "inputs": [],
      "name": "getSuppliers",
      "outputs": [
        {
          "internalType": "uint256",
          "name": "",
          "type": "uint256"
        }
      ],
      "stateMutability": "view",
      "type": "function",
      "constant": true
    },
    {
      "inputs": [],
      "name": "getManufacturers",
      "outputs": [
        {
          "internalType": "uint256",
          "name": "",
          "type": "uint256"
        }
      ],
      "stateMutability": "view",
      "type": "function",
      "constant": true
    },
    {
      "inputs": [],
      "name": "getCustomers",
      "outputs": [
        {
          "internalType": "uint256",
          "name": "",
          "type": "uint256"
        }
      ],
      "stateMutability": "view",
      "type": "function",
      "constant": true
    },
    {
      "inputs": [
        {
          "internalType": "uint256",
          "name": "manufacturerID",
          "type": "uint256"
        },
        {
          "internalType": "uint256",
          "name": "price",
          "type": "uint256"
        }
      ],
      "name": "setCarsprice",
      "outputs": [
        {
          "internalType": "uint256",
          "name": "",
          "type": "uint256"
        }
      ],
      "stateMutability": "nonpayable",
      "type": "function"
    },
    {
      "inputs": [
        {
          "internalType": "uint256",
          "name": "customerID",
          "type": "uint256"
        }
      ],
      "name": "numberOfCarsBought",
      "outputs": [
        {
          "internalType": "uint256",
          "name": "",
          "type": "uint256"
        }
      ],
      "stateMutability": "view",
      "type": "function",
      "constant": true
    }
  ],
  "bytecode": "0x608060405234801561001057600080fd5b506000600981905560088190556007819055600681905580546001600160a01b031916331790556134ae806100466000396000f3fe6080604052600436106101685760003560e01c8063098810071461016d57806319820090146101a05780632565a86e146101d057806343516832146101e55780634a0202cc146101fa5780634f243c641461020d5780635b5e58dc1461022d5780636dc6a0b41461024d5780637aa4c3f3146102835780638da5cb5b146102b257806390175af1146102ea57806392cb29761461039757806393583b89146103b75780639becc81c146103cc578063a9c5631414610415578063aa8613c414610445578063ad61d355146101e5578063ad973d7414610465578063bc8a234514610485578063c0abda2a1461049a578063c33010b7146104f4578063cc5d852e14610536578063cea2312114610549578063d3a26e60146105c8578063d8e55b5d146105e8578063dd2d2a121461063d578063e804b9551461065d578063f1ba712714610670578063f7b0fde814610685578063fe5489a6146106a5578063fe828f36146106d2575b600080fd5b34801561017957600080fd5b5061018d61018836600461303d565b6106f2565b6040519081526020015b60405180910390f35b3480156101ac57600080fd5b506101c06101bb366004613056565b6107a5565b6040519015158152602001610197565b3480156101dc57600080fd5b506101c0610e69565b3480156101f157600080fd5b5060065461018d565b61018d610208366004613091565b610ec0565b34801561021957600080fd5b5061018d6102283660046130db565b6111c9565b34801561023957600080fd5b5061018d6102483660046130f8565b61122d565b34801561025957600080fd5b5061018d6102683660046130db565b6001600160a01b031660009081526005602052604090205490565b34801561028f57600080fd5b506102a361029e36600461303d565b611457565b60405161019793929190613133565b3480156102be57600080fd5b506000546102d2906001600160a01b031681565b6040516001600160a01b039091168152602001610197565b3480156102f657600080fd5b5061035361030536600461303d565b6002602081905260009182526040909120805460018201549282015460038301546004840154600585015460068601546007909601549496959394929391929091906001600160a01b031688565b604080519889526020890197909752958701949094526060860192909252608085015260a084015260c08301526001600160a01b031660e082015261010001610197565b3480156103a357600080fd5b5061018d6103b2366004613149565b611504565b3480156103c357600080fd5b506101c0611520565b3480156103d857600080fd5b506103ec6103e736600461303d565b61156b565b604080519485526020850193909352918301526001600160a01b03166060820152608001610197565b34801561042157600080fd5b50610435610430366004613149565b6115d9565b604051610197949392919061316b565b34801561045157600080fd5b5061018d61046036600461303d565b611758565b34801561047157600080fd5b5061018d6104803660046130db565b612473565b34801561049157600080fd5b5060075461018d565b3480156104a657600080fd5b506104d76104b536600461303d565b600360205260009081526040902080546001909101546001600160a01b031682565b604080519283526001600160a01b03909116602083015201610197565b34801561050057600080fd5b5061051461050f366004613186565b612505565b6040805194855260208501939093529183015215156060820152608001610197565b61018d6105443660046131b2565b612666565b34801561055557600080fd5b506105b461056436600461303d565b6001602081905260009182526040909120805491810154600282015460038301546004840154600585015460069095015460ff9485169593948316936101009093046001600160a01b0316929088565b604051610197989796959493929190613207565b3480156105d457600080fd5b5061018d6105e3366004613149565b612833565b3480156105f457600080fd5b506106086106033660046130db565b6128d2565b604080519788526020880196909652948601939093526060850191909152608084015260a083015260c082015260e001610197565b34801561064957600080fd5b5061018d610658366004613149565b612971565b61018d61066b366004613056565b61298a565b34801561067c57600080fd5b5060085461018d565b34801561069157600080fd5b5061018d6106a036600461303d565b612d93565b3480156106b157600080fd5b5061018d6106c036600461303d565b60009081526004602052604090205490565b3480156106de57600080fd5b5061018d6106ed36600461303d565b612e87565b600060065482111561070357600080fd5b60008281526001602052604081206003015460ff166002811115610729576107296131f1565b0361073657506001919050565b600160008381526001602052604090206003015460ff16600281111561075e5761075e6131f1565b0361076b57506002919050565b600260008381526001602052604090206003015460ff166002811115610793576107936131f1565b036107a057506003919050565b919050565b60006007548611156107d25760405162461bcd60e51b81526004016107c99061326e565b60405180910390fd5b6006548511156107f45760405162461bcd60e51b81526004016107c99061326e565b600260008681526001602052604090206003015460ff16600281111561081c5761081c6131f1565b146108655760405162461bcd60e51b81526020600482015260196024820152782932bb32b0b610383430b9b2903737ba1033b7b4b7339037b760391b60448201526064016107c9565b6000868152600260205260409020600701546001600160a01b0316331461089e5760405162461bcd60e51b81526004016107c99061326e565b60005b60008681526001602090815260408083206003015461010090046001600160a01b031683526005909152902054811015610e5a5760008681526001602090815260408083206003015461010090046001600160a01b031683526005909152902080548891908390811061091657610916613292565b90600052602060002090600b02016007015403610e485760008681526001602090815260408083206003015461010090046001600160a01b031683526005909152812080548390811061096b5761096b613292565b60009182526020918290206040805161018081018252600b93909302909101805483526001810154938301939093526002830154908201526003820154606082015260048201546080820152600582015460a0820152600682015460c0820152600782015460e08201526008820154610100808301919091526009830154610120830152600a9092015460ff81161580156101408401529290046001600160a01b03166101608201529150610a595760405162461bcd60e51b8152602060048201526014602482015273109a5908185b1c9958591e481c995d99585b195960621b60448201526064016107c9565b60a08101516040805160208101879052016040516020818303038152906040528051906020012014610ad95760405162461bcd60e51b815260206004820152602360248201527f496e636f7272656374206b6579202d2d206b656570696e6720796f7572206d6f6044820152626e657960e81b60648201526084016107c9565b6080810151610ae886866132be565b604051602001610afa91815260200190565b6040516020818303038152906040528051906020012014610b6e5760405162461bcd60e51b815260206004820152602860248201527f496e636f7272656374207175616e74697479202d2d206b656570696e6720796f6044820152677572206d6f6e657960c01b60648201526084016107c9565b6060810151610b7d87866132be565b604051602001610b8f91815260200190565b6040516020818303038152906040528051906020012014610c005760405162461bcd60e51b815260206004820152602560248201527f496e636f7272656374207072696365202d2d206b656570696e6720796f7572206044820152646d6f6e657960d81b60648201526084016107c9565b6000610c0c86886132d1565b90508161012001518110610c785760405162461bcd60e51b815260206004820152602d60248201527f496e73756666696369656e742066756e64732073656e74202d2d206b6565706960448201526c6e6720796f7572206d6f6e657960981b60648201526084016107c9565b60008881526001602081815260408084206003015461010090046001600160a01b031684526005909152909120805485908110610cb757610cb7613292565b60009182526020808320600b92909202909101600a01805460ff1916931515939093179092558981526001825260408082206003015461010090046001600160a01b03168252600590925220805488919085908110610d1857610d18613292565b60009182526020808320600b90920290910192909255898152600182526040808220600301546001600160a01b03610100909104168252600590925220805487919085908110610d6a57610d6a613292565b600091825260208083206001600b909302018201939093558a825282526040808220600301546001600160a01b03610100909104168252600590925220805486919085908110610dbc57610dbc613292565b90600052602060002090600b02016002018190555060018060008a81526020019081526020016000206006016000828254610df791906132be565b90915550506040517f1e03b01ba1997c24040f0a2e5145f9dc2be2d1821b811bd7def13c7f41cda87490610e34908b908b908b908b908b906132f0565b60405180910390a160019350505050610e60565b80610e5281613313565b9150506108a1565b50600090505b95945050505050565b600060015b6006548111610eb857600081815260016020526040902060030154336101009091046001600160a01b031603610ea657600191505090565b80610eb081613313565b915050610e6e565b506000905090565b6000600854851115610ee45760405162461bcd60e51b81526004016107c99061332c565b600754841115610f065760405162461bcd60e51b81526004016107c99061332c565b600084815260026020526040902060060154831015610f585760405162461bcd60e51b815260206004820152600e60248201526d21b7b9ba1034b9903434b3b432b960911b60448201526064016107c9565b610f6282846132d1565b341015610fab5760405162461bcd60e51b8152602060048201526017602482015276125b9cdd59999a58da595b9d08199d5b991cc81cd95b9d604a1b60448201526064016107c9565b6000858152600360205260409020600101546001600160a01b03163314610fe45760405162461bcd60e51b81526004016107c990613356565b600084815260026020526040812060050154611001908490612971565b905060005b818110156110fc576009805490600061101e83613313565b90915550506000878152600460208181526040808420815160a0810183526009805482528185018e81528285018e81528e89526002808852868a2060018082015460608801908152838b526003928301546080890190815289548084018b55998e529a909c2096516005909802909601968755925194860194909455519284019290925595519082015591519190920155905490517f7f5c7a32f9a2b70ae99e862ffe5aff9d18caa86acc91931c9f1b75f325cd1691916110e29189908b90613133565b60405180910390a1806110f481613313565b915050611006565b506000858152600260205260408120600501805483929061111e90849061337c565b90915550506000858152600260205260409020600701546001600160a01b03166108fc61114b86846132d1565b6040518115909202916000818181858888f1935050505061117e5760405162461bcd60e51b81526004016107c99061338f565b336108fc61118c86846132d1565b611196903461337c565b6040518115909202916000818181858888f19350505050610e605760405162461bcd60e51b81526004016107c99061338f565b600060015b6006548111611227576000818152600160205260409020600301546001600160a01b0380851661010090920416036112155760009081526001602052604090205492915050565b8061121f81613313565b9150506111ce565b50919050565b60006001841015801561124257506006548411155b61125e5760405162461bcd60e51b81526004016107c9906133bb565b6001831015801561127157506006548311155b61128d5760405162461bcd60e51b81526004016107c9906133bb565b600083815260016020819052604090912081015460ff16818111156112b4576112b46131f1565b146112ff5760405162461bcd60e51b815260206004820152601b60248201527a537570706c69657220646f65736e277420737570706c20626f647960281b60448201526064016107c9565b6000848152600160208190526040822081015460ff1690811115611325576113256131f1565b146113725760405162461bcd60e51b815260206004820152601d60248201527f537570706c69657220646f65736e277420737570706c20776865656c7300000060448201526064016107c9565b336001600160a01b0386161461139a5760405162461bcd60e51b81526004016107c9906133e6565b600780549060006113aa83613313565b90915550506040805161010081018252600780548083526020808401988952600084860181815260608601998a526080860182815260a0870183815260c088019a8b526001600160a01b039d8e1660e089019081529584526002948590529790922095518655995160018601559851908401559551600383015595516004820155905160058201559151600683015550905190820180546001600160a01b03191691909316179091555490565b600080600060075484111561146b57600080fd5b6000546001600160a01b031633148061149d57506000848152600260205260409020600701546001600160a01b031633145b6114dd5760405162461bcd60e51b815260206004820152601160248201527014195c9b5a5cdcda5bdb8819195b9a5959607a1b60448201526064016107c9565b50505060009081526002602081905260409091209081015460048201546005909201549092565b6000828152600260205260409020600601819055805b92915050565b600060015b6007548111610eb857600081815260026020526040902060070154336001600160a01b039091160361155957600191505090565b8061156381613313565b915050611525565b6000808080600181600087815260016020819052604090912081015460ff169081111561159a5761159a6131f1565b036115a3575060005b60009586526001602052604090952080546002820154600390920154909791955061010090046001600160a01b03169350915050565b60008060008060085486111561161f5760405162461bcd60e51b815260206004820152600b60248201526a24b73b30b634b21031b0b960a91b60448201526064016107c9565b6000868152600360205260409020600101546001600160a01b031633146116585760405162461bcd60e51b81526004016107c990613356565b600086815260046020526040902054851061167257600080fd5b600086815260046020526040902080548690811061169257611692613292565b9060005260206000209060050201600001546004600088815260200190815260200160002086815481106116c8576116c8613292565b9060005260206000209060050201600201546004600089815260200190815260200160002087815481106116fe576116fe613292565b906000526020600020906005020160030154600460008a8152602001908152602001600020888154811061173457611734613292565b90600052602060002090600502016004015493509350935093505b92959194509250565b600060065482111561177c5760405162461bcd60e51b81526004016107c9906133bb565b600260008381526001602052604090206003015460ff1660028111156117a4576117a46131f1565b146117ae57600080fd5b60008281526001602052604090206003015461010090046001600160a01b031633146117ec5760405162461bcd60e51b81526004016107c99061340f565b6000828152600160205260408120600301805460ff191690555b60008381526001602090815260408083206003015461010090046001600160a01b031683526005909152902054811015611c1f5760005b81811015611c0c5760008481526001602090815260408083206003015461010090046001600160a01b031683526005909152902080548290811061188357611883613292565b60009182526020808320600b90920290910154868352600182526040808420600301546001600160a01b03610100909104168452600590925291208054849081106118d0576118d0613292565b90600052602060002090600b0201600001541015611bfa5760008481526001602090815260408083206003015461010090046001600160a01b031683526005909152812080548490811061192657611926613292565b600091825260208083206040805161018081018252600b909402909101805484526001808201548585015260028201548584015260038083015460608701526004830154608087015260058084015460a0880152600684015460c0880152600784015460e08801526008840154610100808901919091526009850154610120890152600a9094015460ff811615156101408901526001600160a01b039085900481166101608901528d89529286528488209091015492909204168552909152909120805491925090839081106119fe576119fe613292565b60009182526020808320888452600182526040808520600301546001600160a01b03610100909104168552600590925292208054600b909202909201919085908110611a4c57611a4c613292565b600091825260208083208454600b90930201918255600180850154818401556002808601549084015560038086015481850155600480870154908501556005808701548186015560068088015490860155600780880154908601556008808801549086015560098088015490860155600a968701805497909501805460ff909816151560ff1989168117825595546001600160a01b036101009182900481168202610100600160a81b03199098166001600160a81b0319909a16999099179690961790558b86529183526040808620909101549390930490941683529290925220805482919084908110611b4257611b42613292565b60009182526020918290208351600b9092020190815590820151600182015560408201516002820155606082015160038201556080820151600482015560a0820151600582015560c0820151600682015560e082015160078201556101008083015160088301556101208301516009830155610140830151600a9092018054610160909401516001600160a01b0316909102610100600160a81b0319921515929092166001600160a81b031990931692909217179055505b80611c0481613313565b91505061183d565b5080611c1781613313565b915050611806565b50611c2861301e565b611c3061301e565b611c3861301e565b60005b60008681526001602090815260408083206003015461010090046001600160a01b031683526005909152902054811015611eaa5760008681526001602090815260408083206003015461010090046001600160a01b0316835260059091528120805483908110611cad57611cad613292565b600091825260208083206040805161018081018252600b94909402909101805484526001810154928401929092526002820154908301526003810154606083015260048101546080830152600581015460a0830152600681015460c0830152600781015460e08301526008810154610100808401919091526009820154610120840152600a9091015460ff8116151561014084018190529190046001600160a01b03166101608301529092509003611d655750611e98565b806101200151838260e0015160648110611d8157611d81613292565b6020020181815250506000611db0600160008a8152602001908152602001600020600201548360c00151612971565b9050611dc0818360200151612971565b90508160000151868360e0015160648110611ddd57611ddd613292565b602002015260e08201518190869060648110611dfb57611dfb613292565b60200201818152505080600160008a81526020019081526020016000206002016000828254611e2a919061337c565b909155505060008881526001602090815260408083206003015461010090046001600160a01b0316835260059091529020805482919085908110611e7057611e70613292565b90600052602060002090600b02016001016000828254611e90919061337c565b909155505050505b80611ea281613313565b915050611c3b565b5060005b60008681526001602090815260408083206003015461010090046001600160a01b0316835260059091529020548110156120c85760008681526001602090815260408083206003015461010090046001600160a01b0316835260059091528120805483908110611f2057611f20613292565b600091825260208083206040805161018081018252600b94909402909101805484526001810154928401929092526002820154908301526003810154606083015260048101546080830152600581015460a0830152600681015460c0830152600781015460e08301526008810154610100808401919091526009820154610120840152600a9091015460ff8116151561014084018190529190046001600160a01b03166101608301529092509003611fd857506120b6565b600087815260016020908152604082206002015490830151611ffa9190612971565b905080858360e001516064811061201357612013613292565b6020020181815161202491906132be565b9052506000888152600160205260408120600201805483929061204890849061337c565b909155505060008881526001602090815260408083206003015461010090046001600160a01b031683526005909152902080548291908590811061208e5761208e613292565b90600052602060002090600b020160010160008282546120ae919061337c565b909155505050505b806120c081613313565b915050611eae565b5060015b600754811161238a5760008382606481106120e9576120e9613292565b60200201511115612378577f389cc4d2b135e7b676a809ad7bacdde1b644b0bbe73afdd545a176ea73b95517868285846064811061212957612129613292565b602002015187856064811061214057612140613292565b6020020151604051612155949392919061316b565b60405180910390a16000818152600260205260409020600701546001600160a01b03166108fc84836064811061218d5761218d613292565b60200201518684606481106121a4576121a4613292565b60200201516121b391906132d1565b8484606481106121c5576121c5613292565b60200201516121d4919061337c565b6040518115909202916000818181858888f193505050506122075760405162461bcd60e51b81526004016107c99061338f565b60008681526001602052604090206003015461010090046001600160a01b03166108fc84836064811061223c5761223c613292565b602002015186846064811061225357612253613292565b602002015161226291906132d1565b6040518115909202916000818181858888f193505050506122955760405162461bcd60e51b81526004016107c99061338f565b600086815260016020819052604090912081015460ff16818111156122bc576122bc6131f1565b03612308578281606481106122d3576122d3613292565b60200201516002600083815260200190815260200160002060040160008282546122fd91906132be565b9091555061236f9050565b6000868152600160208190526040822081015460ff169081111561232e5761232e6131f1565b036101685782816064811061234557612345613292565b60200201516002600083815260200190815260200160002060020160008282546122fd91906132be565b61237881612f7f565b8061238281613313565b9150506120cc565b505b60008581526001602090815260408083206003015461010090046001600160a01b031683526005909152902054156124695760008581526001602090815260408083206003015461010090046001600160a01b03168352600590915290208054806123f9576123f9613436565b600082815260208120600b6000199093019283020181815560018101829055600281018290556003810182905560048101829055600581018290556006810182905560078101829055600881018290556009810191909155600a0180546001600160a81b0319169055905561238c565b5042949350505050565b6000336001600160a01b0383161461249d5760405162461bcd60e51b81526004016107c9906133e6565b600880549060006124ad83613313565b9091555050604080518082018252600880548083526001600160a01b039586166020808501918252600092835260039052939020915182559151600190910180546001600160a01b0319169190941617909255505490565b6001600160a01b03821660009081526005602052604081205481908190819085111561253c5750600092508291508190508061174f565b6001600160a01b038616600090815260056020526040902080548690811061256657612566613292565b90600052602060002090600b02016003015460056000886001600160a01b03166001600160a01b0316815260200190815260200160002086815481106125ae576125ae613292565b90600052602060002090600b02016004015460056000896001600160a01b03166001600160a01b0316815260200190815260200160002087815481106125f6576125f6613292565b90600052602060002090600b020160070154600560008a6001600160a01b03166001600160a01b03168152602001908152602001600020888154811061263e5761263e613292565b60009182526020909120600b90910201600a01549299919850965060ff909116945092505050565b600060018511156126ae5760405162461bcd60e51b8152602060048201526012602482015271496e76616c6964207061727420747970652160701b60448201526064016107c9565b336001600160a01b038416146126d65760405162461bcd60e51b81526004016107c9906133e6565b600680549060006126e683613313565b90915550600190508581036126f9575060005b604051806101000160405280600654815260200182600181111561271f5761271f6131f1565b81526020810187905260400160008152602001856001600160a01b031681526020018481526020016000815260200160008152506001600060065481526020019081526020016000206000820151816000015560208201518160010160006101000a81548160ff0219169083600181111561279c5761279c6131f1565b02179055506040820151816002015560608201518160030160006101000a81548160ff021916908360028111156127d5576127d56131f1565b021790555060808201516003820180546001600160a01b0390921661010002610100600160a81b031990921691909117905560a0820151600482015560c0820151600582015560e09091015160069182015554915050949350505050565b60006006548311156128575760405162461bcd60e51b81526004016107c99061326e565b60008381526001602052604090206003015461010090046001600160a01b031633146128955760405162461bcd60e51b81526004016107c990613356565b600083815260016020526040812060020180548492906128b69084906132be565b9091555050506000918252506001602052604090206002015490565b600080808080808060015b6007548111612964576000818152600260205260409020600701546001600160a01b03808b169116036129525760009081526002602081905260409091208054600182015492820154600383015460048401546005850154600690950154939c50949a50909850965091945092509050612966565b8061295c81613313565b9150506128dd565b505b919395979092949650565b6000818310156129815782612983565b815b9392505050565b60006007548611156129ae5760405162461bcd60e51b81526004016107c99061326e565b6006548511156129d05760405162461bcd60e51b81526004016107c99061326e565b6000868152600260205260409020600701546001600160a01b03163314612a095760405162461bcd60e51b81526004016107c990613356565b6000858152600160208190526040822081015460ff1690811115612a2f57612a2f6131f1565b03612a69576000868152600260205260409020600101548514612a645760405162461bcd60e51b81526004016107c99061344c565b612a99565b6000868152600260205260409020600301548514612a995760405162461bcd60e51b81526004016107c99061344c565b600085815260016020526040902060048101546005909101541115612af45760405162461bcd60e51b815260206004820152601160248201527013585e08189a591cc81c9958da595d9959607a1b60448201526064016107c9565b6000858152600160208190526040822081015460ff1681811115612b1a57612b1a6131f1565b03612b5b57600087815260026020818152604080842060038101546004909101548186526001909352932090910154612b5391906132be565b915050612b8f565b6000878152600260208181526040808420600180820154918501548287529352932090910154612b8b91906132be565b9150505b600560006001600089815260200190815260200160002060030160019054906101000a90046001600160a01b03166001600160a01b03166001600160a01b03168152602001908152602001600020604051806101800160405280600081526020016000815260200160008152602001878152602001868152602001858152602001838152602001898152602001888152602001348152602001600015158152602001336001600160a01b031681525090806001815401808255809150506001900390600052602060002090600b0201600090919091909150600082015181600001556020820151816001015560408201518160020155606082015181600301556080820151816004015560a0820151816005015560c0820151816006015560e082015181600701556101008201518160080155610120820151816009015561014082015181600a0160006101000a81548160ff02191690831515021790555061016082015181600a0160016101000a8154816001600160a01b0302191690836001600160a01b03160217905550505060018060008881526020019081526020016000206005016000828254612d4491906132be565b90915550506040517f8a06846852690683a485d2a83db8d92c70d8aaaf4693c2c3b223705fb4c9162790612d8190899089908990899089906132f0565b60405180910390a19695505050505050565b6000600654821115612db75760405162461bcd60e51b81526004016107c9906133bb565b600160008381526001602052604090206003015460ff166002811115612ddf57612ddf6131f1565b14612de957600080fd5b60008281526001602052604090206003015461010090046001600160a01b03163314612e275760405162461bcd60e51b81526004016107c99061340f565b600082815260016020908152604091829020600301805460ff19166002179055815184815242918101919091527f69544aaad545cf5ab110398ad6cac7ee4773f2f30c068350793e6cf82805d70f91015b60405180910390a15042919050565b6000600654821115612eab5760405162461bcd60e51b81526004016107c9906133bb565b60008281526001602052604081206003015460ff166002811115612ed157612ed16131f1565b14612edb57600080fd5b60008281526001602052604090206003015461010090046001600160a01b03163314612f195760405162461bcd60e51b81526004016107c99061340f565b600082815260016020818152604080842060038101805460ff191690941790935560058301849055600690920192909255805184815242928101929092527f97f3c1cfc906cded5a31e7f64d905dd3bce10ac469b77d540f9b6f7fd0267ed89101612e78565b600081815260026020819052604082206004810154910154612fa19190612971565b905080600260008481526020019081526020016000206004016000828254612fc9919061337c565b909155505060008281526002602081905260408220018054839290612fef90849061337c565b9091555050600082815260026020526040812060050180548392906130159084906132be565b90915550505050565b60405180610c8001604052806064906020820280368337509192915050565b60006020828403121561304f57600080fd5b5035919050565b600080600080600060a0868803121561306e57600080fd5b505083359560208501359550604085013594606081013594506080013592509050565b600080600080608085870312156130a757600080fd5b5050823594602084013594506040840135936060013592509050565b6001600160a01b03811681146130d857600080fd5b50565b6000602082840312156130ed57600080fd5b8135612983816130c3565b6000806000806080858703121561310e57600080fd5b8435613119816130c3565b966020860135965060408601359560600135945092505050565b9283526020830191909152604082015260600190565b6000806040838503121561315c57600080fd5b50508035926020909101359150565b93845260208401929092526040830152606082015260800190565b6000806040838503121561319957600080fd5b82356131a4816130c3565b946020939093013593505050565b600080600080608085870312156131c857600080fd5b843593506020850135925060408501356131e1816130c3565b9396929550929360600135925050565b634e487b7160e01b600052602160045260246000fd5b88815261010081016002891061321f5761321f6131f1565b8860208301528760408301526003871061323b5761323b6131f1565b60608201969096526001600160a01b0394909416608085015260a084019290925260c083015260e0909101529392505050565b6020808252600a9082015269125b9d985b1a5908125160b21b604082015260600190565b634e487b7160e01b600052603260045260246000fd5b634e487b7160e01b600052601160045260246000fd5b8082018082111561151a5761151a6132a8565b60008160001904831182151516156132eb576132eb6132a8565b500290565b948552602085019390935260408401919091526060830152608082015260a00190565b600060018201613325576133256132a8565b5060010190565b60208082526010908201526f24b73b30b634b21031bab9ba37b6b2b960811b604082015260600190565b6020808252600c908201526b125b98dbdc9c9958dd08125160a21b604082015260600190565b8181038181111561151a5761151a6132a8565b602080825260129082015271151c985b9cd858dd1a5bdb8819985a5b195960721b604082015260600190565b602080825260119082015270496e76616c696420737570706c6965722160781b604082015260600190565b6020808252600f908201526e0496e76616c6964207369676e20757608c1b604082015260600190565b6020808252600d908201526c496e636f72726563742074616760981b604082015260600190565b634e487b7160e01b600052603160045260246000fd5b60208082526012908201527124b731b7b93932b1ba1039bab8383634b2b960711b60408201526060019056fea2646970667358221220d85378b93d0849e81cbeacc723ac4e5b1cd70ad800f709a1f471085d450ba24b64736f6c63430008100033",
  "immutableReferences": {},
  "source": "// SPDX-License-Identifier: MIT\npragma solidity >=0.8.16;\npragma experimental ABIEncoderV2;\n\n/// @title New Market Place\n/// @author Kunal Jain, P. Sahithi Reddy, Prince Varshney\n/// @notice Market place implementation\ncontract NewMarketPlace {\n    /// @dev Enum for the state of the auction the supplier is in\n    /// @dev NOT_RUNNING : Auction is not running right now\n    /// @dev BIDDING : Bidding phase of auction is going on\n    /// @dev REVEALING : Reveal phase of auction is going on\n    enum AuctionState {\n        NOT_RUNNING,\n        BIDDING,\n        REVEALING\n    }\n\n    /// @dev Enum for the part type\n    enum PartType {\n        WHEEL,\n        BODY\n    }\n\n    /// @dev Stores the details of the supplier\n    struct Supplier {\n        uint256 tag;\n        PartType partType; // part type they are selling\n        uint256 quantityAvailable; // quantity of the part available\n        AuctionState currentState; // currest state of the auction\n        address wallet; // wallet address\n        uint256 maxBidders; // max bidders that can participate in the auction\n        uint256 bidsPlaced; // bids that have been placed\n        uint256 bidsRevealed; // bids that have been revealed\n    }\n\n    function isSupplier() public view returns (bool) {\n        for (uint256 i = 1; i <= num_supplier; i++) {\n            if (suppliers[i].wallet == msg.sender) return true;\n        }\n        return false;\n    }\n\n    function numSuppliers() public view returns (uint256) {\n        return num_supplier;\n    }\n\n    function getSupplierByID(uint256 id)\n        public\n        view\n        returns (\n            uint256 tag,\n            uint256 partType,\n            uint256 quantityAvailable,\n            address wallet\n        )\n    {\n        uint256 retType = 1;\n        if (suppliers[id].partType == PartType.WHEEL) retType = 0;\n        return (\n            suppliers[id].tag,\n            retType,\n            suppliers[id].quantityAvailable,\n            suppliers[id].wallet\n        );\n    }\n\n    // function getAllSuppliers() public view returns (Supplier[] memory) {\n    //     return allSuppliers;\n    // }\n\n    /// @dev Stores the details of the manufacturer\n    struct Manufacturer {\n        uint256 tag;\n        uint256 wheelSupplier; // tag of supplier who supplies wheels\n        uint256 wheelQuant; // number of wheels\n        uint256 bodySupplier; // tag of supplier who supplies body\n        uint256 bodyQuant; // number of bodies\n        uint256 carsAvailable; // number of cars available\n        uint256 carPrice; // price of the cars\n        address wallet; // wallet address\n    }\n\n    function isManufacturer() public view returns (bool) {\n        for (uint256 i = 1; i <= num_manufacturer; i++) {\n            if (manufacturers[i].wallet == msg.sender) return true;\n        }\n        return false;\n    }\n\n    /// @dev Stores the details of the cars sold\n    struct Car {\n        uint256 tag;\n        uint256 customerID;\n        uint256 manufacturerID;\n        uint256 wheelSupID;\n        uint256 bodySupID;\n    }\n\n    /// @dev Stores the detail of the customer\n    struct Customer {\n        uint256 tag;\n        address wallet;\n    }\n\n    /// @dev stores the details of the bids\n    struct Bid {\n        uint256 actualPrice;\n        uint256 actualQuantity;\n        uint256 actualKey;\n        bytes32 blindPrice;\n        bytes32 blindQuantity;\n        bytes32 blindKey;\n        uint256 limitingQuantity;\n        uint256 buyerID;\n        uint256 sellerID;\n        uint256 moneySent;\n        bool correctReveal;\n        address payable bidderAddress;\n    }\n\n    /// @dev wallet address of the contract owner\n    address payable public owner;\n\n    mapping(uint256 => Supplier) public suppliers;\n    mapping(uint256 => Manufacturer) public manufacturers;\n    mapping(uint256 => Customer) public customers;\n    mapping(uint256 => Car[]) cars;\n    mapping(address => Bid[]) bidsTillNow;\n\n    uint256 num_supplier;\n    uint256 num_manufacturer;\n    uint256 num_customer;\n    uint256 num_cars;\n\n    // Supplier[] allSuppliers;\n\n    /// @notice Triggered when a supplier starts their bidding phase\n    /// @param tag Tag of the supplier\n    /// @param timestamp Block height when bidding phase starts\n    event StartSupplierBidding(uint256 tag, uint256 timestamp);\n\n    /// @notice Triggered when a supplier starts their reveal phase\n    /// @param tag Tag of the supplier\n    /// @param timestamp Block height when reveal phase starts\n    event StartSupplierReveal(uint256 tag, uint256 timestamp);\n\n    /// @notice Triggered when a supplier suppliers parts to a manufacturer\n    /// @param supplierID Tag of the supplier\n    /// @param manufacturerID Tag of the manufacturer\n    /// @param quantity Quantities supplier\n    /// @param price Price per unit\n    event AllocateFromSupplier(\n        uint256 supplierID,\n        uint256 manufacturerID,\n        uint256 quantity,\n        uint256 price\n    );\n\n    /// @notice Triggered when a manufacturer places a bid\n    /// @param manufacturerID Tag of the manufacturer\n    /// @param supplierID Tag of the supplier\n    /// @param blindPrice Hash of (Price + Key)\n    /// @param blindQuantity Hash of (Quantity + Key)\n    /// @param blindKey Hash of Key\n    event ManufacturerBids(\n        uint256 manufacturerID,\n        uint256 supplierID,\n        bytes32 blindPrice,\n        bytes32 blindQuantity,\n        bytes32 blindKey\n    );\n\n    /// @notice Triggered when a manufacturer reveals a bid\n    /// @param manufacturerID Tag of the manufacturer\n    /// @param supplierID Tag of the supplier\n    /// @param actualPrice Price per quantity offered in the bid\n    /// @param actualQuantity Quantity requested in the bid\n    /// @param actualKey Key used to hide the bid\n    event ManufacturerReveal(\n        uint256 manufacturerID,\n        uint256 supplierID,\n        uint256 actualPrice,\n        uint256 actualQuantity,\n        uint256 actualKey\n    );\n\n    /// @notice Triggered when a car is sold by the manufacturer to a customer\n    /// @param carID Tag of the car sold\n    /// @param manufacturerID Tag of the manufacturer\n    /// @param customerID Tag of the customer\n    event CarSold(uint256 carID, uint256 manufacturerID, uint256 customerID);\n\n    constructor() {\n        num_cars = 0;\n        num_customer = 0;\n        num_manufacturer = 0;\n        num_supplier = 0;\n        owner = payable(msg.sender);\n    }\n\n    /// @dev Function to find the minumum of 2 unsigned integers\n    function minimum(uint256 a, uint256 b) public pure returns (uint256) {\n        return a >= b ? b : a;\n    }\n\n    /// @notice Function to start bidding of a supplier\n    /// @dev Triggeers StartSupplierBidding event\n    /// @param tag Tag of the supplier\n    /// @return uint256 Block height when the bidding starts\n    function supplierStartBidding(uint256 tag) public returns (uint256) {\n        require(tag <= num_supplier, \"Invalid supplier!\");\n        require(suppliers[tag].currentState == AuctionState.NOT_RUNNING);\n        require(msg.sender == suppliers[tag].wallet, \"Incorrect tag\");\n        suppliers[tag].currentState = AuctionState.BIDDING;\n        suppliers[tag].bidsPlaced = 0;\n        suppliers[tag].bidsRevealed = 0;\n        emit StartSupplierBidding(tag, block.timestamp);\n        return block.timestamp;\n    }\n\n    /// @notice Function to start reveal of a supplier\n    /// @dev Triggeers StartSupplierReveal event\n    /// @param tag Tag of the supplier\n    /// @return uint256 Block height when the reveal starts\n    function supplierStartReveal(uint256 tag) public returns (uint256) {\n        require(tag <= num_supplier, \"Invalid supplier!\");\n        require(suppliers[tag].currentState == AuctionState.BIDDING);\n        require(msg.sender == suppliers[tag].wallet, \"Incorrect tag\");\n        suppliers[tag].currentState = AuctionState.REVEALING;\n        emit StartSupplierReveal(tag, block.timestamp);\n        return block.timestamp;\n    }\n\n    /// @notice Function to end the auction of a supplier\n    /// @dev Triggers AllocateFromSupplier and back payments on bids\n    /// @param tag Tag of the supplier\n    /// @return uint256 Block height when the auction ends\n    function supplierEndAuction(uint256 tag) public returns (uint256) {\n        require(tag <= num_supplier, \"Invalid supplier!\");\n        require(suppliers[tag].currentState == AuctionState.REVEALING);\n        require(msg.sender == suppliers[tag].wallet, \"Incorrect tag\");\n        suppliers[tag].currentState = AuctionState.NOT_RUNNING;\n\n        // bubble sorting the bids\n        for (\n            uint256 i = 0;\n            i < bidsTillNow[suppliers[tag].wallet].length;\n            i++\n        ) {\n            for (uint256 j = 0; j < i; j++)\n                if (\n                    bidsTillNow[suppliers[tag].wallet][i].actualPrice <\n                    bidsTillNow[suppliers[tag].wallet][j].actualPrice\n                ) {\n                    Bid memory x = bidsTillNow[suppliers[tag].wallet][i];\n                    bidsTillNow[suppliers[tag].wallet][i] = bidsTillNow[\n                        suppliers[tag].wallet\n                    ][j];\n                    bidsTillNow[suppliers[tag].wallet][j] = x;\n                }\n        }\n\n        // the allocations\n        uint256[100] memory allocatingPrices;\n        uint256[100] memory allocatingQuantities;\n        uint256[100] memory moneySentWithBid;\n\n        // optimal resource allocation\n        for (\n            uint256 i = 0;\n            i < bidsTillNow[suppliers[tag].wallet].length;\n            i++\n        ) {\n            Bid memory bid = bidsTillNow[suppliers[tag].wallet][i];\n            if (bid.correctReveal == false) continue;\n\n            moneySentWithBid[bid.buyerID] = bid.moneySent;\n\n            uint256 allocatingHere = minimum(\n                suppliers[tag].quantityAvailable,\n                bid.limitingQuantity\n            );\n            allocatingHere = minimum(allocatingHere, bid.actualQuantity);\n\n            allocatingPrices[bid.buyerID] = bid.actualPrice;\n            allocatingQuantities[bid.buyerID] = allocatingHere;\n            suppliers[tag].quantityAvailable -= allocatingHere;\n            bidsTillNow[suppliers[tag].wallet][i]\n                .actualQuantity -= allocatingHere;\n        }\n\n        // allocating to maximize profit\n        for (\n            uint256 i = 0;\n            i < bidsTillNow[suppliers[tag].wallet].length;\n            i++\n        ) {\n            Bid memory bid = bidsTillNow[suppliers[tag].wallet][i];\n            if (bid.correctReveal == false) continue;\n            uint256 allocatingHere = minimum(\n                suppliers[tag].quantityAvailable,\n                bid.actualQuantity\n            );\n\n            allocatingQuantities[bid.buyerID] += allocatingHere;\n            suppliers[tag].quantityAvailable -= allocatingHere;\n            bidsTillNow[suppliers[tag].wallet][i]\n                .actualQuantity -= allocatingHere;\n        }\n\n        // emit all allocations\n        for (uint256 i = 1; i <= num_manufacturer; i++)\n            if (allocatingQuantities[i] > 0) {\n                emit AllocateFromSupplier(\n                    tag,\n                    i,\n                    allocatingQuantities[i],\n                    allocatingPrices[i]\n                );\n                // non bid money to manufacturer\n                require(\n                    payable(manufacturers[i].wallet).send(\n                        moneySentWithBid[i] -\n                            allocatingPrices[i] *\n                            allocatingQuantities[i]\n                    ),\n                    \"Transaction failed\"\n                );\n                // bid money to supplier\n                require(\n                    payable(suppliers[tag].wallet).send(\n                        allocatingPrices[i] * allocatingQuantities[i]\n                    ),\n                    \"Transaction failed\"\n                );\n                //update all the manufacturers quanitites to make cars\n                if (suppliers[tag].partType == PartType.BODY) {\n                    manufacturers[i].bodyQuant += allocatingQuantities[i];\n                } else if (suppliers[tag].partType == PartType.WHEEL) {\n                    manufacturers[i].wheelQuant += allocatingQuantities[i];\n                } else revert();\n                updateManufacturerCars(i);\n            }\n        while (bidsTillNow[suppliers[tag].wallet].length > 0)\n            bidsTillNow[suppliers[tag].wallet].pop();\n\n        return block.timestamp;\n    }\n\n    /// @dev Updates the cars of a manufacturer based on the quantities of parts it has\n    function updateManufacturerCars(uint256 tag) private {\n        uint256 carsMade = minimum(\n            manufacturers[tag].bodyQuant,\n            manufacturers[tag].wheelQuant\n        );\n        manufacturers[tag].bodyQuant -= carsMade;\n        manufacturers[tag].wheelQuant -= carsMade;\n        manufacturers[tag].carsAvailable += carsMade;\n    }\n\n    /// @notice Function for manufacturers to place bids\n    /// @dev Triggers ManufacturerBids event\n    /// @param manufacturerID Tag of the manufacturer\n    /// @param supplierID Tag of the supplier\n    /// @param blindPrice Price per unit hidden using the key and SHA256 encryption\n    /// @param blindQuantity Quantities requested hidden using the key and SHA256 encryption\n    /// @param blindKey Key used to hide the price and quantity\n    /// @return limitingQuantity Liming quantity of the manufacturer for optimal resource allocation\n    function manufacturerPlacesBid(\n        uint256 manufacturerID,\n        uint256 supplierID,\n        bytes32 blindPrice,\n        bytes32 blindQuantity,\n        bytes32 blindKey\n    ) public payable returns (uint256 limitingQuantity) {\n        require(manufacturerID <= num_manufacturer, \"Invalid ID\");\n        require(supplierID <= num_supplier, \"Invalid ID\");\n        require(\n            msg.sender == manufacturers[manufacturerID].wallet,\n            \"Incorrect ID\"\n        );\n        if (suppliers[supplierID].partType == PartType.WHEEL) {\n            require(\n                manufacturers[manufacturerID].wheelSupplier == supplierID,\n                \"Incorrect supplier\"\n            );\n        } else {\n            require(\n                manufacturers[manufacturerID].bodySupplier == supplierID,\n                \"Incorrect supplier\"\n            );\n        }\n        require(\n            suppliers[supplierID].bidsPlaced <=\n                suppliers[supplierID].maxBidders,\n            \"Max bids recieved\"\n        );\n        uint256 limiting;\n        if (suppliers[supplierID].partType == PartType.BODY) {\n            uint256 bodySupplier = manufacturers[manufacturerID].bodySupplier;\n            limiting =\n                suppliers[bodySupplier].quantityAvailable +\n                manufacturers[manufacturerID].bodyQuant;\n        } else {\n            uint256 wheelSupplier = manufacturers[manufacturerID].wheelSupplier;\n            limiting =\n                suppliers[wheelSupplier].quantityAvailable +\n                manufacturers[manufacturerID].wheelQuant;\n        }\n        bidsTillNow[suppliers[supplierID].wallet].push(\n            Bid(\n                0,\n                0,\n                0,\n                blindPrice,\n                blindQuantity,\n                blindKey,\n                limiting,\n                manufacturerID,\n                supplierID,\n                msg.value,\n                false,\n                payable(msg.sender)\n            )\n        );\n        suppliers[supplierID].bidsPlaced += 1;\n        emit ManufacturerBids(\n            manufacturerID,\n            supplierID,\n            blindPrice,\n            blindQuantity,\n            blindKey\n        );\n        return limiting;\n    }\n\n    /// @notice Function for manufacturers to reveal bids\n    /// @dev Triggers ManufacturerReveal event\n    /// @param manufacturerID Tag of the manufacturer\n    /// @param supplierID Tag of the supplier\n    /// @param actualPrice Price per unit\n    /// @param actualQuantity Quantities requested\n    /// @param actualKey Key used to hide the price and quantity\n    /// @return bool Reveal was valid or not\n    function manufacturerRevealsBid(\n        uint256 manufacturerID,\n        uint256 supplierID,\n        uint256 actualPrice,\n        uint256 actualQuantity,\n        uint256 actualKey\n    ) public \n    \n    returns (bool) {\n        require(manufacturerID <= num_manufacturer, \"Invalid ID\");\n        require(supplierID <= num_supplier, \"Invalid ID\");\n        require(\n            suppliers[supplierID].currentState == AuctionState.REVEALING,\n            \"Reveal phase not going on\"\n        );\n        require(\n            manufacturers[manufacturerID].wallet == msg.sender,\n            \"Invalid ID\"\n        );\n        for (\n            uint256 i = 0;\n            i < bidsTillNow[suppliers[supplierID].wallet].length;\n            i++\n        ) {\n            if (\n                bidsTillNow[suppliers[supplierID].wallet][i].buyerID !=\n                manufacturerID\n            ) continue;\n            Bid memory bid = bidsTillNow[suppliers[supplierID].wallet][i];\n            require(bid.correctReveal == false, \"Bid already revealed\");\n            require(\n                keccak256(abi.encodePacked(actualKey)) == bid.blindKey,\n                \"Incorrect key -- keeping your money\"\n            );\n            require(\n                keccak256(abi.encodePacked(actualKey + actualQuantity)) ==\n                    bid.blindQuantity,\n                \"Incorrect quantity -- keeping your money\"\n            );\n            require(\n                keccak256(abi.encodePacked(actualKey + actualPrice)) ==\n                    bid.blindPrice,\n                \"Incorrect price -- keeping your money\"\n            );\n            uint256 effectivePrice = actualPrice * actualQuantity;\n            require(\n                effectivePrice < bid.moneySent,\n                \"Insufficient funds sent -- keeping your money\"\n            );\n            bidsTillNow[suppliers[supplierID].wallet][i].correctReveal = true;\n            bidsTillNow[suppliers[supplierID].wallet][i]\n                .actualPrice = actualPrice;\n            bidsTillNow[suppliers[supplierID].wallet][i]\n                .actualQuantity = actualQuantity;\n            bidsTillNow[suppliers[supplierID].wallet][i].actualKey = actualKey;\n            suppliers[supplierID].bidsRevealed += 1;\n            emit ManufacturerReveal(\n                manufacturerID,\n                supplierID,\n                actualPrice,\n                actualQuantity,\n                actualKey\n            );\n            return true;\n        }\n        return false;\n    }\n\n    /// @notice Function for customers to buy cars\n    /// @dev Triggers CarSold event\n    /// @param customerID Tag of the customer\n    /// @param manufacturerID Tag of the manufacturer\n    /// @param priceOfferedPerCar Price per unit\n    /// @param quantityRequested Quantities requested\n    /// @return uint256 Quantity supplied\n    function customerBuysCar(\n        uint256 customerID,\n        uint256 manufacturerID,\n        uint256 priceOfferedPerCar,\n        uint256 quantityRequested\n    ) public payable returns (uint256) {\n        require(customerID <= num_customer, \"Invalid customer\");\n        require(manufacturerID <= num_manufacturer, \"Invalid customer\");\n        require(\n            priceOfferedPerCar >= manufacturers[manufacturerID].carPrice,\n            \"Cost is higher\"\n        );\n        require(\n            msg.value >= priceOfferedPerCar * quantityRequested,\n            \"Insufficient funds sent\"\n        );\n        require(\n            msg.sender == payable(customers[customerID].wallet),\n            \"Incorrect ID\"\n        );\n        uint256 selling = minimum(\n            quantityRequested,\n            manufacturers[manufacturerID].carsAvailable\n        );\n        for (uint256 i = 0; i < selling; i++) {\n            num_cars++;\n            cars[customerID].push(Car(\n                num_cars,\n                customerID,\n                manufacturerID,\n                manufacturers[manufacturerID].wheelSupplier,\n                manufacturers[manufacturerID].bodySupplier\n            ));\n            emit CarSold(num_cars, manufacturerID, customerID);\n        }\n        manufacturers[manufacturerID].carsAvailable -= selling;\n        require(\n            payable(manufacturers[manufacturerID].wallet).send(\n                selling * priceOfferedPerCar\n            ),\n            \"Transaction failed\"\n        );\n        require(\n            payable(msg.sender).send(msg.value - selling * priceOfferedPerCar),\n            \"Transaction failed\"\n        );\n        return selling;\n    }\n\n    /// @notice Verify details of your car\n    /// @param customerID Tag of the customer\n    /// @param idx Tag of the car\n    /// @return id Tag of the car\n    /// @return manufacturerID Tag of the manufacturer who sold the car\n    /// @return wheelSupplier Tag of wheel supplier\n    /// @return bodySupplier Tag of body supplier\n    function verifyCar(uint256 customerID, uint256 idx)\n        public\n        view\n        returns (\n            uint256 id,\n            uint256 manufacturerID,\n            uint256 wheelSupplier,\n            uint256 bodySupplier\n        )\n    {\n        require(customerID <= num_customer, \"Invalid car\");\n        require(customers[customerID].wallet == msg.sender, \"Incorrect ID\");\n        // require(carID <= num_cars, \"Invalid car\");\n        require(cars[customerID].length > idx);\n        return (cars[customerID][idx].tag, cars[customerID][idx].manufacturerID, cars[customerID][idx].wheelSupID, cars[customerID][idx].bodySupID);\n//        require(cars[carID].customerID == customerID, \"Not your car!\");\n        // for(uint256 i = 0; i < cars[customerID].length; i++)\n        // {\n        //     if(cars[customerID][i].tag == carID) {\n        //         return (\n        //             carID,\n        //             cars[customerID][i].manufacturerID,\n        //             cars[customerID][i].wheelSupID,\n        //             cars[customerID][i].bodySupID\n        //         );\n        //     }\n        // }\n        // return (0,0,0,0);\n    }\n\n    /// @notice Add a supplier to the supply chain\n    /// @param partType Type of the part supplier is going to provide. 0 for body and 1 for wheels\n    /// @param quantityAvailable Quantity available with the supplier\n    /// @param addr Wallet address of the supplier\n    /// @param auctionBidders Number of people that can bid in it's auction\n    /// @return tag of the supplier added\n    function addSupplier(\n        uint256 partType,\n        uint256 quantityAvailable,\n        address payable addr,\n        uint256 auctionBidders\n    ) public payable returns (uint256 tag) {\n        require(partType <= 1, \"Invalid part type!\");\n        require(msg.sender == addr, \"Invalid sign up\");\n        num_supplier++;\n        PartType here = PartType.BODY;\n        if (partType == 1) here = PartType.WHEEL;\n        suppliers[num_supplier] = Supplier(\n            num_supplier,\n            here,\n            quantityAvailable,\n            AuctionState.NOT_RUNNING,\n            addr,\n            auctionBidders,\n            0,\n            0\n        );\n        // allSuppliers.push(\n        //     Supplier(\n        //         num_supplier,\n        //         here,\n        //         quantityAvailable,\n        //         AuctionState.NOT_RUNNING,\n        //         addr,\n        //         auctionBidders,\n        //         0,\n        //         0\n        //     )\n        // );\n        return num_supplier;\n    }\n\n    /// @notice Update the quantity available with a supplier\n    /// @param tag Tag of the supplier\n    /// @param newQuantity New quantity to add\n    /// @return totalQuantity total quantity with the supplier\n    function updateSupplierQuantity(uint256 tag, uint256 newQuantity)\n        public\n        returns (uint256 totalQuantity)\n    {\n        require(tag <= num_supplier, \"Invalid ID\");\n        require(suppliers[tag].wallet == msg.sender, \"Incorrect ID\");\n        suppliers[tag].quantityAvailable += newQuantity;\n        return suppliers[tag].quantityAvailable;\n    }\n\n    /// @notice Add a supplier to the supply chain\n    /// @param addr Wallet address of the supplier\n    /// @param wheelSupplier Tag of supplier to buy wheels from\n    /// @param bodySupplier Tag of supplier to buy body from\n    /// @param askingPrice Minimum asking price for the cars\n    /// @return tag of the manufacturer added\n    function addManufacturer(\n        address payable addr,\n        uint256 wheelSupplier,\n        uint256 bodySupplier,\n        uint256 askingPrice\n    ) public returns (uint256 tag) {\n        require(\n            wheelSupplier >= 1 && wheelSupplier <= num_supplier,\n            \"Invalid supplier!\"\n        );\n        require(\n            bodySupplier >= 1 && bodySupplier <= num_supplier,\n            \"Invalid supplier!\"\n        );\n        require(\n            suppliers[bodySupplier].partType == PartType.BODY,\n            \"Supplier doesn't suppl body\"\n        );\n        require(\n            suppliers[wheelSupplier].partType == PartType.WHEEL,\n            \"Supplier doesn't suppl wheels\"\n        );\n        require(msg.sender == addr, \"Invalid sign up\");\n        num_manufacturer++;\n        manufacturers[num_manufacturer] = Manufacturer(\n            num_manufacturer,\n            wheelSupplier,\n            0,\n            bodySupplier,\n            0,\n            0,\n            askingPrice,\n            addr\n        );\n        return num_manufacturer;\n    }\n\n    /// @notice Add a supplier to the supply chain\n    /// @param addr Wallet address of the supplier\n    /// @return tag of the customer added\n    function addCustomer(address payable addr) public returns (uint256 tag) {\n        require(msg.sender == addr, \"Invalid sign up\");\n        num_customer++;\n        customers[num_customer] = Customer(num_customer, addr);\n        return num_customer;\n    }\n\n    // /// @notice Get the number of customers\n    // /// @return uint256 Number of customers\n    // function getCustomers() public view returns (uint256) {\n    //     return num_customer;\n    // }\n\n    // /// @notice Get the number of cars\n    // /// @return uint256 Number of cars\n    // function getCars() public view returns (uint256) {\n    //     return num_cars;\n    // }\n\n    // // @notice Get the number of suppliers\n    // // @return uint256 Number of suppliers\n    // function getSuppliers() public view returns (uint256) {\n    //     return num_supplier;\n    // }\n\n    // // @notice Get the number of cars\n    // // @return uint256 Number of cars\n    // function getCars() public view returns (uint256) {\n    //     return num_cars;\n    // }\n\n    /// @notice Get quantity of each part and car with a manufacturer\n    /// @return quantityWheel Number of wheels\n    /// @return quantityBody Number of bodies\n    /// @return quantityCar Number of prepared cars\n    function getManufacturerQuantities(uint256 tag)\n        public\n        view\n        returns (\n            uint256 quantityWheel,\n            uint256 quantityBody,\n            uint256 quantityCar\n        )\n    {\n        require(tag <= num_manufacturer);\n        require(\n            (msg.sender == owner || msg.sender == manufacturers[tag].wallet),\n            \"Permission denied\"\n        );\n        return (\n            manufacturers[tag].wheelQuant,\n            manufacturers[tag].bodyQuant,\n            manufacturers[tag].carsAvailable\n        );\n    }\n\n    function getSupplierID(address supplier_addr)\n        public\n        view\n        returns (uint256 tag)\n    {\n        for (uint256 i = 1; i <= num_supplier; i++) {\n            if (suppliers[i].wallet == supplier_addr) {\n                return suppliers[i].tag;\n            }\n        }\n    }\n\n    function getManufacturerID(address manufacturer_addr)\n        public\n        view\n        returns (\n            uint256 tag,\n            uint256 wheelSupplier,\n            uint256 wheelQuant,\n            uint256 bodySupplier,\n            uint256 bodyQuant,\n            uint256 carsAvailable,\n            uint256 carPrice\n        )\n    {\n        for (uint256 i = 1; i <= num_manufacturer; i++) {\n            if (manufacturers[i].wallet == manufacturer_addr) {\n                return (\n                    manufacturers[i].tag,\n                    manufacturers[i].wheelSupplier,\n                    manufacturers[i].wheelQuant,\n                    manufacturers[i].bodySupplier,\n                    manufacturers[i].bodyQuant,\n                    manufacturers[i].carsAvailable,\n                    manufacturers[i].carPrice\n                );\n            }\n        }\n    }\n\n    function getAuctionState(uint256 tag) public view returns (uint256 state) {\n        require(tag <= num_supplier);\n        if (suppliers[tag].currentState == AuctionState.NOT_RUNNING) {\n            return 1;\n        } else if (suppliers[tag].currentState == AuctionState.BIDDING) {\n            return 2;\n        } else if (suppliers[tag].currentState == AuctionState.REVEALING) {\n            return 3;\n        }\n    }\n\n    function getNumberOfBids(address wallet) public view returns (uint256) {\n        return bidsTillNow[wallet].length;\n    }\n\n    function getSupplierBids(address wallet, uint256 idx)\n        public\n        view\n        returns (\n            bytes32 blindPrice,\n            bytes32 blindQuantity,\n            uint256 buyerID,\n            bool correctReveal\n        )\n    {\n        if (bidsTillNow[wallet].length < idx)\n            return (bytes32(0), bytes32(0), uint256(0), false);\n        return (\n            bidsTillNow[wallet][idx].blindPrice,\n            bidsTillNow[wallet][idx].blindQuantity,\n            bidsTillNow[wallet][idx].buyerID,\n            bidsTillNow[wallet][idx].correctReveal\n        );\n    }\n    function getSuppliers() public view returns (uint256) {\n        return num_supplier;\n    }\n    function getManufacturers() public view returns (uint256) {\n        return num_manufacturer;\n    }\n    function getCustomers() public view returns (uint256) {\n        return num_customer;\n    }\n    function setCarsprice(uint256 manufacturerID, uint256 price) public returns (uint256)\n    {\n        manufacturers[manufacturerID].carPrice=price;\n        return price;\n    }\n\n    function numberOfCarsBought(uint256 customerID) public view returns (uint256)\n    {\n        return cars[customerID].length;\n    }\n\n}\n   ",
  "sourcePath": "/home/sahithi/acads/sem7/dtb/Supply-Chain-Smartcontract/contracts/MarketPlace2.sol",
  "compiler": {
    "name": "solc",
    "version": "0.8.16+commit.07a7930e.Emscripten.clang"
  },
  "schemaVersion": "3.4.8",
  "updatedAt": "2022-09-16T12:52:59.217Z",
  "networkType": "ethereum",
  "devdoc": {
    "author": "Kunal Jain, P. Sahithi Reddy, Prince Varshney",
    "events": {
      "AllocateFromSupplier(uint256,uint256,uint256,uint256)": {
        "params": {
          "manufacturerID": "Tag of the manufacturer",
          "price": "Price per unit",
          "quantity": "Quantities supplier",
          "supplierID": "Tag of the supplier"
        }
      },
      "CarSold(uint256,uint256,uint256)": {
        "params": {
          "carID": "Tag of the car sold",
          "customerID": "Tag of the customer",
          "manufacturerID": "Tag of the manufacturer"
        }
      },
      "ManufacturerBids(uint256,uint256,bytes32,bytes32,bytes32)": {
        "params": {
          "blindKey": "Hash of Key",
          "blindPrice": "Hash of (Price + Key)",
          "blindQuantity": "Hash of (Quantity + Key)",
          "manufacturerID": "Tag of the manufacturer",
          "supplierID": "Tag of the supplier"
        }
      },
      "ManufacturerReveal(uint256,uint256,uint256,uint256,uint256)": {
        "params": {
          "actualKey": "Key used to hide the bid",
          "actualPrice": "Price per quantity offered in the bid",
          "actualQuantity": "Quantity requested in the bid",
          "manufacturerID": "Tag of the manufacturer",
          "supplierID": "Tag of the supplier"
        }
      },
      "StartSupplierBidding(uint256,uint256)": {
        "params": {
          "tag": "Tag of the supplier",
          "timestamp": "Block height when bidding phase starts"
        }
      },
      "StartSupplierReveal(uint256,uint256)": {
        "params": {
          "tag": "Tag of the supplier",
          "timestamp": "Block height when reveal phase starts"
        }
      }
    },
    "kind": "dev",
    "methods": {
      "addCustomer(address)": {
        "params": {
          "addr": "Wallet address of the supplier"
        },
        "returns": {
          "tag": "of the customer added"
        }
      },
      "addManufacturer(address,uint256,uint256,uint256)": {
        "params": {
          "addr": "Wallet address of the supplier",
          "askingPrice": "Minimum asking price for the cars",
          "bodySupplier": "Tag of supplier to buy body from",
          "wheelSupplier": "Tag of supplier to buy wheels from"
        },
        "returns": {
          "tag": "of the manufacturer added"
        }
      },
      "addSupplier(uint256,uint256,address,uint256)": {
        "params": {
          "addr": "Wallet address of the supplier",
          "auctionBidders": "Number of people that can bid in it's auction",
          "partType": "Type of the part supplier is going to provide. 0 for body and 1 for wheels",
          "quantityAvailable": "Quantity available with the supplier"
        },
        "returns": {
          "tag": "of the supplier added"
        }
      },
      "customerBuysCar(uint256,uint256,uint256,uint256)": {
        "details": "Triggers CarSold event",
        "params": {
          "customerID": "Tag of the customer",
          "manufacturerID": "Tag of the manufacturer",
          "priceOfferedPerCar": "Price per unit",
          "quantityRequested": "Quantities requested"
        },
        "returns": {
          "_0": "uint256 Quantity supplied"
        }
      },
      "getManufacturerQuantities(uint256)": {
        "returns": {
          "quantityBody": "Number of bodies",
          "quantityCar": "Number of prepared cars",
          "quantityWheel": "Number of wheels"
        }
      },
      "manufacturerPlacesBid(uint256,uint256,bytes32,bytes32,bytes32)": {
        "details": "Triggers ManufacturerBids event",
        "params": {
          "blindKey": "Key used to hide the price and quantity",
          "blindPrice": "Price per unit hidden using the key and SHA256 encryption",
          "blindQuantity": "Quantities requested hidden using the key and SHA256 encryption",
          "manufacturerID": "Tag of the manufacturer",
          "supplierID": "Tag of the supplier"
        },
        "returns": {
          "limitingQuantity": "Liming quantity of the manufacturer for optimal resource allocation"
        }
      },
      "manufacturerRevealsBid(uint256,uint256,uint256,uint256,uint256)": {
        "details": "Triggers ManufacturerReveal event",
        "params": {
          "actualKey": "Key used to hide the price and quantity",
          "actualPrice": "Price per unit",
          "actualQuantity": "Quantities requested",
          "manufacturerID": "Tag of the manufacturer",
          "supplierID": "Tag of the supplier"
        },
        "returns": {
          "_0": "bool Reveal was valid or not"
        }
      },
      "minimum(uint256,uint256)": {
        "details": "Function to find the minumum of 2 unsigned integers"
      },
      "supplierEndAuction(uint256)": {
        "details": "Triggers AllocateFromSupplier and back payments on bids",
        "params": {
          "tag": "Tag of the supplier"
        },
        "returns": {
          "_0": "uint256 Block height when the auction ends"
        }
      },
      "supplierStartBidding(uint256)": {
        "details": "Triggeers StartSupplierBidding event",
        "params": {
          "tag": "Tag of the supplier"
        },
        "returns": {
          "_0": "uint256 Block height when the bidding starts"
        }
      },
      "supplierStartReveal(uint256)": {
        "details": "Triggeers StartSupplierReveal event",
        "params": {
          "tag": "Tag of the supplier"
        },
        "returns": {
          "_0": "uint256 Block height when the reveal starts"
        }
      },
      "updateSupplierQuantity(uint256,uint256)": {
        "params": {
          "newQuantity": "New quantity to add",
          "tag": "Tag of the supplier"
        },
        "returns": {
          "totalQuantity": "total quantity with the supplier"
        }
      },
      "verifyCar(uint256,uint256)": {
        "params": {
          "customerID": "Tag of the customer",
          "idx": "Tag of the car"
        },
        "returns": {
          "bodySupplier": "Tag of body supplier",
          "id": "Tag of the car",
          "manufacturerID": "Tag of the manufacturer who sold the car",
          "wheelSupplier": "Tag of wheel supplier"
        }
      }
    },
    "stateVariables": {
      "owner": {
        "details": "wallet address of the contract owner"
      }
    },
    "title": "New Market Place",
    "version": 1
  },
  "userdoc": {
    "events": {
      "AllocateFromSupplier(uint256,uint256,uint256,uint256)": {
        "notice": "Triggered when a supplier suppliers parts to a manufacturer"
      },
      "CarSold(uint256,uint256,uint256)": {
        "notice": "Triggered when a car is sold by the manufacturer to a customer"
      },
      "ManufacturerBids(uint256,uint256,bytes32,bytes32,bytes32)": {
        "notice": "Triggered when a manufacturer places a bid"
      },
      "ManufacturerReveal(uint256,uint256,uint256,uint256,uint256)": {
        "notice": "Triggered when a manufacturer reveals a bid"
      },
      "StartSupplierBidding(uint256,uint256)": {
        "notice": "Triggered when a supplier starts their bidding phase"
      },
      "StartSupplierReveal(uint256,uint256)": {
        "notice": "Triggered when a supplier starts their reveal phase"
      }
    },
    "kind": "user",
    "methods": {
      "addCustomer(address)": {
        "notice": "Add a supplier to the supply chain"
      },
      "addManufacturer(address,uint256,uint256,uint256)": {
        "notice": "Add a supplier to the supply chain"
      },
      "addSupplier(uint256,uint256,address,uint256)": {
        "notice": "Add a supplier to the supply chain"
      },
      "customerBuysCar(uint256,uint256,uint256,uint256)": {
        "notice": "Function for customers to buy cars"
      },
      "getManufacturerQuantities(uint256)": {
        "notice": "Get quantity of each part and car with a manufacturer"
      },
      "manufacturerPlacesBid(uint256,uint256,bytes32,bytes32,bytes32)": {
        "notice": "Function for manufacturers to place bids"
      },
      "manufacturerRevealsBid(uint256,uint256,uint256,uint256,uint256)": {
        "notice": "Function for manufacturers to reveal bids"
      },
      "supplierEndAuction(uint256)": {
        "notice": "Function to end the auction of a supplier"
      },
      "supplierStartBidding(uint256)": {
        "notice": "Function to start bidding of a supplier"
      },
      "supplierStartReveal(uint256)": {
        "notice": "Function to start reveal of a supplier"
      },
      "updateSupplierQuantity(uint256,uint256)": {
        "notice": "Update the quantity available with a supplier"
      },
      "verifyCar(uint256,uint256)": {
        "notice": "Verify details of your car"
      }
    },
    "notice": "Market place implementation",
    "version": 1
  }
}