{
  "contractName": "NewMarketPlace",
  "abi": [
    {
      "inputs": [],
      "stateMutability": "nonpayable",
      "type": "constructor"
    },
    {
      "anonymous": false,
      "inputs": [
        {
          "indexed": false,
          "internalType": "uint256",
          "name": "supplierID",
          "type": "uint256"
        },
        {
          "indexed": false,
          "internalType": "uint256",
          "name": "manufacturerID",
          "type": "uint256"
        },
        {
          "indexed": false,
          "internalType": "uint256",
          "name": "quantity",
          "type": "uint256"
        },
        {
          "indexed": false,
          "internalType": "uint256",
          "name": "price",
          "type": "uint256"
        }
      ],
      "name": "AllocateFromSupplier",
      "type": "event"
    },
    {
      "anonymous": false,
      "inputs": [
        {
          "indexed": false,
          "internalType": "uint256",
          "name": "carID",
          "type": "uint256"
        },
        {
          "indexed": false,
          "internalType": "uint256",
          "name": "manufacturerID",
          "type": "uint256"
        },
        {
          "indexed": false,
          "internalType": "uint256",
          "name": "customerID",
          "type": "uint256"
        }
      ],
      "name": "CarSold",
      "type": "event"
    },
    {
      "anonymous": false,
      "inputs": [
        {
          "indexed": false,
          "internalType": "uint256",
          "name": "manufacturerID",
          "type": "uint256"
        },
        {
          "indexed": false,
          "internalType": "uint256",
          "name": "supplierID",
          "type": "uint256"
        },
        {
          "indexed": false,
          "internalType": "bytes32",
          "name": "blindPrice",
          "type": "bytes32"
        },
        {
          "indexed": false,
          "internalType": "bytes32",
          "name": "blindQuantity",
          "type": "bytes32"
        },
        {
          "indexed": false,
          "internalType": "bytes32",
          "name": "blindKey",
          "type": "bytes32"
        }
      ],
      "name": "ManufacturerBids",
      "type": "event"
    },
    {
      "anonymous": false,
      "inputs": [
        {
          "indexed": false,
          "internalType": "uint256",
          "name": "manufacturerID",
          "type": "uint256"
        },
        {
          "indexed": false,
          "internalType": "uint256",
          "name": "supplierID",
          "type": "uint256"
        },
        {
          "indexed": false,
          "internalType": "uint256",
          "name": "actualPrice",
          "type": "uint256"
        },
        {
          "indexed": false,
          "internalType": "uint256",
          "name": "actualQuantity",
          "type": "uint256"
        },
        {
          "indexed": false,
          "internalType": "uint256",
          "name": "actualKey",
          "type": "uint256"
        }
      ],
      "name": "ManufacturerReveal",
      "type": "event"
    },
    {
      "anonymous": false,
      "inputs": [
        {
          "indexed": false,
          "internalType": "uint256",
          "name": "tag",
          "type": "uint256"
        },
        {
          "indexed": false,
          "internalType": "uint256",
          "name": "timestamp",
          "type": "uint256"
        }
      ],
      "name": "StartSupplierBidding",
      "type": "event"
    },
    {
      "anonymous": false,
      "inputs": [
        {
          "indexed": false,
          "internalType": "uint256",
          "name": "tag",
          "type": "uint256"
        },
        {
          "indexed": false,
          "internalType": "uint256",
          "name": "timestamp",
          "type": "uint256"
        }
      ],
      "name": "StartSupplierReveal",
      "type": "event"
    },
    {
      "inputs": [
        {
          "internalType": "uint256",
          "name": "",
          "type": "uint256"
        }
      ],
      "name": "customers",
      "outputs": [
        {
          "internalType": "uint256",
          "name": "tag",
          "type": "uint256"
        },
        {
          "internalType": "address",
          "name": "wallet",
          "type": "address"
        }
      ],
      "stateMutability": "view",
      "type": "function",
      "constant": true
    },
    {
      "inputs": [
        {
          "internalType": "uint256",
          "name": "",
          "type": "uint256"
        }
      ],
      "name": "manufacturers",
      "outputs": [
        {
          "internalType": "uint256",
          "name": "tag",
          "type": "uint256"
        },
        {
          "internalType": "uint256",
          "name": "wheelSupplier",
          "type": "uint256"
        },
        {
          "internalType": "uint256",
          "name": "wheelQuant",
          "type": "uint256"
        },
        {
          "internalType": "uint256",
          "name": "bodySupplier",
          "type": "uint256"
        },
        {
          "internalType": "uint256",
          "name": "bodyQuant",
          "type": "uint256"
        },
        {
          "internalType": "uint256",
          "name": "carsAvailable",
          "type": "uint256"
        },
        {
          "internalType": "uint256",
          "name": "carPrice",
          "type": "uint256"
        },
        {
          "internalType": "address",
          "name": "wallet",
          "type": "address"
        }
      ],
      "stateMutability": "view",
      "type": "function",
      "constant": true
    },
    {
      "inputs": [],
      "name": "owner",
      "outputs": [
        {
          "internalType": "address payable",
          "name": "",
          "type": "address"
        }
      ],
      "stateMutability": "view",
      "type": "function",
      "constant": true
    },
    {
      "inputs": [
        {
          "internalType": "uint256",
          "name": "",
          "type": "uint256"
        }
      ],
      "name": "suppliers",
      "outputs": [
        {
          "internalType": "uint256",
          "name": "tag",
          "type": "uint256"
        },
        {
          "internalType": "enum NewMarketPlace.PartType",
          "name": "partType",
          "type": "uint8"
        },
        {
          "internalType": "uint256",
          "name": "quantityAvailable",
          "type": "uint256"
        },
        {
          "internalType": "enum NewMarketPlace.AuctionState",
          "name": "currentState",
          "type": "uint8"
        },
        {
          "internalType": "address",
          "name": "wallet",
          "type": "address"
        },
        {
          "internalType": "uint256",
          "name": "maxBidders",
          "type": "uint256"
        },
        {
          "internalType": "uint256",
          "name": "bidsPlaced",
          "type": "uint256"
        },
        {
          "internalType": "uint256",
          "name": "bidsRevealed",
          "type": "uint256"
        }
      ],
      "stateMutability": "view",
      "type": "function",
      "constant": true
    },
    {
      "inputs": [],
      "name": "isSupplier",
      "outputs": [
        {
          "internalType": "bool",
          "name": "",
          "type": "bool"
        }
      ],
      "stateMutability": "view",
      "type": "function",
      "constant": true
    },
    {
      "inputs": [],
      "name": "getAllSuppliers",
      "outputs": [
        {
          "components": [
            {
              "internalType": "uint256",
              "name": "tag",
              "type": "uint256"
            },
            {
              "internalType": "enum NewMarketPlace.PartType",
              "name": "partType",
              "type": "uint8"
            },
            {
              "internalType": "uint256",
              "name": "quantityAvailable",
              "type": "uint256"
            },
            {
              "internalType": "enum NewMarketPlace.AuctionState",
              "name": "currentState",
              "type": "uint8"
            },
            {
              "internalType": "address",
              "name": "wallet",
              "type": "address"
            },
            {
              "internalType": "uint256",
              "name": "maxBidders",
              "type": "uint256"
            },
            {
              "internalType": "uint256",
              "name": "bidsPlaced",
              "type": "uint256"
            },
            {
              "internalType": "uint256",
              "name": "bidsRevealed",
              "type": "uint256"
            }
          ],
          "internalType": "struct NewMarketPlace.Supplier[]",
          "name": "",
          "type": "tuple[]"
        }
      ],
      "stateMutability": "view",
      "type": "function",
      "constant": true
    },
    {
      "inputs": [],
      "name": "isManufacturer",
      "outputs": [
        {
          "internalType": "bool",
          "name": "",
          "type": "bool"
        }
      ],
      "stateMutability": "view",
      "type": "function",
      "constant": true
    },
    {
      "inputs": [
        {
          "internalType": "uint256",
          "name": "a",
          "type": "uint256"
        },
        {
          "internalType": "uint256",
          "name": "b",
          "type": "uint256"
        }
      ],
      "name": "minimum",
      "outputs": [
        {
          "internalType": "uint256",
          "name": "",
          "type": "uint256"
        }
      ],
      "stateMutability": "pure",
      "type": "function",
      "constant": true
    },
    {
      "inputs": [
        {
          "internalType": "uint256",
          "name": "tag",
          "type": "uint256"
        }
      ],
      "name": "supplierStartBidding",
      "outputs": [
        {
          "internalType": "uint256",
          "name": "",
          "type": "uint256"
        }
      ],
      "stateMutability": "nonpayable",
      "type": "function"
    },
    {
      "inputs": [
        {
          "internalType": "uint256",
          "name": "tag",
          "type": "uint256"
        }
      ],
      "name": "supplierStartReveal",
      "outputs": [
        {
          "internalType": "uint256",
          "name": "",
          "type": "uint256"
        }
      ],
      "stateMutability": "nonpayable",
      "type": "function"
    },
    {
      "inputs": [
        {
          "internalType": "uint256",
          "name": "tag",
          "type": "uint256"
        }
      ],
      "name": "supplierEndAuction",
      "outputs": [
        {
          "internalType": "uint256",
          "name": "",
          "type": "uint256"
        }
      ],
      "stateMutability": "nonpayable",
      "type": "function"
    },
    {
      "inputs": [
        {
          "internalType": "uint256",
          "name": "manufacturerID",
          "type": "uint256"
        },
        {
          "internalType": "uint256",
          "name": "supplierID",
          "type": "uint256"
        },
        {
          "internalType": "bytes32",
          "name": "blindPrice",
          "type": "bytes32"
        },
        {
          "internalType": "bytes32",
          "name": "blindQuantity",
          "type": "bytes32"
        },
        {
          "internalType": "bytes32",
          "name": "blindKey",
          "type": "bytes32"
        }
      ],
      "name": "manufacturerPlacesBid",
      "outputs": [
        {
          "internalType": "uint256",
          "name": "limitingQuantity",
          "type": "uint256"
        }
      ],
      "stateMutability": "payable",
      "type": "function",
      "payable": true
    },
    {
      "inputs": [
        {
          "internalType": "uint256",
          "name": "manufacturerID",
          "type": "uint256"
        },
        {
          "internalType": "uint256",
          "name": "supplierID",
          "type": "uint256"
        },
        {
          "internalType": "uint256",
          "name": "actualPrice",
          "type": "uint256"
        },
        {
          "internalType": "uint256",
          "name": "actualQuantity",
          "type": "uint256"
        },
        {
          "internalType": "uint256",
          "name": "actualKey",
          "type": "uint256"
        }
      ],
      "name": "manufacturerRevealsBid",
      "outputs": [
        {
          "internalType": "bool",
          "name": "",
          "type": "bool"
        }
      ],
      "stateMutability": "nonpayable",
      "type": "function"
    },
    {
      "inputs": [
        {
          "internalType": "uint256",
          "name": "customerID",
          "type": "uint256"
        },
        {
          "internalType": "uint256",
          "name": "manufacturerID",
          "type": "uint256"
        },
        {
          "internalType": "uint256",
          "name": "priceOfferedPerCar",
          "type": "uint256"
        },
        {
          "internalType": "uint256",
          "name": "quantityRequested",
          "type": "uint256"
        }
      ],
      "name": "customerBuysCar",
      "outputs": [
        {
          "internalType": "uint256",
          "name": "",
          "type": "uint256"
        }
      ],
      "stateMutability": "payable",
      "type": "function",
      "payable": true
    },
    {
      "inputs": [
        {
          "internalType": "uint256",
          "name": "customerID",
          "type": "uint256"
        },
        {
          "internalType": "uint256",
          "name": "carID",
          "type": "uint256"
        }
      ],
      "name": "verifyCar",
      "outputs": [
        {
          "internalType": "uint256",
          "name": "id",
          "type": "uint256"
        },
        {
          "internalType": "uint256",
          "name": "manufacturerID",
          "type": "uint256"
        },
        {
          "internalType": "uint256",
          "name": "wheelSupplier",
          "type": "uint256"
        },
        {
          "internalType": "uint256",
          "name": "bodySupplier",
          "type": "uint256"
        }
      ],
      "stateMutability": "view",
      "type": "function",
      "constant": true
    },
    {
      "inputs": [
        {
          "internalType": "uint256",
          "name": "partType",
          "type": "uint256"
        },
        {
          "internalType": "uint256",
          "name": "quantityAvailable",
          "type": "uint256"
        },
        {
          "internalType": "address payable",
          "name": "addr",
          "type": "address"
        },
        {
          "internalType": "uint256",
          "name": "auctionBidders",
          "type": "uint256"
        }
      ],
      "name": "addSupplier",
      "outputs": [
        {
          "internalType": "uint256",
          "name": "tag",
          "type": "uint256"
        }
      ],
      "stateMutability": "payable",
      "type": "function",
      "payable": true
    },
    {
      "inputs": [
        {
          "internalType": "uint256",
          "name": "tag",
          "type": "uint256"
        },
        {
          "internalType": "uint256",
          "name": "newQuantity",
          "type": "uint256"
        }
      ],
      "name": "updateSupplierQuantity",
      "outputs": [
        {
          "internalType": "uint256",
          "name": "totalQuantity",
          "type": "uint256"
        }
      ],
      "stateMutability": "nonpayable",
      "type": "function"
    },
    {
      "inputs": [
        {
          "internalType": "address payable",
          "name": "addr",
          "type": "address"
        },
        {
          "internalType": "uint256",
          "name": "wheelSupplier",
          "type": "uint256"
        },
        {
          "internalType": "uint256",
          "name": "bodySupplier",
          "type": "uint256"
        },
        {
          "internalType": "uint256",
          "name": "askingPrice",
          "type": "uint256"
        }
      ],
      "name": "addManufacturer",
      "outputs": [
        {
          "internalType": "uint256",
          "name": "tag",
          "type": "uint256"
        }
      ],
      "stateMutability": "nonpayable",
      "type": "function"
    },
    {
      "inputs": [
        {
          "internalType": "address payable",
          "name": "addr",
          "type": "address"
        }
      ],
      "name": "addCustomer",
      "outputs": [
        {
          "internalType": "uint256",
          "name": "tag",
          "type": "uint256"
        }
      ],
      "stateMutability": "nonpayable",
      "type": "function"
    },
    {
      "inputs": [],
      "name": "getSuppliers",
      "outputs": [
        {
          "internalType": "uint256",
          "name": "",
          "type": "uint256"
        }
      ],
      "stateMutability": "view",
      "type": "function",
      "constant": true
    },
    {
      "inputs": [],
      "name": "getManufacturers",
      "outputs": [
        {
          "internalType": "uint256",
          "name": "",
          "type": "uint256"
        }
      ],
      "stateMutability": "view",
      "type": "function",
      "constant": true
    },
    {
      "inputs": [],
      "name": "getCustomers",
      "outputs": [
        {
          "internalType": "uint256",
          "name": "",
          "type": "uint256"
        }
      ],
      "stateMutability": "view",
      "type": "function",
      "constant": true
    },
    {
      "inputs": [],
      "name": "getCars",
      "outputs": [
        {
          "internalType": "uint256",
          "name": "",
          "type": "uint256"
        }
      ],
      "stateMutability": "view",
      "type": "function",
      "constant": true
    },
    {
      "inputs": [
        {
          "internalType": "uint256",
          "name": "tag",
          "type": "uint256"
        }
      ],
      "name": "getManufacturerQuantities",
      "outputs": [
        {
          "internalType": "uint256",
          "name": "quantityWheel",
          "type": "uint256"
        },
        {
          "internalType": "uint256",
          "name": "quantityBody",
          "type": "uint256"
        },
        {
          "internalType": "uint256",
          "name": "quantityCar",
          "type": "uint256"
        }
      ],
      "stateMutability": "view",
      "type": "function",
      "constant": true
    },
    {
      "inputs": [
        {
          "internalType": "address",
          "name": "supplier_addr",
          "type": "address"
        }
      ],
      "name": "getSupplierID",
      "outputs": [
        {
          "internalType": "uint256",
          "name": "tag",
          "type": "uint256"
        }
      ],
      "stateMutability": "view",
      "type": "function",
      "constant": true
    },
    {
      "inputs": [
        {
          "internalType": "uint256",
          "name": "tag",
          "type": "uint256"
        }
      ],
      "name": "getAuctionState",
      "outputs": [
        {
          "internalType": "uint256",
          "name": "state",
          "type": "uint256"
        }
      ],
      "stateMutability": "view",
      "type": "function",
      "constant": true
    }
  ],
  "bytecode": "0x608060405234801561001057600080fd5b506000600981905550600060088190555060006007819055506000600681905550336000806101000a81548173ffffffffffffffffffffffffffffffffffffffff021916908373ffffffffffffffffffffffffffffffffffffffff160217905550615d9e80620000816000396000f3fe6080604052600436106101815760003560e01c8063aa8613c4116100d1578063cea231211161008a578063e804b95511610064578063e804b95514610640578063f1ba712714610670578063f7b0fde81461069b578063fe828f36146106d857610181565b8063cea2312114610582578063d3a26e60146105c6578063dd2d2a121461060357610181565b8063aa8613c414610444578063ad973d7414610481578063b53305dc146104be578063bc8a2345146104e9578063c0abda2a14610514578063cc5d852e1461055257610181565b80634f243c641161013e5780638da5cb5b116101185780638da5cb5b1461036a57806390175af11461039557806393583b89146103d9578063a9c563141461040457610181565b80634f243c64146102b15780635b5e58dc146102ee5780637aa4c3f31461032b57610181565b8063098810071461018657806317c39286146101c357806319820090146101ee5780632565a86e1461022b57806343516832146102565780634a0202cc14610281575b600080fd5b34801561019257600080fd5b506101ad60048036038101906101a891906147ed565b610715565b6040516101ba9190614829565b60405180910390f35b3480156101cf57600080fd5b506101d8610833565b6040516101e59190614829565b60405180910390f35b3480156101fa57600080fd5b5061021560048036038101906102109190614844565b61083d565b60405161022291906148da565b60405180910390f35b34801561023757600080fd5b506102406111b1565b60405161024d91906148da565b60405180910390f35b34801561026257600080fd5b5061026b611251565b6040516102789190614829565b60405180910390f35b61029b600480360381019061029691906148f5565b61125b565b6040516102a89190614829565b60405180910390f35b3480156102bd57600080fd5b506102d860048036038101906102d391906149ba565b6116e1565b6040516102e59190614829565b60405180910390f35b3480156102fa57600080fd5b5061031560048036038101906103109190614a25565b6117b6565b6040516103229190614829565b60405180910390f35b34801561033757600080fd5b50610352600480360381019061034d91906147ed565b611afc565b60405161036193929190614a8c565b60405180910390f35b34801561037657600080fd5b5061037f611c5c565b60405161038c9190614ad2565b60405180910390f35b3480156103a157600080fd5b506103bc60048036038101906103b791906147ed565b611c80565b6040516103d0989796959493929190614afc565b60405180910390f35b3480156103e557600080fd5b506103ee611ce8565b6040516103fb91906148da565b60405180910390f35b34801561041057600080fd5b5061042b60048036038101906104269190614b7a565b611d88565b60405161043b9493929190614bba565b60405180910390f35b34801561045057600080fd5b5061046b600480360381019061046691906147ed565b611f6b565b6040516104789190614829565b60405180910390f35b34801561048d57600080fd5b506104a860048036038101906104a39190614bff565b613492565b6040516104b59190614829565b60405180910390f35b3480156104ca57600080fd5b506104d36135ba565b6040516104e09190614e5b565b60405180910390f35b3480156104f557600080fd5b506104fe613718565b60405161050b9190614829565b60405180910390f35b34801561052057600080fd5b5061053b600480360381019061053691906147ed565b613722565b604051610549929190614e7d565b60405180910390f35b61056c60048036038101906105679190614ea6565b613766565b6040516105799190614829565b60405180910390f35b34801561058e57600080fd5b506105a960048036038101906105a491906147ed565b613b3c565b6040516105bd989796959493929190614f2b565b60405180910390f35b3480156105d257600080fd5b506105ed60048036038101906105e89190614b7a565b613bbe565b6040516105fa9190614829565b60405180910390f35b34801561060f57600080fd5b5061062a60048036038101906106259190614b7a565b613cf5565b6040516106379190614829565b60405180910390f35b61065a60048036038101906106559190614fdf565b613d0f565b6040516106679190614829565b60405180910390f35b34801561067c57600080fd5b5061068561430b565b6040516106929190614829565b60405180910390f35b3480156106a757600080fd5b506106c260048036038101906106bd91906147ed565b614315565b6040516106cf9190614829565b60405180910390f35b3480156106e457600080fd5b506106ff60048036038101906106fa91906147ed565b6144d4565b60405161070c9190614829565b60405180910390f35b600060065482111561072657600080fd5b6000600281111561073a57610739614c67565b5b6001600084815260200190815260200160002060030160009054906101000a900460ff1660028111156107705761076f614c67565b5b0361077e576001905061082e565b6001600281111561079257610791614c67565b5b6001600084815260200190815260200160002060030160009054906101000a900460ff1660028111156107c8576107c7614c67565b5b036107d6576002905061082e565b6002808111156107e9576107e8614c67565b5b6001600084815260200190815260200160002060030160009054906101000a900460ff16600281111561081f5761081e614c67565b5b0361082d576003905061082e565b5b919050565b6000600954905090565b6000600754861115610884576040517f08c379a000000000000000000000000000000000000000000000000000000000815260040161087b906150b7565b60405180910390fd5b6006548511156108c9576040517f08c379a00000000000000000000000000000000000000000000000000000000081526004016108c0906150b7565b60405180910390fd5b6002808111156108dc576108db614c67565b5b6001600087815260200190815260200160002060030160009054906101000a900460ff16600281111561091257610911614c67565b5b14610952576040517f08c379a000000000000000000000000000000000000000000000000000000000815260040161094990615123565b60405180910390fd5b3373ffffffffffffffffffffffffffffffffffffffff166002600088815260200190815260200160002060070160009054906101000a900473ffffffffffffffffffffffffffffffffffffffff1673ffffffffffffffffffffffffffffffffffffffff16146109f6576040517f08c379a00000000000000000000000000000000000000000000000000000000081526004016109ed906150b7565b60405180910390fd5b60005b600560006001600089815260200190815260200160002060030160019054906101000a900473ffffffffffffffffffffffffffffffffffffffff1673ffffffffffffffffffffffffffffffffffffffff1673ffffffffffffffffffffffffffffffffffffffff168152602001908152602001600020805490508110156111a2578660056000600160008a815260200190815260200160002060030160019054906101000a900473ffffffffffffffffffffffffffffffffffffffff1673ffffffffffffffffffffffffffffffffffffffff1673ffffffffffffffffffffffffffffffffffffffff1681526020019081526020016000208281548110610b0157610b00615143565b5b90600052602060002090600b0201600701540361118f57600060056000600160008a815260200190815260200160002060030160019054906101000a900473ffffffffffffffffffffffffffffffffffffffff1673ffffffffffffffffffffffffffffffffffffffff1673ffffffffffffffffffffffffffffffffffffffff1681526020019081526020016000208281548110610ba157610ba0615143565b5b90600052602060002090600b02016040518061018001604052908160008201548152602001600182015481526020016002820154815260200160038201548152602001600482015481526020016005820154815260200160068201548152602001600782015481526020016008820154815260200160098201548152602001600a820160009054906101000a900460ff16151515158152602001600a820160019054906101000a900473ffffffffffffffffffffffffffffffffffffffff1673ffffffffffffffffffffffffffffffffffffffff1673ffffffffffffffffffffffffffffffffffffffff1681525050905060001515816101400151151514610cde576040517f08c379a0000000000000000000000000000000000000000000000000000000008152600401610cd5906151be565b60405180910390fd5b8060a0015184604051602001610cf491906151ff565b6040516020818303038152906040528051906020012014610d4a576040517f08c379a0000000000000000000000000000000000000000000000000000000008152600401610d419061528c565b60405180910390fd5b80606001518685610d5b91906152db565b604051602001610d6b91906151ff565b6040516020818303038152906040528051906020012014610dc1576040517f08c379a0000000000000000000000000000000000000000000000000000000008152600401610db890615381565b60405180910390fd5b80608001518585610dd291906152db565b604051602001610de291906151ff565b6040516020818303038152906040528051906020012014610e38576040517f08c379a0000000000000000000000000000000000000000000000000000000008152600401610e2f90615413565b60405180910390fd5b60008587610e469190615433565b90508161012001518110610e8f576040517f08c379a0000000000000000000000000000000000000000000000000000000008152600401610e86906154ff565b60405180910390fd5b600160056000600160008c815260200190815260200160002060030160019054906101000a900473ffffffffffffffffffffffffffffffffffffffff1673ffffffffffffffffffffffffffffffffffffffff1673ffffffffffffffffffffffffffffffffffffffff1681526020019081526020016000208481548110610f1857610f17615143565b5b90600052602060002090600b0201600a0160006101000a81548160ff0219169083151502179055508660056000600160008c815260200190815260200160002060030160019054906101000a900473ffffffffffffffffffffffffffffffffffffffff1673ffffffffffffffffffffffffffffffffffffffff1673ffffffffffffffffffffffffffffffffffffffff1681526020019081526020016000208481548110610fc857610fc7615143565b5b90600052602060002090600b0201600001819055508560056000600160008c815260200190815260200160002060030160019054906101000a900473ffffffffffffffffffffffffffffffffffffffff1673ffffffffffffffffffffffffffffffffffffffff1673ffffffffffffffffffffffffffffffffffffffff168152602001908152602001600020848154811061106557611064615143565b5b90600052602060002090600b0201600101819055508460056000600160008c815260200190815260200160002060030160019054906101000a900473ffffffffffffffffffffffffffffffffffffffff1673ffffffffffffffffffffffffffffffffffffffff1673ffffffffffffffffffffffffffffffffffffffff168152602001908152602001600020848154811061110257611101615143565b5b90600052602060002090600b02016002018190555060018060008a8152602001908152602001600020600601600082825461113d91906152db565b925050819055507f1e03b01ba1997c24040f0a2e5145f9dc2be2d1821b811bd7def13c7f41cda874898989898960405161117b95949392919061551f565b60405180910390a1600193505050506111a8565b808061119a90615572565b9150506109f9565b50600090505b95945050505050565b600080600090505b6006548111611248573373ffffffffffffffffffffffffffffffffffffffff166001600083815260200190815260200160002060030160019054906101000a900473ffffffffffffffffffffffffffffffffffffffff1673ffffffffffffffffffffffffffffffffffffffff160361123557600191505061124e565b808061124090615572565b9150506111b9565b50600090505b90565b6000600654905090565b60006008548511156112a2576040517f08c379a000000000000000000000000000000000000000000000000000000000815260040161129990615606565b60405180910390fd5b6007548411156112e7576040517f08c379a00000000000000000000000000000000000000000000000000000000081526004016112de90615606565b60405180910390fd5b6002600085815260200190815260200160002060060154831015611340576040517f08c379a000000000000000000000000000000000000000000000000000000000815260040161133790615672565b60405180910390fd5b818361134c9190615433565b34101561138e576040517f08c379a0000000000000000000000000000000000000000000000000000000008152600401611385906156de565b60405180910390fd5b6003600086815260200190815260200160002060010160009054906101000a900473ffffffffffffffffffffffffffffffffffffffff1673ffffffffffffffffffffffffffffffffffffffff163373ffffffffffffffffffffffffffffffffffffffff1614611432576040517f08c379a00000000000000000000000000000000000000000000000000000000081526004016114299061574a565b60405180910390fd5b6000611454836002600088815260200190815260200160002060050154613cf5565b905060005b81811015611568576009600081548092919061147490615572565b91905055506040518060a00160405280600954815260200188815260200187815260200160026000898152602001908152602001600020600101548152602001600260008981526020019081526020016000206003015481525060046000600954815260200190815260200160002060008201518160000155602082015181600101556040820151816002015560608201518160030155608082015181600401559050507f7f5c7a32f9a2b70ae99e862ffe5aff9d18caa86acc91931c9f1b75f325cd1691600954878960405161154d93929190614a8c565b60405180910390a1808061156090615572565b915050611459565b508060026000878152602001908152602001600020600501600082825461158f919061576a565b925050819055506002600086815260200190815260200160002060070160009054906101000a900473ffffffffffffffffffffffffffffffffffffffff1673ffffffffffffffffffffffffffffffffffffffff166108fc85836115f29190615433565b9081150290604051600060405180830381858888f1935050505061164b576040517f08c379a0000000000000000000000000000000000000000000000000000000008152600401611642906157ea565b60405180910390fd5b3373ffffffffffffffffffffffffffffffffffffffff166108fc85836116719190615433565b3461167c919061576a565b9081150290604051600060405180830381858888f193505050506116d5576040517f08c379a00000000000000000000000000000000000000000000000000000000081526004016116cc906157ea565b60405180910390fd5b80915050949350505050565b600080600090505b600a805490508110156117af578273ffffffffffffffffffffffffffffffffffffffff16600a828154811061172157611720615143565b5b906000526020600020906007020160030160019054906101000a900473ffffffffffffffffffffffffffffffffffffffff1673ffffffffffffffffffffffffffffffffffffffff160361179c57600a818154811061178257611781615143565b5b9060005260206000209060070201600001549150506117b1565b80806117a790615572565b9150506116e9565b505b919050565b6000600184101580156117cb57506006548411155b61180a576040517f08c379a000000000000000000000000000000000000000000000000000000000815260040161180190615856565b60405180910390fd5b6001831015801561181d57506006548311155b61185c576040517f08c379a000000000000000000000000000000000000000000000000000000000815260040161185390615856565b60405180910390fd5b60018081111561186f5761186e614c67565b5b6001600085815260200190815260200160002060010160009054906101000a900460ff1660018111156118a5576118a4614c67565b5b146118e5576040517f08c379a00000000000000000000000000000000000000000000000000000000081526004016118dc906158c2565b60405180910390fd5b600060018111156118f9576118f8614c67565b5b6001600086815260200190815260200160002060010160009054906101000a900460ff16600181111561192f5761192e614c67565b5b1461196f576040517f08c379a00000000000000000000000000000000000000000000000000000000081526004016119669061592e565b60405180910390fd5b8473ffffffffffffffffffffffffffffffffffffffff163373ffffffffffffffffffffffffffffffffffffffff16146119dd576040517f08c379a00000000000000000000000000000000000000000000000000000000081526004016119d49061599a565b60405180910390fd5b600760008154809291906119f090615572565b919050555060405180610100016040528060075481526020018581526020016000815260200184815260200160008152602001600081526020018381526020018673ffffffffffffffffffffffffffffffffffffffff16815250600260006007548152602001908152602001600020600082015181600001556020820151816001015560408201518160020155606082015181600301556080820151816004015560a0820151816005015560c0820151816006015560e08201518160070160006101000a81548173ffffffffffffffffffffffffffffffffffffffff021916908373ffffffffffffffffffffffffffffffffffffffff1602179055509050506007549050949350505050565b6000806000600754841115611b1057600080fd5b60008054906101000a900473ffffffffffffffffffffffffffffffffffffffff1673ffffffffffffffffffffffffffffffffffffffff163373ffffffffffffffffffffffffffffffffffffffff161480611bcb57506002600085815260200190815260200160002060070160009054906101000a900473ffffffffffffffffffffffffffffffffffffffff1673ffffffffffffffffffffffffffffffffffffffff163373ffffffffffffffffffffffffffffffffffffffff16145b611c0a576040517f08c379a0000000000000000000000000000000000000000000000000000000008152600401611c0190615a06565b60405180910390fd5b6002600085815260200190815260200160002060020154600260008681526020019081526020016000206004015460026000878152602001908152602001600020600501549250925092509193909250565b60008054906101000a900473ffffffffffffffffffffffffffffffffffffffff1681565b60026020528060005260406000206000915090508060000154908060010154908060020154908060030154908060040154908060050154908060060154908060070160009054906101000a900473ffffffffffffffffffffffffffffffffffffffff16905088565b600080600090505b6007548111611d7f573373ffffffffffffffffffffffffffffffffffffffff166002600083815260200190815260200160002060070160009054906101000a900473ffffffffffffffffffffffffffffffffffffffff1673ffffffffffffffffffffffffffffffffffffffff1603611d6c576001915050611d85565b8080611d7790615572565b915050611cf0565b50600090505b90565b600080600080600854861115611dd3576040517f08c379a0000000000000000000000000000000000000000000000000000000008152600401611dca90615a72565b60405180910390fd5b3373ffffffffffffffffffffffffffffffffffffffff166003600088815260200190815260200160002060010160009054906101000a900473ffffffffffffffffffffffffffffffffffffffff1673ffffffffffffffffffffffffffffffffffffffff1614611e77576040517f08c379a0000000000000000000000000000000000000000000000000000000008152600401611e6e9061574a565b60405180910390fd5b600954851115611ebc576040517f08c379a0000000000000000000000000000000000000000000000000000000008152600401611eb390615a72565b60405180910390fd5b85600460008781526020019081526020016000206001015414611f14576040517f08c379a0000000000000000000000000000000000000000000000000000000008152600401611f0b90615ade565b60405180910390fd5b84600460008781526020019081526020016000206002015460046000888152602001908152602001600020600301546004600089815260200190815260200160002060040154935093509350935092959194509250565b6000600654821115611fb2576040517f08c379a0000000000000000000000000000000000000000000000000000000008152600401611fa990615856565b60405180910390fd5b600280811115611fc557611fc4614c67565b5b6001600084815260200190815260200160002060030160009054906101000a900460ff166002811115611ffb57611ffa614c67565b5b1461200557600080fd5b6001600083815260200190815260200160002060030160019054906101000a900473ffffffffffffffffffffffffffffffffffffffff1673ffffffffffffffffffffffffffffffffffffffff163373ffffffffffffffffffffffffffffffffffffffff16146120a9576040517f08c379a00000000000000000000000000000000000000000000000000000000081526004016120a090615b4a565b60405180910390fd5b60006001600084815260200190815260200160002060030160006101000a81548160ff021916908360028111156120e3576120e2614c67565b5b021790555060005b600560006001600086815260200190815260200160002060030160019054906101000a900473ffffffffffffffffffffffffffffffffffffffff1673ffffffffffffffffffffffffffffffffffffffff1673ffffffffffffffffffffffffffffffffffffffff168152602001908152602001600020805490508110156127de5760005b818110156127ca57600560006001600087815260200190815260200160002060030160019054906101000a900473ffffffffffffffffffffffffffffffffffffffff1673ffffffffffffffffffffffffffffffffffffffff1673ffffffffffffffffffffffffffffffffffffffff16815260200190815260200160002081815481106121fd576121fc615143565b5b90600052602060002090600b020160000154600560006001600088815260200190815260200160002060030160019054906101000a900473ffffffffffffffffffffffffffffffffffffffff1673ffffffffffffffffffffffffffffffffffffffff1673ffffffffffffffffffffffffffffffffffffffff168152602001908152602001600020838154811061229657612295615143565b5b90600052602060002090600b02016000015410156127b7576000600560006001600088815260200190815260200160002060030160019054906101000a900473ffffffffffffffffffffffffffffffffffffffff1673ffffffffffffffffffffffffffffffffffffffff1673ffffffffffffffffffffffffffffffffffffffff168152602001908152602001600020838154811061233757612336615143565b5b90600052602060002090600b02016040518061018001604052908160008201548152602001600182015481526020016002820154815260200160038201548152602001600482015481526020016005820154815260200160068201548152602001600782015481526020016008820154815260200160098201548152602001600a820160009054906101000a900460ff16151515158152602001600a820160019054906101000a900473ffffffffffffffffffffffffffffffffffffffff1673ffffffffffffffffffffffffffffffffffffffff1673ffffffffffffffffffffffffffffffffffffffff16815250509050600560006001600088815260200190815260200160002060030160019054906101000a900473ffffffffffffffffffffffffffffffffffffffff1673ffffffffffffffffffffffffffffffffffffffff1673ffffffffffffffffffffffffffffffffffffffff16815260200190815260200160002082815481106124af576124ae615143565b5b90600052602060002090600b0201600560006001600089815260200190815260200160002060030160019054906101000a900473ffffffffffffffffffffffffffffffffffffffff1673ffffffffffffffffffffffffffffffffffffffff1673ffffffffffffffffffffffffffffffffffffffff168152602001908152602001600020848154811061254457612543615143565b5b90600052602060002090600b020160008201548160000155600182015481600101556002820154816002015560038201548160030155600482015481600401556005820154816005015560068201548160060155600782015481600701556008820154816008015560098201548160090155600a820160009054906101000a900460ff1681600a0160006101000a81548160ff021916908315150217905550600a820160019054906101000a900473ffffffffffffffffffffffffffffffffffffffff1681600a0160016101000a81548173ffffffffffffffffffffffffffffffffffffffff021916908373ffffffffffffffffffffffffffffffffffffffff16021790555090505080600560006001600089815260200190815260200160002060030160019054906101000a900473ffffffffffffffffffffffffffffffffffffffff1673ffffffffffffffffffffffffffffffffffffffff1673ffffffffffffffffffffffffffffffffffffffff16815260200190815260200160002083815481106126d5576126d4615143565b5b90600052602060002090600b0201600082015181600001556020820151816001015560408201518160020155606082015181600301556080820151816004015560a0820151816005015560c0820151816006015560e082015181600701556101008201518160080155610120820151816009015561014082015181600a0160006101000a81548160ff02191690831515021790555061016082015181600a0160016101000a81548173ffffffffffffffffffffffffffffffffffffffff021916908373ffffffffffffffffffffffffffffffffffffffff160217905550905050505b80806127c290615572565b91505061216e565b5080806127d690615572565b9150506120eb565b506127e761478f565b6127ef61478f565b6127f761478f565b60005b600560006001600089815260200190815260200160002060030160019054906101000a900473ffffffffffffffffffffffffffffffffffffffff1673ffffffffffffffffffffffffffffffffffffffff1673ffffffffffffffffffffffffffffffffffffffff16815260200190815260200160002080549050811015612ba157600060056000600160008a815260200190815260200160002060030160019054906101000a900473ffffffffffffffffffffffffffffffffffffffff1673ffffffffffffffffffffffffffffffffffffffff1673ffffffffffffffffffffffffffffffffffffffff168152602001908152602001600020828154811061290357612902615143565b5b90600052602060002090600b02016040518061018001604052908160008201548152602001600182015481526020016002820154815260200160038201548152602001600482015481526020016005820154815260200160068201548152602001600782015481526020016008820154815260200160098201548152602001600a820160009054906101000a900460ff16151515158152602001600a820160019054906101000a900473ffffffffffffffffffffffffffffffffffffffff1673ffffffffffffffffffffffffffffffffffffffff1673ffffffffffffffffffffffffffffffffffffffff1681525050905060001515816101400151151503612a0b5750612b8e565b806101200151838260e0015160648110612a2857612a27615143565b5b6020020181815250506000612a57600160008a8152602001908152602001600020600201548360c00151613cf5565b9050612a67818360200151613cf5565b90508160000151868360e0015160648110612a8557612a84615143565b5b60200201818152505080858360e0015160648110612aa657612aa5615143565b5b60200201818152505080600160008a81526020019081526020016000206002016000828254612ad5919061576a565b925050819055508060056000600160008c815260200190815260200160002060030160019054906101000a900473ffffffffffffffffffffffffffffffffffffffff1673ffffffffffffffffffffffffffffffffffffffff1673ffffffffffffffffffffffffffffffffffffffff1681526020019081526020016000208481548110612b6457612b63615143565b5b90600052602060002090600b02016001016000828254612b84919061576a565b9250508190555050505b8080612b9990615572565b9150506127fa565b5060005b600560006001600089815260200190815260200160002060030160019054906101000a900473ffffffffffffffffffffffffffffffffffffffff1673ffffffffffffffffffffffffffffffffffffffff1673ffffffffffffffffffffffffffffffffffffffff16815260200190815260200160002080549050811015612f0057600060056000600160008a815260200190815260200160002060030160019054906101000a900473ffffffffffffffffffffffffffffffffffffffff1673ffffffffffffffffffffffffffffffffffffffff1673ffffffffffffffffffffffffffffffffffffffff1681526020019081526020016000208281548110612cae57612cad615143565b5b90600052602060002090600b02016040518061018001604052908160008201548152602001600182015481526020016002820154815260200160038201548152602001600482015481526020016005820154815260200160068201548152602001600782015481526020016008820154815260200160098201548152602001600a820160009054906101000a900460ff16151515158152602001600a820160019054906101000a900473ffffffffffffffffffffffffffffffffffffffff1673ffffffffffffffffffffffffffffffffffffffff1673ffffffffffffffffffffffffffffffffffffffff1681525050905060001515816101400151151503612db65750612eed565b6000612ddc600160008a8152602001908152602001600020600201548360200151613cf5565b905080858360e0015160648110612df657612df5615143565b5b60200201818151612e0791906152db565b9150818152505080600160008a81526020019081526020016000206002016000828254612e34919061576a565b925050819055508060056000600160008c815260200190815260200160002060030160019054906101000a900473ffffffffffffffffffffffffffffffffffffffff1673ffffffffffffffffffffffffffffffffffffffff1673ffffffffffffffffffffffffffffffffffffffff1681526020019081526020016000208481548110612ec357612ec2615143565b5b90600052602060002090600b02016001016000828254612ee3919061576a565b9250508190555050505b8080612ef890615572565b915050612ba5565b506000600190505b60075481116132d6576000838260648110612f2657612f25615143565b5b602002015111156132c3577f389cc4d2b135e7b676a809ad7bacdde1b644b0bbe73afdd545a176ea73b955178682858460648110612f6757612f66615143565b5b6020020151878560648110612f7f57612f7e615143565b5b6020020151604051612f949493929190614bba565b60405180910390a16002600082815260200190815260200160002060070160009054906101000a900473ffffffffffffffffffffffffffffffffffffffff1673ffffffffffffffffffffffffffffffffffffffff166108fc848360648110612fff57612ffe615143565b5b602002015186846064811061301757613016615143565b5b60200201516130269190615433565b84846064811061303957613038615143565b5b6020020151613048919061576a565b9081150290604051600060405180830381858888f193505050506130a1576040517f08c379a0000000000000000000000000000000000000000000000000000000008152600401613098906157ea565b60405180910390fd5b6001600087815260200190815260200160002060030160019054906101000a900473ffffffffffffffffffffffffffffffffffffffff1673ffffffffffffffffffffffffffffffffffffffff166108fc84836064811061310457613103615143565b5b602002015186846064811061311c5761311b615143565b5b602002015161312b9190615433565b9081150290604051600060405180830381858888f19350505050613184576040517f08c379a000000000000000000000000000000000000000000000000000000000815260040161317b906157ea565b60405180910390fd5b60018081111561319757613196614c67565b5b6001600088815260200190815260200160002060010160009054906101000a900460ff1660018111156131cd576131cc614c67565b5b0361321b578281606481106131e5576131e4615143565b5b602002015160026000838152602001908152602001600020600401600082825461320f91906152db565b925050819055506132b9565b6000600181111561322f5761322e614c67565b5b6001600088815260200190815260200160002060010160009054906101000a900460ff16600181111561326557613264614c67565b5b036132b35782816064811061327d5761327c615143565b5b60200201516002600083815260200190815260200160002060020160008282546132a791906152db565b925050819055506132b8565b600080fd5b5b6132c2816146ca565b5b80806132ce90615572565b915050612f08565b505b6000600560006001600089815260200190815260200160002060030160019054906101000a900473ffffffffffffffffffffffffffffffffffffffff1673ffffffffffffffffffffffffffffffffffffffff1673ffffffffffffffffffffffffffffffffffffffff16815260200190815260200160002080549050111561348757600560006001600088815260200190815260200160002060030160019054906101000a900473ffffffffffffffffffffffffffffffffffffffff1673ffffffffffffffffffffffffffffffffffffffff1673ffffffffffffffffffffffffffffffffffffffff1681526020019081526020016000208054806133de576133dd615b6a565b5b60019003818190600052602060002090600b0201600080820160009055600182016000905560028201600090556003820160009055600482016000905560058201600090556006820160009055600782016000905560088201600090556009820160009055600a820160006101000a81549060ff0219169055600a820160016101000a81549073ffffffffffffffffffffffffffffffffffffffff0219169055505090556132d8565b429350505050919050565b60008173ffffffffffffffffffffffffffffffffffffffff163373ffffffffffffffffffffffffffffffffffffffff1614613502576040517f08c379a00000000000000000000000000000000000000000000000000000000081526004016134f99061599a565b60405180910390fd5b6008600081548092919061351590615572565b9190505550604051806040016040528060085481526020018373ffffffffffffffffffffffffffffffffffffffff168152506003600060085481526020019081526020016000206000820151816000015560208201518160010160006101000a81548173ffffffffffffffffffffffffffffffffffffffff021916908373ffffffffffffffffffffffffffffffffffffffff1602179055509050506008549050919050565b6060600a805480602002602001604051908101604052809291908181526020016000905b8282101561370f578382906000526020600020906007020160405180610100016040529081600082015481526020016001820160009054906101000a900460ff16600181111561363157613630614c67565b5b600181111561364357613642614c67565b5b8152602001600282015481526020016003820160009054906101000a900460ff16600281111561367657613675614c67565b5b600281111561368857613687614c67565b5b81526020016003820160019054906101000a900473ffffffffffffffffffffffffffffffffffffffff1673ffffffffffffffffffffffffffffffffffffffff1673ffffffffffffffffffffffffffffffffffffffff1681526020016004820154815260200160058201548152602001600682015481525050815260200190600101906135de565b50505050905090565b6000600754905090565b60036020528060005260406000206000915090508060000154908060010160009054906101000a900473ffffffffffffffffffffffffffffffffffffffff16905082565b600060018511156137ac576040517f08c379a00000000000000000000000000000000000000000000000000000000081526004016137a390615be5565b60405180910390fd5b8273ffffffffffffffffffffffffffffffffffffffff163373ffffffffffffffffffffffffffffffffffffffff161461381a576040517f08c379a00000000000000000000000000000000000000000000000000000000081526004016138119061599a565b60405180910390fd5b6006600081548092919061382d90615572565b91905055506000600190506001860361384557600090505b604051806101000160405280600654815260200182600181111561386c5761386b614c67565b5b81526020018681526020016000600281111561388b5761388a614c67565b5b81526020018573ffffffffffffffffffffffffffffffffffffffff1681526020018481526020016000815260200160008152506001600060065481526020019081526020016000206000820151816000015560208201518160010160006101000a81548160ff0219169083600181111561390857613907614c67565b5b02179055506040820151816002015560608201518160030160006101000a81548160ff0219169083600281111561394257613941614c67565b5b021790555060808201518160030160016101000a81548173ffffffffffffffffffffffffffffffffffffffff021916908373ffffffffffffffffffffffffffffffffffffffff16021790555060a0820151816004015560c0820151816005015560e08201518160060155905050600a60405180610100016040528060065481526020018360018111156139d8576139d7614c67565b5b8152602001878152602001600060028111156139f7576139f6614c67565b5b81526020018673ffffffffffffffffffffffffffffffffffffffff16815260200185815260200160008152602001600081525090806001815401808255809150506001900390600052602060002090600702016000909190919091506000820151816000015560208201518160010160006101000a81548160ff02191690836001811115613a8857613a87614c67565b5b02179055506040820151816002015560608201518160030160006101000a81548160ff02191690836002811115613ac257613ac1614c67565b5b021790555060808201518160030160016101000a81548173ffffffffffffffffffffffffffffffffffffffff021916908373ffffffffffffffffffffffffffffffffffffffff16021790555060a0820151816004015560c0820151816005015560e082015181600601555050600654915050949350505050565b60016020528060005260406000206000915090508060000154908060010160009054906101000a900460ff16908060020154908060030160009054906101000a900460ff16908060030160019054906101000a900473ffffffffffffffffffffffffffffffffffffffff16908060040154908060050154908060060154905088565b6000600654831115613c05576040517f08c379a0000000000000000000000000000000000000000000000000000000008152600401613bfc906150b7565b60405180910390fd5b3373ffffffffffffffffffffffffffffffffffffffff166001600085815260200190815260200160002060030160019054906101000a900473ffffffffffffffffffffffffffffffffffffffff1673ffffffffffffffffffffffffffffffffffffffff1614613ca9576040517f08c379a0000000000000000000000000000000000000000000000000000000008152600401613ca09061574a565b60405180910390fd5b81600160008581526020019081526020016000206002016000828254613ccf91906152db565b925050819055506001600084815260200190815260200160002060020154905092915050565b600081831015613d055782613d07565b815b905092915050565b6000600754861115613d56576040517f08c379a0000000000000000000000000000000000000000000000000000000008152600401613d4d906150b7565b60405180910390fd5b600654851115613d9b576040517f08c379a0000000000000000000000000000000000000000000000000000000008152600401613d92906150b7565b60405180910390fd5b6002600087815260200190815260200160002060070160009054906101000a900473ffffffffffffffffffffffffffffffffffffffff1673ffffffffffffffffffffffffffffffffffffffff163373ffffffffffffffffffffffffffffffffffffffff1614613e3f576040517f08c379a0000000000000000000000000000000000000000000000000000000008152600401613e369061574a565b60405180910390fd5b60006001811115613e5357613e52614c67565b5b6001600087815260200190815260200160002060010160009054906101000a900460ff166001811115613e8957613e88614c67565b5b03613eeb5784600260008881526020019081526020016000206001015414613ee6576040517f08c379a0000000000000000000000000000000000000000000000000000000008152600401613edd90615c51565b60405180910390fd5b613f44565b84600260008881526020019081526020016000206003015414613f43576040517f08c379a0000000000000000000000000000000000000000000000000000000008152600401613f3a90615c51565b60405180910390fd5b5b600160008681526020019081526020016000206004015460016000878152602001908152602001600020600501541115613fb3576040517f08c379a0000000000000000000000000000000000000000000000000000000008152600401613faa90615cbd565b60405180910390fd5b6000600180811115613fc857613fc7614c67565b5b6001600088815260200190815260200160002060010160009054906101000a900460ff166001811115613ffe57613ffd614c67565b5b0361405e576000600260008981526020019081526020016000206003015490506002600089815260200190815260200160002060040154600160008381526020019081526020016000206002015461405691906152db565b9150506140b5565b600060026000898152602001908152602001600020600101549050600260008981526020019081526020016000206002015460016000838152602001908152602001600020600201546140b191906152db565b9150505b600560006001600089815260200190815260200160002060030160019054906101000a900473ffffffffffffffffffffffffffffffffffffffff1673ffffffffffffffffffffffffffffffffffffffff1673ffffffffffffffffffffffffffffffffffffffff1681526020019081526020016000206040518061018001604052806000815260200160008152602001600081526020018781526020018681526020018581526020018381526020018981526020018881526020013481526020016000151581526020013373ffffffffffffffffffffffffffffffffffffffff1681525090806001815401808255809150506001900390600052602060002090600b0201600090919091909150600082015181600001556020820151816001015560408201518160020155606082015181600301556080820151816004015560a0820151816005015560c0820151816006015560e082015181600701556101008201518160080155610120820151816009015561014082015181600a0160006101000a81548160ff02191690831515021790555061016082015181600a0160016101000a81548173ffffffffffffffffffffffffffffffffffffffff021916908373ffffffffffffffffffffffffffffffffffffffff1602179055505050600180600088815260200190815260200160002060050160008282546142b891906152db565b925050819055507f8a06846852690683a485d2a83db8d92c70d8aaaf4693c2c3b223705fb4c9162787878787876040516142f6959493929190615cec565b60405180910390a18091505095945050505050565b6000600854905090565b600060065482111561435c576040517f08c379a000000000000000000000000000000000000000000000000000000000815260040161435390615856565b60405180910390fd5b600160028111156143705761436f614c67565b5b6001600084815260200190815260200160002060030160009054906101000a900460ff1660028111156143a6576143a5614c67565b5b146143b057600080fd5b6001600083815260200190815260200160002060030160019054906101000a900473ffffffffffffffffffffffffffffffffffffffff1673ffffffffffffffffffffffffffffffffffffffff163373ffffffffffffffffffffffffffffffffffffffff1614614454576040517f08c379a000000000000000000000000000000000000000000000000000000000815260040161444b90615b4a565b60405180910390fd5b60026001600084815260200190815260200160002060030160006101000a81548160ff0219169083600281111561448e5761448d614c67565b5b02179055507f69544aaad545cf5ab110398ad6cac7ee4773f2f30c068350793e6cf82805d70f82426040516144c4929190615d3f565b60405180910390a1429050919050565b600060065482111561451b576040517f08c379a000000000000000000000000000000000000000000000000000000000815260040161451290615856565b60405180910390fd5b6000600281111561452f5761452e614c67565b5b6001600084815260200190815260200160002060030160009054906101000a900460ff16600281111561456557614564614c67565b5b1461456f57600080fd5b6001600083815260200190815260200160002060030160019054906101000a900473ffffffffffffffffffffffffffffffffffffffff1673ffffffffffffffffffffffffffffffffffffffff163373ffffffffffffffffffffffffffffffffffffffff1614614613576040517f08c379a000000000000000000000000000000000000000000000000000000000815260040161460a90615b4a565b60405180910390fd5b600180600084815260200190815260200160002060030160006101000a81548160ff0219169083600281111561464c5761464b614c67565b5b021790555060006001600084815260200190815260200160002060050181905550600060016000848152602001908152602001600020600601819055507f97f3c1cfc906cded5a31e7f64d905dd3bce10ac469b77d540f9b6f7fd0267ed882426040516146ba929190615d3f565b60405180910390a1429050919050565b600061470260026000848152602001908152602001600020600401546002600085815260200190815260200160002060020154613cf5565b90508060026000848152602001908152602001600020600401600082825461472a919061576a565b9250508190555080600260008481526020019081526020016000206002016000828254614757919061576a565b925050819055508060026000848152602001908152602001600020600501600082825461478491906152db565b925050819055505050565b60405180610c800160405280606490602082028036833780820191505090505090565b600080fd5b6000819050919050565b6147ca816147b7565b81146147d557600080fd5b50565b6000813590506147e7816147c1565b92915050565b600060208284031215614803576148026147b2565b5b6000614811848285016147d8565b91505092915050565b614823816147b7565b82525050565b600060208201905061483e600083018461481a565b92915050565b600080600080600060a086880312156148605761485f6147b2565b5b600061486e888289016147d8565b955050602061487f888289016147d8565b9450506040614890888289016147d8565b93505060606148a1888289016147d8565b92505060806148b2888289016147d8565b9150509295509295909350565b60008115159050919050565b6148d4816148bf565b82525050565b60006020820190506148ef60008301846148cb565b92915050565b6000806000806080858703121561490f5761490e6147b2565b5b600061491d878288016147d8565b945050602061492e878288016147d8565b935050604061493f878288016147d8565b9250506060614950878288016147d8565b91505092959194509250565b600073ffffffffffffffffffffffffffffffffffffffff82169050919050565b60006149878261495c565b9050919050565b6149978161497c565b81146149a257600080fd5b50565b6000813590506149b48161498e565b92915050565b6000602082840312156149d0576149cf6147b2565b5b60006149de848285016149a5565b91505092915050565b60006149f28261495c565b9050919050565b614a02816149e7565b8114614a0d57600080fd5b50565b600081359050614a1f816149f9565b92915050565b60008060008060808587031215614a3f57614a3e6147b2565b5b6000614a4d87828801614a10565b9450506020614a5e878288016147d8565b9350506040614a6f878288016147d8565b9250506060614a80878288016147d8565b91505092959194509250565b6000606082019050614aa1600083018661481a565b614aae602083018561481a565b614abb604083018461481a565b949350505050565b614acc816149e7565b82525050565b6000602082019050614ae76000830184614ac3565b92915050565b614af68161497c565b82525050565b600061010082019050614b12600083018b61481a565b614b1f602083018a61481a565b614b2c604083018961481a565b614b39606083018861481a565b614b46608083018761481a565b614b5360a083018661481a565b614b6060c083018561481a565b614b6d60e0830184614aed565b9998505050505050505050565b60008060408385031215614b9157614b906147b2565b5b6000614b9f858286016147d8565b9250506020614bb0858286016147d8565b9150509250929050565b6000608082019050614bcf600083018761481a565b614bdc602083018661481a565b614be9604083018561481a565b614bf6606083018461481a565b95945050505050565b600060208284031215614c1557614c146147b2565b5b6000614c2384828501614a10565b91505092915050565b600081519050919050565b600082825260208201905092915050565b6000819050602082019050919050565b614c61816147b7565b82525050565b7f4e487b7100000000000000000000000000000000000000000000000000000000600052602160045260246000fd5b60028110614ca757614ca6614c67565b5b50565b6000819050614cb882614c96565b919050565b6000614cc882614caa565b9050919050565b614cd881614cbd565b82525050565b60038110614cef57614cee614c67565b5b50565b6000819050614d0082614cde565b919050565b6000614d1082614cf2565b9050919050565b614d2081614d05565b82525050565b614d2f8161497c565b82525050565b61010082016000820151614d4c6000850182614c58565b506020820151614d5f6020850182614ccf565b506040820151614d726040850182614c58565b506060820151614d856060850182614d17565b506080820151614d986080850182614d26565b5060a0820151614dab60a0850182614c58565b5060c0820151614dbe60c0850182614c58565b5060e0820151614dd160e0850182614c58565b50505050565b6000614de38383614d35565b6101008301905092915050565b6000602082019050919050565b6000614e0882614c2c565b614e128185614c37565b9350614e1d83614c48565b8060005b83811015614e4e578151614e358882614dd7565b9750614e4083614df0565b925050600181019050614e21565b5085935050505092915050565b60006020820190508181036000830152614e758184614dfd565b905092915050565b6000604082019050614e92600083018561481a565b614e9f6020830184614aed565b9392505050565b60008060008060808587031215614ec057614ebf6147b2565b5b6000614ece878288016147d8565b9450506020614edf878288016147d8565b9350506040614ef087828801614a10565b9250506060614f01878288016147d8565b91505092959194509250565b614f1681614cbd565b82525050565b614f2581614d05565b82525050565b600061010082019050614f41600083018b61481a565b614f4e602083018a614f0d565b614f5b604083018961481a565b614f686060830188614f1c565b614f756080830187614aed565b614f8260a083018661481a565b614f8f60c083018561481a565b614f9c60e083018461481a565b9998505050505050505050565b6000819050919050565b614fbc81614fa9565b8114614fc757600080fd5b50565b600081359050614fd981614fb3565b92915050565b600080600080600060a08688031215614ffb57614ffa6147b2565b5b6000615009888289016147d8565b955050602061501a888289016147d8565b945050604061502b88828901614fca565b935050606061503c88828901614fca565b925050608061504d88828901614fca565b9150509295509295909350565b600082825260208201905092915050565b7f496e76616c696420494400000000000000000000000000000000000000000000600082015250565b60006150a1600a8361505a565b91506150ac8261506b565b602082019050919050565b600060208201905081810360008301526150d081615094565b9050919050565b7f52657665616c207068617365206e6f7420676f696e67206f6e00000000000000600082015250565b600061510d60198361505a565b9150615118826150d7565b602082019050919050565b6000602082019050818103600083015261513c81615100565b9050919050565b7f4e487b7100000000000000000000000000000000000000000000000000000000600052603260045260246000fd5b7f42696420616c72656164792072657665616c6564000000000000000000000000600082015250565b60006151a860148361505a565b91506151b382615172565b602082019050919050565b600060208201905081810360008301526151d78161519b565b9050919050565b6000819050919050565b6151f96151f4826147b7565b6151de565b82525050565b600061520b82846151e8565b60208201915081905092915050565b7f496e636f7272656374206b6579202d2d206b656570696e6720796f7572206d6f60008201527f6e65790000000000000000000000000000000000000000000000000000000000602082015250565b600061527660238361505a565b91506152818261521a565b604082019050919050565b600060208201905081810360008301526152a581615269565b9050919050565b7f4e487b7100000000000000000000000000000000000000000000000000000000600052601160045260246000fd5b60006152e6826147b7565b91506152f1836147b7565b9250828201905080821115615309576153086152ac565b5b92915050565b7f496e636f7272656374207072696365202d2d206b656570696e6720796f75722060008201527f6d6f6e6579000000000000000000000000000000000000000000000000000000602082015250565b600061536b60258361505a565b91506153768261530f565b604082019050919050565b6000602082019050818103600083015261539a8161535e565b9050919050565b7f496e636f7272656374207175616e74697479202d2d206b656570696e6720796f60008201527f7572206d6f6e6579000000000000000000000000000000000000000000000000602082015250565b60006153fd60288361505a565b9150615408826153a1565b604082019050919050565b6000602082019050818103600083015261542c816153f0565b9050919050565b600061543e826147b7565b9150615449836147b7565b9250817fffffffffffffffffffffffffffffffffffffffffffffffffffffffffffffffff0483118215151615615482576154816152ac565b5b828202905092915050565b7f496e73756666696369656e742066756e64732073656e74202d2d206b6565706960008201527f6e6720796f7572206d6f6e657900000000000000000000000000000000000000602082015250565b60006154e9602d8361505a565b91506154f48261548d565b604082019050919050565b60006020820190508181036000830152615518816154dc565b9050919050565b600060a082019050615534600083018861481a565b615541602083018761481a565b61554e604083018661481a565b61555b606083018561481a565b615568608083018461481a565b9695505050505050565b600061557d826147b7565b91507fffffffffffffffffffffffffffffffffffffffffffffffffffffffffffffffff82036155af576155ae6152ac565b5b600182019050919050565b7f496e76616c696420637573746f6d657200000000000000000000000000000000600082015250565b60006155f060108361505a565b91506155fb826155ba565b602082019050919050565b6000602082019050818103600083015261561f816155e3565b9050919050565b7f436f737420697320686967686572000000000000000000000000000000000000600082015250565b600061565c600e8361505a565b915061566782615626565b602082019050919050565b6000602082019050818103600083015261568b8161564f565b9050919050565b7f496e73756666696369656e742066756e64732073656e74000000000000000000600082015250565b60006156c860178361505a565b91506156d382615692565b602082019050919050565b600060208201905081810360008301526156f7816156bb565b9050919050565b7f496e636f72726563742049440000000000000000000000000000000000000000600082015250565b6000615734600c8361505a565b915061573f826156fe565b602082019050919050565b6000602082019050818103600083015261576381615727565b9050919050565b6000615775826147b7565b9150615780836147b7565b9250828203905081811115615798576157976152ac565b5b92915050565b7f5472616e73616374696f6e206661696c65640000000000000000000000000000600082015250565b60006157d460128361505a565b91506157df8261579e565b602082019050919050565b60006020820190508181036000830152615803816157c7565b9050919050565b7f496e76616c696420737570706c69657221000000000000000000000000000000600082015250565b600061584060118361505a565b915061584b8261580a565b602082019050919050565b6000602082019050818103600083015261586f81615833565b9050919050565b7f537570706c69657220646f65736e277420737570706c20626f64790000000000600082015250565b60006158ac601b8361505a565b91506158b782615876565b602082019050919050565b600060208201905081810360008301526158db8161589f565b9050919050565b7f537570706c69657220646f65736e277420737570706c20776865656c73000000600082015250565b6000615918601d8361505a565b9150615923826158e2565b602082019050919050565b600060208201905081810360008301526159478161590b565b9050919050565b7f496e76616c6964207369676e2075700000000000000000000000000000000000600082015250565b6000615984600f8361505a565b915061598f8261594e565b602082019050919050565b600060208201905081810360008301526159b381615977565b9050919050565b7f5065726d697373696f6e2064656e696564000000000000000000000000000000600082015250565b60006159f060118361505a565b91506159fb826159ba565b602082019050919050565b60006020820190508181036000830152615a1f816159e3565b9050919050565b7f496e76616c696420636172000000000000000000000000000000000000000000600082015250565b6000615a5c600b8361505a565b9150615a6782615a26565b602082019050919050565b60006020820190508181036000830152615a8b81615a4f565b9050919050565b7f4e6f7420796f7572206361722100000000000000000000000000000000000000600082015250565b6000615ac8600d8361505a565b9150615ad382615a92565b602082019050919050565b60006020820190508181036000830152615af781615abb565b9050919050565b7f496e636f72726563742074616700000000000000000000000000000000000000600082015250565b6000615b34600d8361505a565b9150615b3f82615afe565b602082019050919050565b60006020820190508181036000830152615b6381615b27565b9050919050565b7f4e487b7100000000000000000000000000000000000000000000000000000000600052603160045260246000fd5b7f496e76616c696420706172742074797065210000000000000000000000000000600082015250565b6000615bcf60128361505a565b9150615bda82615b99565b602082019050919050565b60006020820190508181036000830152615bfe81615bc2565b9050919050565b7f496e636f727265637420737570706c6965720000000000000000000000000000600082015250565b6000615c3b60128361505a565b9150615c4682615c05565b602082019050919050565b60006020820190508181036000830152615c6a81615c2e565b9050919050565b7f4d61782062696473207265636965766564000000000000000000000000000000600082015250565b6000615ca760118361505a565b9150615cb282615c71565b602082019050919050565b60006020820190508181036000830152615cd681615c9a565b9050919050565b615ce681614fa9565b82525050565b600060a082019050615d01600083018861481a565b615d0e602083018761481a565b615d1b6040830186615cdd565b615d286060830185615cdd565b615d356080830184615cdd565b9695505050505050565b6000604082019050615d54600083018561481a565b615d61602083018461481a565b939250505056fea26469706673582212207d3d60692566520b8ddf88ae5c08a025bfe66640f7abfbbc9343d90f0fa4a7ef64736f6c63430008100033",
  "immutableReferences": {},
  "source": "// SPDX-License-Identifier: MIT\npragma solidity >=0.8.16;\npragma experimental ABIEncoderV2;\n\n// @title New Market Place\n// @author Kunal Jain, P. Sahithi Reddy, Prince Varshney\n// @notice Market place implementation\ncontract NewMarketPlace {\n    // @dev Enum for the state of the auction the supplier is in\n    // @dev NOT_RUNNING : Auction is not running right now\n    // @dev BIDDING : Bidding phase of auction is going on\n    // @dev REVEALING : Reveal phase of auction is going on\n    enum AuctionState {\n        NOT_RUNNING,\n        BIDDING,\n        REVEALING\n    }\n\n    // @dev Enum for the part type\n    enum PartType {\n        WHEEL,\n        BODY\n    }\n\n    // @dev Stores the details of the supplier\n    struct Supplier {\n        uint256 tag;\n        PartType partType; // part type they are selling\n        uint256 quantityAvailable; // quantity of the part available\n        AuctionState currentState; // currest state of the auction\n        address wallet; // wallet address\n        uint256 maxBidders; // max bidders that can participate in the auction\n        uint256 bidsPlaced; // bids that have been placed\n        uint256 bidsRevealed; // bids that have been revealed\n    }\n\n\n    function isSupplier() public view returns (bool){\n        for(uint256 i=0;i<=num_supplier;i++){\n            if(suppliers[i].wallet == msg.sender) return true;\n        }\n        return false;\n    }\n\n    function getAllSuppliers() public view returns (Supplier[] memory){\n        return allSuppliers;\n    }\n    \n    // @dev Stores the details of the manufacturer\n    struct Manufacturer {\n        uint256 tag;\n        uint256 wheelSupplier; // tag of supplier who supplies wheels\n        uint256 wheelQuant; // number of wheels\n        uint256 bodySupplier; // tag of supplier who supplies body\n        uint256 bodyQuant; // number of bodies\n        uint256 carsAvailable; // number of cars available\n        uint256 carPrice; // price of the cars\n        address wallet; // wallet address\n    }\n\n    function isManufacturer() public view returns (bool){\n        for(uint256 i=0;i<=num_manufacturer;i++){\n            if(manufacturers[i].wallet == msg.sender) return true;\n        }\n        return false;\n    }\n\n    // @dev Stores the details of the cars sold\n    struct Car {\n        uint256 tag;\n        uint256 customerID;\n        uint256 manufacturerID;\n        uint256 wheelSupID;\n        uint256 bodySupID;\n    }\n\n    // @dev Stores the detail of the customer\n    struct Customer {\n        uint256 tag;\n        address wallet;\n    }\n\n    // @dev stores the details of the bids\n    struct Bid {\n        uint256 actualPrice;\n        uint256 actualQuantity;\n        uint256 actualKey;\n        bytes32 blindPrice;\n        bytes32 blindQuantity;\n        bytes32 blindKey;\n        uint256 limitingQuantity;\n        uint256 buyerID;\n        uint256 sellerID;\n        uint256 moneySent;\n        bool correctReveal;\n        address payable bidderAddress;\n    }\n\n    // @dev wallet address of the contract owner\n    address payable public owner;\n\n    mapping(uint256 => Supplier) public suppliers;\n    mapping(uint256 => Manufacturer) public manufacturers;\n    mapping(uint256 => Customer) public customers;\n    mapping(uint256 => Car) cars;\n    mapping(address => Bid[]) bidsTillNow;\n\n    uint256 num_supplier;\n    uint256 num_manufacturer;\n    uint256 num_customer;\n    uint256 num_cars;\n\n    Supplier[] allSuppliers;\n    // @notice Triggered when a supplier starts their bidding phase\n    // @param tag Tag of the supplier\n    // @param timestamp Block height when bidding phase starts\n    event StartSupplierBidding(uint256 tag, uint256 timestamp);\n\n    // @notice Triggered when a supplier starts their reveal phase\n    // @param tag Tag of the supplier\n    // @param timestamp Block height when reveal phase starts\n    event StartSupplierReveal(uint256 tag, uint256 timestamp);\n\n    // @notice Triggered when a supplier suppliers parts to a manufacturer\n    // @param supplierID Tag of the supplier\n    // @param manufacturerID Tag of the manufacturer\n    // @param quantity Quantities supplier\n    // @param price Price per unit\n    event AllocateFromSupplier(\n        uint256 supplierID,\n        uint256 manufacturerID,\n        uint256 quantity,\n        uint256 price\n    );\n\n    // @notice Triggered when a manufacturer places a bid\n    // @param manufacturerID Tag of the manufacturer\n    // @param supplierID Tag of the supplier\n    // @param blindPrice Hash of (Price + Key)\n    // @param blindQuantity Hash of (Quantity + Key)\n    // @param blindKey Hash of Key\n    event ManufacturerBids(\n        uint256 manufacturerID,\n        uint256 supplierID,\n        bytes32 blindPrice,\n        bytes32 blindQuantity,\n        bytes32 blindKey\n    );\n\n    // @notice Triggered when a manufacturer reveals a bid\n    // @param manufacturerID Tag of the manufacturer\n    // @param supplierID Tag of the supplier\n    // @param actualPrice Price per quantity offered in the bid\n    // @param actualQuantity Quantity requested in the bid\n    // @param actualKey Key used to hide the bid\n    event ManufacturerReveal(\n        uint256 manufacturerID,\n        uint256 supplierID,\n        uint256 actualPrice,\n        uint256 actualQuantity,\n        uint256 actualKey\n    );\n\n    // @notice Triggered when a car is sold by the manufacturer to a customer\n    // @param carID Tag of the car sold\n    // @param manufacturerID Tag of the manufacturer\n    // @param customerID Tag of the customer\n    event CarSold(uint256 carID, uint256 manufacturerID, uint256 customerID);\n\n    constructor() {\n        num_cars = 0;\n        num_customer = 0;\n        num_manufacturer = 0;\n        num_supplier = 0;\n        owner = payable(msg.sender);\n    }\n\n    // @dev Function to find the minumum of 2 unsigned integers\n    function minimum(uint256 a, uint256 b) public pure returns (uint256) {\n        return a >= b ? b : a;\n    }\n\n    // @notice Function to start bidding of a supplier\n    // @dev Triggeers StartSupplierBidding event\n    // @param tag Tag of the supplier\n    // @return uint256 Block height when the bidding starts\n    function supplierStartBidding(uint256 tag) public returns (uint256) {\n        require(tag <= num_supplier, \"Invalid supplier!\");\n        require(suppliers[tag].currentState == AuctionState.NOT_RUNNING);\n        require(msg.sender == suppliers[tag].wallet, \"Incorrect tag\");\n        suppliers[tag].currentState = AuctionState.BIDDING;\n        suppliers[tag].bidsPlaced = 0;\n        suppliers[tag].bidsRevealed = 0;\n        emit StartSupplierBidding(tag, block.timestamp);\n        return block.timestamp;\n    }\n\n    // @notice Function to start reveal of a supplier\n    // @dev Triggeers StartSupplierReveal event\n    // @param tag Tag of the supplier\n    // @return uint256 Block height when the reveal starts\n    function supplierStartReveal(uint256 tag) public returns (uint256) {\n        require(tag <= num_supplier, \"Invalid supplier!\");\n        require(suppliers[tag].currentState == AuctionState.BIDDING);\n        require(msg.sender == suppliers[tag].wallet, \"Incorrect tag\");\n        suppliers[tag].currentState = AuctionState.REVEALING;\n        emit StartSupplierReveal(tag, block.timestamp);\n        return block.timestamp;\n    }\n\n    // @notice Function to end the auction of a supplier\n    // @dev Triggers AllocateFromSupplier and back payments on bids\n    // @param tag Tag of the supplier\n    // @return uint256 Block height when the auction ends\n    function supplierEndAuction(uint256 tag) public returns (uint256) {\n        require(tag <= num_supplier, \"Invalid supplier!\");\n        require(suppliers[tag].currentState == AuctionState.REVEALING);\n        require(msg.sender == suppliers[tag].wallet, \"Incorrect tag\");\n        suppliers[tag].currentState = AuctionState.NOT_RUNNING;\n\n        // bubble sorting the bids\n        for (\n            uint256 i = 0;\n            i < bidsTillNow[suppliers[tag].wallet].length;\n            i++\n        ) {\n            for (uint256 j = 0; j < i; j++)\n                if (\n                    bidsTillNow[suppliers[tag].wallet][i].actualPrice <\n                    bidsTillNow[suppliers[tag].wallet][j].actualPrice\n                ) {\n                    Bid memory x = bidsTillNow[suppliers[tag].wallet][i];\n                    bidsTillNow[suppliers[tag].wallet][i] = bidsTillNow[\n                        suppliers[tag].wallet\n                    ][j];\n                    bidsTillNow[suppliers[tag].wallet][j] = x;\n                }\n        }\n\n        // the allocations\n        uint256[100] memory allocatingPrices;\n        uint256[100] memory allocatingQuantities;\n        uint256[100] memory moneySentWithBid;\n\n        // optimal resource allocation\n        for (\n            uint256 i = 0;\n            i < bidsTillNow[suppliers[tag].wallet].length;\n            i++\n        ) {\n            Bid memory bid = bidsTillNow[suppliers[tag].wallet][i];\n            if (bid.correctReveal == false) continue;\n\n            moneySentWithBid[bid.buyerID] = bid.moneySent;\n\n            uint256 allocatingHere = minimum(\n                suppliers[tag].quantityAvailable,\n                bid.limitingQuantity\n            );\n            allocatingHere = minimum(allocatingHere, bid.actualQuantity);\n\n            allocatingPrices[bid.buyerID] = bid.actualPrice;\n            allocatingQuantities[bid.buyerID] = allocatingHere;\n            suppliers[tag].quantityAvailable -= allocatingHere;\n            bidsTillNow[suppliers[tag].wallet][i]\n                .actualQuantity -= allocatingHere;\n        }\n\n        // allocating to maximize profit\n        for (\n            uint256 i = 0;\n            i < bidsTillNow[suppliers[tag].wallet].length;\n            i++\n        ) {\n            Bid memory bid = bidsTillNow[suppliers[tag].wallet][i];\n            if (bid.correctReveal == false) continue;\n            uint256 allocatingHere = minimum(\n                suppliers[tag].quantityAvailable,\n                bid.actualQuantity\n            );\n\n            allocatingQuantities[bid.buyerID] += allocatingHere;\n            suppliers[tag].quantityAvailable -= allocatingHere;\n            bidsTillNow[suppliers[tag].wallet][i]\n                .actualQuantity -= allocatingHere;\n        }\n\n        // emit all allocations\n        for (uint256 i = 1; i <= num_manufacturer; i++)\n            if (allocatingQuantities[i] > 0) {\n                emit AllocateFromSupplier(\n                    tag,\n                    i,\n                    allocatingQuantities[i],\n                    allocatingPrices[i]\n                );\n                // non bid money to manufacturer\n                require(\n                    payable(manufacturers[i].wallet).send(\n                        moneySentWithBid[i] -\n                            allocatingPrices[i] *\n                            allocatingQuantities[i]\n                    ),\n                    \"Transaction failed\"\n                );\n                // bid money to supplier\n                require(\n                    payable(suppliers[tag].wallet).send(\n                        allocatingPrices[i] * allocatingQuantities[i]\n                    ),\n                    \"Transaction failed\"\n                );\n                //update all the manufacturers quanitites to make cars\n                if (suppliers[tag].partType == PartType.BODY) {\n                    manufacturers[i].bodyQuant += allocatingQuantities[i];\n                } else if (suppliers[tag].partType == PartType.WHEEL) {\n                    manufacturers[i].wheelQuant += allocatingQuantities[i];\n                } else revert();\n                updateManufacturerCars(i);\n            }\n        while (bidsTillNow[suppliers[tag].wallet].length > 0)\n            bidsTillNow[suppliers[tag].wallet].pop();\n\n        return block.timestamp;\n    }\n\n    // @dev Updates the cars of a manufacturer based on the quantities of parts it has\n    function updateManufacturerCars(uint256 tag) private {\n        uint256 carsMade = minimum(\n            manufacturers[tag].bodyQuant,\n            manufacturers[tag].wheelQuant\n        );\n        manufacturers[tag].bodyQuant -= carsMade;\n        manufacturers[tag].wheelQuant -= carsMade;\n        manufacturers[tag].carsAvailable += carsMade;\n    }\n\n    // @notice Function for manufacturers to place bids\n    // @dev Triggers ManufacturerBids event\n    // @param manufacturerID Tag of the manufacturer\n    // @param supplierID Tag of the supplier\n    // @param blindPrice Price per unit hidden using the key and SHA256 encryption\n    // @param blindQuantity Quantities requested hidden using the key and SHA256 encryption\n    // @param blindKey Key used to hide the price and quantity\n    // @return limitingQuantity Liming quantity of the manufacturer for optimal resource allocation\n    function manufacturerPlacesBid(\n        uint256 manufacturerID,\n        uint256 supplierID,\n        bytes32 blindPrice,\n        bytes32 blindQuantity,\n        bytes32 blindKey\n    ) public payable returns (uint256 limitingQuantity) {\n        require(manufacturerID <= num_manufacturer, \"Invalid ID\");\n        require(supplierID <= num_supplier, \"Invalid ID\");\n        require(\n            msg.sender == manufacturers[manufacturerID].wallet,\n            \"Incorrect ID\"\n        );\n        if (suppliers[supplierID].partType == PartType.WHEEL) {\n            require(\n                manufacturers[manufacturerID].wheelSupplier == supplierID,\n                \"Incorrect supplier\"\n            );\n        } else {\n            require(\n                manufacturers[manufacturerID].bodySupplier == supplierID,\n                \"Incorrect supplier\"\n            );\n        }\n        require(\n            suppliers[supplierID].bidsPlaced <=\n                suppliers[supplierID].maxBidders,\n            \"Max bids recieved\"\n        );\n        uint256 limiting;\n        if (suppliers[supplierID].partType == PartType.BODY) {\n            uint256 bodySupplier = manufacturers[manufacturerID].bodySupplier;\n            limiting =\n                suppliers[bodySupplier].quantityAvailable +\n                manufacturers[manufacturerID].bodyQuant;\n        } else {\n            uint256 wheelSupplier = manufacturers[manufacturerID].wheelSupplier;\n            limiting =\n                suppliers[wheelSupplier].quantityAvailable +\n                manufacturers[manufacturerID].wheelQuant;\n        }\n        bidsTillNow[suppliers[supplierID].wallet].push(\n            Bid(\n                0,\n                0,\n                0,\n                blindPrice,\n                blindQuantity,\n                blindKey,\n                limiting,\n                manufacturerID,\n                supplierID,\n                msg.value,\n                false,\n                payable(msg.sender)\n            )\n        );\n        suppliers[supplierID].bidsPlaced += 1;\n        emit ManufacturerBids(\n            manufacturerID,\n            supplierID,\n            blindPrice,\n            blindQuantity,\n            blindKey\n        );\n        return limiting;\n    }\n\n    // @notice Function for manufacturers to reveal bids\n    // @dev Triggers ManufacturerReveal event\n    // @param manufacturerID Tag of the manufacturer\n    // @param supplierID Tag of the supplier\n    // @param actualPrice Price per unit\n    // @param actualQuantity Quantities requested\n    // @param actualKey Key used to hide the price and quantity\n    // @return bool Reveal was valid or not\n    function manufacturerRevealsBid(\n        uint256 manufacturerID,\n        uint256 supplierID,\n        uint256 actualPrice,\n        uint256 actualQuantity,\n        uint256 actualKey\n    ) public returns (bool) {\n        require(manufacturerID <= num_manufacturer, \"Invalid ID\");\n        require(supplierID <= num_supplier, \"Invalid ID\");\n        require(\n            suppliers[supplierID].currentState == AuctionState.REVEALING,\n            \"Reveal phase not going on\"\n        );\n        require(\n            manufacturers[manufacturerID].wallet == msg.sender,\n            \"Invalid ID\"\n        );\n        for (\n            uint256 i = 0;\n            i < bidsTillNow[suppliers[supplierID].wallet].length;\n            i++\n        ) {\n            if (\n                bidsTillNow[suppliers[supplierID].wallet][i].buyerID !=\n                manufacturerID\n            ) continue;\n            Bid memory bid = bidsTillNow[suppliers[supplierID].wallet][i];\n            require(bid.correctReveal == false, \"Bid already revealed\");\n            require(\n                keccak256(abi.encodePacked(actualKey)) == bid.blindKey,\n                \"Incorrect key -- keeping your money\"\n            );\n            require(\n                keccak256(abi.encodePacked(actualKey + actualPrice)) ==\n                    bid.blindPrice,\n                \"Incorrect price -- keeping your money\"\n            );\n            require(\n                keccak256(abi.encodePacked(actualKey + actualQuantity)) ==\n                    bid.blindQuantity,\n                \"Incorrect quantity -- keeping your money\"\n            );\n            uint256 effectivePrice = actualPrice * actualQuantity;\n            require(\n                effectivePrice < bid.moneySent,\n                \"Insufficient funds sent -- keeping your money\"\n            );\n            bidsTillNow[suppliers[supplierID].wallet][i].correctReveal = true;\n            bidsTillNow[suppliers[supplierID].wallet][i]\n                .actualPrice = actualPrice;\n            bidsTillNow[suppliers[supplierID].wallet][i]\n                .actualQuantity = actualQuantity;\n            bidsTillNow[suppliers[supplierID].wallet][i].actualKey = actualKey;\n            suppliers[supplierID].bidsRevealed += 1;\n            emit ManufacturerReveal(\n                manufacturerID,\n                supplierID,\n                actualPrice,\n                actualQuantity,\n                actualKey\n            );\n            return true;\n        }\n        return false;\n    }\n\n    // @notice Function for customers to buy cars\n    // @dev Triggers CarSold event\n    // @param customerID Tag of the customer\n    // @param manufacturerID Tag of the manufacturer\n    // @param priceOfferedPerCar Price per unit\n    // @param quantityRequested Quantities requested\n    // @return uint256 Quantity supplied\n    function customerBuysCar(\n        uint256 customerID,\n        uint256 manufacturerID,\n        uint256 priceOfferedPerCar,\n        uint256 quantityRequested\n    ) public payable returns (uint256) {\n        require(customerID <= num_customer, \"Invalid customer\");\n        require(manufacturerID <= num_manufacturer, \"Invalid customer\");\n        require(\n            priceOfferedPerCar >= manufacturers[manufacturerID].carPrice,\n            \"Cost is higher\"\n        );\n        require(\n            msg.value >= priceOfferedPerCar * quantityRequested,\n            \"Insufficient funds sent\"\n        );\n        require(\n            msg.sender == payable(customers[customerID].wallet),\n            \"Incorrect ID\"\n        );\n        uint256 selling = minimum(\n            quantityRequested,\n            manufacturers[manufacturerID].carsAvailable\n        );\n        for (uint256 i = 0; i < selling; i++) {\n            num_cars++;\n            cars[num_cars] = Car(\n                num_cars,\n                customerID,\n                manufacturerID,\n                manufacturers[manufacturerID].wheelSupplier,\n                manufacturers[manufacturerID].bodySupplier\n            );\n            emit CarSold(num_cars, manufacturerID, customerID);\n        }\n        manufacturers[manufacturerID].carsAvailable -= selling;\n        require(\n            payable(manufacturers[manufacturerID].wallet).send(\n                selling * priceOfferedPerCar\n            ),\n            \"Transaction failed\"\n        );\n        require(\n            payable(msg.sender).send(msg.value - selling * priceOfferedPerCar),\n            \"Transaction failed\"\n        );\n        return selling;\n    }\n\n    // @notice Verify details of your car\n    // @param customerID Tag of the customer\n    // @param carID Tag of the car\n    // @return id Tag of the car\n    // @return manufacturerID Tag of the manufacturer who sold the car\n    // @return wheelSupplier Tag of wheel supplier\n    // @return bodySupplier Tag of body supplier\n    function verifyCar(uint256 customerID, uint256 carID)\n        public\n        view\n        returns (\n            uint256 id,\n            uint256 manufacturerID,\n            uint256 wheelSupplier,\n            uint256 bodySupplier\n        )\n    {\n        require(customerID <= num_customer, \"Invalid car\");\n        require(customers[customerID].wallet == msg.sender, \"Incorrect ID\");\n        require(carID <= num_cars, \"Invalid car\");\n        require(cars[carID].customerID == customerID, \"Not your car!\");\n        return (\n            carID,\n            cars[carID].manufacturerID,\n            cars[carID].wheelSupID,\n            cars[carID].bodySupID\n        );\n    }\n\n    // @notice Add a supplier to the supply chain\n    // @param partType Type of the part supplier is going to provide. 0 for body and 1 for wheels\n    // @param quantityAvailable Quantity available with the supplier\n    // @param addr Wallet address of the supplier\n    // @param auctionBidders Number of people that can bid in it's auction\n    // @return Tag of the supplier added\n    function addSupplier(\n        uint256 partType,\n        uint256 quantityAvailable,\n        address payable addr,\n        uint256 auctionBidders\n    ) public payable returns (uint256 tag) {\n        require(partType <= 1, \"Invalid part type!\");\n        require(msg.sender == addr, \"Invalid sign up\");\n        num_supplier++;\n        PartType here = PartType.BODY;\n        if (partType == 1) here = PartType.WHEEL;\n        suppliers[num_supplier] = Supplier(\n            num_supplier,\n            here,\n            quantityAvailable,\n            AuctionState.NOT_RUNNING,\n            addr,\n            auctionBidders,\n            0,\n            0\n        );\n        allSuppliers.push(Supplier(\n            num_supplier,\n            here,\n            quantityAvailable,\n            AuctionState.NOT_RUNNING,\n            addr,\n            auctionBidders,\n            0,\n            0\n        ));\n        return num_supplier;\n    }\n\n    // @notice Update the quantity available with a supplier\n    // @param tag Tag of the supplier\n    // @param newQuantity New quantity to add\n    // @return Final total quantity with the supplier\n    function updateSupplierQuantity(uint256 tag, uint256 newQuantity)\n        public\n        returns (uint256 totalQuantity)\n    {\n        require(tag <= num_supplier, \"Invalid ID\");\n        require(suppliers[tag].wallet == msg.sender, \"Incorrect ID\");\n        suppliers[tag].quantityAvailable += newQuantity;\n        return suppliers[tag].quantityAvailable;\n    }\n\n    // @notice Add a supplier to the supply chain\n    // @param addr Wallet address of the supplier\n    // @param wheelSupplier Tag of supplier to buy wheels from\n    // @param bodySupplier Tag of supplier to buy body from\n    // @param askingPrice Minimum asking price for the cars\n    // @return Tag of the manufacturer added\n    function addManufacturer(\n        address payable addr,\n        uint256 wheelSupplier,\n        uint256 bodySupplier,\n        uint256 askingPrice\n    ) public returns (uint256 tag) {\n        require(\n            wheelSupplier >= 1 && wheelSupplier <= num_supplier,\n            \"Invalid supplier!\"\n        );\n        require(\n            bodySupplier >= 1 && bodySupplier <= num_supplier,\n            \"Invalid supplier!\"\n        );\n        require(\n            suppliers[bodySupplier].partType == PartType.BODY,\n            \"Supplier doesn't suppl body\"\n        );\n        require(\n            suppliers[wheelSupplier].partType == PartType.WHEEL,\n            \"Supplier doesn't suppl wheels\"\n        );\n        require(msg.sender == addr, \"Invalid sign up\");\n        num_manufacturer++;\n        manufacturers[num_manufacturer] = Manufacturer(\n            num_manufacturer,\n            wheelSupplier,\n            0,\n            bodySupplier,\n            0,\n            0,\n            askingPrice,\n            addr\n        );\n        return num_manufacturer;\n    }\n\n    // @notice Add a supplier to the supply chain\n    // @param addr Wallet address of the supplier\n    // @return Tag of the customer added\n    function addCustomer(address payable addr) public returns (uint256 tag) {\n        require(msg.sender == addr, \"Invalid sign up\");\n        num_customer++;\n        customers[num_customer] = Customer(num_customer, addr);\n        return num_customer;\n    }\n\n    // @notice Get the number of suppliers\n    // @return uint256 Number of suppliers\n    function getSuppliers() public view returns (uint256) {\n        return num_supplier;\n    }\n\n    // @notice Get the number of manufacturers\n    // @return uint256 Number of manufacturers\n    function getManufacturers() public view returns (uint256) {\n        return num_manufacturer;\n    }\n\n    // @notice Get the number of customers\n    // @return uint256 Number of customers\n    function getCustomers() public view returns (uint256) {\n        return num_customer;\n    }\n\n    // @notice Get the number of cars\n    // @return uint256 Number of cars\n    function getCars() public view returns (uint256) {\n        return num_cars;\n    }\n\n    // @notice Get quantity of each part and car with a manufacturer\n    // @return uint256 Number of suppliers\n    function getManufacturerQuantities(uint256 tag)\n        public\n        view\n        returns (\n            uint256 quantityWheel,\n            uint256 quantityBody,\n            uint256 quantityCar\n        )\n    {\n        require(tag <= num_manufacturer);\n        require(\n            (msg.sender == owner || msg.sender == manufacturers[tag].wallet),\n            \"Permission denied\"\n        );\n        return (\n            manufacturers[tag].wheelQuant,\n            manufacturers[tag].bodyQuant,\n            manufacturers[tag].carsAvailable\n        );\n    }\n    function getSupplierID(address supplier_addr)\n    public \n    view\n    returns(\n        uint256 tag\n    ){\n        for(uint256 i=0;i<allSuppliers.length;i++){\n            if(allSuppliers[i].wallet == supplier_addr){\n                return allSuppliers[i].tag;\n            }\n        }\n    }\n    function getAuctionState(uint256 tag)\n    public\n    view\n    returns(\n        uint state\n    ){\n        require(tag <= num_supplier);\n        if(suppliers[tag].currentState == AuctionState.NOT_RUNNING){\n            return 1;\n        }\n        else if(suppliers[tag].currentState == AuctionState.BIDDING){\n            return 2;\n        }\n        else if(suppliers[tag].currentState == AuctionState.REVEALING){\n            return 3;\n        }\n    }\n}\n",
  "sourcePath": "/home/sahithi/acads/sem7/dtb/Supply-Chain-Smartcontract/contracts/MarketPlace2.sol",
  "compiler": {
    "name": "solc",
    "version": "0.8.16+commit.07a7930e.Emscripten.clang"
  },
  "schemaVersion": "3.4.8",
  "updatedAt": "2022-09-14T16:57:23.504Z",
  "networkType": "ethereum",
  "devdoc": {
    "kind": "dev",
    "methods": {},
    "version": 1
  },
  "userdoc": {
    "kind": "user",
    "methods": {},
    "version": 1
  }
}