{
  "contractName": "NewMarketPlace",
  "abi": [
    {
      "inputs": [],
      "stateMutability": "nonpayable",
      "type": "constructor"
    },
    {
      "anonymous": false,
      "inputs": [
        {
          "indexed": false,
          "internalType": "uint256",
          "name": "supplierID",
          "type": "uint256"
        },
        {
          "indexed": false,
          "internalType": "uint256",
          "name": "manufacturerID",
          "type": "uint256"
        },
        {
          "indexed": false,
          "internalType": "uint256",
          "name": "quantity",
          "type": "uint256"
        },
        {
          "indexed": false,
          "internalType": "uint256",
          "name": "price",
          "type": "uint256"
        }
      ],
      "name": "AllocateFromSupplier",
      "type": "event"
    },
    {
      "anonymous": false,
      "inputs": [
        {
          "indexed": false,
          "internalType": "uint256",
          "name": "carID",
          "type": "uint256"
        },
        {
          "indexed": false,
          "internalType": "uint256",
          "name": "manufacturerID",
          "type": "uint256"
        },
        {
          "indexed": false,
          "internalType": "uint256",
          "name": "customerID",
          "type": "uint256"
        }
      ],
      "name": "CarSold",
      "type": "event"
    },
    {
      "anonymous": false,
      "inputs": [
        {
          "indexed": false,
          "internalType": "uint256",
          "name": "manufacturerID",
          "type": "uint256"
        },
        {
          "indexed": false,
          "internalType": "uint256",
          "name": "supplierID",
          "type": "uint256"
        },
        {
          "indexed": false,
          "internalType": "bytes32",
          "name": "blindPrice",
          "type": "bytes32"
        },
        {
          "indexed": false,
          "internalType": "bytes32",
          "name": "blindQuantity",
          "type": "bytes32"
        },
        {
          "indexed": false,
          "internalType": "bytes32",
          "name": "blindKey",
          "type": "bytes32"
        }
      ],
      "name": "ManufacturerBids",
      "type": "event"
    },
    {
      "anonymous": false,
      "inputs": [
        {
          "indexed": false,
          "internalType": "uint256",
          "name": "manufacturerID",
          "type": "uint256"
        },
        {
          "indexed": false,
          "internalType": "uint256",
          "name": "supplierID",
          "type": "uint256"
        },
        {
          "indexed": false,
          "internalType": "uint256",
          "name": "actualPrice",
          "type": "uint256"
        },
        {
          "indexed": false,
          "internalType": "uint256",
          "name": "actualQuantity",
          "type": "uint256"
        },
        {
          "indexed": false,
          "internalType": "uint256",
          "name": "actualKey",
          "type": "uint256"
        }
      ],
      "name": "ManufacturerReveal",
      "type": "event"
    },
    {
      "anonymous": false,
      "inputs": [
        {
          "indexed": false,
          "internalType": "uint256",
          "name": "tag",
          "type": "uint256"
        },
        {
          "indexed": false,
          "internalType": "uint256",
          "name": "timestamp",
          "type": "uint256"
        }
      ],
      "name": "StartSupplierBidding",
      "type": "event"
    },
    {
      "anonymous": false,
      "inputs": [
        {
          "indexed": false,
          "internalType": "uint256",
          "name": "tag",
          "type": "uint256"
        },
        {
          "indexed": false,
          "internalType": "uint256",
          "name": "timestamp",
          "type": "uint256"
        }
      ],
      "name": "StartSupplierReveal",
      "type": "event"
    },
    {
      "inputs": [
        {
          "internalType": "uint256",
          "name": "",
          "type": "uint256"
        }
      ],
      "name": "customers",
      "outputs": [
        {
          "internalType": "uint256",
          "name": "tag",
          "type": "uint256"
        },
        {
          "internalType": "address",
          "name": "wallet",
          "type": "address"
        }
      ],
      "stateMutability": "view",
      "type": "function"
    },
    {
      "inputs": [
        {
          "internalType": "uint256",
          "name": "",
          "type": "uint256"
        }
      ],
      "name": "manufacturers",
      "outputs": [
        {
          "internalType": "uint256",
          "name": "tag",
          "type": "uint256"
        },
        {
          "internalType": "uint256",
          "name": "wheelSupplier",
          "type": "uint256"
        },
        {
          "internalType": "uint256",
          "name": "wheelQuant",
          "type": "uint256"
        },
        {
          "internalType": "uint256",
          "name": "bodySupplier",
          "type": "uint256"
        },
        {
          "internalType": "uint256",
          "name": "bodyQuant",
          "type": "uint256"
        },
        {
          "internalType": "uint256",
          "name": "carsAvailable",
          "type": "uint256"
        },
        {
          "internalType": "uint256",
          "name": "carPrice",
          "type": "uint256"
        },
        {
          "internalType": "address",
          "name": "wallet",
          "type": "address"
        }
      ],
      "stateMutability": "view",
      "type": "function"
    },
    {
      "inputs": [],
      "name": "owner",
      "outputs": [
        {
          "internalType": "address payable",
          "name": "",
          "type": "address"
        }
      ],
      "stateMutability": "view",
      "type": "function"
    },
    {
      "inputs": [
        {
          "internalType": "uint256",
          "name": "",
          "type": "uint256"
        }
      ],
      "name": "suppliers",
      "outputs": [
        {
          "internalType": "uint256",
          "name": "tag",
          "type": "uint256"
        },
        {
          "internalType": "enum NewMarketPlace.PartType",
          "name": "partType",
          "type": "uint8"
        },
        {
          "internalType": "uint256",
          "name": "quantityAvailable",
          "type": "uint256"
        },
        {
          "internalType": "enum NewMarketPlace.AuctionState",
          "name": "currentState",
          "type": "uint8"
        },
        {
          "internalType": "address",
          "name": "wallet",
          "type": "address"
        },
        {
          "internalType": "uint256",
          "name": "maxBidders",
          "type": "uint256"
        },
        {
          "internalType": "uint256",
          "name": "bidsPlaced",
          "type": "uint256"
        },
        {
          "internalType": "uint256",
          "name": "bidsRevealed",
          "type": "uint256"
        }
      ],
      "stateMutability": "view",
      "type": "function"
    },
    {
      "inputs": [],
      "name": "isSupplier",
      "outputs": [
        {
          "internalType": "bool",
          "name": "",
          "type": "bool"
        }
      ],
      "stateMutability": "view",
      "type": "function"
    },
    {
      "inputs": [],
      "name": "getAllSuppliers",
      "outputs": [
        {
          "components": [
            {
              "internalType": "uint256",
              "name": "tag",
              "type": "uint256"
            },
            {
              "internalType": "enum NewMarketPlace.PartType",
              "name": "partType",
              "type": "uint8"
            },
            {
              "internalType": "uint256",
              "name": "quantityAvailable",
              "type": "uint256"
            },
            {
              "internalType": "enum NewMarketPlace.AuctionState",
              "name": "currentState",
              "type": "uint8"
            },
            {
              "internalType": "address",
              "name": "wallet",
              "type": "address"
            },
            {
              "internalType": "uint256",
              "name": "maxBidders",
              "type": "uint256"
            },
            {
              "internalType": "uint256",
              "name": "bidsPlaced",
              "type": "uint256"
            },
            {
              "internalType": "uint256",
              "name": "bidsRevealed",
              "type": "uint256"
            }
          ],
          "internalType": "struct NewMarketPlace.Supplier[]",
          "name": "",
          "type": "tuple[]"
        }
      ],
      "stateMutability": "view",
      "type": "function"
    },
    {
      "inputs": [],
      "name": "isManufacturer",
      "outputs": [
        {
          "internalType": "bool",
          "name": "",
          "type": "bool"
        }
      ],
      "stateMutability": "view",
      "type": "function"
    },
    {
      "inputs": [
        {
          "internalType": "uint256",
          "name": "a",
          "type": "uint256"
        },
        {
          "internalType": "uint256",
          "name": "b",
          "type": "uint256"
        }
      ],
      "name": "minimum",
      "outputs": [
        {
          "internalType": "uint256",
          "name": "",
          "type": "uint256"
        }
      ],
      "stateMutability": "pure",
      "type": "function"
    },
    {
      "inputs": [
        {
          "internalType": "uint256",
          "name": "tag",
          "type": "uint256"
        }
      ],
      "name": "supplierStartBidding",
      "outputs": [
        {
          "internalType": "uint256",
          "name": "",
          "type": "uint256"
        }
      ],
      "stateMutability": "nonpayable",
      "type": "function"
    },
    {
      "inputs": [
        {
          "internalType": "uint256",
          "name": "tag",
          "type": "uint256"
        }
      ],
      "name": "supplierStartReveal",
      "outputs": [
        {
          "internalType": "uint256",
          "name": "",
          "type": "uint256"
        }
      ],
      "stateMutability": "nonpayable",
      "type": "function"
    },
    {
      "inputs": [
        {
          "internalType": "uint256",
          "name": "tag",
          "type": "uint256"
        }
      ],
      "name": "supplierEndAuction",
      "outputs": [
        {
          "internalType": "uint256",
          "name": "",
          "type": "uint256"
        }
      ],
      "stateMutability": "nonpayable",
      "type": "function"
    },
    {
      "inputs": [
        {
          "internalType": "uint256",
          "name": "manufacturerID",
          "type": "uint256"
        },
        {
          "internalType": "uint256",
          "name": "supplierID",
          "type": "uint256"
        },
        {
          "internalType": "bytes32",
          "name": "blindPrice",
          "type": "bytes32"
        },
        {
          "internalType": "bytes32",
          "name": "blindQuantity",
          "type": "bytes32"
        },
        {
          "internalType": "bytes32",
          "name": "blindKey",
          "type": "bytes32"
        }
      ],
      "name": "manufacturerPlacesBid",
      "outputs": [
        {
          "internalType": "uint256",
          "name": "limitingQuantity",
          "type": "uint256"
        }
      ],
      "stateMutability": "payable",
      "type": "function"
    },
    {
      "inputs": [
        {
          "internalType": "uint256",
          "name": "manufacturerID",
          "type": "uint256"
        },
        {
          "internalType": "uint256",
          "name": "supplierID",
          "type": "uint256"
        },
        {
          "internalType": "uint256",
          "name": "actualPrice",
          "type": "uint256"
        },
        {
          "internalType": "uint256",
          "name": "actualQuantity",
          "type": "uint256"
        },
        {
          "internalType": "uint256",
          "name": "actualKey",
          "type": "uint256"
        }
      ],
      "name": "manufacturerRevealsBid",
      "outputs": [
        {
          "internalType": "bool",
          "name": "",
          "type": "bool"
        }
      ],
      "stateMutability": "nonpayable",
      "type": "function"
    },
    {
      "inputs": [
        {
          "internalType": "uint256",
          "name": "customerID",
          "type": "uint256"
        },
        {
          "internalType": "uint256",
          "name": "manufacturerID",
          "type": "uint256"
        },
        {
          "internalType": "uint256",
          "name": "priceOfferedPerCar",
          "type": "uint256"
        },
        {
          "internalType": "uint256",
          "name": "quantityRequested",
          "type": "uint256"
        }
      ],
      "name": "customerBuysCar",
      "outputs": [
        {
          "internalType": "uint256",
          "name": "",
          "type": "uint256"
        }
      ],
      "stateMutability": "payable",
      "type": "function"
    },
    {
      "inputs": [
        {
          "internalType": "uint256",
          "name": "customerID",
          "type": "uint256"
        },
        {
          "internalType": "uint256",
          "name": "carID",
          "type": "uint256"
        }
      ],
      "name": "verifyCar",
      "outputs": [
        {
          "internalType": "uint256",
          "name": "id",
          "type": "uint256"
        },
        {
          "internalType": "uint256",
          "name": "manufacturerID",
          "type": "uint256"
        },
        {
          "internalType": "uint256",
          "name": "wheelSupplier",
          "type": "uint256"
        },
        {
          "internalType": "uint256",
          "name": "bodySupplier",
          "type": "uint256"
        }
      ],
      "stateMutability": "view",
      "type": "function"
    },
    {
      "inputs": [
        {
          "internalType": "uint256",
          "name": "partType",
          "type": "uint256"
        },
        {
          "internalType": "uint256",
          "name": "quantityAvailable",
          "type": "uint256"
        },
        {
          "internalType": "address payable",
          "name": "addr",
          "type": "address"
        },
        {
          "internalType": "uint256",
          "name": "auctionBidders",
          "type": "uint256"
        }
      ],
      "name": "addSupplier",
      "outputs": [
        {
          "internalType": "uint256",
          "name": "tag",
          "type": "uint256"
        }
      ],
      "stateMutability": "payable",
      "type": "function"
    },
    {
      "inputs": [
        {
          "internalType": "uint256",
          "name": "tag",
          "type": "uint256"
        },
        {
          "internalType": "uint256",
          "name": "newQuantity",
          "type": "uint256"
        }
      ],
      "name": "updateSupplierQuantity",
      "outputs": [
        {
          "internalType": "uint256",
          "name": "totalQuantity",
          "type": "uint256"
        }
      ],
      "stateMutability": "nonpayable",
      "type": "function"
    },
    {
      "inputs": [
        {
          "internalType": "address payable",
          "name": "addr",
          "type": "address"
        },
        {
          "internalType": "uint256",
          "name": "wheelSupplier",
          "type": "uint256"
        },
        {
          "internalType": "uint256",
          "name": "bodySupplier",
          "type": "uint256"
        },
        {
          "internalType": "uint256",
          "name": "askingPrice",
          "type": "uint256"
        }
      ],
      "name": "addManufacturer",
      "outputs": [
        {
          "internalType": "uint256",
          "name": "tag",
          "type": "uint256"
        }
      ],
      "stateMutability": "nonpayable",
      "type": "function"
    },
    {
      "inputs": [
        {
          "internalType": "address payable",
          "name": "addr",
          "type": "address"
        }
      ],
      "name": "addCustomer",
      "outputs": [
        {
          "internalType": "uint256",
          "name": "tag",
          "type": "uint256"
        }
      ],
      "stateMutability": "nonpayable",
      "type": "function"
    },
    {
      "inputs": [],
      "name": "getCustomers",
      "outputs": [
        {
          "internalType": "uint256",
          "name": "",
          "type": "uint256"
        }
      ],
      "stateMutability": "view",
      "type": "function"
    },
    {
      "inputs": [],
      "name": "getCars",
      "outputs": [
        {
          "internalType": "uint256",
          "name": "",
          "type": "uint256"
        }
      ],
      "stateMutability": "view",
      "type": "function"
    },
    {
      "inputs": [
        {
          "internalType": "uint256",
          "name": "tag",
          "type": "uint256"
        }
      ],
      "name": "getManufacturerQuantities",
      "outputs": [
        {
          "internalType": "uint256",
          "name": "quantityWheel",
          "type": "uint256"
        },
        {
          "internalType": "uint256",
          "name": "quantityBody",
          "type": "uint256"
        },
        {
          "internalType": "uint256",
          "name": "quantityCar",
          "type": "uint256"
        }
      ],
      "stateMutability": "view",
      "type": "function"
    },
    {
      "inputs": [
        {
          "internalType": "address",
          "name": "supplier_addr",
          "type": "address"
        }
      ],
      "name": "getSupplierID",
      "outputs": [
        {
          "internalType": "uint256",
          "name": "tag",
          "type": "uint256"
        }
      ],
      "stateMutability": "view",
      "type": "function"
    },
    {
      "inputs": [
        {
          "internalType": "address",
          "name": "manufacturer_addr",
          "type": "address"
        }
      ],
      "name": "getManufacturerID",
      "outputs": [
        {
          "internalType": "uint256",
          "name": "tag",
          "type": "uint256"
        },
        {
          "internalType": "uint256",
          "name": "wheelSupplier",
          "type": "uint256"
        },
        {
          "internalType": "uint256",
          "name": "wheelQuant",
          "type": "uint256"
        },
        {
          "internalType": "uint256",
          "name": "bodySupplier",
          "type": "uint256"
        },
        {
          "internalType": "uint256",
          "name": "bodyQuant",
          "type": "uint256"
        },
        {
          "internalType": "uint256",
          "name": "carsAvailable",
          "type": "uint256"
        },
        {
          "internalType": "uint256",
          "name": "carPrice",
          "type": "uint256"
        },
        {
          "internalType": "address",
          "name": "wallet",
          "type": "address"
        }
      ],
      "stateMutability": "view",
      "type": "function"
    },
    {
      "inputs": [
        {
          "internalType": "uint256",
          "name": "tag",
          "type": "uint256"
        }
      ],
      "name": "getAuctionState",
      "outputs": [
        {
          "internalType": "uint256",
          "name": "state",
          "type": "uint256"
        }
      ],
      "stateMutability": "view",
      "type": "function"
    },
    {
      "inputs": [
        {
          "internalType": "address",
          "name": "wallet",
          "type": "address"
        },
        {
          "internalType": "uint256",
          "name": "idx",
          "type": "uint256"
        }
      ],
      "name": "getSupplierBids",
      "outputs": [
        {
          "components": [
            {
              "internalType": "uint256",
              "name": "actualPrice",
              "type": "uint256"
            },
            {
              "internalType": "uint256",
              "name": "actualQuantity",
              "type": "uint256"
            },
            {
              "internalType": "uint256",
              "name": "actualKey",
              "type": "uint256"
            },
            {
              "internalType": "bytes32",
              "name": "blindPrice",
              "type": "bytes32"
            },
            {
              "internalType": "bytes32",
              "name": "blindQuantity",
              "type": "bytes32"
            },
            {
              "internalType": "bytes32",
              "name": "blindKey",
              "type": "bytes32"
            },
            {
              "internalType": "uint256",
              "name": "limitingQuantity",
              "type": "uint256"
            },
            {
              "internalType": "uint256",
              "name": "buyerID",
              "type": "uint256"
            },
            {
              "internalType": "uint256",
              "name": "sellerID",
              "type": "uint256"
            },
            {
              "internalType": "uint256",
              "name": "moneySent",
              "type": "uint256"
            },
            {
              "internalType": "bool",
              "name": "correctReveal",
              "type": "bool"
            },
            {
              "internalType": "address payable",
              "name": "bidderAddress",
              "type": "address"
            }
          ],
          "internalType": "struct NewMarketPlace.Bid[]",
          "name": "",
          "type": "tuple[]"
        }
      ],
      "stateMutability": "view",
      "type": "function"
    }
  ],
  "bytecode": "0x608060405234801561001057600080fd5b506000600981905550600060088190555060006007819055506000600681905550336000806101000a81548173ffffffffffffffffffffffffffffffffffffffff021916908373ffffffffffffffffffffffffffffffffffffffff1602179055506162ef80620000816000396000f3fe6080604052600436106101815760003560e01c8063ad973d74116100d1578063d3a26e601161008a578063e804b95511610064578063e804b9551461066b578063f1ba71271461069b578063f7b0fde8146106c6578063fe828f361461070357610181565b8063d3a26e60146105ad578063d8e55b5d146105ea578063dd2d2a121461062e57610181565b8063ad973d7414610456578063b53305dc14610493578063c0abda2a146104be578063c33010b7146104fc578063cc5d852e14610539578063cea231211461056957610181565b80635b5e58dc1161013e57806390175af11161011857806390175af11461036a57806393583b89146103ae578063a9c56314146103d9578063aa8613c41461041957610181565b80635b5e58dc146102c35780637aa4c3f3146103005780638da5cb5b1461033f57610181565b8063098810071461018657806317c39286146101c357806319820090146101ee5780632565a86e1461022b5780634a0202cc146102565780634f243c6414610286575b600080fd5b34801561019257600080fd5b506101ad60048036038101906101a89190614b09565b610740565b6040516101ba9190614b45565b60405180910390f35b3480156101cf57600080fd5b506101d861085e565b6040516101e59190614b45565b60405180910390f35b3480156101fa57600080fd5b5061021560048036038101906102109190614b60565b610868565b6040516102229190614bf6565b60405180910390f35b34801561023757600080fd5b506102406111dc565b60405161024d9190614bf6565b60405180910390f35b610270600480360381019061026b9190614c11565b61127c565b60405161027d9190614b45565b60405180910390f35b34801561029257600080fd5b506102ad60048036038101906102a89190614cd6565b611702565b6040516102ba9190614b45565b60405180910390f35b3480156102cf57600080fd5b506102ea60048036038101906102e59190614d41565b6117d4565b6040516102f79190614b45565b60405180910390f35b34801561030c57600080fd5b5061032760048036038101906103229190614b09565b611b1a565b60405161033693929190614da8565b60405180910390f35b34801561034b57600080fd5b50610354611c7a565b6040516103619190614dee565b60405180910390f35b34801561037657600080fd5b50610391600480360381019061038c9190614b09565b611c9e565b6040516103a5989796959493929190614e18565b60405180910390f35b3480156103ba57600080fd5b506103c3611d06565b6040516103d09190614bf6565b60405180910390f35b3480156103e557600080fd5b5061040060048036038101906103fb9190614e96565b611da6565b6040516104109493929190614ed6565b60405180910390f35b34801561042557600080fd5b50610440600480360381019061043b9190614b09565b611f89565b60405161044d9190614b45565b60405180910390f35b34801561046257600080fd5b5061047d60048036038101906104789190614f1b565b6134b0565b60405161048a9190614b45565b60405180910390f35b34801561049f57600080fd5b506104a86135d8565b6040516104b59190615177565b60405180910390f35b3480156104ca57600080fd5b506104e560048036038101906104e09190614b09565b613736565b6040516104f3929190615199565b60405180910390f35b34801561050857600080fd5b50610523600480360381019061051e91906151c2565b61377a565b60405161053091906153df565b60405180910390f35b610553600480360381019061054e9190615401565b6138ef565b6040516105609190614b45565b60405180910390f35b34801561057557600080fd5b50610590600480360381019061058b9190614b09565b613cc5565b6040516105a4989796959493929190615486565b60405180910390f35b3480156105b957600080fd5b506105d460048036038101906105cf9190614e96565b613d47565b6040516105e19190614b45565b60405180910390f35b3480156105f657600080fd5b50610611600480360381019061060c9190614cd6565b613e7e565b604051610625989796959493929190614e18565b60405180910390f35b34801561063a57600080fd5b5061065560048036038101906106509190614e96565b614011565b6040516106629190614b45565b60405180910390f35b61068560048036038101906106809190615530565b61402b565b6040516106929190614b45565b60405180910390f35b3480156106a757600080fd5b506106b0614627565b6040516106bd9190614b45565b60405180910390f35b3480156106d257600080fd5b506106ed60048036038101906106e89190614b09565b614631565b6040516106fa9190614b45565b60405180910390f35b34801561070f57600080fd5b5061072a60048036038101906107259190614b09565b6147f0565b6040516107379190614b45565b60405180910390f35b600060065482111561075157600080fd5b6000600281111561076557610764614f83565b5b6001600084815260200190815260200160002060030160009054906101000a900460ff16600281111561079b5761079a614f83565b5b036107a95760019050610859565b600160028111156107bd576107bc614f83565b5b6001600084815260200190815260200160002060030160009054906101000a900460ff1660028111156107f3576107f2614f83565b5b036108015760029050610859565b60028081111561081457610813614f83565b5b6001600084815260200190815260200160002060030160009054906101000a900460ff16600281111561084a57610849614f83565b5b036108585760039050610859565b5b919050565b6000600954905090565b60006007548611156108af576040517f08c379a00000000000000000000000000000000000000000000000000000000081526004016108a690615608565b60405180910390fd5b6006548511156108f4576040517f08c379a00000000000000000000000000000000000000000000000000000000081526004016108eb90615608565b60405180910390fd5b60028081111561090757610906614f83565b5b6001600087815260200190815260200160002060030160009054906101000a900460ff16600281111561093d5761093c614f83565b5b1461097d576040517f08c379a000000000000000000000000000000000000000000000000000000000815260040161097490615674565b60405180910390fd5b3373ffffffffffffffffffffffffffffffffffffffff166002600088815260200190815260200160002060070160009054906101000a900473ffffffffffffffffffffffffffffffffffffffff1673ffffffffffffffffffffffffffffffffffffffff1614610a21576040517f08c379a0000000000000000000000000000000000000000000000000000000008152600401610a1890615608565b60405180910390fd5b60005b600560006001600089815260200190815260200160002060030160019054906101000a900473ffffffffffffffffffffffffffffffffffffffff1673ffffffffffffffffffffffffffffffffffffffff1673ffffffffffffffffffffffffffffffffffffffff168152602001908152602001600020805490508110156111cd578660056000600160008a815260200190815260200160002060030160019054906101000a900473ffffffffffffffffffffffffffffffffffffffff1673ffffffffffffffffffffffffffffffffffffffff1673ffffffffffffffffffffffffffffffffffffffff1681526020019081526020016000208281548110610b2c57610b2b615694565b5b90600052602060002090600b020160070154036111ba57600060056000600160008a815260200190815260200160002060030160019054906101000a900473ffffffffffffffffffffffffffffffffffffffff1673ffffffffffffffffffffffffffffffffffffffff1673ffffffffffffffffffffffffffffffffffffffff1681526020019081526020016000208281548110610bcc57610bcb615694565b5b90600052602060002090600b02016040518061018001604052908160008201548152602001600182015481526020016002820154815260200160038201548152602001600482015481526020016005820154815260200160068201548152602001600782015481526020016008820154815260200160098201548152602001600a820160009054906101000a900460ff16151515158152602001600a820160019054906101000a900473ffffffffffffffffffffffffffffffffffffffff1673ffffffffffffffffffffffffffffffffffffffff1673ffffffffffffffffffffffffffffffffffffffff1681525050905060001515816101400151151514610d09576040517f08c379a0000000000000000000000000000000000000000000000000000000008152600401610d009061570f565b60405180910390fd5b8060a0015184604051602001610d1f9190615750565b6040516020818303038152906040528051906020012014610d75576040517f08c379a0000000000000000000000000000000000000000000000000000000008152600401610d6c906157dd565b60405180910390fd5b80606001518685610d86919061582c565b604051602001610d969190615750565b6040516020818303038152906040528051906020012014610dec576040517f08c379a0000000000000000000000000000000000000000000000000000000008152600401610de3906158d2565b60405180910390fd5b80608001518585610dfd919061582c565b604051602001610e0d9190615750565b6040516020818303038152906040528051906020012014610e63576040517f08c379a0000000000000000000000000000000000000000000000000000000008152600401610e5a90615964565b60405180910390fd5b60008587610e719190615984565b90508161012001518110610eba576040517f08c379a0000000000000000000000000000000000000000000000000000000008152600401610eb190615a50565b60405180910390fd5b600160056000600160008c815260200190815260200160002060030160019054906101000a900473ffffffffffffffffffffffffffffffffffffffff1673ffffffffffffffffffffffffffffffffffffffff1673ffffffffffffffffffffffffffffffffffffffff1681526020019081526020016000208481548110610f4357610f42615694565b5b90600052602060002090600b0201600a0160006101000a81548160ff0219169083151502179055508660056000600160008c815260200190815260200160002060030160019054906101000a900473ffffffffffffffffffffffffffffffffffffffff1673ffffffffffffffffffffffffffffffffffffffff1673ffffffffffffffffffffffffffffffffffffffff1681526020019081526020016000208481548110610ff357610ff2615694565b5b90600052602060002090600b0201600001819055508560056000600160008c815260200190815260200160002060030160019054906101000a900473ffffffffffffffffffffffffffffffffffffffff1673ffffffffffffffffffffffffffffffffffffffff1673ffffffffffffffffffffffffffffffffffffffff16815260200190815260200160002084815481106110905761108f615694565b5b90600052602060002090600b0201600101819055508460056000600160008c815260200190815260200160002060030160019054906101000a900473ffffffffffffffffffffffffffffffffffffffff1673ffffffffffffffffffffffffffffffffffffffff1673ffffffffffffffffffffffffffffffffffffffff168152602001908152602001600020848154811061112d5761112c615694565b5b90600052602060002090600b02016002018190555060018060008a81526020019081526020016000206006016000828254611168919061582c565b925050819055507f1e03b01ba1997c24040f0a2e5145f9dc2be2d1821b811bd7def13c7f41cda87489898989896040516111a6959493929190615a70565b60405180910390a1600193505050506111d3565b80806111c590615ac3565b915050610a24565b50600090505b95945050505050565b600080600090505b6006548111611273573373ffffffffffffffffffffffffffffffffffffffff166001600083815260200190815260200160002060030160019054906101000a900473ffffffffffffffffffffffffffffffffffffffff1673ffffffffffffffffffffffffffffffffffffffff1603611260576001915050611279565b808061126b90615ac3565b9150506111e4565b50600090505b90565b60006008548511156112c3576040517f08c379a00000000000000000000000000000000000000000000000000000000081526004016112ba90615b57565b60405180910390fd5b600754841115611308576040517f08c379a00000000000000000000000000000000000000000000000000000000081526004016112ff90615b57565b60405180910390fd5b6002600085815260200190815260200160002060060154831015611361576040517f08c379a000000000000000000000000000000000000000000000000000000000815260040161135890615bc3565b60405180910390fd5b818361136d9190615984565b3410156113af576040517f08c379a00000000000000000000000000000000000000000000000000000000081526004016113a690615c2f565b60405180910390fd5b6003600086815260200190815260200160002060010160009054906101000a900473ffffffffffffffffffffffffffffffffffffffff1673ffffffffffffffffffffffffffffffffffffffff163373ffffffffffffffffffffffffffffffffffffffff1614611453576040517f08c379a000000000000000000000000000000000000000000000000000000000815260040161144a90615c9b565b60405180910390fd5b6000611475836002600088815260200190815260200160002060050154614011565b905060005b81811015611589576009600081548092919061149590615ac3565b91905055506040518060a00160405280600954815260200188815260200187815260200160026000898152602001908152602001600020600101548152602001600260008981526020019081526020016000206003015481525060046000600954815260200190815260200160002060008201518160000155602082015181600101556040820151816002015560608201518160030155608082015181600401559050507f7f5c7a32f9a2b70ae99e862ffe5aff9d18caa86acc91931c9f1b75f325cd1691600954878960405161156e93929190614da8565b60405180910390a1808061158190615ac3565b91505061147a565b50806002600087815260200190815260200160002060050160008282546115b09190615cbb565b925050819055506002600086815260200190815260200160002060070160009054906101000a900473ffffffffffffffffffffffffffffffffffffffff1673ffffffffffffffffffffffffffffffffffffffff166108fc85836116139190615984565b9081150290604051600060405180830381858888f1935050505061166c576040517f08c379a000000000000000000000000000000000000000000000000000000000815260040161166390615d3b565b60405180910390fd5b3373ffffffffffffffffffffffffffffffffffffffff166108fc85836116929190615984565b3461169d9190615cbb565b9081150290604051600060405180830381858888f193505050506116f6576040517f08c379a00000000000000000000000000000000000000000000000000000000081526004016116ed90615d3b565b60405180910390fd5b80915050949350505050565b600080600190505b6006548110156117cd578273ffffffffffffffffffffffffffffffffffffffff16600a828154811061173f5761173e615694565b5b906000526020600020906007020160030160019054906101000a900473ffffffffffffffffffffffffffffffffffffffff1673ffffffffffffffffffffffffffffffffffffffff16036117ba57600a81815481106117a05761179f615694565b5b9060005260206000209060070201600001549150506117cf565b80806117c590615ac3565b91505061170a565b505b919050565b6000600184101580156117e957506006548411155b611828576040517f08c379a000000000000000000000000000000000000000000000000000000000815260040161181f90615da7565b60405180910390fd5b6001831015801561183b57506006548311155b61187a576040517f08c379a000000000000000000000000000000000000000000000000000000000815260040161187190615da7565b60405180910390fd5b60018081111561188d5761188c614f83565b5b6001600085815260200190815260200160002060010160009054906101000a900460ff1660018111156118c3576118c2614f83565b5b14611903576040517f08c379a00000000000000000000000000000000000000000000000000000000081526004016118fa90615e13565b60405180910390fd5b6000600181111561191757611916614f83565b5b6001600086815260200190815260200160002060010160009054906101000a900460ff16600181111561194d5761194c614f83565b5b1461198d576040517f08c379a000000000000000000000000000000000000000000000000000000000815260040161198490615e7f565b60405180910390fd5b8473ffffffffffffffffffffffffffffffffffffffff163373ffffffffffffffffffffffffffffffffffffffff16146119fb576040517f08c379a00000000000000000000000000000000000000000000000000000000081526004016119f290615eeb565b60405180910390fd5b60076000815480929190611a0e90615ac3565b919050555060405180610100016040528060075481526020018581526020016000815260200184815260200160008152602001600081526020018381526020018673ffffffffffffffffffffffffffffffffffffffff16815250600260006007548152602001908152602001600020600082015181600001556020820151816001015560408201518160020155606082015181600301556080820151816004015560a0820151816005015560c0820151816006015560e08201518160070160006101000a81548173ffffffffffffffffffffffffffffffffffffffff021916908373ffffffffffffffffffffffffffffffffffffffff1602179055509050506007549050949350505050565b6000806000600754841115611b2e57600080fd5b60008054906101000a900473ffffffffffffffffffffffffffffffffffffffff1673ffffffffffffffffffffffffffffffffffffffff163373ffffffffffffffffffffffffffffffffffffffff161480611be957506002600085815260200190815260200160002060070160009054906101000a900473ffffffffffffffffffffffffffffffffffffffff1673ffffffffffffffffffffffffffffffffffffffff163373ffffffffffffffffffffffffffffffffffffffff16145b611c28576040517f08c379a0000000000000000000000000000000000000000000000000000000008152600401611c1f90615f57565b60405180910390fd5b6002600085815260200190815260200160002060020154600260008681526020019081526020016000206004015460026000878152602001908152602001600020600501549250925092509193909250565b60008054906101000a900473ffffffffffffffffffffffffffffffffffffffff1681565b60026020528060005260406000206000915090508060000154908060010154908060020154908060030154908060040154908060050154908060060154908060070160009054906101000a900473ffffffffffffffffffffffffffffffffffffffff16905088565b600080600090505b6007548111611d9d573373ffffffffffffffffffffffffffffffffffffffff166002600083815260200190815260200160002060070160009054906101000a900473ffffffffffffffffffffffffffffffffffffffff1673ffffffffffffffffffffffffffffffffffffffff1603611d8a576001915050611da3565b8080611d9590615ac3565b915050611d0e565b50600090505b90565b600080600080600854861115611df1576040517f08c379a0000000000000000000000000000000000000000000000000000000008152600401611de890615fc3565b60405180910390fd5b3373ffffffffffffffffffffffffffffffffffffffff166003600088815260200190815260200160002060010160009054906101000a900473ffffffffffffffffffffffffffffffffffffffff1673ffffffffffffffffffffffffffffffffffffffff1614611e95576040517f08c379a0000000000000000000000000000000000000000000000000000000008152600401611e8c90615c9b565b60405180910390fd5b600954851115611eda576040517f08c379a0000000000000000000000000000000000000000000000000000000008152600401611ed190615fc3565b60405180910390fd5b85600460008781526020019081526020016000206001015414611f32576040517f08c379a0000000000000000000000000000000000000000000000000000000008152600401611f299061602f565b60405180910390fd5b84600460008781526020019081526020016000206002015460046000888152602001908152602001600020600301546004600089815260200190815260200160002060040154935093509350935092959194509250565b6000600654821115611fd0576040517f08c379a0000000000000000000000000000000000000000000000000000000008152600401611fc790615da7565b60405180910390fd5b600280811115611fe357611fe2614f83565b5b6001600084815260200190815260200160002060030160009054906101000a900460ff16600281111561201957612018614f83565b5b1461202357600080fd5b6001600083815260200190815260200160002060030160019054906101000a900473ffffffffffffffffffffffffffffffffffffffff1673ffffffffffffffffffffffffffffffffffffffff163373ffffffffffffffffffffffffffffffffffffffff16146120c7576040517f08c379a00000000000000000000000000000000000000000000000000000000081526004016120be9061609b565b60405180910390fd5b60006001600084815260200190815260200160002060030160006101000a81548160ff0219169083600281111561210157612100614f83565b5b021790555060005b600560006001600086815260200190815260200160002060030160019054906101000a900473ffffffffffffffffffffffffffffffffffffffff1673ffffffffffffffffffffffffffffffffffffffff1673ffffffffffffffffffffffffffffffffffffffff168152602001908152602001600020805490508110156127fc5760005b818110156127e857600560006001600087815260200190815260200160002060030160019054906101000a900473ffffffffffffffffffffffffffffffffffffffff1673ffffffffffffffffffffffffffffffffffffffff1673ffffffffffffffffffffffffffffffffffffffff168152602001908152602001600020818154811061221b5761221a615694565b5b90600052602060002090600b020160000154600560006001600088815260200190815260200160002060030160019054906101000a900473ffffffffffffffffffffffffffffffffffffffff1673ffffffffffffffffffffffffffffffffffffffff1673ffffffffffffffffffffffffffffffffffffffff16815260200190815260200160002083815481106122b4576122b3615694565b5b90600052602060002090600b02016000015410156127d5576000600560006001600088815260200190815260200160002060030160019054906101000a900473ffffffffffffffffffffffffffffffffffffffff1673ffffffffffffffffffffffffffffffffffffffff1673ffffffffffffffffffffffffffffffffffffffff168152602001908152602001600020838154811061235557612354615694565b5b90600052602060002090600b02016040518061018001604052908160008201548152602001600182015481526020016002820154815260200160038201548152602001600482015481526020016005820154815260200160068201548152602001600782015481526020016008820154815260200160098201548152602001600a820160009054906101000a900460ff16151515158152602001600a820160019054906101000a900473ffffffffffffffffffffffffffffffffffffffff1673ffffffffffffffffffffffffffffffffffffffff1673ffffffffffffffffffffffffffffffffffffffff16815250509050600560006001600088815260200190815260200160002060030160019054906101000a900473ffffffffffffffffffffffffffffffffffffffff1673ffffffffffffffffffffffffffffffffffffffff1673ffffffffffffffffffffffffffffffffffffffff16815260200190815260200160002082815481106124cd576124cc615694565b5b90600052602060002090600b0201600560006001600089815260200190815260200160002060030160019054906101000a900473ffffffffffffffffffffffffffffffffffffffff1673ffffffffffffffffffffffffffffffffffffffff1673ffffffffffffffffffffffffffffffffffffffff168152602001908152602001600020848154811061256257612561615694565b5b90600052602060002090600b020160008201548160000155600182015481600101556002820154816002015560038201548160030155600482015481600401556005820154816005015560068201548160060155600782015481600701556008820154816008015560098201548160090155600a820160009054906101000a900460ff1681600a0160006101000a81548160ff021916908315150217905550600a820160019054906101000a900473ffffffffffffffffffffffffffffffffffffffff1681600a0160016101000a81548173ffffffffffffffffffffffffffffffffffffffff021916908373ffffffffffffffffffffffffffffffffffffffff16021790555090505080600560006001600089815260200190815260200160002060030160019054906101000a900473ffffffffffffffffffffffffffffffffffffffff1673ffffffffffffffffffffffffffffffffffffffff1673ffffffffffffffffffffffffffffffffffffffff16815260200190815260200160002083815481106126f3576126f2615694565b5b90600052602060002090600b0201600082015181600001556020820151816001015560408201518160020155606082015181600301556080820151816004015560a0820151816005015560c0820151816006015560e082015181600701556101008201518160080155610120820151816009015561014082015181600a0160006101000a81548160ff02191690831515021790555061016082015181600a0160016101000a81548173ffffffffffffffffffffffffffffffffffffffff021916908373ffffffffffffffffffffffffffffffffffffffff160217905550905050505b80806127e090615ac3565b91505061218c565b5080806127f490615ac3565b915050612109565b50612805614aab565b61280d614aab565b612815614aab565b60005b600560006001600089815260200190815260200160002060030160019054906101000a900473ffffffffffffffffffffffffffffffffffffffff1673ffffffffffffffffffffffffffffffffffffffff1673ffffffffffffffffffffffffffffffffffffffff16815260200190815260200160002080549050811015612bbf57600060056000600160008a815260200190815260200160002060030160019054906101000a900473ffffffffffffffffffffffffffffffffffffffff1673ffffffffffffffffffffffffffffffffffffffff1673ffffffffffffffffffffffffffffffffffffffff168152602001908152602001600020828154811061292157612920615694565b5b90600052602060002090600b02016040518061018001604052908160008201548152602001600182015481526020016002820154815260200160038201548152602001600482015481526020016005820154815260200160068201548152602001600782015481526020016008820154815260200160098201548152602001600a820160009054906101000a900460ff16151515158152602001600a820160019054906101000a900473ffffffffffffffffffffffffffffffffffffffff1673ffffffffffffffffffffffffffffffffffffffff1673ffffffffffffffffffffffffffffffffffffffff1681525050905060001515816101400151151503612a295750612bac565b806101200151838260e0015160648110612a4657612a45615694565b5b6020020181815250506000612a75600160008a8152602001908152602001600020600201548360c00151614011565b9050612a85818360200151614011565b90508160000151868360e0015160648110612aa357612aa2615694565b5b60200201818152505080858360e0015160648110612ac457612ac3615694565b5b60200201818152505080600160008a81526020019081526020016000206002016000828254612af39190615cbb565b925050819055508060056000600160008c815260200190815260200160002060030160019054906101000a900473ffffffffffffffffffffffffffffffffffffffff1673ffffffffffffffffffffffffffffffffffffffff1673ffffffffffffffffffffffffffffffffffffffff1681526020019081526020016000208481548110612b8257612b81615694565b5b90600052602060002090600b02016001016000828254612ba29190615cbb565b9250508190555050505b8080612bb790615ac3565b915050612818565b5060005b600560006001600089815260200190815260200160002060030160019054906101000a900473ffffffffffffffffffffffffffffffffffffffff1673ffffffffffffffffffffffffffffffffffffffff1673ffffffffffffffffffffffffffffffffffffffff16815260200190815260200160002080549050811015612f1e57600060056000600160008a815260200190815260200160002060030160019054906101000a900473ffffffffffffffffffffffffffffffffffffffff1673ffffffffffffffffffffffffffffffffffffffff1673ffffffffffffffffffffffffffffffffffffffff1681526020019081526020016000208281548110612ccc57612ccb615694565b5b90600052602060002090600b02016040518061018001604052908160008201548152602001600182015481526020016002820154815260200160038201548152602001600482015481526020016005820154815260200160068201548152602001600782015481526020016008820154815260200160098201548152602001600a820160009054906101000a900460ff16151515158152602001600a820160019054906101000a900473ffffffffffffffffffffffffffffffffffffffff1673ffffffffffffffffffffffffffffffffffffffff1673ffffffffffffffffffffffffffffffffffffffff1681525050905060001515816101400151151503612dd45750612f0b565b6000612dfa600160008a8152602001908152602001600020600201548360200151614011565b905080858360e0015160648110612e1457612e13615694565b5b60200201818151612e25919061582c565b9150818152505080600160008a81526020019081526020016000206002016000828254612e529190615cbb565b925050819055508060056000600160008c815260200190815260200160002060030160019054906101000a900473ffffffffffffffffffffffffffffffffffffffff1673ffffffffffffffffffffffffffffffffffffffff1673ffffffffffffffffffffffffffffffffffffffff1681526020019081526020016000208481548110612ee157612ee0615694565b5b90600052602060002090600b02016001016000828254612f019190615cbb565b9250508190555050505b8080612f1690615ac3565b915050612bc3565b506000600190505b60075481116132f4576000838260648110612f4457612f43615694565b5b602002015111156132e1577f389cc4d2b135e7b676a809ad7bacdde1b644b0bbe73afdd545a176ea73b955178682858460648110612f8557612f84615694565b5b6020020151878560648110612f9d57612f9c615694565b5b6020020151604051612fb29493929190614ed6565b60405180910390a16002600082815260200190815260200160002060070160009054906101000a900473ffffffffffffffffffffffffffffffffffffffff1673ffffffffffffffffffffffffffffffffffffffff166108fc84836064811061301d5761301c615694565b5b602002015186846064811061303557613034615694565b5b60200201516130449190615984565b84846064811061305757613056615694565b5b60200201516130669190615cbb565b9081150290604051600060405180830381858888f193505050506130bf576040517f08c379a00000000000000000000000000000000000000000000000000000000081526004016130b690615d3b565b60405180910390fd5b6001600087815260200190815260200160002060030160019054906101000a900473ffffffffffffffffffffffffffffffffffffffff1673ffffffffffffffffffffffffffffffffffffffff166108fc84836064811061312257613121615694565b5b602002015186846064811061313a57613139615694565b5b60200201516131499190615984565b9081150290604051600060405180830381858888f193505050506131a2576040517f08c379a000000000000000000000000000000000000000000000000000000000815260040161319990615d3b565b60405180910390fd5b6001808111156131b5576131b4614f83565b5b6001600088815260200190815260200160002060010160009054906101000a900460ff1660018111156131eb576131ea614f83565b5b036132395782816064811061320357613202615694565b5b602002015160026000838152602001908152602001600020600401600082825461322d919061582c565b925050819055506132d7565b6000600181111561324d5761324c614f83565b5b6001600088815260200190815260200160002060010160009054906101000a900460ff16600181111561328357613282614f83565b5b036132d15782816064811061329b5761329a615694565b5b60200201516002600083815260200190815260200160002060020160008282546132c5919061582c565b925050819055506132d6565b600080fd5b5b6132e0816149e6565b5b80806132ec90615ac3565b915050612f26565b505b6000600560006001600089815260200190815260200160002060030160019054906101000a900473ffffffffffffffffffffffffffffffffffffffff1673ffffffffffffffffffffffffffffffffffffffff1673ffffffffffffffffffffffffffffffffffffffff1681526020019081526020016000208054905011156134a557600560006001600088815260200190815260200160002060030160019054906101000a900473ffffffffffffffffffffffffffffffffffffffff1673ffffffffffffffffffffffffffffffffffffffff1673ffffffffffffffffffffffffffffffffffffffff1681526020019081526020016000208054806133fc576133fb6160bb565b5b60019003818190600052602060002090600b0201600080820160009055600182016000905560028201600090556003820160009055600482016000905560058201600090556006820160009055600782016000905560088201600090556009820160009055600a820160006101000a81549060ff0219169055600a820160016101000a81549073ffffffffffffffffffffffffffffffffffffffff0219169055505090556132f6565b429350505050919050565b60008173ffffffffffffffffffffffffffffffffffffffff163373ffffffffffffffffffffffffffffffffffffffff1614613520576040517f08c379a000000000000000000000000000000000000000000000000000000000815260040161351790615eeb565b60405180910390fd5b6008600081548092919061353390615ac3565b9190505550604051806040016040528060085481526020018373ffffffffffffffffffffffffffffffffffffffff168152506003600060085481526020019081526020016000206000820151816000015560208201518160010160006101000a81548173ffffffffffffffffffffffffffffffffffffffff021916908373ffffffffffffffffffffffffffffffffffffffff1602179055509050506008549050919050565b6060600a805480602002602001604051908101604052809291908181526020016000905b8282101561372d578382906000526020600020906007020160405180610100016040529081600082015481526020016001820160009054906101000a900460ff16600181111561364f5761364e614f83565b5b600181111561366157613660614f83565b5b8152602001600282015481526020016003820160009054906101000a900460ff16600281111561369457613693614f83565b5b60028111156136a6576136a5614f83565b5b81526020016003820160019054906101000a900473ffffffffffffffffffffffffffffffffffffffff1673ffffffffffffffffffffffffffffffffffffffff1673ffffffffffffffffffffffffffffffffffffffff1681526020016004820154815260200160058201548152602001600682015481525050815260200190600101906135fc565b50505050905090565b60036020528060005260406000206000915090508060000154908060010160009054906101000a900473ffffffffffffffffffffffffffffffffffffffff16905082565b6060600560008473ffffffffffffffffffffffffffffffffffffffff1673ffffffffffffffffffffffffffffffffffffffff168152602001908152602001600020805480602002602001604051908101604052809291908181526020016000905b828210156138e357838290600052602060002090600b02016040518061018001604052908160008201548152602001600182015481526020016002820154815260200160038201548152602001600482015481526020016005820154815260200160068201548152602001600782015481526020016008820154815260200160098201548152602001600a820160009054906101000a900460ff16151515158152602001600a820160019054906101000a900473ffffffffffffffffffffffffffffffffffffffff1673ffffffffffffffffffffffffffffffffffffffff1673ffffffffffffffffffffffffffffffffffffffff1681525050815260200190600101906137db565b50505050905092915050565b60006001851115613935576040517f08c379a000000000000000000000000000000000000000000000000000000000815260040161392c90616136565b60405180910390fd5b8273ffffffffffffffffffffffffffffffffffffffff163373ffffffffffffffffffffffffffffffffffffffff16146139a3576040517f08c379a000000000000000000000000000000000000000000000000000000000815260040161399a90615eeb565b60405180910390fd5b600660008154809291906139b690615ac3565b9190505550600060019050600186036139ce57600090505b60405180610100016040528060065481526020018260018111156139f5576139f4614f83565b5b815260200186815260200160006002811115613a1457613a13614f83565b5b81526020018573ffffffffffffffffffffffffffffffffffffffff1681526020018481526020016000815260200160008152506001600060065481526020019081526020016000206000820151816000015560208201518160010160006101000a81548160ff02191690836001811115613a9157613a90614f83565b5b02179055506040820151816002015560608201518160030160006101000a81548160ff02191690836002811115613acb57613aca614f83565b5b021790555060808201518160030160016101000a81548173ffffffffffffffffffffffffffffffffffffffff021916908373ffffffffffffffffffffffffffffffffffffffff16021790555060a0820151816004015560c0820151816005015560e08201518160060155905050600a6040518061010001604052806006548152602001836001811115613b6157613b60614f83565b5b815260200187815260200160006002811115613b8057613b7f614f83565b5b81526020018673ffffffffffffffffffffffffffffffffffffffff16815260200185815260200160008152602001600081525090806001815401808255809150506001900390600052602060002090600702016000909190919091506000820151816000015560208201518160010160006101000a81548160ff02191690836001811115613c1157613c10614f83565b5b02179055506040820151816002015560608201518160030160006101000a81548160ff02191690836002811115613c4b57613c4a614f83565b5b021790555060808201518160030160016101000a81548173ffffffffffffffffffffffffffffffffffffffff021916908373ffffffffffffffffffffffffffffffffffffffff16021790555060a0820151816004015560c0820151816005015560e082015181600601555050600654915050949350505050565b60016020528060005260406000206000915090508060000154908060010160009054906101000a900460ff16908060020154908060030160009054906101000a900460ff16908060030160019054906101000a900473ffffffffffffffffffffffffffffffffffffffff16908060040154908060050154908060060154905088565b6000600654831115613d8e576040517f08c379a0000000000000000000000000000000000000000000000000000000008152600401613d8590615608565b60405180910390fd5b3373ffffffffffffffffffffffffffffffffffffffff166001600085815260200190815260200160002060030160019054906101000a900473ffffffffffffffffffffffffffffffffffffffff1673ffffffffffffffffffffffffffffffffffffffff1614613e32576040517f08c379a0000000000000000000000000000000000000000000000000000000008152600401613e2990615c9b565b60405180910390fd5b81600160008581526020019081526020016000206002016000828254613e58919061582c565b925050819055506001600084815260200190815260200160002060020154905092915050565b6000806000806000806000806000600190505b6007548111614004578973ffffffffffffffffffffffffffffffffffffffff166002600083815260200190815260200160002060070160009054906101000a900473ffffffffffffffffffffffffffffffffffffffff1673ffffffffffffffffffffffffffffffffffffffff1603613ff15760026000828152602001908152602001600020600001546002600083815260200190815260200160002060010154600260008481526020019081526020016000206002015460026000858152602001908152602001600020600301546002600086815260200190815260200160002060040154600260008781526020019081526020016000206005015460026000888152602001908152602001600020600601546002600089815260200190815260200160002060070160009054906101000a900473ffffffffffffffffffffffffffffffffffffffff169850985098509850985098509850985050614006565b8080613ffc90615ac3565b915050613e91565b505b919395975091939597565b6000818310156140215782614023565b815b905092915050565b6000600754861115614072576040517f08c379a000000000000000000000000000000000000000000000000000000000815260040161406990615608565b60405180910390fd5b6006548511156140b7576040517f08c379a00000000000000000000000000000000000000000000000000000000081526004016140ae90615608565b60405180910390fd5b6002600087815260200190815260200160002060070160009054906101000a900473ffffffffffffffffffffffffffffffffffffffff1673ffffffffffffffffffffffffffffffffffffffff163373ffffffffffffffffffffffffffffffffffffffff161461415b576040517f08c379a000000000000000000000000000000000000000000000000000000000815260040161415290615c9b565b60405180910390fd5b6000600181111561416f5761416e614f83565b5b6001600087815260200190815260200160002060010160009054906101000a900460ff1660018111156141a5576141a4614f83565b5b036142075784600260008881526020019081526020016000206001015414614202576040517f08c379a00000000000000000000000000000000000000000000000000000000081526004016141f9906161a2565b60405180910390fd5b614260565b8460026000888152602001908152602001600020600301541461425f576040517f08c379a0000000000000000000000000000000000000000000000000000000008152600401614256906161a2565b60405180910390fd5b5b6001600086815260200190815260200160002060040154600160008781526020019081526020016000206005015411156142cf576040517f08c379a00000000000000000000000000000000000000000000000000000000081526004016142c69061620e565b60405180910390fd5b60006001808111156142e4576142e3614f83565b5b6001600088815260200190815260200160002060010160009054906101000a900460ff16600181111561431a57614319614f83565b5b0361437a5760006002600089815260200190815260200160002060030154905060026000898152602001908152602001600020600401546001600083815260200190815260200160002060020154614372919061582c565b9150506143d1565b600060026000898152602001908152602001600020600101549050600260008981526020019081526020016000206002015460016000838152602001908152602001600020600201546143cd919061582c565b9150505b600560006001600089815260200190815260200160002060030160019054906101000a900473ffffffffffffffffffffffffffffffffffffffff1673ffffffffffffffffffffffffffffffffffffffff1673ffffffffffffffffffffffffffffffffffffffff1681526020019081526020016000206040518061018001604052806000815260200160008152602001600081526020018781526020018681526020018581526020018381526020018981526020018881526020013481526020016000151581526020013373ffffffffffffffffffffffffffffffffffffffff1681525090806001815401808255809150506001900390600052602060002090600b0201600090919091909150600082015181600001556020820151816001015560408201518160020155606082015181600301556080820151816004015560a0820151816005015560c0820151816006015560e082015181600701556101008201518160080155610120820151816009015561014082015181600a0160006101000a81548160ff02191690831515021790555061016082015181600a0160016101000a81548173ffffffffffffffffffffffffffffffffffffffff021916908373ffffffffffffffffffffffffffffffffffffffff1602179055505050600180600088815260200190815260200160002060050160008282546145d4919061582c565b925050819055507f8a06846852690683a485d2a83db8d92c70d8aaaf4693c2c3b223705fb4c91627878787878760405161461295949392919061623d565b60405180910390a18091505095945050505050565b6000600854905090565b6000600654821115614678576040517f08c379a000000000000000000000000000000000000000000000000000000000815260040161466f90615da7565b60405180910390fd5b6001600281111561468c5761468b614f83565b5b6001600084815260200190815260200160002060030160009054906101000a900460ff1660028111156146c2576146c1614f83565b5b146146cc57600080fd5b6001600083815260200190815260200160002060030160019054906101000a900473ffffffffffffffffffffffffffffffffffffffff1673ffffffffffffffffffffffffffffffffffffffff163373ffffffffffffffffffffffffffffffffffffffff1614614770576040517f08c379a00000000000000000000000000000000000000000000000000000000081526004016147679061609b565b60405180910390fd5b60026001600084815260200190815260200160002060030160006101000a81548160ff021916908360028111156147aa576147a9614f83565b5b02179055507f69544aaad545cf5ab110398ad6cac7ee4773f2f30c068350793e6cf82805d70f82426040516147e0929190616290565b60405180910390a1429050919050565b6000600654821115614837576040517f08c379a000000000000000000000000000000000000000000000000000000000815260040161482e90615da7565b60405180910390fd5b6000600281111561484b5761484a614f83565b5b6001600084815260200190815260200160002060030160009054906101000a900460ff16600281111561488157614880614f83565b5b1461488b57600080fd5b6001600083815260200190815260200160002060030160019054906101000a900473ffffffffffffffffffffffffffffffffffffffff1673ffffffffffffffffffffffffffffffffffffffff163373ffffffffffffffffffffffffffffffffffffffff161461492f576040517f08c379a00000000000000000000000000000000000000000000000000000000081526004016149269061609b565b60405180910390fd5b600180600084815260200190815260200160002060030160006101000a81548160ff0219169083600281111561496857614967614f83565b5b021790555060006001600084815260200190815260200160002060050181905550600060016000848152602001908152602001600020600601819055507f97f3c1cfc906cded5a31e7f64d905dd3bce10ac469b77d540f9b6f7fd0267ed882426040516149d6929190616290565b60405180910390a1429050919050565b6000614a1e60026000848152602001908152602001600020600401546002600085815260200190815260200160002060020154614011565b905080600260008481526020019081526020016000206004016000828254614a469190615cbb565b9250508190555080600260008481526020019081526020016000206002016000828254614a739190615cbb565b9250508190555080600260008481526020019081526020016000206005016000828254614aa0919061582c565b925050819055505050565b60405180610c800160405280606490602082028036833780820191505090505090565b600080fd5b6000819050919050565b614ae681614ad3565b8114614af157600080fd5b50565b600081359050614b0381614add565b92915050565b600060208284031215614b1f57614b1e614ace565b5b6000614b2d84828501614af4565b91505092915050565b614b3f81614ad3565b82525050565b6000602082019050614b5a6000830184614b36565b92915050565b600080600080600060a08688031215614b7c57614b7b614ace565b5b6000614b8a88828901614af4565b9550506020614b9b88828901614af4565b9450506040614bac88828901614af4565b9350506060614bbd88828901614af4565b9250506080614bce88828901614af4565b9150509295509295909350565b60008115159050919050565b614bf081614bdb565b82525050565b6000602082019050614c0b6000830184614be7565b92915050565b60008060008060808587031215614c2b57614c2a614ace565b5b6000614c3987828801614af4565b9450506020614c4a87828801614af4565b9350506040614c5b87828801614af4565b9250506060614c6c87828801614af4565b91505092959194509250565b600073ffffffffffffffffffffffffffffffffffffffff82169050919050565b6000614ca382614c78565b9050919050565b614cb381614c98565b8114614cbe57600080fd5b50565b600081359050614cd081614caa565b92915050565b600060208284031215614cec57614ceb614ace565b5b6000614cfa84828501614cc1565b91505092915050565b6000614d0e82614c78565b9050919050565b614d1e81614d03565b8114614d2957600080fd5b50565b600081359050614d3b81614d15565b92915050565b60008060008060808587031215614d5b57614d5a614ace565b5b6000614d6987828801614d2c565b9450506020614d7a87828801614af4565b9350506040614d8b87828801614af4565b9250506060614d9c87828801614af4565b91505092959194509250565b6000606082019050614dbd6000830186614b36565b614dca6020830185614b36565b614dd76040830184614b36565b949350505050565b614de881614d03565b82525050565b6000602082019050614e036000830184614ddf565b92915050565b614e1281614c98565b82525050565b600061010082019050614e2e600083018b614b36565b614e3b602083018a614b36565b614e486040830189614b36565b614e556060830188614b36565b614e626080830187614b36565b614e6f60a0830186614b36565b614e7c60c0830185614b36565b614e8960e0830184614e09565b9998505050505050505050565b60008060408385031215614ead57614eac614ace565b5b6000614ebb85828601614af4565b9250506020614ecc85828601614af4565b9150509250929050565b6000608082019050614eeb6000830187614b36565b614ef86020830186614b36565b614f056040830185614b36565b614f126060830184614b36565b95945050505050565b600060208284031215614f3157614f30614ace565b5b6000614f3f84828501614d2c565b91505092915050565b600081519050919050565b600082825260208201905092915050565b6000819050602082019050919050565b614f7d81614ad3565b82525050565b7f4e487b7100000000000000000000000000000000000000000000000000000000600052602160045260246000fd5b60028110614fc357614fc2614f83565b5b50565b6000819050614fd482614fb2565b919050565b6000614fe482614fc6565b9050919050565b614ff481614fd9565b82525050565b6003811061500b5761500a614f83565b5b50565b600081905061501c82614ffa565b919050565b600061502c8261500e565b9050919050565b61503c81615021565b82525050565b61504b81614c98565b82525050565b610100820160008201516150686000850182614f74565b50602082015161507b6020850182614feb565b50604082015161508e6040850182614f74565b5060608201516150a16060850182615033565b5060808201516150b46080850182615042565b5060a08201516150c760a0850182614f74565b5060c08201516150da60c0850182614f74565b5060e08201516150ed60e0850182614f74565b50505050565b60006150ff8383615051565b6101008301905092915050565b6000602082019050919050565b600061512482614f48565b61512e8185614f53565b935061513983614f64565b8060005b8381101561516a57815161515188826150f3565b975061515c8361510c565b92505060018101905061513d565b5085935050505092915050565b600060208201905081810360008301526151918184615119565b905092915050565b60006040820190506151ae6000830185614b36565b6151bb6020830184614e09565b9392505050565b600080604083850312156151d9576151d8614ace565b5b60006151e785828601614cc1565b92505060206151f885828601614af4565b9150509250929050565b600081519050919050565b600082825260208201905092915050565b6000819050602082019050919050565b6000819050919050565b6152418161522e565b82525050565b61525081614bdb565b82525050565b61525f81614d03565b82525050565b6101808201600082015161527c6000850182614f74565b50602082015161528f6020850182614f74565b5060408201516152a26040850182614f74565b5060608201516152b56060850182615238565b5060808201516152c86080850182615238565b5060a08201516152db60a0850182615238565b5060c08201516152ee60c0850182614f74565b5060e082015161530160e0850182614f74565b50610100820151615316610100850182614f74565b5061012082015161532b610120850182614f74565b50610140820151615340610140850182615247565b50610160820151615355610160850182615256565b50505050565b60006153678383615265565b6101808301905092915050565b6000602082019050919050565b600061538c82615202565b615396818561520d565b93506153a18361521e565b8060005b838110156153d25781516153b9888261535b565b97506153c483615374565b9250506001810190506153a5565b5085935050505092915050565b600060208201905081810360008301526153f98184615381565b905092915050565b6000806000806080858703121561541b5761541a614ace565b5b600061542987828801614af4565b945050602061543a87828801614af4565b935050604061544b87828801614d2c565b925050606061545c87828801614af4565b91505092959194509250565b61547181614fd9565b82525050565b61548081615021565b82525050565b60006101008201905061549c600083018b614b36565b6154a9602083018a615468565b6154b66040830189614b36565b6154c36060830188615477565b6154d06080830187614e09565b6154dd60a0830186614b36565b6154ea60c0830185614b36565b6154f760e0830184614b36565b9998505050505050505050565b61550d8161522e565b811461551857600080fd5b50565b60008135905061552a81615504565b92915050565b600080600080600060a0868803121561554c5761554b614ace565b5b600061555a88828901614af4565b955050602061556b88828901614af4565b945050604061557c8882890161551b565b935050606061558d8882890161551b565b925050608061559e8882890161551b565b9150509295509295909350565b600082825260208201905092915050565b7f496e76616c696420494400000000000000000000000000000000000000000000600082015250565b60006155f2600a836155ab565b91506155fd826155bc565b602082019050919050565b60006020820190508181036000830152615621816155e5565b9050919050565b7f52657665616c207068617365206e6f7420676f696e67206f6e00000000000000600082015250565b600061565e6019836155ab565b915061566982615628565b602082019050919050565b6000602082019050818103600083015261568d81615651565b9050919050565b7f4e487b7100000000000000000000000000000000000000000000000000000000600052603260045260246000fd5b7f42696420616c72656164792072657665616c6564000000000000000000000000600082015250565b60006156f96014836155ab565b9150615704826156c3565b602082019050919050565b60006020820190508181036000830152615728816156ec565b9050919050565b6000819050919050565b61574a61574582614ad3565b61572f565b82525050565b600061575c8284615739565b60208201915081905092915050565b7f496e636f7272656374206b6579202d2d206b656570696e6720796f7572206d6f60008201527f6e65790000000000000000000000000000000000000000000000000000000000602082015250565b60006157c76023836155ab565b91506157d28261576b565b604082019050919050565b600060208201905081810360008301526157f6816157ba565b9050919050565b7f4e487b7100000000000000000000000000000000000000000000000000000000600052601160045260246000fd5b600061583782614ad3565b915061584283614ad3565b925082820190508082111561585a576158596157fd565b5b92915050565b7f496e636f7272656374207072696365202d2d206b656570696e6720796f75722060008201527f6d6f6e6579000000000000000000000000000000000000000000000000000000602082015250565b60006158bc6025836155ab565b91506158c782615860565b604082019050919050565b600060208201905081810360008301526158eb816158af565b9050919050565b7f496e636f7272656374207175616e74697479202d2d206b656570696e6720796f60008201527f7572206d6f6e6579000000000000000000000000000000000000000000000000602082015250565b600061594e6028836155ab565b9150615959826158f2565b604082019050919050565b6000602082019050818103600083015261597d81615941565b9050919050565b600061598f82614ad3565b915061599a83614ad3565b9250817fffffffffffffffffffffffffffffffffffffffffffffffffffffffffffffffff04831182151516156159d3576159d26157fd565b5b828202905092915050565b7f496e73756666696369656e742066756e64732073656e74202d2d206b6565706960008201527f6e6720796f7572206d6f6e657900000000000000000000000000000000000000602082015250565b6000615a3a602d836155ab565b9150615a45826159de565b604082019050919050565b60006020820190508181036000830152615a6981615a2d565b9050919050565b600060a082019050615a856000830188614b36565b615a926020830187614b36565b615a9f6040830186614b36565b615aac6060830185614b36565b615ab96080830184614b36565b9695505050505050565b6000615ace82614ad3565b91507fffffffffffffffffffffffffffffffffffffffffffffffffffffffffffffffff8203615b0057615aff6157fd565b5b600182019050919050565b7f496e76616c696420637573746f6d657200000000000000000000000000000000600082015250565b6000615b416010836155ab565b9150615b4c82615b0b565b602082019050919050565b60006020820190508181036000830152615b7081615b34565b9050919050565b7f436f737420697320686967686572000000000000000000000000000000000000600082015250565b6000615bad600e836155ab565b9150615bb882615b77565b602082019050919050565b60006020820190508181036000830152615bdc81615ba0565b9050919050565b7f496e73756666696369656e742066756e64732073656e74000000000000000000600082015250565b6000615c196017836155ab565b9150615c2482615be3565b602082019050919050565b60006020820190508181036000830152615c4881615c0c565b9050919050565b7f496e636f72726563742049440000000000000000000000000000000000000000600082015250565b6000615c85600c836155ab565b9150615c9082615c4f565b602082019050919050565b60006020820190508181036000830152615cb481615c78565b9050919050565b6000615cc682614ad3565b9150615cd183614ad3565b9250828203905081811115615ce957615ce86157fd565b5b92915050565b7f5472616e73616374696f6e206661696c65640000000000000000000000000000600082015250565b6000615d256012836155ab565b9150615d3082615cef565b602082019050919050565b60006020820190508181036000830152615d5481615d18565b9050919050565b7f496e76616c696420737570706c69657221000000000000000000000000000000600082015250565b6000615d916011836155ab565b9150615d9c82615d5b565b602082019050919050565b60006020820190508181036000830152615dc081615d84565b9050919050565b7f537570706c69657220646f65736e277420737570706c20626f64790000000000600082015250565b6000615dfd601b836155ab565b9150615e0882615dc7565b602082019050919050565b60006020820190508181036000830152615e2c81615df0565b9050919050565b7f537570706c69657220646f65736e277420737570706c20776865656c73000000600082015250565b6000615e69601d836155ab565b9150615e7482615e33565b602082019050919050565b60006020820190508181036000830152615e9881615e5c565b9050919050565b7f496e76616c6964207369676e2075700000000000000000000000000000000000600082015250565b6000615ed5600f836155ab565b9150615ee082615e9f565b602082019050919050565b60006020820190508181036000830152615f0481615ec8565b9050919050565b7f5065726d697373696f6e2064656e696564000000000000000000000000000000600082015250565b6000615f416011836155ab565b9150615f4c82615f0b565b602082019050919050565b60006020820190508181036000830152615f7081615f34565b9050919050565b7f496e76616c696420636172000000000000000000000000000000000000000000600082015250565b6000615fad600b836155ab565b9150615fb882615f77565b602082019050919050565b60006020820190508181036000830152615fdc81615fa0565b9050919050565b7f4e6f7420796f7572206361722100000000000000000000000000000000000000600082015250565b6000616019600d836155ab565b915061602482615fe3565b602082019050919050565b600060208201905081810360008301526160488161600c565b9050919050565b7f496e636f72726563742074616700000000000000000000000000000000000000600082015250565b6000616085600d836155ab565b91506160908261604f565b602082019050919050565b600060208201905081810360008301526160b481616078565b9050919050565b7f4e487b7100000000000000000000000000000000000000000000000000000000600052603160045260246000fd5b7f496e76616c696420706172742074797065210000000000000000000000000000600082015250565b60006161206012836155ab565b915061612b826160ea565b602082019050919050565b6000602082019050818103600083015261614f81616113565b9050919050565b7f496e636f727265637420737570706c6965720000000000000000000000000000600082015250565b600061618c6012836155ab565b915061619782616156565b602082019050919050565b600060208201905081810360008301526161bb8161617f565b9050919050565b7f4d61782062696473207265636965766564000000000000000000000000000000600082015250565b60006161f86011836155ab565b9150616203826161c2565b602082019050919050565b60006020820190508181036000830152616227816161eb565b9050919050565b6162378161522e565b82525050565b600060a0820190506162526000830188614b36565b61625f6020830187614b36565b61626c604083018661622e565b616279606083018561622e565b616286608083018461622e565b9695505050505050565b60006040820190506162a56000830185614b36565b6162b26020830184614b36565b939250505056fea26469706673582212206c6b7d7c68d19c0baa8dda6e50ee60fca025e6ee8b002b71ff8b35c661c5b83f64736f6c63430008100033",
  "immutableReferences": {},
  "source": "// SPDX-License-Identifier: MIT\npragma solidity >=0.8.16;\npragma experimental ABIEncoderV2;\n\n/// @title New Market Place\n/// @author Kunal Jain, P. Sahithi Reddy, Prince Varshney\n/// @notice Market place implementation\ncontract NewMarketPlace {\n    /// @dev Enum for the state of the auction the supplier is in\n    /// @dev NOT_RUNNING : Auction is not running right now\n    /// @dev BIDDING : Bidding phase of auction is going on\n    /// @dev REVEALING : Reveal phase of auction is going on\n    enum AuctionState {\n        NOT_RUNNING,\n        BIDDING,\n        REVEALING\n    }\n\n    /// @dev Enum for the part type\n    enum PartType {\n        WHEEL,\n        BODY\n    }\n\n    /// @dev Stores the details of the supplier\n    struct Supplier {\n        uint256 tag;\n        PartType partType; // part type they are selling\n        uint256 quantityAvailable; // quantity of the part available\n        AuctionState currentState; // currest state of the auction\n        address wallet; // wallet address\n        uint256 maxBidders; // max bidders that can participate in the auction\n        uint256 bidsPlaced; // bids that have been placed\n        uint256 bidsRevealed; // bids that have been revealed\n    }\n\n    function isSupplier() public view returns (bool) {\n        for (uint256 i = 0; i <= num_supplier; i++) {\n            if (suppliers[i].wallet == msg.sender) return true;\n        }\n        return false;\n    }\n\n    function getAllSuppliers() public view returns (Supplier[] memory) {\n        return allSuppliers;\n    }\n\n    /// @dev Stores the details of the manufacturer\n    struct Manufacturer {\n        uint256 tag;\n        uint256 wheelSupplier; // tag of supplier who supplies wheels\n        uint256 wheelQuant; // number of wheels\n        uint256 bodySupplier; // tag of supplier who supplies body\n        uint256 bodyQuant; // number of bodies\n        uint256 carsAvailable; // number of cars available\n        uint256 carPrice; // price of the cars\n        address wallet; // wallet address\n    }\n\n    function isManufacturer() public view returns (bool) {\n        for (uint256 i = 0; i <= num_manufacturer; i++) {\n            if (manufacturers[i].wallet == msg.sender) return true;\n        }\n        return false;\n    }\n\n    /// @dev Stores the details of the cars sold\n    struct Car {\n        uint256 tag;\n        uint256 customerID;\n        uint256 manufacturerID;\n        uint256 wheelSupID;\n        uint256 bodySupID;\n    }\n\n    /// @dev Stores the detail of the customer\n    struct Customer {\n        uint256 tag;\n        address wallet;\n    }\n\n    /// @dev stores the details of the bids\n    struct Bid {\n        uint256 actualPrice;\n        uint256 actualQuantity;\n        uint256 actualKey;\n        bytes32 blindPrice;\n        bytes32 blindQuantity;\n        bytes32 blindKey;\n        uint256 limitingQuantity;\n        uint256 buyerID;\n        uint256 sellerID;\n        uint256 moneySent;\n        bool correctReveal;\n        address payable bidderAddress;\n    }\n\n    /// @dev wallet address of the contract owner\n    address payable public owner;\n\n    mapping(uint256 => Supplier) public suppliers;\n    mapping(uint256 => Manufacturer) public manufacturers;\n    mapping(uint256 => Customer) public customers;\n    mapping(uint256 => Car) cars;\n    mapping(address => Bid[]) bidsTillNow;\n\n    uint256 num_supplier;\n    uint256 num_manufacturer;\n    uint256 num_customer;\n    uint256 num_cars;\n\n    Supplier[] allSuppliers;\n\n    /// @notice Triggered when a supplier starts their bidding phase\n    /// @param tag Tag of the supplier\n    /// @param timestamp Block height when bidding phase starts\n    event StartSupplierBidding(uint256 tag, uint256 timestamp);\n\n    /// @notice Triggered when a supplier starts their reveal phase\n    /// @param tag Tag of the supplier\n    /// @param timestamp Block height when reveal phase starts\n    event StartSupplierReveal(uint256 tag, uint256 timestamp);\n\n    /// @notice Triggered when a supplier suppliers parts to a manufacturer\n    /// @param supplierID Tag of the supplier\n    /// @param manufacturerID Tag of the manufacturer\n    /// @param quantity Quantities supplier\n    /// @param price Price per unit\n    event AllocateFromSupplier(\n        uint256 supplierID,\n        uint256 manufacturerID,\n        uint256 quantity,\n        uint256 price\n    );\n\n    /// @notice Triggered when a manufacturer places a bid\n    /// @param manufacturerID Tag of the manufacturer\n    /// @param supplierID Tag of the supplier\n    /// @param blindPrice Hash of (Price + Key)\n    /// @param blindQuantity Hash of (Quantity + Key)\n    /// @param blindKey Hash of Key\n    event ManufacturerBids(\n        uint256 manufacturerID,\n        uint256 supplierID,\n        bytes32 blindPrice,\n        bytes32 blindQuantity,\n        bytes32 blindKey\n    );\n\n    /// @notice Triggered when a manufacturer reveals a bid\n    /// @param manufacturerID Tag of the manufacturer\n    /// @param supplierID Tag of the supplier\n    /// @param actualPrice Price per quantity offered in the bid\n    /// @param actualQuantity Quantity requested in the bid\n    /// @param actualKey Key used to hide the bid\n    event ManufacturerReveal(\n        uint256 manufacturerID,\n        uint256 supplierID,\n        uint256 actualPrice,\n        uint256 actualQuantity,\n        uint256 actualKey\n    );\n\n    /// @notice Triggered when a car is sold by the manufacturer to a customer\n    /// @param carID Tag of the car sold\n    /// @param manufacturerID Tag of the manufacturer\n    /// @param customerID Tag of the customer\n    event CarSold(uint256 carID, uint256 manufacturerID, uint256 customerID);\n\n    constructor() {\n        num_cars = 0;\n        num_customer = 0;\n        num_manufacturer = 0;\n        num_supplier = 0;\n        owner = payable(msg.sender);\n    }\n\n    /// @dev Function to find the minumum of 2 unsigned integers\n    function minimum(uint256 a, uint256 b) public pure returns (uint256) {\n        return a >= b ? b : a;\n    }\n\n    /// @notice Function to start bidding of a supplier\n    /// @dev Triggeers StartSupplierBidding event\n    /// @param tag Tag of the supplier\n    /// @return uint256 Block height when the bidding starts\n    function supplierStartBidding(uint256 tag) public returns (uint256) {\n        require(tag <= num_supplier, \"Invalid supplier!\");\n        require(suppliers[tag].currentState == AuctionState.NOT_RUNNING);\n        require(msg.sender == suppliers[tag].wallet, \"Incorrect tag\");\n        suppliers[tag].currentState = AuctionState.BIDDING;\n        suppliers[tag].bidsPlaced = 0;\n        suppliers[tag].bidsRevealed = 0;\n        emit StartSupplierBidding(tag, block.timestamp);\n        return block.timestamp;\n    }\n\n    /// @notice Function to start reveal of a supplier\n    /// @dev Triggeers StartSupplierReveal event\n    /// @param tag Tag of the supplier\n    /// @return uint256 Block height when the reveal starts\n    function supplierStartReveal(uint256 tag) public returns (uint256) {\n        require(tag <= num_supplier, \"Invalid supplier!\");\n        require(suppliers[tag].currentState == AuctionState.BIDDING);\n        require(msg.sender == suppliers[tag].wallet, \"Incorrect tag\");\n        suppliers[tag].currentState = AuctionState.REVEALING;\n        emit StartSupplierReveal(tag, block.timestamp);\n        return block.timestamp;\n    }\n\n    /// @notice Function to end the auction of a supplier\n    /// @dev Triggers AllocateFromSupplier and back payments on bids\n    /// @param tag Tag of the supplier\n    /// @return uint256 Block height when the auction ends\n    function supplierEndAuction(uint256 tag) public returns (uint256) {\n        require(tag <= num_supplier, \"Invalid supplier!\");\n        require(suppliers[tag].currentState == AuctionState.REVEALING);\n        require(msg.sender == suppliers[tag].wallet, \"Incorrect tag\");\n        suppliers[tag].currentState = AuctionState.NOT_RUNNING;\n\n        // bubble sorting the bids\n        for (\n            uint256 i = 0;\n            i < bidsTillNow[suppliers[tag].wallet].length;\n            i++\n        ) {\n            for (uint256 j = 0; j < i; j++)\n                if (\n                    bidsTillNow[suppliers[tag].wallet][i].actualPrice <\n                    bidsTillNow[suppliers[tag].wallet][j].actualPrice\n                ) {\n                    Bid memory x = bidsTillNow[suppliers[tag].wallet][i];\n                    bidsTillNow[suppliers[tag].wallet][i] = bidsTillNow[\n                        suppliers[tag].wallet\n                    ][j];\n                    bidsTillNow[suppliers[tag].wallet][j] = x;\n                }\n        }\n\n        // the allocations\n        uint256[100] memory allocatingPrices;\n        uint256[100] memory allocatingQuantities;\n        uint256[100] memory moneySentWithBid;\n\n        // optimal resource allocation\n        for (\n            uint256 i = 0;\n            i < bidsTillNow[suppliers[tag].wallet].length;\n            i++\n        ) {\n            Bid memory bid = bidsTillNow[suppliers[tag].wallet][i];\n            if (bid.correctReveal == false) continue;\n\n            moneySentWithBid[bid.buyerID] = bid.moneySent;\n\n            uint256 allocatingHere = minimum(\n                suppliers[tag].quantityAvailable,\n                bid.limitingQuantity\n            );\n            allocatingHere = minimum(allocatingHere, bid.actualQuantity);\n\n            allocatingPrices[bid.buyerID] = bid.actualPrice;\n            allocatingQuantities[bid.buyerID] = allocatingHere;\n            suppliers[tag].quantityAvailable -= allocatingHere;\n            bidsTillNow[suppliers[tag].wallet][i]\n                .actualQuantity -= allocatingHere;\n        }\n\n        // allocating to maximize profit\n        for (\n            uint256 i = 0;\n            i < bidsTillNow[suppliers[tag].wallet].length;\n            i++\n        ) {\n            Bid memory bid = bidsTillNow[suppliers[tag].wallet][i];\n            if (bid.correctReveal == false) continue;\n            uint256 allocatingHere = minimum(\n                suppliers[tag].quantityAvailable,\n                bid.actualQuantity\n            );\n\n            allocatingQuantities[bid.buyerID] += allocatingHere;\n            suppliers[tag].quantityAvailable -= allocatingHere;\n            bidsTillNow[suppliers[tag].wallet][i]\n                .actualQuantity -= allocatingHere;\n        }\n\n        // emit all allocations\n        for (uint256 i = 1; i <= num_manufacturer; i++)\n            if (allocatingQuantities[i] > 0) {\n                emit AllocateFromSupplier(\n                    tag,\n                    i,\n                    allocatingQuantities[i],\n                    allocatingPrices[i]\n                );\n                // non bid money to manufacturer\n                require(\n                    payable(manufacturers[i].wallet).send(\n                        moneySentWithBid[i] -\n                            allocatingPrices[i] *\n                            allocatingQuantities[i]\n                    ),\n                    \"Transaction failed\"\n                );\n                // bid money to supplier\n                require(\n                    payable(suppliers[tag].wallet).send(\n                        allocatingPrices[i] * allocatingQuantities[i]\n                    ),\n                    \"Transaction failed\"\n                );\n                //update all the manufacturers quanitites to make cars\n                if (suppliers[tag].partType == PartType.BODY) {\n                    manufacturers[i].bodyQuant += allocatingQuantities[i];\n                } else if (suppliers[tag].partType == PartType.WHEEL) {\n                    manufacturers[i].wheelQuant += allocatingQuantities[i];\n                } else revert();\n                updateManufacturerCars(i);\n            }\n        while (bidsTillNow[suppliers[tag].wallet].length > 0)\n            bidsTillNow[suppliers[tag].wallet].pop();\n\n        return block.timestamp;\n    }\n\n    /// @dev Updates the cars of a manufacturer based on the quantities of parts it has\n    function updateManufacturerCars(uint256 tag) private {\n        uint256 carsMade = minimum(\n            manufacturers[tag].bodyQuant,\n            manufacturers[tag].wheelQuant\n        );\n        manufacturers[tag].bodyQuant -= carsMade;\n        manufacturers[tag].wheelQuant -= carsMade;\n        manufacturers[tag].carsAvailable += carsMade;\n    }\n\n    /// @notice Function for manufacturers to place bids\n    /// @dev Triggers ManufacturerBids event\n    /// @param manufacturerID Tag of the manufacturer\n    /// @param supplierID Tag of the supplier\n    /// @param blindPrice Price per unit hidden using the key and SHA256 encryption\n    /// @param blindQuantity Quantities requested hidden using the key and SHA256 encryption\n    /// @param blindKey Key used to hide the price and quantity\n    /// @return limitingQuantity Liming quantity of the manufacturer for optimal resource allocation\n    function manufacturerPlacesBid(\n        uint256 manufacturerID,\n        uint256 supplierID,\n        bytes32 blindPrice,\n        bytes32 blindQuantity,\n        bytes32 blindKey\n    ) public payable returns (uint256 limitingQuantity) {\n        require(manufacturerID <= num_manufacturer, \"Invalid ID\");\n        require(supplierID <= num_supplier, \"Invalid ID\");\n        require(\n            msg.sender == manufacturers[manufacturerID].wallet,\n            \"Incorrect ID\"\n        );\n        if (suppliers[supplierID].partType == PartType.WHEEL) {\n            require(\n                manufacturers[manufacturerID].wheelSupplier == supplierID,\n                \"Incorrect supplier\"\n            );\n        } else {\n            require(\n                manufacturers[manufacturerID].bodySupplier == supplierID,\n                \"Incorrect supplier\"\n            );\n        }\n        require(\n            suppliers[supplierID].bidsPlaced <=\n                suppliers[supplierID].maxBidders,\n            \"Max bids recieved\"\n        );\n        uint256 limiting;\n        if (suppliers[supplierID].partType == PartType.BODY) {\n            uint256 bodySupplier = manufacturers[manufacturerID].bodySupplier;\n            limiting =\n                suppliers[bodySupplier].quantityAvailable +\n                manufacturers[manufacturerID].bodyQuant;\n        } else {\n            uint256 wheelSupplier = manufacturers[manufacturerID].wheelSupplier;\n            limiting =\n                suppliers[wheelSupplier].quantityAvailable +\n                manufacturers[manufacturerID].wheelQuant;\n        }\n        bidsTillNow[suppliers[supplierID].wallet].push(\n            Bid(\n                0,\n                0,\n                0,\n                blindPrice,\n                blindQuantity,\n                blindKey,\n                limiting,\n                manufacturerID,\n                supplierID,\n                msg.value,\n                false,\n                payable(msg.sender)\n            )\n        );\n        suppliers[supplierID].bidsPlaced += 1;\n        emit ManufacturerBids(\n            manufacturerID,\n            supplierID,\n            blindPrice,\n            blindQuantity,\n            blindKey\n        );\n        return limiting;\n    }\n\n    /// @notice Function for manufacturers to reveal bids\n    /// @dev Triggers ManufacturerReveal event\n    /// @param manufacturerID Tag of the manufacturer\n    /// @param supplierID Tag of the supplier\n    /// @param actualPrice Price per unit\n    /// @param actualQuantity Quantities requested\n    /// @param actualKey Key used to hide the price and quantity\n    /// @return bool Reveal was valid or not\n    function manufacturerRevealsBid(\n        uint256 manufacturerID,\n        uint256 supplierID,\n        uint256 actualPrice,\n        uint256 actualQuantity,\n        uint256 actualKey\n    ) public returns (bool) {\n        require(manufacturerID <= num_manufacturer, \"Invalid ID\");\n        require(supplierID <= num_supplier, \"Invalid ID\");\n        require(\n            suppliers[supplierID].currentState == AuctionState.REVEALING,\n            \"Reveal phase not going on\"\n        );\n        require(\n            manufacturers[manufacturerID].wallet == msg.sender,\n            \"Invalid ID\"\n        );\n        for (\n            uint256 i = 0;\n            i < bidsTillNow[suppliers[supplierID].wallet].length;\n            i++\n        ) {\n            if (\n                bidsTillNow[suppliers[supplierID].wallet][i].buyerID !=\n                manufacturerID\n            ) continue;\n            Bid memory bid = bidsTillNow[suppliers[supplierID].wallet][i];\n            require(bid.correctReveal == false, \"Bid already revealed\");\n            require(\n                keccak256(abi.encodePacked(actualKey)) == bid.blindKey,\n                \"Incorrect key -- keeping your money\"\n            );\n            require(\n                keccak256(abi.encodePacked(actualKey + actualPrice)) ==\n                    bid.blindPrice,\n                \"Incorrect price -- keeping your money\"\n            );\n            require(\n                keccak256(abi.encodePacked(actualKey + actualQuantity)) ==\n                    bid.blindQuantity,\n                \"Incorrect quantity -- keeping your money\"\n            );\n            uint256 effectivePrice = actualPrice * actualQuantity;\n            require(\n                effectivePrice < bid.moneySent,\n                \"Insufficient funds sent -- keeping your money\"\n            );\n            bidsTillNow[suppliers[supplierID].wallet][i].correctReveal = true;\n            bidsTillNow[suppliers[supplierID].wallet][i]\n                .actualPrice = actualPrice;\n            bidsTillNow[suppliers[supplierID].wallet][i]\n                .actualQuantity = actualQuantity;\n            bidsTillNow[suppliers[supplierID].wallet][i].actualKey = actualKey;\n            suppliers[supplierID].bidsRevealed += 1;\n            emit ManufacturerReveal(\n                manufacturerID,\n                supplierID,\n                actualPrice,\n                actualQuantity,\n                actualKey\n            );\n            return true;\n        }\n        return false;\n    }\n\n    /// @notice Function for customers to buy cars\n    /// @dev Triggers CarSold event\n    /// @param customerID Tag of the customer\n    /// @param manufacturerID Tag of the manufacturer\n    /// @param priceOfferedPerCar Price per unit\n    /// @param quantityRequested Quantities requested\n    /// @return uint256 Quantity supplied\n    function customerBuysCar(\n        uint256 customerID,\n        uint256 manufacturerID,\n        uint256 priceOfferedPerCar,\n        uint256 quantityRequested\n    ) public payable returns (uint256) {\n        require(customerID <= num_customer, \"Invalid customer\");\n        require(manufacturerID <= num_manufacturer, \"Invalid customer\");\n        require(\n            priceOfferedPerCar >= manufacturers[manufacturerID].carPrice,\n            \"Cost is higher\"\n        );\n        require(\n            msg.value >= priceOfferedPerCar * quantityRequested,\n            \"Insufficient funds sent\"\n        );\n        require(\n            msg.sender == payable(customers[customerID].wallet),\n            \"Incorrect ID\"\n        );\n        uint256 selling = minimum(\n            quantityRequested,\n            manufacturers[manufacturerID].carsAvailable\n        );\n        for (uint256 i = 0; i < selling; i++) {\n            num_cars++;\n            cars[num_cars] = Car(\n                num_cars,\n                customerID,\n                manufacturerID,\n                manufacturers[manufacturerID].wheelSupplier,\n                manufacturers[manufacturerID].bodySupplier\n            );\n            emit CarSold(num_cars, manufacturerID, customerID);\n        }\n        manufacturers[manufacturerID].carsAvailable -= selling;\n        require(\n            payable(manufacturers[manufacturerID].wallet).send(\n                selling * priceOfferedPerCar\n            ),\n            \"Transaction failed\"\n        );\n        require(\n            payable(msg.sender).send(msg.value - selling * priceOfferedPerCar),\n            \"Transaction failed\"\n        );\n        return selling;\n    }\n\n    /// @notice Verify details of your car\n    /// @param customerID Tag of the customer\n    /// @param carID Tag of the car\n    /// @return id Tag of the car\n    /// @return manufacturerID Tag of the manufacturer who sold the car\n    /// @return wheelSupplier Tag of wheel supplier\n    /// @return bodySupplier Tag of body supplier\n    function verifyCar(uint256 customerID, uint256 carID)\n        public\n        view\n        returns (\n            uint256 id,\n            uint256 manufacturerID,\n            uint256 wheelSupplier,\n            uint256 bodySupplier\n        )\n    {\n        require(customerID <= num_customer, \"Invalid car\");\n        require(customers[customerID].wallet == msg.sender, \"Incorrect ID\");\n        require(carID <= num_cars, \"Invalid car\");\n        require(cars[carID].customerID == customerID, \"Not your car!\");\n        return (\n            carID,\n            cars[carID].manufacturerID,\n            cars[carID].wheelSupID,\n            cars[carID].bodySupID\n        );\n    }\n\n    /// @notice Add a supplier to the supply chain\n    /// @param partType Type of the part supplier is going to provide. 0 for body and 1 for wheels\n    /// @param quantityAvailable Quantity available with the supplier\n    /// @param addr Wallet address of the supplier\n    /// @param auctionBidders Number of people that can bid in it's auction\n    /// @return tag of the supplier added\n    function addSupplier(\n        uint256 partType,\n        uint256 quantityAvailable,\n        address payable addr,\n        uint256 auctionBidders\n    ) public payable returns (uint256 tag) {\n        require(partType <= 1, \"Invalid part type!\");\n        require(msg.sender == addr, \"Invalid sign up\");\n        num_supplier++;\n        PartType here = PartType.BODY;\n        if (partType == 1) here = PartType.WHEEL;\n        suppliers[num_supplier] = Supplier(\n            num_supplier,\n            here,\n            quantityAvailable,\n            AuctionState.NOT_RUNNING,\n            addr,\n            auctionBidders,\n            0,\n            0\n        );\n        allSuppliers.push(\n            Supplier(\n                num_supplier,\n                here,\n                quantityAvailable,\n                AuctionState.NOT_RUNNING,\n                addr,\n                auctionBidders,\n                0,\n                0\n            )\n        );\n        return num_supplier;\n    }\n\n    /// @notice Update the quantity available with a supplier\n    /// @param tag Tag of the supplier\n    /// @param newQuantity New quantity to add\n    /// @return totalQuantity total quantity with the supplier\n    function updateSupplierQuantity(uint256 tag, uint256 newQuantity)\n        public\n        returns (uint256 totalQuantity)\n    {\n        require(tag <= num_supplier, \"Invalid ID\");\n        require(suppliers[tag].wallet == msg.sender, \"Incorrect ID\");\n        suppliers[tag].quantityAvailable += newQuantity;\n        return suppliers[tag].quantityAvailable;\n    }\n\n    /// @notice Add a supplier to the supply chain\n    /// @param addr Wallet address of the supplier\n    /// @param wheelSupplier Tag of supplier to buy wheels from\n    /// @param bodySupplier Tag of supplier to buy body from\n    /// @param askingPrice Minimum asking price for the cars\n    /// @return tag of the manufacturer added\n    function addManufacturer(\n        address payable addr,\n        uint256 wheelSupplier,\n        uint256 bodySupplier,\n        uint256 askingPrice\n    ) public returns (uint256 tag) {\n        require(\n            wheelSupplier >= 1 && wheelSupplier <= num_supplier,\n            \"Invalid supplier!\"\n        );\n        require(\n            bodySupplier >= 1 && bodySupplier <= num_supplier,\n            \"Invalid supplier!\"\n        );\n        require(\n            suppliers[bodySupplier].partType == PartType.BODY,\n            \"Supplier doesn't suppl body\"\n        );\n        require(\n            suppliers[wheelSupplier].partType == PartType.WHEEL,\n            \"Supplier doesn't suppl wheels\"\n        );\n        require(msg.sender == addr, \"Invalid sign up\");\n        num_manufacturer++;\n        manufacturers[num_manufacturer] = Manufacturer(\n            num_manufacturer,\n            wheelSupplier,\n            0,\n            bodySupplier,\n            0,\n            0,\n            askingPrice,\n            addr\n        );\n        return num_manufacturer;\n    }\n\n    /// @notice Add a supplier to the supply chain\n    /// @param addr Wallet address of the supplier\n    /// @return tag of the customer added\n    function addCustomer(address payable addr) public returns (uint256 tag) {\n        require(msg.sender == addr, \"Invalid sign up\");\n        num_customer++;\n        customers[num_customer] = Customer(num_customer, addr);\n        return num_customer;\n    }\n\n    /// @notice Get the number of customers\n    /// @return uint256 Number of customers\n    function getCustomers() public view returns (uint256) {\n        return num_customer;\n    }\n\n    /// @notice Get the number of cars\n    /// @return uint256 Number of cars\n    function getCars() public view returns (uint256) {\n        return num_cars;\n    }\n    // // @notice Get the number of suppliers\n    // // @return uint256 Number of suppliers\n    // function getSuppliers() public view returns (uint256) {\n    //     return num_supplier;\n    // }\n\n    \n\n    // // @notice Get the number of cars\n    // // @return uint256 Number of cars\n    // function getCars() public view returns (uint256) {\n    //     return num_cars;\n    // }\n\n    /// @notice Get quantity of each part and car with a manufacturer\n    /// @return quantityWheel Number of wheels\n    /// @return quantityBody Number of bodies\n    /// @return quantityCar Number of prepared cars\n    function getManufacturerQuantities(uint256 tag)\n        public\n        view\n        returns (\n            uint256 quantityWheel,\n            uint256 quantityBody,\n            uint256 quantityCar\n        )\n    {\n        require(tag <= num_manufacturer);\n        require(\n            (msg.sender == owner || msg.sender == manufacturers[tag].wallet),\n            \"Permission denied\"\n        );\n        return (\n            manufacturers[tag].wheelQuant,\n            manufacturers[tag].bodyQuant,\n            manufacturers[tag].carsAvailable\n        );\n    }\n\n    function getSupplierID(address supplier_addr)\n    public \n    view\n    returns(\n        uint256 tag\n    ){\n        for(uint256 i=1;i<num_supplier;i++){\n            if(allSuppliers[i].wallet == supplier_addr){\n                return allSuppliers[i].tag;\n            }\n        }\n    }\n\n    function getManufacturerID(address manufacturer_addr)\n    public\n    view\n    returns(\n         uint256 tag,\n            uint256 wheelSupplier,\n            uint256 wheelQuant,\n            uint256 bodySupplier,\n            uint256 bodyQuant,\n            uint256 carsAvailable,\n            uint256 carPrice,\n            address wallet\n    ){\n        for(uint256 i=1;i<=num_manufacturer;i++){\n            if(manufacturers[i].wallet == manufacturer_addr){\n                return (\n                     manufacturers[i].tag,\n                    manufacturers[i].wheelSupplier,\n                    manufacturers[i].wheelQuant,\n                    manufacturers[i].bodySupplier,\n                    manufacturers[i].bodyQuant,\n                    manufacturers[i].carsAvailable,\n                    manufacturers[i].carPrice,\n                    manufacturers[i].wallet\n                );\n            }\n        }\n    }\n\n    function getAuctionState(uint256 tag) public view returns (uint256 state) {\n        require(tag <= num_supplier);\n        if (suppliers[tag].currentState == AuctionState.NOT_RUNNING) {\n            return 1;\n        } else if (suppliers[tag].currentState == AuctionState.BIDDING) {\n            return 2;\n        } else if (suppliers[tag].currentState == AuctionState.REVEALING) {\n            return 3;\n        }\n    }\n    function getSupplierBids(address wallet, uint256 idx)\n    public\n    view\n    returns(\n        Bid[] memory\n    ){\n        return bidsTillNow[wallet];\n    }\n}\n",
  "sourcePath": "/home/sahithi/acads/sem7/dtb/Supply-Chain-Smartcontract/contracts/MarketPlace2.sol",
  "compiler": {
    "name": "solc",
    "version": "0.8.16+commit.07a7930e.Emscripten.clang"
  },
  "schemaVersion": "3.4.8",
  "updatedAt": "2022-09-15T14:37:38.492Z",
  "devdoc": {
    "author": "Kunal Jain, P. Sahithi Reddy, Prince Varshney",
    "events": {
      "AllocateFromSupplier(uint256,uint256,uint256,uint256)": {
        "params": {
          "manufacturerID": "Tag of the manufacturer",
          "price": "Price per unit",
          "quantity": "Quantities supplier",
          "supplierID": "Tag of the supplier"
        }
      },
      "CarSold(uint256,uint256,uint256)": {
        "params": {
          "carID": "Tag of the car sold",
          "customerID": "Tag of the customer",
          "manufacturerID": "Tag of the manufacturer"
        }
      },
      "ManufacturerBids(uint256,uint256,bytes32,bytes32,bytes32)": {
        "params": {
          "blindKey": "Hash of Key",
          "blindPrice": "Hash of (Price + Key)",
          "blindQuantity": "Hash of (Quantity + Key)",
          "manufacturerID": "Tag of the manufacturer",
          "supplierID": "Tag of the supplier"
        }
      },
      "ManufacturerReveal(uint256,uint256,uint256,uint256,uint256)": {
        "params": {
          "actualKey": "Key used to hide the bid",
          "actualPrice": "Price per quantity offered in the bid",
          "actualQuantity": "Quantity requested in the bid",
          "manufacturerID": "Tag of the manufacturer",
          "supplierID": "Tag of the supplier"
        }
      },
      "StartSupplierBidding(uint256,uint256)": {
        "params": {
          "tag": "Tag of the supplier",
          "timestamp": "Block height when bidding phase starts"
        }
      },
      "StartSupplierReveal(uint256,uint256)": {
        "params": {
          "tag": "Tag of the supplier",
          "timestamp": "Block height when reveal phase starts"
        }
      }
    },
    "kind": "dev",
    "methods": {
      "addCustomer(address)": {
        "params": {
          "addr": "Wallet address of the supplier"
        },
        "returns": {
          "tag": "of the customer added"
        }
      },
      "addManufacturer(address,uint256,uint256,uint256)": {
        "params": {
          "addr": "Wallet address of the supplier",
          "askingPrice": "Minimum asking price for the cars",
          "bodySupplier": "Tag of supplier to buy body from",
          "wheelSupplier": "Tag of supplier to buy wheels from"
        },
        "returns": {
          "tag": "of the manufacturer added"
        }
      },
      "addSupplier(uint256,uint256,address,uint256)": {
        "params": {
          "addr": "Wallet address of the supplier",
          "auctionBidders": "Number of people that can bid in it's auction",
          "partType": "Type of the part supplier is going to provide. 0 for body and 1 for wheels",
          "quantityAvailable": "Quantity available with the supplier"
        },
        "returns": {
          "tag": "of the supplier added"
        }
      },
      "customerBuysCar(uint256,uint256,uint256,uint256)": {
        "details": "Triggers CarSold event",
        "params": {
          "customerID": "Tag of the customer",
          "manufacturerID": "Tag of the manufacturer",
          "priceOfferedPerCar": "Price per unit",
          "quantityRequested": "Quantities requested"
        },
        "returns": {
          "_0": "uint256 Quantity supplied"
        }
      },
      "getCars()": {
        "returns": {
          "_0": "uint256 Number of cars"
        }
      },
      "getCustomers()": {
        "returns": {
          "_0": "uint256 Number of customers"
        }
      },
      "getManufacturerQuantities(uint256)": {
        "returns": {
          "quantityBody": "Number of bodies",
          "quantityCar": "Number of prepared cars",
          "quantityWheel": "Number of wheels"
        }
      },
      "manufacturerPlacesBid(uint256,uint256,bytes32,bytes32,bytes32)": {
        "details": "Triggers ManufacturerBids event",
        "params": {
          "blindKey": "Key used to hide the price and quantity",
          "blindPrice": "Price per unit hidden using the key and SHA256 encryption",
          "blindQuantity": "Quantities requested hidden using the key and SHA256 encryption",
          "manufacturerID": "Tag of the manufacturer",
          "supplierID": "Tag of the supplier"
        },
        "returns": {
          "limitingQuantity": "Liming quantity of the manufacturer for optimal resource allocation"
        }
      },
      "manufacturerRevealsBid(uint256,uint256,uint256,uint256,uint256)": {
        "details": "Triggers ManufacturerReveal event",
        "params": {
          "actualKey": "Key used to hide the price and quantity",
          "actualPrice": "Price per unit",
          "actualQuantity": "Quantities requested",
          "manufacturerID": "Tag of the manufacturer",
          "supplierID": "Tag of the supplier"
        },
        "returns": {
          "_0": "bool Reveal was valid or not"
        }
      },
      "minimum(uint256,uint256)": {
        "details": "Function to find the minumum of 2 unsigned integers"
      },
      "supplierEndAuction(uint256)": {
        "details": "Triggers AllocateFromSupplier and back payments on bids",
        "params": {
          "tag": "Tag of the supplier"
        },
        "returns": {
          "_0": "uint256 Block height when the auction ends"
        }
      },
      "supplierStartBidding(uint256)": {
        "details": "Triggeers StartSupplierBidding event",
        "params": {
          "tag": "Tag of the supplier"
        },
        "returns": {
          "_0": "uint256 Block height when the bidding starts"
        }
      },
      "supplierStartReveal(uint256)": {
        "details": "Triggeers StartSupplierReveal event",
        "params": {
          "tag": "Tag of the supplier"
        },
        "returns": {
          "_0": "uint256 Block height when the reveal starts"
        }
      },
      "updateSupplierQuantity(uint256,uint256)": {
        "params": {
          "newQuantity": "New quantity to add",
          "tag": "Tag of the supplier"
        },
        "returns": {
          "totalQuantity": "total quantity with the supplier"
        }
      },
      "verifyCar(uint256,uint256)": {
        "params": {
          "carID": "Tag of the car",
          "customerID": "Tag of the customer"
        },
        "returns": {
          "bodySupplier": "Tag of body supplier",
          "id": "Tag of the car",
          "manufacturerID": "Tag of the manufacturer who sold the car",
          "wheelSupplier": "Tag of wheel supplier"
        }
      }
    },
    "stateVariables": {
      "owner": {
        "details": "wallet address of the contract owner"
      }
    },
    "title": "New Market Place",
    "version": 1
  },
  "userdoc": {
    "events": {
      "AllocateFromSupplier(uint256,uint256,uint256,uint256)": {
        "notice": "Triggered when a supplier suppliers parts to a manufacturer"
      },
      "CarSold(uint256,uint256,uint256)": {
        "notice": "Triggered when a car is sold by the manufacturer to a customer"
      },
      "ManufacturerBids(uint256,uint256,bytes32,bytes32,bytes32)": {
        "notice": "Triggered when a manufacturer places a bid"
      },
      "ManufacturerReveal(uint256,uint256,uint256,uint256,uint256)": {
        "notice": "Triggered when a manufacturer reveals a bid"
      },
      "StartSupplierBidding(uint256,uint256)": {
        "notice": "Triggered when a supplier starts their bidding phase"
      },
      "StartSupplierReveal(uint256,uint256)": {
        "notice": "Triggered when a supplier starts their reveal phase"
      }
    },
    "kind": "user",
    "methods": {
      "addCustomer(address)": {
        "notice": "Add a supplier to the supply chain"
      },
      "addManufacturer(address,uint256,uint256,uint256)": {
        "notice": "Add a supplier to the supply chain"
      },
      "addSupplier(uint256,uint256,address,uint256)": {
        "notice": "Add a supplier to the supply chain"
      },
      "customerBuysCar(uint256,uint256,uint256,uint256)": {
        "notice": "Function for customers to buy cars"
      },
      "getCars()": {
        "notice": "Get the number of cars"
      },
      "getCustomers()": {
        "notice": "Get the number of customers"
      },
      "getManufacturerQuantities(uint256)": {
        "notice": "Get quantity of each part and car with a manufacturer"
      },
      "manufacturerPlacesBid(uint256,uint256,bytes32,bytes32,bytes32)": {
        "notice": "Function for manufacturers to place bids"
      },
      "manufacturerRevealsBid(uint256,uint256,uint256,uint256,uint256)": {
        "notice": "Function for manufacturers to reveal bids"
      },
      "supplierEndAuction(uint256)": {
        "notice": "Function to end the auction of a supplier"
      },
      "supplierStartBidding(uint256)": {
        "notice": "Function to start bidding of a supplier"
      },
      "supplierStartReveal(uint256)": {
        "notice": "Function to start reveal of a supplier"
      },
      "updateSupplierQuantity(uint256,uint256)": {
        "notice": "Update the quantity available with a supplier"
      },
      "verifyCar(uint256,uint256)": {
        "notice": "Verify details of your car"
      }
    },
    "notice": "Market place implementation",
    "version": 1
  }
}