{
  "contractName": "NewMarketPlace",
  "abi": [
    {
      "inputs": [],
      "stateMutability": "nonpayable",
      "type": "constructor"
    },
    {
      "anonymous": false,
      "inputs": [
        {
          "indexed": false,
          "internalType": "uint256",
          "name": "supplierID",
          "type": "uint256"
        },
        {
          "indexed": false,
          "internalType": "uint256",
          "name": "manufacturerID",
          "type": "uint256"
        },
        {
          "indexed": false,
          "internalType": "uint256",
          "name": "quantity",
          "type": "uint256"
        },
        {
          "indexed": false,
          "internalType": "uint256",
          "name": "price",
          "type": "uint256"
        }
      ],
      "name": "AllocateFromSupplier",
      "type": "event"
    },
    {
      "anonymous": false,
      "inputs": [
        {
          "indexed": false,
          "internalType": "uint256",
          "name": "carID",
          "type": "uint256"
        },
        {
          "indexed": false,
          "internalType": "uint256",
          "name": "manufacturerID",
          "type": "uint256"
        },
        {
          "indexed": false,
          "internalType": "uint256",
          "name": "customerID",
          "type": "uint256"
        }
      ],
      "name": "CarSold",
      "type": "event"
    },
    {
      "anonymous": false,
      "inputs": [
        {
          "indexed": false,
          "internalType": "uint256",
          "name": "manufacturerID",
          "type": "uint256"
        },
        {
          "indexed": false,
          "internalType": "uint256",
          "name": "supplierID",
          "type": "uint256"
        },
        {
          "indexed": false,
          "internalType": "bytes32",
          "name": "blindPrice",
          "type": "bytes32"
        },
        {
          "indexed": false,
          "internalType": "bytes32",
          "name": "blindQuantity",
          "type": "bytes32"
        },
        {
          "indexed": false,
          "internalType": "bytes32",
          "name": "blindKey",
          "type": "bytes32"
        }
      ],
      "name": "ManufacturerBids",
      "type": "event"
    },
    {
      "anonymous": false,
      "inputs": [
        {
          "indexed": false,
          "internalType": "uint256",
          "name": "manufacturerID",
          "type": "uint256"
        },
        {
          "indexed": false,
          "internalType": "uint256",
          "name": "supplierID",
          "type": "uint256"
        },
        {
          "indexed": false,
          "internalType": "uint256",
          "name": "actualPrice",
          "type": "uint256"
        },
        {
          "indexed": false,
          "internalType": "uint256",
          "name": "actualQuantity",
          "type": "uint256"
        },
        {
          "indexed": false,
          "internalType": "uint256",
          "name": "actualKey",
          "type": "uint256"
        }
      ],
      "name": "ManufacturerReveal",
      "type": "event"
    },
    {
      "anonymous": false,
      "inputs": [
        {
          "indexed": false,
          "internalType": "uint256",
          "name": "tag",
          "type": "uint256"
        },
        {
          "indexed": false,
          "internalType": "uint256",
          "name": "timestamp",
          "type": "uint256"
        }
      ],
      "name": "StartSupplierBidding",
      "type": "event"
    },
    {
      "anonymous": false,
      "inputs": [
        {
          "indexed": false,
          "internalType": "uint256",
          "name": "tag",
          "type": "uint256"
        },
        {
          "indexed": false,
          "internalType": "uint256",
          "name": "timestamp",
          "type": "uint256"
        }
      ],
      "name": "StartSupplierReveal",
      "type": "event"
    },
    {
      "inputs": [
        {
          "internalType": "uint256",
          "name": "",
          "type": "uint256"
        }
      ],
      "name": "customers",
      "outputs": [
        {
          "internalType": "uint256",
          "name": "tag",
          "type": "uint256"
        },
        {
          "internalType": "address",
          "name": "wallet",
          "type": "address"
        }
      ],
      "stateMutability": "view",
      "type": "function",
      "constant": true
    },
    {
      "inputs": [
        {
          "internalType": "uint256",
          "name": "",
          "type": "uint256"
        }
      ],
      "name": "manufacturers",
      "outputs": [
        {
          "internalType": "uint256",
          "name": "tag",
          "type": "uint256"
        },
        {
          "internalType": "uint256",
          "name": "wheelSupplier",
          "type": "uint256"
        },
        {
          "internalType": "uint256",
          "name": "wheelQuant",
          "type": "uint256"
        },
        {
          "internalType": "uint256",
          "name": "bodySupplier",
          "type": "uint256"
        },
        {
          "internalType": "uint256",
          "name": "bodyQuant",
          "type": "uint256"
        },
        {
          "internalType": "uint256",
          "name": "carsAvailable",
          "type": "uint256"
        },
        {
          "internalType": "uint256",
          "name": "carPrice",
          "type": "uint256"
        },
        {
          "internalType": "address",
          "name": "wallet",
          "type": "address"
        }
      ],
      "stateMutability": "view",
      "type": "function",
      "constant": true
    },
    {
      "inputs": [],
      "name": "owner",
      "outputs": [
        {
          "internalType": "address payable",
          "name": "",
          "type": "address"
        }
      ],
      "stateMutability": "view",
      "type": "function",
      "constant": true
    },
    {
      "inputs": [
        {
          "internalType": "uint256",
          "name": "",
          "type": "uint256"
        }
      ],
      "name": "suppliers",
      "outputs": [
        {
          "internalType": "uint256",
          "name": "tag",
          "type": "uint256"
        },
        {
          "internalType": "enum NewMarketPlace.PartType",
          "name": "partType",
          "type": "uint8"
        },
        {
          "internalType": "uint256",
          "name": "quantityAvailable",
          "type": "uint256"
        },
        {
          "internalType": "enum NewMarketPlace.AuctionState",
          "name": "currentState",
          "type": "uint8"
        },
        {
          "internalType": "address",
          "name": "wallet",
          "type": "address"
        },
        {
          "internalType": "uint256",
          "name": "maxBidders",
          "type": "uint256"
        },
        {
          "internalType": "uint256",
          "name": "bidsPlaced",
          "type": "uint256"
        },
        {
          "internalType": "uint256",
          "name": "bidsRevealed",
          "type": "uint256"
        }
      ],
      "stateMutability": "view",
      "type": "function",
      "constant": true
    },
    {
      "inputs": [],
      "name": "isSupplier",
      "outputs": [
        {
          "internalType": "bool",
          "name": "",
          "type": "bool"
        }
      ],
      "stateMutability": "view",
      "type": "function",
      "constant": true
    },
    {
      "inputs": [],
      "name": "numSuppliers",
      "outputs": [
        {
          "internalType": "uint256",
          "name": "",
          "type": "uint256"
        }
      ],
      "stateMutability": "view",
      "type": "function",
      "constant": true
    },
    {
      "inputs": [
        {
          "internalType": "uint256",
          "name": "id",
          "type": "uint256"
        }
      ],
      "name": "getSupplierByID",
      "outputs": [
        {
          "internalType": "uint256",
          "name": "tag",
          "type": "uint256"
        },
        {
          "internalType": "uint256",
          "name": "partType",
          "type": "uint256"
        },
        {
          "internalType": "uint256",
          "name": "quantityAvailable",
          "type": "uint256"
        },
        {
          "internalType": "address",
          "name": "wallet",
          "type": "address"
        }
      ],
      "stateMutability": "view",
      "type": "function",
      "constant": true
    },
    {
      "inputs": [],
      "name": "isManufacturer",
      "outputs": [
        {
          "internalType": "bool",
          "name": "",
          "type": "bool"
        }
      ],
      "stateMutability": "view",
      "type": "function",
      "constant": true
    },
    {
      "inputs": [
        {
          "internalType": "uint256",
          "name": "a",
          "type": "uint256"
        },
        {
          "internalType": "uint256",
          "name": "b",
          "type": "uint256"
        }
      ],
      "name": "minimum",
      "outputs": [
        {
          "internalType": "uint256",
          "name": "",
          "type": "uint256"
        }
      ],
      "stateMutability": "pure",
      "type": "function",
      "constant": true
    },
    {
      "inputs": [
        {
          "internalType": "uint256",
          "name": "tag",
          "type": "uint256"
        }
      ],
      "name": "supplierStartBidding",
      "outputs": [
        {
          "internalType": "uint256",
          "name": "",
          "type": "uint256"
        }
      ],
      "stateMutability": "nonpayable",
      "type": "function"
    },
    {
      "inputs": [
        {
          "internalType": "uint256",
          "name": "tag",
          "type": "uint256"
        }
      ],
      "name": "supplierStartReveal",
      "outputs": [
        {
          "internalType": "uint256",
          "name": "",
          "type": "uint256"
        }
      ],
      "stateMutability": "nonpayable",
      "type": "function"
    },
    {
      "inputs": [
        {
          "internalType": "uint256",
          "name": "tag",
          "type": "uint256"
        }
      ],
      "name": "supplierEndAuction",
      "outputs": [
        {
          "internalType": "uint256",
          "name": "",
          "type": "uint256"
        }
      ],
      "stateMutability": "nonpayable",
      "type": "function"
    },
    {
      "inputs": [
        {
          "internalType": "uint256",
          "name": "manufacturerID",
          "type": "uint256"
        },
        {
          "internalType": "uint256",
          "name": "supplierID",
          "type": "uint256"
        },
        {
          "internalType": "bytes32",
          "name": "blindPrice",
          "type": "bytes32"
        },
        {
          "internalType": "bytes32",
          "name": "blindQuantity",
          "type": "bytes32"
        },
        {
          "internalType": "bytes32",
          "name": "blindKey",
          "type": "bytes32"
        }
      ],
      "name": "manufacturerPlacesBid",
      "outputs": [
        {
          "internalType": "uint256",
          "name": "limitingQuantity",
          "type": "uint256"
        }
      ],
      "stateMutability": "payable",
      "type": "function",
      "payable": true
    },
    {
      "inputs": [
        {
          "internalType": "uint256",
          "name": "manufacturerID",
          "type": "uint256"
        },
        {
          "internalType": "uint256",
          "name": "supplierID",
          "type": "uint256"
        },
        {
          "internalType": "uint256",
          "name": "actualPrice",
          "type": "uint256"
        },
        {
          "internalType": "uint256",
          "name": "actualQuantity",
          "type": "uint256"
        },
        {
          "internalType": "uint256",
          "name": "actualKey",
          "type": "uint256"
        }
      ],
      "name": "manufacturerRevealsBid",
      "outputs": [
        {
          "internalType": "bool",
          "name": "",
          "type": "bool"
        }
      ],
      "stateMutability": "nonpayable",
      "type": "function"
    },
    {
      "inputs": [
        {
          "internalType": "uint256",
          "name": "customerID",
          "type": "uint256"
        },
        {
          "internalType": "uint256",
          "name": "manufacturerID",
          "type": "uint256"
        },
        {
          "internalType": "uint256",
          "name": "priceOfferedPerCar",
          "type": "uint256"
        },
        {
          "internalType": "uint256",
          "name": "quantityRequested",
          "type": "uint256"
        }
      ],
      "name": "customerBuysCar",
      "outputs": [
        {
          "internalType": "uint256",
          "name": "",
          "type": "uint256"
        }
      ],
      "stateMutability": "payable",
      "type": "function",
      "payable": true
    },
    {
      "inputs": [
        {
          "internalType": "uint256",
          "name": "customerID",
          "type": "uint256"
        },
        {
          "internalType": "uint256",
          "name": "carID",
          "type": "uint256"
        }
      ],
      "name": "verifyCar",
      "outputs": [
        {
          "internalType": "uint256",
          "name": "id",
          "type": "uint256"
        },
        {
          "internalType": "uint256",
          "name": "manufacturerID",
          "type": "uint256"
        },
        {
          "internalType": "uint256",
          "name": "wheelSupplier",
          "type": "uint256"
        },
        {
          "internalType": "uint256",
          "name": "bodySupplier",
          "type": "uint256"
        }
      ],
      "stateMutability": "view",
      "type": "function",
      "constant": true
    },
    {
      "inputs": [
        {
          "internalType": "uint256",
          "name": "partType",
          "type": "uint256"
        },
        {
          "internalType": "uint256",
          "name": "quantityAvailable",
          "type": "uint256"
        },
        {
          "internalType": "address payable",
          "name": "addr",
          "type": "address"
        },
        {
          "internalType": "uint256",
          "name": "auctionBidders",
          "type": "uint256"
        }
      ],
      "name": "addSupplier",
      "outputs": [
        {
          "internalType": "uint256",
          "name": "tag",
          "type": "uint256"
        }
      ],
      "stateMutability": "payable",
      "type": "function",
      "payable": true
    },
    {
      "inputs": [
        {
          "internalType": "uint256",
          "name": "tag",
          "type": "uint256"
        },
        {
          "internalType": "uint256",
          "name": "newQuantity",
          "type": "uint256"
        }
      ],
      "name": "updateSupplierQuantity",
      "outputs": [
        {
          "internalType": "uint256",
          "name": "totalQuantity",
          "type": "uint256"
        }
      ],
      "stateMutability": "nonpayable",
      "type": "function"
    },
    {
      "inputs": [
        {
          "internalType": "address payable",
          "name": "addr",
          "type": "address"
        },
        {
          "internalType": "uint256",
          "name": "wheelSupplier",
          "type": "uint256"
        },
        {
          "internalType": "uint256",
          "name": "bodySupplier",
          "type": "uint256"
        },
        {
          "internalType": "uint256",
          "name": "askingPrice",
          "type": "uint256"
        }
      ],
      "name": "addManufacturer",
      "outputs": [
        {
          "internalType": "uint256",
          "name": "tag",
          "type": "uint256"
        }
      ],
      "stateMutability": "nonpayable",
      "type": "function"
    },
    {
      "inputs": [
        {
          "internalType": "address payable",
          "name": "addr",
          "type": "address"
        }
      ],
      "name": "addCustomer",
      "outputs": [
        {
          "internalType": "uint256",
          "name": "tag",
          "type": "uint256"
        }
      ],
      "stateMutability": "nonpayable",
      "type": "function"
    },
    {
      "inputs": [
        {
          "internalType": "uint256",
          "name": "tag",
          "type": "uint256"
        }
      ],
      "name": "getManufacturerQuantities",
      "outputs": [
        {
          "internalType": "uint256",
          "name": "quantityWheel",
          "type": "uint256"
        },
        {
          "internalType": "uint256",
          "name": "quantityBody",
          "type": "uint256"
        },
        {
          "internalType": "uint256",
          "name": "quantityCar",
          "type": "uint256"
        }
      ],
      "stateMutability": "view",
      "type": "function",
      "constant": true
    },
    {
      "inputs": [
        {
          "internalType": "address",
          "name": "supplier_addr",
          "type": "address"
        }
      ],
      "name": "getSupplierID",
      "outputs": [
        {
          "internalType": "uint256",
          "name": "tag",
          "type": "uint256"
        }
      ],
      "stateMutability": "view",
      "type": "function",
      "constant": true
    },
    {
      "inputs": [
        {
          "internalType": "address",
          "name": "manufacturer_addr",
          "type": "address"
        }
      ],
      "name": "getManufacturerID",
      "outputs": [
        {
          "internalType": "uint256",
          "name": "tag",
          "type": "uint256"
        },
        {
          "internalType": "uint256",
          "name": "wheelSupplier",
          "type": "uint256"
        },
        {
          "internalType": "uint256",
          "name": "wheelQuant",
          "type": "uint256"
        },
        {
          "internalType": "uint256",
          "name": "bodySupplier",
          "type": "uint256"
        },
        {
          "internalType": "uint256",
          "name": "bodyQuant",
          "type": "uint256"
        },
        {
          "internalType": "uint256",
          "name": "carsAvailable",
          "type": "uint256"
        },
        {
          "internalType": "uint256",
          "name": "carPrice",
          "type": "uint256"
        }
      ],
      "stateMutability": "view",
      "type": "function",
      "constant": true
    },
    {
      "inputs": [
        {
          "internalType": "uint256",
          "name": "tag",
          "type": "uint256"
        }
      ],
      "name": "getAuctionState",
      "outputs": [
        {
          "internalType": "uint256",
          "name": "state",
          "type": "uint256"
        }
      ],
      "stateMutability": "view",
      "type": "function",
      "constant": true
    },
    {
      "inputs": [
        {
          "internalType": "address",
          "name": "wallet",
          "type": "address"
        }
      ],
      "name": "getNumberOfBids",
      "outputs": [
        {
          "internalType": "uint256",
          "name": "",
          "type": "uint256"
        }
      ],
      "stateMutability": "view",
      "type": "function",
      "constant": true
    },
    {
      "inputs": [
        {
          "internalType": "address",
          "name": "wallet",
          "type": "address"
        },
        {
          "internalType": "uint256",
          "name": "idx",
          "type": "uint256"
        }
      ],
      "name": "getSupplierBids",
      "outputs": [
        {
          "internalType": "bytes32",
          "name": "blindPrice",
          "type": "bytes32"
        },
        {
          "internalType": "bytes32",
          "name": "blindQuantity",
          "type": "bytes32"
        },
        {
          "internalType": "uint256",
          "name": "buyerID",
          "type": "uint256"
        },
        {
          "internalType": "bool",
          "name": "correctReveal",
          "type": "bool"
        }
      ],
      "stateMutability": "view",
      "type": "function",
      "constant": true
    },
    {
      "inputs": [],
      "name": "getSuppliers",
      "outputs": [
        {
          "internalType": "uint256",
          "name": "",
          "type": "uint256"
        }
      ],
      "stateMutability": "view",
      "type": "function",
      "constant": true
    },
    {
      "inputs": [],
      "name": "getManufacturers",
      "outputs": [
        {
          "internalType": "uint256",
          "name": "",
          "type": "uint256"
        }
      ],
      "stateMutability": "view",
      "type": "function",
      "constant": true
    },
    {
      "inputs": [],
      "name": "getCustomers",
      "outputs": [
        {
          "internalType": "uint256",
          "name": "",
          "type": "uint256"
        }
      ],
      "stateMutability": "view",
      "type": "function",
      "constant": true
    }
  ],
  "bytecode": "0x608060405234801561001057600080fd5b506000600981905550600060088190555060006007819055506000600681905550336000806101000a81548173ffffffffffffffffffffffffffffffffffffffff021916908373ffffffffffffffffffffffffffffffffffffffff160217905550615fcb80620000816000396000f3fe6080604052600436106101c25760003560e01c8063aa8613c4116100f7578063cea2312111610095578063e804b95511610064578063e804b95514610756578063f1ba712714610786578063f7b0fde8146107b1578063fe828f36146107ee576101c2565b8063cea2312114610655578063d3a26e6014610699578063d8e55b5d146106d6578063dd2d2a1214610719576101c2565b8063bc8a2345116100d1578063bc8a23451461057c578063c0abda2a146105a7578063c33010b7146105e5578063cc5d852e14610625576101c2565b8063aa8613c4146104d7578063ad61d35514610514578063ad973d741461053f576101c2565b80636dc6a0b41161016457806390175af11161013e57806390175af1146103e857806393583b891461042c5780639becc81c14610457578063a9c5631414610497576101c2565b80636dc6a0b4146103415780637aa4c3f31461037e5780638da5cb5b146103bd576101c2565b806343516832116101a0578063435168321461026c5780634a0202cc146102975780634f243c64146102c75780635b5e58dc14610304576101c2565b806309881007146101c757806319820090146102045780632565a86e14610241575b600080fd5b3480156101d357600080fd5b506101ee60048036038101906101e99190614a91565b61082b565b6040516101fb9190614acd565b60405180910390f35b34801561021057600080fd5b5061022b60048036038101906102269190614ae8565b610949565b6040516102389190614b7e565b60405180910390f35b34801561024d57600080fd5b506102566112bd565b6040516102639190614b7e565b60405180910390f35b34801561027857600080fd5b5061028161135d565b60405161028e9190614acd565b60405180910390f35b6102b160048036038101906102ac9190614b99565b611367565b6040516102be9190614acd565b60405180910390f35b3480156102d357600080fd5b506102ee60048036038101906102e99190614c5e565b6117ed565b6040516102fb9190614acd565b60405180910390f35b34801561031057600080fd5b5061032b60048036038101906103269190614cc9565b6118a0565b6040516103389190614acd565b60405180910390f35b34801561034d57600080fd5b5061036860048036038101906103639190614c5e565b611be6565b6040516103759190614acd565b60405180910390f35b34801561038a57600080fd5b506103a560048036038101906103a09190614a91565b611c32565b6040516103b493929190614d30565b60405180910390f35b3480156103c957600080fd5b506103d2611d92565b6040516103df9190614d76565b60405180910390f35b3480156103f457600080fd5b5061040f600480360381019061040a9190614a91565b611db6565b604051610423989796959493929190614da0565b60405180910390f35b34801561043857600080fd5b50610441611e1e565b60405161044e9190614b7e565b60405180910390f35b34801561046357600080fd5b5061047e60048036038101906104799190614a91565b611ebe565b60405161048e9493929190614e1e565b60405180910390f35b3480156104a357600080fd5b506104be60048036038101906104b99190614e63565b611f94565b6040516104ce9493929190614ea3565b60405180910390f35b3480156104e357600080fd5b506104fe60048036038101906104f99190614a91565b612177565b60405161050b9190614acd565b60405180910390f35b34801561052057600080fd5b5061052961369e565b6040516105369190614acd565b60405180910390f35b34801561054b57600080fd5b5061056660048036038101906105619190614ee8565b6136a8565b6040516105739190614acd565b60405180910390f35b34801561058857600080fd5b506105916137d0565b60405161059e9190614acd565b60405180910390f35b3480156105b357600080fd5b506105ce60048036038101906105c99190614a91565b6137da565b6040516105dc929190614f15565b60405180910390f35b3480156105f157600080fd5b5061060c60048036038101906106079190614f3e565b61381e565b60405161061c9493929190614f97565b60405180910390f35b61063f600480360381019061063a9190614fdc565b613a31565b60405161064c9190614acd565b60405180910390f35b34801561066157600080fd5b5061067c60048036038101906106779190614a91565b613c88565b604051610690989796959493929190615102565b60405180910390f35b3480156106a557600080fd5b506106c060048036038101906106bb9190614e63565b613d0a565b6040516106cd9190614acd565b60405180910390f35b3480156106e257600080fd5b506106fd60048036038101906106f89190614c5e565b613e41565b6040516107109796959493929190615180565b60405180910390f35b34801561072557600080fd5b50610740600480360381019061073b9190614e63565b613f99565b60405161074d9190614acd565b60405180910390f35b610770600480360381019061076b919061521b565b613fb3565b60405161077d9190614acd565b60405180910390f35b34801561079257600080fd5b5061079b6145af565b6040516107a89190614acd565b60405180910390f35b3480156107bd57600080fd5b506107d860048036038101906107d39190614a91565b6145b9565b6040516107e59190614acd565b60405180910390f35b3480156107fa57600080fd5b5061081560048036038101906108109190614a91565b614778565b6040516108229190614acd565b60405180910390f35b600060065482111561083c57600080fd5b600060028111156108505761084f615043565b5b6001600084815260200190815260200160002060030160009054906101000a900460ff16600281111561088657610885615043565b5b036108945760019050610944565b600160028111156108a8576108a7615043565b5b6001600084815260200190815260200160002060030160009054906101000a900460ff1660028111156108de576108dd615043565b5b036108ec5760029050610944565b6002808111156108ff576108fe615043565b5b6001600084815260200190815260200160002060030160009054906101000a900460ff16600281111561093557610934615043565b5b036109435760039050610944565b5b919050565b6000600754861115610990576040517f08c379a0000000000000000000000000000000000000000000000000000000008152600401610987906152f3565b60405180910390fd5b6006548511156109d5576040517f08c379a00000000000000000000000000000000000000000000000000000000081526004016109cc906152f3565b60405180910390fd5b6002808111156109e8576109e7615043565b5b6001600087815260200190815260200160002060030160009054906101000a900460ff166002811115610a1e57610a1d615043565b5b14610a5e576040517f08c379a0000000000000000000000000000000000000000000000000000000008152600401610a559061535f565b60405180910390fd5b3373ffffffffffffffffffffffffffffffffffffffff166002600088815260200190815260200160002060070160009054906101000a900473ffffffffffffffffffffffffffffffffffffffff1673ffffffffffffffffffffffffffffffffffffffff1614610b02576040517f08c379a0000000000000000000000000000000000000000000000000000000008152600401610af9906152f3565b60405180910390fd5b60005b600560006001600089815260200190815260200160002060030160019054906101000a900473ffffffffffffffffffffffffffffffffffffffff1673ffffffffffffffffffffffffffffffffffffffff1673ffffffffffffffffffffffffffffffffffffffff168152602001908152602001600020805490508110156112ae578660056000600160008a815260200190815260200160002060030160019054906101000a900473ffffffffffffffffffffffffffffffffffffffff1673ffffffffffffffffffffffffffffffffffffffff1673ffffffffffffffffffffffffffffffffffffffff1681526020019081526020016000208281548110610c0d57610c0c61537f565b5b90600052602060002090600b0201600701540361129b57600060056000600160008a815260200190815260200160002060030160019054906101000a900473ffffffffffffffffffffffffffffffffffffffff1673ffffffffffffffffffffffffffffffffffffffff1673ffffffffffffffffffffffffffffffffffffffff1681526020019081526020016000208281548110610cad57610cac61537f565b5b90600052602060002090600b02016040518061018001604052908160008201548152602001600182015481526020016002820154815260200160038201548152602001600482015481526020016005820154815260200160068201548152602001600782015481526020016008820154815260200160098201548152602001600a820160009054906101000a900460ff16151515158152602001600a820160019054906101000a900473ffffffffffffffffffffffffffffffffffffffff1673ffffffffffffffffffffffffffffffffffffffff1673ffffffffffffffffffffffffffffffffffffffff1681525050905060001515816101400151151514610dea576040517f08c379a0000000000000000000000000000000000000000000000000000000008152600401610de1906153fa565b60405180910390fd5b8060a0015184604051602001610e00919061543b565b6040516020818303038152906040528051906020012014610e56576040517f08c379a0000000000000000000000000000000000000000000000000000000008152600401610e4d906154c8565b60405180910390fd5b80608001518585610e679190615517565b604051602001610e77919061543b565b6040516020818303038152906040528051906020012014610ecd576040517f08c379a0000000000000000000000000000000000000000000000000000000008152600401610ec4906155bd565b60405180910390fd5b80606001518685610ede9190615517565b604051602001610eee919061543b565b6040516020818303038152906040528051906020012014610f44576040517f08c379a0000000000000000000000000000000000000000000000000000000008152600401610f3b9061564f565b60405180910390fd5b60008587610f52919061566f565b90508161012001518110610f9b576040517f08c379a0000000000000000000000000000000000000000000000000000000008152600401610f929061573b565b60405180910390fd5b600160056000600160008c815260200190815260200160002060030160019054906101000a900473ffffffffffffffffffffffffffffffffffffffff1673ffffffffffffffffffffffffffffffffffffffff1673ffffffffffffffffffffffffffffffffffffffff16815260200190815260200160002084815481106110245761102361537f565b5b90600052602060002090600b0201600a0160006101000a81548160ff0219169083151502179055508660056000600160008c815260200190815260200160002060030160019054906101000a900473ffffffffffffffffffffffffffffffffffffffff1673ffffffffffffffffffffffffffffffffffffffff1673ffffffffffffffffffffffffffffffffffffffff16815260200190815260200160002084815481106110d4576110d361537f565b5b90600052602060002090600b0201600001819055508560056000600160008c815260200190815260200160002060030160019054906101000a900473ffffffffffffffffffffffffffffffffffffffff1673ffffffffffffffffffffffffffffffffffffffff1673ffffffffffffffffffffffffffffffffffffffff16815260200190815260200160002084815481106111715761117061537f565b5b90600052602060002090600b0201600101819055508460056000600160008c815260200190815260200160002060030160019054906101000a900473ffffffffffffffffffffffffffffffffffffffff1673ffffffffffffffffffffffffffffffffffffffff1673ffffffffffffffffffffffffffffffffffffffff168152602001908152602001600020848154811061120e5761120d61537f565b5b90600052602060002090600b02016002018190555060018060008a815260200190815260200160002060060160008282546112499190615517565b925050819055507f1e03b01ba1997c24040f0a2e5145f9dc2be2d1821b811bd7def13c7f41cda874898989898960405161128795949392919061575b565b60405180910390a1600193505050506112b4565b80806112a6906157ae565b915050610b05565b50600090505b95945050505050565b600080600190505b6006548111611354573373ffffffffffffffffffffffffffffffffffffffff166001600083815260200190815260200160002060030160019054906101000a900473ffffffffffffffffffffffffffffffffffffffff1673ffffffffffffffffffffffffffffffffffffffff160361134157600191505061135a565b808061134c906157ae565b9150506112c5565b50600090505b90565b6000600654905090565b60006008548511156113ae576040517f08c379a00000000000000000000000000000000000000000000000000000000081526004016113a590615842565b60405180910390fd5b6007548411156113f3576040517f08c379a00000000000000000000000000000000000000000000000000000000081526004016113ea90615842565b60405180910390fd5b600260008581526020019081526020016000206006015483101561144c576040517f08c379a0000000000000000000000000000000000000000000000000000000008152600401611443906158ae565b60405180910390fd5b8183611458919061566f565b34101561149a576040517f08c379a00000000000000000000000000000000000000000000000000000000081526004016114919061591a565b60405180910390fd5b6003600086815260200190815260200160002060010160009054906101000a900473ffffffffffffffffffffffffffffffffffffffff1673ffffffffffffffffffffffffffffffffffffffff163373ffffffffffffffffffffffffffffffffffffffff161461153e576040517f08c379a000000000000000000000000000000000000000000000000000000000815260040161153590615986565b60405180910390fd5b6000611560836002600088815260200190815260200160002060050154613f99565b905060005b818110156116745760096000815480929190611580906157ae565b91905055506040518060a00160405280600954815260200188815260200187815260200160026000898152602001908152602001600020600101548152602001600260008981526020019081526020016000206003015481525060046000600954815260200190815260200160002060008201518160000155602082015181600101556040820151816002015560608201518160030155608082015181600401559050507f7f5c7a32f9a2b70ae99e862ffe5aff9d18caa86acc91931c9f1b75f325cd1691600954878960405161165993929190614d30565b60405180910390a1808061166c906157ae565b915050611565565b508060026000878152602001908152602001600020600501600082825461169b91906159a6565b925050819055506002600086815260200190815260200160002060070160009054906101000a900473ffffffffffffffffffffffffffffffffffffffff1673ffffffffffffffffffffffffffffffffffffffff166108fc85836116fe919061566f565b9081150290604051600060405180830381858888f19350505050611757576040517f08c379a000000000000000000000000000000000000000000000000000000000815260040161174e90615a26565b60405180910390fd5b3373ffffffffffffffffffffffffffffffffffffffff166108fc858361177d919061566f565b3461178891906159a6565b9081150290604051600060405180830381858888f193505050506117e1576040517f08c379a00000000000000000000000000000000000000000000000000000000081526004016117d890615a26565b60405180910390fd5b80915050949350505050565b600080600190505b6006548111611899578273ffffffffffffffffffffffffffffffffffffffff166001600083815260200190815260200160002060030160019054906101000a900473ffffffffffffffffffffffffffffffffffffffff1673ffffffffffffffffffffffffffffffffffffffff160361188657600160008281526020019081526020016000206000015491505061189b565b8080611891906157ae565b9150506117f5565b505b919050565b6000600184101580156118b557506006548411155b6118f4576040517f08c379a00000000000000000000000000000000000000000000000000000000081526004016118eb90615a92565b60405180910390fd5b6001831015801561190757506006548311155b611946576040517f08c379a000000000000000000000000000000000000000000000000000000000815260040161193d90615a92565b60405180910390fd5b60018081111561195957611958615043565b5b6001600085815260200190815260200160002060010160009054906101000a900460ff16600181111561198f5761198e615043565b5b146119cf576040517f08c379a00000000000000000000000000000000000000000000000000000000081526004016119c690615afe565b60405180910390fd5b600060018111156119e3576119e2615043565b5b6001600086815260200190815260200160002060010160009054906101000a900460ff166001811115611a1957611a18615043565b5b14611a59576040517f08c379a0000000000000000000000000000000000000000000000000000000008152600401611a5090615b6a565b60405180910390fd5b8473ffffffffffffffffffffffffffffffffffffffff163373ffffffffffffffffffffffffffffffffffffffff1614611ac7576040517f08c379a0000000000000000000000000000000000000000000000000000000008152600401611abe90615bd6565b60405180910390fd5b60076000815480929190611ada906157ae565b919050555060405180610100016040528060075481526020018581526020016000815260200184815260200160008152602001600081526020018381526020018673ffffffffffffffffffffffffffffffffffffffff16815250600260006007548152602001908152602001600020600082015181600001556020820151816001015560408201518160020155606082015181600301556080820151816004015560a0820151816005015560c0820151816006015560e08201518160070160006101000a81548173ffffffffffffffffffffffffffffffffffffffff021916908373ffffffffffffffffffffffffffffffffffffffff1602179055509050506007549050949350505050565b6000600560008373ffffffffffffffffffffffffffffffffffffffff1673ffffffffffffffffffffffffffffffffffffffff168152602001908152602001600020805490509050919050565b6000806000600754841115611c4657600080fd5b60008054906101000a900473ffffffffffffffffffffffffffffffffffffffff1673ffffffffffffffffffffffffffffffffffffffff163373ffffffffffffffffffffffffffffffffffffffff161480611d0157506002600085815260200190815260200160002060070160009054906101000a900473ffffffffffffffffffffffffffffffffffffffff1673ffffffffffffffffffffffffffffffffffffffff163373ffffffffffffffffffffffffffffffffffffffff16145b611d40576040517f08c379a0000000000000000000000000000000000000000000000000000000008152600401611d3790615c42565b60405180910390fd5b6002600085815260200190815260200160002060020154600260008681526020019081526020016000206004015460026000878152602001908152602001600020600501549250925092509193909250565b60008054906101000a900473ffffffffffffffffffffffffffffffffffffffff1681565b60026020528060005260406000206000915090508060000154908060010154908060020154908060030154908060040154908060050154908060060154908060070160009054906101000a900473ffffffffffffffffffffffffffffffffffffffff16905088565b600080600190505b6007548111611eb5573373ffffffffffffffffffffffffffffffffffffffff166002600083815260200190815260200160002060070160009054906101000a900473ffffffffffffffffffffffffffffffffffffffff1673ffffffffffffffffffffffffffffffffffffffff1603611ea2576001915050611ebb565b8080611ead906157ae565b915050611e26565b50600090505b90565b60008060008060006001905060006001811115611ede57611edd615043565b5b6001600088815260200190815260200160002060010160009054906101000a900460ff166001811115611f1457611f13615043565b5b03611f1e57600090505b6001600087815260200190815260200160002060000154816001600089815260200190815260200160002060020154600160008a815260200190815260200160002060030160019054906101000a900473ffffffffffffffffffffffffffffffffffffffff169450945094509450509193509193565b600080600080600854861115611fdf576040517f08c379a0000000000000000000000000000000000000000000000000000000008152600401611fd690615cae565b60405180910390fd5b3373ffffffffffffffffffffffffffffffffffffffff166003600088815260200190815260200160002060010160009054906101000a900473ffffffffffffffffffffffffffffffffffffffff1673ffffffffffffffffffffffffffffffffffffffff1614612083576040517f08c379a000000000000000000000000000000000000000000000000000000000815260040161207a90615986565b60405180910390fd5b6009548511156120c8576040517f08c379a00000000000000000000000000000000000000000000000000000000081526004016120bf90615cae565b60405180910390fd5b85600460008781526020019081526020016000206001015414612120576040517f08c379a000000000000000000000000000000000000000000000000000000000815260040161211790615d1a565b60405180910390fd5b84600460008781526020019081526020016000206002015460046000888152602001908152602001600020600301546004600089815260200190815260200160002060040154935093509350935092959194509250565b60006006548211156121be576040517f08c379a00000000000000000000000000000000000000000000000000000000081526004016121b590615a92565b60405180910390fd5b6002808111156121d1576121d0615043565b5b6001600084815260200190815260200160002060030160009054906101000a900460ff16600281111561220757612206615043565b5b1461221157600080fd5b6001600083815260200190815260200160002060030160019054906101000a900473ffffffffffffffffffffffffffffffffffffffff1673ffffffffffffffffffffffffffffffffffffffff163373ffffffffffffffffffffffffffffffffffffffff16146122b5576040517f08c379a00000000000000000000000000000000000000000000000000000000081526004016122ac90615d86565b60405180910390fd5b60006001600084815260200190815260200160002060030160006101000a81548160ff021916908360028111156122ef576122ee615043565b5b021790555060005b600560006001600086815260200190815260200160002060030160019054906101000a900473ffffffffffffffffffffffffffffffffffffffff1673ffffffffffffffffffffffffffffffffffffffff1673ffffffffffffffffffffffffffffffffffffffff168152602001908152602001600020805490508110156129ea5760005b818110156129d657600560006001600087815260200190815260200160002060030160019054906101000a900473ffffffffffffffffffffffffffffffffffffffff1673ffffffffffffffffffffffffffffffffffffffff1673ffffffffffffffffffffffffffffffffffffffff16815260200190815260200160002081815481106124095761240861537f565b5b90600052602060002090600b020160000154600560006001600088815260200190815260200160002060030160019054906101000a900473ffffffffffffffffffffffffffffffffffffffff1673ffffffffffffffffffffffffffffffffffffffff1673ffffffffffffffffffffffffffffffffffffffff16815260200190815260200160002083815481106124a2576124a161537f565b5b90600052602060002090600b02016000015410156129c3576000600560006001600088815260200190815260200160002060030160019054906101000a900473ffffffffffffffffffffffffffffffffffffffff1673ffffffffffffffffffffffffffffffffffffffff1673ffffffffffffffffffffffffffffffffffffffff16815260200190815260200160002083815481106125435761254261537f565b5b90600052602060002090600b02016040518061018001604052908160008201548152602001600182015481526020016002820154815260200160038201548152602001600482015481526020016005820154815260200160068201548152602001600782015481526020016008820154815260200160098201548152602001600a820160009054906101000a900460ff16151515158152602001600a820160019054906101000a900473ffffffffffffffffffffffffffffffffffffffff1673ffffffffffffffffffffffffffffffffffffffff1673ffffffffffffffffffffffffffffffffffffffff16815250509050600560006001600088815260200190815260200160002060030160019054906101000a900473ffffffffffffffffffffffffffffffffffffffff1673ffffffffffffffffffffffffffffffffffffffff1673ffffffffffffffffffffffffffffffffffffffff16815260200190815260200160002082815481106126bb576126ba61537f565b5b90600052602060002090600b0201600560006001600089815260200190815260200160002060030160019054906101000a900473ffffffffffffffffffffffffffffffffffffffff1673ffffffffffffffffffffffffffffffffffffffff1673ffffffffffffffffffffffffffffffffffffffff16815260200190815260200160002084815481106127505761274f61537f565b5b90600052602060002090600b020160008201548160000155600182015481600101556002820154816002015560038201548160030155600482015481600401556005820154816005015560068201548160060155600782015481600701556008820154816008015560098201548160090155600a820160009054906101000a900460ff1681600a0160006101000a81548160ff021916908315150217905550600a820160019054906101000a900473ffffffffffffffffffffffffffffffffffffffff1681600a0160016101000a81548173ffffffffffffffffffffffffffffffffffffffff021916908373ffffffffffffffffffffffffffffffffffffffff16021790555090505080600560006001600089815260200190815260200160002060030160019054906101000a900473ffffffffffffffffffffffffffffffffffffffff1673ffffffffffffffffffffffffffffffffffffffff1673ffffffffffffffffffffffffffffffffffffffff16815260200190815260200160002083815481106128e1576128e061537f565b5b90600052602060002090600b0201600082015181600001556020820151816001015560408201518160020155606082015181600301556080820151816004015560a0820151816005015560c0820151816006015560e082015181600701556101008201518160080155610120820151816009015561014082015181600a0160006101000a81548160ff02191690831515021790555061016082015181600a0160016101000a81548173ffffffffffffffffffffffffffffffffffffffff021916908373ffffffffffffffffffffffffffffffffffffffff160217905550905050505b80806129ce906157ae565b91505061237a565b5080806129e2906157ae565b9150506122f7565b506129f3614a33565b6129fb614a33565b612a03614a33565b60005b600560006001600089815260200190815260200160002060030160019054906101000a900473ffffffffffffffffffffffffffffffffffffffff1673ffffffffffffffffffffffffffffffffffffffff1673ffffffffffffffffffffffffffffffffffffffff16815260200190815260200160002080549050811015612dad57600060056000600160008a815260200190815260200160002060030160019054906101000a900473ffffffffffffffffffffffffffffffffffffffff1673ffffffffffffffffffffffffffffffffffffffff1673ffffffffffffffffffffffffffffffffffffffff1681526020019081526020016000208281548110612b0f57612b0e61537f565b5b90600052602060002090600b02016040518061018001604052908160008201548152602001600182015481526020016002820154815260200160038201548152602001600482015481526020016005820154815260200160068201548152602001600782015481526020016008820154815260200160098201548152602001600a820160009054906101000a900460ff16151515158152602001600a820160019054906101000a900473ffffffffffffffffffffffffffffffffffffffff1673ffffffffffffffffffffffffffffffffffffffff1673ffffffffffffffffffffffffffffffffffffffff1681525050905060001515816101400151151503612c175750612d9a565b806101200151838260e0015160648110612c3457612c3361537f565b5b6020020181815250506000612c63600160008a8152602001908152602001600020600201548360c00151613f99565b9050612c73818360200151613f99565b90508160000151868360e0015160648110612c9157612c9061537f565b5b60200201818152505080858360e0015160648110612cb257612cb161537f565b5b60200201818152505080600160008a81526020019081526020016000206002016000828254612ce191906159a6565b925050819055508060056000600160008c815260200190815260200160002060030160019054906101000a900473ffffffffffffffffffffffffffffffffffffffff1673ffffffffffffffffffffffffffffffffffffffff1673ffffffffffffffffffffffffffffffffffffffff1681526020019081526020016000208481548110612d7057612d6f61537f565b5b90600052602060002090600b02016001016000828254612d9091906159a6565b9250508190555050505b8080612da5906157ae565b915050612a06565b5060005b600560006001600089815260200190815260200160002060030160019054906101000a900473ffffffffffffffffffffffffffffffffffffffff1673ffffffffffffffffffffffffffffffffffffffff1673ffffffffffffffffffffffffffffffffffffffff1681526020019081526020016000208054905081101561310c57600060056000600160008a815260200190815260200160002060030160019054906101000a900473ffffffffffffffffffffffffffffffffffffffff1673ffffffffffffffffffffffffffffffffffffffff1673ffffffffffffffffffffffffffffffffffffffff1681526020019081526020016000208281548110612eba57612eb961537f565b5b90600052602060002090600b02016040518061018001604052908160008201548152602001600182015481526020016002820154815260200160038201548152602001600482015481526020016005820154815260200160068201548152602001600782015481526020016008820154815260200160098201548152602001600a820160009054906101000a900460ff16151515158152602001600a820160019054906101000a900473ffffffffffffffffffffffffffffffffffffffff1673ffffffffffffffffffffffffffffffffffffffff1673ffffffffffffffffffffffffffffffffffffffff1681525050905060001515816101400151151503612fc257506130f9565b6000612fe8600160008a8152602001908152602001600020600201548360200151613f99565b905080858360e00151606481106130025761300161537f565b5b602002018181516130139190615517565b9150818152505080600160008a8152602001908152602001600020600201600082825461304091906159a6565b925050819055508060056000600160008c815260200190815260200160002060030160019054906101000a900473ffffffffffffffffffffffffffffffffffffffff1673ffffffffffffffffffffffffffffffffffffffff1673ffffffffffffffffffffffffffffffffffffffff16815260200190815260200160002084815481106130cf576130ce61537f565b5b90600052602060002090600b020160010160008282546130ef91906159a6565b9250508190555050505b8080613104906157ae565b915050612db1565b506000600190505b60075481116134e25760008382606481106131325761313161537f565b5b602002015111156134cf577f389cc4d2b135e7b676a809ad7bacdde1b644b0bbe73afdd545a176ea73b9551786828584606481106131735761317261537f565b5b602002015187856064811061318b5761318a61537f565b5b60200201516040516131a09493929190614ea3565b60405180910390a16002600082815260200190815260200160002060070160009054906101000a900473ffffffffffffffffffffffffffffffffffffffff1673ffffffffffffffffffffffffffffffffffffffff166108fc84836064811061320b5761320a61537f565b5b60200201518684606481106132235761322261537f565b5b6020020151613232919061566f565b8484606481106132455761324461537f565b5b602002015161325491906159a6565b9081150290604051600060405180830381858888f193505050506132ad576040517f08c379a00000000000000000000000000000000000000000000000000000000081526004016132a490615a26565b60405180910390fd5b6001600087815260200190815260200160002060030160019054906101000a900473ffffffffffffffffffffffffffffffffffffffff1673ffffffffffffffffffffffffffffffffffffffff166108fc8483606481106133105761330f61537f565b5b60200201518684606481106133285761332761537f565b5b6020020151613337919061566f565b9081150290604051600060405180830381858888f19350505050613390576040517f08c379a000000000000000000000000000000000000000000000000000000000815260040161338790615a26565b60405180910390fd5b6001808111156133a3576133a2615043565b5b6001600088815260200190815260200160002060010160009054906101000a900460ff1660018111156133d9576133d8615043565b5b03613427578281606481106133f1576133f061537f565b5b602002015160026000838152602001908152602001600020600401600082825461341b9190615517565b925050819055506134c5565b6000600181111561343b5761343a615043565b5b6001600088815260200190815260200160002060010160009054906101000a900460ff16600181111561347157613470615043565b5b036134bf578281606481106134895761348861537f565b5b60200201516002600083815260200190815260200160002060020160008282546134b39190615517565b925050819055506134c4565b600080fd5b5b6134ce8161496e565b5b80806134da906157ae565b915050613114565b505b6000600560006001600089815260200190815260200160002060030160019054906101000a900473ffffffffffffffffffffffffffffffffffffffff1673ffffffffffffffffffffffffffffffffffffffff1673ffffffffffffffffffffffffffffffffffffffff16815260200190815260200160002080549050111561369357600560006001600088815260200190815260200160002060030160019054906101000a900473ffffffffffffffffffffffffffffffffffffffff1673ffffffffffffffffffffffffffffffffffffffff1673ffffffffffffffffffffffffffffffffffffffff1681526020019081526020016000208054806135ea576135e9615da6565b5b60019003818190600052602060002090600b0201600080820160009055600182016000905560028201600090556003820160009055600482016000905560058201600090556006820160009055600782016000905560088201600090556009820160009055600a820160006101000a81549060ff0219169055600a820160016101000a81549073ffffffffffffffffffffffffffffffffffffffff0219169055505090556134e4565b429350505050919050565b6000600654905090565b60008173ffffffffffffffffffffffffffffffffffffffff163373ffffffffffffffffffffffffffffffffffffffff1614613718576040517f08c379a000000000000000000000000000000000000000000000000000000000815260040161370f90615bd6565b60405180910390fd5b6008600081548092919061372b906157ae565b9190505550604051806040016040528060085481526020018373ffffffffffffffffffffffffffffffffffffffff168152506003600060085481526020019081526020016000206000820151816000015560208201518160010160006101000a81548173ffffffffffffffffffffffffffffffffffffffff021916908373ffffffffffffffffffffffffffffffffffffffff1602179055509050506008549050919050565b6000600754905090565b60036020528060005260406000206000915090508060000154908060010160009054906101000a900473ffffffffffffffffffffffffffffffffffffffff16905082565b60008060008084600560008873ffffffffffffffffffffffffffffffffffffffff1673ffffffffffffffffffffffffffffffffffffffff168152602001908152602001600020805490501015613886576000801b6000801b6000809350935093509350613a28565b600560008773ffffffffffffffffffffffffffffffffffffffff1673ffffffffffffffffffffffffffffffffffffffff16815260200190815260200160002085815481106138d7576138d661537f565b5b90600052602060002090600b020160030154600560008873ffffffffffffffffffffffffffffffffffffffff1673ffffffffffffffffffffffffffffffffffffffff168152602001908152602001600020868154811061393a5761393961537f565b5b90600052602060002090600b020160040154600560008973ffffffffffffffffffffffffffffffffffffffff1673ffffffffffffffffffffffffffffffffffffffff168152602001908152602001600020878154811061399d5761399c61537f565b5b90600052602060002090600b020160070154600560008a73ffffffffffffffffffffffffffffffffffffffff1673ffffffffffffffffffffffffffffffffffffffff1681526020019081526020016000208881548110613a00576139ff61537f565b5b90600052602060002090600b0201600a0160009054906101000a900460ff1693509350935093505b92959194509250565b60006001851115613a77576040517f08c379a0000000000000000000000000000000000000000000000000000000008152600401613a6e90615e21565b60405180910390fd5b8273ffffffffffffffffffffffffffffffffffffffff163373ffffffffffffffffffffffffffffffffffffffff1614613ae5576040517f08c379a0000000000000000000000000000000000000000000000000000000008152600401613adc90615bd6565b60405180910390fd5b60066000815480929190613af8906157ae565b919050555060006001905060018603613b1057600090505b6040518061010001604052806006548152602001826001811115613b3757613b36615043565b5b815260200186815260200160006002811115613b5657613b55615043565b5b81526020018573ffffffffffffffffffffffffffffffffffffffff1681526020018481526020016000815260200160008152506001600060065481526020019081526020016000206000820151816000015560208201518160010160006101000a81548160ff02191690836001811115613bd357613bd2615043565b5b02179055506040820151816002015560608201518160030160006101000a81548160ff02191690836002811115613c0d57613c0c615043565b5b021790555060808201518160030160016101000a81548173ffffffffffffffffffffffffffffffffffffffff021916908373ffffffffffffffffffffffffffffffffffffffff16021790555060a0820151816004015560c0820151816005015560e08201518160060155905050600654915050949350505050565b60016020528060005260406000206000915090508060000154908060010160009054906101000a900460ff16908060020154908060030160009054906101000a900460ff16908060030160019054906101000a900473ffffffffffffffffffffffffffffffffffffffff16908060040154908060050154908060060154905088565b6000600654831115613d51576040517f08c379a0000000000000000000000000000000000000000000000000000000008152600401613d48906152f3565b60405180910390fd5b3373ffffffffffffffffffffffffffffffffffffffff166001600085815260200190815260200160002060030160019054906101000a900473ffffffffffffffffffffffffffffffffffffffff1673ffffffffffffffffffffffffffffffffffffffff1614613df5576040517f08c379a0000000000000000000000000000000000000000000000000000000008152600401613dec90615986565b60405180910390fd5b81600160008581526020019081526020016000206002016000828254613e1b9190615517565b925050819055506001600084815260200190815260200160002060020154905092915050565b600080600080600080600080600190505b6007548111613f8c578873ffffffffffffffffffffffffffffffffffffffff166002600083815260200190815260200160002060070160009054906101000a900473ffffffffffffffffffffffffffffffffffffffff1673ffffffffffffffffffffffffffffffffffffffff1603613f79576002600082815260200190815260200160002060000154600260008381526020019081526020016000206001015460026000848152602001908152602001600020600201546002600085815260200190815260200160002060030154600260008681526020019081526020016000206004015460026000878152602001908152602001600020600501546002600088815260200190815260200160002060060154975097509750975097509750975050613f8e565b8080613f84906157ae565b915050613e52565b505b919395979092949650565b600081831015613fa95782613fab565b815b905092915050565b6000600754861115613ffa576040517f08c379a0000000000000000000000000000000000000000000000000000000008152600401613ff1906152f3565b60405180910390fd5b60065485111561403f576040517f08c379a0000000000000000000000000000000000000000000000000000000008152600401614036906152f3565b60405180910390fd5b6002600087815260200190815260200160002060070160009054906101000a900473ffffffffffffffffffffffffffffffffffffffff1673ffffffffffffffffffffffffffffffffffffffff163373ffffffffffffffffffffffffffffffffffffffff16146140e3576040517f08c379a00000000000000000000000000000000000000000000000000000000081526004016140da90615986565b60405180910390fd5b600060018111156140f7576140f6615043565b5b6001600087815260200190815260200160002060010160009054906101000a900460ff16600181111561412d5761412c615043565b5b0361418f578460026000888152602001908152602001600020600101541461418a576040517f08c379a000000000000000000000000000000000000000000000000000000000815260040161418190615e8d565b60405180910390fd5b6141e8565b846002600088815260200190815260200160002060030154146141e7576040517f08c379a00000000000000000000000000000000000000000000000000000000081526004016141de90615e8d565b60405180910390fd5b5b600160008681526020019081526020016000206004015460016000878152602001908152602001600020600501541115614257576040517f08c379a000000000000000000000000000000000000000000000000000000000815260040161424e90615ef9565b60405180910390fd5b600060018081111561426c5761426b615043565b5b6001600088815260200190815260200160002060010160009054906101000a900460ff1660018111156142a2576142a1615043565b5b0361430257600060026000898152602001908152602001600020600301549050600260008981526020019081526020016000206004015460016000838152602001908152602001600020600201546142fa9190615517565b915050614359565b600060026000898152602001908152602001600020600101549050600260008981526020019081526020016000206002015460016000838152602001908152602001600020600201546143559190615517565b9150505b600560006001600089815260200190815260200160002060030160019054906101000a900473ffffffffffffffffffffffffffffffffffffffff1673ffffffffffffffffffffffffffffffffffffffff1673ffffffffffffffffffffffffffffffffffffffff1681526020019081526020016000206040518061018001604052806000815260200160008152602001600081526020018781526020018681526020018581526020018381526020018981526020018881526020013481526020016000151581526020013373ffffffffffffffffffffffffffffffffffffffff1681525090806001815401808255809150506001900390600052602060002090600b0201600090919091909150600082015181600001556020820151816001015560408201518160020155606082015181600301556080820151816004015560a0820151816005015560c0820151816006015560e082015181600701556101008201518160080155610120820151816009015561014082015181600a0160006101000a81548160ff02191690831515021790555061016082015181600a0160016101000a81548173ffffffffffffffffffffffffffffffffffffffff021916908373ffffffffffffffffffffffffffffffffffffffff16021790555050506001806000888152602001908152602001600020600501600082825461455c9190615517565b925050819055507f8a06846852690683a485d2a83db8d92c70d8aaaf4693c2c3b223705fb4c91627878787878760405161459a959493929190615f19565b60405180910390a18091505095945050505050565b6000600854905090565b6000600654821115614600576040517f08c379a00000000000000000000000000000000000000000000000000000000081526004016145f790615a92565b60405180910390fd5b6001600281111561461457614613615043565b5b6001600084815260200190815260200160002060030160009054906101000a900460ff16600281111561464a57614649615043565b5b1461465457600080fd5b6001600083815260200190815260200160002060030160019054906101000a900473ffffffffffffffffffffffffffffffffffffffff1673ffffffffffffffffffffffffffffffffffffffff163373ffffffffffffffffffffffffffffffffffffffff16146146f8576040517f08c379a00000000000000000000000000000000000000000000000000000000081526004016146ef90615d86565b60405180910390fd5b60026001600084815260200190815260200160002060030160006101000a81548160ff0219169083600281111561473257614731615043565b5b02179055507f69544aaad545cf5ab110398ad6cac7ee4773f2f30c068350793e6cf82805d70f8242604051614768929190615f6c565b60405180910390a1429050919050565b60006006548211156147bf576040517f08c379a00000000000000000000000000000000000000000000000000000000081526004016147b690615a92565b60405180910390fd5b600060028111156147d3576147d2615043565b5b6001600084815260200190815260200160002060030160009054906101000a900460ff16600281111561480957614808615043565b5b1461481357600080fd5b6001600083815260200190815260200160002060030160019054906101000a900473ffffffffffffffffffffffffffffffffffffffff1673ffffffffffffffffffffffffffffffffffffffff163373ffffffffffffffffffffffffffffffffffffffff16146148b7576040517f08c379a00000000000000000000000000000000000000000000000000000000081526004016148ae90615d86565b60405180910390fd5b600180600084815260200190815260200160002060030160006101000a81548160ff021916908360028111156148f0576148ef615043565b5b021790555060006001600084815260200190815260200160002060050181905550600060016000848152602001908152602001600020600601819055507f97f3c1cfc906cded5a31e7f64d905dd3bce10ac469b77d540f9b6f7fd0267ed8824260405161495e929190615f6c565b60405180910390a1429050919050565b60006149a660026000848152602001908152602001600020600401546002600085815260200190815260200160002060020154613f99565b9050806002600084815260200190815260200160002060040160008282546149ce91906159a6565b92505081905550806002600084815260200190815260200160002060020160008282546149fb91906159a6565b9250508190555080600260008481526020019081526020016000206005016000828254614a289190615517565b925050819055505050565b60405180610c800160405280606490602082028036833780820191505090505090565b600080fd5b6000819050919050565b614a6e81614a5b565b8114614a7957600080fd5b50565b600081359050614a8b81614a65565b92915050565b600060208284031215614aa757614aa6614a56565b5b6000614ab584828501614a7c565b91505092915050565b614ac781614a5b565b82525050565b6000602082019050614ae26000830184614abe565b92915050565b600080600080600060a08688031215614b0457614b03614a56565b5b6000614b1288828901614a7c565b9550506020614b2388828901614a7c565b9450506040614b3488828901614a7c565b9350506060614b4588828901614a7c565b9250506080614b5688828901614a7c565b9150509295509295909350565b60008115159050919050565b614b7881614b63565b82525050565b6000602082019050614b936000830184614b6f565b92915050565b60008060008060808587031215614bb357614bb2614a56565b5b6000614bc187828801614a7c565b9450506020614bd287828801614a7c565b9350506040614be387828801614a7c565b9250506060614bf487828801614a7c565b91505092959194509250565b600073ffffffffffffffffffffffffffffffffffffffff82169050919050565b6000614c2b82614c00565b9050919050565b614c3b81614c20565b8114614c4657600080fd5b50565b600081359050614c5881614c32565b92915050565b600060208284031215614c7457614c73614a56565b5b6000614c8284828501614c49565b91505092915050565b6000614c9682614c00565b9050919050565b614ca681614c8b565b8114614cb157600080fd5b50565b600081359050614cc381614c9d565b92915050565b60008060008060808587031215614ce357614ce2614a56565b5b6000614cf187828801614cb4565b9450506020614d0287828801614a7c565b9350506040614d1387828801614a7c565b9250506060614d2487828801614a7c565b91505092959194509250565b6000606082019050614d456000830186614abe565b614d526020830185614abe565b614d5f6040830184614abe565b949350505050565b614d7081614c8b565b82525050565b6000602082019050614d8b6000830184614d67565b92915050565b614d9a81614c20565b82525050565b600061010082019050614db6600083018b614abe565b614dc3602083018a614abe565b614dd06040830189614abe565b614ddd6060830188614abe565b614dea6080830187614abe565b614df760a0830186614abe565b614e0460c0830185614abe565b614e1160e0830184614d91565b9998505050505050505050565b6000608082019050614e336000830187614abe565b614e406020830186614abe565b614e4d6040830185614abe565b614e5a6060830184614d91565b95945050505050565b60008060408385031215614e7a57614e79614a56565b5b6000614e8885828601614a7c565b9250506020614e9985828601614a7c565b9150509250929050565b6000608082019050614eb86000830187614abe565b614ec56020830186614abe565b614ed26040830185614abe565b614edf6060830184614abe565b95945050505050565b600060208284031215614efe57614efd614a56565b5b6000614f0c84828501614cb4565b91505092915050565b6000604082019050614f2a6000830185614abe565b614f376020830184614d91565b9392505050565b60008060408385031215614f5557614f54614a56565b5b6000614f6385828601614c49565b9250506020614f7485828601614a7c565b9150509250929050565b6000819050919050565b614f9181614f7e565b82525050565b6000608082019050614fac6000830187614f88565b614fb96020830186614f88565b614fc66040830185614abe565b614fd36060830184614b6f565b95945050505050565b60008060008060808587031215614ff657614ff5614a56565b5b600061500487828801614a7c565b945050602061501587828801614a7c565b935050604061502687828801614cb4565b925050606061503787828801614a7c565b91505092959194509250565b7f4e487b7100000000000000000000000000000000000000000000000000000000600052602160045260246000fd5b6002811061508357615082615043565b5b50565b600081905061509482615072565b919050565b60006150a482615086565b9050919050565b6150b481615099565b82525050565b600381106150cb576150ca615043565b5b50565b60008190506150dc826150ba565b919050565b60006150ec826150ce565b9050919050565b6150fc816150e1565b82525050565b600061010082019050615118600083018b614abe565b615125602083018a6150ab565b6151326040830189614abe565b61513f60608301886150f3565b61514c6080830187614d91565b61515960a0830186614abe565b61516660c0830185614abe565b61517360e0830184614abe565b9998505050505050505050565b600060e082019050615195600083018a614abe565b6151a26020830189614abe565b6151af6040830188614abe565b6151bc6060830187614abe565b6151c96080830186614abe565b6151d660a0830185614abe565b6151e360c0830184614abe565b98975050505050505050565b6151f881614f7e565b811461520357600080fd5b50565b600081359050615215816151ef565b92915050565b600080600080600060a0868803121561523757615236614a56565b5b600061524588828901614a7c565b955050602061525688828901614a7c565b945050604061526788828901615206565b935050606061527888828901615206565b925050608061528988828901615206565b9150509295509295909350565b600082825260208201905092915050565b7f496e76616c696420494400000000000000000000000000000000000000000000600082015250565b60006152dd600a83615296565b91506152e8826152a7565b602082019050919050565b6000602082019050818103600083015261530c816152d0565b9050919050565b7f52657665616c207068617365206e6f7420676f696e67206f6e00000000000000600082015250565b6000615349601983615296565b915061535482615313565b602082019050919050565b600060208201905081810360008301526153788161533c565b9050919050565b7f4e487b7100000000000000000000000000000000000000000000000000000000600052603260045260246000fd5b7f42696420616c72656164792072657665616c6564000000000000000000000000600082015250565b60006153e4601483615296565b91506153ef826153ae565b602082019050919050565b60006020820190508181036000830152615413816153d7565b9050919050565b6000819050919050565b61543561543082614a5b565b61541a565b82525050565b60006154478284615424565b60208201915081905092915050565b7f496e636f7272656374206b6579202d2d206b656570696e6720796f7572206d6f60008201527f6e65790000000000000000000000000000000000000000000000000000000000602082015250565b60006154b2602383615296565b91506154bd82615456565b604082019050919050565b600060208201905081810360008301526154e1816154a5565b9050919050565b7f4e487b7100000000000000000000000000000000000000000000000000000000600052601160045260246000fd5b600061552282614a5b565b915061552d83614a5b565b9250828201905080821115615545576155446154e8565b5b92915050565b7f496e636f7272656374207175616e74697479202d2d206b656570696e6720796f60008201527f7572206d6f6e6579000000000000000000000000000000000000000000000000602082015250565b60006155a7602883615296565b91506155b28261554b565b604082019050919050565b600060208201905081810360008301526155d68161559a565b9050919050565b7f496e636f7272656374207072696365202d2d206b656570696e6720796f75722060008201527f6d6f6e6579000000000000000000000000000000000000000000000000000000602082015250565b6000615639602583615296565b9150615644826155dd565b604082019050919050565b600060208201905081810360008301526156688161562c565b9050919050565b600061567a82614a5b565b915061568583614a5b565b9250817fffffffffffffffffffffffffffffffffffffffffffffffffffffffffffffffff04831182151516156156be576156bd6154e8565b5b828202905092915050565b7f496e73756666696369656e742066756e64732073656e74202d2d206b6565706960008201527f6e6720796f7572206d6f6e657900000000000000000000000000000000000000602082015250565b6000615725602d83615296565b9150615730826156c9565b604082019050919050565b6000602082019050818103600083015261575481615718565b9050919050565b600060a0820190506157706000830188614abe565b61577d6020830187614abe565b61578a6040830186614abe565b6157976060830185614abe565b6157a46080830184614abe565b9695505050505050565b60006157b982614a5b565b91507fffffffffffffffffffffffffffffffffffffffffffffffffffffffffffffffff82036157eb576157ea6154e8565b5b600182019050919050565b7f496e76616c696420637573746f6d657200000000000000000000000000000000600082015250565b600061582c601083615296565b9150615837826157f6565b602082019050919050565b6000602082019050818103600083015261585b8161581f565b9050919050565b7f436f737420697320686967686572000000000000000000000000000000000000600082015250565b6000615898600e83615296565b91506158a382615862565b602082019050919050565b600060208201905081810360008301526158c78161588b565b9050919050565b7f496e73756666696369656e742066756e64732073656e74000000000000000000600082015250565b6000615904601783615296565b915061590f826158ce565b602082019050919050565b60006020820190508181036000830152615933816158f7565b9050919050565b7f496e636f72726563742049440000000000000000000000000000000000000000600082015250565b6000615970600c83615296565b915061597b8261593a565b602082019050919050565b6000602082019050818103600083015261599f81615963565b9050919050565b60006159b182614a5b565b91506159bc83614a5b565b92508282039050818111156159d4576159d36154e8565b5b92915050565b7f5472616e73616374696f6e206661696c65640000000000000000000000000000600082015250565b6000615a10601283615296565b9150615a1b826159da565b602082019050919050565b60006020820190508181036000830152615a3f81615a03565b9050919050565b7f496e76616c696420737570706c69657221000000000000000000000000000000600082015250565b6000615a7c601183615296565b9150615a8782615a46565b602082019050919050565b60006020820190508181036000830152615aab81615a6f565b9050919050565b7f537570706c69657220646f65736e277420737570706c20626f64790000000000600082015250565b6000615ae8601b83615296565b9150615af382615ab2565b602082019050919050565b60006020820190508181036000830152615b1781615adb565b9050919050565b7f537570706c69657220646f65736e277420737570706c20776865656c73000000600082015250565b6000615b54601d83615296565b9150615b5f82615b1e565b602082019050919050565b60006020820190508181036000830152615b8381615b47565b9050919050565b7f496e76616c6964207369676e2075700000000000000000000000000000000000600082015250565b6000615bc0600f83615296565b9150615bcb82615b8a565b602082019050919050565b60006020820190508181036000830152615bef81615bb3565b9050919050565b7f5065726d697373696f6e2064656e696564000000000000000000000000000000600082015250565b6000615c2c601183615296565b9150615c3782615bf6565b602082019050919050565b60006020820190508181036000830152615c5b81615c1f565b9050919050565b7f496e76616c696420636172000000000000000000000000000000000000000000600082015250565b6000615c98600b83615296565b9150615ca382615c62565b602082019050919050565b60006020820190508181036000830152615cc781615c8b565b9050919050565b7f4e6f7420796f7572206361722100000000000000000000000000000000000000600082015250565b6000615d04600d83615296565b9150615d0f82615cce565b602082019050919050565b60006020820190508181036000830152615d3381615cf7565b9050919050565b7f496e636f72726563742074616700000000000000000000000000000000000000600082015250565b6000615d70600d83615296565b9150615d7b82615d3a565b602082019050919050565b60006020820190508181036000830152615d9f81615d63565b9050919050565b7f4e487b7100000000000000000000000000000000000000000000000000000000600052603160045260246000fd5b7f496e76616c696420706172742074797065210000000000000000000000000000600082015250565b6000615e0b601283615296565b9150615e1682615dd5565b602082019050919050565b60006020820190508181036000830152615e3a81615dfe565b9050919050565b7f496e636f727265637420737570706c6965720000000000000000000000000000600082015250565b6000615e77601283615296565b9150615e8282615e41565b602082019050919050565b60006020820190508181036000830152615ea681615e6a565b9050919050565b7f4d61782062696473207265636965766564000000000000000000000000000000600082015250565b6000615ee3601183615296565b9150615eee82615ead565b602082019050919050565b60006020820190508181036000830152615f1281615ed6565b9050919050565b600060a082019050615f2e6000830188614abe565b615f3b6020830187614abe565b615f486040830186614f88565b615f556060830185614f88565b615f626080830184614f88565b9695505050505050565b6000604082019050615f816000830185614abe565b615f8e6020830184614abe565b939250505056fea2646970667358221220c6e6ac263ae86654b908ff92365790d6b9b65b903a46c59102117c9e8a3e58fc64736f6c63430008100033",
  "immutableReferences": {},
  "source": "// SPDX-License-Identifier: MIT\npragma solidity >=0.8.16;\npragma experimental ABIEncoderV2;\n\n/// @title New Market Place\n/// @author Kunal Jain, P. Sahithi Reddy, Prince Varshney\n/// @notice Market place implementation\ncontract NewMarketPlace {\n    /// @dev Enum for the state of the auction the supplier is in\n    /// @dev NOT_RUNNING : Auction is not running right now\n    /// @dev BIDDING : Bidding phase of auction is going on\n    /// @dev REVEALING : Reveal phase of auction is going on\n    enum AuctionState {\n        NOT_RUNNING,\n        BIDDING,\n        REVEALING\n    }\n\n    /// @dev Enum for the part type\n    enum PartType {\n        WHEEL,\n        BODY\n    }\n\n    /// @dev Stores the details of the supplier\n    struct Supplier {\n        uint256 tag;\n        PartType partType; // part type they are selling\n        uint256 quantityAvailable; // quantity of the part available\n        AuctionState currentState; // currest state of the auction\n        address wallet; // wallet address\n        uint256 maxBidders; // max bidders that can participate in the auction\n        uint256 bidsPlaced; // bids that have been placed\n        uint256 bidsRevealed; // bids that have been revealed\n    }\n\n    function isSupplier() public view returns (bool) {\n        for (uint256 i = 1; i <= num_supplier; i++) {\n            if (suppliers[i].wallet == msg.sender) return true;\n        }\n        return false;\n    }\n\n    function numSuppliers() public view returns (uint256) {\n        return num_supplier;\n    }\n\n    function getSupplierByID(uint256 id)\n        public\n        view\n        returns (\n            uint256 tag,\n            uint256 partType,\n            uint256 quantityAvailable,\n            address wallet\n        )\n    {\n        uint256 retType = 1;\n        if (suppliers[id].partType == PartType.WHEEL) retType = 0;\n        return (\n            suppliers[id].tag,\n            retType,\n            suppliers[id].quantityAvailable,\n            suppliers[id].wallet\n        );\n    }\n\n    // function getAllSuppliers() public view returns (Supplier[] memory) {\n    //     return allSuppliers;\n    // }\n\n    /// @dev Stores the details of the manufacturer\n    struct Manufacturer {\n        uint256 tag;\n        uint256 wheelSupplier; // tag of supplier who supplies wheels\n        uint256 wheelQuant; // number of wheels\n        uint256 bodySupplier; // tag of supplier who supplies body\n        uint256 bodyQuant; // number of bodies\n        uint256 carsAvailable; // number of cars available\n        uint256 carPrice; // price of the cars\n        address wallet; // wallet address\n    }\n\n    function isManufacturer() public view returns (bool) {\n        for (uint256 i = 1; i <= num_manufacturer; i++) {\n            if (manufacturers[i].wallet == msg.sender) return true;\n        }\n        return false;\n    }\n\n    /// @dev Stores the details of the cars sold\n    struct Car {\n        uint256 tag;\n        uint256 customerID;\n        uint256 manufacturerID;\n        uint256 wheelSupID;\n        uint256 bodySupID;\n    }\n\n    /// @dev Stores the detail of the customer\n    struct Customer {\n        uint256 tag;\n        address wallet;\n    }\n\n    /// @dev stores the details of the bids\n    struct Bid {\n        uint256 actualPrice;\n        uint256 actualQuantity;\n        uint256 actualKey;\n        bytes32 blindPrice;\n        bytes32 blindQuantity;\n        bytes32 blindKey;\n        uint256 limitingQuantity;\n        uint256 buyerID;\n        uint256 sellerID;\n        uint256 moneySent;\n        bool correctReveal;\n        address payable bidderAddress;\n    }\n\n    /// @dev wallet address of the contract owner\n    address payable public owner;\n\n    mapping(uint256 => Supplier) public suppliers;\n    mapping(uint256 => Manufacturer) public manufacturers;\n    mapping(uint256 => Customer) public customers;\n    mapping(uint256 => Car) cars;\n    mapping(address => Bid[]) bidsTillNow;\n\n    uint256 num_supplier;\n    uint256 num_manufacturer;\n    uint256 num_customer;\n    uint256 num_cars;\n\n    // Supplier[] allSuppliers;\n\n    /// @notice Triggered when a supplier starts their bidding phase\n    /// @param tag Tag of the supplier\n    /// @param timestamp Block height when bidding phase starts\n    event StartSupplierBidding(uint256 tag, uint256 timestamp);\n\n    /// @notice Triggered when a supplier starts their reveal phase\n    /// @param tag Tag of the supplier\n    /// @param timestamp Block height when reveal phase starts\n    event StartSupplierReveal(uint256 tag, uint256 timestamp);\n\n    /// @notice Triggered when a supplier suppliers parts to a manufacturer\n    /// @param supplierID Tag of the supplier\n    /// @param manufacturerID Tag of the manufacturer\n    /// @param quantity Quantities supplier\n    /// @param price Price per unit\n    event AllocateFromSupplier(\n        uint256 supplierID,\n        uint256 manufacturerID,\n        uint256 quantity,\n        uint256 price\n    );\n\n    /// @notice Triggered when a manufacturer places a bid\n    /// @param manufacturerID Tag of the manufacturer\n    /// @param supplierID Tag of the supplier\n    /// @param blindPrice Hash of (Price + Key)\n    /// @param blindQuantity Hash of (Quantity + Key)\n    /// @param blindKey Hash of Key\n    event ManufacturerBids(\n        uint256 manufacturerID,\n        uint256 supplierID,\n        bytes32 blindPrice,\n        bytes32 blindQuantity,\n        bytes32 blindKey\n    );\n\n    /// @notice Triggered when a manufacturer reveals a bid\n    /// @param manufacturerID Tag of the manufacturer\n    /// @param supplierID Tag of the supplier\n    /// @param actualPrice Price per quantity offered in the bid\n    /// @param actualQuantity Quantity requested in the bid\n    /// @param actualKey Key used to hide the bid\n    event ManufacturerReveal(\n        uint256 manufacturerID,\n        uint256 supplierID,\n        uint256 actualPrice,\n        uint256 actualQuantity,\n        uint256 actualKey\n    );\n\n    /// @notice Triggered when a car is sold by the manufacturer to a customer\n    /// @param carID Tag of the car sold\n    /// @param manufacturerID Tag of the manufacturer\n    /// @param customerID Tag of the customer\n    event CarSold(uint256 carID, uint256 manufacturerID, uint256 customerID);\n\n    constructor() {\n        num_cars = 0;\n        num_customer = 0;\n        num_manufacturer = 0;\n        num_supplier = 0;\n        owner = payable(msg.sender);\n    }\n\n    /// @dev Function to find the minumum of 2 unsigned integers\n    function minimum(uint256 a, uint256 b) public pure returns (uint256) {\n        return a >= b ? b : a;\n    }\n\n    /// @notice Function to start bidding of a supplier\n    /// @dev Triggeers StartSupplierBidding event\n    /// @param tag Tag of the supplier\n    /// @return uint256 Block height when the bidding starts\n    function supplierStartBidding(uint256 tag) public returns (uint256) {\n        require(tag <= num_supplier, \"Invalid supplier!\");\n        require(suppliers[tag].currentState == AuctionState.NOT_RUNNING);\n        require(msg.sender == suppliers[tag].wallet, \"Incorrect tag\");\n        suppliers[tag].currentState = AuctionState.BIDDING;\n        suppliers[tag].bidsPlaced = 0;\n        suppliers[tag].bidsRevealed = 0;\n        emit StartSupplierBidding(tag, block.timestamp);\n        return block.timestamp;\n    }\n\n    /// @notice Function to start reveal of a supplier\n    /// @dev Triggeers StartSupplierReveal event\n    /// @param tag Tag of the supplier\n    /// @return uint256 Block height when the reveal starts\n    function supplierStartReveal(uint256 tag) public returns (uint256) {\n        require(tag <= num_supplier, \"Invalid supplier!\");\n        require(suppliers[tag].currentState == AuctionState.BIDDING);\n        require(msg.sender == suppliers[tag].wallet, \"Incorrect tag\");\n        suppliers[tag].currentState = AuctionState.REVEALING;\n        emit StartSupplierReveal(tag, block.timestamp);\n        return block.timestamp;\n    }\n\n    /// @notice Function to end the auction of a supplier\n    /// @dev Triggers AllocateFromSupplier and back payments on bids\n    /// @param tag Tag of the supplier\n    /// @return uint256 Block height when the auction ends\n    function supplierEndAuction(uint256 tag) public returns (uint256) {\n        require(tag <= num_supplier, \"Invalid supplier!\");\n        require(suppliers[tag].currentState == AuctionState.REVEALING);\n        require(msg.sender == suppliers[tag].wallet, \"Incorrect tag\");\n        suppliers[tag].currentState = AuctionState.NOT_RUNNING;\n\n        // bubble sorting the bids\n        for (\n            uint256 i = 0;\n            i < bidsTillNow[suppliers[tag].wallet].length;\n            i++\n        ) {\n            for (uint256 j = 0; j < i; j++)\n                if (\n                    bidsTillNow[suppliers[tag].wallet][i].actualPrice <\n                    bidsTillNow[suppliers[tag].wallet][j].actualPrice\n                ) {\n                    Bid memory x = bidsTillNow[suppliers[tag].wallet][i];\n                    bidsTillNow[suppliers[tag].wallet][i] = bidsTillNow[\n                        suppliers[tag].wallet\n                    ][j];\n                    bidsTillNow[suppliers[tag].wallet][j] = x;\n                }\n        }\n\n        // the allocations\n        uint256[100] memory allocatingPrices;\n        uint256[100] memory allocatingQuantities;\n        uint256[100] memory moneySentWithBid;\n\n        // optimal resource allocation\n        for (\n            uint256 i = 0;\n            i < bidsTillNow[suppliers[tag].wallet].length;\n            i++\n        ) {\n            Bid memory bid = bidsTillNow[suppliers[tag].wallet][i];\n            if (bid.correctReveal == false) continue;\n\n            moneySentWithBid[bid.buyerID] = bid.moneySent;\n\n            uint256 allocatingHere = minimum(\n                suppliers[tag].quantityAvailable,\n                bid.limitingQuantity\n            );\n            allocatingHere = minimum(allocatingHere, bid.actualQuantity);\n\n            allocatingPrices[bid.buyerID] = bid.actualPrice;\n            allocatingQuantities[bid.buyerID] = allocatingHere;\n            suppliers[tag].quantityAvailable -= allocatingHere;\n            bidsTillNow[suppliers[tag].wallet][i]\n                .actualQuantity -= allocatingHere;\n        }\n\n        // allocating to maximize profit\n        for (\n            uint256 i = 0;\n            i < bidsTillNow[suppliers[tag].wallet].length;\n            i++\n        ) {\n            Bid memory bid = bidsTillNow[suppliers[tag].wallet][i];\n            if (bid.correctReveal == false) continue;\n            uint256 allocatingHere = minimum(\n                suppliers[tag].quantityAvailable,\n                bid.actualQuantity\n            );\n\n            allocatingQuantities[bid.buyerID] += allocatingHere;\n            suppliers[tag].quantityAvailable -= allocatingHere;\n            bidsTillNow[suppliers[tag].wallet][i]\n                .actualQuantity -= allocatingHere;\n        }\n\n        // emit all allocations\n        for (uint256 i = 1; i <= num_manufacturer; i++)\n            if (allocatingQuantities[i] > 0) {\n                emit AllocateFromSupplier(\n                    tag,\n                    i,\n                    allocatingQuantities[i],\n                    allocatingPrices[i]\n                );\n                // non bid money to manufacturer\n                require(\n                    payable(manufacturers[i].wallet).send(\n                        moneySentWithBid[i] -\n                            allocatingPrices[i] *\n                            allocatingQuantities[i]\n                    ),\n                    \"Transaction failed\"\n                );\n                // bid money to supplier\n                require(\n                    payable(suppliers[tag].wallet).send(\n                        allocatingPrices[i] * allocatingQuantities[i]\n                    ),\n                    \"Transaction failed\"\n                );\n                //update all the manufacturers quanitites to make cars\n                if (suppliers[tag].partType == PartType.BODY) {\n                    manufacturers[i].bodyQuant += allocatingQuantities[i];\n                } else if (suppliers[tag].partType == PartType.WHEEL) {\n                    manufacturers[i].wheelQuant += allocatingQuantities[i];\n                } else revert();\n                updateManufacturerCars(i);\n            }\n        while (bidsTillNow[suppliers[tag].wallet].length > 0)\n            bidsTillNow[suppliers[tag].wallet].pop();\n\n        return block.timestamp;\n    }\n\n    /// @dev Updates the cars of a manufacturer based on the quantities of parts it has\n    function updateManufacturerCars(uint256 tag) private {\n        uint256 carsMade = minimum(\n            manufacturers[tag].bodyQuant,\n            manufacturers[tag].wheelQuant\n        );\n        manufacturers[tag].bodyQuant -= carsMade;\n        manufacturers[tag].wheelQuant -= carsMade;\n        manufacturers[tag].carsAvailable += carsMade;\n    }\n\n    /// @notice Function for manufacturers to place bids\n    /// @dev Triggers ManufacturerBids event\n    /// @param manufacturerID Tag of the manufacturer\n    /// @param supplierID Tag of the supplier\n    /// @param blindPrice Price per unit hidden using the key and SHA256 encryption\n    /// @param blindQuantity Quantities requested hidden using the key and SHA256 encryption\n    /// @param blindKey Key used to hide the price and quantity\n    /// @return limitingQuantity Liming quantity of the manufacturer for optimal resource allocation\n    function manufacturerPlacesBid(\n        uint256 manufacturerID,\n        uint256 supplierID,\n        bytes32 blindPrice,\n        bytes32 blindQuantity,\n        bytes32 blindKey\n    ) public payable returns (uint256 limitingQuantity) {\n        require(manufacturerID <= num_manufacturer, \"Invalid ID\");\n        require(supplierID <= num_supplier, \"Invalid ID\");\n        require(\n            msg.sender == manufacturers[manufacturerID].wallet,\n            \"Incorrect ID\"\n        );\n        if (suppliers[supplierID].partType == PartType.WHEEL) {\n            require(\n                manufacturers[manufacturerID].wheelSupplier == supplierID,\n                \"Incorrect supplier\"\n            );\n        } else {\n            require(\n                manufacturers[manufacturerID].bodySupplier == supplierID,\n                \"Incorrect supplier\"\n            );\n        }\n        require(\n            suppliers[supplierID].bidsPlaced <=\n                suppliers[supplierID].maxBidders,\n            \"Max bids recieved\"\n        );\n        uint256 limiting;\n        if (suppliers[supplierID].partType == PartType.BODY) {\n            uint256 bodySupplier = manufacturers[manufacturerID].bodySupplier;\n            limiting =\n                suppliers[bodySupplier].quantityAvailable +\n                manufacturers[manufacturerID].bodyQuant;\n        } else {\n            uint256 wheelSupplier = manufacturers[manufacturerID].wheelSupplier;\n            limiting =\n                suppliers[wheelSupplier].quantityAvailable +\n                manufacturers[manufacturerID].wheelQuant;\n        }\n        bidsTillNow[suppliers[supplierID].wallet].push(\n            Bid(\n                0,\n                0,\n                0,\n                blindPrice,\n                blindQuantity,\n                blindKey,\n                limiting,\n                manufacturerID,\n                supplierID,\n                msg.value,\n                false,\n                payable(msg.sender)\n            )\n        );\n        suppliers[supplierID].bidsPlaced += 1;\n        emit ManufacturerBids(\n            manufacturerID,\n            supplierID,\n            blindPrice,\n            blindQuantity,\n            blindKey\n        );\n        return limiting;\n    }\n\n    /// @notice Function for manufacturers to reveal bids\n    /// @dev Triggers ManufacturerReveal event\n    /// @param manufacturerID Tag of the manufacturer\n    /// @param supplierID Tag of the supplier\n    /// @param actualPrice Price per unit\n    /// @param actualQuantity Quantities requested\n    /// @param actualKey Key used to hide the price and quantity\n    /// @return bool Reveal was valid or not\n    function manufacturerRevealsBid(\n        uint256 manufacturerID,\n        uint256 supplierID,\n        uint256 actualPrice,\n        uint256 actualQuantity,\n        uint256 actualKey\n    ) public returns (bool) {\n        require(manufacturerID <= num_manufacturer, \"Invalid ID\");\n        require(supplierID <= num_supplier, \"Invalid ID\");\n        require(\n            suppliers[supplierID].currentState == AuctionState.REVEALING,\n            \"Reveal phase not going on\"\n        );\n        require(\n            manufacturers[manufacturerID].wallet == msg.sender,\n            \"Invalid ID\"\n        );\n        for (\n            uint256 i = 0;\n            i < bidsTillNow[suppliers[supplierID].wallet].length;\n            i++\n        ) {\n            if (\n                bidsTillNow[suppliers[supplierID].wallet][i].buyerID !=\n                manufacturerID\n            ) continue;\n            Bid memory bid = bidsTillNow[suppliers[supplierID].wallet][i];\n            require(bid.correctReveal == false, \"Bid already revealed\");\n            require(\n                keccak256(abi.encodePacked(actualKey)) == bid.blindKey,\n                \"Incorrect key -- keeping your money\"\n            );\n            require(\n                keccak256(abi.encodePacked(actualKey + actualQuantity)) ==\n                    bid.blindQuantity,\n                \"Incorrect quantity -- keeping your money\"\n            );\n            require(\n                keccak256(abi.encodePacked(actualKey + actualPrice)) ==\n                    bid.blindPrice,\n                \"Incorrect price -- keeping your money\"\n            );\n            uint256 effectivePrice = actualPrice * actualQuantity;\n            require(\n                effectivePrice < bid.moneySent,\n                \"Insufficient funds sent -- keeping your money\"\n            );\n            bidsTillNow[suppliers[supplierID].wallet][i].correctReveal = true;\n            bidsTillNow[suppliers[supplierID].wallet][i]\n                .actualPrice = actualPrice;\n            bidsTillNow[suppliers[supplierID].wallet][i]\n                .actualQuantity = actualQuantity;\n            bidsTillNow[suppliers[supplierID].wallet][i].actualKey = actualKey;\n            suppliers[supplierID].bidsRevealed += 1;\n            emit ManufacturerReveal(\n                manufacturerID,\n                supplierID,\n                actualPrice,\n                actualQuantity,\n                actualKey\n            );\n            return true;\n        }\n        return false;\n    }\n\n    /// @notice Function for customers to buy cars\n    /// @dev Triggers CarSold event\n    /// @param customerID Tag of the customer\n    /// @param manufacturerID Tag of the manufacturer\n    /// @param priceOfferedPerCar Price per unit\n    /// @param quantityRequested Quantities requested\n    /// @return uint256 Quantity supplied\n    function customerBuysCar(\n        uint256 customerID,\n        uint256 manufacturerID,\n        uint256 priceOfferedPerCar,\n        uint256 quantityRequested\n    ) public payable returns (uint256) {\n        require(customerID <= num_customer, \"Invalid customer\");\n        require(manufacturerID <= num_manufacturer, \"Invalid customer\");\n        require(\n            priceOfferedPerCar >= manufacturers[manufacturerID].carPrice,\n            \"Cost is higher\"\n        );\n        require(\n            msg.value >= priceOfferedPerCar * quantityRequested,\n            \"Insufficient funds sent\"\n        );\n        require(\n            msg.sender == payable(customers[customerID].wallet),\n            \"Incorrect ID\"\n        );\n        uint256 selling = minimum(\n            quantityRequested,\n            manufacturers[manufacturerID].carsAvailable\n        );\n        for (uint256 i = 0; i < selling; i++) {\n            num_cars++;\n            cars[num_cars] = Car(\n                num_cars,\n                customerID,\n                manufacturerID,\n                manufacturers[manufacturerID].wheelSupplier,\n                manufacturers[manufacturerID].bodySupplier\n            );\n            emit CarSold(num_cars, manufacturerID, customerID);\n        }\n        manufacturers[manufacturerID].carsAvailable -= selling;\n        require(\n            payable(manufacturers[manufacturerID].wallet).send(\n                selling * priceOfferedPerCar\n            ),\n            \"Transaction failed\"\n        );\n        require(\n            payable(msg.sender).send(msg.value - selling * priceOfferedPerCar),\n            \"Transaction failed\"\n        );\n        return selling;\n    }\n\n    /// @notice Verify details of your car\n    /// @param customerID Tag of the customer\n    /// @param carID Tag of the car\n    /// @return id Tag of the car\n    /// @return manufacturerID Tag of the manufacturer who sold the car\n    /// @return wheelSupplier Tag of wheel supplier\n    /// @return bodySupplier Tag of body supplier\n    function verifyCar(uint256 customerID, uint256 carID)\n        public\n        view\n        returns (\n            uint256 id,\n            uint256 manufacturerID,\n            uint256 wheelSupplier,\n            uint256 bodySupplier\n        )\n    {\n        require(customerID <= num_customer, \"Invalid car\");\n        require(customers[customerID].wallet == msg.sender, \"Incorrect ID\");\n        require(carID <= num_cars, \"Invalid car\");\n        require(cars[carID].customerID == customerID, \"Not your car!\");\n        return (\n            carID,\n            cars[carID].manufacturerID,\n            cars[carID].wheelSupID,\n            cars[carID].bodySupID\n        );\n    }\n\n    /// @notice Add a supplier to the supply chain\n    /// @param partType Type of the part supplier is going to provide. 0 for body and 1 for wheels\n    /// @param quantityAvailable Quantity available with the supplier\n    /// @param addr Wallet address of the supplier\n    /// @param auctionBidders Number of people that can bid in it's auction\n    /// @return tag of the supplier added\n    function addSupplier(\n        uint256 partType,\n        uint256 quantityAvailable,\n        address payable addr,\n        uint256 auctionBidders\n    ) public payable returns (uint256 tag) {\n        require(partType <= 1, \"Invalid part type!\");\n        require(msg.sender == addr, \"Invalid sign up\");\n        num_supplier++;\n        PartType here = PartType.BODY;\n        if (partType == 1) here = PartType.WHEEL;\n        suppliers[num_supplier] = Supplier(\n            num_supplier,\n            here,\n            quantityAvailable,\n            AuctionState.NOT_RUNNING,\n            addr,\n            auctionBidders,\n            0,\n            0\n        );\n        // allSuppliers.push(\n        //     Supplier(\n        //         num_supplier,\n        //         here,\n        //         quantityAvailable,\n        //         AuctionState.NOT_RUNNING,\n        //         addr,\n        //         auctionBidders,\n        //         0,\n        //         0\n        //     )\n        // );\n        return num_supplier;\n    }\n\n    /// @notice Update the quantity available with a supplier\n    /// @param tag Tag of the supplier\n    /// @param newQuantity New quantity to add\n    /// @return totalQuantity total quantity with the supplier\n    function updateSupplierQuantity(uint256 tag, uint256 newQuantity)\n        public\n        returns (uint256 totalQuantity)\n    {\n        require(tag <= num_supplier, \"Invalid ID\");\n        require(suppliers[tag].wallet == msg.sender, \"Incorrect ID\");\n        suppliers[tag].quantityAvailable += newQuantity;\n        return suppliers[tag].quantityAvailable;\n    }\n\n    /// @notice Add a supplier to the supply chain\n    /// @param addr Wallet address of the supplier\n    /// @param wheelSupplier Tag of supplier to buy wheels from\n    /// @param bodySupplier Tag of supplier to buy body from\n    /// @param askingPrice Minimum asking price for the cars\n    /// @return tag of the manufacturer added\n    function addManufacturer(\n        address payable addr,\n        uint256 wheelSupplier,\n        uint256 bodySupplier,\n        uint256 askingPrice\n    ) public returns (uint256 tag) {\n        require(\n            wheelSupplier >= 1 && wheelSupplier <= num_supplier,\n            \"Invalid supplier!\"\n        );\n        require(\n            bodySupplier >= 1 && bodySupplier <= num_supplier,\n            \"Invalid supplier!\"\n        );\n        require(\n            suppliers[bodySupplier].partType == PartType.BODY,\n            \"Supplier doesn't suppl body\"\n        );\n        require(\n            suppliers[wheelSupplier].partType == PartType.WHEEL,\n            \"Supplier doesn't suppl wheels\"\n        );\n        require(msg.sender == addr, \"Invalid sign up\");\n        num_manufacturer++;\n        manufacturers[num_manufacturer] = Manufacturer(\n            num_manufacturer,\n            wheelSupplier,\n            0,\n            bodySupplier,\n            0,\n            0,\n            askingPrice,\n            addr\n        );\n        return num_manufacturer;\n    }\n\n    /// @notice Add a supplier to the supply chain\n    /// @param addr Wallet address of the supplier\n    /// @return tag of the customer added\n    function addCustomer(address payable addr) public returns (uint256 tag) {\n        require(msg.sender == addr, \"Invalid sign up\");\n        num_customer++;\n        customers[num_customer] = Customer(num_customer, addr);\n        return num_customer;\n    }\n\n    // /// @notice Get the number of customers\n    // /// @return uint256 Number of customers\n    // function getCustomers() public view returns (uint256) {\n    //     return num_customer;\n    // }\n\n    // /// @notice Get the number of cars\n    // /// @return uint256 Number of cars\n    // function getCars() public view returns (uint256) {\n    //     return num_cars;\n    // }\n\n    // // @notice Get the number of suppliers\n    // // @return uint256 Number of suppliers\n    // function getSuppliers() public view returns (uint256) {\n    //     return num_supplier;\n    // }\n\n    // // @notice Get the number of cars\n    // // @return uint256 Number of cars\n    // function getCars() public view returns (uint256) {\n    //     return num_cars;\n    // }\n\n    /// @notice Get quantity of each part and car with a manufacturer\n    /// @return quantityWheel Number of wheels\n    /// @return quantityBody Number of bodies\n    /// @return quantityCar Number of prepared cars\n    function getManufacturerQuantities(uint256 tag)\n        public\n        view\n        returns (\n            uint256 quantityWheel,\n            uint256 quantityBody,\n            uint256 quantityCar\n        )\n    {\n        require(tag <= num_manufacturer);\n        require(\n            (msg.sender == owner || msg.sender == manufacturers[tag].wallet),\n            \"Permission denied\"\n        );\n        return (\n            manufacturers[tag].wheelQuant,\n            manufacturers[tag].bodyQuant,\n            manufacturers[tag].carsAvailable\n        );\n    }\n\n    function getSupplierID(address supplier_addr)\n        public\n        view\n        returns (uint256 tag)\n    {\n        for (uint256 i = 1; i <= num_supplier; i++) {\n            if (suppliers[i].wallet == supplier_addr) {\n                return suppliers[i].tag;\n            }\n        }\n    }\n\n    function getManufacturerID(address manufacturer_addr)\n        public\n        view\n        returns (\n            uint256 tag,\n            uint256 wheelSupplier,\n            uint256 wheelQuant,\n            uint256 bodySupplier,\n            uint256 bodyQuant,\n            uint256 carsAvailable,\n            uint256 carPrice\n        )\n    {\n        for (uint256 i = 1; i <= num_manufacturer; i++) {\n            if (manufacturers[i].wallet == manufacturer_addr) {\n                return (\n                    manufacturers[i].tag,\n                    manufacturers[i].wheelSupplier,\n                    manufacturers[i].wheelQuant,\n                    manufacturers[i].bodySupplier,\n                    manufacturers[i].bodyQuant,\n                    manufacturers[i].carsAvailable,\n                    manufacturers[i].carPrice\n                );\n            }\n        }\n    }\n\n    function getAuctionState(uint256 tag) public view returns (uint256 state) {\n        require(tag <= num_supplier);\n        if (suppliers[tag].currentState == AuctionState.NOT_RUNNING) {\n            return 1;\n        } else if (suppliers[tag].currentState == AuctionState.BIDDING) {\n            return 2;\n        } else if (suppliers[tag].currentState == AuctionState.REVEALING) {\n            return 3;\n        }\n    }\n\n    function getNumberOfBids(address wallet) public view returns (uint256) {\n        return bidsTillNow[wallet].length;\n    }\n\n    function getSupplierBids(address wallet, uint256 idx)\n        public\n        view\n        returns (\n            bytes32 blindPrice,\n            bytes32 blindQuantity,\n            uint256 buyerID,\n            bool correctReveal\n        )\n    {\n        if (bidsTillNow[wallet].length < idx)\n            return (bytes32(0), bytes32(0), uint256(0), false);\n        return (\n            bidsTillNow[wallet][idx].blindPrice,\n            bidsTillNow[wallet][idx].blindQuantity,\n            bidsTillNow[wallet][idx].buyerID,\n            bidsTillNow[wallet][idx].correctReveal\n        );\n    }\n    function getSuppliers() public view returns (uint256) {\n        return num_supplier;\n    }\n    function getManufacturers() public view returns (uint256) {\n        return num_manufacturer;\n    }\n    function getCustomers() public view returns (uint256) {\n        return num_customer;\n    }\n\n\n}\n   ",
  "sourcePath": "/home/sahithi/acads/sem7/dtb/Supply-Chain-Smartcontract/contracts/MarketPlace2.sol",
  "compiler": {
    "name": "solc",
    "version": "0.8.16+commit.07a7930e.Emscripten.clang"
  },
  "schemaVersion": "3.4.8",
  "updatedAt": "2022-09-15T20:39:09.977Z",
  "networkType": "ethereum",
  "devdoc": {
    "author": "Kunal Jain, P. Sahithi Reddy, Prince Varshney",
    "events": {
      "AllocateFromSupplier(uint256,uint256,uint256,uint256)": {
        "params": {
          "manufacturerID": "Tag of the manufacturer",
          "price": "Price per unit",
          "quantity": "Quantities supplier",
          "supplierID": "Tag of the supplier"
        }
      },
      "CarSold(uint256,uint256,uint256)": {
        "params": {
          "carID": "Tag of the car sold",
          "customerID": "Tag of the customer",
          "manufacturerID": "Tag of the manufacturer"
        }
      },
      "ManufacturerBids(uint256,uint256,bytes32,bytes32,bytes32)": {
        "params": {
          "blindKey": "Hash of Key",
          "blindPrice": "Hash of (Price + Key)",
          "blindQuantity": "Hash of (Quantity + Key)",
          "manufacturerID": "Tag of the manufacturer",
          "supplierID": "Tag of the supplier"
        }
      },
      "ManufacturerReveal(uint256,uint256,uint256,uint256,uint256)": {
        "params": {
          "actualKey": "Key used to hide the bid",
          "actualPrice": "Price per quantity offered in the bid",
          "actualQuantity": "Quantity requested in the bid",
          "manufacturerID": "Tag of the manufacturer",
          "supplierID": "Tag of the supplier"
        }
      },
      "StartSupplierBidding(uint256,uint256)": {
        "params": {
          "tag": "Tag of the supplier",
          "timestamp": "Block height when bidding phase starts"
        }
      },
      "StartSupplierReveal(uint256,uint256)": {
        "params": {
          "tag": "Tag of the supplier",
          "timestamp": "Block height when reveal phase starts"
        }
      }
    },
    "kind": "dev",
    "methods": {
      "addCustomer(address)": {
        "params": {
          "addr": "Wallet address of the supplier"
        },
        "returns": {
          "tag": "of the customer added"
        }
      },
      "addManufacturer(address,uint256,uint256,uint256)": {
        "params": {
          "addr": "Wallet address of the supplier",
          "askingPrice": "Minimum asking price for the cars",
          "bodySupplier": "Tag of supplier to buy body from",
          "wheelSupplier": "Tag of supplier to buy wheels from"
        },
        "returns": {
          "tag": "of the manufacturer added"
        }
      },
      "addSupplier(uint256,uint256,address,uint256)": {
        "params": {
          "addr": "Wallet address of the supplier",
          "auctionBidders": "Number of people that can bid in it's auction",
          "partType": "Type of the part supplier is going to provide. 0 for body and 1 for wheels",
          "quantityAvailable": "Quantity available with the supplier"
        },
        "returns": {
          "tag": "of the supplier added"
        }
      },
      "customerBuysCar(uint256,uint256,uint256,uint256)": {
        "details": "Triggers CarSold event",
        "params": {
          "customerID": "Tag of the customer",
          "manufacturerID": "Tag of the manufacturer",
          "priceOfferedPerCar": "Price per unit",
          "quantityRequested": "Quantities requested"
        },
        "returns": {
          "_0": "uint256 Quantity supplied"
        }
      },
      "getManufacturerQuantities(uint256)": {
        "returns": {
          "quantityBody": "Number of bodies",
          "quantityCar": "Number of prepared cars",
          "quantityWheel": "Number of wheels"
        }
      },
      "manufacturerPlacesBid(uint256,uint256,bytes32,bytes32,bytes32)": {
        "details": "Triggers ManufacturerBids event",
        "params": {
          "blindKey": "Key used to hide the price and quantity",
          "blindPrice": "Price per unit hidden using the key and SHA256 encryption",
          "blindQuantity": "Quantities requested hidden using the key and SHA256 encryption",
          "manufacturerID": "Tag of the manufacturer",
          "supplierID": "Tag of the supplier"
        },
        "returns": {
          "limitingQuantity": "Liming quantity of the manufacturer for optimal resource allocation"
        }
      },
      "manufacturerRevealsBid(uint256,uint256,uint256,uint256,uint256)": {
        "details": "Triggers ManufacturerReveal event",
        "params": {
          "actualKey": "Key used to hide the price and quantity",
          "actualPrice": "Price per unit",
          "actualQuantity": "Quantities requested",
          "manufacturerID": "Tag of the manufacturer",
          "supplierID": "Tag of the supplier"
        },
        "returns": {
          "_0": "bool Reveal was valid or not"
        }
      },
      "minimum(uint256,uint256)": {
        "details": "Function to find the minumum of 2 unsigned integers"
      },
      "supplierEndAuction(uint256)": {
        "details": "Triggers AllocateFromSupplier and back payments on bids",
        "params": {
          "tag": "Tag of the supplier"
        },
        "returns": {
          "_0": "uint256 Block height when the auction ends"
        }
      },
      "supplierStartBidding(uint256)": {
        "details": "Triggeers StartSupplierBidding event",
        "params": {
          "tag": "Tag of the supplier"
        },
        "returns": {
          "_0": "uint256 Block height when the bidding starts"
        }
      },
      "supplierStartReveal(uint256)": {
        "details": "Triggeers StartSupplierReveal event",
        "params": {
          "tag": "Tag of the supplier"
        },
        "returns": {
          "_0": "uint256 Block height when the reveal starts"
        }
      },
      "updateSupplierQuantity(uint256,uint256)": {
        "params": {
          "newQuantity": "New quantity to add",
          "tag": "Tag of the supplier"
        },
        "returns": {
          "totalQuantity": "total quantity with the supplier"
        }
      },
      "verifyCar(uint256,uint256)": {
        "params": {
          "carID": "Tag of the car",
          "customerID": "Tag of the customer"
        },
        "returns": {
          "bodySupplier": "Tag of body supplier",
          "id": "Tag of the car",
          "manufacturerID": "Tag of the manufacturer who sold the car",
          "wheelSupplier": "Tag of wheel supplier"
        }
      }
    },
    "stateVariables": {
      "owner": {
        "details": "wallet address of the contract owner"
      }
    },
    "title": "New Market Place",
    "version": 1
  },
  "userdoc": {
    "events": {
      "AllocateFromSupplier(uint256,uint256,uint256,uint256)": {
        "notice": "Triggered when a supplier suppliers parts to a manufacturer"
      },
      "CarSold(uint256,uint256,uint256)": {
        "notice": "Triggered when a car is sold by the manufacturer to a customer"
      },
      "ManufacturerBids(uint256,uint256,bytes32,bytes32,bytes32)": {
        "notice": "Triggered when a manufacturer places a bid"
      },
      "ManufacturerReveal(uint256,uint256,uint256,uint256,uint256)": {
        "notice": "Triggered when a manufacturer reveals a bid"
      },
      "StartSupplierBidding(uint256,uint256)": {
        "notice": "Triggered when a supplier starts their bidding phase"
      },
      "StartSupplierReveal(uint256,uint256)": {
        "notice": "Triggered when a supplier starts their reveal phase"
      }
    },
    "kind": "user",
    "methods": {
      "addCustomer(address)": {
        "notice": "Add a supplier to the supply chain"
      },
      "addManufacturer(address,uint256,uint256,uint256)": {
        "notice": "Add a supplier to the supply chain"
      },
      "addSupplier(uint256,uint256,address,uint256)": {
        "notice": "Add a supplier to the supply chain"
      },
      "customerBuysCar(uint256,uint256,uint256,uint256)": {
        "notice": "Function for customers to buy cars"
      },
      "getManufacturerQuantities(uint256)": {
        "notice": "Get quantity of each part and car with a manufacturer"
      },
      "manufacturerPlacesBid(uint256,uint256,bytes32,bytes32,bytes32)": {
        "notice": "Function for manufacturers to place bids"
      },
      "manufacturerRevealsBid(uint256,uint256,uint256,uint256,uint256)": {
        "notice": "Function for manufacturers to reveal bids"
      },
      "supplierEndAuction(uint256)": {
        "notice": "Function to end the auction of a supplier"
      },
      "supplierStartBidding(uint256)": {
        "notice": "Function to start bidding of a supplier"
      },
      "supplierStartReveal(uint256)": {
        "notice": "Function to start reveal of a supplier"
      },
      "updateSupplierQuantity(uint256,uint256)": {
        "notice": "Update the quantity available with a supplier"
      },
      "verifyCar(uint256,uint256)": {
        "notice": "Verify details of your car"
      }
    },
    "notice": "Market place implementation",
    "version": 1
  }
}