{
  "contractName": "NewMarketPlace",
  "abi": [
    {
      "inputs": [],
      "stateMutability": "nonpayable",
      "type": "constructor"
    },
    {
      "anonymous": false,
      "inputs": [
        {
          "indexed": false,
          "internalType": "uint256",
          "name": "supplierID",
          "type": "uint256"
        },
        {
          "indexed": false,
          "internalType": "uint256",
          "name": "manufacturerID",
          "type": "uint256"
        },
        {
          "indexed": false,
          "internalType": "uint256",
          "name": "quantity",
          "type": "uint256"
        },
        {
          "indexed": false,
          "internalType": "uint256",
          "name": "price",
          "type": "uint256"
        }
      ],
      "name": "AllocateFromSupplier",
      "type": "event"
    },
    {
      "anonymous": false,
      "inputs": [
        {
          "indexed": false,
          "internalType": "uint256",
          "name": "carID",
          "type": "uint256"
        },
        {
          "indexed": false,
          "internalType": "uint256",
          "name": "manufacturerID",
          "type": "uint256"
        },
        {
          "indexed": false,
          "internalType": "uint256",
          "name": "customerID",
          "type": "uint256"
        }
      ],
      "name": "CarSold",
      "type": "event"
    },
    {
      "anonymous": false,
      "inputs": [
        {
          "indexed": false,
          "internalType": "uint256",
          "name": "manufacturerID",
          "type": "uint256"
        },
        {
          "indexed": false,
          "internalType": "uint256",
          "name": "supplierID",
          "type": "uint256"
        },
        {
          "indexed": false,
          "internalType": "bytes32",
          "name": "blindPrice",
          "type": "bytes32"
        },
        {
          "indexed": false,
          "internalType": "bytes32",
          "name": "blindQuantity",
          "type": "bytes32"
        },
        {
          "indexed": false,
          "internalType": "bytes32",
          "name": "blindKey",
          "type": "bytes32"
        }
      ],
      "name": "ManufacturerBids",
      "type": "event"
    },
    {
      "anonymous": false,
      "inputs": [
        {
          "indexed": false,
          "internalType": "uint256",
          "name": "manufacturerID",
          "type": "uint256"
        },
        {
          "indexed": false,
          "internalType": "uint256",
          "name": "supplierID",
          "type": "uint256"
        },
        {
          "indexed": false,
          "internalType": "uint256",
          "name": "actualPrice",
          "type": "uint256"
        },
        {
          "indexed": false,
          "internalType": "uint256",
          "name": "actualQuantity",
          "type": "uint256"
        },
        {
          "indexed": false,
          "internalType": "uint256",
          "name": "actualKey",
          "type": "uint256"
        }
      ],
      "name": "ManufacturerReveal",
      "type": "event"
    },
    {
      "anonymous": false,
      "inputs": [
        {
          "indexed": false,
          "internalType": "uint256",
          "name": "tag",
          "type": "uint256"
        },
        {
          "indexed": false,
          "internalType": "uint256",
          "name": "timestamp",
          "type": "uint256"
        }
      ],
      "name": "StartSupplierBidding",
      "type": "event"
    },
    {
      "anonymous": false,
      "inputs": [
        {
          "indexed": false,
          "internalType": "uint256",
          "name": "tag",
          "type": "uint256"
        },
        {
          "indexed": false,
          "internalType": "uint256",
          "name": "timestamp",
          "type": "uint256"
        }
      ],
      "name": "StartSupplierReveal",
      "type": "event"
    },
    {
      "inputs": [
        {
          "internalType": "uint256",
          "name": "",
          "type": "uint256"
        }
      ],
      "name": "customers",
      "outputs": [
        {
          "internalType": "uint256",
          "name": "tag",
          "type": "uint256"
        },
        {
          "internalType": "address",
          "name": "wallet",
          "type": "address"
        }
      ],
      "stateMutability": "view",
      "type": "function",
      "constant": true
    },
    {
      "inputs": [
        {
          "internalType": "uint256",
          "name": "",
          "type": "uint256"
        }
      ],
      "name": "manufacturers",
      "outputs": [
        {
          "internalType": "uint256",
          "name": "tag",
          "type": "uint256"
        },
        {
          "internalType": "uint256",
          "name": "wheelSupplier",
          "type": "uint256"
        },
        {
          "internalType": "uint256",
          "name": "wheelQuant",
          "type": "uint256"
        },
        {
          "internalType": "uint256",
          "name": "bodySupplier",
          "type": "uint256"
        },
        {
          "internalType": "uint256",
          "name": "bodyQuant",
          "type": "uint256"
        },
        {
          "internalType": "uint256",
          "name": "carsAvailable",
          "type": "uint256"
        },
        {
          "internalType": "uint256",
          "name": "carPrice",
          "type": "uint256"
        },
        {
          "internalType": "address",
          "name": "wallet",
          "type": "address"
        }
      ],
      "stateMutability": "view",
      "type": "function",
      "constant": true
    },
    {
      "inputs": [],
      "name": "owner",
      "outputs": [
        {
          "internalType": "address payable",
          "name": "",
          "type": "address"
        }
      ],
      "stateMutability": "view",
      "type": "function",
      "constant": true
    },
    {
      "inputs": [
        {
          "internalType": "uint256",
          "name": "",
          "type": "uint256"
        }
      ],
      "name": "suppliers",
      "outputs": [
        {
          "internalType": "uint256",
          "name": "tag",
          "type": "uint256"
        },
        {
          "internalType": "enum NewMarketPlace.PartType",
          "name": "partType",
          "type": "uint8"
        },
        {
          "internalType": "uint256",
          "name": "quantityAvailable",
          "type": "uint256"
        },
        {
          "internalType": "enum NewMarketPlace.AuctionState",
          "name": "currentState",
          "type": "uint8"
        },
        {
          "internalType": "address",
          "name": "wallet",
          "type": "address"
        },
        {
          "internalType": "uint256",
          "name": "maxBidders",
          "type": "uint256"
        },
        {
          "internalType": "uint256",
          "name": "bidsPlaced",
          "type": "uint256"
        },
        {
          "internalType": "uint256",
          "name": "bidsRevealed",
          "type": "uint256"
        }
      ],
      "stateMutability": "view",
      "type": "function",
      "constant": true
    },
    {
      "inputs": [],
      "name": "isSupplier",
      "outputs": [
        {
          "internalType": "bool",
          "name": "",
          "type": "bool"
        }
      ],
      "stateMutability": "view",
      "type": "function",
      "constant": true
    },
    {
      "inputs": [],
      "name": "isManufacturer",
      "outputs": [
        {
          "internalType": "bool",
          "name": "",
          "type": "bool"
        }
      ],
      "stateMutability": "view",
      "type": "function",
      "constant": true
    },
    {
      "inputs": [
        {
          "internalType": "uint256",
          "name": "a",
          "type": "uint256"
        },
        {
          "internalType": "uint256",
          "name": "b",
          "type": "uint256"
        }
      ],
      "name": "minimum",
      "outputs": [
        {
          "internalType": "uint256",
          "name": "",
          "type": "uint256"
        }
      ],
      "stateMutability": "pure",
      "type": "function",
      "constant": true
    },
    {
      "inputs": [
        {
          "internalType": "uint256",
          "name": "tag",
          "type": "uint256"
        }
      ],
      "name": "supplierStartBidding",
      "outputs": [
        {
          "internalType": "uint256",
          "name": "",
          "type": "uint256"
        }
      ],
      "stateMutability": "nonpayable",
      "type": "function"
    },
    {
      "inputs": [
        {
          "internalType": "uint256",
          "name": "tag",
          "type": "uint256"
        }
      ],
      "name": "supplierStartReveal",
      "outputs": [
        {
          "internalType": "uint256",
          "name": "",
          "type": "uint256"
        }
      ],
      "stateMutability": "nonpayable",
      "type": "function"
    },
    {
      "inputs": [
        {
          "internalType": "uint256",
          "name": "tag",
          "type": "uint256"
        }
      ],
      "name": "supplierEndAuction",
      "outputs": [
        {
          "internalType": "uint256",
          "name": "",
          "type": "uint256"
        }
      ],
      "stateMutability": "nonpayable",
      "type": "function"
    },
    {
      "inputs": [
        {
          "internalType": "uint256",
          "name": "manufacturerID",
          "type": "uint256"
        },
        {
          "internalType": "uint256",
          "name": "supplierID",
          "type": "uint256"
        },
        {
          "internalType": "bytes32",
          "name": "blindPrice",
          "type": "bytes32"
        },
        {
          "internalType": "bytes32",
          "name": "blindQuantity",
          "type": "bytes32"
        },
        {
          "internalType": "bytes32",
          "name": "blindKey",
          "type": "bytes32"
        }
      ],
      "name": "manufacturerPlacesBid",
      "outputs": [
        {
          "internalType": "uint256",
          "name": "limitingQuantity",
          "type": "uint256"
        }
      ],
      "stateMutability": "payable",
      "type": "function",
      "payable": true
    },
    {
      "inputs": [
        {
          "internalType": "uint256",
          "name": "manufacturerID",
          "type": "uint256"
        },
        {
          "internalType": "uint256",
          "name": "supplierID",
          "type": "uint256"
        },
        {
          "internalType": "uint256",
          "name": "actualPrice",
          "type": "uint256"
        },
        {
          "internalType": "uint256",
          "name": "actualQuantity",
          "type": "uint256"
        },
        {
          "internalType": "uint256",
          "name": "actualKey",
          "type": "uint256"
        }
      ],
      "name": "manufacturerRevealsBid",
      "outputs": [
        {
          "internalType": "bool",
          "name": "",
          "type": "bool"
        }
      ],
      "stateMutability": "nonpayable",
      "type": "function"
    },
    {
      "inputs": [
        {
          "internalType": "uint256",
          "name": "customerID",
          "type": "uint256"
        },
        {
          "internalType": "uint256",
          "name": "manufacturerID",
          "type": "uint256"
        },
        {
          "internalType": "uint256",
          "name": "priceOfferedPerCar",
          "type": "uint256"
        },
        {
          "internalType": "uint256",
          "name": "quantityRequested",
          "type": "uint256"
        }
      ],
      "name": "customerBuysCar",
      "outputs": [
        {
          "internalType": "uint256",
          "name": "",
          "type": "uint256"
        }
      ],
      "stateMutability": "payable",
      "type": "function",
      "payable": true
    },
    {
      "inputs": [
        {
          "internalType": "uint256",
          "name": "customerID",
          "type": "uint256"
        },
        {
          "internalType": "uint256",
          "name": "carID",
          "type": "uint256"
        }
      ],
      "name": "verifyCar",
      "outputs": [
        {
          "internalType": "uint256",
          "name": "id",
          "type": "uint256"
        },
        {
          "internalType": "uint256",
          "name": "manufacturerID",
          "type": "uint256"
        },
        {
          "internalType": "uint256",
          "name": "wheelSupplier",
          "type": "uint256"
        },
        {
          "internalType": "uint256",
          "name": "bodySupplier",
          "type": "uint256"
        }
      ],
      "stateMutability": "view",
      "type": "function",
      "constant": true
    },
    {
      "inputs": [
        {
          "internalType": "uint256",
          "name": "partType",
          "type": "uint256"
        },
        {
          "internalType": "uint256",
          "name": "quantityAvailable",
          "type": "uint256"
        },
        {
          "internalType": "address payable",
          "name": "addr",
          "type": "address"
        },
        {
          "internalType": "uint256",
          "name": "auctionBidders",
          "type": "uint256"
        }
      ],
      "name": "addSupplier",
      "outputs": [
        {
          "internalType": "uint256",
          "name": "tag",
          "type": "uint256"
        }
      ],
      "stateMutability": "payable",
      "type": "function",
      "payable": true
    },
    {
      "inputs": [
        {
          "internalType": "uint256",
          "name": "tag",
          "type": "uint256"
        },
        {
          "internalType": "uint256",
          "name": "newQuantity",
          "type": "uint256"
        }
      ],
      "name": "updateSupplierQuantity",
      "outputs": [
        {
          "internalType": "uint256",
          "name": "totalQuantity",
          "type": "uint256"
        }
      ],
      "stateMutability": "nonpayable",
      "type": "function"
    },
    {
      "inputs": [
        {
          "internalType": "address payable",
          "name": "addr",
          "type": "address"
        },
        {
          "internalType": "uint256",
          "name": "wheelSupplier",
          "type": "uint256"
        },
        {
          "internalType": "uint256",
          "name": "bodySupplier",
          "type": "uint256"
        },
        {
          "internalType": "uint256",
          "name": "askingPrice",
          "type": "uint256"
        }
      ],
      "name": "addManufacturer",
      "outputs": [
        {
          "internalType": "uint256",
          "name": "tag",
          "type": "uint256"
        }
      ],
      "stateMutability": "nonpayable",
      "type": "function"
    },
    {
      "inputs": [
        {
          "internalType": "address payable",
          "name": "addr",
          "type": "address"
        }
      ],
      "name": "addCustomer",
      "outputs": [
        {
          "internalType": "uint256",
          "name": "tag",
          "type": "uint256"
        }
      ],
      "stateMutability": "nonpayable",
      "type": "function"
    },
    {
      "inputs": [],
      "name": "getSuppliers",
      "outputs": [
        {
          "internalType": "uint256",
          "name": "",
          "type": "uint256"
        }
      ],
      "stateMutability": "view",
      "type": "function",
      "constant": true
    },
    {
      "inputs": [],
      "name": "getManufacturers",
      "outputs": [
        {
          "internalType": "uint256",
          "name": "",
          "type": "uint256"
        }
      ],
      "stateMutability": "view",
      "type": "function",
      "constant": true
    },
    {
      "inputs": [],
      "name": "getCustomers",
      "outputs": [
        {
          "internalType": "uint256",
          "name": "",
          "type": "uint256"
        }
      ],
      "stateMutability": "view",
      "type": "function",
      "constant": true
    },
    {
      "inputs": [],
      "name": "getCars",
      "outputs": [
        {
          "internalType": "uint256",
          "name": "",
          "type": "uint256"
        }
      ],
      "stateMutability": "view",
      "type": "function",
      "constant": true
    },
    {
      "inputs": [
        {
          "internalType": "uint256",
          "name": "tag",
          "type": "uint256"
        }
      ],
      "name": "getManufacturerQuantities",
      "outputs": [
        {
          "internalType": "uint256",
          "name": "quantityWheel",
          "type": "uint256"
        },
        {
          "internalType": "uint256",
          "name": "quantityBody",
          "type": "uint256"
        },
        {
          "internalType": "uint256",
          "name": "quantityCar",
          "type": "uint256"
        }
      ],
      "stateMutability": "view",
      "type": "function",
      "constant": true
    }
  ],
  "bytecode": "0x608060405234801561001057600080fd5b506000600981905550600060088190555060006007819055506000600681905550336000806101000a81548173ffffffffffffffffffffffffffffffffffffffff021916908373ffffffffffffffffffffffffffffffffffffffff1602179055506155df80620000816000396000f3fe6080604052600436106101405760003560e01c8063aa8613c4116100b6578063d3a26e601161006f578063d3a26e60146104e0578063dd2d2a121461051d578063e804b9551461055a578063f1ba71271461058a578063f7b0fde8146105b5578063fe828f36146105f257610140565b8063aa8613c414610389578063ad973d74146103c6578063bc8a234514610403578063c0abda2a1461042e578063cc5d852e1461046c578063cea231211461049c57610140565b80635b5e58dc116101085780635b5e58dc146102335780637aa4c3f3146102705780638da5cb5b146102af57806390175af1146102da57806393583b891461031e578063a9c563141461034957610140565b806317c392861461014557806319820090146101705780632565a86e146101ad57806343516832146101d85780634a0202cc14610203575b600080fd5b34801561015157600080fd5b5061015a61062f565b6040516101679190614215565b60405180910390f35b34801561017c57600080fd5b5061019760048036038101906101929190614261565b610639565b6040516101a491906142f7565b60405180910390f35b3480156101b957600080fd5b506101c2610fad565b6040516101cf91906142f7565b60405180910390f35b3480156101e457600080fd5b506101ed61104d565b6040516101fa9190614215565b60405180910390f35b61021d60048036038101906102189190614312565b611057565b60405161022a9190614215565b60405180910390f35b34801561023f57600080fd5b5061025a600480360381019061025591906143d7565b6114dd565b6040516102679190614215565b60405180910390f35b34801561027c57600080fd5b506102976004803603810190610292919061443e565b611823565b6040516102a69392919061446b565b60405180910390f35b3480156102bb57600080fd5b506102c4611983565b6040516102d191906144b1565b60405180910390f35b3480156102e657600080fd5b5061030160048036038101906102fc919061443e565b6119a7565b6040516103159897969594939291906144ed565b60405180910390f35b34801561032a57600080fd5b50610333611a0f565b60405161034091906142f7565b60405180910390f35b34801561035557600080fd5b50610370600480360381019061036b919061456b565b611aaf565b60405161038094939291906145ab565b60405180910390f35b34801561039557600080fd5b506103b060048036038101906103ab919061443e565b611c92565b6040516103bd9190614215565b60405180910390f35b3480156103d257600080fd5b506103ed60048036038101906103e891906145f0565b6131b9565b6040516103fa9190614215565b60405180910390f35b34801561040f57600080fd5b506104186132e1565b6040516104259190614215565b60405180910390f35b34801561043a57600080fd5b506104556004803603810190610450919061443e565b6132eb565b60405161046392919061461d565b60405180910390f35b61048660048036038101906104819190614646565b61332f565b6040516104939190614215565b60405180910390f35b3480156104a857600080fd5b506104c360048036038101906104be919061443e565b613586565b6040516104d798979695949392919061476c565b60405180910390f35b3480156104ec57600080fd5b506105076004803603810190610502919061456b565b613608565b6040516105149190614215565b60405180910390f35b34801561052957600080fd5b50610544600480360381019061053f919061456b565b61373f565b6040516105519190614215565b60405180910390f35b610574600480360381019061056f9190614820565b613759565b6040516105819190614215565b60405180910390f35b34801561059657600080fd5b5061059f613d55565b6040516105ac9190614215565b60405180910390f35b3480156105c157600080fd5b506105dc60048036038101906105d7919061443e565b613d5f565b6040516105e99190614215565b60405180910390f35b3480156105fe57600080fd5b506106196004803603810190610614919061443e565b613f1e565b6040516106269190614215565b60405180910390f35b6000600954905090565b6000600754861115610680576040517f08c379a0000000000000000000000000000000000000000000000000000000008152600401610677906148f8565b60405180910390fd5b6006548511156106c5576040517f08c379a00000000000000000000000000000000000000000000000000000000081526004016106bc906148f8565b60405180910390fd5b6002808111156106d8576106d76146ad565b5b6001600087815260200190815260200160002060030160009054906101000a900460ff16600281111561070e5761070d6146ad565b5b1461074e576040517f08c379a000000000000000000000000000000000000000000000000000000000815260040161074590614964565b60405180910390fd5b3373ffffffffffffffffffffffffffffffffffffffff166002600088815260200190815260200160002060070160009054906101000a900473ffffffffffffffffffffffffffffffffffffffff1673ffffffffffffffffffffffffffffffffffffffff16146107f2576040517f08c379a00000000000000000000000000000000000000000000000000000000081526004016107e9906148f8565b60405180910390fd5b60005b600560006001600089815260200190815260200160002060030160019054906101000a900473ffffffffffffffffffffffffffffffffffffffff1673ffffffffffffffffffffffffffffffffffffffff1673ffffffffffffffffffffffffffffffffffffffff16815260200190815260200160002080549050811015610f9e578660056000600160008a815260200190815260200160002060030160019054906101000a900473ffffffffffffffffffffffffffffffffffffffff1673ffffffffffffffffffffffffffffffffffffffff1673ffffffffffffffffffffffffffffffffffffffff16815260200190815260200160002082815481106108fd576108fc614984565b5b90600052602060002090600b02016007015403610f8b57600060056000600160008a815260200190815260200160002060030160019054906101000a900473ffffffffffffffffffffffffffffffffffffffff1673ffffffffffffffffffffffffffffffffffffffff1673ffffffffffffffffffffffffffffffffffffffff168152602001908152602001600020828154811061099d5761099c614984565b5b90600052602060002090600b02016040518061018001604052908160008201548152602001600182015481526020016002820154815260200160038201548152602001600482015481526020016005820154815260200160068201548152602001600782015481526020016008820154815260200160098201548152602001600a820160009054906101000a900460ff16151515158152602001600a820160019054906101000a900473ffffffffffffffffffffffffffffffffffffffff1673ffffffffffffffffffffffffffffffffffffffff1673ffffffffffffffffffffffffffffffffffffffff1681525050905060001515816101400151151514610ada576040517f08c379a0000000000000000000000000000000000000000000000000000000008152600401610ad1906149ff565b60405180910390fd5b8060a0015184604051602001610af09190614a40565b6040516020818303038152906040528051906020012014610b46576040517f08c379a0000000000000000000000000000000000000000000000000000000008152600401610b3d90614acd565b60405180910390fd5b80606001518685610b579190614b1c565b604051602001610b679190614a40565b6040516020818303038152906040528051906020012014610bbd576040517f08c379a0000000000000000000000000000000000000000000000000000000008152600401610bb490614bc2565b60405180910390fd5b80608001518585610bce9190614b1c565b604051602001610bde9190614a40565b6040516020818303038152906040528051906020012014610c34576040517f08c379a0000000000000000000000000000000000000000000000000000000008152600401610c2b90614c54565b60405180910390fd5b60008587610c429190614c74565b90508161012001518110610c8b576040517f08c379a0000000000000000000000000000000000000000000000000000000008152600401610c8290614d40565b60405180910390fd5b600160056000600160008c815260200190815260200160002060030160019054906101000a900473ffffffffffffffffffffffffffffffffffffffff1673ffffffffffffffffffffffffffffffffffffffff1673ffffffffffffffffffffffffffffffffffffffff1681526020019081526020016000208481548110610d1457610d13614984565b5b90600052602060002090600b0201600a0160006101000a81548160ff0219169083151502179055508660056000600160008c815260200190815260200160002060030160019054906101000a900473ffffffffffffffffffffffffffffffffffffffff1673ffffffffffffffffffffffffffffffffffffffff1673ffffffffffffffffffffffffffffffffffffffff1681526020019081526020016000208481548110610dc457610dc3614984565b5b90600052602060002090600b0201600001819055508560056000600160008c815260200190815260200160002060030160019054906101000a900473ffffffffffffffffffffffffffffffffffffffff1673ffffffffffffffffffffffffffffffffffffffff1673ffffffffffffffffffffffffffffffffffffffff1681526020019081526020016000208481548110610e6157610e60614984565b5b90600052602060002090600b0201600101819055508460056000600160008c815260200190815260200160002060030160019054906101000a900473ffffffffffffffffffffffffffffffffffffffff1673ffffffffffffffffffffffffffffffffffffffff1673ffffffffffffffffffffffffffffffffffffffff1681526020019081526020016000208481548110610efe57610efd614984565b5b90600052602060002090600b02016002018190555060018060008a81526020019081526020016000206006016000828254610f399190614b1c565b925050819055507f1e03b01ba1997c24040f0a2e5145f9dc2be2d1821b811bd7def13c7f41cda8748989898989604051610f77959493929190614d60565b60405180910390a160019350505050610fa4565b8080610f9690614db3565b9150506107f5565b50600090505b95945050505050565b600080600090505b6006548111611044573373ffffffffffffffffffffffffffffffffffffffff166001600083815260200190815260200160002060030160019054906101000a900473ffffffffffffffffffffffffffffffffffffffff1673ffffffffffffffffffffffffffffffffffffffff160361103157600191505061104a565b808061103c90614db3565b915050610fb5565b50600090505b90565b6000600654905090565b600060085485111561109e576040517f08c379a000000000000000000000000000000000000000000000000000000000815260040161109590614e47565b60405180910390fd5b6007548411156110e3576040517f08c379a00000000000000000000000000000000000000000000000000000000081526004016110da90614e47565b60405180910390fd5b600260008581526020019081526020016000206006015483101561113c576040517f08c379a000000000000000000000000000000000000000000000000000000000815260040161113390614eb3565b60405180910390fd5b81836111489190614c74565b34101561118a576040517f08c379a000000000000000000000000000000000000000000000000000000000815260040161118190614f1f565b60405180910390fd5b6003600086815260200190815260200160002060010160009054906101000a900473ffffffffffffffffffffffffffffffffffffffff1673ffffffffffffffffffffffffffffffffffffffff163373ffffffffffffffffffffffffffffffffffffffff161461122e576040517f08c379a000000000000000000000000000000000000000000000000000000000815260040161122590614f8b565b60405180910390fd5b600061125083600260008881526020019081526020016000206005015461373f565b905060005b81811015611364576009600081548092919061127090614db3565b91905055506040518060a00160405280600954815260200188815260200187815260200160026000898152602001908152602001600020600101548152602001600260008981526020019081526020016000206003015481525060046000600954815260200190815260200160002060008201518160000155602082015181600101556040820151816002015560608201518160030155608082015181600401559050507f7f5c7a32f9a2b70ae99e862ffe5aff9d18caa86acc91931c9f1b75f325cd169160095487896040516113499392919061446b565b60405180910390a1808061135c90614db3565b915050611255565b508060026000878152602001908152602001600020600501600082825461138b9190614fab565b925050819055506002600086815260200190815260200160002060070160009054906101000a900473ffffffffffffffffffffffffffffffffffffffff1673ffffffffffffffffffffffffffffffffffffffff166108fc85836113ee9190614c74565b9081150290604051600060405180830381858888f19350505050611447576040517f08c379a000000000000000000000000000000000000000000000000000000000815260040161143e9061502b565b60405180910390fd5b3373ffffffffffffffffffffffffffffffffffffffff166108fc858361146d9190614c74565b346114789190614fab565b9081150290604051600060405180830381858888f193505050506114d1576040517f08c379a00000000000000000000000000000000000000000000000000000000081526004016114c89061502b565b60405180910390fd5b80915050949350505050565b6000600184101580156114f257506006548411155b611531576040517f08c379a000000000000000000000000000000000000000000000000000000000815260040161152890615097565b60405180910390fd5b6001831015801561154457506006548311155b611583576040517f08c379a000000000000000000000000000000000000000000000000000000000815260040161157a90615097565b60405180910390fd5b600180811115611596576115956146ad565b5b6001600085815260200190815260200160002060010160009054906101000a900460ff1660018111156115cc576115cb6146ad565b5b1461160c576040517f08c379a000000000000000000000000000000000000000000000000000000000815260040161160390615103565b60405180910390fd5b600060018111156116205761161f6146ad565b5b6001600086815260200190815260200160002060010160009054906101000a900460ff166001811115611656576116556146ad565b5b14611696576040517f08c379a000000000000000000000000000000000000000000000000000000000815260040161168d9061516f565b60405180910390fd5b8473ffffffffffffffffffffffffffffffffffffffff163373ffffffffffffffffffffffffffffffffffffffff1614611704576040517f08c379a00000000000000000000000000000000000000000000000000000000081526004016116fb906151db565b60405180910390fd5b6007600081548092919061171790614db3565b919050555060405180610100016040528060075481526020018581526020016000815260200184815260200160008152602001600081526020018381526020018673ffffffffffffffffffffffffffffffffffffffff16815250600260006007548152602001908152602001600020600082015181600001556020820151816001015560408201518160020155606082015181600301556080820151816004015560a0820151816005015560c0820151816006015560e08201518160070160006101000a81548173ffffffffffffffffffffffffffffffffffffffff021916908373ffffffffffffffffffffffffffffffffffffffff1602179055509050506007549050949350505050565b600080600060075484111561183757600080fd5b60008054906101000a900473ffffffffffffffffffffffffffffffffffffffff1673ffffffffffffffffffffffffffffffffffffffff163373ffffffffffffffffffffffffffffffffffffffff1614806118f257506002600085815260200190815260200160002060070160009054906101000a900473ffffffffffffffffffffffffffffffffffffffff1673ffffffffffffffffffffffffffffffffffffffff163373ffffffffffffffffffffffffffffffffffffffff16145b611931576040517f08c379a000000000000000000000000000000000000000000000000000000000815260040161192890615247565b60405180910390fd5b6002600085815260200190815260200160002060020154600260008681526020019081526020016000206004015460026000878152602001908152602001600020600501549250925092509193909250565b60008054906101000a900473ffffffffffffffffffffffffffffffffffffffff1681565b60026020528060005260406000206000915090508060000154908060010154908060020154908060030154908060040154908060050154908060060154908060070160009054906101000a900473ffffffffffffffffffffffffffffffffffffffff16905088565b600080600090505b6007548111611aa6573373ffffffffffffffffffffffffffffffffffffffff166002600083815260200190815260200160002060070160009054906101000a900473ffffffffffffffffffffffffffffffffffffffff1673ffffffffffffffffffffffffffffffffffffffff1603611a93576001915050611aac565b8080611a9e90614db3565b915050611a17565b50600090505b90565b600080600080600854861115611afa576040517f08c379a0000000000000000000000000000000000000000000000000000000008152600401611af1906152b3565b60405180910390fd5b3373ffffffffffffffffffffffffffffffffffffffff166003600088815260200190815260200160002060010160009054906101000a900473ffffffffffffffffffffffffffffffffffffffff1673ffffffffffffffffffffffffffffffffffffffff1614611b9e576040517f08c379a0000000000000000000000000000000000000000000000000000000008152600401611b9590614f8b565b60405180910390fd5b600954851115611be3576040517f08c379a0000000000000000000000000000000000000000000000000000000008152600401611bda906152b3565b60405180910390fd5b85600460008781526020019081526020016000206001015414611c3b576040517f08c379a0000000000000000000000000000000000000000000000000000000008152600401611c329061531f565b60405180910390fd5b84600460008781526020019081526020016000206002015460046000888152602001908152602001600020600301546004600089815260200190815260200160002060040154935093509350935092959194509250565b6000600654821115611cd9576040517f08c379a0000000000000000000000000000000000000000000000000000000008152600401611cd090615097565b60405180910390fd5b600280811115611cec57611ceb6146ad565b5b6001600084815260200190815260200160002060030160009054906101000a900460ff166002811115611d2257611d216146ad565b5b14611d2c57600080fd5b6001600083815260200190815260200160002060030160019054906101000a900473ffffffffffffffffffffffffffffffffffffffff1673ffffffffffffffffffffffffffffffffffffffff163373ffffffffffffffffffffffffffffffffffffffff1614611dd0576040517f08c379a0000000000000000000000000000000000000000000000000000000008152600401611dc79061538b565b60405180910390fd5b60006001600084815260200190815260200160002060030160006101000a81548160ff02191690836002811115611e0a57611e096146ad565b5b021790555060005b600560006001600086815260200190815260200160002060030160019054906101000a900473ffffffffffffffffffffffffffffffffffffffff1673ffffffffffffffffffffffffffffffffffffffff1673ffffffffffffffffffffffffffffffffffffffff168152602001908152602001600020805490508110156125055760005b818110156124f157600560006001600087815260200190815260200160002060030160019054906101000a900473ffffffffffffffffffffffffffffffffffffffff1673ffffffffffffffffffffffffffffffffffffffff1673ffffffffffffffffffffffffffffffffffffffff1681526020019081526020016000208181548110611f2457611f23614984565b5b90600052602060002090600b020160000154600560006001600088815260200190815260200160002060030160019054906101000a900473ffffffffffffffffffffffffffffffffffffffff1673ffffffffffffffffffffffffffffffffffffffff1673ffffffffffffffffffffffffffffffffffffffff1681526020019081526020016000208381548110611fbd57611fbc614984565b5b90600052602060002090600b02016000015410156124de576000600560006001600088815260200190815260200160002060030160019054906101000a900473ffffffffffffffffffffffffffffffffffffffff1673ffffffffffffffffffffffffffffffffffffffff1673ffffffffffffffffffffffffffffffffffffffff168152602001908152602001600020838154811061205e5761205d614984565b5b90600052602060002090600b02016040518061018001604052908160008201548152602001600182015481526020016002820154815260200160038201548152602001600482015481526020016005820154815260200160068201548152602001600782015481526020016008820154815260200160098201548152602001600a820160009054906101000a900460ff16151515158152602001600a820160019054906101000a900473ffffffffffffffffffffffffffffffffffffffff1673ffffffffffffffffffffffffffffffffffffffff1673ffffffffffffffffffffffffffffffffffffffff16815250509050600560006001600088815260200190815260200160002060030160019054906101000a900473ffffffffffffffffffffffffffffffffffffffff1673ffffffffffffffffffffffffffffffffffffffff1673ffffffffffffffffffffffffffffffffffffffff16815260200190815260200160002082815481106121d6576121d5614984565b5b90600052602060002090600b0201600560006001600089815260200190815260200160002060030160019054906101000a900473ffffffffffffffffffffffffffffffffffffffff1673ffffffffffffffffffffffffffffffffffffffff1673ffffffffffffffffffffffffffffffffffffffff168152602001908152602001600020848154811061226b5761226a614984565b5b90600052602060002090600b020160008201548160000155600182015481600101556002820154816002015560038201548160030155600482015481600401556005820154816005015560068201548160060155600782015481600701556008820154816008015560098201548160090155600a820160009054906101000a900460ff1681600a0160006101000a81548160ff021916908315150217905550600a820160019054906101000a900473ffffffffffffffffffffffffffffffffffffffff1681600a0160016101000a81548173ffffffffffffffffffffffffffffffffffffffff021916908373ffffffffffffffffffffffffffffffffffffffff16021790555090505080600560006001600089815260200190815260200160002060030160019054906101000a900473ffffffffffffffffffffffffffffffffffffffff1673ffffffffffffffffffffffffffffffffffffffff1673ffffffffffffffffffffffffffffffffffffffff16815260200190815260200160002083815481106123fc576123fb614984565b5b90600052602060002090600b0201600082015181600001556020820151816001015560408201518160020155606082015181600301556080820151816004015560a0820151816005015560c0820151816006015560e082015181600701556101008201518160080155610120820151816009015561014082015181600a0160006101000a81548160ff02191690831515021790555061016082015181600a0160016101000a81548173ffffffffffffffffffffffffffffffffffffffff021916908373ffffffffffffffffffffffffffffffffffffffff160217905550905050505b80806124e990614db3565b915050611e95565b5080806124fd90614db3565b915050611e12565b5061250e6141d9565b6125166141d9565b61251e6141d9565b60005b600560006001600089815260200190815260200160002060030160019054906101000a900473ffffffffffffffffffffffffffffffffffffffff1673ffffffffffffffffffffffffffffffffffffffff1673ffffffffffffffffffffffffffffffffffffffff168152602001908152602001600020805490508110156128c857600060056000600160008a815260200190815260200160002060030160019054906101000a900473ffffffffffffffffffffffffffffffffffffffff1673ffffffffffffffffffffffffffffffffffffffff1673ffffffffffffffffffffffffffffffffffffffff168152602001908152602001600020828154811061262a57612629614984565b5b90600052602060002090600b02016040518061018001604052908160008201548152602001600182015481526020016002820154815260200160038201548152602001600482015481526020016005820154815260200160068201548152602001600782015481526020016008820154815260200160098201548152602001600a820160009054906101000a900460ff16151515158152602001600a820160019054906101000a900473ffffffffffffffffffffffffffffffffffffffff1673ffffffffffffffffffffffffffffffffffffffff1673ffffffffffffffffffffffffffffffffffffffff168152505090506000151581610140015115150361273257506128b5565b806101200151838260e001516064811061274f5761274e614984565b5b602002018181525050600061277e600160008a8152602001908152602001600020600201548360c0015161373f565b905061278e81836020015161373f565b90508160000151868360e00151606481106127ac576127ab614984565b5b60200201818152505080858360e00151606481106127cd576127cc614984565b5b60200201818152505080600160008a815260200190815260200160002060020160008282546127fc9190614fab565b925050819055508060056000600160008c815260200190815260200160002060030160019054906101000a900473ffffffffffffffffffffffffffffffffffffffff1673ffffffffffffffffffffffffffffffffffffffff1673ffffffffffffffffffffffffffffffffffffffff168152602001908152602001600020848154811061288b5761288a614984565b5b90600052602060002090600b020160010160008282546128ab9190614fab565b9250508190555050505b80806128c090614db3565b915050612521565b5060005b600560006001600089815260200190815260200160002060030160019054906101000a900473ffffffffffffffffffffffffffffffffffffffff1673ffffffffffffffffffffffffffffffffffffffff1673ffffffffffffffffffffffffffffffffffffffff16815260200190815260200160002080549050811015612c2757600060056000600160008a815260200190815260200160002060030160019054906101000a900473ffffffffffffffffffffffffffffffffffffffff1673ffffffffffffffffffffffffffffffffffffffff1673ffffffffffffffffffffffffffffffffffffffff16815260200190815260200160002082815481106129d5576129d4614984565b5b90600052602060002090600b02016040518061018001604052908160008201548152602001600182015481526020016002820154815260200160038201548152602001600482015481526020016005820154815260200160068201548152602001600782015481526020016008820154815260200160098201548152602001600a820160009054906101000a900460ff16151515158152602001600a820160019054906101000a900473ffffffffffffffffffffffffffffffffffffffff1673ffffffffffffffffffffffffffffffffffffffff1673ffffffffffffffffffffffffffffffffffffffff1681525050905060001515816101400151151503612add5750612c14565b6000612b03600160008a815260200190815260200160002060020154836020015161373f565b905080858360e0015160648110612b1d57612b1c614984565b5b60200201818151612b2e9190614b1c565b9150818152505080600160008a81526020019081526020016000206002016000828254612b5b9190614fab565b925050819055508060056000600160008c815260200190815260200160002060030160019054906101000a900473ffffffffffffffffffffffffffffffffffffffff1673ffffffffffffffffffffffffffffffffffffffff1673ffffffffffffffffffffffffffffffffffffffff1681526020019081526020016000208481548110612bea57612be9614984565b5b90600052602060002090600b02016001016000828254612c0a9190614fab565b9250508190555050505b8080612c1f90614db3565b9150506128cc565b506000600190505b6007548111612ffd576000838260648110612c4d57612c4c614984565b5b60200201511115612fea577f389cc4d2b135e7b676a809ad7bacdde1b644b0bbe73afdd545a176ea73b955178682858460648110612c8e57612c8d614984565b5b6020020151878560648110612ca657612ca5614984565b5b6020020151604051612cbb94939291906145ab565b60405180910390a16002600082815260200190815260200160002060070160009054906101000a900473ffffffffffffffffffffffffffffffffffffffff1673ffffffffffffffffffffffffffffffffffffffff166108fc848360648110612d2657612d25614984565b5b6020020151868460648110612d3e57612d3d614984565b5b6020020151612d4d9190614c74565b848460648110612d6057612d5f614984565b5b6020020151612d6f9190614fab565b9081150290604051600060405180830381858888f19350505050612dc8576040517f08c379a0000000000000000000000000000000000000000000000000000000008152600401612dbf9061502b565b60405180910390fd5b6001600087815260200190815260200160002060030160019054906101000a900473ffffffffffffffffffffffffffffffffffffffff1673ffffffffffffffffffffffffffffffffffffffff166108fc848360648110612e2b57612e2a614984565b5b6020020151868460648110612e4357612e42614984565b5b6020020151612e529190614c74565b9081150290604051600060405180830381858888f19350505050612eab576040517f08c379a0000000000000000000000000000000000000000000000000000000008152600401612ea29061502b565b60405180910390fd5b600180811115612ebe57612ebd6146ad565b5b6001600088815260200190815260200160002060010160009054906101000a900460ff166001811115612ef457612ef36146ad565b5b03612f4257828160648110612f0c57612f0b614984565b5b6020020151600260008381526020019081526020016000206004016000828254612f369190614b1c565b92505081905550612fe0565b60006001811115612f5657612f556146ad565b5b6001600088815260200190815260200160002060010160009054906101000a900460ff166001811115612f8c57612f8b6146ad565b5b03612fda57828160648110612fa457612fa3614984565b5b6020020151600260008381526020019081526020016000206002016000828254612fce9190614b1c565b92505081905550612fdf565b600080fd5b5b612fe981614114565b5b8080612ff590614db3565b915050612c2f565b505b6000600560006001600089815260200190815260200160002060030160019054906101000a900473ffffffffffffffffffffffffffffffffffffffff1673ffffffffffffffffffffffffffffffffffffffff1673ffffffffffffffffffffffffffffffffffffffff1681526020019081526020016000208054905011156131ae57600560006001600088815260200190815260200160002060030160019054906101000a900473ffffffffffffffffffffffffffffffffffffffff1673ffffffffffffffffffffffffffffffffffffffff1673ffffffffffffffffffffffffffffffffffffffff168152602001908152602001600020805480613105576131046153ab565b5b60019003818190600052602060002090600b0201600080820160009055600182016000905560028201600090556003820160009055600482016000905560058201600090556006820160009055600782016000905560088201600090556009820160009055600a820160006101000a81549060ff0219169055600a820160016101000a81549073ffffffffffffffffffffffffffffffffffffffff021916905550509055612fff565b429350505050919050565b60008173ffffffffffffffffffffffffffffffffffffffff163373ffffffffffffffffffffffffffffffffffffffff1614613229576040517f08c379a0000000000000000000000000000000000000000000000000000000008152600401613220906151db565b60405180910390fd5b6008600081548092919061323c90614db3565b9190505550604051806040016040528060085481526020018373ffffffffffffffffffffffffffffffffffffffff168152506003600060085481526020019081526020016000206000820151816000015560208201518160010160006101000a81548173ffffffffffffffffffffffffffffffffffffffff021916908373ffffffffffffffffffffffffffffffffffffffff1602179055509050506008549050919050565b6000600754905090565b60036020528060005260406000206000915090508060000154908060010160009054906101000a900473ffffffffffffffffffffffffffffffffffffffff16905082565b60006001851115613375576040517f08c379a000000000000000000000000000000000000000000000000000000000815260040161336c90615426565b60405180910390fd5b8273ffffffffffffffffffffffffffffffffffffffff163373ffffffffffffffffffffffffffffffffffffffff16146133e3576040517f08c379a00000000000000000000000000000000000000000000000000000000081526004016133da906151db565b60405180910390fd5b600660008154809291906133f690614db3565b91905055506000600190506001860361340e57600090505b6040518061010001604052806006548152602001826001811115613435576134346146ad565b5b815260200186815260200160006002811115613454576134536146ad565b5b81526020018573ffffffffffffffffffffffffffffffffffffffff1681526020018481526020016000815260200160008152506001600060065481526020019081526020016000206000820151816000015560208201518160010160006101000a81548160ff021916908360018111156134d1576134d06146ad565b5b02179055506040820151816002015560608201518160030160006101000a81548160ff0219169083600281111561350b5761350a6146ad565b5b021790555060808201518160030160016101000a81548173ffffffffffffffffffffffffffffffffffffffff021916908373ffffffffffffffffffffffffffffffffffffffff16021790555060a0820151816004015560c0820151816005015560e08201518160060155905050600654915050949350505050565b60016020528060005260406000206000915090508060000154908060010160009054906101000a900460ff16908060020154908060030160009054906101000a900460ff16908060030160019054906101000a900473ffffffffffffffffffffffffffffffffffffffff16908060040154908060050154908060060154905088565b600060065483111561364f576040517f08c379a0000000000000000000000000000000000000000000000000000000008152600401613646906148f8565b60405180910390fd5b3373ffffffffffffffffffffffffffffffffffffffff166001600085815260200190815260200160002060030160019054906101000a900473ffffffffffffffffffffffffffffffffffffffff1673ffffffffffffffffffffffffffffffffffffffff16146136f3576040517f08c379a00000000000000000000000000000000000000000000000000000000081526004016136ea90614f8b565b60405180910390fd5b816001600085815260200190815260200160002060020160008282546137199190614b1c565b925050819055506001600084815260200190815260200160002060020154905092915050565b60008183101561374f5782613751565b815b905092915050565b60006007548611156137a0576040517f08c379a0000000000000000000000000000000000000000000000000000000008152600401613797906148f8565b60405180910390fd5b6006548511156137e5576040517f08c379a00000000000000000000000000000000000000000000000000000000081526004016137dc906148f8565b60405180910390fd5b6002600087815260200190815260200160002060070160009054906101000a900473ffffffffffffffffffffffffffffffffffffffff1673ffffffffffffffffffffffffffffffffffffffff163373ffffffffffffffffffffffffffffffffffffffff1614613889576040517f08c379a000000000000000000000000000000000000000000000000000000000815260040161388090614f8b565b60405180910390fd5b6000600181111561389d5761389c6146ad565b5b6001600087815260200190815260200160002060010160009054906101000a900460ff1660018111156138d3576138d26146ad565b5b036139355784600260008881526020019081526020016000206001015414613930576040517f08c379a000000000000000000000000000000000000000000000000000000000815260040161392790615492565b60405180910390fd5b61398e565b8460026000888152602001908152602001600020600301541461398d576040517f08c379a000000000000000000000000000000000000000000000000000000000815260040161398490615492565b60405180910390fd5b5b6001600086815260200190815260200160002060040154600160008781526020019081526020016000206005015411156139fd576040517f08c379a00000000000000000000000000000000000000000000000000000000081526004016139f4906154fe565b60405180910390fd5b6000600180811115613a1257613a116146ad565b5b6001600088815260200190815260200160002060010160009054906101000a900460ff166001811115613a4857613a476146ad565b5b03613aa85760006002600089815260200190815260200160002060030154905060026000898152602001908152602001600020600401546001600083815260200190815260200160002060020154613aa09190614b1c565b915050613aff565b60006002600089815260200190815260200160002060010154905060026000898152602001908152602001600020600201546001600083815260200190815260200160002060020154613afb9190614b1c565b9150505b600560006001600089815260200190815260200160002060030160019054906101000a900473ffffffffffffffffffffffffffffffffffffffff1673ffffffffffffffffffffffffffffffffffffffff1673ffffffffffffffffffffffffffffffffffffffff1681526020019081526020016000206040518061018001604052806000815260200160008152602001600081526020018781526020018681526020018581526020018381526020018981526020018881526020013481526020016000151581526020013373ffffffffffffffffffffffffffffffffffffffff1681525090806001815401808255809150506001900390600052602060002090600b0201600090919091909150600082015181600001556020820151816001015560408201518160020155606082015181600301556080820151816004015560a0820151816005015560c0820151816006015560e082015181600701556101008201518160080155610120820151816009015561014082015181600a0160006101000a81548160ff02191690831515021790555061016082015181600a0160016101000a81548173ffffffffffffffffffffffffffffffffffffffff021916908373ffffffffffffffffffffffffffffffffffffffff160217905550505060018060008881526020019081526020016000206005016000828254613d029190614b1c565b925050819055507f8a06846852690683a485d2a83db8d92c70d8aaaf4693c2c3b223705fb4c916278787878787604051613d4095949392919061552d565b60405180910390a18091505095945050505050565b6000600854905090565b6000600654821115613da6576040517f08c379a0000000000000000000000000000000000000000000000000000000008152600401613d9d90615097565b60405180910390fd5b60016002811115613dba57613db96146ad565b5b6001600084815260200190815260200160002060030160009054906101000a900460ff166002811115613df057613def6146ad565b5b14613dfa57600080fd5b6001600083815260200190815260200160002060030160019054906101000a900473ffffffffffffffffffffffffffffffffffffffff1673ffffffffffffffffffffffffffffffffffffffff163373ffffffffffffffffffffffffffffffffffffffff1614613e9e576040517f08c379a0000000000000000000000000000000000000000000000000000000008152600401613e959061538b565b60405180910390fd5b60026001600084815260200190815260200160002060030160006101000a81548160ff02191690836002811115613ed857613ed76146ad565b5b02179055507f69544aaad545cf5ab110398ad6cac7ee4773f2f30c068350793e6cf82805d70f8242604051613f0e929190615580565b60405180910390a1429050919050565b6000600654821115613f65576040517f08c379a0000000000000000000000000000000000000000000000000000000008152600401613f5c90615097565b60405180910390fd5b60006002811115613f7957613f786146ad565b5b6001600084815260200190815260200160002060030160009054906101000a900460ff166002811115613faf57613fae6146ad565b5b14613fb957600080fd5b6001600083815260200190815260200160002060030160019054906101000a900473ffffffffffffffffffffffffffffffffffffffff1673ffffffffffffffffffffffffffffffffffffffff163373ffffffffffffffffffffffffffffffffffffffff161461405d576040517f08c379a00000000000000000000000000000000000000000000000000000000081526004016140549061538b565b60405180910390fd5b600180600084815260200190815260200160002060030160006101000a81548160ff02191690836002811115614096576140956146ad565b5b021790555060006001600084815260200190815260200160002060050181905550600060016000848152602001908152602001600020600601819055507f97f3c1cfc906cded5a31e7f64d905dd3bce10ac469b77d540f9b6f7fd0267ed88242604051614104929190615580565b60405180910390a1429050919050565b600061414c6002600084815260200190815260200160002060040154600260008581526020019081526020016000206002015461373f565b9050806002600084815260200190815260200160002060040160008282546141749190614fab565b92505081905550806002600084815260200190815260200160002060020160008282546141a19190614fab565b92505081905550806002600084815260200190815260200160002060050160008282546141ce9190614b1c565b925050819055505050565b60405180610c800160405280606490602082028036833780820191505090505090565b6000819050919050565b61420f816141fc565b82525050565b600060208201905061422a6000830184614206565b92915050565b600080fd5b61423e816141fc565b811461424957600080fd5b50565b60008135905061425b81614235565b92915050565b600080600080600060a0868803121561427d5761427c614230565b5b600061428b8882890161424c565b955050602061429c8882890161424c565b94505060406142ad8882890161424c565b93505060606142be8882890161424c565b92505060806142cf8882890161424c565b9150509295509295909350565b60008115159050919050565b6142f1816142dc565b82525050565b600060208201905061430c60008301846142e8565b92915050565b6000806000806080858703121561432c5761432b614230565b5b600061433a8782880161424c565b945050602061434b8782880161424c565b935050604061435c8782880161424c565b925050606061436d8782880161424c565b91505092959194509250565b600073ffffffffffffffffffffffffffffffffffffffff82169050919050565b60006143a482614379565b9050919050565b6143b481614399565b81146143bf57600080fd5b50565b6000813590506143d1816143ab565b92915050565b600080600080608085870312156143f1576143f0614230565b5b60006143ff878288016143c2565b94505060206144108782880161424c565b93505060406144218782880161424c565b92505060606144328782880161424c565b91505092959194509250565b60006020828403121561445457614453614230565b5b60006144628482850161424c565b91505092915050565b60006060820190506144806000830186614206565b61448d6020830185614206565b61449a6040830184614206565b949350505050565b6144ab81614399565b82525050565b60006020820190506144c660008301846144a2565b92915050565b60006144d782614379565b9050919050565b6144e7816144cc565b82525050565b600061010082019050614503600083018b614206565b614510602083018a614206565b61451d6040830189614206565b61452a6060830188614206565b6145376080830187614206565b61454460a0830186614206565b61455160c0830185614206565b61455e60e08301846144de565b9998505050505050505050565b6000806040838503121561458257614581614230565b5b60006145908582860161424c565b92505060206145a18582860161424c565b9150509250929050565b60006080820190506145c06000830187614206565b6145cd6020830186614206565b6145da6040830185614206565b6145e76060830184614206565b95945050505050565b60006020828403121561460657614605614230565b5b6000614614848285016143c2565b91505092915050565b60006040820190506146326000830185614206565b61463f60208301846144de565b9392505050565b600080600080608085870312156146605761465f614230565b5b600061466e8782880161424c565b945050602061467f8782880161424c565b9350506040614690878288016143c2565b92505060606146a18782880161424c565b91505092959194509250565b7f4e487b7100000000000000000000000000000000000000000000000000000000600052602160045260246000fd5b600281106146ed576146ec6146ad565b5b50565b60008190506146fe826146dc565b919050565b600061470e826146f0565b9050919050565b61471e81614703565b82525050565b60038110614735576147346146ad565b5b50565b600081905061474682614724565b919050565b600061475682614738565b9050919050565b6147668161474b565b82525050565b600061010082019050614782600083018b614206565b61478f602083018a614715565b61479c6040830189614206565b6147a9606083018861475d565b6147b660808301876144de565b6147c360a0830186614206565b6147d060c0830185614206565b6147dd60e0830184614206565b9998505050505050505050565b6000819050919050565b6147fd816147ea565b811461480857600080fd5b50565b60008135905061481a816147f4565b92915050565b600080600080600060a0868803121561483c5761483b614230565b5b600061484a8882890161424c565b955050602061485b8882890161424c565b945050604061486c8882890161480b565b935050606061487d8882890161480b565b925050608061488e8882890161480b565b9150509295509295909350565b600082825260208201905092915050565b7f496e76616c696420494400000000000000000000000000000000000000000000600082015250565b60006148e2600a8361489b565b91506148ed826148ac565b602082019050919050565b60006020820190508181036000830152614911816148d5565b9050919050565b7f52657665616c207068617365206e6f7420676f696e67206f6e00000000000000600082015250565b600061494e60198361489b565b915061495982614918565b602082019050919050565b6000602082019050818103600083015261497d81614941565b9050919050565b7f4e487b7100000000000000000000000000000000000000000000000000000000600052603260045260246000fd5b7f42696420616c72656164792072657665616c6564000000000000000000000000600082015250565b60006149e960148361489b565b91506149f4826149b3565b602082019050919050565b60006020820190508181036000830152614a18816149dc565b9050919050565b6000819050919050565b614a3a614a35826141fc565b614a1f565b82525050565b6000614a4c8284614a29565b60208201915081905092915050565b7f496e636f7272656374206b6579202d2d206b656570696e6720796f7572206d6f60008201527f6e65790000000000000000000000000000000000000000000000000000000000602082015250565b6000614ab760238361489b565b9150614ac282614a5b565b604082019050919050565b60006020820190508181036000830152614ae681614aaa565b9050919050565b7f4e487b7100000000000000000000000000000000000000000000000000000000600052601160045260246000fd5b6000614b27826141fc565b9150614b32836141fc565b9250828201905080821115614b4a57614b49614aed565b5b92915050565b7f496e636f7272656374207072696365202d2d206b656570696e6720796f75722060008201527f6d6f6e6579000000000000000000000000000000000000000000000000000000602082015250565b6000614bac60258361489b565b9150614bb782614b50565b604082019050919050565b60006020820190508181036000830152614bdb81614b9f565b9050919050565b7f496e636f7272656374207175616e74697479202d2d206b656570696e6720796f60008201527f7572206d6f6e6579000000000000000000000000000000000000000000000000602082015250565b6000614c3e60288361489b565b9150614c4982614be2565b604082019050919050565b60006020820190508181036000830152614c6d81614c31565b9050919050565b6000614c7f826141fc565b9150614c8a836141fc565b9250817fffffffffffffffffffffffffffffffffffffffffffffffffffffffffffffffff0483118215151615614cc357614cc2614aed565b5b828202905092915050565b7f496e73756666696369656e742066756e64732073656e74202d2d206b6565706960008201527f6e6720796f7572206d6f6e657900000000000000000000000000000000000000602082015250565b6000614d2a602d8361489b565b9150614d3582614cce565b604082019050919050565b60006020820190508181036000830152614d5981614d1d565b9050919050565b600060a082019050614d756000830188614206565b614d826020830187614206565b614d8f6040830186614206565b614d9c6060830185614206565b614da96080830184614206565b9695505050505050565b6000614dbe826141fc565b91507fffffffffffffffffffffffffffffffffffffffffffffffffffffffffffffffff8203614df057614def614aed565b5b600182019050919050565b7f496e76616c696420637573746f6d657200000000000000000000000000000000600082015250565b6000614e3160108361489b565b9150614e3c82614dfb565b602082019050919050565b60006020820190508181036000830152614e6081614e24565b9050919050565b7f436f737420697320686967686572000000000000000000000000000000000000600082015250565b6000614e9d600e8361489b565b9150614ea882614e67565b602082019050919050565b60006020820190508181036000830152614ecc81614e90565b9050919050565b7f496e73756666696369656e742066756e64732073656e74000000000000000000600082015250565b6000614f0960178361489b565b9150614f1482614ed3565b602082019050919050565b60006020820190508181036000830152614f3881614efc565b9050919050565b7f496e636f72726563742049440000000000000000000000000000000000000000600082015250565b6000614f75600c8361489b565b9150614f8082614f3f565b602082019050919050565b60006020820190508181036000830152614fa481614f68565b9050919050565b6000614fb6826141fc565b9150614fc1836141fc565b9250828203905081811115614fd957614fd8614aed565b5b92915050565b7f5472616e73616374696f6e206661696c65640000000000000000000000000000600082015250565b600061501560128361489b565b915061502082614fdf565b602082019050919050565b6000602082019050818103600083015261504481615008565b9050919050565b7f496e76616c696420737570706c69657221000000000000000000000000000000600082015250565b600061508160118361489b565b915061508c8261504b565b602082019050919050565b600060208201905081810360008301526150b081615074565b9050919050565b7f537570706c69657220646f65736e277420737570706c20626f64790000000000600082015250565b60006150ed601b8361489b565b91506150f8826150b7565b602082019050919050565b6000602082019050818103600083015261511c816150e0565b9050919050565b7f537570706c69657220646f65736e277420737570706c20776865656c73000000600082015250565b6000615159601d8361489b565b915061516482615123565b602082019050919050565b600060208201905081810360008301526151888161514c565b9050919050565b7f496e76616c6964207369676e2075700000000000000000000000000000000000600082015250565b60006151c5600f8361489b565b91506151d08261518f565b602082019050919050565b600060208201905081810360008301526151f4816151b8565b9050919050565b7f5065726d697373696f6e2064656e696564000000000000000000000000000000600082015250565b600061523160118361489b565b915061523c826151fb565b602082019050919050565b6000602082019050818103600083015261526081615224565b9050919050565b7f496e76616c696420636172000000000000000000000000000000000000000000600082015250565b600061529d600b8361489b565b91506152a882615267565b602082019050919050565b600060208201905081810360008301526152cc81615290565b9050919050565b7f4e6f7420796f7572206361722100000000000000000000000000000000000000600082015250565b6000615309600d8361489b565b9150615314826152d3565b602082019050919050565b60006020820190508181036000830152615338816152fc565b9050919050565b7f496e636f72726563742074616700000000000000000000000000000000000000600082015250565b6000615375600d8361489b565b91506153808261533f565b602082019050919050565b600060208201905081810360008301526153a481615368565b9050919050565b7f4e487b7100000000000000000000000000000000000000000000000000000000600052603160045260246000fd5b7f496e76616c696420706172742074797065210000000000000000000000000000600082015250565b600061541060128361489b565b915061541b826153da565b602082019050919050565b6000602082019050818103600083015261543f81615403565b9050919050565b7f496e636f727265637420737570706c6965720000000000000000000000000000600082015250565b600061547c60128361489b565b915061548782615446565b602082019050919050565b600060208201905081810360008301526154ab8161546f565b9050919050565b7f4d61782062696473207265636965766564000000000000000000000000000000600082015250565b60006154e860118361489b565b91506154f3826154b2565b602082019050919050565b60006020820190508181036000830152615517816154db565b9050919050565b615527816147ea565b82525050565b600060a0820190506155426000830188614206565b61554f6020830187614206565b61555c604083018661551e565b615569606083018561551e565b615576608083018461551e565b9695505050505050565b60006040820190506155956000830185614206565b6155a26020830184614206565b939250505056fea26469706673582212207fc58882b0fdcb95b0f151042a184b9ccb453b385d2090bc62750acabcd8478964736f6c63430008100033",
  "immutableReferences": {},
  "source": "// SPDX-License-Identifier: MIT\npragma solidity >=0.8.16;\npragma experimental ABIEncoderV2;\n\n// @title New Market Place\n// @author Kunal Jain, P. Sahithi Reddy, Prince Varshney\n// @notice Market place implementation\ncontract NewMarketPlace {\n    // @dev Enum for the state of the auction the supplier is in\n    // @dev NOT_RUNNING : Auction is not running right now\n    // @dev BIDDING : Bidding phase of auction is going on\n    // @dev REVEALING : Reveal phase of auction is going on\n    enum AuctionState {\n        NOT_RUNNING,\n        BIDDING,\n        REVEALING\n    }\n\n    // @dev Enum for the part type\n    enum PartType {\n        WHEEL,\n        BODY\n    }\n\n    // @dev Stores the details of the supplier\n    struct Supplier {\n        uint256 tag;\n        PartType partType; // part type they are selling\n        uint256 quantityAvailable; // quantity of the part available\n        AuctionState currentState; // currest state of the auction\n        address wallet; // wallet address\n        uint256 maxBidders; // max bidders that can participate in the auction\n        uint256 bidsPlaced; // bids that have been placed\n        uint256 bidsRevealed; // bids that have been revealed\n    }\n\n    function isSupplier() public view returns (bool){\n        for(uint256 i=0;i<=num_supplier;i++){\n            if(suppliers[i].wallet == msg.sender) return true;\n        }\n        return false;\n    }\n    // @dev Stores the details of the manufacturer\n    struct Manufacturer {\n        uint256 tag;\n        uint256 wheelSupplier; // tag of supplier who supplies wheels\n        uint256 wheelQuant; // number of wheels\n        uint256 bodySupplier; // tag of supplier who supplies body\n        uint256 bodyQuant; // number of bodies\n        uint256 carsAvailable; // number of cars available\n        uint256 carPrice; // price of the cars\n        address wallet; // wallet address\n    }\n\n    function isManufacturer() public view returns (bool){\n        for(uint256 i=0;i<=num_manufacturer;i++){\n            if(manufacturers[i].wallet == msg.sender) return true;\n        }\n        return false;\n    }\n\n    // @dev Stores the details of the cars sold\n    struct Car {\n        uint256 tag;\n        uint256 customerID;\n        uint256 manufacturerID;\n        uint256 wheelSupID;\n        uint256 bodySupID;\n    }\n\n    // @dev Stores the detail of the customer\n    struct Customer {\n        uint256 tag;\n        address wallet;\n    }\n\n    // @dev stores the details of the bids\n    struct Bid {\n        uint256 actualPrice;\n        uint256 actualQuantity;\n        uint256 actualKey;\n        bytes32 blindPrice;\n        bytes32 blindQuantity;\n        bytes32 blindKey;\n        uint256 limitingQuantity;\n        uint256 buyerID;\n        uint256 sellerID;\n        uint256 moneySent;\n        bool correctReveal;\n        address payable bidderAddress;\n    }\n\n    // @dev wallet address of the contract owner\n    address payable public owner;\n\n    mapping(uint256 => Supplier) public suppliers;\n    mapping(uint256 => Manufacturer) public manufacturers;\n    mapping(uint256 => Customer) public customers;\n    mapping(uint256 => Car) cars;\n    mapping(address => Bid[]) bidsTillNow;\n\n    uint256 num_supplier;\n    uint256 num_manufacturer;\n    uint256 num_customer;\n    uint256 num_cars;\n\n    // @notice Triggered when a supplier starts their bidding phase\n    // @param tag Tag of the supplier\n    // @param timestamp Block height when bidding phase starts\n    event StartSupplierBidding(uint256 tag, uint256 timestamp);\n\n    // @notice Triggered when a supplier starts their reveal phase\n    // @param tag Tag of the supplier\n    // @param timestamp Block height when reveal phase starts\n    event StartSupplierReveal(uint256 tag, uint256 timestamp);\n\n    // @notice Triggered when a supplier suppliers parts to a manufacturer\n    // @param supplierID Tag of the supplier\n    // @param manufacturerID Tag of the manufacturer\n    // @param quantity Quantities supplier\n    // @param price Price per unit\n    event AllocateFromSupplier(\n        uint256 supplierID,\n        uint256 manufacturerID,\n        uint256 quantity,\n        uint256 price\n    );\n\n    // @notice Triggered when a manufacturer places a bid\n    // @param manufacturerID Tag of the manufacturer\n    // @param supplierID Tag of the supplier\n    // @param blindPrice Hash of (Price + Key)\n    // @param blindQuantity Hash of (Quantity + Key)\n    // @param blindKey Hash of Key\n    event ManufacturerBids(\n        uint256 manufacturerID,\n        uint256 supplierID,\n        bytes32 blindPrice,\n        bytes32 blindQuantity,\n        bytes32 blindKey\n    );\n\n    // @notice Triggered when a manufacturer reveals a bid\n    // @param manufacturerID Tag of the manufacturer\n    // @param supplierID Tag of the supplier\n    // @param actualPrice Price per quantity offered in the bid\n    // @param actualQuantity Quantity requested in the bid\n    // @param actualKey Key used to hide the bid\n    event ManufacturerReveal(\n        uint256 manufacturerID,\n        uint256 supplierID,\n        uint256 actualPrice,\n        uint256 actualQuantity,\n        uint256 actualKey\n    );\n\n    // @notice Triggered when a car is sold by the manufacturer to a customer\n    // @param carID Tag of the car sold\n    // @param manufacturerID Tag of the manufacturer\n    // @param customerID Tag of the customer\n    event CarSold(uint256 carID, uint256 manufacturerID, uint256 customerID);\n\n    constructor() {\n        num_cars = 0;\n        num_customer = 0;\n        num_manufacturer = 0;\n        num_supplier = 0;\n        owner = payable(msg.sender);\n    }\n\n    // @dev Function to find the minumum of 2 unsigned integers\n    function minimum(uint256 a, uint256 b) public pure returns (uint256) {\n        return a >= b ? b : a;\n    }\n\n    // @notice Function to start bidding of a supplier\n    // @dev Triggeers StartSupplierBidding event\n    // @param tag Tag of the supplier\n    // @return uint256 Block height when the bidding starts\n    function supplierStartBidding(uint256 tag) public returns (uint256) {\n        require(tag <= num_supplier, \"Invalid supplier!\");\n        require(suppliers[tag].currentState == AuctionState.NOT_RUNNING);\n        require(msg.sender == suppliers[tag].wallet, \"Incorrect tag\");\n        suppliers[tag].currentState = AuctionState.BIDDING;\n        suppliers[tag].bidsPlaced = 0;\n        suppliers[tag].bidsRevealed = 0;\n        emit StartSupplierBidding(tag, block.timestamp);\n        return block.timestamp;\n    }\n\n    // @notice Function to start reveal of a supplier\n    // @dev Triggeers StartSupplierReveal event\n    // @param tag Tag of the supplier\n    // @return uint256 Block height when the reveal starts\n    function supplierStartReveal(uint256 tag) public returns (uint256) {\n        require(tag <= num_supplier, \"Invalid supplier!\");\n        require(suppliers[tag].currentState == AuctionState.BIDDING);\n        require(msg.sender == suppliers[tag].wallet, \"Incorrect tag\");\n        suppliers[tag].currentState = AuctionState.REVEALING;\n        emit StartSupplierReveal(tag, block.timestamp);\n        return block.timestamp;\n    }\n\n    // @notice Function to end the auction of a supplier\n    // @dev Triggers AllocateFromSupplier and back payments on bids\n    // @param tag Tag of the supplier\n    // @return uint256 Block height when the auction ends\n    function supplierEndAuction(uint256 tag) public returns (uint256) {\n        require(tag <= num_supplier, \"Invalid supplier!\");\n        require(suppliers[tag].currentState == AuctionState.REVEALING);\n        require(msg.sender == suppliers[tag].wallet, \"Incorrect tag\");\n        suppliers[tag].currentState = AuctionState.NOT_RUNNING;\n\n        // bubble sorting the bids\n        for (\n            uint256 i = 0;\n            i < bidsTillNow[suppliers[tag].wallet].length;\n            i++\n        ) {\n            for (uint256 j = 0; j < i; j++)\n                if (\n                    bidsTillNow[suppliers[tag].wallet][i].actualPrice <\n                    bidsTillNow[suppliers[tag].wallet][j].actualPrice\n                ) {\n                    Bid memory x = bidsTillNow[suppliers[tag].wallet][i];\n                    bidsTillNow[suppliers[tag].wallet][i] = bidsTillNow[\n                        suppliers[tag].wallet\n                    ][j];\n                    bidsTillNow[suppliers[tag].wallet][j] = x;\n                }\n        }\n\n        // the allocations\n        uint256[100] memory allocatingPrices;\n        uint256[100] memory allocatingQuantities;\n        uint256[100] memory moneySentWithBid;\n\n        // optimal resource allocation\n        for (\n            uint256 i = 0;\n            i < bidsTillNow[suppliers[tag].wallet].length;\n            i++\n        ) {\n            Bid memory bid = bidsTillNow[suppliers[tag].wallet][i];\n            if (bid.correctReveal == false) continue;\n\n            moneySentWithBid[bid.buyerID] = bid.moneySent;\n\n            uint256 allocatingHere = minimum(\n                suppliers[tag].quantityAvailable,\n                bid.limitingQuantity\n            );\n            allocatingHere = minimum(allocatingHere, bid.actualQuantity);\n\n            allocatingPrices[bid.buyerID] = bid.actualPrice;\n            allocatingQuantities[bid.buyerID] = allocatingHere;\n            suppliers[tag].quantityAvailable -= allocatingHere;\n            bidsTillNow[suppliers[tag].wallet][i]\n                .actualQuantity -= allocatingHere;\n        }\n\n        // allocating to maximize profit\n        for (\n            uint256 i = 0;\n            i < bidsTillNow[suppliers[tag].wallet].length;\n            i++\n        ) {\n            Bid memory bid = bidsTillNow[suppliers[tag].wallet][i];\n            if (bid.correctReveal == false) continue;\n            uint256 allocatingHere = minimum(\n                suppliers[tag].quantityAvailable,\n                bid.actualQuantity\n            );\n\n            allocatingQuantities[bid.buyerID] += allocatingHere;\n            suppliers[tag].quantityAvailable -= allocatingHere;\n            bidsTillNow[suppliers[tag].wallet][i]\n                .actualQuantity -= allocatingHere;\n        }\n\n        // emit all allocations\n        for (uint256 i = 1; i <= num_manufacturer; i++)\n            if (allocatingQuantities[i] > 0) {\n                emit AllocateFromSupplier(\n                    tag,\n                    i,\n                    allocatingQuantities[i],\n                    allocatingPrices[i]\n                );\n                // non bid money to manufacturer\n                require(\n                    payable(manufacturers[i].wallet).send(\n                        moneySentWithBid[i] -\n                            allocatingPrices[i] *\n                            allocatingQuantities[i]\n                    ),\n                    \"Transaction failed\"\n                );\n                // bid money to supplier\n                require(\n                    payable(suppliers[tag].wallet).send(\n                        allocatingPrices[i] * allocatingQuantities[i]\n                    ),\n                    \"Transaction failed\"\n                );\n                //update all the manufacturers quanitites to make cars\n                if (suppliers[tag].partType == PartType.BODY) {\n                    manufacturers[i].bodyQuant += allocatingQuantities[i];\n                } else if (suppliers[tag].partType == PartType.WHEEL) {\n                    manufacturers[i].wheelQuant += allocatingQuantities[i];\n                } else revert();\n                updateManufacturerCars(i);\n            }\n        while (bidsTillNow[suppliers[tag].wallet].length > 0)\n            bidsTillNow[suppliers[tag].wallet].pop();\n\n        return block.timestamp;\n    }\n\n    // @dev Updates the cars of a manufacturer based on the quantities of parts it has\n    function updateManufacturerCars(uint256 tag) private {\n        uint256 carsMade = minimum(\n            manufacturers[tag].bodyQuant,\n            manufacturers[tag].wheelQuant\n        );\n        manufacturers[tag].bodyQuant -= carsMade;\n        manufacturers[tag].wheelQuant -= carsMade;\n        manufacturers[tag].carsAvailable += carsMade;\n    }\n\n    // @notice Function for manufacturers to place bids\n    // @dev Triggers ManufacturerBids event\n    // @param manufacturerID Tag of the manufacturer\n    // @param supplierID Tag of the supplier\n    // @param blindPrice Price per unit hidden using the key and SHA256 encryption\n    // @param blindQuantity Quantities requested hidden using the key and SHA256 encryption\n    // @param blindKey Key used to hide the price and quantity\n    // @return limitingQuantity Liming quantity of the manufacturer for optimal resource allocation\n    function manufacturerPlacesBid(\n        uint256 manufacturerID,\n        uint256 supplierID,\n        bytes32 blindPrice,\n        bytes32 blindQuantity,\n        bytes32 blindKey\n    ) public payable returns (uint256 limitingQuantity) {\n        require(manufacturerID <= num_manufacturer, \"Invalid ID\");\n        require(supplierID <= num_supplier, \"Invalid ID\");\n        require(\n            msg.sender == manufacturers[manufacturerID].wallet,\n            \"Incorrect ID\"\n        );\n        if (suppliers[supplierID].partType == PartType.WHEEL) {\n            require(\n                manufacturers[manufacturerID].wheelSupplier == supplierID,\n                \"Incorrect supplier\"\n            );\n        } else {\n            require(\n                manufacturers[manufacturerID].bodySupplier == supplierID,\n                \"Incorrect supplier\"\n            );\n        }\n        require(\n            suppliers[supplierID].bidsPlaced <=\n                suppliers[supplierID].maxBidders,\n            \"Max bids recieved\"\n        );\n        uint256 limiting;\n        if (suppliers[supplierID].partType == PartType.BODY) {\n            uint256 bodySupplier = manufacturers[manufacturerID].bodySupplier;\n            limiting =\n                suppliers[bodySupplier].quantityAvailable +\n                manufacturers[manufacturerID].bodyQuant;\n        } else {\n            uint256 wheelSupplier = manufacturers[manufacturerID].wheelSupplier;\n            limiting =\n                suppliers[wheelSupplier].quantityAvailable +\n                manufacturers[manufacturerID].wheelQuant;\n        }\n        bidsTillNow[suppliers[supplierID].wallet].push(\n            Bid(\n                0,\n                0,\n                0,\n                blindPrice,\n                blindQuantity,\n                blindKey,\n                limiting,\n                manufacturerID,\n                supplierID,\n                msg.value,\n                false,\n                payable(msg.sender)\n            )\n        );\n        suppliers[supplierID].bidsPlaced += 1;\n        emit ManufacturerBids(\n            manufacturerID,\n            supplierID,\n            blindPrice,\n            blindQuantity,\n            blindKey\n        );\n        return limiting;\n    }\n\n    // @notice Function for manufacturers to reveal bids\n    // @dev Triggers ManufacturerReveal event\n    // @param manufacturerID Tag of the manufacturer\n    // @param supplierID Tag of the supplier\n    // @param actualPrice Price per unit\n    // @param actualQuantity Quantities requested\n    // @param actualKey Key used to hide the price and quantity\n    // @return bool Reveal was valid or not\n    function manufacturerRevealsBid(\n        uint256 manufacturerID,\n        uint256 supplierID,\n        uint256 actualPrice,\n        uint256 actualQuantity,\n        uint256 actualKey\n    ) public returns (bool) {\n        require(manufacturerID <= num_manufacturer, \"Invalid ID\");\n        require(supplierID <= num_supplier, \"Invalid ID\");\n        require(\n            suppliers[supplierID].currentState == AuctionState.REVEALING,\n            \"Reveal phase not going on\"\n        );\n        require(\n            manufacturers[manufacturerID].wallet == msg.sender,\n            \"Invalid ID\"\n        );\n        for (\n            uint256 i = 0;\n            i < bidsTillNow[suppliers[supplierID].wallet].length;\n            i++\n        ) {\n            if (\n                bidsTillNow[suppliers[supplierID].wallet][i].buyerID !=\n                manufacturerID\n            ) continue;\n            Bid memory bid = bidsTillNow[suppliers[supplierID].wallet][i];\n            require(bid.correctReveal == false, \"Bid already revealed\");\n            require(\n                keccak256(abi.encodePacked(actualKey)) == bid.blindKey,\n                \"Incorrect key -- keeping your money\"\n            );\n            require(\n                keccak256(abi.encodePacked(actualKey + actualPrice)) ==\n                    bid.blindPrice,\n                \"Incorrect price -- keeping your money\"\n            );\n            require(\n                keccak256(abi.encodePacked(actualKey + actualQuantity)) ==\n                    bid.blindQuantity,\n                \"Incorrect quantity -- keeping your money\"\n            );\n            uint256 effectivePrice = actualPrice * actualQuantity;\n            require(\n                effectivePrice < bid.moneySent,\n                \"Insufficient funds sent -- keeping your money\"\n            );\n            bidsTillNow[suppliers[supplierID].wallet][i].correctReveal = true;\n            bidsTillNow[suppliers[supplierID].wallet][i]\n                .actualPrice = actualPrice;\n            bidsTillNow[suppliers[supplierID].wallet][i]\n                .actualQuantity = actualQuantity;\n            bidsTillNow[suppliers[supplierID].wallet][i].actualKey = actualKey;\n            suppliers[supplierID].bidsRevealed += 1;\n            emit ManufacturerReveal(\n                manufacturerID,\n                supplierID,\n                actualPrice,\n                actualQuantity,\n                actualKey\n            );\n            return true;\n        }\n        return false;\n    }\n\n    // @notice Function for customers to buy cars\n    // @dev Triggers CarSold event\n    // @param customerID Tag of the customer\n    // @param manufacturerID Tag of the manufacturer\n    // @param priceOfferedPerCar Price per unit\n    // @param quantityRequested Quantities requested\n    // @return uint256 Quantity supplied\n    function customerBuysCar(\n        uint256 customerID,\n        uint256 manufacturerID,\n        uint256 priceOfferedPerCar,\n        uint256 quantityRequested\n    ) public payable returns (uint256) {\n        require(customerID <= num_customer, \"Invalid customer\");\n        require(manufacturerID <= num_manufacturer, \"Invalid customer\");\n        require(\n            priceOfferedPerCar >= manufacturers[manufacturerID].carPrice,\n            \"Cost is higher\"\n        );\n        require(\n            msg.value >= priceOfferedPerCar * quantityRequested,\n            \"Insufficient funds sent\"\n        );\n        require(\n            msg.sender == payable(customers[customerID].wallet),\n            \"Incorrect ID\"\n        );\n        uint256 selling = minimum(\n            quantityRequested,\n            manufacturers[manufacturerID].carsAvailable\n        );\n        for (uint256 i = 0; i < selling; i++) {\n            num_cars++;\n            cars[num_cars] = Car(\n                num_cars,\n                customerID,\n                manufacturerID,\n                manufacturers[manufacturerID].wheelSupplier,\n                manufacturers[manufacturerID].bodySupplier\n            );\n            emit CarSold(num_cars, manufacturerID, customerID);\n        }\n        manufacturers[manufacturerID].carsAvailable -= selling;\n        require(\n            payable(manufacturers[manufacturerID].wallet).send(\n                selling * priceOfferedPerCar\n            ),\n            \"Transaction failed\"\n        );\n        require(\n            payable(msg.sender).send(msg.value - selling * priceOfferedPerCar),\n            \"Transaction failed\"\n        );\n        return selling;\n    }\n\n    // @notice Verify details of your car\n    // @param customerID Tag of the customer\n    // @param carID Tag of the car\n    // @return id Tag of the car\n    // @return manufacturerID Tag of the manufacturer who sold the car\n    // @return wheelSupplier Tag of wheel supplier\n    // @return bodySupplier Tag of body supplier\n    function verifyCar(uint256 customerID, uint256 carID)\n        public\n        view\n        returns (\n            uint256 id,\n            uint256 manufacturerID,\n            uint256 wheelSupplier,\n            uint256 bodySupplier\n        )\n    {\n        require(customerID <= num_customer, \"Invalid car\");\n        require(customers[customerID].wallet == msg.sender, \"Incorrect ID\");\n        require(carID <= num_cars, \"Invalid car\");\n        require(cars[carID].customerID == customerID, \"Not your car!\");\n        return (\n            carID,\n            cars[carID].manufacturerID,\n            cars[carID].wheelSupID,\n            cars[carID].bodySupID\n        );\n    }\n\n    // @notice Add a supplier to the supply chain\n    // @param partType Type of the part supplier is going to provide. 0 for body and 1 for wheels\n    // @param quantityAvailable Quantity available with the supplier\n    // @param addr Wallet address of the supplier\n    // @param auctionBidders Number of people that can bid in it's auction\n    // @return Tag of the supplier added\n    function addSupplier(\n        uint256 partType,\n        uint256 quantityAvailable,\n        address payable addr,\n        uint256 auctionBidders\n    ) public payable returns (uint256 tag) {\n        require(partType <= 1, \"Invalid part type!\");\n        require(msg.sender == addr, \"Invalid sign up\");\n        num_supplier++;\n        PartType here = PartType.BODY;\n        if (partType == 1) here = PartType.WHEEL;\n        suppliers[num_supplier] = Supplier(\n            num_supplier,\n            here,\n            quantityAvailable,\n            AuctionState.NOT_RUNNING,\n            addr,\n            auctionBidders,\n            0,\n            0\n        );\n        return num_supplier;\n    }\n\n    // @notice Update the quantity available with a supplier\n    // @param tag Tag of the supplier\n    // @param newQuantity New quantity to add\n    // @return Final total quantity with the supplier\n    function updateSupplierQuantity(uint256 tag, uint256 newQuantity)\n        public\n        returns (uint256 totalQuantity)\n    {\n        require(tag <= num_supplier, \"Invalid ID\");\n        require(suppliers[tag].wallet == msg.sender, \"Incorrect ID\");\n        suppliers[tag].quantityAvailable += newQuantity;\n        return suppliers[tag].quantityAvailable;\n    }\n\n    // @notice Add a supplier to the supply chain\n    // @param addr Wallet address of the supplier\n    // @param wheelSupplier Tag of supplier to buy wheels from\n    // @param bodySupplier Tag of supplier to buy body from\n    // @param askingPrice Minimum asking price for the cars\n    // @return Tag of the manufacturer added\n    function addManufacturer(\n        address payable addr,\n        uint256 wheelSupplier,\n        uint256 bodySupplier,\n        uint256 askingPrice\n    ) public returns (uint256 tag) {\n        require(\n            wheelSupplier >= 1 && wheelSupplier <= num_supplier,\n            \"Invalid supplier!\"\n        );\n        require(\n            bodySupplier >= 1 && bodySupplier <= num_supplier,\n            \"Invalid supplier!\"\n        );\n        require(\n            suppliers[bodySupplier].partType == PartType.BODY,\n            \"Supplier doesn't suppl body\"\n        );\n        require(\n            suppliers[wheelSupplier].partType == PartType.WHEEL,\n            \"Supplier doesn't suppl wheels\"\n        );\n        require(msg.sender == addr, \"Invalid sign up\");\n        num_manufacturer++;\n        manufacturers[num_manufacturer] = Manufacturer(\n            num_manufacturer,\n            wheelSupplier,\n            0,\n            bodySupplier,\n            0,\n            0,\n            askingPrice,\n            addr\n        );\n        return num_manufacturer;\n    }\n\n    // @notice Add a supplier to the supply chain\n    // @param addr Wallet address of the supplier\n    // @return Tag of the customer added\n    function addCustomer(address payable addr) public returns (uint256 tag) {\n        require(msg.sender == addr, \"Invalid sign up\");\n        num_customer++;\n        customers[num_customer] = Customer(num_customer, addr);\n        return num_customer;\n    }\n\n    // @notice Get the number of suppliers\n    // @return uint256 Number of suppliers\n    function getSuppliers() public view returns (uint256) {\n        return num_supplier;\n    }\n\n    // @notice Get the number of manufacturers\n    // @return uint256 Number of manufacturers\n    function getManufacturers() public view returns (uint256) {\n        return num_manufacturer;\n    }\n\n    // @notice Get the number of customers\n    // @return uint256 Number of customers\n    function getCustomers() public view returns (uint256) {\n        return num_customer;\n    }\n\n    // @notice Get the number of cars\n    // @return uint256 Number of cars\n    function getCars() public view returns (uint256) {\n        return num_cars;\n    }\n\n    // @notice Get quantity of each part and car with a manufacturer\n    // @return uint256 Number of suppliers\n    function getManufacturerQuantities(uint256 tag)\n        public\n        view\n        returns (\n            uint256 quantityWheel,\n            uint256 quantityBody,\n            uint256 quantityCar\n        )\n    {\n        require(tag <= num_manufacturer);\n        require(\n            (msg.sender == owner || msg.sender == manufacturers[tag].wallet),\n            \"Permission denied\"\n        );\n        return (\n            manufacturers[tag].wheelQuant,\n            manufacturers[tag].bodyQuant,\n            manufacturers[tag].carsAvailable\n        );\n    }\n}\n",
  "sourcePath": "/home/prince/Course_M22/BLOCKCHAIN/Supply-Chain-Smartcontract/contracts/MarketPlace2.sol",
  "compiler": {
    "name": "solc",
    "version": "0.8.16+commit.07a7930e.Emscripten.clang"
  },
  "schemaVersion": "3.4.8",
  "updatedAt": "2022-09-13T10:58:25.232Z",
  "networkType": "ethereum",
  "devdoc": {
    "kind": "dev",
    "methods": {},
    "version": 1
  },
  "userdoc": {
    "kind": "user",
    "methods": {},
    "version": 1
  }
}