{
  "contractName": "NewMarketPlace",
  "abi": [
    {
      "inputs": [],
      "stateMutability": "nonpayable",
      "type": "constructor"
    },
    {
      "anonymous": false,
      "inputs": [
        {
          "indexed": false,
          "internalType": "uint256",
          "name": "supplierID",
          "type": "uint256"
        },
        {
          "indexed": false,
          "internalType": "uint256",
          "name": "manufacturerID",
          "type": "uint256"
        },
        {
          "indexed": false,
          "internalType": "uint256",
          "name": "quantity",
          "type": "uint256"
        },
        {
          "indexed": false,
          "internalType": "uint256",
          "name": "price",
          "type": "uint256"
        }
      ],
      "name": "AllocateFromSupplier",
      "type": "event"
    },
    {
      "anonymous": false,
      "inputs": [
        {
          "indexed": false,
          "internalType": "uint256",
          "name": "carID",
          "type": "uint256"
        },
        {
          "indexed": false,
          "internalType": "uint256",
          "name": "manufacturerID",
          "type": "uint256"
        },
        {
          "indexed": false,
          "internalType": "uint256",
          "name": "customerID",
          "type": "uint256"
        }
      ],
      "name": "CarSold",
      "type": "event"
    },
    {
      "anonymous": false,
      "inputs": [
        {
          "indexed": false,
          "internalType": "uint256",
          "name": "manufacturerID",
          "type": "uint256"
        },
        {
          "indexed": false,
          "internalType": "uint256",
          "name": "supplierID",
          "type": "uint256"
        },
        {
          "indexed": false,
          "internalType": "bytes32",
          "name": "blindPrice",
          "type": "bytes32"
        },
        {
          "indexed": false,
          "internalType": "bytes32",
          "name": "blindQuantity",
          "type": "bytes32"
        },
        {
          "indexed": false,
          "internalType": "bytes32",
          "name": "blindKey",
          "type": "bytes32"
        }
      ],
      "name": "ManufacturerBids",
      "type": "event"
    },
    {
      "anonymous": false,
      "inputs": [
        {
          "indexed": false,
          "internalType": "uint256",
          "name": "manufacturerID",
          "type": "uint256"
        },
        {
          "indexed": false,
          "internalType": "uint256",
          "name": "supplierID",
          "type": "uint256"
        },
        {
          "indexed": false,
          "internalType": "uint256",
          "name": "actualPrice",
          "type": "uint256"
        },
        {
          "indexed": false,
          "internalType": "uint256",
          "name": "actualQuantity",
          "type": "uint256"
        },
        {
          "indexed": false,
          "internalType": "uint256",
          "name": "actualKey",
          "type": "uint256"
        }
      ],
      "name": "ManufacturerReveal",
      "type": "event"
    },
    {
      "anonymous": false,
      "inputs": [
        {
          "indexed": false,
          "internalType": "uint256",
          "name": "tag",
          "type": "uint256"
        },
        {
          "indexed": false,
          "internalType": "uint256",
          "name": "timestamp",
          "type": "uint256"
        }
      ],
      "name": "StartSupplierBidding",
      "type": "event"
    },
    {
      "anonymous": false,
      "inputs": [
        {
          "indexed": false,
          "internalType": "uint256",
          "name": "tag",
          "type": "uint256"
        },
        {
          "indexed": false,
          "internalType": "uint256",
          "name": "timestamp",
          "type": "uint256"
        }
      ],
      "name": "StartSupplierReveal",
      "type": "event"
    },
    {
      "inputs": [
        {
          "internalType": "uint256",
          "name": "",
          "type": "uint256"
        }
      ],
      "name": "customers",
      "outputs": [
        {
          "internalType": "uint256",
          "name": "tag",
          "type": "uint256"
        },
        {
          "internalType": "address",
          "name": "wallet",
          "type": "address"
        }
      ],
      "stateMutability": "view",
      "type": "function",
      "constant": true
    },
    {
      "inputs": [
        {
          "internalType": "uint256",
          "name": "",
          "type": "uint256"
        }
      ],
      "name": "manufacturers",
      "outputs": [
        {
          "internalType": "uint256",
          "name": "tag",
          "type": "uint256"
        },
        {
          "internalType": "uint256",
          "name": "wheelSupplier",
          "type": "uint256"
        },
        {
          "internalType": "uint256",
          "name": "wheelQuant",
          "type": "uint256"
        },
        {
          "internalType": "uint256",
          "name": "bodySupplier",
          "type": "uint256"
        },
        {
          "internalType": "uint256",
          "name": "bodyQuant",
          "type": "uint256"
        },
        {
          "internalType": "uint256",
          "name": "carsAvailable",
          "type": "uint256"
        },
        {
          "internalType": "uint256",
          "name": "carPrice",
          "type": "uint256"
        },
        {
          "internalType": "address",
          "name": "wallet",
          "type": "address"
        }
      ],
      "stateMutability": "view",
      "type": "function",
      "constant": true
    },
    {
      "inputs": [],
      "name": "owner",
      "outputs": [
        {
          "internalType": "address payable",
          "name": "",
          "type": "address"
        }
      ],
      "stateMutability": "view",
      "type": "function",
      "constant": true
    },
    {
      "inputs": [
        {
          "internalType": "uint256",
          "name": "",
          "type": "uint256"
        }
      ],
      "name": "suppliers",
      "outputs": [
        {
          "internalType": "uint256",
          "name": "tag",
          "type": "uint256"
        },
        {
          "internalType": "enum NewMarketPlace.PartType",
          "name": "partType",
          "type": "uint8"
        },
        {
          "internalType": "uint256",
          "name": "quantityAvailable",
          "type": "uint256"
        },
        {
          "internalType": "enum NewMarketPlace.AuctionState",
          "name": "currentState",
          "type": "uint8"
        },
        {
          "internalType": "address",
          "name": "wallet",
          "type": "address"
        },
        {
          "internalType": "uint256",
          "name": "maxBidders",
          "type": "uint256"
        },
        {
          "internalType": "uint256",
          "name": "bidsPlaced",
          "type": "uint256"
        },
        {
          "internalType": "uint256",
          "name": "bidsRevealed",
          "type": "uint256"
        }
      ],
      "stateMutability": "view",
      "type": "function",
      "constant": true
    },
    {
      "inputs": [],
      "name": "isSupplier",
      "outputs": [
        {
          "internalType": "bool",
          "name": "",
          "type": "bool"
        }
      ],
      "stateMutability": "view",
      "type": "function",
      "constant": true
    },
    {
      "inputs": [],
      "name": "getAllSuppliers",
      "outputs": [
        {
          "components": [
            {
              "internalType": "uint256",
              "name": "tag",
              "type": "uint256"
            },
            {
              "internalType": "enum NewMarketPlace.PartType",
              "name": "partType",
              "type": "uint8"
            },
            {
              "internalType": "uint256",
              "name": "quantityAvailable",
              "type": "uint256"
            },
            {
              "internalType": "enum NewMarketPlace.AuctionState",
              "name": "currentState",
              "type": "uint8"
            },
            {
              "internalType": "address",
              "name": "wallet",
              "type": "address"
            },
            {
              "internalType": "uint256",
              "name": "maxBidders",
              "type": "uint256"
            },
            {
              "internalType": "uint256",
              "name": "bidsPlaced",
              "type": "uint256"
            },
            {
              "internalType": "uint256",
              "name": "bidsRevealed",
              "type": "uint256"
            }
          ],
          "internalType": "struct NewMarketPlace.Supplier[]",
          "name": "",
          "type": "tuple[]"
        }
      ],
      "stateMutability": "view",
      "type": "function",
      "constant": true
    },
    {
      "inputs": [],
      "name": "isManufacturer",
      "outputs": [
        {
          "internalType": "bool",
          "name": "",
          "type": "bool"
        }
      ],
      "stateMutability": "view",
      "type": "function",
      "constant": true
    },
    {
      "inputs": [
        {
          "internalType": "uint256",
          "name": "a",
          "type": "uint256"
        },
        {
          "internalType": "uint256",
          "name": "b",
          "type": "uint256"
        }
      ],
      "name": "minimum",
      "outputs": [
        {
          "internalType": "uint256",
          "name": "",
          "type": "uint256"
        }
      ],
      "stateMutability": "pure",
      "type": "function",
      "constant": true
    },
    {
      "inputs": [
        {
          "internalType": "uint256",
          "name": "tag",
          "type": "uint256"
        }
      ],
      "name": "supplierStartBidding",
      "outputs": [
        {
          "internalType": "uint256",
          "name": "",
          "type": "uint256"
        }
      ],
      "stateMutability": "nonpayable",
      "type": "function"
    },
    {
      "inputs": [
        {
          "internalType": "uint256",
          "name": "tag",
          "type": "uint256"
        }
      ],
      "name": "supplierStartReveal",
      "outputs": [
        {
          "internalType": "uint256",
          "name": "",
          "type": "uint256"
        }
      ],
      "stateMutability": "nonpayable",
      "type": "function"
    },
    {
      "inputs": [
        {
          "internalType": "uint256",
          "name": "tag",
          "type": "uint256"
        }
      ],
      "name": "supplierEndAuction",
      "outputs": [
        {
          "internalType": "uint256",
          "name": "",
          "type": "uint256"
        }
      ],
      "stateMutability": "nonpayable",
      "type": "function"
    },
    {
      "inputs": [
        {
          "internalType": "uint256",
          "name": "manufacturerID",
          "type": "uint256"
        },
        {
          "internalType": "uint256",
          "name": "supplierID",
          "type": "uint256"
        },
        {
          "internalType": "bytes32",
          "name": "blindPrice",
          "type": "bytes32"
        },
        {
          "internalType": "bytes32",
          "name": "blindQuantity",
          "type": "bytes32"
        },
        {
          "internalType": "bytes32",
          "name": "blindKey",
          "type": "bytes32"
        }
      ],
      "name": "manufacturerPlacesBid",
      "outputs": [
        {
          "internalType": "uint256",
          "name": "limitingQuantity",
          "type": "uint256"
        }
      ],
      "stateMutability": "payable",
      "type": "function",
      "payable": true
    },
    {
      "inputs": [
        {
          "internalType": "uint256",
          "name": "manufacturerID",
          "type": "uint256"
        },
        {
          "internalType": "uint256",
          "name": "supplierID",
          "type": "uint256"
        },
        {
          "internalType": "uint256",
          "name": "actualPrice",
          "type": "uint256"
        },
        {
          "internalType": "uint256",
          "name": "actualQuantity",
          "type": "uint256"
        },
        {
          "internalType": "uint256",
          "name": "actualKey",
          "type": "uint256"
        }
      ],
      "name": "manufacturerRevealsBid",
      "outputs": [
        {
          "internalType": "bool",
          "name": "",
          "type": "bool"
        }
      ],
      "stateMutability": "nonpayable",
      "type": "function"
    },
    {
      "inputs": [
        {
          "internalType": "uint256",
          "name": "customerID",
          "type": "uint256"
        },
        {
          "internalType": "uint256",
          "name": "manufacturerID",
          "type": "uint256"
        },
        {
          "internalType": "uint256",
          "name": "priceOfferedPerCar",
          "type": "uint256"
        },
        {
          "internalType": "uint256",
          "name": "quantityRequested",
          "type": "uint256"
        }
      ],
      "name": "customerBuysCar",
      "outputs": [
        {
          "internalType": "uint256",
          "name": "",
          "type": "uint256"
        }
      ],
      "stateMutability": "payable",
      "type": "function",
      "payable": true
    },
    {
      "inputs": [
        {
          "internalType": "uint256",
          "name": "customerID",
          "type": "uint256"
        },
        {
          "internalType": "uint256",
          "name": "carID",
          "type": "uint256"
        }
      ],
      "name": "verifyCar",
      "outputs": [
        {
          "internalType": "uint256",
          "name": "id",
          "type": "uint256"
        },
        {
          "internalType": "uint256",
          "name": "manufacturerID",
          "type": "uint256"
        },
        {
          "internalType": "uint256",
          "name": "wheelSupplier",
          "type": "uint256"
        },
        {
          "internalType": "uint256",
          "name": "bodySupplier",
          "type": "uint256"
        }
      ],
      "stateMutability": "view",
      "type": "function",
      "constant": true
    },
    {
      "inputs": [
        {
          "internalType": "uint256",
          "name": "partType",
          "type": "uint256"
        },
        {
          "internalType": "uint256",
          "name": "quantityAvailable",
          "type": "uint256"
        },
        {
          "internalType": "address payable",
          "name": "addr",
          "type": "address"
        },
        {
          "internalType": "uint256",
          "name": "auctionBidders",
          "type": "uint256"
        }
      ],
      "name": "addSupplier",
      "outputs": [
        {
          "internalType": "uint256",
          "name": "tag",
          "type": "uint256"
        }
      ],
      "stateMutability": "payable",
      "type": "function",
      "payable": true
    },
    {
      "inputs": [
        {
          "internalType": "uint256",
          "name": "tag",
          "type": "uint256"
        },
        {
          "internalType": "uint256",
          "name": "newQuantity",
          "type": "uint256"
        }
      ],
      "name": "updateSupplierQuantity",
      "outputs": [
        {
          "internalType": "uint256",
          "name": "totalQuantity",
          "type": "uint256"
        }
      ],
      "stateMutability": "nonpayable",
      "type": "function"
    },
    {
      "inputs": [
        {
          "internalType": "address payable",
          "name": "addr",
          "type": "address"
        },
        {
          "internalType": "uint256",
          "name": "wheelSupplier",
          "type": "uint256"
        },
        {
          "internalType": "uint256",
          "name": "bodySupplier",
          "type": "uint256"
        },
        {
          "internalType": "uint256",
          "name": "askingPrice",
          "type": "uint256"
        }
      ],
      "name": "addManufacturer",
      "outputs": [
        {
          "internalType": "uint256",
          "name": "tag",
          "type": "uint256"
        }
      ],
      "stateMutability": "nonpayable",
      "type": "function"
    },
    {
      "inputs": [
        {
          "internalType": "address payable",
          "name": "addr",
          "type": "address"
        }
      ],
      "name": "addCustomer",
      "outputs": [
        {
          "internalType": "uint256",
          "name": "tag",
          "type": "uint256"
        }
      ],
      "stateMutability": "nonpayable",
      "type": "function"
    },
    {
      "inputs": [],
      "name": "getSuppliers",
      "outputs": [
        {
          "internalType": "uint256",
          "name": "",
          "type": "uint256"
        }
      ],
      "stateMutability": "view",
      "type": "function",
      "constant": true
    },
    {
      "inputs": [],
      "name": "getManufacturers",
      "outputs": [
        {
          "internalType": "uint256",
          "name": "",
          "type": "uint256"
        }
      ],
      "stateMutability": "view",
      "type": "function",
      "constant": true
    },
    {
      "inputs": [],
      "name": "getCustomers",
      "outputs": [
        {
          "internalType": "uint256",
          "name": "",
          "type": "uint256"
        }
      ],
      "stateMutability": "view",
      "type": "function",
      "constant": true
    },
    {
      "inputs": [],
      "name": "getCars",
      "outputs": [
        {
          "internalType": "uint256",
          "name": "",
          "type": "uint256"
        }
      ],
      "stateMutability": "view",
      "type": "function",
      "constant": true
    },
    {
      "inputs": [
        {
          "internalType": "uint256",
          "name": "tag",
          "type": "uint256"
        }
      ],
      "name": "getManufacturerQuantities",
      "outputs": [
        {
          "internalType": "uint256",
          "name": "quantityWheel",
          "type": "uint256"
        },
        {
          "internalType": "uint256",
          "name": "quantityBody",
          "type": "uint256"
        },
        {
          "internalType": "uint256",
          "name": "quantityCar",
          "type": "uint256"
        }
      ],
      "stateMutability": "view",
      "type": "function",
      "constant": true
    }
  ],
  "bytecode": "0x608060405234801561001057600080fd5b506000600981905550600060088190555060006007819055506000600681905550336000806101000a81548173ffffffffffffffffffffffffffffffffffffffff021916908373ffffffffffffffffffffffffffffffffffffffff160217905550615aa280620000816000396000f3fe60806040526004361061014b5760003560e01c8063ad973d74116100b6578063d3a26e601161006f578063d3a26e6014610516578063dd2d2a1214610553578063e804b95514610590578063f1ba7127146105c0578063f7b0fde8146105eb578063fe828f36146106285761014b565b8063ad973d74146103d1578063b53305dc1461040e578063bc8a234514610439578063c0abda2a14610464578063cc5d852e146104a2578063cea23121146104d25761014b565b80637aa4c3f3116101085780637aa4c3f31461027b5780638da5cb5b146102ba57806390175af1146102e557806393583b8914610329578063a9c5631414610354578063aa8613c4146103945761014b565b806317c3928614610150578063198200901461017b5780632565a86e146101b857806343516832146101e35780634a0202cc1461020e5780635b5e58dc1461023e575b600080fd5b34801561015c57600080fd5b50610165610665565b6040516101729190614528565b60405180910390f35b34801561018757600080fd5b506101a2600480360381019061019d9190614574565b61066f565b6040516101af919061460a565b60405180910390f35b3480156101c457600080fd5b506101cd610fe3565b6040516101da919061460a565b60405180910390f35b3480156101ef57600080fd5b506101f8611083565b6040516102059190614528565b60405180910390f35b61022860048036038101906102239190614625565b61108d565b6040516102359190614528565b60405180910390f35b34801561024a57600080fd5b50610265600480360381019061026091906146ea565b611513565b6040516102729190614528565b60405180910390f35b34801561028757600080fd5b506102a2600480360381019061029d9190614751565b611859565b6040516102b19392919061477e565b60405180910390f35b3480156102c657600080fd5b506102cf6119b9565b6040516102dc91906147c4565b60405180910390f35b3480156102f157600080fd5b5061030c60048036038101906103079190614751565b6119dd565b604051610320989796959493929190614800565b60405180910390f35b34801561033557600080fd5b5061033e611a45565b60405161034b919061460a565b60405180910390f35b34801561036057600080fd5b5061037b6004803603810190610376919061487e565b611ae5565b60405161038b94939291906148be565b60405180910390f35b3480156103a057600080fd5b506103bb60048036038101906103b69190614751565b611cc8565b6040516103c89190614528565b60405180910390f35b3480156103dd57600080fd5b506103f860048036038101906103f39190614903565b6131ef565b6040516104059190614528565b60405180910390f35b34801561041a57600080fd5b50610423613317565b6040516104309190614b5f565b60405180910390f35b34801561044557600080fd5b5061044e613475565b60405161045b9190614528565b60405180910390f35b34801561047057600080fd5b5061048b60048036038101906104869190614751565b61347f565b604051610499929190614b81565b60405180910390f35b6104bc60048036038101906104b79190614baa565b6134c3565b6040516104c99190614528565b60405180910390f35b3480156104de57600080fd5b506104f960048036038101906104f49190614751565b613899565b60405161050d989796959493929190614c2f565b60405180910390f35b34801561052257600080fd5b5061053d6004803603810190610538919061487e565b61391b565b60405161054a9190614528565b60405180910390f35b34801561055f57600080fd5b5061057a6004803603810190610575919061487e565b613a52565b6040516105879190614528565b60405180910390f35b6105aa60048036038101906105a59190614ce3565b613a6c565b6040516105b79190614528565b60405180910390f35b3480156105cc57600080fd5b506105d5614068565b6040516105e29190614528565b60405180910390f35b3480156105f757600080fd5b50610612600480360381019061060d9190614751565b614072565b60405161061f9190614528565b60405180910390f35b34801561063457600080fd5b5061064f600480360381019061064a9190614751565b614231565b60405161065c9190614528565b60405180910390f35b6000600954905090565b60006007548611156106b6576040517f08c379a00000000000000000000000000000000000000000000000000000000081526004016106ad90614dbb565b60405180910390fd5b6006548511156106fb576040517f08c379a00000000000000000000000000000000000000000000000000000000081526004016106f290614dbb565b60405180910390fd5b60028081111561070e5761070d61496b565b5b6001600087815260200190815260200160002060030160009054906101000a900460ff1660028111156107445761074361496b565b5b14610784576040517f08c379a000000000000000000000000000000000000000000000000000000000815260040161077b90614e27565b60405180910390fd5b3373ffffffffffffffffffffffffffffffffffffffff166002600088815260200190815260200160002060070160009054906101000a900473ffffffffffffffffffffffffffffffffffffffff1673ffffffffffffffffffffffffffffffffffffffff1614610828576040517f08c379a000000000000000000000000000000000000000000000000000000000815260040161081f90614dbb565b60405180910390fd5b60005b600560006001600089815260200190815260200160002060030160019054906101000a900473ffffffffffffffffffffffffffffffffffffffff1673ffffffffffffffffffffffffffffffffffffffff1673ffffffffffffffffffffffffffffffffffffffff16815260200190815260200160002080549050811015610fd4578660056000600160008a815260200190815260200160002060030160019054906101000a900473ffffffffffffffffffffffffffffffffffffffff1673ffffffffffffffffffffffffffffffffffffffff1673ffffffffffffffffffffffffffffffffffffffff168152602001908152602001600020828154811061093357610932614e47565b5b90600052602060002090600b02016007015403610fc157600060056000600160008a815260200190815260200160002060030160019054906101000a900473ffffffffffffffffffffffffffffffffffffffff1673ffffffffffffffffffffffffffffffffffffffff1673ffffffffffffffffffffffffffffffffffffffff16815260200190815260200160002082815481106109d3576109d2614e47565b5b90600052602060002090600b02016040518061018001604052908160008201548152602001600182015481526020016002820154815260200160038201548152602001600482015481526020016005820154815260200160068201548152602001600782015481526020016008820154815260200160098201548152602001600a820160009054906101000a900460ff16151515158152602001600a820160019054906101000a900473ffffffffffffffffffffffffffffffffffffffff1673ffffffffffffffffffffffffffffffffffffffff1673ffffffffffffffffffffffffffffffffffffffff1681525050905060001515816101400151151514610b10576040517f08c379a0000000000000000000000000000000000000000000000000000000008152600401610b0790614ec2565b60405180910390fd5b8060a0015184604051602001610b269190614f03565b6040516020818303038152906040528051906020012014610b7c576040517f08c379a0000000000000000000000000000000000000000000000000000000008152600401610b7390614f90565b60405180910390fd5b80606001518685610b8d9190614fdf565b604051602001610b9d9190614f03565b6040516020818303038152906040528051906020012014610bf3576040517f08c379a0000000000000000000000000000000000000000000000000000000008152600401610bea90615085565b60405180910390fd5b80608001518585610c049190614fdf565b604051602001610c149190614f03565b6040516020818303038152906040528051906020012014610c6a576040517f08c379a0000000000000000000000000000000000000000000000000000000008152600401610c6190615117565b60405180910390fd5b60008587610c789190615137565b90508161012001518110610cc1576040517f08c379a0000000000000000000000000000000000000000000000000000000008152600401610cb890615203565b60405180910390fd5b600160056000600160008c815260200190815260200160002060030160019054906101000a900473ffffffffffffffffffffffffffffffffffffffff1673ffffffffffffffffffffffffffffffffffffffff1673ffffffffffffffffffffffffffffffffffffffff1681526020019081526020016000208481548110610d4a57610d49614e47565b5b90600052602060002090600b0201600a0160006101000a81548160ff0219169083151502179055508660056000600160008c815260200190815260200160002060030160019054906101000a900473ffffffffffffffffffffffffffffffffffffffff1673ffffffffffffffffffffffffffffffffffffffff1673ffffffffffffffffffffffffffffffffffffffff1681526020019081526020016000208481548110610dfa57610df9614e47565b5b90600052602060002090600b0201600001819055508560056000600160008c815260200190815260200160002060030160019054906101000a900473ffffffffffffffffffffffffffffffffffffffff1673ffffffffffffffffffffffffffffffffffffffff1673ffffffffffffffffffffffffffffffffffffffff1681526020019081526020016000208481548110610e9757610e96614e47565b5b90600052602060002090600b0201600101819055508460056000600160008c815260200190815260200160002060030160019054906101000a900473ffffffffffffffffffffffffffffffffffffffff1673ffffffffffffffffffffffffffffffffffffffff1673ffffffffffffffffffffffffffffffffffffffff1681526020019081526020016000208481548110610f3457610f33614e47565b5b90600052602060002090600b02016002018190555060018060008a81526020019081526020016000206006016000828254610f6f9190614fdf565b925050819055507f1e03b01ba1997c24040f0a2e5145f9dc2be2d1821b811bd7def13c7f41cda8748989898989604051610fad959493929190615223565b60405180910390a160019350505050610fda565b8080610fcc90615276565b91505061082b565b50600090505b95945050505050565b600080600090505b600654811161107a573373ffffffffffffffffffffffffffffffffffffffff166001600083815260200190815260200160002060030160019054906101000a900473ffffffffffffffffffffffffffffffffffffffff1673ffffffffffffffffffffffffffffffffffffffff1603611067576001915050611080565b808061107290615276565b915050610feb565b50600090505b90565b6000600654905090565b60006008548511156110d4576040517f08c379a00000000000000000000000000000000000000000000000000000000081526004016110cb9061530a565b60405180910390fd5b600754841115611119576040517f08c379a00000000000000000000000000000000000000000000000000000000081526004016111109061530a565b60405180910390fd5b6002600085815260200190815260200160002060060154831015611172576040517f08c379a000000000000000000000000000000000000000000000000000000000815260040161116990615376565b60405180910390fd5b818361117e9190615137565b3410156111c0576040517f08c379a00000000000000000000000000000000000000000000000000000000081526004016111b7906153e2565b60405180910390fd5b6003600086815260200190815260200160002060010160009054906101000a900473ffffffffffffffffffffffffffffffffffffffff1673ffffffffffffffffffffffffffffffffffffffff163373ffffffffffffffffffffffffffffffffffffffff1614611264576040517f08c379a000000000000000000000000000000000000000000000000000000000815260040161125b9061544e565b60405180910390fd5b6000611286836002600088815260200190815260200160002060050154613a52565b905060005b8181101561139a57600960008154809291906112a690615276565b91905055506040518060a00160405280600954815260200188815260200187815260200160026000898152602001908152602001600020600101548152602001600260008981526020019081526020016000206003015481525060046000600954815260200190815260200160002060008201518160000155602082015181600101556040820151816002015560608201518160030155608082015181600401559050507f7f5c7a32f9a2b70ae99e862ffe5aff9d18caa86acc91931c9f1b75f325cd1691600954878960405161137f9392919061477e565b60405180910390a1808061139290615276565b91505061128b565b50806002600087815260200190815260200160002060050160008282546113c1919061546e565b925050819055506002600086815260200190815260200160002060070160009054906101000a900473ffffffffffffffffffffffffffffffffffffffff1673ffffffffffffffffffffffffffffffffffffffff166108fc85836114249190615137565b9081150290604051600060405180830381858888f1935050505061147d576040517f08c379a0000000000000000000000000000000000000000000000000000000008152600401611474906154ee565b60405180910390fd5b3373ffffffffffffffffffffffffffffffffffffffff166108fc85836114a39190615137565b346114ae919061546e565b9081150290604051600060405180830381858888f19350505050611507576040517f08c379a00000000000000000000000000000000000000000000000000000000081526004016114fe906154ee565b60405180910390fd5b80915050949350505050565b60006001841015801561152857506006548411155b611567576040517f08c379a000000000000000000000000000000000000000000000000000000000815260040161155e9061555a565b60405180910390fd5b6001831015801561157a57506006548311155b6115b9576040517f08c379a00000000000000000000000000000000000000000000000000000000081526004016115b09061555a565b60405180910390fd5b6001808111156115cc576115cb61496b565b5b6001600085815260200190815260200160002060010160009054906101000a900460ff1660018111156116025761160161496b565b5b14611642576040517f08c379a0000000000000000000000000000000000000000000000000000000008152600401611639906155c6565b60405180910390fd5b600060018111156116565761165561496b565b5b6001600086815260200190815260200160002060010160009054906101000a900460ff16600181111561168c5761168b61496b565b5b146116cc576040517f08c379a00000000000000000000000000000000000000000000000000000000081526004016116c390615632565b60405180910390fd5b8473ffffffffffffffffffffffffffffffffffffffff163373ffffffffffffffffffffffffffffffffffffffff161461173a576040517f08c379a00000000000000000000000000000000000000000000000000000000081526004016117319061569e565b60405180910390fd5b6007600081548092919061174d90615276565b919050555060405180610100016040528060075481526020018581526020016000815260200184815260200160008152602001600081526020018381526020018673ffffffffffffffffffffffffffffffffffffffff16815250600260006007548152602001908152602001600020600082015181600001556020820151816001015560408201518160020155606082015181600301556080820151816004015560a0820151816005015560c0820151816006015560e08201518160070160006101000a81548173ffffffffffffffffffffffffffffffffffffffff021916908373ffffffffffffffffffffffffffffffffffffffff1602179055509050506007549050949350505050565b600080600060075484111561186d57600080fd5b60008054906101000a900473ffffffffffffffffffffffffffffffffffffffff1673ffffffffffffffffffffffffffffffffffffffff163373ffffffffffffffffffffffffffffffffffffffff16148061192857506002600085815260200190815260200160002060070160009054906101000a900473ffffffffffffffffffffffffffffffffffffffff1673ffffffffffffffffffffffffffffffffffffffff163373ffffffffffffffffffffffffffffffffffffffff16145b611967576040517f08c379a000000000000000000000000000000000000000000000000000000000815260040161195e9061570a565b60405180910390fd5b6002600085815260200190815260200160002060020154600260008681526020019081526020016000206004015460026000878152602001908152602001600020600501549250925092509193909250565b60008054906101000a900473ffffffffffffffffffffffffffffffffffffffff1681565b60026020528060005260406000206000915090508060000154908060010154908060020154908060030154908060040154908060050154908060060154908060070160009054906101000a900473ffffffffffffffffffffffffffffffffffffffff16905088565b600080600090505b6007548111611adc573373ffffffffffffffffffffffffffffffffffffffff166002600083815260200190815260200160002060070160009054906101000a900473ffffffffffffffffffffffffffffffffffffffff1673ffffffffffffffffffffffffffffffffffffffff1603611ac9576001915050611ae2565b8080611ad490615276565b915050611a4d565b50600090505b90565b600080600080600854861115611b30576040517f08c379a0000000000000000000000000000000000000000000000000000000008152600401611b2790615776565b60405180910390fd5b3373ffffffffffffffffffffffffffffffffffffffff166003600088815260200190815260200160002060010160009054906101000a900473ffffffffffffffffffffffffffffffffffffffff1673ffffffffffffffffffffffffffffffffffffffff1614611bd4576040517f08c379a0000000000000000000000000000000000000000000000000000000008152600401611bcb9061544e565b60405180910390fd5b600954851115611c19576040517f08c379a0000000000000000000000000000000000000000000000000000000008152600401611c1090615776565b60405180910390fd5b85600460008781526020019081526020016000206001015414611c71576040517f08c379a0000000000000000000000000000000000000000000000000000000008152600401611c68906157e2565b60405180910390fd5b84600460008781526020019081526020016000206002015460046000888152602001908152602001600020600301546004600089815260200190815260200160002060040154935093509350935092959194509250565b6000600654821115611d0f576040517f08c379a0000000000000000000000000000000000000000000000000000000008152600401611d069061555a565b60405180910390fd5b600280811115611d2257611d2161496b565b5b6001600084815260200190815260200160002060030160009054906101000a900460ff166002811115611d5857611d5761496b565b5b14611d6257600080fd5b6001600083815260200190815260200160002060030160019054906101000a900473ffffffffffffffffffffffffffffffffffffffff1673ffffffffffffffffffffffffffffffffffffffff163373ffffffffffffffffffffffffffffffffffffffff1614611e06576040517f08c379a0000000000000000000000000000000000000000000000000000000008152600401611dfd9061584e565b60405180910390fd5b60006001600084815260200190815260200160002060030160006101000a81548160ff02191690836002811115611e4057611e3f61496b565b5b021790555060005b600560006001600086815260200190815260200160002060030160019054906101000a900473ffffffffffffffffffffffffffffffffffffffff1673ffffffffffffffffffffffffffffffffffffffff1673ffffffffffffffffffffffffffffffffffffffff1681526020019081526020016000208054905081101561253b5760005b8181101561252757600560006001600087815260200190815260200160002060030160019054906101000a900473ffffffffffffffffffffffffffffffffffffffff1673ffffffffffffffffffffffffffffffffffffffff1673ffffffffffffffffffffffffffffffffffffffff1681526020019081526020016000208181548110611f5a57611f59614e47565b5b90600052602060002090600b020160000154600560006001600088815260200190815260200160002060030160019054906101000a900473ffffffffffffffffffffffffffffffffffffffff1673ffffffffffffffffffffffffffffffffffffffff1673ffffffffffffffffffffffffffffffffffffffff1681526020019081526020016000208381548110611ff357611ff2614e47565b5b90600052602060002090600b0201600001541015612514576000600560006001600088815260200190815260200160002060030160019054906101000a900473ffffffffffffffffffffffffffffffffffffffff1673ffffffffffffffffffffffffffffffffffffffff1673ffffffffffffffffffffffffffffffffffffffff168152602001908152602001600020838154811061209457612093614e47565b5b90600052602060002090600b02016040518061018001604052908160008201548152602001600182015481526020016002820154815260200160038201548152602001600482015481526020016005820154815260200160068201548152602001600782015481526020016008820154815260200160098201548152602001600a820160009054906101000a900460ff16151515158152602001600a820160019054906101000a900473ffffffffffffffffffffffffffffffffffffffff1673ffffffffffffffffffffffffffffffffffffffff1673ffffffffffffffffffffffffffffffffffffffff16815250509050600560006001600088815260200190815260200160002060030160019054906101000a900473ffffffffffffffffffffffffffffffffffffffff1673ffffffffffffffffffffffffffffffffffffffff1673ffffffffffffffffffffffffffffffffffffffff168152602001908152602001600020828154811061220c5761220b614e47565b5b90600052602060002090600b0201600560006001600089815260200190815260200160002060030160019054906101000a900473ffffffffffffffffffffffffffffffffffffffff1673ffffffffffffffffffffffffffffffffffffffff1673ffffffffffffffffffffffffffffffffffffffff16815260200190815260200160002084815481106122a1576122a0614e47565b5b90600052602060002090600b020160008201548160000155600182015481600101556002820154816002015560038201548160030155600482015481600401556005820154816005015560068201548160060155600782015481600701556008820154816008015560098201548160090155600a820160009054906101000a900460ff1681600a0160006101000a81548160ff021916908315150217905550600a820160019054906101000a900473ffffffffffffffffffffffffffffffffffffffff1681600a0160016101000a81548173ffffffffffffffffffffffffffffffffffffffff021916908373ffffffffffffffffffffffffffffffffffffffff16021790555090505080600560006001600089815260200190815260200160002060030160019054906101000a900473ffffffffffffffffffffffffffffffffffffffff1673ffffffffffffffffffffffffffffffffffffffff1673ffffffffffffffffffffffffffffffffffffffff168152602001908152602001600020838154811061243257612431614e47565b5b90600052602060002090600b0201600082015181600001556020820151816001015560408201518160020155606082015181600301556080820151816004015560a0820151816005015560c0820151816006015560e082015181600701556101008201518160080155610120820151816009015561014082015181600a0160006101000a81548160ff02191690831515021790555061016082015181600a0160016101000a81548173ffffffffffffffffffffffffffffffffffffffff021916908373ffffffffffffffffffffffffffffffffffffffff160217905550905050505b808061251f90615276565b915050611ecb565b50808061253390615276565b915050611e48565b506125446144ec565b61254c6144ec565b6125546144ec565b60005b600560006001600089815260200190815260200160002060030160019054906101000a900473ffffffffffffffffffffffffffffffffffffffff1673ffffffffffffffffffffffffffffffffffffffff1673ffffffffffffffffffffffffffffffffffffffff168152602001908152602001600020805490508110156128fe57600060056000600160008a815260200190815260200160002060030160019054906101000a900473ffffffffffffffffffffffffffffffffffffffff1673ffffffffffffffffffffffffffffffffffffffff1673ffffffffffffffffffffffffffffffffffffffff16815260200190815260200160002082815481106126605761265f614e47565b5b90600052602060002090600b02016040518061018001604052908160008201548152602001600182015481526020016002820154815260200160038201548152602001600482015481526020016005820154815260200160068201548152602001600782015481526020016008820154815260200160098201548152602001600a820160009054906101000a900460ff16151515158152602001600a820160019054906101000a900473ffffffffffffffffffffffffffffffffffffffff1673ffffffffffffffffffffffffffffffffffffffff1673ffffffffffffffffffffffffffffffffffffffff168152505090506000151581610140015115150361276857506128eb565b806101200151838260e001516064811061278557612784614e47565b5b60200201818152505060006127b4600160008a8152602001908152602001600020600201548360c00151613a52565b90506127c4818360200151613a52565b90508160000151868360e00151606481106127e2576127e1614e47565b5b60200201818152505080858360e001516064811061280357612802614e47565b5b60200201818152505080600160008a81526020019081526020016000206002016000828254612832919061546e565b925050819055508060056000600160008c815260200190815260200160002060030160019054906101000a900473ffffffffffffffffffffffffffffffffffffffff1673ffffffffffffffffffffffffffffffffffffffff1673ffffffffffffffffffffffffffffffffffffffff16815260200190815260200160002084815481106128c1576128c0614e47565b5b90600052602060002090600b020160010160008282546128e1919061546e565b9250508190555050505b80806128f690615276565b915050612557565b5060005b600560006001600089815260200190815260200160002060030160019054906101000a900473ffffffffffffffffffffffffffffffffffffffff1673ffffffffffffffffffffffffffffffffffffffff1673ffffffffffffffffffffffffffffffffffffffff16815260200190815260200160002080549050811015612c5d57600060056000600160008a815260200190815260200160002060030160019054906101000a900473ffffffffffffffffffffffffffffffffffffffff1673ffffffffffffffffffffffffffffffffffffffff1673ffffffffffffffffffffffffffffffffffffffff1681526020019081526020016000208281548110612a0b57612a0a614e47565b5b90600052602060002090600b02016040518061018001604052908160008201548152602001600182015481526020016002820154815260200160038201548152602001600482015481526020016005820154815260200160068201548152602001600782015481526020016008820154815260200160098201548152602001600a820160009054906101000a900460ff16151515158152602001600a820160019054906101000a900473ffffffffffffffffffffffffffffffffffffffff1673ffffffffffffffffffffffffffffffffffffffff1673ffffffffffffffffffffffffffffffffffffffff1681525050905060001515816101400151151503612b135750612c4a565b6000612b39600160008a8152602001908152602001600020600201548360200151613a52565b905080858360e0015160648110612b5357612b52614e47565b5b60200201818151612b649190614fdf565b9150818152505080600160008a81526020019081526020016000206002016000828254612b91919061546e565b925050819055508060056000600160008c815260200190815260200160002060030160019054906101000a900473ffffffffffffffffffffffffffffffffffffffff1673ffffffffffffffffffffffffffffffffffffffff1673ffffffffffffffffffffffffffffffffffffffff1681526020019081526020016000208481548110612c2057612c1f614e47565b5b90600052602060002090600b02016001016000828254612c40919061546e565b9250508190555050505b8080612c5590615276565b915050612902565b506000600190505b6007548111613033576000838260648110612c8357612c82614e47565b5b60200201511115613020577f389cc4d2b135e7b676a809ad7bacdde1b644b0bbe73afdd545a176ea73b955178682858460648110612cc457612cc3614e47565b5b6020020151878560648110612cdc57612cdb614e47565b5b6020020151604051612cf194939291906148be565b60405180910390a16002600082815260200190815260200160002060070160009054906101000a900473ffffffffffffffffffffffffffffffffffffffff1673ffffffffffffffffffffffffffffffffffffffff166108fc848360648110612d5c57612d5b614e47565b5b6020020151868460648110612d7457612d73614e47565b5b6020020151612d839190615137565b848460648110612d9657612d95614e47565b5b6020020151612da5919061546e565b9081150290604051600060405180830381858888f19350505050612dfe576040517f08c379a0000000000000000000000000000000000000000000000000000000008152600401612df5906154ee565b60405180910390fd5b6001600087815260200190815260200160002060030160019054906101000a900473ffffffffffffffffffffffffffffffffffffffff1673ffffffffffffffffffffffffffffffffffffffff166108fc848360648110612e6157612e60614e47565b5b6020020151868460648110612e7957612e78614e47565b5b6020020151612e889190615137565b9081150290604051600060405180830381858888f19350505050612ee1576040517f08c379a0000000000000000000000000000000000000000000000000000000008152600401612ed8906154ee565b60405180910390fd5b600180811115612ef457612ef361496b565b5b6001600088815260200190815260200160002060010160009054906101000a900460ff166001811115612f2a57612f2961496b565b5b03612f7857828160648110612f4257612f41614e47565b5b6020020151600260008381526020019081526020016000206004016000828254612f6c9190614fdf565b92505081905550613016565b60006001811115612f8c57612f8b61496b565b5b6001600088815260200190815260200160002060010160009054906101000a900460ff166001811115612fc257612fc161496b565b5b0361301057828160648110612fda57612fd9614e47565b5b60200201516002600083815260200190815260200160002060020160008282546130049190614fdf565b92505081905550613015565b600080fd5b5b61301f81614427565b5b808061302b90615276565b915050612c65565b505b6000600560006001600089815260200190815260200160002060030160019054906101000a900473ffffffffffffffffffffffffffffffffffffffff1673ffffffffffffffffffffffffffffffffffffffff1673ffffffffffffffffffffffffffffffffffffffff1681526020019081526020016000208054905011156131e457600560006001600088815260200190815260200160002060030160019054906101000a900473ffffffffffffffffffffffffffffffffffffffff1673ffffffffffffffffffffffffffffffffffffffff1673ffffffffffffffffffffffffffffffffffffffff16815260200190815260200160002080548061313b5761313a61586e565b5b60019003818190600052602060002090600b0201600080820160009055600182016000905560028201600090556003820160009055600482016000905560058201600090556006820160009055600782016000905560088201600090556009820160009055600a820160006101000a81549060ff0219169055600a820160016101000a81549073ffffffffffffffffffffffffffffffffffffffff021916905550509055613035565b429350505050919050565b60008173ffffffffffffffffffffffffffffffffffffffff163373ffffffffffffffffffffffffffffffffffffffff161461325f576040517f08c379a00000000000000000000000000000000000000000000000000000000081526004016132569061569e565b60405180910390fd5b6008600081548092919061327290615276565b9190505550604051806040016040528060085481526020018373ffffffffffffffffffffffffffffffffffffffff168152506003600060085481526020019081526020016000206000820151816000015560208201518160010160006101000a81548173ffffffffffffffffffffffffffffffffffffffff021916908373ffffffffffffffffffffffffffffffffffffffff1602179055509050506008549050919050565b6060600a805480602002602001604051908101604052809291908181526020016000905b8282101561346c578382906000526020600020906007020160405180610100016040529081600082015481526020016001820160009054906101000a900460ff16600181111561338e5761338d61496b565b5b60018111156133a05761339f61496b565b5b8152602001600282015481526020016003820160009054906101000a900460ff1660028111156133d3576133d261496b565b5b60028111156133e5576133e461496b565b5b81526020016003820160019054906101000a900473ffffffffffffffffffffffffffffffffffffffff1673ffffffffffffffffffffffffffffffffffffffff1673ffffffffffffffffffffffffffffffffffffffff16815260200160048201548152602001600582015481526020016006820154815250508152602001906001019061333b565b50505050905090565b6000600754905090565b60036020528060005260406000206000915090508060000154908060010160009054906101000a900473ffffffffffffffffffffffffffffffffffffffff16905082565b60006001851115613509576040517f08c379a0000000000000000000000000000000000000000000000000000000008152600401613500906158e9565b60405180910390fd5b8273ffffffffffffffffffffffffffffffffffffffff163373ffffffffffffffffffffffffffffffffffffffff1614613577576040517f08c379a000000000000000000000000000000000000000000000000000000000815260040161356e9061569e565b60405180910390fd5b6006600081548092919061358a90615276565b9190505550600060019050600186036135a257600090505b60405180610100016040528060065481526020018260018111156135c9576135c861496b565b5b8152602001868152602001600060028111156135e8576135e761496b565b5b81526020018573ffffffffffffffffffffffffffffffffffffffff1681526020018481526020016000815260200160008152506001600060065481526020019081526020016000206000820151816000015560208201518160010160006101000a81548160ff021916908360018111156136655761366461496b565b5b02179055506040820151816002015560608201518160030160006101000a81548160ff0219169083600281111561369f5761369e61496b565b5b021790555060808201518160030160016101000a81548173ffffffffffffffffffffffffffffffffffffffff021916908373ffffffffffffffffffffffffffffffffffffffff16021790555060a0820151816004015560c0820151816005015560e08201518160060155905050600a60405180610100016040528060065481526020018360018111156137355761373461496b565b5b8152602001878152602001600060028111156137545761375361496b565b5b81526020018673ffffffffffffffffffffffffffffffffffffffff16815260200185815260200160008152602001600081525090806001815401808255809150506001900390600052602060002090600702016000909190919091506000820151816000015560208201518160010160006101000a81548160ff021916908360018111156137e5576137e461496b565b5b02179055506040820151816002015560608201518160030160006101000a81548160ff0219169083600281111561381f5761381e61496b565b5b021790555060808201518160030160016101000a81548173ffffffffffffffffffffffffffffffffffffffff021916908373ffffffffffffffffffffffffffffffffffffffff16021790555060a0820151816004015560c0820151816005015560e082015181600601555050600654915050949350505050565b60016020528060005260406000206000915090508060000154908060010160009054906101000a900460ff16908060020154908060030160009054906101000a900460ff16908060030160019054906101000a900473ffffffffffffffffffffffffffffffffffffffff16908060040154908060050154908060060154905088565b6000600654831115613962576040517f08c379a000000000000000000000000000000000000000000000000000000000815260040161395990614dbb565b60405180910390fd5b3373ffffffffffffffffffffffffffffffffffffffff166001600085815260200190815260200160002060030160019054906101000a900473ffffffffffffffffffffffffffffffffffffffff1673ffffffffffffffffffffffffffffffffffffffff1614613a06576040517f08c379a00000000000000000000000000000000000000000000000000000000081526004016139fd9061544e565b60405180910390fd5b81600160008581526020019081526020016000206002016000828254613a2c9190614fdf565b925050819055506001600084815260200190815260200160002060020154905092915050565b600081831015613a625782613a64565b815b905092915050565b6000600754861115613ab3576040517f08c379a0000000000000000000000000000000000000000000000000000000008152600401613aaa90614dbb565b60405180910390fd5b600654851115613af8576040517f08c379a0000000000000000000000000000000000000000000000000000000008152600401613aef90614dbb565b60405180910390fd5b6002600087815260200190815260200160002060070160009054906101000a900473ffffffffffffffffffffffffffffffffffffffff1673ffffffffffffffffffffffffffffffffffffffff163373ffffffffffffffffffffffffffffffffffffffff1614613b9c576040517f08c379a0000000000000000000000000000000000000000000000000000000008152600401613b939061544e565b60405180910390fd5b60006001811115613bb057613baf61496b565b5b6001600087815260200190815260200160002060010160009054906101000a900460ff166001811115613be657613be561496b565b5b03613c485784600260008881526020019081526020016000206001015414613c43576040517f08c379a0000000000000000000000000000000000000000000000000000000008152600401613c3a90615955565b60405180910390fd5b613ca1565b84600260008881526020019081526020016000206003015414613ca0576040517f08c379a0000000000000000000000000000000000000000000000000000000008152600401613c9790615955565b60405180910390fd5b5b600160008681526020019081526020016000206004015460016000878152602001908152602001600020600501541115613d10576040517f08c379a0000000000000000000000000000000000000000000000000000000008152600401613d07906159c1565b60405180910390fd5b6000600180811115613d2557613d2461496b565b5b6001600088815260200190815260200160002060010160009054906101000a900460ff166001811115613d5b57613d5a61496b565b5b03613dbb5760006002600089815260200190815260200160002060030154905060026000898152602001908152602001600020600401546001600083815260200190815260200160002060020154613db39190614fdf565b915050613e12565b60006002600089815260200190815260200160002060010154905060026000898152602001908152602001600020600201546001600083815260200190815260200160002060020154613e0e9190614fdf565b9150505b600560006001600089815260200190815260200160002060030160019054906101000a900473ffffffffffffffffffffffffffffffffffffffff1673ffffffffffffffffffffffffffffffffffffffff1673ffffffffffffffffffffffffffffffffffffffff1681526020019081526020016000206040518061018001604052806000815260200160008152602001600081526020018781526020018681526020018581526020018381526020018981526020018881526020013481526020016000151581526020013373ffffffffffffffffffffffffffffffffffffffff1681525090806001815401808255809150506001900390600052602060002090600b0201600090919091909150600082015181600001556020820151816001015560408201518160020155606082015181600301556080820151816004015560a0820151816005015560c0820151816006015560e082015181600701556101008201518160080155610120820151816009015561014082015181600a0160006101000a81548160ff02191690831515021790555061016082015181600a0160016101000a81548173ffffffffffffffffffffffffffffffffffffffff021916908373ffffffffffffffffffffffffffffffffffffffff1602179055505050600180600088815260200190815260200160002060050160008282546140159190614fdf565b925050819055507f8a06846852690683a485d2a83db8d92c70d8aaaf4693c2c3b223705fb4c9162787878787876040516140539594939291906159f0565b60405180910390a18091505095945050505050565b6000600854905090565b60006006548211156140b9576040517f08c379a00000000000000000000000000000000000000000000000000000000081526004016140b09061555a565b60405180910390fd5b600160028111156140cd576140cc61496b565b5b6001600084815260200190815260200160002060030160009054906101000a900460ff1660028111156141035761410261496b565b5b1461410d57600080fd5b6001600083815260200190815260200160002060030160019054906101000a900473ffffffffffffffffffffffffffffffffffffffff1673ffffffffffffffffffffffffffffffffffffffff163373ffffffffffffffffffffffffffffffffffffffff16146141b1576040517f08c379a00000000000000000000000000000000000000000000000000000000081526004016141a89061584e565b60405180910390fd5b60026001600084815260200190815260200160002060030160006101000a81548160ff021916908360028111156141eb576141ea61496b565b5b02179055507f69544aaad545cf5ab110398ad6cac7ee4773f2f30c068350793e6cf82805d70f8242604051614221929190615a43565b60405180910390a1429050919050565b6000600654821115614278576040517f08c379a000000000000000000000000000000000000000000000000000000000815260040161426f9061555a565b60405180910390fd5b6000600281111561428c5761428b61496b565b5b6001600084815260200190815260200160002060030160009054906101000a900460ff1660028111156142c2576142c161496b565b5b146142cc57600080fd5b6001600083815260200190815260200160002060030160019054906101000a900473ffffffffffffffffffffffffffffffffffffffff1673ffffffffffffffffffffffffffffffffffffffff163373ffffffffffffffffffffffffffffffffffffffff1614614370576040517f08c379a00000000000000000000000000000000000000000000000000000000081526004016143679061584e565b60405180910390fd5b600180600084815260200190815260200160002060030160006101000a81548160ff021916908360028111156143a9576143a861496b565b5b021790555060006001600084815260200190815260200160002060050181905550600060016000848152602001908152602001600020600601819055507f97f3c1cfc906cded5a31e7f64d905dd3bce10ac469b77d540f9b6f7fd0267ed88242604051614417929190615a43565b60405180910390a1429050919050565b600061445f60026000848152602001908152602001600020600401546002600085815260200190815260200160002060020154613a52565b905080600260008481526020019081526020016000206004016000828254614487919061546e565b92505081905550806002600084815260200190815260200160002060020160008282546144b4919061546e565b92505081905550806002600084815260200190815260200160002060050160008282546144e19190614fdf565b925050819055505050565b60405180610c800160405280606490602082028036833780820191505090505090565b6000819050919050565b6145228161450f565b82525050565b600060208201905061453d6000830184614519565b92915050565b600080fd5b6145518161450f565b811461455c57600080fd5b50565b60008135905061456e81614548565b92915050565b600080600080600060a086880312156145905761458f614543565b5b600061459e8882890161455f565b95505060206145af8882890161455f565b94505060406145c08882890161455f565b93505060606145d18882890161455f565b92505060806145e28882890161455f565b9150509295509295909350565b60008115159050919050565b614604816145ef565b82525050565b600060208201905061461f60008301846145fb565b92915050565b6000806000806080858703121561463f5761463e614543565b5b600061464d8782880161455f565b945050602061465e8782880161455f565b935050604061466f8782880161455f565b92505060606146808782880161455f565b91505092959194509250565b600073ffffffffffffffffffffffffffffffffffffffff82169050919050565b60006146b78261468c565b9050919050565b6146c7816146ac565b81146146d257600080fd5b50565b6000813590506146e4816146be565b92915050565b6000806000806080858703121561470457614703614543565b5b6000614712878288016146d5565b94505060206147238782880161455f565b93505060406147348782880161455f565b92505060606147458782880161455f565b91505092959194509250565b60006020828403121561476757614766614543565b5b60006147758482850161455f565b91505092915050565b60006060820190506147936000830186614519565b6147a06020830185614519565b6147ad6040830184614519565b949350505050565b6147be816146ac565b82525050565b60006020820190506147d960008301846147b5565b92915050565b60006147ea8261468c565b9050919050565b6147fa816147df565b82525050565b600061010082019050614816600083018b614519565b614823602083018a614519565b6148306040830189614519565b61483d6060830188614519565b61484a6080830187614519565b61485760a0830186614519565b61486460c0830185614519565b61487160e08301846147f1565b9998505050505050505050565b6000806040838503121561489557614894614543565b5b60006148a38582860161455f565b92505060206148b48582860161455f565b9150509250929050565b60006080820190506148d36000830187614519565b6148e06020830186614519565b6148ed6040830185614519565b6148fa6060830184614519565b95945050505050565b60006020828403121561491957614918614543565b5b6000614927848285016146d5565b91505092915050565b600081519050919050565b600082825260208201905092915050565b6000819050602082019050919050565b6149658161450f565b82525050565b7f4e487b7100000000000000000000000000000000000000000000000000000000600052602160045260246000fd5b600281106149ab576149aa61496b565b5b50565b60008190506149bc8261499a565b919050565b60006149cc826149ae565b9050919050565b6149dc816149c1565b82525050565b600381106149f3576149f261496b565b5b50565b6000819050614a04826149e2565b919050565b6000614a14826149f6565b9050919050565b614a2481614a09565b82525050565b614a33816147df565b82525050565b61010082016000820151614a50600085018261495c565b506020820151614a6360208501826149d3565b506040820151614a76604085018261495c565b506060820151614a896060850182614a1b565b506080820151614a9c6080850182614a2a565b5060a0820151614aaf60a085018261495c565b5060c0820151614ac260c085018261495c565b5060e0820151614ad560e085018261495c565b50505050565b6000614ae78383614a39565b6101008301905092915050565b6000602082019050919050565b6000614b0c82614930565b614b16818561493b565b9350614b218361494c565b8060005b83811015614b52578151614b398882614adb565b9750614b4483614af4565b925050600181019050614b25565b5085935050505092915050565b60006020820190508181036000830152614b798184614b01565b905092915050565b6000604082019050614b966000830185614519565b614ba360208301846147f1565b9392505050565b60008060008060808587031215614bc457614bc3614543565b5b6000614bd28782880161455f565b9450506020614be38782880161455f565b9350506040614bf4878288016146d5565b9250506060614c058782880161455f565b91505092959194509250565b614c1a816149c1565b82525050565b614c2981614a09565b82525050565b600061010082019050614c45600083018b614519565b614c52602083018a614c11565b614c5f6040830189614519565b614c6c6060830188614c20565b614c7960808301876147f1565b614c8660a0830186614519565b614c9360c0830185614519565b614ca060e0830184614519565b9998505050505050505050565b6000819050919050565b614cc081614cad565b8114614ccb57600080fd5b50565b600081359050614cdd81614cb7565b92915050565b600080600080600060a08688031215614cff57614cfe614543565b5b6000614d0d8882890161455f565b9550506020614d1e8882890161455f565b9450506040614d2f88828901614cce565b9350506060614d4088828901614cce565b9250506080614d5188828901614cce565b9150509295509295909350565b600082825260208201905092915050565b7f496e76616c696420494400000000000000000000000000000000000000000000600082015250565b6000614da5600a83614d5e565b9150614db082614d6f565b602082019050919050565b60006020820190508181036000830152614dd481614d98565b9050919050565b7f52657665616c207068617365206e6f7420676f696e67206f6e00000000000000600082015250565b6000614e11601983614d5e565b9150614e1c82614ddb565b602082019050919050565b60006020820190508181036000830152614e4081614e04565b9050919050565b7f4e487b7100000000000000000000000000000000000000000000000000000000600052603260045260246000fd5b7f42696420616c72656164792072657665616c6564000000000000000000000000600082015250565b6000614eac601483614d5e565b9150614eb782614e76565b602082019050919050565b60006020820190508181036000830152614edb81614e9f565b9050919050565b6000819050919050565b614efd614ef88261450f565b614ee2565b82525050565b6000614f0f8284614eec565b60208201915081905092915050565b7f496e636f7272656374206b6579202d2d206b656570696e6720796f7572206d6f60008201527f6e65790000000000000000000000000000000000000000000000000000000000602082015250565b6000614f7a602383614d5e565b9150614f8582614f1e565b604082019050919050565b60006020820190508181036000830152614fa981614f6d565b9050919050565b7f4e487b7100000000000000000000000000000000000000000000000000000000600052601160045260246000fd5b6000614fea8261450f565b9150614ff58361450f565b925082820190508082111561500d5761500c614fb0565b5b92915050565b7f496e636f7272656374207072696365202d2d206b656570696e6720796f75722060008201527f6d6f6e6579000000000000000000000000000000000000000000000000000000602082015250565b600061506f602583614d5e565b915061507a82615013565b604082019050919050565b6000602082019050818103600083015261509e81615062565b9050919050565b7f496e636f7272656374207175616e74697479202d2d206b656570696e6720796f60008201527f7572206d6f6e6579000000000000000000000000000000000000000000000000602082015250565b6000615101602883614d5e565b915061510c826150a5565b604082019050919050565b60006020820190508181036000830152615130816150f4565b9050919050565b60006151428261450f565b915061514d8361450f565b9250817fffffffffffffffffffffffffffffffffffffffffffffffffffffffffffffffff048311821515161561518657615185614fb0565b5b828202905092915050565b7f496e73756666696369656e742066756e64732073656e74202d2d206b6565706960008201527f6e6720796f7572206d6f6e657900000000000000000000000000000000000000602082015250565b60006151ed602d83614d5e565b91506151f882615191565b604082019050919050565b6000602082019050818103600083015261521c816151e0565b9050919050565b600060a0820190506152386000830188614519565b6152456020830187614519565b6152526040830186614519565b61525f6060830185614519565b61526c6080830184614519565b9695505050505050565b60006152818261450f565b91507fffffffffffffffffffffffffffffffffffffffffffffffffffffffffffffffff82036152b3576152b2614fb0565b5b600182019050919050565b7f496e76616c696420637573746f6d657200000000000000000000000000000000600082015250565b60006152f4601083614d5e565b91506152ff826152be565b602082019050919050565b60006020820190508181036000830152615323816152e7565b9050919050565b7f436f737420697320686967686572000000000000000000000000000000000000600082015250565b6000615360600e83614d5e565b915061536b8261532a565b602082019050919050565b6000602082019050818103600083015261538f81615353565b9050919050565b7f496e73756666696369656e742066756e64732073656e74000000000000000000600082015250565b60006153cc601783614d5e565b91506153d782615396565b602082019050919050565b600060208201905081810360008301526153fb816153bf565b9050919050565b7f496e636f72726563742049440000000000000000000000000000000000000000600082015250565b6000615438600c83614d5e565b915061544382615402565b602082019050919050565b600060208201905081810360008301526154678161542b565b9050919050565b60006154798261450f565b91506154848361450f565b925082820390508181111561549c5761549b614fb0565b5b92915050565b7f5472616e73616374696f6e206661696c65640000000000000000000000000000600082015250565b60006154d8601283614d5e565b91506154e3826154a2565b602082019050919050565b60006020820190508181036000830152615507816154cb565b9050919050565b7f496e76616c696420737570706c69657221000000000000000000000000000000600082015250565b6000615544601183614d5e565b915061554f8261550e565b602082019050919050565b6000602082019050818103600083015261557381615537565b9050919050565b7f537570706c69657220646f65736e277420737570706c20626f64790000000000600082015250565b60006155b0601b83614d5e565b91506155bb8261557a565b602082019050919050565b600060208201905081810360008301526155df816155a3565b9050919050565b7f537570706c69657220646f65736e277420737570706c20776865656c73000000600082015250565b600061561c601d83614d5e565b9150615627826155e6565b602082019050919050565b6000602082019050818103600083015261564b8161560f565b9050919050565b7f496e76616c6964207369676e2075700000000000000000000000000000000000600082015250565b6000615688600f83614d5e565b915061569382615652565b602082019050919050565b600060208201905081810360008301526156b78161567b565b9050919050565b7f5065726d697373696f6e2064656e696564000000000000000000000000000000600082015250565b60006156f4601183614d5e565b91506156ff826156be565b602082019050919050565b60006020820190508181036000830152615723816156e7565b9050919050565b7f496e76616c696420636172000000000000000000000000000000000000000000600082015250565b6000615760600b83614d5e565b915061576b8261572a565b602082019050919050565b6000602082019050818103600083015261578f81615753565b9050919050565b7f4e6f7420796f7572206361722100000000000000000000000000000000000000600082015250565b60006157cc600d83614d5e565b91506157d782615796565b602082019050919050565b600060208201905081810360008301526157fb816157bf565b9050919050565b7f496e636f72726563742074616700000000000000000000000000000000000000600082015250565b6000615838600d83614d5e565b915061584382615802565b602082019050919050565b600060208201905081810360008301526158678161582b565b9050919050565b7f4e487b7100000000000000000000000000000000000000000000000000000000600052603160045260246000fd5b7f496e76616c696420706172742074797065210000000000000000000000000000600082015250565b60006158d3601283614d5e565b91506158de8261589d565b602082019050919050565b60006020820190508181036000830152615902816158c6565b9050919050565b7f496e636f727265637420737570706c6965720000000000000000000000000000600082015250565b600061593f601283614d5e565b915061594a82615909565b602082019050919050565b6000602082019050818103600083015261596e81615932565b9050919050565b7f4d61782062696473207265636965766564000000000000000000000000000000600082015250565b60006159ab601183614d5e565b91506159b682615975565b602082019050919050565b600060208201905081810360008301526159da8161599e565b9050919050565b6159ea81614cad565b82525050565b600060a082019050615a056000830188614519565b615a126020830187614519565b615a1f60408301866159e1565b615a2c60608301856159e1565b615a3960808301846159e1565b9695505050505050565b6000604082019050615a586000830185614519565b615a656020830184614519565b939250505056fea26469706673582212207ff10f17da45c0518c15f4668bd97d3638b0a181a35b2a6dc4356f3a83c5e53064736f6c63430008100033",
  "immutableReferences": {},
  "source": "// SPDX-License-Identifier: MIT\npragma solidity >=0.8.16;\npragma experimental ABIEncoderV2;\n\n// @title New Market Place\n// @author Kunal Jain, P. Sahithi Reddy, Prince Varshney\n// @notice Market place implementation\ncontract NewMarketPlace {\n    // @dev Enum for the state of the auction the supplier is in\n    // @dev NOT_RUNNING : Auction is not running right now\n    // @dev BIDDING : Bidding phase of auction is going on\n    // @dev REVEALING : Reveal phase of auction is going on\n    enum AuctionState {\n        NOT_RUNNING,\n        BIDDING,\n        REVEALING\n    }\n\n    // @dev Enum for the part type\n    enum PartType {\n        WHEEL,\n        BODY\n    }\n\n    // @dev Stores the details of the supplier\n    struct Supplier {\n        uint256 tag;\n        PartType partType; // part type they are selling\n        uint256 quantityAvailable; // quantity of the part available\n        AuctionState currentState; // currest state of the auction\n        address wallet; // wallet address\n        uint256 maxBidders; // max bidders that can participate in the auction\n        uint256 bidsPlaced; // bids that have been placed\n        uint256 bidsRevealed; // bids that have been revealed\n    }\n\n\n    function isSupplier() public view returns (bool){\n        for(uint256 i=0;i<=num_supplier;i++){\n            if(suppliers[i].wallet == msg.sender) return true;\n        }\n        return false;\n    }\n\n    function getAllSuppliers() public view returns (Supplier[] memory){\n        return allSuppliers;\n    }\n    \n    // @dev Stores the details of the manufacturer\n    struct Manufacturer {\n        uint256 tag;\n        uint256 wheelSupplier; // tag of supplier who supplies wheels\n        uint256 wheelQuant; // number of wheels\n        uint256 bodySupplier; // tag of supplier who supplies body\n        uint256 bodyQuant; // number of bodies\n        uint256 carsAvailable; // number of cars available\n        uint256 carPrice; // price of the cars\n        address wallet; // wallet address\n    }\n\n    function isManufacturer() public view returns (bool){\n        for(uint256 i=0;i<=num_manufacturer;i++){\n            if(manufacturers[i].wallet == msg.sender) return true;\n        }\n        return false;\n    }\n\n    // @dev Stores the details of the cars sold\n    struct Car {\n        uint256 tag;\n        uint256 customerID;\n        uint256 manufacturerID;\n        uint256 wheelSupID;\n        uint256 bodySupID;\n    }\n\n    // @dev Stores the detail of the customer\n    struct Customer {\n        uint256 tag;\n        address wallet;\n    }\n\n    // @dev stores the details of the bids\n    struct Bid {\n        uint256 actualPrice;\n        uint256 actualQuantity;\n        uint256 actualKey;\n        bytes32 blindPrice;\n        bytes32 blindQuantity;\n        bytes32 blindKey;\n        uint256 limitingQuantity;\n        uint256 buyerID;\n        uint256 sellerID;\n        uint256 moneySent;\n        bool correctReveal;\n        address payable bidderAddress;\n    }\n\n    // @dev wallet address of the contract owner\n    address payable public owner;\n\n    mapping(uint256 => Supplier) public suppliers;\n    mapping(uint256 => Manufacturer) public manufacturers;\n    mapping(uint256 => Customer) public customers;\n    mapping(uint256 => Car) cars;\n    mapping(address => Bid[]) bidsTillNow;\n\n    uint256 num_supplier;\n    uint256 num_manufacturer;\n    uint256 num_customer;\n    uint256 num_cars;\n\n    Supplier[] allSuppliers;\n    // @notice Triggered when a supplier starts their bidding phase\n    // @param tag Tag of the supplier\n    // @param timestamp Block height when bidding phase starts\n    event StartSupplierBidding(uint256 tag, uint256 timestamp);\n\n    // @notice Triggered when a supplier starts their reveal phase\n    // @param tag Tag of the supplier\n    // @param timestamp Block height when reveal phase starts\n    event StartSupplierReveal(uint256 tag, uint256 timestamp);\n\n    // @notice Triggered when a supplier suppliers parts to a manufacturer\n    // @param supplierID Tag of the supplier\n    // @param manufacturerID Tag of the manufacturer\n    // @param quantity Quantities supplier\n    // @param price Price per unit\n    event AllocateFromSupplier(\n        uint256 supplierID,\n        uint256 manufacturerID,\n        uint256 quantity,\n        uint256 price\n    );\n\n    // @notice Triggered when a manufacturer places a bid\n    // @param manufacturerID Tag of the manufacturer\n    // @param supplierID Tag of the supplier\n    // @param blindPrice Hash of (Price + Key)\n    // @param blindQuantity Hash of (Quantity + Key)\n    // @param blindKey Hash of Key\n    event ManufacturerBids(\n        uint256 manufacturerID,\n        uint256 supplierID,\n        bytes32 blindPrice,\n        bytes32 blindQuantity,\n        bytes32 blindKey\n    );\n\n    // @notice Triggered when a manufacturer reveals a bid\n    // @param manufacturerID Tag of the manufacturer\n    // @param supplierID Tag of the supplier\n    // @param actualPrice Price per quantity offered in the bid\n    // @param actualQuantity Quantity requested in the bid\n    // @param actualKey Key used to hide the bid\n    event ManufacturerReveal(\n        uint256 manufacturerID,\n        uint256 supplierID,\n        uint256 actualPrice,\n        uint256 actualQuantity,\n        uint256 actualKey\n    );\n\n    // @notice Triggered when a car is sold by the manufacturer to a customer\n    // @param carID Tag of the car sold\n    // @param manufacturerID Tag of the manufacturer\n    // @param customerID Tag of the customer\n    event CarSold(uint256 carID, uint256 manufacturerID, uint256 customerID);\n\n    constructor() {\n        num_cars = 0;\n        num_customer = 0;\n        num_manufacturer = 0;\n        num_supplier = 0;\n        owner = payable(msg.sender);\n    }\n\n    // @dev Function to find the minumum of 2 unsigned integers\n    function minimum(uint256 a, uint256 b) public pure returns (uint256) {\n        return a >= b ? b : a;\n    }\n\n    // @notice Function to start bidding of a supplier\n    // @dev Triggeers StartSupplierBidding event\n    // @param tag Tag of the supplier\n    // @return uint256 Block height when the bidding starts\n    function supplierStartBidding(uint256 tag) public returns (uint256) {\n        require(tag <= num_supplier, \"Invalid supplier!\");\n        require(suppliers[tag].currentState == AuctionState.NOT_RUNNING);\n        require(msg.sender == suppliers[tag].wallet, \"Incorrect tag\");\n        suppliers[tag].currentState = AuctionState.BIDDING;\n        suppliers[tag].bidsPlaced = 0;\n        suppliers[tag].bidsRevealed = 0;\n        emit StartSupplierBidding(tag, block.timestamp);\n        return block.timestamp;\n    }\n\n    // @notice Function to start reveal of a supplier\n    // @dev Triggeers StartSupplierReveal event\n    // @param tag Tag of the supplier\n    // @return uint256 Block height when the reveal starts\n    function supplierStartReveal(uint256 tag) public returns (uint256) {\n        require(tag <= num_supplier, \"Invalid supplier!\");\n        require(suppliers[tag].currentState == AuctionState.BIDDING);\n        require(msg.sender == suppliers[tag].wallet, \"Incorrect tag\");\n        suppliers[tag].currentState = AuctionState.REVEALING;\n        emit StartSupplierReveal(tag, block.timestamp);\n        return block.timestamp;\n    }\n\n    // @notice Function to end the auction of a supplier\n    // @dev Triggers AllocateFromSupplier and back payments on bids\n    // @param tag Tag of the supplier\n    // @return uint256 Block height when the auction ends\n    function supplierEndAuction(uint256 tag) public returns (uint256) {\n        require(tag <= num_supplier, \"Invalid supplier!\");\n        require(suppliers[tag].currentState == AuctionState.REVEALING);\n        require(msg.sender == suppliers[tag].wallet, \"Incorrect tag\");\n        suppliers[tag].currentState = AuctionState.NOT_RUNNING;\n\n        // bubble sorting the bids\n        for (\n            uint256 i = 0;\n            i < bidsTillNow[suppliers[tag].wallet].length;\n            i++\n        ) {\n            for (uint256 j = 0; j < i; j++)\n                if (\n                    bidsTillNow[suppliers[tag].wallet][i].actualPrice <\n                    bidsTillNow[suppliers[tag].wallet][j].actualPrice\n                ) {\n                    Bid memory x = bidsTillNow[suppliers[tag].wallet][i];\n                    bidsTillNow[suppliers[tag].wallet][i] = bidsTillNow[\n                        suppliers[tag].wallet\n                    ][j];\n                    bidsTillNow[suppliers[tag].wallet][j] = x;\n                }\n        }\n\n        // the allocations\n        uint256[100] memory allocatingPrices;\n        uint256[100] memory allocatingQuantities;\n        uint256[100] memory moneySentWithBid;\n\n        // optimal resource allocation\n        for (\n            uint256 i = 0;\n            i < bidsTillNow[suppliers[tag].wallet].length;\n            i++\n        ) {\n            Bid memory bid = bidsTillNow[suppliers[tag].wallet][i];\n            if (bid.correctReveal == false) continue;\n\n            moneySentWithBid[bid.buyerID] = bid.moneySent;\n\n            uint256 allocatingHere = minimum(\n                suppliers[tag].quantityAvailable,\n                bid.limitingQuantity\n            );\n            allocatingHere = minimum(allocatingHere, bid.actualQuantity);\n\n            allocatingPrices[bid.buyerID] = bid.actualPrice;\n            allocatingQuantities[bid.buyerID] = allocatingHere;\n            suppliers[tag].quantityAvailable -= allocatingHere;\n            bidsTillNow[suppliers[tag].wallet][i]\n                .actualQuantity -= allocatingHere;\n        }\n\n        // allocating to maximize profit\n        for (\n            uint256 i = 0;\n            i < bidsTillNow[suppliers[tag].wallet].length;\n            i++\n        ) {\n            Bid memory bid = bidsTillNow[suppliers[tag].wallet][i];\n            if (bid.correctReveal == false) continue;\n            uint256 allocatingHere = minimum(\n                suppliers[tag].quantityAvailable,\n                bid.actualQuantity\n            );\n\n            allocatingQuantities[bid.buyerID] += allocatingHere;\n            suppliers[tag].quantityAvailable -= allocatingHere;\n            bidsTillNow[suppliers[tag].wallet][i]\n                .actualQuantity -= allocatingHere;\n        }\n\n        // emit all allocations\n        for (uint256 i = 1; i <= num_manufacturer; i++)\n            if (allocatingQuantities[i] > 0) {\n                emit AllocateFromSupplier(\n                    tag,\n                    i,\n                    allocatingQuantities[i],\n                    allocatingPrices[i]\n                );\n                // non bid money to manufacturer\n                require(\n                    payable(manufacturers[i].wallet).send(\n                        moneySentWithBid[i] -\n                            allocatingPrices[i] *\n                            allocatingQuantities[i]\n                    ),\n                    \"Transaction failed\"\n                );\n                // bid money to supplier\n                require(\n                    payable(suppliers[tag].wallet).send(\n                        allocatingPrices[i] * allocatingQuantities[i]\n                    ),\n                    \"Transaction failed\"\n                );\n                //update all the manufacturers quanitites to make cars\n                if (suppliers[tag].partType == PartType.BODY) {\n                    manufacturers[i].bodyQuant += allocatingQuantities[i];\n                } else if (suppliers[tag].partType == PartType.WHEEL) {\n                    manufacturers[i].wheelQuant += allocatingQuantities[i];\n                } else revert();\n                updateManufacturerCars(i);\n            }\n        while (bidsTillNow[suppliers[tag].wallet].length > 0)\n            bidsTillNow[suppliers[tag].wallet].pop();\n\n        return block.timestamp;\n    }\n\n    // @dev Updates the cars of a manufacturer based on the quantities of parts it has\n    function updateManufacturerCars(uint256 tag) private {\n        uint256 carsMade = minimum(\n            manufacturers[tag].bodyQuant,\n            manufacturers[tag].wheelQuant\n        );\n        manufacturers[tag].bodyQuant -= carsMade;\n        manufacturers[tag].wheelQuant -= carsMade;\n        manufacturers[tag].carsAvailable += carsMade;\n    }\n\n    // @notice Function for manufacturers to place bids\n    // @dev Triggers ManufacturerBids event\n    // @param manufacturerID Tag of the manufacturer\n    // @param supplierID Tag of the supplier\n    // @param blindPrice Price per unit hidden using the key and SHA256 encryption\n    // @param blindQuantity Quantities requested hidden using the key and SHA256 encryption\n    // @param blindKey Key used to hide the price and quantity\n    // @return limitingQuantity Liming quantity of the manufacturer for optimal resource allocation\n    function manufacturerPlacesBid(\n        uint256 manufacturerID,\n        uint256 supplierID,\n        bytes32 blindPrice,\n        bytes32 blindQuantity,\n        bytes32 blindKey\n    ) public payable returns (uint256 limitingQuantity) {\n        require(manufacturerID <= num_manufacturer, \"Invalid ID\");\n        require(supplierID <= num_supplier, \"Invalid ID\");\n        require(\n            msg.sender == manufacturers[manufacturerID].wallet,\n            \"Incorrect ID\"\n        );\n        if (suppliers[supplierID].partType == PartType.WHEEL) {\n            require(\n                manufacturers[manufacturerID].wheelSupplier == supplierID,\n                \"Incorrect supplier\"\n            );\n        } else {\n            require(\n                manufacturers[manufacturerID].bodySupplier == supplierID,\n                \"Incorrect supplier\"\n            );\n        }\n        require(\n            suppliers[supplierID].bidsPlaced <=\n                suppliers[supplierID].maxBidders,\n            \"Max bids recieved\"\n        );\n        uint256 limiting;\n        if (suppliers[supplierID].partType == PartType.BODY) {\n            uint256 bodySupplier = manufacturers[manufacturerID].bodySupplier;\n            limiting =\n                suppliers[bodySupplier].quantityAvailable +\n                manufacturers[manufacturerID].bodyQuant;\n        } else {\n            uint256 wheelSupplier = manufacturers[manufacturerID].wheelSupplier;\n            limiting =\n                suppliers[wheelSupplier].quantityAvailable +\n                manufacturers[manufacturerID].wheelQuant;\n        }\n        bidsTillNow[suppliers[supplierID].wallet].push(\n            Bid(\n                0,\n                0,\n                0,\n                blindPrice,\n                blindQuantity,\n                blindKey,\n                limiting,\n                manufacturerID,\n                supplierID,\n                msg.value,\n                false,\n                payable(msg.sender)\n            )\n        );\n        suppliers[supplierID].bidsPlaced += 1;\n        emit ManufacturerBids(\n            manufacturerID,\n            supplierID,\n            blindPrice,\n            blindQuantity,\n            blindKey\n        );\n        return limiting;\n    }\n\n    // @notice Function for manufacturers to reveal bids\n    // @dev Triggers ManufacturerReveal event\n    // @param manufacturerID Tag of the manufacturer\n    // @param supplierID Tag of the supplier\n    // @param actualPrice Price per unit\n    // @param actualQuantity Quantities requested\n    // @param actualKey Key used to hide the price and quantity\n    // @return bool Reveal was valid or not\n    function manufacturerRevealsBid(\n        uint256 manufacturerID,\n        uint256 supplierID,\n        uint256 actualPrice,\n        uint256 actualQuantity,\n        uint256 actualKey\n    ) public returns (bool) {\n        require(manufacturerID <= num_manufacturer, \"Invalid ID\");\n        require(supplierID <= num_supplier, \"Invalid ID\");\n        require(\n            suppliers[supplierID].currentState == AuctionState.REVEALING,\n            \"Reveal phase not going on\"\n        );\n        require(\n            manufacturers[manufacturerID].wallet == msg.sender,\n            \"Invalid ID\"\n        );\n        for (\n            uint256 i = 0;\n            i < bidsTillNow[suppliers[supplierID].wallet].length;\n            i++\n        ) {\n            if (\n                bidsTillNow[suppliers[supplierID].wallet][i].buyerID !=\n                manufacturerID\n            ) continue;\n            Bid memory bid = bidsTillNow[suppliers[supplierID].wallet][i];\n            require(bid.correctReveal == false, \"Bid already revealed\");\n            require(\n                keccak256(abi.encodePacked(actualKey)) == bid.blindKey,\n                \"Incorrect key -- keeping your money\"\n            );\n            require(\n                keccak256(abi.encodePacked(actualKey + actualPrice)) ==\n                    bid.blindPrice,\n                \"Incorrect price -- keeping your money\"\n            );\n            require(\n                keccak256(abi.encodePacked(actualKey + actualQuantity)) ==\n                    bid.blindQuantity,\n                \"Incorrect quantity -- keeping your money\"\n            );\n            uint256 effectivePrice = actualPrice * actualQuantity;\n            require(\n                effectivePrice < bid.moneySent,\n                \"Insufficient funds sent -- keeping your money\"\n            );\n            bidsTillNow[suppliers[supplierID].wallet][i].correctReveal = true;\n            bidsTillNow[suppliers[supplierID].wallet][i]\n                .actualPrice = actualPrice;\n            bidsTillNow[suppliers[supplierID].wallet][i]\n                .actualQuantity = actualQuantity;\n            bidsTillNow[suppliers[supplierID].wallet][i].actualKey = actualKey;\n            suppliers[supplierID].bidsRevealed += 1;\n            emit ManufacturerReveal(\n                manufacturerID,\n                supplierID,\n                actualPrice,\n                actualQuantity,\n                actualKey\n            );\n            return true;\n        }\n        return false;\n    }\n\n    // @notice Function for customers to buy cars\n    // @dev Triggers CarSold event\n    // @param customerID Tag of the customer\n    // @param manufacturerID Tag of the manufacturer\n    // @param priceOfferedPerCar Price per unit\n    // @param quantityRequested Quantities requested\n    // @return uint256 Quantity supplied\n    function customerBuysCar(\n        uint256 customerID,\n        uint256 manufacturerID,\n        uint256 priceOfferedPerCar,\n        uint256 quantityRequested\n    ) public payable returns (uint256) {\n        require(customerID <= num_customer, \"Invalid customer\");\n        require(manufacturerID <= num_manufacturer, \"Invalid customer\");\n        require(\n            priceOfferedPerCar >= manufacturers[manufacturerID].carPrice,\n            \"Cost is higher\"\n        );\n        require(\n            msg.value >= priceOfferedPerCar * quantityRequested,\n            \"Insufficient funds sent\"\n        );\n        require(\n            msg.sender == payable(customers[customerID].wallet),\n            \"Incorrect ID\"\n        );\n        uint256 selling = minimum(\n            quantityRequested,\n            manufacturers[manufacturerID].carsAvailable\n        );\n        for (uint256 i = 0; i < selling; i++) {\n            num_cars++;\n            cars[num_cars] = Car(\n                num_cars,\n                customerID,\n                manufacturerID,\n                manufacturers[manufacturerID].wheelSupplier,\n                manufacturers[manufacturerID].bodySupplier\n            );\n            emit CarSold(num_cars, manufacturerID, customerID);\n        }\n        manufacturers[manufacturerID].carsAvailable -= selling;\n        require(\n            payable(manufacturers[manufacturerID].wallet).send(\n                selling * priceOfferedPerCar\n            ),\n            \"Transaction failed\"\n        );\n        require(\n            payable(msg.sender).send(msg.value - selling * priceOfferedPerCar),\n            \"Transaction failed\"\n        );\n        return selling;\n    }\n\n    // @notice Verify details of your car\n    // @param customerID Tag of the customer\n    // @param carID Tag of the car\n    // @return id Tag of the car\n    // @return manufacturerID Tag of the manufacturer who sold the car\n    // @return wheelSupplier Tag of wheel supplier\n    // @return bodySupplier Tag of body supplier\n    function verifyCar(uint256 customerID, uint256 carID)\n        public\n        view\n        returns (\n            uint256 id,\n            uint256 manufacturerID,\n            uint256 wheelSupplier,\n            uint256 bodySupplier\n        )\n    {\n        require(customerID <= num_customer, \"Invalid car\");\n        require(customers[customerID].wallet == msg.sender, \"Incorrect ID\");\n        require(carID <= num_cars, \"Invalid car\");\n        require(cars[carID].customerID == customerID, \"Not your car!\");\n        return (\n            carID,\n            cars[carID].manufacturerID,\n            cars[carID].wheelSupID,\n            cars[carID].bodySupID\n        );\n    }\n\n    // @notice Add a supplier to the supply chain\n    // @param partType Type of the part supplier is going to provide. 0 for body and 1 for wheels\n    // @param quantityAvailable Quantity available with the supplier\n    // @param addr Wallet address of the supplier\n    // @param auctionBidders Number of people that can bid in it's auction\n    // @return Tag of the supplier added\n    function addSupplier(\n        uint256 partType,\n        uint256 quantityAvailable,\n        address payable addr,\n        uint256 auctionBidders\n    ) public payable returns (uint256 tag) {\n        require(partType <= 1, \"Invalid part type!\");\n        require(msg.sender == addr, \"Invalid sign up\");\n        num_supplier++;\n        PartType here = PartType.BODY;\n        if (partType == 1) here = PartType.WHEEL;\n        suppliers[num_supplier] = Supplier(\n            num_supplier,\n            here,\n            quantityAvailable,\n            AuctionState.NOT_RUNNING,\n            addr,\n            auctionBidders,\n            0,\n            0\n        );\n        allSuppliers.push(Supplier(\n            num_supplier,\n            here,\n            quantityAvailable,\n            AuctionState.NOT_RUNNING,\n            addr,\n            auctionBidders,\n            0,\n            0\n        ));\n        return num_supplier;\n    }\n\n    // @notice Update the quantity available with a supplier\n    // @param tag Tag of the supplier\n    // @param newQuantity New quantity to add\n    // @return Final total quantity with the supplier\n    function updateSupplierQuantity(uint256 tag, uint256 newQuantity)\n        public\n        returns (uint256 totalQuantity)\n    {\n        require(tag <= num_supplier, \"Invalid ID\");\n        require(suppliers[tag].wallet == msg.sender, \"Incorrect ID\");\n        suppliers[tag].quantityAvailable += newQuantity;\n        return suppliers[tag].quantityAvailable;\n    }\n\n    // @notice Add a supplier to the supply chain\n    // @param addr Wallet address of the supplier\n    // @param wheelSupplier Tag of supplier to buy wheels from\n    // @param bodySupplier Tag of supplier to buy body from\n    // @param askingPrice Minimum asking price for the cars\n    // @return Tag of the manufacturer added\n    function addManufacturer(\n        address payable addr,\n        uint256 wheelSupplier,\n        uint256 bodySupplier,\n        uint256 askingPrice\n    ) public returns (uint256 tag) {\n        require(\n            wheelSupplier >= 1 && wheelSupplier <= num_supplier,\n            \"Invalid supplier!\"\n        );\n        require(\n            bodySupplier >= 1 && bodySupplier <= num_supplier,\n            \"Invalid supplier!\"\n        );\n        require(\n            suppliers[bodySupplier].partType == PartType.BODY,\n            \"Supplier doesn't suppl body\"\n        );\n        require(\n            suppliers[wheelSupplier].partType == PartType.WHEEL,\n            \"Supplier doesn't suppl wheels\"\n        );\n        require(msg.sender == addr, \"Invalid sign up\");\n        num_manufacturer++;\n        manufacturers[num_manufacturer] = Manufacturer(\n            num_manufacturer,\n            wheelSupplier,\n            0,\n            bodySupplier,\n            0,\n            0,\n            askingPrice,\n            addr\n        );\n        return num_manufacturer;\n    }\n\n    // @notice Add a supplier to the supply chain\n    // @param addr Wallet address of the supplier\n    // @return Tag of the customer added\n    function addCustomer(address payable addr) public returns (uint256 tag) {\n        require(msg.sender == addr, \"Invalid sign up\");\n        num_customer++;\n        customers[num_customer] = Customer(num_customer, addr);\n        return num_customer;\n    }\n\n    // @notice Get the number of suppliers\n    // @return uint256 Number of suppliers\n    function getSuppliers() public view returns (uint256) {\n        return num_supplier;\n    }\n\n    // @notice Get the number of manufacturers\n    // @return uint256 Number of manufacturers\n    function getManufacturers() public view returns (uint256) {\n        return num_manufacturer;\n    }\n\n    // @notice Get the number of customers\n    // @return uint256 Number of customers\n    function getCustomers() public view returns (uint256) {\n        return num_customer;\n    }\n\n    // @notice Get the number of cars\n    // @return uint256 Number of cars\n    function getCars() public view returns (uint256) {\n        return num_cars;\n    }\n\n    // @notice Get quantity of each part and car with a manufacturer\n    // @return uint256 Number of suppliers\n    function getManufacturerQuantities(uint256 tag)\n        public\n        view\n        returns (\n            uint256 quantityWheel,\n            uint256 quantityBody,\n            uint256 quantityCar\n        )\n    {\n        require(tag <= num_manufacturer);\n        require(\n            (msg.sender == owner || msg.sender == manufacturers[tag].wallet),\n            \"Permission denied\"\n        );\n        return (\n            manufacturers[tag].wheelQuant,\n            manufacturers[tag].bodyQuant,\n            manufacturers[tag].carsAvailable\n        );\n    }\n}\n",
  "sourcePath": "/home/prince/Course_M22/BLOCKCHAIN/Supply-Chain-Smartcontract/contracts/MarketPlace2.sol",
  "compiler": {
    "name": "solc",
    "version": "0.8.16+commit.07a7930e.Emscripten.clang"
  },
  "schemaVersion": "3.4.8",
  "updatedAt": "2022-09-14T10:00:24.643Z",
  "networkType": "ethereum",
  "devdoc": {
    "kind": "dev",
    "methods": {},
    "version": 1
  },
  "userdoc": {
    "kind": "user",
    "methods": {},
    "version": 1
  }
}