{
  "contractName": "FirstAuction",
  "abi": [
    {
      "inputs": [
        {
          "internalType": "uint256",
          "name": "bidders",
          "type": "uint256"
        }
      ],
      "name": "setBidders",
      "outputs": [],
      "stateMutability": "nonpayable",
      "type": "function"
    },
    {
      "inputs": [
        {
          "internalType": "bytes32",
          "name": "blindPrice",
          "type": "bytes32"
        },
        {
          "internalType": "bytes32",
          "name": "blindQuantity",
          "type": "bytes32"
        },
        {
          "internalType": "address",
          "name": "bidder",
          "type": "address"
        },
        {
          "internalType": "uint256",
          "name": "limitingResource",
          "type": "uint256"
        }
      ],
      "name": "makeBid",
      "outputs": [],
      "stateMutability": "nonpayable",
      "type": "function"
    },
    {
      "inputs": [
        {
          "internalType": "uint256",
          "name": "bidPrice",
          "type": "uint256"
        },
        {
          "internalType": "uint256",
          "name": "bidQuantity",
          "type": "uint256"
        }
      ],
      "name": "revealBid",
      "outputs": [],
      "stateMutability": "nonpayable",
      "type": "function"
    }
  ],
  "bytecode": "0x608060405260008055600060015534801561001957600080fd5b50610387806100296000396000f3fe608060405234801561001057600080fd5b50600436106100415760003560e01c806330b130451461004657806372543923146100625780637a9353701461007e575b600080fd5b610060600480360381019061005b919061027d565b61009a565b005b61007c600480360381019061007791906102e4565b6101a0565b005b61009860048036038101906100939190610311565b6101aa565b005b6040518060c0016040528060008152602001600081526020018373ffffffffffffffffffffffffffffffffffffffff16815260200185815260200184815260200182815250600260008473ffffffffffffffffffffffffffffffffffffffff1673ffffffffffffffffffffffffffffffffffffffff168152602001908152602001600020600082015181600001556020820151816001015560408201518160020160006101000a81548173ffffffffffffffffffffffffffffffffffffffff021916908373ffffffffffffffffffffffffffffffffffffffff160217905550606082015181600301556080820151816004015560a0820151816005015590505050505050565b8060008190555050565b5050565b600080fd5b6000819050919050565b6101c6816101b3565b81146101d157600080fd5b50565b6000813590506101e3816101bd565b92915050565b600073ffffffffffffffffffffffffffffffffffffffff82169050919050565b6000610214826101e9565b9050919050565b61022481610209565b811461022f57600080fd5b50565b6000813590506102418161021b565b92915050565b6000819050919050565b61025a81610247565b811461026557600080fd5b50565b60008135905061027781610251565b92915050565b60008060008060808587031215610297576102966101ae565b5b60006102a5878288016101d4565b94505060206102b6878288016101d4565b93505060406102c787828801610232565b92505060606102d887828801610268565b91505092959194509250565b6000602082840312156102fa576102f96101ae565b5b600061030884828501610268565b91505092915050565b60008060408385031215610328576103276101ae565b5b600061033685828601610268565b925050602061034785828601610268565b915050925092905056fea2646970667358221220daf8202a290a196fdc75af67ea21b31aad5e4513c0714fc462f30acc1ec4865364736f6c63430008100033",
  "immutableReferences": {},
  "source": "pragma solidity >=0.8.16;\n\ncontract FirstAuction {\n    struct Bid {\n        uint256 valuePrice;\n        uint256 valueQuantity;\n        address payable bidderAddress;\n        bytes32 blindBidPrice; // will have price and quantity you are bidding  \n        bytes32 blindBidQuantity;\n        uint limitingResourceQuantity;\n    }\n    uint totalBidders = 0;\n    uint bidsTillNow = 0;\n\n    mapping (address => Bid) bids;\n\n    function setBidders(uint bidders) public {\n        totalBidders = bidders;\n    }\n\n    function makeBid(bytes32 blindPrice, bytes32 blindQuantity, address bidder, uint limitingResource) public {\n        bids[bidder] = Bid(0, 0, payable(bidder), blindPrice, blindQuantity, limitingResource);\n    }\n\n    function revealBid(uint bidPrice, uint bidQuantity) public {\n\n    }\n\n}",
  "sourcePath": "/home/kjain1810/Desktop/padhai/sem7/dtb/Supply-Chain-Smartcontract/contracts/auction.sol",
  "compiler": {
    "name": "solc",
    "version": "0.8.16+commit.07a7930e.Emscripten.clang"
  },
  "schemaVersion": "3.4.9",
  "updatedAt": "2022-08-31T11:41:04.899Z",
  "devdoc": {
    "kind": "dev",
    "methods": {},
    "version": 1
  },
  "userdoc": {
    "kind": "user",
    "methods": {},
    "version": 1
  }
}