{
  "contractName": "Marketplace",
  "abi": [
    {
      "inputs": [],
      "stateMutability": "nonpayable",
      "type": "constructor"
    },
    {
      "anonymous": false,
      "inputs": [
        {
          "indexed": false,
          "internalType": "uint256",
          "name": "manufacturerID",
          "type": "uint256"
        },
        {
          "indexed": false,
          "internalType": "uint256",
          "name": "customerID",
          "type": "uint256"
        },
        {
          "indexed": false,
          "internalType": "uint256",
          "name": "quantity",
          "type": "uint256"
        },
        {
          "indexed": false,
          "internalType": "uint256",
          "name": "price",
          "type": "uint256"
        },
        {
          "indexed": false,
          "internalType": "uint256[100]",
          "name": "carTag",
          "type": "uint256[100]"
        }
      ],
      "name": "AllocateFromManufacturer",
      "type": "event"
    },
    {
      "anonymous": false,
      "inputs": [
        {
          "indexed": false,
          "internalType": "uint256",
          "name": "supplierID",
          "type": "uint256"
        },
        {
          "indexed": false,
          "internalType": "uint256",
          "name": "manufacturerID",
          "type": "uint256"
        },
        {
          "indexed": false,
          "internalType": "uint256",
          "name": "quantity",
          "type": "uint256"
        },
        {
          "indexed": false,
          "internalType": "uint256",
          "name": "price",
          "type": "uint256"
        }
      ],
      "name": "AllocateFromSupplier",
      "type": "event"
    },
    {
      "anonymous": false,
      "inputs": [
        {
          "indexed": false,
          "internalType": "uint256",
          "name": "manufacturerID",
          "type": "uint256"
        },
        {
          "indexed": false,
          "internalType": "uint256",
          "name": "customerID",
          "type": "uint256"
        },
        {
          "indexed": false,
          "internalType": "bytes32",
          "name": "blindBid",
          "type": "bytes32"
        }
      ],
      "name": "CustomerBid",
      "type": "event"
    },
    {
      "anonymous": false,
      "inputs": [
        {
          "indexed": false,
          "internalType": "uint256",
          "name": "CustomerID",
          "type": "uint256"
        },
        {
          "indexed": false,
          "internalType": "uint256",
          "name": "ManufacturerID",
          "type": "uint256"
        },
        {
          "indexed": false,
          "internalType": "uint256",
          "name": "Quantity",
          "type": "uint256"
        },
        {
          "indexed": false,
          "internalType": "uint256",
          "name": "Price",
          "type": "uint256"
        }
      ],
      "name": "CustomerRequest",
      "type": "event"
    },
    {
      "anonymous": false,
      "inputs": [
        {
          "indexed": false,
          "internalType": "uint256",
          "name": "manufacturerID",
          "type": "uint256"
        },
        {
          "indexed": false,
          "internalType": "uint256",
          "name": "customerID",
          "type": "uint256"
        },
        {
          "indexed": false,
          "internalType": "uint256",
          "name": "price",
          "type": "uint256"
        },
        {
          "indexed": false,
          "internalType": "uint256",
          "name": "quantity",
          "type": "uint256"
        }
      ],
      "name": "CustomerReveal",
      "type": "event"
    },
    {
      "anonymous": false,
      "inputs": [
        {
          "indexed": false,
          "internalType": "uint256",
          "name": "manufacturerID",
          "type": "uint256"
        },
        {
          "indexed": false,
          "internalType": "uint256",
          "name": "endTime",
          "type": "uint256"
        }
      ],
      "name": "EndManufacturerAuction",
      "type": "event"
    },
    {
      "anonymous": false,
      "inputs": [
        {
          "indexed": false,
          "internalType": "uint256",
          "name": "supplierID",
          "type": "uint256"
        },
        {
          "indexed": false,
          "internalType": "uint256",
          "name": "endTime",
          "type": "uint256"
        }
      ],
      "name": "EndSupplierAuction",
      "type": "event"
    },
    {
      "anonymous": false,
      "inputs": [
        {
          "indexed": false,
          "internalType": "uint256",
          "name": "supplierID",
          "type": "uint256"
        },
        {
          "indexed": false,
          "internalType": "uint256",
          "name": "manufacturerID",
          "type": "uint256"
        },
        {
          "indexed": false,
          "internalType": "bytes32",
          "name": "blindBidPrice",
          "type": "bytes32"
        },
        {
          "indexed": false,
          "internalType": "bytes32",
          "name": "blindBidQuantity",
          "type": "bytes32"
        }
      ],
      "name": "ManufacturerBids",
      "type": "event"
    },
    {
      "anonymous": false,
      "inputs": [
        {
          "indexed": false,
          "internalType": "uint256",
          "name": "supplierID",
          "type": "uint256"
        },
        {
          "indexed": false,
          "internalType": "uint256",
          "name": "manufacturerID",
          "type": "uint256"
        },
        {
          "indexed": false,
          "internalType": "uint256",
          "name": "price",
          "type": "uint256"
        },
        {
          "indexed": false,
          "internalType": "uint256",
          "name": "quantity",
          "type": "uint256"
        }
      ],
      "name": "ManufacturerReveal",
      "type": "event"
    },
    {
      "anonymous": false,
      "inputs": [
        {
          "indexed": false,
          "internalType": "uint256",
          "name": "manufacturerID",
          "type": "uint256"
        },
        {
          "indexed": false,
          "internalType": "uint256",
          "name": "startTime",
          "type": "uint256"
        }
      ],
      "name": "StartManufacturerAuction",
      "type": "event"
    },
    {
      "anonymous": false,
      "inputs": [
        {
          "indexed": false,
          "internalType": "uint256",
          "name": "supplierID",
          "type": "uint256"
        },
        {
          "indexed": false,
          "internalType": "uint256",
          "name": "startTime",
          "type": "uint256"
        }
      ],
      "name": "StartSupplierAuction",
      "type": "event"
    },
    {
      "inputs": [
        {
          "internalType": "uint256",
          "name": "",
          "type": "uint256"
        }
      ],
      "name": "customers",
      "outputs": [
        {
          "internalType": "uint256",
          "name": "_tag",
          "type": "uint256"
        },
        {
          "internalType": "address",
          "name": "wallet",
          "type": "address"
        }
      ],
      "stateMutability": "view",
      "type": "function",
      "constant": true
    },
    {
      "inputs": [
        {
          "internalType": "uint256",
          "name": "",
          "type": "uint256"
        }
      ],
      "name": "manufacturers",
      "outputs": [
        {
          "internalType": "uint256",
          "name": "_tag",
          "type": "uint256"
        },
        {
          "internalType": "uint256",
          "name": "quantityA",
          "type": "uint256"
        },
        {
          "internalType": "uint256",
          "name": "quantityB",
          "type": "uint256"
        },
        {
          "internalType": "uint256",
          "name": "cars",
          "type": "uint256"
        },
        {
          "internalType": "uint256",
          "name": "carsprice",
          "type": "uint256"
        },
        {
          "internalType": "enum Marketplace.AuctionState",
          "name": "currentState",
          "type": "uint8"
        },
        {
          "internalType": "address",
          "name": "wallet",
          "type": "address"
        },
        {
          "internalType": "uint256",
          "name": "maxBidders",
          "type": "uint256"
        },
        {
          "internalType": "uint256",
          "name": "QA_sellerID",
          "type": "uint256"
        },
        {
          "internalType": "uint256",
          "name": "QB_sellerID",
          "type": "uint256"
        }
      ],
      "stateMutability": "view",
      "type": "function",
      "constant": true
    },
    {
      "inputs": [],
      "name": "num_customer",
      "outputs": [
        {
          "internalType": "uint256",
          "name": "",
          "type": "uint256"
        }
      ],
      "stateMutability": "view",
      "type": "function",
      "constant": true
    },
    {
      "inputs": [],
      "name": "num_manufacturer",
      "outputs": [
        {
          "internalType": "uint256",
          "name": "",
          "type": "uint256"
        }
      ],
      "stateMutability": "view",
      "type": "function",
      "constant": true
    },
    {
      "inputs": [],
      "name": "num_products",
      "outputs": [
        {
          "internalType": "uint256",
          "name": "",
          "type": "uint256"
        }
      ],
      "stateMutability": "view",
      "type": "function",
      "constant": true
    },
    {
      "inputs": [],
      "name": "num_supplier",
      "outputs": [
        {
          "internalType": "uint256",
          "name": "",
          "type": "uint256"
        }
      ],
      "stateMutability": "view",
      "type": "function",
      "constant": true
    },
    {
      "inputs": [],
      "name": "owner",
      "outputs": [
        {
          "internalType": "address payable",
          "name": "",
          "type": "address"
        }
      ],
      "stateMutability": "view",
      "type": "function",
      "constant": true
    },
    {
      "inputs": [
        {
          "internalType": "uint256",
          "name": "",
          "type": "uint256"
        }
      ],
      "name": "suppliers",
      "outputs": [
        {
          "internalType": "uint256",
          "name": "tag",
          "type": "uint256"
        },
        {
          "internalType": "int256",
          "name": "partType",
          "type": "int256"
        },
        {
          "internalType": "uint256",
          "name": "quantityAvailable",
          "type": "uint256"
        },
        {
          "internalType": "enum Marketplace.AuctionState",
          "name": "currentState",
          "type": "uint8"
        },
        {
          "internalType": "address",
          "name": "wallet",
          "type": "address"
        },
        {
          "internalType": "uint256",
          "name": "maxBidders",
          "type": "uint256"
        },
        {
          "internalType": "uint256",
          "name": "bidsPlaced",
          "type": "uint256"
        },
        {
          "internalType": "uint256",
          "name": "bidsRevealed",
          "type": "uint256"
        }
      ],
      "stateMutability": "view",
      "type": "function",
      "constant": true
    },
    {
      "inputs": [
        {
          "internalType": "uint256",
          "name": "a",
          "type": "uint256"
        },
        {
          "internalType": "uint256",
          "name": "b",
          "type": "uint256"
        }
      ],
      "name": "minimum",
      "outputs": [
        {
          "internalType": "uint256",
          "name": "",
          "type": "uint256"
        }
      ],
      "stateMutability": "pure",
      "type": "function",
      "constant": true
    },
    {
      "inputs": [
        {
          "internalType": "uint256",
          "name": "tag",
          "type": "uint256"
        }
      ],
      "name": "supplierStartAuction",
      "outputs": [
        {
          "internalType": "uint256",
          "name": "",
          "type": "uint256"
        }
      ],
      "stateMutability": "nonpayable",
      "type": "function"
    },
    {
      "inputs": [
        {
          "internalType": "uint256",
          "name": "tag",
          "type": "uint256"
        }
      ],
      "name": "supplierEndAuction",
      "outputs": [
        {
          "internalType": "uint256",
          "name": "",
          "type": "uint256"
        }
      ],
      "stateMutability": "nonpayable",
      "type": "function"
    },
    {
      "inputs": [
        {
          "internalType": "address",
          "name": "senderaddr",
          "type": "address"
        },
        {
          "internalType": "uint256",
          "name": "effectivePrice",
          "type": "uint256"
        }
      ],
      "name": "transferMoney",
      "outputs": [],
      "stateMutability": "payable",
      "type": "function",
      "payable": true
    },
    {
      "inputs": [
        {
          "internalType": "uint256",
          "name": "tag",
          "type": "uint256"
        }
      ],
      "name": "supplierEndReveal",
      "outputs": [
        {
          "internalType": "uint256",
          "name": "",
          "type": "uint256"
        }
      ],
      "stateMutability": "nonpayable",
      "type": "function"
    },
    {
      "inputs": [
        {
          "internalType": "uint256",
          "name": "manufacturerID",
          "type": "uint256"
        },
        {
          "internalType": "uint256",
          "name": "supplierID",
          "type": "uint256"
        },
        {
          "internalType": "bytes32",
          "name": "blindPrice",
          "type": "bytes32"
        },
        {
          "internalType": "bytes32",
          "name": "blindQuantity",
          "type": "bytes32"
        },
        {
          "internalType": "uint256",
          "name": "limit",
          "type": "uint256"
        }
      ],
      "name": "manufacturerPlacesBid",
      "outputs": [],
      "stateMutability": "payable",
      "type": "function",
      "payable": true
    },
    {
      "inputs": [
        {
          "internalType": "uint256",
          "name": "customerID",
          "type": "uint256"
        },
        {
          "internalType": "uint256",
          "name": "manufacturerID",
          "type": "uint256"
        },
        {
          "internalType": "uint256",
          "name": "quantity",
          "type": "uint256"
        }
      ],
      "name": "customerPurchase",
      "outputs": [],
      "stateMutability": "payable",
      "type": "function",
      "payable": true
    },
    {
      "inputs": [
        {
          "internalType": "uint256",
          "name": "manufacturerID",
          "type": "uint256"
        },
        {
          "internalType": "uint256",
          "name": "supplierID",
          "type": "uint256"
        },
        {
          "internalType": "uint256",
          "name": "price",
          "type": "uint256"
        },
        {
          "internalType": "uint256",
          "name": "quantity",
          "type": "uint256"
        }
      ],
      "name": "manufactuerRevealBid",
      "outputs": [
        {
          "internalType": "bool",
          "name": "",
          "type": "bool"
        }
      ],
      "stateMutability": "nonpayable",
      "type": "function"
    },
    {
      "inputs": [
        {
          "internalType": "uint256",
          "name": "manufacturerID",
          "type": "uint256"
        }
      ],
      "name": "manufacturerSupplyCars",
      "outputs": [],
      "stateMutability": "nonpayable",
      "type": "function"
    },
    {
      "inputs": [
        {
          "internalType": "int256",
          "name": "partType",
          "type": "int256"
        },
        {
          "internalType": "uint256",
          "name": "quantityAvailable",
          "type": "uint256"
        },
        {
          "internalType": "address payable",
          "name": "addr",
          "type": "address"
        },
        {
          "internalType": "uint256",
          "name": "auctionBidders",
          "type": "uint256"
        }
      ],
      "name": "addSupplier",
      "outputs": [],
      "stateMutability": "nonpayable",
      "type": "function"
    },
    {
      "inputs": [
        {
          "internalType": "address payable",
          "name": "addr",
          "type": "address"
        },
        {
          "internalType": "uint256",
          "name": "auctionBidders",
          "type": "uint256"
        }
      ],
      "name": "addManufacturer",
      "outputs": [],
      "stateMutability": "nonpayable",
      "type": "function"
    },
    {
      "inputs": [
        {
          "internalType": "address payable",
          "name": "addr",
          "type": "address"
        }
      ],
      "name": "addCustomer",
      "outputs": [],
      "stateMutability": "nonpayable",
      "type": "function"
    },
    {
      "inputs": [
        {
          "internalType": "uint256",
          "name": "suppliedID",
          "type": "uint256"
        },
        {
          "internalType": "uint256",
          "name": "quantityToAdd",
          "type": "uint256"
        }
      ],
      "name": "supplierAddQuantity",
      "outputs": [],
      "stateMutability": "nonpayable",
      "type": "function"
    },
    {
      "inputs": [
        {
          "internalType": "uint256",
          "name": "manufacturerID",
          "type": "uint256"
        },
        {
          "internalType": "uint256",
          "name": "price",
          "type": "uint256"
        }
      ],
      "name": "set_cars_price",
      "outputs": [],
      "stateMutability": "nonpayable",
      "type": "function"
    },
    {
      "inputs": [
        {
          "internalType": "uint256",
          "name": "customerID",
          "type": "uint256"
        },
        {
          "internalType": "uint256",
          "name": "car_tag",
          "type": "uint256"
        }
      ],
      "name": "verifyproduct",
      "outputs": [
        {
          "internalType": "uint256",
          "name": "carID",
          "type": "uint256"
        },
        {
          "internalType": "uint256",
          "name": "manfID",
          "type": "uint256"
        },
        {
          "internalType": "uint256",
          "name": "sellerIDA",
          "type": "uint256"
        },
        {
          "internalType": "uint256",
          "name": "sellerIDB",
          "type": "uint256"
        }
      ],
      "stateMutability": "view",
      "type": "function",
      "constant": true
    },
    {
      "inputs": [
        {
          "internalType": "uint256",
          "name": "manfID",
          "type": "uint256"
        }
      ],
      "name": "get_cars_price_quantity",
      "outputs": [
        {
          "internalType": "uint256",
          "name": "price",
          "type": "uint256"
        },
        {
          "internalType": "uint256",
          "name": "quantity",
          "type": "uint256"
        }
      ],
      "stateMutability": "view",
      "type": "function",
      "constant": true
    },
    {
      "inputs": [
        {
          "internalType": "uint256",
          "name": "manfID",
          "type": "uint256"
        }
      ],
      "name": "get_manufacturer_data",
      "outputs": [
        {
          "internalType": "uint256",
          "name": "tag",
          "type": "uint256"
        },
        {
          "internalType": "uint256",
          "name": "quantA",
          "type": "uint256"
        },
        {
          "internalType": "uint256",
          "name": "quantB",
          "type": "uint256"
        },
        {
          "internalType": "uint256",
          "name": "cars",
          "type": "uint256"
        }
      ],
      "stateMutability": "view",
      "type": "function",
      "constant": true
    },
    {
      "inputs": [
        {
          "internalType": "uint256",
          "name": "customerID",
          "type": "uint256"
        }
      ],
      "name": "get_car_data",
      "outputs": [
        {
          "internalType": "uint256[10]",
          "name": "cars",
          "type": "uint256[10]"
        }
      ],
      "stateMutability": "view",
      "type": "function",
      "constant": true
    },
    {
      "inputs": [
        {
          "internalType": "uint256",
          "name": "manfID",
          "type": "uint256"
        },
        {
          "internalType": "uint256",
          "name": "quant",
          "type": "uint256"
        }
      ],
      "name": "set_cars",
      "outputs": [],
      "stateMutability": "nonpayable",
      "type": "function"
    }
  ],
  "bytecode": "0x608060405234801561001057600080fd5b5033600a60006101000a81548173ffffffffffffffffffffffffffffffffffffffff021916908373ffffffffffffffffffffffffffffffffffffffff1602179055506000600181905550600080819055506000600281905550615d2780620000796000396000f3fe60806040526004361061019c5760003560e01c8063b1877fb9116100ec578063dd2d2a121161008a578063edcac78b11610064578063edcac78b1461061b578063f1e4e1bd14610646578063f895c52014610683578063fee666ad146106c35761019c565b8063dd2d2a1214610576578063e2416a2c146105b3578063eb16d0e4146105f05761019c565b8063c2ff9e44116100c6578063c2ff9e44146104b7578063c5828c7d146104e0578063cea2312114610509578063d6470b491461054d5761019c565b8063b1877fb914610410578063c04052171461044e578063c0abda2a146104795761019c565b80638da5cb5b11610159578063a436792b11610133578063a436792b14610341578063aa8613c41461036a578063ac4ca43c146103a7578063ad973d74146103e75761019c565b80638da5cb5b146102a757806390175af1146102d25780639a7a9b13146103185761019c565b80630cf3750d146101a15780631788b2d9146101ca57806317c9dea61461020757806318c15d42146102445780634cc9aff81461026057806362949a5d1461028b575b600080fd5b3480156101ad57600080fd5b506101c860048036038101906101c391906149ca565b6106df565b005b3480156101d657600080fd5b506101f160048036038101906101ec9190614a0a565b61078d565b6040516101fe9190614a8c565b60405180910390f35b34801561021357600080fd5b5061022e60048036038101906102299190614aa7565b6111e2565b60405161023b9190614ae3565b60405180910390f35b61025e60048036038101906102599190614b34565b61136a565b005b34801561026c57600080fd5b50610275611743565b6040516102829190614ae3565b60405180910390f35b6102a560048036038101906102a09190614baf565b611749565b005b3480156102b357600080fd5b506102bc611a90565b6040516102c99190614c43565b60405180910390f35b3480156102de57600080fd5b506102f960048036038101906102f49190614aa7565b611ab6565b60405161030f9a99989796959493929190614cf6565b60405180910390f35b34801561032457600080fd5b5061033f600480360381019061033a9190614df4565b611b37565b005b34801561034d57600080fd5b5061036860048036038101906103639190614e5b565b611c85565b005b34801561037657600080fd5b50610391600480360381019061038c9190614aa7565b611df9565b60405161039e9190614ae3565b60405180910390f35b3480156103b357600080fd5b506103ce60048036038101906103c99190614aa7565b611f65565b6040516103de9493929190614e9b565b60405180910390f35b3480156103f357600080fd5b5061040e60048036038101906104099190614ee0565b612093565b005b34801561041c57600080fd5b5061043760048036038101906104329190614aa7565b612144565b604051610445929190614f0d565b60405180910390f35b34801561045a57600080fd5b506104636121c3565b6040516104709190614ae3565b60405180910390f35b34801561048557600080fd5b506104a0600480360381019061049b9190614aa7565b6121c9565b6040516104ae929190614f36565b60405180910390f35b3480156104c357600080fd5b506104de60048036038101906104d99190614aa7565b61220d565b005b3480156104ec57600080fd5b50610507600480360381019061050291906149ca565b612ebe565b005b34801561051557600080fd5b50610530600480360381019061052b9190614aa7565b612edd565b604051610544989796959493929190614f6e565b60405180910390f35b34801561055957600080fd5b50610574600480360381019061056f91906149ca565b612f52565b005b34801561058257600080fd5b5061059d600480360381019061059891906149ca565b61306d565b6040516105aa9190614ae3565b60405180910390f35b3480156105bf57600080fd5b506105da60048036038101906105d59190614aa7565b613087565b6040516105e79190614ae3565b60405180910390f35b3480156105fc57600080fd5b50610605614350565b6040516106129190614ae3565b60405180910390f35b34801561062757600080fd5b50610630614356565b60405161063d9190614ae3565b60405180910390f35b34801561065257600080fd5b5061066d60048036038101906106689190614aa7565b61435c565b60405161067a9190615097565b60405180910390f35b34801561068f57600080fd5b506106aa60048036038101906106a591906149ca565b61440b565b6040516106ba9493929190614e9b565b60405180910390f35b6106dd60048036038101906106d891906150df565b614593565b005b3373ffffffffffffffffffffffffffffffffffffffff166004600084815260200190815260200160002060030160019054906101000a900473ffffffffffffffffffffffffffffffffffffffff1673ffffffffffffffffffffffffffffffffffffffff161461074d57600080fd5b81600054101561075c57600080fd5b80600460008481526020019081526020016000206002016000828254610782919061514e565b925050819055505050565b60006001548511156107d4576040517f08c379a00000000000000000000000000000000000000000000000000000000081526004016107cb906151df565b60405180910390fd5b600160038111156107e8576107e7614c5e565b5b6004600086815260200190815260200160002060030160009054906101000a900460ff16600381111561081e5761081d614c5e565b5b1461082857600080fd5b60005b600760006004600088815260200190815260200160002060030160019054906101000a900473ffffffffffffffffffffffffffffffffffffffff1673ffffffffffffffffffffffffffffffffffffffff1673ffffffffffffffffffffffffffffffffffffffff168152602001908152602001600020805490508110156111d45785600760006004600089815260200190815260200160002060030160019054906101000a900473ffffffffffffffffffffffffffffffffffffffff1673ffffffffffffffffffffffffffffffffffffffff1673ffffffffffffffffffffffffffffffffffffffff1681526020019081526020016000208281548110610933576109326151ff565b5b90600052602060002090600a020160060154036111c157600760006004600088815260200190815260200160002060030160019054906101000a900473ffffffffffffffffffffffffffffffffffffffff1673ffffffffffffffffffffffffffffffffffffffff1673ffffffffffffffffffffffffffffffffffffffff16815260200190815260200160002081815481106109d1576109d06151ff565b5b90600052602060002090600a020160030154846040516020016109f4919061524f565b6040516020818303038152906040528051906020012014610a4a576040517f08c379a0000000000000000000000000000000000000000000000000000000008152600401610a41906152dc565b60405180910390fd5b600760006004600088815260200190815260200160002060030160019054906101000a900473ffffffffffffffffffffffffffffffffffffffff1673ffffffffffffffffffffffffffffffffffffffff1673ffffffffffffffffffffffffffffffffffffffff1681526020019081526020016000208181548110610ad157610ad06151ff565b5b90600052602060002090600a02016004015483604051602001610af4919061524f565b6040516020818303038152906040528051906020012014610b4a576040517f08c379a0000000000000000000000000000000000000000000000000000000008152600401610b419061536e565b60405180910390fd5b600760006004600088815260200190815260200160002060030160019054906101000a900473ffffffffffffffffffffffffffffffffffffffff1673ffffffffffffffffffffffffffffffffffffffff1673ffffffffffffffffffffffffffffffffffffffff1681526020019081526020016000208181548110610bd157610bd06151ff565b5b90600052602060002090600a02016003015484604051602001610bf4919061524f565b6040516020818303038152906040528051906020012014610cca576000600760006004600089815260200190815260200160002060030160019054906101000a900473ffffffffffffffffffffffffffffffffffffffff1673ffffffffffffffffffffffffffffffffffffffff1673ffffffffffffffffffffffffffffffffffffffff1681526020019081526020016000208281548110610c9857610c976151ff565b5b90600052602060002090600a020160090160006101000a81548160ff02191690831515021790555060009150506111da565b600760006004600088815260200190815260200160002060030160019054906101000a900473ffffffffffffffffffffffffffffffffffffffff1673ffffffffffffffffffffffffffffffffffffffff1673ffffffffffffffffffffffffffffffffffffffff1681526020019081526020016000208181548110610d5157610d506151ff565b5b90600052602060002090600a02016004015483604051602001610d74919061524f565b6040516020818303038152906040528051906020012014610e4a576000600760006004600089815260200190815260200160002060030160019054906101000a900473ffffffffffffffffffffffffffffffffffffffff1673ffffffffffffffffffffffffffffffffffffffff1673ffffffffffffffffffffffffffffffffffffffff1681526020019081526020016000208281548110610e1857610e176151ff565b5b90600052602060002090600a020160090160006101000a81548160ff02191690831515021790555060009150506111da565b60008385610e58919061538e565b9050600760006004600089815260200190815260200160002060030160019054906101000a900473ffffffffffffffffffffffffffffffffffffffff1673ffffffffffffffffffffffffffffffffffffffff1673ffffffffffffffffffffffffffffffffffffffff1681526020019081526020016000208281548110610ee157610ee06151ff565b5b90600052602060002090600a0201600801548110610f34576040517f08c379a0000000000000000000000000000000000000000000000000000000008152600401610f2b9061545a565b60405180910390fd5b600160076000600460008a815260200190815260200160002060030160019054906101000a900473ffffffffffffffffffffffffffffffffffffffff1673ffffffffffffffffffffffffffffffffffffffff1673ffffffffffffffffffffffffffffffffffffffff1681526020019081526020016000208381548110610fbd57610fbc6151ff565b5b90600052602060002090600a020160090160006101000a81548160ff0219169083151502179055508460076000600460008a815260200190815260200160002060030160019054906101000a900473ffffffffffffffffffffffffffffffffffffffff1673ffffffffffffffffffffffffffffffffffffffff1673ffffffffffffffffffffffffffffffffffffffff168152602001908152602001600020838154811061106d5761106c6151ff565b5b90600052602060002090600a0201600001819055508360076000600460008a815260200190815260200160002060030160019054906101000a900473ffffffffffffffffffffffffffffffffffffffff1673ffffffffffffffffffffffffffffffffffffffff1673ffffffffffffffffffffffffffffffffffffffff168152602001908152602001600020838154811061110a576111096151ff565b5b90600052602060002090600a0201600101819055507fee291b467c1ae7dd29ffc047df3454190c09d3730496830a392209c7bc38f5ca868887876040516111549493929190614e9b565b60405180910390a16001600460008881526020019081526020016000206006016000828254611183919061514e565b9250508190555060046000878152602001908152602001600020600401546004600088815260200190815260200160002050506001925050506111da565b80806111cc9061547a565b91505061082b565b50600090505b949350505050565b60008054821115611228576040517f08c379a000000000000000000000000000000000000000000000000000000000815260040161121f9061550e565b60405180910390fd5b6000600381111561123c5761123b614c5e565b5b6004600084815260200190815260200160002060030160009054906101000a900460ff16600381111561127257611271614c5e565b5b036112b2576040517f08c379a00000000000000000000000000000000000000000000000000000000081526004016112a99061557a565b60405180910390fd5b60006004600084815260200190815260200160002060030160006101000a81548160ff021916908360038111156112ec576112eb614c5e565b5b021790555060006004600084815260200190815260200160002060050181905550600060046000848152602001908152602001600020600601819055507f10449cff8425a2b933fdd57a667ad5bdad3da817ddd9179f125f5c7756582e17824260405161135a929190614f0d565b60405180910390a1429050919050565b8460015410156113af576040517f08c379a00000000000000000000000000000000000000000000000000000000081526004016113a6906155e6565b60405180910390fd5b8360005410156113f4576040517f08c379a00000000000000000000000000000000000000000000000000000000081526004016113eb90615652565b60405180910390fd5b6000600381111561140857611407614c5e565b5b6004600086815260200190815260200160002060030160009054906101000a900460ff16600381111561143e5761143d614c5e565b5b1461147e576040517f08c379a0000000000000000000000000000000000000000000000000000000008152600401611475906156e4565b60405180910390fd5b8484148061148c5750600384145b6114cb576040517f08c379a00000000000000000000000000000000000000000000000000000000081526004016114c290615750565b60405180910390fd5b6114d3614843565b33816040019073ffffffffffffffffffffffffffffffffffffffff16908173ffffffffffffffffffffffffffffffffffffffff16815250503481610100018181525050858160c0018181525050848160e00181815250508381606001818152505082816080018181525050818160a00181815250506000816000018181525050600081602001818152505060008161012001901515908115158152505060006004600087815260200190815260200160002060030160019054906101000a900473ffffffffffffffffffffffffffffffffffffffff169050600760008273ffffffffffffffffffffffffffffffffffffffff1673ffffffffffffffffffffffffffffffffffffffff1681526020019081526020016000208290806001815401808255809150506001900390600052602060002090600a0201600090919091909150600082015181600001556020820151816001015560408201518160020160006101000a81548173ffffffffffffffffffffffffffffffffffffffff021916908373ffffffffffffffffffffffffffffffffffffffff160217905550606082015181600301556080820151816004015560a0820151816005015560c0820151816006015560e0820151816007015561010082015181600801556101208201518160090160006101000a81548160ff021916908315150217905550505060016004600088815260200190815260200160002060050160008282546116f6919061514e565b925050819055507fdbd4ed8ca35fd076d8fdc3ddae80bf4fac4fc55dd918d5868cf2b92f82d2de5386888787604051611732949392919061577f565b60405180910390a150505050505050565b60015481565b3373ffffffffffffffffffffffffffffffffffffffff166006600085815260200190815260200160002060010160009054906101000a900473ffffffffffffffffffffffffffffffffffffffff1673ffffffffffffffffffffffffffffffffffffffff16148061180657503373ffffffffffffffffffffffffffffffffffffffff16600a60009054906101000a900473ffffffffffffffffffffffffffffffffffffffff1673ffffffffffffffffffffffffffffffffffffffff16145b611845576040517f08c379a000000000000000000000000000000000000000000000000000000000815260040161183c90615810565b60405180910390fd5b61184d6148b4565b8281600001818152505033816060019073ffffffffffffffffffffffffffffffffffffffff16908173ffffffffffffffffffffffffffffffffffffffff1681525050818160400181815250508381602001818152505034816080018181525050600060056000858152602001908152602001600020600401549050600083826118d6919061538e565b9050808360800151101561191f576040517f08c379a00000000000000000000000000000000000000000000000000000000081526004016119169061587c565b60405180910390fd5b60006005600087815260200190815260200160002060050160019054906101000a900473ffffffffffffffffffffffffffffffffffffffff169050600860008273ffffffffffffffffffffffffffffffffffffffff1673ffffffffffffffffffffffffffffffffffffffff16815260200190815260200160002084908060018154018082558091505060019003906000526020600020906005020160009091909190915060008201518160000155602082015181600101556040820151816002015560608201518160030160006101000a81548173ffffffffffffffffffffffffffffffffffffffff021916908373ffffffffffffffffffffffffffffffffffffffff1602179055506080820151816004015550507ffee408fb277c265efa7c7adea166e7ebe6ce1e4bf153cc84a610be9a46d4ba82878787600560008b815260200190815260200160002060040154604051611a7f9493929190614e9b565b60405180910390a150505050505050565b600a60009054906101000a900473ffffffffffffffffffffffffffffffffffffffff1681565b60056020528060005260406000206000915090508060000154908060010154908060020154908060030154908060040154908060050160009054906101000a900460ff16908060050160019054906101000a900473ffffffffffffffffffffffffffffffffffffffff1690806006015490806007015490806008015490508a565b600080815480929190611b499061547a565b9190505550604051806101000160405280600054815260200185815260200184815260200160026003811115611b8257611b81614c5e565b5b81526020018373ffffffffffffffffffffffffffffffffffffffff168152602001828152602001600081526020016000815250600460008054815260200190815260200160002060008201518160000155602082015181600101556040820151816002015560608201518160030160006101000a81548160ff02191690836003811115611c1257611c11614c5e565b5b021790555060808201518160030160016101000a81548173ffffffffffffffffffffffffffffffffffffffff021916908373ffffffffffffffffffffffffffffffffffffffff16021790555060a0820151816004015560c0820151816005015560e0820151816006015590505050505050565b60016000815480929190611c989061547a565b919050555060405180610140016040528060015481526020016000815260200160008152602001600081526020016000815260200160026003811115611ce157611ce0614c5e565b5b81526020018373ffffffffffffffffffffffffffffffffffffffff168152602001828152602001600081526020016000815250600560006001548152602001908152602001600020600082015181600001556020820151816001015560408201518160020155606082015181600301556080820151816004015560a08201518160050160006101000a81548160ff02191690836003811115611d8657611d85614c5e565b5b021790555060c08201518160050160016101000a81548173ffffffffffffffffffffffffffffffffffffffff021916908373ffffffffffffffffffffffffffffffffffffffff16021790555060e08201518160060155610100820151816007015561012082015181600801559050505050565b60008054821115611e3f576040517f08c379a0000000000000000000000000000000000000000000000000000000008152600401611e369061550e565b60405180910390fd5b60006003811115611e5357611e52614c5e565b5b6004600084815260200190815260200160002060030160009054906101000a900460ff166003811115611e8957611e88614c5e565b5b14611ec9576040517f08c379a0000000000000000000000000000000000000000000000000000000008152600401611ec0906158e8565b60405180910390fd5b60016004600084815260200190815260200160002060030160006101000a81548160ff02191690836003811115611f0357611f02614c5e565b5b0217905550600060046000848152602001908152602001600020600601819055507f0c368e4cdd0e23707857d20056076efe6f588f9ce71ab6ce676d331fdc035f5b8242604051611f55929190614f0d565b60405180910390a1429050919050565b6000806000806000600560008781526020019081526020016000206040518061014001604052908160008201548152602001600182015481526020016002820154815260200160038201548152602001600482015481526020016005820160009054906101000a900460ff166003811115611fe357611fe2614c5e565b5b6003811115611ff557611ff4614c5e565b5b81526020016005820160019054906101000a900473ffffffffffffffffffffffffffffffffffffffff1673ffffffffffffffffffffffffffffffffffffffff1673ffffffffffffffffffffffffffffffffffffffff1681526020016006820154815260200160078201548152602001600882015481525050905080600001518160200151826040015183606001519450945094509450509193509193565b600260008154809291906120a69061547a565b9190505550604051806040016040528060025481526020018273ffffffffffffffffffffffffffffffffffffffff168152506006600060025481526020019081526020016000206000820151816000015560208201518160010160006101000a81548173ffffffffffffffffffffffffffffffffffffffff021916908373ffffffffffffffffffffffffffffffffffffffff16021790555090505050565b60008082600154101561218c576040517f08c379a000000000000000000000000000000000000000000000000000000000815260040161218390615954565b60405180910390fd5b6005600084815260200190815260200160002060040154600560008581526020019081526020016000206003015491509150915091565b60035481565b60066020528060005260406000206000915090508060000154908060010160009054906101000a900473ffffffffffffffffffffffffffffffffffffffff16905082565b80600154101561221c57600080fd5b6005600082815260200190815260200160002060050160019054906101000a900473ffffffffffffffffffffffffffffffffffffffff1673ffffffffffffffffffffffffffffffffffffffff163373ffffffffffffffffffffffffffffffffffffffff1614806122d95750600a60009054906101000a900473ffffffffffffffffffffffffffffffffffffffff1673ffffffffffffffffffffffffffffffffffffffff163373ffffffffffffffffffffffffffffffffffffffff16145b6122e257600080fd5b60005b600860006005600085815260200190815260200160002060050160019054906101000a900473ffffffffffffffffffffffffffffffffffffffff1673ffffffffffffffffffffffffffffffffffffffff1673ffffffffffffffffffffffffffffffffffffffff16815260200190815260200160002080549050811015612d4e576005600083815260200190815260200160002060030154600860006005600086815260200190815260200160002060050160019054906101000a900473ffffffffffffffffffffffffffffffffffffffff1673ffffffffffffffffffffffffffffffffffffffff1673ffffffffffffffffffffffffffffffffffffffff1681526020019081526020016000208281548110612403576124026151ff565b5b90600052602060002090600502016002015411612d005760006005600084815260200190815260200160002060040154600860006005600087815260200190815260200160002060050160019054906101000a900473ffffffffffffffffffffffffffffffffffffffff1673ffffffffffffffffffffffffffffffffffffffff1673ffffffffffffffffffffffffffffffffffffffff16815260200190815260200160002083815481106124ba576124b96151ff565b5b9060005260206000209060050201600201546124d6919061538e565b9050600081600860006005600088815260200190815260200160002060050160019054906101000a900473ffffffffffffffffffffffffffffffffffffffff1673ffffffffffffffffffffffffffffffffffffffff1673ffffffffffffffffffffffffffffffffffffffff1681526020019081526020016000208481548110612562576125616151ff565b5b90600052602060002090600502016004015461257e9190615974565b9050600860006005600087815260200190815260200160002060050160019054906101000a900473ffffffffffffffffffffffffffffffffffffffff1673ffffffffffffffffffffffffffffffffffffffff1673ffffffffffffffffffffffffffffffffffffffff1681526020019081526020016000208381548110612607576126066151ff565b5b90600052602060002090600502016002015460056000868152602001908152602001600020600301600082825461263e9190615974565b925050819055506000600860006005600088815260200190815260200160002060050160019054906101000a900473ffffffffffffffffffffffffffffffffffffffff1673ffffffffffffffffffffffffffffffffffffffff1673ffffffffffffffffffffffffffffffffffffffff16815260200190815260200160002084815481106126ce576126cd6151ff565b5b906000526020600020906005020160020154905060006005600087815260200190815260200160002060050160019054906101000a900473ffffffffffffffffffffffffffffffffffffffff1690506127256148f9565b6000805b84811015612a6d5760006001600960008773ffffffffffffffffffffffffffffffffffffffff1673ffffffffffffffffffffffffffffffffffffffff168152602001908152602001600020805490506127829190615974565b905061278c61491c565b600960008773ffffffffffffffffffffffffffffffffffffffff1673ffffffffffffffffffffffffffffffffffffffff16815260200190815260200160002082815481106127dd576127dc6151ff565b5b9060005260206000209060040201600001548160000181815250508a816020018181525050600960008773ffffffffffffffffffffffffffffffffffffffff1673ffffffffffffffffffffffffffffffffffffffff1681526020019081526020016000208281548110612853576128526151ff565b5b906000526020600020906004020160020154816040018181525050600960008773ffffffffffffffffffffffffffffffffffffffff1673ffffffffffffffffffffffffffffffffffffffff16815260200190815260200160002082815481106128bf576128be6151ff565b5b906000526020600020906004020160030154816060018181525050600b6000600860008973ffffffffffffffffffffffffffffffffffffffff1673ffffffffffffffffffffffffffffffffffffffff168152602001908152602001600020848154811061292f5761292e6151ff565b5b9060005260206000209060050201600101548152602001908152602001600020819080600181540180825580915050600190039060005260206000209060040201600090919091909150600082015181600001556020820151816001015560408201518160020155606082015181600301555050600960008773ffffffffffffffffffffffffffffffffffffffff1673ffffffffffffffffffffffffffffffffffffffff1681526020019081526020016000208054806129f2576129f16159a8565b5b6001900381819060005260206000209060040201600080820160009055600182016000905560028201600090556003820160009055505090558060000151858580612a3c9061547a565b965060648110612a4f57612a4e6151ff565b5b60200201818152505050508080612a659061547a565b915050612729565b50612aae600560008a815260200190815260200160002060050160019054906101000a900473ffffffffffffffffffffffffffffffffffffffff1687614593565b612b866006600060086000600560008e815260200190815260200160002060050160019054906101000a900473ffffffffffffffffffffffffffffffffffffffff1673ffffffffffffffffffffffffffffffffffffffff1673ffffffffffffffffffffffffffffffffffffffff1681526020019081526020016000208a81548110612b3c57612b3b6151ff565b5b906000526020600020906005020160010154815260200190815260200160002060010160009054906101000a900473ffffffffffffffffffffffffffffffffffffffff1686614593565b7f1aff87a36f8ab51e6d00c79e403e67535da25af06a6dc7b9cac3fc96a25cbfb38860086000600560008d815260200190815260200160002060050160019054906101000a900473ffffffffffffffffffffffffffffffffffffffff1673ffffffffffffffffffffffffffffffffffffffff1673ffffffffffffffffffffffffffffffffffffffff1681526020019081526020016000208981548110612c2f57612c2e6151ff565b5b90600052602060002090600502016001015460086000600560008e815260200190815260200160002060050160019054906101000a900473ffffffffffffffffffffffffffffffffffffffff1673ffffffffffffffffffffffffffffffffffffffff1673ffffffffffffffffffffffffffffffffffffffff1681526020019081526020016000208a81548110612cc857612cc76151ff565b5b9060005260206000209060050201600201548986604051612ced959493929190615a5b565b60405180910390a1505050505050612d3b565b6040517f08c379a0000000000000000000000000000000000000000000000000000000008152600401612d3290615afb565b60405180910390fd5b8080612d469061547a565b9150506122e5565b505b6000600860006005600085815260200190815260200160002060050160019054906101000a900473ffffffffffffffffffffffffffffffffffffffff1673ffffffffffffffffffffffffffffffffffffffff1673ffffffffffffffffffffffffffffffffffffffff168152602001908152602001600020805490501115612ebb57600860006005600084815260200190815260200160002060050160019054906101000a900473ffffffffffffffffffffffffffffffffffffffff1673ffffffffffffffffffffffffffffffffffffffff1673ffffffffffffffffffffffffffffffffffffffff168152602001908152602001600020805480612e5657612e556159a8565b5b6001900381819060005260206000209060050201600080820160009055600182016000905560028201600090556003820160006101000a81549073ffffffffffffffffffffffffffffffffffffffff0219169055600482016000905550509055612d50565b50565b8060056000848152602001908152602001600020600301819055505050565b60046020528060005260406000206000915090508060000154908060010154908060020154908060030160009054906101000a900460ff16908060030160019054906101000a900473ffffffffffffffffffffffffffffffffffffffff16908060040154908060050154908060060154905088565b6005600083815260200190815260200160002060050160019054906101000a900473ffffffffffffffffffffffffffffffffffffffff1673ffffffffffffffffffffffffffffffffffffffff163373ffffffffffffffffffffffffffffffffffffffff16148061300f5750600a60009054906101000a900473ffffffffffffffffffffffffffffffffffffffff1673ffffffffffffffffffffffffffffffffffffffff163373ffffffffffffffffffffffffffffffffffffffff16145b61304e576040517f08c379a000000000000000000000000000000000000000000000000000000000815260040161304590615b67565b60405180910390fd5b8060056000848152602001908152602001600020600401819055505050565b60008183101561307d578261307f565b815b905092915050565b600080548211156130cd576040517f08c379a00000000000000000000000000000000000000000000000000000000081526004016130c490615652565b60405180910390fd5b600160038111156130e1576130e0614c5e565b5b6004600084815260200190815260200160002060030160009054906101000a900460ff16600381111561311757613116614c5e565b5b14613157576040517f08c379a000000000000000000000000000000000000000000000000000000000815260040161314e90615bd3565b60405180910390fd5b60036004600084815260200190815260200160002060030160006101000a81548160ff0219169083600381111561319157613190614c5e565b5b021790555060005b600760006004600086815260200190815260200160002060030160019054906101000a900473ffffffffffffffffffffffffffffffffffffffff1673ffffffffffffffffffffffffffffffffffffffff1673ffffffffffffffffffffffffffffffffffffffff1681526020019081526020016000208054905081101561384e5760005b8181101561383a57600760006004600087815260200190815260200160002060030160019054906101000a900473ffffffffffffffffffffffffffffffffffffffff1673ffffffffffffffffffffffffffffffffffffffff1673ffffffffffffffffffffffffffffffffffffffff16815260200190815260200160002081815481106132ab576132aa6151ff565b5b90600052602060002090600a020160000154600760006004600088815260200190815260200160002060030160019054906101000a900473ffffffffffffffffffffffffffffffffffffffff1673ffffffffffffffffffffffffffffffffffffffff1673ffffffffffffffffffffffffffffffffffffffff1681526020019081526020016000208381548110613344576133436151ff565b5b90600052602060002090600a0201600001541015613827576000600760006004600088815260200190815260200160002060030160019054906101000a900473ffffffffffffffffffffffffffffffffffffffff1673ffffffffffffffffffffffffffffffffffffffff1673ffffffffffffffffffffffffffffffffffffffff16815260200190815260200160002083815481106133e5576133e46151ff565b5b90600052602060002090600a02016040518061014001604052908160008201548152602001600182015481526020016002820160009054906101000a900473ffffffffffffffffffffffffffffffffffffffff1673ffffffffffffffffffffffffffffffffffffffff1673ffffffffffffffffffffffffffffffffffffffff1681526020016003820154815260200160048201548152602001600582015481526020016006820154815260200160078201548152602001600882015481526020016009820160009054906101000a900460ff1615151515815250509050600760006004600088815260200190815260200160002060030160019054906101000a900473ffffffffffffffffffffffffffffffffffffffff1673ffffffffffffffffffffffffffffffffffffffff1673ffffffffffffffffffffffffffffffffffffffff1681526020019081526020016000208281548110613549576135486151ff565b5b90600052602060002090600a0201600760006004600089815260200190815260200160002060030160019054906101000a900473ffffffffffffffffffffffffffffffffffffffff1673ffffffffffffffffffffffffffffffffffffffff1673ffffffffffffffffffffffffffffffffffffffff16815260200190815260200160002084815481106135de576135dd6151ff565b5b90600052602060002090600a020160008201548160000155600182015481600101556002820160009054906101000a900473ffffffffffffffffffffffffffffffffffffffff168160020160006101000a81548173ffffffffffffffffffffffffffffffffffffffff021916908373ffffffffffffffffffffffffffffffffffffffff1602179055506003820154816003015560048201548160040155600582015481600501556006820154816006015560078201548160070155600882015481600801556009820160009054906101000a900460ff168160090160006101000a81548160ff02191690831515021790555090505080600760006004600089815260200190815260200160002060030160019054906101000a900473ffffffffffffffffffffffffffffffffffffffff1673ffffffffffffffffffffffffffffffffffffffff1673ffffffffffffffffffffffffffffffffffffffff168152602001908152602001600020838154811061375b5761375a6151ff565b5b90600052602060002090600a0201600082015181600001556020820151816001015560408201518160020160006101000a81548173ffffffffffffffffffffffffffffffffffffffff021916908373ffffffffffffffffffffffffffffffffffffffff160217905550606082015181600301556080820151816004015560a0820151816005015560c0820151816006015560e0820151816007015561010082015181600801556101208201518160090160006101000a81548160ff021916908315150217905550905050505b80806138329061547a565b91505061321c565b5080806138469061547a565b915050613199565b506138576148f9565b61385f6148f9565b6138676148f9565b60005b600760006004600089815260200190815260200160002060030160019054906101000a900473ffffffffffffffffffffffffffffffffffffffff1673ffffffffffffffffffffffffffffffffffffffff1673ffffffffffffffffffffffffffffffffffffffff16815260200190815260200160002080549050811015613bfd57600060076000600460008a815260200190815260200160002060030160019054906101000a900473ffffffffffffffffffffffffffffffffffffffff1673ffffffffffffffffffffffffffffffffffffffff1673ffffffffffffffffffffffffffffffffffffffff1681526020019081526020016000208281548110613973576139726151ff565b5b90600052602060002090600a02016040518061014001604052908160008201548152602001600182015481526020016002820160009054906101000a900473ffffffffffffffffffffffffffffffffffffffff1673ffffffffffffffffffffffffffffffffffffffff1673ffffffffffffffffffffffffffffffffffffffff1681526020016003820154815260200160048201548152602001600582015481526020016006820154815260200160078201548152602001600882015481526020016009820160009054906101000a900460ff161515151581525050905060001515816101200151151503613a675750613bea565b806101000151838260c0015160648110613a8457613a836151ff565b5b6020020181815250506000613ab3600460008a8152602001908152602001600020600201548360a0015161306d565b9050613ac381836020015161306d565b90508160000151868360c0015160648110613ae157613ae06151ff565b5b60200201818152505080858360c0015160648110613b0257613b016151ff565b5b60200201818152505080600460008a81526020019081526020016000206002016000828254613b319190615974565b925050819055508060076000600460008c815260200190815260200160002060030160019054906101000a900473ffffffffffffffffffffffffffffffffffffffff1673ffffffffffffffffffffffffffffffffffffffff1673ffffffffffffffffffffffffffffffffffffffff1681526020019081526020016000208481548110613bc057613bbf6151ff565b5b90600052602060002090600a02016001016000828254613be09190615974565b9250508190555050505b8080613bf59061547a565b91505061386a565b5060005b600760006004600089815260200190815260200160002060030160019054906101000a900473ffffffffffffffffffffffffffffffffffffffff1673ffffffffffffffffffffffffffffffffffffffff1673ffffffffffffffffffffffffffffffffffffffff16815260200190815260200160002080549050811015613f4857600060076000600460008a815260200190815260200160002060030160019054906101000a900473ffffffffffffffffffffffffffffffffffffffff1673ffffffffffffffffffffffffffffffffffffffff1673ffffffffffffffffffffffffffffffffffffffff1681526020019081526020016000208281548110613d0a57613d096151ff565b5b90600052602060002090600a02016040518061014001604052908160008201548152602001600182015481526020016002820160009054906101000a900473ffffffffffffffffffffffffffffffffffffffff1673ffffffffffffffffffffffffffffffffffffffff1673ffffffffffffffffffffffffffffffffffffffff1681526020016003820154815260200160048201548152602001600582015481526020016006820154815260200160078201548152602001600882015481526020016009820160009054906101000a900460ff161515151581525050905060001515816101200151151503613dfe5750613f35565b6000613e24600460008a815260200190815260200160002060020154836020015161306d565b905080858360c0015160648110613e3e57613e3d6151ff565b5b60200201818151613e4f919061514e565b9150818152505080600460008a81526020019081526020016000206002016000828254613e7c9190615974565b925050819055508060076000600460008c815260200190815260200160002060030160019054906101000a900473ffffffffffffffffffffffffffffffffffffffff1673ffffffffffffffffffffffffffffffffffffffff1673ffffffffffffffffffffffffffffffffffffffff1681526020019081526020016000208481548110613f0b57613f0a6151ff565b5b90600052602060002090600a02016001016000828254613f2b9190615974565b9250508190555050505b8080613f409061547a565b915050613c01565b506000600190505b60015481116141a4576000838260648110613f6e57613f6d6151ff565b5b60200201511115614191577f389cc4d2b135e7b676a809ad7bacdde1b644b0bbe73afdd545a176ea73b955178682858460648110613faf57613fae6151ff565b5b6020020151878560648110613fc757613fc66151ff565b5b6020020151604051613fdc9493929190614e9b565b60405180910390a161407f6005600083815260200190815260200160002060050160019054906101000a900473ffffffffffffffffffffffffffffffffffffffff16848360648110614031576140306151ff565b5b6020020151868460648110614049576140486151ff565b5b6020020151614058919061538e565b84846064811061406b5761406a6151ff565b5b602002015161407a9190615974565b614593565b6140f86004600088815260200190815260200160002060030160019054906101000a900473ffffffffffffffffffffffffffffffffffffffff168483606481106140cc576140cb6151ff565b5b60200201518684606481106140e4576140e36151ff565b5b60200201516140f3919061538e565b614593565b60016004600088815260200190815260200160002060010154036141415761413c8184836064811061412d5761412c6151ff565b5b6020020151600089600061460b565b614190565b600260046000888152602001908152602001600020600101540361418a57614185816000858460648110614178576141776151ff565b5b602002015160008a61460b565b61418f565b600080fd5b5b5b808061419c9061547a565b915050613f50565b505b6000600760006004600089815260200190815260200160002060030160019054906101000a900473ffffffffffffffffffffffffffffffffffffffff1673ffffffffffffffffffffffffffffffffffffffff1673ffffffffffffffffffffffffffffffffffffffff16815260200190815260200160002080549050111561434557600760006004600088815260200190815260200160002060030160019054906101000a900473ffffffffffffffffffffffffffffffffffffffff1673ffffffffffffffffffffffffffffffffffffffff1673ffffffffffffffffffffffffffffffffffffffff1681526020019081526020016000208054806142ac576142ab6159a8565b5b60019003818190600052602060002090600a020160008082016000905560018201600090556002820160006101000a81549073ffffffffffffffffffffffffffffffffffffffff02191690556003820160009055600482016000905560058201600090556006820160009055600782016000905560088201600090556009820160006101000a81549060ff0219169055505090556141a6565b429350505050919050565b60025481565b60005481565b614364614944565b61436c614944565b6000805b600b60008681526020019081526020016000208054905081101561440057600b600086815260200190815260200160002081815481106143b3576143b26151ff565b5b9060005260206000209060040201600001548383806143d19061547a565b9450600a81106143e4576143e36151ff565b5b60200201818152505080806143f89061547a565b915050614370565b508192505050919050565b60008060008060005b600b6000888152602001908152602001600020805490508110156145365785600b60008981526020019081526020016000208281548110614458576144576151ff565b5b906000526020600020906004020160000154036145235785600b60008981526020019081526020016000208281548110614495576144946151ff565b5b906000526020600020906004020160010154600b60008a815260200190815260200160002083815481106144cc576144cb6151ff565b5b906000526020600020906004020160020154600b60008b81526020019081526020016000208481548110614503576145026151ff565b5b90600052602060002090600402016003015494509450945094505061458a565b808061452e9061547a565b915050614414565b50600160001461457b576040517f08c379a000000000000000000000000000000000000000000000000000000000815260040161457290615c65565b60405180910390fd5b60008060008093509350935093505b92959194509250565b8173ffffffffffffffffffffffffffffffffffffffff166108fc829081150290604051600060405180830381858888f19350505050614607576040517f08c379a00000000000000000000000000000000000000000000000000000000081526004016145fe90615cd1565b60405180910390fd5b5050565b83600560008781526020019081526020016000206001016000828254614631919061514e565b925050819055508260056000878152602001908152602001600020600201600082825461465e919061514e565b92505081905550600061469d6005600088815260200190815260200160002060010154600560008981526020019081526020016000206002015461306d565b9050806005600088815260200190815260200160002060010160008282546146c59190615974565b92505081905550806005600088815260200190815260200160002060020160008282546146f29190615974565b925050819055508060056000888152602001908152602001600020600301600082825461471f919061514e565b9250508190555061472e614967565b600360008154809291906147419061547a565b91905055506003548160000181815250508681602001818152505086816040018181525050600381606001818152505060096000600560008a815260200190815260200160002060050160019054906101000a900473ffffffffffffffffffffffffffffffffffffffff1673ffffffffffffffffffffffffffffffffffffffff1673ffffffffffffffffffffffffffffffffffffffff16815260200190815260200160002081908060018154018082558091505060019003906000526020600020906004020160009091909190915060008201518160000155602082015181600101556040820151816002015560608201518160030155505050505050505050565b6040518061014001604052806000815260200160008152602001600073ffffffffffffffffffffffffffffffffffffffff1681526020016000801916815260200160008019168152602001600081526020016000815260200160008152602001600081526020016000151581525090565b6040518060a00160405280600081526020016000815260200160008152602001600073ffffffffffffffffffffffffffffffffffffffff168152602001600081525090565b60405180610c800160405280606490602082028036833780820191505090505090565b6040518060800160405280600081526020016000815260200160008152602001600081525090565b604051806101400160405280600a90602082028036833780820191505090505090565b6040518060800160405280600081526020016000815260200160008152602001600081525090565b600080fd5b6000819050919050565b6149a781614994565b81146149b257600080fd5b50565b6000813590506149c48161499e565b92915050565b600080604083850312156149e1576149e061498f565b5b60006149ef858286016149b5565b9250506020614a00858286016149b5565b9150509250929050565b60008060008060808587031215614a2457614a2361498f565b5b6000614a32878288016149b5565b9450506020614a43878288016149b5565b9350506040614a54878288016149b5565b9250506060614a65878288016149b5565b91505092959194509250565b60008115159050919050565b614a8681614a71565b82525050565b6000602082019050614aa16000830184614a7d565b92915050565b600060208284031215614abd57614abc61498f565b5b6000614acb848285016149b5565b91505092915050565b614add81614994565b82525050565b6000602082019050614af86000830184614ad4565b92915050565b6000819050919050565b614b1181614afe565b8114614b1c57600080fd5b50565b600081359050614b2e81614b08565b92915050565b600080600080600060a08688031215614b5057614b4f61498f565b5b6000614b5e888289016149b5565b9550506020614b6f888289016149b5565b9450506040614b8088828901614b1f565b9350506060614b9188828901614b1f565b9250506080614ba2888289016149b5565b9150509295509295909350565b600080600060608486031215614bc857614bc761498f565b5b6000614bd6868287016149b5565b9350506020614be7868287016149b5565b9250506040614bf8868287016149b5565b9150509250925092565b600073ffffffffffffffffffffffffffffffffffffffff82169050919050565b6000614c2d82614c02565b9050919050565b614c3d81614c22565b82525050565b6000602082019050614c586000830184614c34565b92915050565b7f4e487b7100000000000000000000000000000000000000000000000000000000600052602160045260246000fd5b60048110614c9e57614c9d614c5e565b5b50565b6000819050614caf82614c8d565b919050565b6000614cbf82614ca1565b9050919050565b614ccf81614cb4565b82525050565b6000614ce082614c02565b9050919050565b614cf081614cd5565b82525050565b600061014082019050614d0c600083018d614ad4565b614d19602083018c614ad4565b614d26604083018b614ad4565b614d33606083018a614ad4565b614d406080830189614ad4565b614d4d60a0830188614cc6565b614d5a60c0830187614ce7565b614d6760e0830186614ad4565b614d75610100830185614ad4565b614d83610120830184614ad4565b9b9a5050505050505050505050565b6000819050919050565b614da581614d92565b8114614db057600080fd5b50565b600081359050614dc281614d9c565b92915050565b614dd181614c22565b8114614ddc57600080fd5b50565b600081359050614dee81614dc8565b92915050565b60008060008060808587031215614e0e57614e0d61498f565b5b6000614e1c87828801614db3565b9450506020614e2d878288016149b5565b9350506040614e3e87828801614ddf565b9250506060614e4f878288016149b5565b91505092959194509250565b60008060408385031215614e7257614e7161498f565b5b6000614e8085828601614ddf565b9250506020614e91858286016149b5565b9150509250929050565b6000608082019050614eb06000830187614ad4565b614ebd6020830186614ad4565b614eca6040830185614ad4565b614ed76060830184614ad4565b95945050505050565b600060208284031215614ef657614ef561498f565b5b6000614f0484828501614ddf565b91505092915050565b6000604082019050614f226000830185614ad4565b614f2f6020830184614ad4565b9392505050565b6000604082019050614f4b6000830185614ad4565b614f586020830184614ce7565b9392505050565b614f6881614d92565b82525050565b600061010082019050614f84600083018b614ad4565b614f91602083018a614f5f565b614f9e6040830189614ad4565b614fab6060830188614cc6565b614fb86080830187614ce7565b614fc560a0830186614ad4565b614fd260c0830185614ad4565b614fdf60e0830184614ad4565b9998505050505050505050565b6000600a9050919050565b600081905092915050565b6000819050919050565b61501581614994565b82525050565b6000615027838361500c565b60208301905092915050565b6000602082019050919050565b61504981614fec565b6150538184614ff7565b925061505e82615002565b8060005b8381101561508f578151615076878261501b565b965061508183615033565b925050600181019050615062565b505050505050565b6000610140820190506150ad6000830184615040565b92915050565b6150bc81614cd5565b81146150c757600080fd5b50565b6000813590506150d9816150b3565b92915050565b600080604083850312156150f6576150f561498f565b5b6000615104858286016150ca565b9250506020615115858286016149b5565b9150509250929050565b7f4e487b7100000000000000000000000000000000000000000000000000000000600052601160045260246000fd5b600061515982614994565b915061516483614994565b925082820190508082111561517c5761517b61511f565b5b92915050565b600082825260208201905092915050565b7f496e76616c6964206d616e756661637475726572000000000000000000000000600082015250565b60006151c9601483615182565b91506151d482615193565b602082019050919050565b600060208201905081810360008301526151f8816151bc565b9050919050565b7f4e487b7100000000000000000000000000000000000000000000000000000000600052603260045260246000fd5b6000819050919050565b61524961524482614994565b61522e565b82525050565b600061525b8284615238565b60208201915081905092915050565b7f496e636f7272656374207072696365202d2d206b656570696e6720796f75722060008201527f6d6f6e6579000000000000000000000000000000000000000000000000000000602082015250565b60006152c6602583615182565b91506152d18261526a565b604082019050919050565b600060208201905081810360008301526152f5816152b9565b9050919050565b7f496e636f7272656374207175616e74697479202d2d206b656570696e6720796f60008201527f7572206d6f6e6579000000000000000000000000000000000000000000000000602082015250565b6000615358602883615182565b9150615363826152fc565b604082019050919050565b600060208201905081810360008301526153878161534b565b9050919050565b600061539982614994565b91506153a483614994565b9250817fffffffffffffffffffffffffffffffffffffffffffffffffffffffffffffffff04831182151516156153dd576153dc61511f565b5b828202905092915050565b7f496e73756666696369656e742066756e64732073656e74202d2d206b6565706960008201527f6e6720796f7572206d6f6e657900000000000000000000000000000000000000602082015250565b6000615444602d83615182565b915061544f826153e8565b604082019050919050565b6000602082019050818103600083015261547381615437565b9050919050565b600061548582614994565b91507fffffffffffffffffffffffffffffffffffffffffffffffffffffffffffffffff82036154b7576154b661511f565b5b600182019050919050565b7f5573657220646f65736e27742065786973740000000000000000000000000000600082015250565b60006154f8601283615182565b9150615503826154c2565b602082019050919050565b60006020820190508181036000830152615527816154eb565b9050919050565b7f41756374696f6e20696e2d70726f677265737320616c72656164790000000000600082015250565b6000615564601b83615182565b915061556f8261552e565b602082019050919050565b6000602082019050818103600083015261559381615557565b9050919050565b7f4d616e75666163747572657220646f65736e2774206578697374000000000000600082015250565b60006155d0601a83615182565b91506155db8261559a565b602082019050919050565b600060208201905081810360008301526155ff816155c3565b9050919050565b7f537570706c69657220646f65736e277420657869737400000000000000000000600082015250565b600061563c601683615182565b915061564782615606565b602082019050919050565b6000602082019050818103600083015261566b8161562f565b9050919050565b7f537570706c6965722069736e27742072756e6e696e6720616e2061756374696f60008201527f6e207269676874206e6f77000000000000000000000000000000000000000000602082015250565b60006156ce602b83615182565b91506156d982615672565b604082019050919050565b600060208201905081810360008301526156fd816156c1565b9050919050565b7f537570706c69657220646f65736e742073656c6c20796f750000000000000000600082015250565b600061573a601883615182565b915061574582615704565b602082019050919050565b600060208201905081810360008301526157698161572d565b9050919050565b61577981614afe565b82525050565b60006080820190506157946000830187614ad4565b6157a16020830186614ad4565b6157ae6040830185615770565b6157bb6060830184615770565b95945050505050565b7f4163636573732044656e69656400000000000000000000000000000000000000600082015250565b60006157fa600d83615182565b9150615805826157c4565b602082019050919050565b60006020820190508181036000830152615829816157ed565b9050919050565b7f4d6f6e6579206e6f7420656e6f75676800000000000000000000000000000000600082015250565b6000615866601083615182565b915061587182615830565b602082019050919050565b6000602082019050818103600083015261589581615859565b9050919050565b7f41756374696f6e20656e64656420616c72656164790000000000000000000000600082015250565b60006158d2601583615182565b91506158dd8261589c565b602082019050919050565b60006020820190508181036000830152615901816158c5565b9050919050565b7f4d616e75666163747572657220494420646f65736e6f74206578697374000000600082015250565b600061593e601d83615182565b915061594982615908565b602082019050919050565b6000602082019050818103600083015261596d81615931565b9050919050565b600061597f82614994565b915061598a83614994565b92508282039050818111156159a2576159a161511f565b5b92915050565b7f4e487b7100000000000000000000000000000000000000000000000000000000600052603160045260246000fd5b600060649050919050565b600081905092915050565b6000819050919050565b6000602082019050919050565b615a0d816159d7565b615a1781846159e2565b9250615a22826159ed565b8060005b83811015615a53578151615a3a878261501b565b9650615a45836159f7565b925050600181019050615a26565b505050505050565b6000610d0082019050615a716000830188614ad4565b615a7e6020830187614ad4565b615a8b6040830186614ad4565b615a986060830185614ad4565b615aa56080830184615a04565b9695505050505050565b7f5175616e74697479206e6f7420417661696c61626c6500000000000000000000600082015250565b6000615ae5601683615182565b9150615af082615aaf565b602082019050919050565b60006020820190508181036000830152615b1481615ad8565b9050919050565b7f43616e6e6f742062652073657420627920796f75000000000000000000000000600082015250565b6000615b51601483615182565b9150615b5c82615b1b565b602082019050919050565b60006020820190508181036000830152615b8081615b44565b9050919050565b7f52657665616c207068617365206e6f742072756e6e696e670000000000000000600082015250565b6000615bbd601883615182565b9150615bc882615b87565b602082019050919050565b60006020820190508181036000830152615bec81615bb0565b9050919050565b7f436172206e6f7420666f756e6420696e2074686579206275796572732070757260008201527f6368617365730000000000000000000000000000000000000000000000000000602082015250565b6000615c4f602683615182565b9150615c5a82615bf3565b604082019050919050565b60006020820190508181036000830152615c7e81615c42565b9050919050565b7f5472616e73666572206661696c65642100000000000000000000000000000000600082015250565b6000615cbb601083615182565b9150615cc682615c85565b602082019050919050565b60006020820190508181036000830152615cea81615cae565b905091905056fea264697066735822122014deaaaf5fc0907a36099499eda5e90f5109b3b80afa89655345efeee67b787d64736f6c63430008100033",
  "immutableReferences": {},
  "source": "// SPDX-License-Identifier: MIT\npragma solidity >=0.8.16;\npragma experimental ABIEncoderV2;\n\nimport {FirstAuction} from \"./auction.sol\";\n\ncontract Marketplace {\n    enum AuctionState {\n        RUNNING, // auction is running and bids are being places\n        REVEALING, // auction has ended and bidders are revealing their bids\n        NOT_STARTED, // auction hasn't started yet\n        FINISHED // auction has finished\n    }\n\n    struct Bid {\n        uint256 valuePrice;\n        uint256 valueQuantity;\n        address payable bidderAddress;\n        bytes32 blindBidPrice; // will have price and quantity you are bidding\n        bytes32 blindBidQuantity;\n        uint256 limitingResourceQuantity;\n        uint256 buyerID;\n        uint256 sellerID;\n        uint256 moneySent;\n        bool correctReveal;\n    }\n\n    struct Purchase {\n        uint256 sellerID;\n        uint256 buyerID;\n        uint256 quantity;\n        address payable customeraddr;\n        uint256 money;\n    }\n\n    struct Product {\n        uint256 tag;\n        uint256 manufacturerID;\n        uint256 sellerA; //wheels\n        uint256 sellerB; //car_body\n    }\n\n    uint256 public num_supplier;\n    uint256 public num_manufacturer;\n    uint256 public num_customer;\n    uint256 public num_products;\n\n    mapping(uint256 => Supplier) public suppliers;\n    mapping(uint256 => Manufacturer) public manufacturers;\n    mapping(uint256 => Customer) public customers;\n    mapping(address => Bid[]) bidsTillNow;\n    mapping(address => Purchase[]) purchasesTillNow;\n    mapping(address => Product[]) productsTillNow;\n\n    address payable public owner;\n\n    constructor() {\n        owner = payable(msg.sender);\n        num_manufacturer = 0;\n        num_supplier = 0;\n        num_customer = 0;\n    }\n\n    struct Supplier {\n        uint256 tag;\n        int256 partType; // 0 is wheels, 1 is car_parts\n        uint256 quantityAvailable;\n        AuctionState currentState;\n        address wallet;\n        uint256 maxBidders;\n        uint256 bidsPlaced;\n        uint256 bidsRevealed;\n    }\n\n    struct Manufacturer {\n        uint256 _tag;\n        uint256 quantityA;\n        uint256 quantityB;\n        uint256 cars;\n        uint256 carsprice;\n        AuctionState currentState;\n        address wallet;\n        uint256 maxBidders;\n        uint256 QA_sellerID;\n        uint256 QB_sellerID;\n    }\n\n    mapping(uint256 => Car[]) carsBought;\n\n    struct Car {\n        uint256 tag;\n        uint256 manufacturerID;\n        uint256 sellerIDA;\n        uint256 sellerIDB;\n    }\n\n    struct Customer {\n        uint256 _tag;\n        address wallet;\n    }\n\n    // function makeBidSupplier(int index, ...) public {\n    //     suppliers[index].auction.makeBid(...);\n    // }\n    // Helpers\n    function minimum(uint256 a, uint256 b) public pure returns (uint256) {\n        return a >= b ? b : a;\n    }\n\n    function supplierStartAuction(uint256 tag) public returns (uint256) {\n        // function for supplier to start their bidding process\n        require(tag <= num_supplier, \"User doesn't exist\");\n        require(\n            suppliers[tag].currentState != AuctionState.RUNNING,\n            \"Auction in-progress already\"\n        );\n\n        // TODO: UNCOMMENT THE FOLLOWING TO ENSURE PEOPLE ARE STARTING AUCTIONS FOR THEMSELVES ONLY\n        // require(\n        //     suppliers[tag].wallet == msg.sender,\n        //     \"Start auction only for yourself!\"\n        // );\n\n        suppliers[tag].currentState = AuctionState.RUNNING;\n        suppliers[tag].bidsPlaced = 0;\n        suppliers[tag].bidsRevealed = 0;\n        emit StartSupplierAuction(tag, block.timestamp);\n        return block.timestamp;\n    }\n\n    function supplierEndAuction(uint256 tag) public returns (uint256) {\n        // function for suppilier to end their auction\n        require(tag <= num_supplier, \"User doesn't exist\");\n        require(\n            suppliers[tag].currentState == AuctionState.RUNNING,\n            \"Auction ended already\"\n        );\n\n        // TODO: UNCOMMENT THE FOLLOWING TO ENSURE PEOPLE ARE ENDING AUCTIONS FOR THEMSELVES ONLY\n        // require(\n        //     suppliers[tag].wallet == msg.sender,\n        //     \"End auction only for yourself!\"\n        // );\n\n        suppliers[tag].currentState = AuctionState.REVEALING;\n        suppliers[tag].bidsRevealed = 0;\n        emit EndSupplierAuction(tag, block.timestamp);\n        return block.timestamp;\n    }\n\n    function transferMoney(address senderaddr, uint256 effectivePrice)\n        public\n        payable\n    {\n        // do eth transactions here\n        require(payable(senderaddr).send(effectivePrice), \"Transfer failed!\");\n    }\n\n    function supplierEndReveal(uint256 tag)\n        public\n        returns (\n            // afterOnly(supplierEndAuction(tag))\n            uint256\n        )\n    {\n        require(tag <= num_supplier, \"Supplier doesn't exist\");\n        require(\n            suppliers[tag].currentState == AuctionState.REVEALING,\n            \"Reveal phase not running\"\n        );\n\n        // TODO: UNCOMMENT THE FOLLOWING TO ENSURE PEOPLE ARE ALLOCATING FOR THEMSELVES ONLY\n        // require(\n        //     (suppliers[tag].wallet == msg.sender || owner == msg.sender),\n        //     \"Operation now allowed\"\n        // );\n\n        suppliers[tag].currentState = AuctionState.FINISHED;\n\n        // do allocation logic and emit\n\n        // bubble sort according to bid value\n        for (uint256 i = 0; i < bidsTillNow[suppliers[tag].wallet].length; i++)\n            for (uint256 j = 0; j < i; j++)\n                if (\n                    bidsTillNow[suppliers[tag].wallet][i].valuePrice <\n                    bidsTillNow[suppliers[tag].wallet][j].valuePrice\n                ) {\n                    Bid memory x = bidsTillNow[suppliers[tag].wallet][i];\n                    bidsTillNow[suppliers[tag].wallet][i] = bidsTillNow[\n                        suppliers[tag].wallet\n                    ][j];\n                    bidsTillNow[suppliers[tag].wallet][j] = x;\n                }\n        // allocate according to limiting resource first\n        uint256[100] memory allocatingPrices;\n        uint256[100] memory allocatingQuantities;\n        uint256[100] memory moneySentWithBid;\n\n        for (\n            uint256 i = 0;\n            i < bidsTillNow[suppliers[tag].wallet].length;\n            i++\n        ) {\n            Bid memory bid = bidsTillNow[suppliers[tag].wallet][i];\n            if (bid.correctReveal == false) continue;\n\n            moneySentWithBid[bid.buyerID] = bid.moneySent;\n\n            uint256 allocatingHere = minimum(\n                suppliers[tag].quantityAvailable,\n                bid.limitingResourceQuantity\n            );\n            allocatingHere = minimum(allocatingHere, bid.valueQuantity);\n\n            allocatingPrices[bid.buyerID] = bid.valuePrice;\n            allocatingQuantities[bid.buyerID] = allocatingHere;\n            suppliers[tag].quantityAvailable -= allocatingHere;\n            bidsTillNow[suppliers[tag].wallet][i]\n                .valueQuantity -= allocatingHere;\n        }\n\n        // allocate remaining for maximum profit\n        for (\n            uint256 i = 0;\n            i < bidsTillNow[suppliers[tag].wallet].length;\n            i++\n        ) {\n            Bid memory bid = bidsTillNow[suppliers[tag].wallet][i];\n            if (bid.correctReveal == false) continue;\n            uint256 allocatingHere = minimum(\n                suppliers[tag].quantityAvailable,\n                bid.valueQuantity\n            );\n\n            allocatingQuantities[bid.buyerID] += allocatingHere;\n            suppliers[tag].quantityAvailable -= allocatingHere;\n            bidsTillNow[suppliers[tag].wallet][i]\n                .valueQuantity -= allocatingHere;\n        }\n\n        // emit all allocations\n        for (uint256 i = 1; i <= num_manufacturer; i++)\n            if (allocatingQuantities[i] > 0) {\n                emit AllocateFromSupplier(\n                    tag,\n                    i,\n                    allocatingQuantities[i],\n                    allocatingPrices[i]\n                );\n                transferMoney(\n                    manufacturers[i].wallet,\n                    (moneySentWithBid[i] -\n                        allocatingPrices[i] *\n                        allocatingQuantities[i])\n                );\n                transferMoney(\n                    suppliers[tag].wallet,\n                    (allocatingPrices[i] * allocatingQuantities[i])\n                );\n                //update all the manufacturers quanitites to make cars\n                if (suppliers[tag].partType == 1)\n                    updateManufacturerQuantities(\n                        i,\n                        allocatingQuantities[i],\n                        0,\n                        tag,\n                        0\n                    );\n                else if (suppliers[tag].partType == 2)\n                    updateManufacturerQuantities(\n                        i,\n                        0,\n                        allocatingQuantities[i],\n                        0,\n                        tag\n                    );\n                else revert();\n            }\n        while (bidsTillNow[suppliers[tag].wallet].length > 0)\n            bidsTillNow[suppliers[tag].wallet].pop();\n        return block.timestamp;\n    }\n\n    function manufacturerPlacesBid(\n        uint256 manufacturerID,\n        uint256 supplierID,\n        bytes32 blindPrice,\n        bytes32 blindQuantity,\n        uint256 limit // beforeOnly(supplierEndAuction(supplierID)) // afterOnly(supplierEndAuction(supplierID))\n    ) public payable {\n        //should get all data needed for bid\n        // function for manufacturer to place a bid\n        require(\n            num_manufacturer >= manufacturerID,\n            \"Manufacturer doesn't exist\"\n        );\n        require(num_supplier >= supplierID, \"Supplier doesn't exist\");\n        require(\n            suppliers[supplierID].currentState == AuctionState.RUNNING,\n            \"Supplier isn't running an auction right now\"\n        );\n        require(\n            supplierID == manufacturerID || supplierID == 3,\n            \"Supplier doesnt sell you\"\n        );\n\n        // TODO: UNCOMMENT THE FOLLOWING TO ENSURE PEOPLE ARE ONLY PLACING BIDS FOR THEMSELVES\n        // require(\n        //     manufacturers[manufacturerID].wallet == msg.sender,\n        //     \"You can only bid for yourself!\"\n        // );\n\n        Bid memory newbid;\n        newbid.bidderAddress = payable(msg.sender);\n        newbid.moneySent = msg.value;\n        newbid.buyerID = manufacturerID;\n        newbid.sellerID = supplierID;\n        newbid.blindBidPrice = blindPrice;\n        newbid.blindBidQuantity = blindQuantity;\n        newbid.limitingResourceQuantity = limit;\n        newbid.valuePrice = 0;\n        newbid.valueQuantity = 0;\n        newbid.correctReveal = false;\n\n        address supplieraddr = suppliers[supplierID].wallet;\n        bidsTillNow[supplieraddr].push(newbid);\n\n        suppliers[supplierID].bidsPlaced += 1;\n\n        emit ManufacturerBids(\n            supplierID,\n            manufacturerID,\n            blindPrice,\n            blindQuantity\n        );\n\n        // if (\n        //     suppliers[supplierID].bidsPlaced == suppliers[supplierID].maxBidders\n        // ) {\n        //     // go to reveal phase\n        //     suppliers[supplierID].currentState = AuctionState.REVEALING;\n        //     supplierEndAuction()\n        // }\n    }\n\n    function customerPurchase(\n        uint256 customerID,\n        uint256 manufacturerID,\n        uint256 quantity\n    ) external payable {\n        require(\n            customers[customerID].wallet == msg.sender || owner == msg.sender,\n            \"Access Denied\"\n        );\n        Purchase memory newpurchase;\n        newpurchase.sellerID = manufacturerID;\n        newpurchase.customeraddr = payable(msg.sender);\n        newpurchase.quantity = quantity;\n        newpurchase.buyerID = customerID;\n        newpurchase.money = msg.value;\n        uint256 unit_cost = manufacturers[manufacturerID].carsprice;\n        uint256 total_cost = unit_cost * quantity;\n        require(newpurchase.money >= total_cost, \"Money not enough\");\n        address manf_adrr = manufacturers[manufacturerID].wallet;\n        purchasesTillNow[manf_adrr].push(newpurchase);\n        emit CustomerRequest(\n            customerID,\n            manufacturerID,\n            quantity,\n            manufacturers[manufacturerID].carsprice\n        );\n    }\n\n    function manufactuerRevealBid(\n        uint256 manufacturerID,\n        uint256 supplierID,\n        uint256 price,\n        uint256 quantity\n    ) public returns (bool) {\n        require(manufacturerID <= num_manufacturer, \"Invalid manufacturer\");\n        require(suppliers[supplierID].currentState == AuctionState.REVEALING);\n        // TODO: UNCOMMENT THE FOLLOWING TO ENSURE PEOPLE ARE ONLY REVEALING BIDS FOR THEMSELVES\n        // require(\n        //     manufacturers[manufacturerID].wallet == msg.sender,\n        //     \"Reveal only for yourself!\"\n        // );\n\n        for (\n            uint256 i = 0;\n            i < bidsTillNow[suppliers[supplierID].wallet].length;\n            i++\n        )\n            if (\n                bidsTillNow[suppliers[supplierID].wallet][i].buyerID ==\n                manufacturerID\n            ) {\n                require(\n                    keccak256(abi.encodePacked(price)) ==\n                        bidsTillNow[suppliers[supplierID].wallet][i]\n                            .blindBidPrice,\n                    \"Incorrect price -- keeping your money\"\n                );\n                require(\n                    keccak256(abi.encodePacked(quantity)) ==\n                        bidsTillNow[suppliers[supplierID].wallet][i]\n                            .blindBidQuantity,\n                    \"Incorrect quantity -- keeping your money\"\n                );\n                if (\n                    keccak256(abi.encodePacked(price)) !=\n                    bidsTillNow[suppliers[supplierID].wallet][i].blindBidPrice\n                ) {\n                    bidsTillNow[suppliers[supplierID].wallet][i]\n                        .correctReveal = false;\n                    return false;\n                }\n                if (\n                    keccak256(abi.encodePacked(quantity)) !=\n                    bidsTillNow[suppliers[supplierID].wallet][i]\n                        .blindBidQuantity\n                ) {\n                    bidsTillNow[suppliers[supplierID].wallet][i]\n                        .correctReveal = false;\n                    return false;\n                }\n\n                uint256 effectivePrice = price * quantity;\n                require(\n                    effectivePrice <\n                        bidsTillNow[suppliers[supplierID].wallet][i].moneySent,\n                    \"Insufficient funds sent -- keeping your money\"\n                );\n\n                bidsTillNow[suppliers[supplierID].wallet][i]\n                    .correctReveal = true;\n\n                bidsTillNow[suppliers[supplierID].wallet][i].valuePrice = price;\n                bidsTillNow[suppliers[supplierID].wallet][i]\n                    .valueQuantity = quantity;\n                emit ManufacturerReveal(\n                    supplierID,\n                    manufacturerID,\n                    price,\n                    quantity\n                );\n\n                suppliers[supplierID].bidsRevealed += 1;\n                if (\n                    suppliers[supplierID].bidsRevealed ==\n                    suppliers[supplierID].maxBidders\n                ) {\n                    // go to allocation\n                    // supplierEndReveal(supplierID);\n                }\n\n                return true;\n            }\n        return false;\n    }\n\n    function manufacturerSupplyCars(uint256 manufacturerID) public {\n        require(num_manufacturer >= manufacturerID);\n        require(\n            msg.sender == manufacturers[manufacturerID].wallet ||\n                msg.sender == owner\n        );\n        for (\n            uint256 i = 0;\n            i < purchasesTillNow[manufacturers[manufacturerID].wallet].length;\n            i++\n        ) {\n            //Money is already checked, Quantity check is done here\n            if (\n                purchasesTillNow[manufacturers[manufacturerID].wallet][i]\n                    .quantity <= manufacturers[manufacturerID].cars\n            ) {\n                uint256 effective_price = purchasesTillNow[\n                    manufacturers[manufacturerID].wallet\n                ][i].quantity * manufacturers[manufacturerID].carsprice;\n                uint256 refund_amount = purchasesTillNow[\n                    manufacturers[manufacturerID].wallet\n                ][i].money - effective_price;\n\n                manufacturers[manufacturerID].cars -= purchasesTillNow[\n                    manufacturers[manufacturerID].wallet\n                ][i].quantity;\n                uint256 num_of_cars = purchasesTillNow[\n                    manufacturers[manufacturerID].wallet\n                ][i].quantity;\n                address mf_adrr = manufacturers[manufacturerID].wallet;\n                uint256[100] memory carTags;\n                uint256 carTagsIdx = 0;\n                for (uint256 j = 0; j < num_of_cars; j++) {\n                    uint256 idx = productsTillNow[mf_adrr].length - 1;\n                    Car memory newcar;\n                    newcar.tag = productsTillNow[mf_adrr][idx].tag;\n                    newcar.manufacturerID = manufacturerID;\n                    newcar.sellerIDA = productsTillNow[mf_adrr][idx].sellerA;\n                    newcar.sellerIDB = productsTillNow[mf_adrr][idx].sellerB;\n                    carsBought[purchasesTillNow[mf_adrr][idx].buyerID].push(\n                        newcar\n                    );\n                    productsTillNow[mf_adrr].pop();\n                    carTags[carTagsIdx++] = newcar.tag;\n                }\n                transferMoney(\n                    manufacturers[manufacturerID].wallet,\n                    effective_price\n                );\n                transferMoney(\n                    customers[\n                        purchasesTillNow[manufacturers[manufacturerID].wallet][\n                            i\n                        ].buyerID\n                    ].wallet,\n                    refund_amount\n                );\n                // refundMoney(\n                // customers[purchasesTillNow[manufacturers[manufacturerID].wallet][i].buyerID].wallet,\n                // refund_amount);\n                emit AllocateFromManufacturer(\n                    manufacturerID,\n                    purchasesTillNow[manufacturers[manufacturerID].wallet][i]\n                        .buyerID,\n                    purchasesTillNow[manufacturers[manufacturerID].wallet][i]\n                        .quantity,\n                    effective_price,\n                    carTags\n                );\n            } else {\n                //send them back the amount saying quantity not available\n                revert(\"Quantity not Available\"); //gas to caller\n            }\n        }\n        while (\n            purchasesTillNow[manufacturers[manufacturerID].wallet].length > 0\n        ) purchasesTillNow[manufacturers[manufacturerID].wallet].pop();\n    }\n\n    function addSupplier(\n        int256 partType,\n        uint256 quantityAvailable,\n        address payable addr,\n        uint256 auctionBidders\n    ) public {\n        num_supplier++;\n        suppliers[num_supplier] = Supplier(\n            num_supplier,\n            partType,\n            quantityAvailable,\n            AuctionState.NOT_STARTED,\n            addr,\n            auctionBidders,\n            0,\n            0\n        );\n    }\n\n    function addManufacturer(address payable addr, uint256 auctionBidders)\n        public\n    {\n        num_manufacturer++;\n        manufacturers[num_manufacturer] = Manufacturer(\n            num_manufacturer,\n            0,\n            0,\n            0,\n            0,\n            AuctionState.NOT_STARTED,\n            addr,\n            auctionBidders,\n            0,\n            0\n        );\n    }\n\n    function addCustomer(address payable addr) public {\n        num_customer++;\n        customers[num_customer] = Customer(num_customer, addr);\n    }\n\n    // Setter functions\n    function supplierAddQuantity(uint256 suppliedID, uint256 quantityToAdd)\n        public\n    {\n        require(suppliers[suppliedID].wallet == msg.sender);\n        require(num_supplier >= suppliedID);\n        // increase the supplier quantity\n        suppliers[suppliedID].quantityAvailable += quantityToAdd;\n    }\n\n    function updateManufacturerQuantities(\n        uint256 manufacturerID,\n        uint256 quantityA,\n        uint256 quantityB,\n        uint256 supplierA,\n        uint256 supplierB\n    ) private {\n        manufacturers[manufacturerID].quantityA += quantityA;\n        manufacturers[manufacturerID].quantityB += quantityB;\n        uint256 max_cars = minimum(\n            manufacturers[manufacturerID].quantityA,\n            manufacturers[manufacturerID].quantityB\n        );\n        manufacturers[manufacturerID].quantityA -= max_cars;\n        manufacturers[manufacturerID].quantityB -= max_cars;\n        manufacturers[manufacturerID].cars += max_cars;\n\n        Product memory newcar;\n        num_products++;\n        newcar.tag = num_products;\n        newcar.manufacturerID = manufacturerID;\n        newcar.sellerA = manufacturerID;\n        newcar.sellerB = 3;\n        productsTillNow[manufacturers[manufacturerID].wallet].push(newcar);\n    }\n\n    function set_cars_price(uint256 manufacturerID, uint256 price) public {\n        require(\n            msg.sender == manufacturers[manufacturerID].wallet ||\n                msg.sender == owner,\n            \"Cannot be set by you\"\n        );\n        manufacturers[manufacturerID].carsprice = price;\n    }\n\n    // Starting, ending and allocation of auction by supplier\n    event StartSupplierAuction(uint256 supplierID, uint256 startTime);\n    event EndSupplierAuction(uint256 supplierID, uint256 endTime);\n    event AllocateFromSupplier(\n        uint256 supplierID,\n        uint256 manufacturerID,\n        uint256 quantity,\n        uint256 price\n    );\n\n    // Starting, ending and allocation of auctions by manufacturers\n    event StartManufacturerAuction(uint256 manufacturerID, uint256 startTime);\n    event EndManufacturerAuction(uint256 manufacturerID, uint256 endTime);\n    event CustomerRequest(\n        uint256 CustomerID,\n        uint256 ManufacturerID,\n        uint256 Quantity,\n        uint256 Price\n    );\n    event AllocateFromManufacturer(\n        uint256 manufacturerID,\n        uint256 customerID,\n        uint256 quantity,\n        uint256 price,\n        uint256[100] carTag\n    );\n\n    // Manufacturer places a bid to the supplier\n    event ManufacturerBids(\n        uint256 supplierID,\n        uint256 manufacturerID,\n        bytes32 blindBidPrice,\n        bytes32 blindBidQuantity\n    );\n    // Manufacturer reveals it's bid to the supplier by providing the key\n    event ManufacturerReveal(\n        uint256 supplierID,\n        uint256 manufacturerID,\n        uint256 price,\n        uint256 quantity\n    );\n\n    // Customer places a bid to the manufacturer\n    event CustomerBid(\n        uint256 manufacturerID,\n        uint256 customerID,\n        bytes32 blindBid\n    );\n    event CustomerReveal(\n        uint256 manufacturerID,\n        uint256 customerID,\n        uint256 price,\n        uint256 quantity\n    );\n\n    // ALL GET FUNCTIONS\n\n    function verifyproduct(uint256 customerID, uint256 car_tag)\n        public\n        view\n        returns (\n            uint256 carID,\n            uint256 manfID,\n            uint256 sellerIDA,\n            uint256 sellerIDB\n        )\n    {\n        for (uint256 i = 0; i < carsBought[customerID].length; i++) {\n            if (carsBought[customerID][i].tag == car_tag)\n                return (\n                    car_tag,\n                    carsBought[customerID][i].manufacturerID,\n                    carsBought[customerID][i].sellerIDA,\n                    carsBought[customerID][i].sellerIDB\n                );\n        }\n        require(0 == 1, \"Car not found in they buyers purchases\");\n        return (0, 0, 0, 0);\n    }\n\n    //everyone can access it\n    function get_cars_price_quantity(uint256 manfID)\n        public\n        view\n        returns (uint256 price, uint256 quantity)\n    {\n        require(num_manufacturer >= manfID, \"Manufacturer ID doesnot exist\");\n        return (manufacturers[manfID].carsprice, manufacturers[manfID].cars);\n    }\n\n    function get_manufacturer_data(uint256 manfID)\n        public\n        view\n        returns (\n            uint256 tag,\n            uint256 quantA,\n            uint256 quantB,\n            uint256 cars\n        )\n    {\n        Manufacturer memory t = manufacturers[manfID];\n        return (t._tag, t.quantityA, t.quantityB, t.cars);\n    }\n\n    function get_car_data(uint256 customerID)\n        public\n        view\n        returns (uint256[10] memory cars)\n    {\n        uint256[10] memory data;\n        uint256 idx = 0;\n        for (uint256 i = 0; i < carsBought[customerID].length; i++) {\n            data[idx++] = carsBought[customerID][i].tag;\n        }\n        return data;\n    }\n\n    // all modifiers\n    modifier beforeOnly(uint256 _time) {\n        require(block.timestamp < _time);\n        _;\n    }\n    modifier afterOnly(uint256 _time) {\n        require(block.timestamp > _time);\n        _;\n    }\n\n    //test only\n    function set_cars(uint256 manfID, uint256 quant) public {\n        manufacturers[manfID].cars = quant;\n    }\n}\n",
  "sourcePath": "/home/kjain1810/Desktop/padhai/sem7/dtb/Supply-Chain-Smartcontract/contracts/Marketplace.sol",
  "compiler": {
    "name": "solc",
    "version": "0.8.16+commit.07a7930e.Emscripten.clang"
  },
  "schemaVersion": "3.4.9",
  "updatedAt": "2022-08-31T17:01:13.331Z",
  "networkType": "ethereum",
  "devdoc": {
    "kind": "dev",
    "methods": {},
    "version": 1
  },
  "userdoc": {
    "kind": "user",
    "methods": {},
    "version": 1
  }
}