{
  "contractName": "Marketplace",
  "abi": [
    {
      "inputs": [],
      "stateMutability": "nonpayable",
      "type": "constructor"
    },
    {
      "anonymous": false,
      "inputs": [
        {
          "indexed": false,
          "internalType": "uint256",
          "name": "manufacturerID",
          "type": "uint256"
        },
        {
          "indexed": false,
          "internalType": "uint256",
          "name": "customerID",
          "type": "uint256"
        },
        {
          "indexed": false,
          "internalType": "uint256",
          "name": "quantity",
          "type": "uint256"
        },
        {
          "indexed": false,
          "internalType": "uint256",
          "name": "price",
          "type": "uint256"
        }
      ],
      "name": "AllocateFromManufacturer",
      "type": "event"
    },
    {
      "anonymous": false,
      "inputs": [
        {
          "indexed": false,
          "internalType": "uint256",
          "name": "supplierID",
          "type": "uint256"
        },
        {
          "indexed": false,
          "internalType": "uint256",
          "name": "manufacturerID",
          "type": "uint256"
        },
        {
          "indexed": false,
          "internalType": "uint256",
          "name": "quantity",
          "type": "uint256"
        },
        {
          "indexed": false,
          "internalType": "uint256",
          "name": "price",
          "type": "uint256"
        }
      ],
      "name": "AllocateFromSupplier",
      "type": "event"
    },
    {
      "anonymous": false,
      "inputs": [
        {
          "indexed": false,
          "internalType": "uint256",
          "name": "manufacturerID",
          "type": "uint256"
        },
        {
          "indexed": false,
          "internalType": "uint256",
          "name": "customerID",
          "type": "uint256"
        },
        {
          "indexed": false,
          "internalType": "bytes32",
          "name": "blindBid",
          "type": "bytes32"
        }
      ],
      "name": "CustomerBid",
      "type": "event"
    },
    {
      "anonymous": false,
      "inputs": [
        {
          "indexed": false,
          "internalType": "uint256",
          "name": "CustomerID",
          "type": "uint256"
        },
        {
          "indexed": false,
          "internalType": "uint256",
          "name": "ManufacturerID",
          "type": "uint256"
        },
        {
          "indexed": false,
          "internalType": "uint256",
          "name": "Quantity",
          "type": "uint256"
        },
        {
          "indexed": false,
          "internalType": "uint256",
          "name": "Price",
          "type": "uint256"
        }
      ],
      "name": "CustomerRequest",
      "type": "event"
    },
    {
      "anonymous": false,
      "inputs": [
        {
          "indexed": false,
          "internalType": "uint256",
          "name": "manufacturerID",
          "type": "uint256"
        },
        {
          "indexed": false,
          "internalType": "uint256",
          "name": "customerID",
          "type": "uint256"
        },
        {
          "indexed": false,
          "internalType": "uint256",
          "name": "price",
          "type": "uint256"
        },
        {
          "indexed": false,
          "internalType": "uint256",
          "name": "quantity",
          "type": "uint256"
        }
      ],
      "name": "CustomerReveal",
      "type": "event"
    },
    {
      "anonymous": false,
      "inputs": [
        {
          "indexed": false,
          "internalType": "uint256",
          "name": "manufacturerID",
          "type": "uint256"
        },
        {
          "indexed": false,
          "internalType": "uint256",
          "name": "endTime",
          "type": "uint256"
        }
      ],
      "name": "EndManufacturerAuction",
      "type": "event"
    },
    {
      "anonymous": false,
      "inputs": [
        {
          "indexed": false,
          "internalType": "uint256",
          "name": "supplierID",
          "type": "uint256"
        },
        {
          "indexed": false,
          "internalType": "uint256",
          "name": "endTime",
          "type": "uint256"
        }
      ],
      "name": "EndSupplierAuction",
      "type": "event"
    },
    {
      "anonymous": false,
      "inputs": [
        {
          "indexed": false,
          "internalType": "uint256",
          "name": "supplierID",
          "type": "uint256"
        },
        {
          "indexed": false,
          "internalType": "uint256",
          "name": "manufacturerID",
          "type": "uint256"
        },
        {
          "indexed": false,
          "internalType": "bytes32",
          "name": "blindBidPrice",
          "type": "bytes32"
        },
        {
          "indexed": false,
          "internalType": "bytes32",
          "name": "blindBidQuantity",
          "type": "bytes32"
        }
      ],
      "name": "ManufacturerBids",
      "type": "event"
    },
    {
      "anonymous": false,
      "inputs": [
        {
          "indexed": false,
          "internalType": "uint256",
          "name": "supplierID",
          "type": "uint256"
        },
        {
          "indexed": false,
          "internalType": "uint256",
          "name": "manufacturerID",
          "type": "uint256"
        },
        {
          "indexed": false,
          "internalType": "uint256",
          "name": "price",
          "type": "uint256"
        },
        {
          "indexed": false,
          "internalType": "uint256",
          "name": "quantity",
          "type": "uint256"
        }
      ],
      "name": "ManufacturerReveal",
      "type": "event"
    },
    {
      "anonymous": false,
      "inputs": [
        {
          "indexed": false,
          "internalType": "uint256",
          "name": "manufacturerID",
          "type": "uint256"
        },
        {
          "indexed": false,
          "internalType": "uint256",
          "name": "startTime",
          "type": "uint256"
        }
      ],
      "name": "StartManufacturerAuction",
      "type": "event"
    },
    {
      "anonymous": false,
      "inputs": [
        {
          "indexed": false,
          "internalType": "uint256",
          "name": "supplierID",
          "type": "uint256"
        },
        {
          "indexed": false,
          "internalType": "uint256",
          "name": "startTime",
          "type": "uint256"
        }
      ],
      "name": "StartSupplierAuction",
      "type": "event"
    },
    {
      "inputs": [
        {
          "internalType": "uint256",
          "name": "",
          "type": "uint256"
        }
      ],
      "name": "customers",
      "outputs": [
        {
          "internalType": "uint256",
          "name": "_tag",
          "type": "uint256"
        },
        {
          "internalType": "address",
          "name": "wallet",
          "type": "address"
        }
      ],
      "stateMutability": "view",
      "type": "function",
      "constant": true
    },
    {
      "inputs": [
        {
          "internalType": "uint256",
          "name": "",
          "type": "uint256"
        }
      ],
      "name": "manufacturers",
      "outputs": [
        {
          "internalType": "uint256",
          "name": "_tag",
          "type": "uint256"
        },
        {
          "internalType": "uint256",
          "name": "quantityA",
          "type": "uint256"
        },
        {
          "internalType": "uint256",
          "name": "quantityB",
          "type": "uint256"
        },
        {
          "internalType": "uint256",
          "name": "cars",
          "type": "uint256"
        },
        {
          "internalType": "uint256",
          "name": "carsprice",
          "type": "uint256"
        },
        {
          "internalType": "enum Marketplace.AuctionState",
          "name": "currentState",
          "type": "uint8"
        },
        {
          "internalType": "address",
          "name": "wallet",
          "type": "address"
        },
        {
          "internalType": "uint256",
          "name": "maxBidders",
          "type": "uint256"
        }
      ],
      "stateMutability": "view",
      "type": "function",
      "constant": true
    },
    {
      "inputs": [],
      "name": "num_customer",
      "outputs": [
        {
          "internalType": "uint256",
          "name": "",
          "type": "uint256"
        }
      ],
      "stateMutability": "view",
      "type": "function",
      "constant": true
    },
    {
      "inputs": [],
      "name": "num_manufacturer",
      "outputs": [
        {
          "internalType": "uint256",
          "name": "",
          "type": "uint256"
        }
      ],
      "stateMutability": "view",
      "type": "function",
      "constant": true
    },
    {
      "inputs": [],
      "name": "num_supplier",
      "outputs": [
        {
          "internalType": "uint256",
          "name": "",
          "type": "uint256"
        }
      ],
      "stateMutability": "view",
      "type": "function",
      "constant": true
    },
    {
      "inputs": [],
      "name": "owner",
      "outputs": [
        {
          "internalType": "address payable",
          "name": "",
          "type": "address"
        }
      ],
      "stateMutability": "view",
      "type": "function",
      "constant": true
    },
    {
      "inputs": [
        {
          "internalType": "uint256",
          "name": "",
          "type": "uint256"
        }
      ],
      "name": "suppliers",
      "outputs": [
        {
          "internalType": "uint256",
          "name": "tag",
          "type": "uint256"
        },
        {
          "internalType": "int256",
          "name": "partType",
          "type": "int256"
        },
        {
          "internalType": "uint256",
          "name": "quantityAvailable",
          "type": "uint256"
        },
        {
          "internalType": "enum Marketplace.AuctionState",
          "name": "currentState",
          "type": "uint8"
        },
        {
          "internalType": "address",
          "name": "wallet",
          "type": "address"
        },
        {
          "internalType": "uint256",
          "name": "maxBidders",
          "type": "uint256"
        },
        {
          "internalType": "uint256",
          "name": "bidsPlaced",
          "type": "uint256"
        },
        {
          "internalType": "uint256",
          "name": "bidsRevealed",
          "type": "uint256"
        }
      ],
      "stateMutability": "view",
      "type": "function",
      "constant": true
    },
    {
      "inputs": [
        {
          "internalType": "uint256",
          "name": "a",
          "type": "uint256"
        },
        {
          "internalType": "uint256",
          "name": "b",
          "type": "uint256"
        }
      ],
      "name": "minimum",
      "outputs": [
        {
          "internalType": "uint256",
          "name": "",
          "type": "uint256"
        }
      ],
      "stateMutability": "pure",
      "type": "function",
      "constant": true
    },
    {
      "inputs": [
        {
          "internalType": "uint256",
          "name": "tag",
          "type": "uint256"
        }
      ],
      "name": "supplierStartAuction",
      "outputs": [
        {
          "internalType": "uint256",
          "name": "",
          "type": "uint256"
        }
      ],
      "stateMutability": "nonpayable",
      "type": "function"
    },
    {
      "inputs": [
        {
          "internalType": "uint256",
          "name": "tag",
          "type": "uint256"
        }
      ],
      "name": "supplierEndAuction",
      "outputs": [
        {
          "internalType": "uint256",
          "name": "",
          "type": "uint256"
        }
      ],
      "stateMutability": "nonpayable",
      "type": "function"
    },
    {
      "inputs": [
        {
          "internalType": "uint256",
          "name": "tag",
          "type": "uint256"
        }
      ],
      "name": "supplierEndReveal",
      "outputs": [
        {
          "internalType": "uint256",
          "name": "",
          "type": "uint256"
        }
      ],
      "stateMutability": "nonpayable",
      "type": "function"
    },
    {
      "inputs": [
        {
          "internalType": "uint256",
          "name": "manufacturerID",
          "type": "uint256"
        },
        {
          "internalType": "uint256",
          "name": "supplierID",
          "type": "uint256"
        },
        {
          "internalType": "bytes32",
          "name": "blindPrice",
          "type": "bytes32"
        },
        {
          "internalType": "bytes32",
          "name": "blindQuantity",
          "type": "bytes32"
        },
        {
          "internalType": "uint256",
          "name": "limit",
          "type": "uint256"
        }
      ],
      "name": "manufacturerPlacesBid",
      "outputs": [],
      "stateMutability": "nonpayable",
      "type": "function"
    },
    {
      "inputs": [
        {
          "internalType": "uint256",
          "name": "customerID",
          "type": "uint256"
        },
        {
          "internalType": "uint256",
          "name": "manufacturerID",
          "type": "uint256"
        },
        {
          "internalType": "uint256",
          "name": "quantity",
          "type": "uint256"
        }
      ],
      "name": "customerPurchase",
      "outputs": [],
      "stateMutability": "payable",
      "type": "function",
      "payable": true
    },
    {
      "inputs": [
        {
          "internalType": "uint256",
          "name": "manufacturerID",
          "type": "uint256"
        },
        {
          "internalType": "uint256",
          "name": "supplierID",
          "type": "uint256"
        },
        {
          "internalType": "uint256",
          "name": "price",
          "type": "uint256"
        },
        {
          "internalType": "uint256",
          "name": "quantity",
          "type": "uint256"
        }
      ],
      "name": "manufactuerRevealBid",
      "outputs": [
        {
          "internalType": "bool",
          "name": "",
          "type": "bool"
        }
      ],
      "stateMutability": "nonpayable",
      "type": "function"
    },
    {
      "inputs": [
        {
          "internalType": "uint256",
          "name": "manufacturerID",
          "type": "uint256"
        }
      ],
      "name": "ManufacturerSupplyCars",
      "outputs": [],
      "stateMutability": "nonpayable",
      "type": "function"
    },
    {
      "inputs": [
        {
          "internalType": "int256",
          "name": "partType",
          "type": "int256"
        },
        {
          "internalType": "uint256",
          "name": "quantityAvailable",
          "type": "uint256"
        },
        {
          "internalType": "address payable",
          "name": "addr",
          "type": "address"
        },
        {
          "internalType": "uint256",
          "name": "auctionBidders",
          "type": "uint256"
        }
      ],
      "name": "addSupplier",
      "outputs": [],
      "stateMutability": "nonpayable",
      "type": "function"
    },
    {
      "inputs": [
        {
          "internalType": "address payable",
          "name": "addr",
          "type": "address"
        },
        {
          "internalType": "uint256",
          "name": "auctionBidders",
          "type": "uint256"
        }
      ],
      "name": "addManufacturer",
      "outputs": [],
      "stateMutability": "nonpayable",
      "type": "function"
    },
    {
      "inputs": [
        {
          "internalType": "address payable",
          "name": "addr",
          "type": "address"
        }
      ],
      "name": "addCustomer",
      "outputs": [],
      "stateMutability": "nonpayable",
      "type": "function"
    },
    {
      "inputs": [
        {
          "internalType": "uint256",
          "name": "suppliedID",
          "type": "uint256"
        },
        {
          "internalType": "uint256",
          "name": "quantityToAdd",
          "type": "uint256"
        }
      ],
      "name": "supplierAddQuantity",
      "outputs": [],
      "stateMutability": "nonpayable",
      "type": "function"
    },
    {
      "inputs": [
        {
          "internalType": "uint256",
          "name": "manufacturerID",
          "type": "uint256"
        },
        {
          "internalType": "uint256",
          "name": "price",
          "type": "uint256"
        }
      ],
      "name": "set_cars_price",
      "outputs": [],
      "stateMutability": "nonpayable",
      "type": "function"
    },
    {
      "inputs": [],
      "name": "getActors",
      "outputs": [
        {
          "internalType": "address[200]",
          "name": "",
          "type": "address[200]"
        }
      ],
      "stateMutability": "view",
      "type": "function",
      "constant": true
    },
    {
      "inputs": [],
      "name": "getBids",
      "outputs": [
        {
          "internalType": "uint256[100]",
          "name": "",
          "type": "uint256[100]"
        }
      ],
      "stateMutability": "view",
      "type": "function",
      "constant": true
    },
    {
      "inputs": [
        {
          "internalType": "uint256",
          "name": "manfID",
          "type": "uint256"
        }
      ],
      "name": "get_cars_price_quantity",
      "outputs": [
        {
          "internalType": "uint256",
          "name": "",
          "type": "uint256"
        },
        {
          "internalType": "uint256",
          "name": "",
          "type": "uint256"
        }
      ],
      "stateMutability": "view",
      "type": "function",
      "constant": true
    },
    {
      "inputs": [
        {
          "internalType": "uint256",
          "name": "manfID",
          "type": "uint256"
        },
        {
          "internalType": "uint256",
          "name": "quant",
          "type": "uint256"
        }
      ],
      "name": "set_cars",
      "outputs": [],
      "stateMutability": "nonpayable",
      "type": "function"
    }
  ],
  "bytecode": "0x608060405234801561001057600080fd5b5033600860006101000a81548173ffffffffffffffffffffffffffffffffffffffff021916908373ffffffffffffffffffffffffffffffffffffffff1602179055506000600181905550600080819055506000600281905550614b42806100786000396000f3fe60806040526004361061014b5760003560e01c8063aa8613c4116100b6578063cea231211161006f578063cea23121146104ae578063d6470b49146104f2578063dd2d2a121461051b578063e2416a2c14610558578063eb16d0e414610595578063edcac78b146105c05761014b565b8063aa8613c414610378578063ad973d74146103b5578063b1877fb9146103de578063b81c78ec1461041c578063c0abda2a14610447578063c5828c7d146104855761014b565b806362949a5d1161010857806362949a5d14610272578063753063af1461028e5780638da5cb5b146102b757806390175af1146102e25780639a7a9b1314610326578063a436792b1461034f5761014b565b80630cf3750d14610150578063137e7a7d146101795780631788b2d9146101a457806317c9dea6146101e157806318c15d421461021e5780634cc9aff814610247575b600080fd5b34801561015c57600080fd5b5061017760048036038101906101729190613c3b565b6105eb565b005b34801561018557600080fd5b5061018e610699565b60405161019b9190613d58565b60405180910390f35b3480156101b057600080fd5b506101cb60048036038101906101c69190613d74565b6108c8565b6040516101d89190613df6565b60405180910390f35b3480156101ed57600080fd5b5061020860048036038101906102039190613e11565b610f3f565b6040516102159190613e4d565b60405180910390f35b34801561022a57600080fd5b5061024560048036038101906102409190613e9e565b6110c7565b005b34801561025357600080fd5b5061025c6114b0565b6040516102699190613e4d565b60405180910390f35b61028c60048036038101906102879190613f19565b6114b6565b005b34801561029a57600080fd5b506102b560048036038101906102b09190613e11565b6117fd565b005b3480156102c357600080fd5b506102cc611ece565b6040516102d99190613f8d565b60405180910390f35b3480156102ee57600080fd5b5061030960048036038101906103049190613e11565b611ef4565b60405161031d98979695949392919061402e565b60405180910390f35b34801561033257600080fd5b5061034d6004803603810190610348919061410e565b611f69565b005b34801561035b57600080fd5b5061037660048036038101906103719190614175565b6120b7565b005b34801561038457600080fd5b5061039f600480360381019061039a9190613e11565b612207565b6040516103ac9190613e4d565b60405180910390f35b3480156103c157600080fd5b506103dc60048036038101906103d791906141b5565b612373565b005b3480156103ea57600080fd5b5061040560048036038101906104009190613e11565b612424565b6040516104139291906141e2565b60405180910390f35b34801561042857600080fd5b5061043161245e565b60405161043e91906142b6565b60405180910390f35b34801561045357600080fd5b5061046e60048036038101906104699190613e11565b612905565b60405161047c9291906142d2565b60405180910390f35b34801561049157600080fd5b506104ac60048036038101906104a79190613c3b565b612949565b005b3480156104ba57600080fd5b506104d560048036038101906104d09190613e11565b612968565b6040516104e998979695949392919061430a565b60405180910390f35b3480156104fe57600080fd5b5061051960048036038101906105149190613c3b565b6129dd565b005b34801561052757600080fd5b50610542600480360381019061053d9190613c3b565b612af8565b60405161054f9190613e4d565b60405180910390f35b34801561056457600080fd5b5061057f600480360381019061057a9190613e11565b612b12565b60405161058c9190613e4d565b60405180910390f35b3480156105a157600080fd5b506105aa613a04565b6040516105b79190613e4d565b60405180910390f35b3480156105cc57600080fd5b506105d5613a0a565b6040516105e29190613e4d565b60405180910390f35b3373ffffffffffffffffffffffffffffffffffffffff166003600084815260200190815260200160002060030160019054906101000a900473ffffffffffffffffffffffffffffffffffffffff1673ffffffffffffffffffffffffffffffffffffffff161461065957600080fd5b81600054101561066857600080fd5b8060036000848152602001908152602001600020600201600082825461068e91906143b7565b925050819055505050565b6106a1613b0b565b6106a9613b0b565b600080600190505b600054811161075b576003600082815260200190815260200160002060030160019054906101000a900473ffffffffffffffffffffffffffffffffffffffff168383806106fd906143eb565b945060c881106107105761070f614433565b5b602002019073ffffffffffffffffffffffffffffffffffffffff16908173ffffffffffffffffffffffffffffffffffffffff168152505060018161075491906143b7565b90506106b1565b506000600190505b600154811161080d576004600082815260200190815260200160002060050160019054906101000a900473ffffffffffffffffffffffffffffffffffffffff168383806107af906143eb565b945060c881106107c2576107c1614433565b5b602002019073ffffffffffffffffffffffffffffffffffffffff16908173ffffffffffffffffffffffffffffffffffffffff168152505060018161080691906143b7565b9050610763565b506000600190505b60025481116108bf576005600082815260200190815260200160002060010160009054906101000a900473ffffffffffffffffffffffffffffffffffffffff16838380610861906143eb565b945060c8811061087457610873614433565b5b602002019073ffffffffffffffffffffffffffffffffffffffff16908173ffffffffffffffffffffffffffffffffffffffff16815250506001816108b891906143b7565b9050610815565b50819250505090565b600060015485111561090f576040517f08c379a0000000000000000000000000000000000000000000000000000000008152600401610906906144bf565b60405180910390fd5b60005b600660006003600088815260200190815260200160002060030160019054906101000a900473ffffffffffffffffffffffffffffffffffffffff1673ffffffffffffffffffffffffffffffffffffffff1673ffffffffffffffffffffffffffffffffffffffff16815260200190815260200160002080549050811015610f315785600660006003600089815260200190815260200160002060030160019054906101000a900473ffffffffffffffffffffffffffffffffffffffff1673ffffffffffffffffffffffffffffffffffffffff1673ffffffffffffffffffffffffffffffffffffffff1681526020019081526020016000208281548110610a1a57610a19614433565b5b90600052602060002090600902016006015403610f1e57600660006003600088815260200190815260200160002060030160019054906101000a900473ffffffffffffffffffffffffffffffffffffffff1673ffffffffffffffffffffffffffffffffffffffff1673ffffffffffffffffffffffffffffffffffffffff1681526020019081526020016000208181548110610ab857610ab7614433565b5b90600052602060002090600902016003015484604051602001610adb9190614500565b6040516020818303038152906040528051906020012014610bb1576000600660006003600089815260200190815260200160002060030160019054906101000a900473ffffffffffffffffffffffffffffffffffffffff1673ffffffffffffffffffffffffffffffffffffffff1673ffffffffffffffffffffffffffffffffffffffff1681526020019081526020016000208281548110610b7f57610b7e614433565b5b906000526020600020906009020160080160006101000a81548160ff0219169083151502179055506000915050610f37565b600660006003600088815260200190815260200160002060030160019054906101000a900473ffffffffffffffffffffffffffffffffffffffff1673ffffffffffffffffffffffffffffffffffffffff1673ffffffffffffffffffffffffffffffffffffffff1681526020019081526020016000208181548110610c3857610c37614433565b5b90600052602060002090600902016004015483604051602001610c5b9190614500565b6040516020818303038152906040528051906020012014610d31576000600660006003600089815260200190815260200160002060030160019054906101000a900473ffffffffffffffffffffffffffffffffffffffff1673ffffffffffffffffffffffffffffffffffffffff1673ffffffffffffffffffffffffffffffffffffffff1681526020019081526020016000208281548110610cff57610cfe614433565b5b906000526020600020906009020160080160006101000a81548160ff0219169083151502179055506000915050610f37565b83600660006003600089815260200190815260200160002060030160019054906101000a900473ffffffffffffffffffffffffffffffffffffffff1673ffffffffffffffffffffffffffffffffffffffff1673ffffffffffffffffffffffffffffffffffffffff1681526020019081526020016000208281548110610db957610db8614433565b5b90600052602060002090600902016000018190555082600660006003600089815260200190815260200160002060030160019054906101000a900473ffffffffffffffffffffffffffffffffffffffff1673ffffffffffffffffffffffffffffffffffffffff1673ffffffffffffffffffffffffffffffffffffffff1681526020019081526020016000208281548110610e5657610e55614433565b5b9060005260206000209060090201600101819055507fee291b467c1ae7dd29ffc047df3454190c09d3730496830a392209c7bc38f5ca85878686604051610ea0949392919061451b565b60405180910390a16001600360008781526020019081526020016000206006016000828254610ecf91906143b7565b925050819055506003600086815260200190815260200160002060040154600360008781526020019081526020016000206006015403610f1457610f1285612b12565b505b6001915050610f37565b8080610f29906143eb565b915050610912565b50600090505b949350505050565b60008054821115610f85576040517f08c379a0000000000000000000000000000000000000000000000000000000008152600401610f7c906145ac565b60405180910390fd5b60006003811115610f9957610f98613fa8565b5b6003600084815260200190815260200160002060030160009054906101000a900460ff166003811115610fcf57610fce613fa8565b5b0361100f576040517f08c379a000000000000000000000000000000000000000000000000000000000815260040161100690614618565b60405180910390fd5b60006003600084815260200190815260200160002060030160006101000a81548160ff0219169083600381111561104957611048613fa8565b5b021790555060006003600084815260200190815260200160002060050181905550600060036000848152602001908152602001600020600601819055507f10449cff8425a2b933fdd57a667ad5bdad3da817ddd9179f125f5c7756582e1782426040516110b79291906141e2565b60405180910390a1429050919050565b84600154101561110c576040517f08c379a000000000000000000000000000000000000000000000000000000000815260040161110390614684565b60405180910390fd5b836000541015611151576040517f08c379a0000000000000000000000000000000000000000000000000000000008152600401611148906146f0565b60405180910390fd5b6000600381111561116557611164613fa8565b5b6003600086815260200190815260200160002060030160009054906101000a900460ff16600381111561119b5761119a613fa8565b5b146111db576040517f08c379a00000000000000000000000000000000000000000000000000000000081526004016111d290614782565b60405180910390fd5b6111e3613b2e565b33816040019073ffffffffffffffffffffffffffffffffffffffff16908173ffffffffffffffffffffffffffffffffffffffff1681525050858160c0018181525050848160e00181815250508381606001818152505082816080018181525050818160a00181815250506000816000018181525050600081602001818152505060018161010001901515908115158152505060006003600087815260200190815260200160002060030160019054906101000a900473ffffffffffffffffffffffffffffffffffffffff169050600660008273ffffffffffffffffffffffffffffffffffffffff1673ffffffffffffffffffffffffffffffffffffffff168152602001908152602001600020829080600181540180825580915050600190039060005260206000209060090201600090919091909150600082015181600001556020820151816001015560408201518160020160006101000a81548173ffffffffffffffffffffffffffffffffffffffff021916908373ffffffffffffffffffffffffffffffffffffffff160217905550606082015181600301556080820151816004015560a0820151816005015560c0820151816006015560e082015181600701556101008201518160080160006101000a81548160ff021916908315150217905550505060016003600088815260200190815260200160002060050160008282546113f091906143b7565b925050819055507fdbd4ed8ca35fd076d8fdc3ddae80bf4fac4fc55dd918d5868cf2b92f82d2de538688878760405161142c94939291906147b1565b60405180910390a160036000878152602001908152602001600020600401546003600088815260200190815260200160002060050154036114a75760016003600088815260200190815260200160002060030160006101000a81548160ff021916908360038111156114a1576114a0613fa8565b5b02179055505b50505050505050565b60015481565b3373ffffffffffffffffffffffffffffffffffffffff166005600085815260200190815260200160002060010160009054906101000a900473ffffffffffffffffffffffffffffffffffffffff1673ffffffffffffffffffffffffffffffffffffffff16148061157357503373ffffffffffffffffffffffffffffffffffffffff16600860009054906101000a900473ffffffffffffffffffffffffffffffffffffffff1673ffffffffffffffffffffffffffffffffffffffff16145b6115b2576040517f08c379a00000000000000000000000000000000000000000000000000000000081526004016115a990614842565b60405180910390fd5b6115ba613b98565b8281600001818152505033816060019073ffffffffffffffffffffffffffffffffffffffff16908173ffffffffffffffffffffffffffffffffffffffff1681525050818160400181815250508381602001818152505034816080018181525050600060046000858152602001908152602001600020600401549050600083826116439190614862565b9050808360800151101561168c576040517f08c379a000000000000000000000000000000000000000000000000000000000815260040161168390614908565b60405180910390fd5b60006004600087815260200190815260200160002060050160019054906101000a900473ffffffffffffffffffffffffffffffffffffffff169050600760008273ffffffffffffffffffffffffffffffffffffffff1673ffffffffffffffffffffffffffffffffffffffff16815260200190815260200160002084908060018154018082558091505060019003906000526020600020906005020160009091909190915060008201518160000155602082015181600101556040820151816002015560608201518160030160006101000a81548173ffffffffffffffffffffffffffffffffffffffff021916908373ffffffffffffffffffffffffffffffffffffffff1602179055506080820151816004015550507ffee408fb277c265efa7c7adea166e7ebe6ce1e4bf153cc84a610be9a46d4ba82878787600460008b8152602001908152602001600020600401546040516117ec949392919061451b565b60405180910390a150505050505050565b60005b600760006004600085815260200190815260200160002060050160019054906101000a900473ffffffffffffffffffffffffffffffffffffffff1673ffffffffffffffffffffffffffffffffffffffff1673ffffffffffffffffffffffffffffffffffffffff16815260200190815260200160002080549050811015611eca576004600083815260200190815260200160002060030154600760006004600086815260200190815260200160002060050160019054906101000a900473ffffffffffffffffffffffffffffffffffffffff1673ffffffffffffffffffffffffffffffffffffffff1673ffffffffffffffffffffffffffffffffffffffff168152602001908152602001600020828154811061191e5761191d614433565b5b90600052602060002090600502016002015411611e7c5760006004600084815260200190815260200160002060040154600760006004600087815260200190815260200160002060050160019054906101000a900473ffffffffffffffffffffffffffffffffffffffff1673ffffffffffffffffffffffffffffffffffffffff1673ffffffffffffffffffffffffffffffffffffffff16815260200190815260200160002083815481106119d5576119d4614433565b5b9060005260206000209060050201600201546119f19190614862565b9050600081600760006004600088815260200190815260200160002060050160019054906101000a900473ffffffffffffffffffffffffffffffffffffffff1673ffffffffffffffffffffffffffffffffffffffff1673ffffffffffffffffffffffffffffffffffffffff1681526020019081526020016000208481548110611a7d57611a7c614433565b5b906000526020600020906005020160040154611a999190614928565b9050600760006004600087815260200190815260200160002060050160019054906101000a900473ffffffffffffffffffffffffffffffffffffffff1673ffffffffffffffffffffffffffffffffffffffff1673ffffffffffffffffffffffffffffffffffffffff1681526020019081526020016000208381548110611b2257611b21614433565b5b906000526020600020906005020160020154600460008681526020019081526020016000206003016000828254611b599190614928565b92505081905550611d086005600060076000600460008a815260200190815260200160002060050160019054906101000a900473ffffffffffffffffffffffffffffffffffffffff1673ffffffffffffffffffffffffffffffffffffffff1673ffffffffffffffffffffffffffffffffffffffff1681526020019081526020016000208681548110611bee57611bed614433565b5b906000526020600020906005020160010154815260200190815260200160002060010160009054906101000a900473ffffffffffffffffffffffffffffffffffffffff166004600087815260200190815260200160002060050160019054906101000a900473ffffffffffffffffffffffffffffffffffffffff168460076000600460008b815260200190815260200160002060050160019054906101000a900473ffffffffffffffffffffffffffffffffffffffff1673ffffffffffffffffffffffffffffffffffffffff1673ffffffffffffffffffffffffffffffffffffffff1681526020019081526020016000208781548110611cf157611cf0614433565b5b906000526020600020906005020160020154613a10565b7f6f7e2a3bf622a35d747352144e0b76c48f5f4253390d2fbfe677876c61bab70784600760006004600089815260200190815260200160002060050160019054906101000a900473ffffffffffffffffffffffffffffffffffffffff1673ffffffffffffffffffffffffffffffffffffffff1673ffffffffffffffffffffffffffffffffffffffff1681526020019081526020016000208581548110611db157611db0614433565b5b90600052602060002090600502016001015460076000600460008a815260200190815260200160002060050160019054906101000a900473ffffffffffffffffffffffffffffffffffffffff1673ffffffffffffffffffffffffffffffffffffffff1673ffffffffffffffffffffffffffffffffffffffff1681526020019081526020016000208681548110611e4a57611e49614433565b5b90600052602060002090600502016002015485604051611e6d949392919061451b565b60405180910390a15050611eb7565b6040517f08c379a0000000000000000000000000000000000000000000000000000000008152600401611eae906149a8565b60405180910390fd5b8080611ec2906143eb565b915050611800565b5050565b600860009054906101000a900473ffffffffffffffffffffffffffffffffffffffff1681565b60046020528060005260406000206000915090508060000154908060010154908060020154908060030154908060040154908060050160009054906101000a900460ff16908060050160019054906101000a900473ffffffffffffffffffffffffffffffffffffffff16908060060154905088565b600080815480929190611f7b906143eb565b9190505550604051806101000160405280600054815260200185815260200184815260200160026003811115611fb457611fb3613fa8565b5b81526020018373ffffffffffffffffffffffffffffffffffffffff168152602001828152602001600081526020016000815250600360008054815260200190815260200160002060008201518160000155602082015181600101556040820151816002015560608201518160030160006101000a81548160ff0219169083600381111561204457612043613fa8565b5b021790555060808201518160030160016101000a81548173ffffffffffffffffffffffffffffffffffffffff021916908373ffffffffffffffffffffffffffffffffffffffff16021790555060a0820151816004015560c0820151816005015560e0820151816006015590505050505050565b600160008154809291906120ca906143eb565b91905055506040518061010001604052806001548152602001600081526020016000815260200160008152602001600081526020016002600381111561211357612112613fa8565b5b81526020018373ffffffffffffffffffffffffffffffffffffffff16815260200182815250600460006001548152602001908152602001600020600082015181600001556020820151816001015560408201518160020155606082015181600301556080820151816004015560a08201518160050160006101000a81548160ff021916908360038111156121aa576121a9613fa8565b5b021790555060c08201518160050160016101000a81548173ffffffffffffffffffffffffffffffffffffffff021916908373ffffffffffffffffffffffffffffffffffffffff16021790555060e082015181600601559050505050565b6000805482111561224d576040517f08c379a0000000000000000000000000000000000000000000000000000000008152600401612244906145ac565b60405180910390fd5b6000600381111561226157612260613fa8565b5b6003600084815260200190815260200160002060030160009054906101000a900460ff16600381111561229757612296613fa8565b5b146122d7576040517f08c379a00000000000000000000000000000000000000000000000000000000081526004016122ce90614a14565b60405180910390fd5b60016003600084815260200190815260200160002060030160006101000a81548160ff0219169083600381111561231157612310613fa8565b5b0217905550600060036000848152602001908152602001600020600601819055507f0c368e4cdd0e23707857d20056076efe6f588f9ce71ab6ce676d331fdc035f5b82426040516123639291906141e2565b60405180910390a1429050919050565b60026000815480929190612386906143eb565b9190505550604051806040016040528060025481526020018273ffffffffffffffffffffffffffffffffffffffff168152506005600060025481526020019081526020016000206000820151816000015560208201518160010160006101000a81548173ffffffffffffffffffffffffffffffffffffffff021916908373ffffffffffffffffffffffffffffffffffffffff16021790555090505050565b6000806004600084815260200190815260200160002060040154600460008581526020019081526020016000206003015491509150915091565b612466613bdd565b61246e613bdd565b600080600190505b60005481116128fc5760005b600660006003600085815260200190815260200160002060030160019054906101000a900473ffffffffffffffffffffffffffffffffffffffff1673ffffffffffffffffffffffffffffffffffffffff1673ffffffffffffffffffffffffffffffffffffffff168152602001908152602001600020805490508110156128e857600660006003600085815260200190815260200160002060030160019054906101000a900473ffffffffffffffffffffffffffffffffffffffff1673ffffffffffffffffffffffffffffffffffffffff1673ffffffffffffffffffffffffffffffffffffffff168152602001908152602001600020818154811061258957612588614433565b5b9060005260206000209060090201600601548484806125a7906143eb565b9550606481106125ba576125b9614433565b5b602002018181525050600660006003600085815260200190815260200160002060030160019054906101000a900473ffffffffffffffffffffffffffffffffffffffff1673ffffffffffffffffffffffffffffffffffffffff1673ffffffffffffffffffffffffffffffffffffffff168152602001908152602001600020818154811061264a57612649614433565b5b906000526020600020906009020160070154848480612668906143eb565b95506064811061267b5761267a614433565b5b602002018181525050600660006003600085815260200190815260200160002060030160019054906101000a900473ffffffffffffffffffffffffffffffffffffffff1673ffffffffffffffffffffffffffffffffffffffff1673ffffffffffffffffffffffffffffffffffffffff168152602001908152602001600020818154811061270b5761270a614433565b5b906000526020600020906009020160010154848480612729906143eb565b95506064811061273c5761273b614433565b5b602002018181525050600660006003600085815260200190815260200160002060030160019054906101000a900473ffffffffffffffffffffffffffffffffffffffff1673ffffffffffffffffffffffffffffffffffffffff1673ffffffffffffffffffffffffffffffffffffffff16815260200190815260200160002081815481106127cc576127cb614433565b5b9060005260206000209060090201600001548484806127ea906143eb565b9550606481106127fd576127fc614433565b5b602002018181525050600660006003600085815260200190815260200160002060030160019054906101000a900473ffffffffffffffffffffffffffffffffffffffff1673ffffffffffffffffffffffffffffffffffffffff1673ffffffffffffffffffffffffffffffffffffffff168152602001908152602001600020818154811061288d5761288c614433565b5b9060005260206000209060090201600501548484806128ab906143eb565b9550606481106128be576128bd614433565b5b60200201818152505082806128d2906143eb565b93505080806128e0906143eb565b915050612482565b5080806128f4906143eb565b915050612476565b50819250505090565b60056020528060005260406000206000915090508060000154908060010160009054906101000a900473ffffffffffffffffffffffffffffffffffffffff16905082565b8060046000848152602001908152602001600020600301819055505050565b60036020528060005260406000206000915090508060000154908060010154908060020154908060030160009054906101000a900460ff16908060030160019054906101000a900473ffffffffffffffffffffffffffffffffffffffff16908060040154908060050154908060060154905088565b6004600083815260200190815260200160002060050160019054906101000a900473ffffffffffffffffffffffffffffffffffffffff1673ffffffffffffffffffffffffffffffffffffffff163373ffffffffffffffffffffffffffffffffffffffff161480612a9a5750600860009054906101000a900473ffffffffffffffffffffffffffffffffffffffff1673ffffffffffffffffffffffffffffffffffffffff163373ffffffffffffffffffffffffffffffffffffffff16145b612ad9576040517f08c379a0000000000000000000000000000000000000000000000000000000008152600401612ad090614a80565b60405180910390fd5b8060046000848152602001908152602001600020600401819055505050565b600081831015612b085782612b0a565b815b905092915050565b60008054821115612b58576040517f08c379a0000000000000000000000000000000000000000000000000000000008152600401612b4f906146f0565b60405180910390fd5b60016003811115612b6c57612b6b613fa8565b5b6003600084815260200190815260200160002060030160009054906101000a900460ff166003811115612ba257612ba1613fa8565b5b14612be2576040517f08c379a0000000000000000000000000000000000000000000000000000000008152600401612bd990614aec565b60405180910390fd5b600380600084815260200190815260200160002060030160006101000a81548160ff02191690836003811115612c1b57612c1a613fa8565b5b021790555060005b600660006003600086815260200190815260200160002060030160019054906101000a900473ffffffffffffffffffffffffffffffffffffffff1673ffffffffffffffffffffffffffffffffffffffff1673ffffffffffffffffffffffffffffffffffffffff168152602001908152602001600020805490508110156132b95760005b818110156132a557600660006003600087815260200190815260200160002060030160019054906101000a900473ffffffffffffffffffffffffffffffffffffffff1673ffffffffffffffffffffffffffffffffffffffff1673ffffffffffffffffffffffffffffffffffffffff1681526020019081526020016000208181548110612d3557612d34614433565b5b906000526020600020906009020160000154600660006003600088815260200190815260200160002060030160019054906101000a900473ffffffffffffffffffffffffffffffffffffffff1673ffffffffffffffffffffffffffffffffffffffff1673ffffffffffffffffffffffffffffffffffffffff1681526020019081526020016000208381548110612dce57612dcd614433565b5b9060005260206000209060090201600001541015613292576000600660006003600088815260200190815260200160002060030160019054906101000a900473ffffffffffffffffffffffffffffffffffffffff1673ffffffffffffffffffffffffffffffffffffffff1673ffffffffffffffffffffffffffffffffffffffff1681526020019081526020016000208381548110612e6f57612e6e614433565b5b90600052602060002090600902016040518061012001604052908160008201548152602001600182015481526020016002820160009054906101000a900473ffffffffffffffffffffffffffffffffffffffff1673ffffffffffffffffffffffffffffffffffffffff1673ffffffffffffffffffffffffffffffffffffffff16815260200160038201548152602001600482015481526020016005820154815260200160068201548152602001600782015481526020016008820160009054906101000a900460ff1615151515815250509050600660006003600088815260200190815260200160002060030160019054906101000a900473ffffffffffffffffffffffffffffffffffffffff1673ffffffffffffffffffffffffffffffffffffffff1673ffffffffffffffffffffffffffffffffffffffff1681526020019081526020016000208281548110612fc957612fc8614433565b5b9060005260206000209060090201600660006003600089815260200190815260200160002060030160019054906101000a900473ffffffffffffffffffffffffffffffffffffffff1673ffffffffffffffffffffffffffffffffffffffff1673ffffffffffffffffffffffffffffffffffffffff168152602001908152602001600020848154811061305e5761305d614433565b5b906000526020600020906009020160008201548160000155600182015481600101556002820160009054906101000a900473ffffffffffffffffffffffffffffffffffffffff168160020160006101000a81548173ffffffffffffffffffffffffffffffffffffffff021916908373ffffffffffffffffffffffffffffffffffffffff16021790555060038201548160030155600482015481600401556005820154816005015560068201548160060155600782015481600701556008820160009054906101000a900460ff168160080160006101000a81548160ff02191690831515021790555090505080600660006003600089815260200190815260200160002060030160019054906101000a900473ffffffffffffffffffffffffffffffffffffffff1673ffffffffffffffffffffffffffffffffffffffff1673ffffffffffffffffffffffffffffffffffffffff16815260200190815260200160002083815481106131d1576131d0614433565b5b9060005260206000209060090201600082015181600001556020820151816001015560408201518160020160006101000a81548173ffffffffffffffffffffffffffffffffffffffff021916908373ffffffffffffffffffffffffffffffffffffffff160217905550606082015181600301556080820151816004015560a0820151816005015560c0820151816006015560e082015181600701556101008201518160080160006101000a81548160ff021916908315150217905550905050505b808061329d906143eb565b915050612ca6565b5080806132b1906143eb565b915050612c23565b506132c2613bdd565b6132ca613bdd565b60005b600660006003600088815260200190815260200160002060030160019054906101000a900473ffffffffffffffffffffffffffffffffffffffff1673ffffffffffffffffffffffffffffffffffffffff1673ffffffffffffffffffffffffffffffffffffffff16815260200190815260200160002080549050811015613582576000600660006003600089815260200190815260200160002060030160019054906101000a900473ffffffffffffffffffffffffffffffffffffffff1673ffffffffffffffffffffffffffffffffffffffff1673ffffffffffffffffffffffffffffffffffffffff16815260200190815260200160002082815481106133d6576133d5614433565b5b90600052602060002090600902016040518061012001604052908160008201548152602001600182015481526020016002820160009054906101000a900473ffffffffffffffffffffffffffffffffffffffff1673ffffffffffffffffffffffffffffffffffffffff1673ffffffffffffffffffffffffffffffffffffffff16815260200160038201548152602001600482015481526020016005820154815260200160068201548152602001600782015481526020016008820160009054906101000a900460ff161515151581525050905060006134cf60036000898152602001908152602001600020600201548360a00151612af8565b90506134df818360200151612af8565b90508160000151858360c00151606481106134fd576134fc614433565b5b60200201818152505080848360c001516064811061351e5761351d614433565b5b6020020181815250508060036000898152602001908152602001600020600201600082825461354d9190614928565b9250508190555080826020018181516135669190614928565b915081815250505050808061357a906143eb565b9150506132cd565b5060005b600660006003600088815260200190815260200160002060030160019054906101000a900473ffffffffffffffffffffffffffffffffffffffff1673ffffffffffffffffffffffffffffffffffffffff1673ffffffffffffffffffffffffffffffffffffffff16815260200190815260200160002080549050811015613815576000600660006003600089815260200190815260200160002060030160019054906101000a900473ffffffffffffffffffffffffffffffffffffffff1673ffffffffffffffffffffffffffffffffffffffff1673ffffffffffffffffffffffffffffffffffffffff168152602001908152602001600020828154811061368f5761368e614433565b5b90600052602060002090600902016040518061012001604052908160008201548152602001600182015481526020016002820160009054906101000a900473ffffffffffffffffffffffffffffffffffffffff1673ffffffffffffffffffffffffffffffffffffffff1673ffffffffffffffffffffffffffffffffffffffff16815260200160038201548152602001600482015481526020016005820154815260200160068201548152602001600782015481526020016008820160009054906101000a900460ff1615151515815250509050600061378860036000898152602001908152602001600020600201548360200151612af8565b905080848360c00151606481106137a2576137a1614433565b5b602002018181516137b391906143b7565b91508181525050806003600089815260200190815260200160002060020160008282546137e09190614928565b9250508190555080826020018181516137f99190614928565b915081815250505050808061380d906143eb565b915050613586565b5060005b60648110156139f957600082826064811061383757613836614433565b5b602002015111156139e6577f389cc4d2b135e7b676a809ad7bacdde1b644b0bbe73afdd545a176ea73b95517858284846064811061387857613877614433565b5b60200201518685606481106138905761388f614433565b5b60200201516040516138a5949392919061451b565b60405180910390a16139536003600087815260200190815260200160002060030160019054906101000a900473ffffffffffffffffffffffffffffffffffffffff166004600084815260200190815260200160002060050160019054906101000a900473ffffffffffffffffffffffffffffffffffffffff1685846064811061393157613930614433565b5b602002015185856064811061394957613948614433565b5b6020020151613a10565b6000600360008781526020019081526020016000206001015403613999576139948183836064811061398857613987614433565b5b60200201516000613a16565b6139e5565b60016003600087815260200190815260200160002060010154036139df576139da8160008484606481106139d0576139cf614433565b5b6020020151613a16565b6139e4565b600080fd5b5b5b80806139f1906143eb565b915050613819565b504292505050919050565b60025481565b60005481565b50505050565b81600460008581526020019081526020016000206001016000828254613a3c91906143b7565b9250508190555080600460008581526020019081526020016000206002016000828254613a6991906143b7565b925050819055506000613a7c8383612af8565b905080600460008681526020019081526020016000206001016000828254613aa49190614928565b9250508190555080600460008681526020019081526020016000206002016000828254613ad19190614928565b9250508190555080600460008681526020019081526020016000206003016000828254613afe91906143b7565b9250508190555050505050565b60405180611900016040528060c890602082028036833780820191505090505090565b6040518061012001604052806000815260200160008152602001600073ffffffffffffffffffffffffffffffffffffffff16815260200160008019168152602001600080191681526020016000815260200160008152602001600081526020016000151581525090565b6040518060a00160405280600081526020016000815260200160008152602001600073ffffffffffffffffffffffffffffffffffffffff168152602001600081525090565b60405180610c800160405280606490602082028036833780820191505090505090565b600080fd5b6000819050919050565b613c1881613c05565b8114613c2357600080fd5b50565b600081359050613c3581613c0f565b92915050565b60008060408385031215613c5257613c51613c00565b5b6000613c6085828601613c26565b9250506020613c7185828601613c26565b9150509250929050565b600060c89050919050565b600081905092915050565b6000819050919050565b600073ffffffffffffffffffffffffffffffffffffffff82169050919050565b6000613cc682613c9b565b9050919050565b613cd681613cbb565b82525050565b6000613ce88383613ccd565b60208301905092915050565b6000602082019050919050565b613d0a81613c7b565b613d148184613c86565b9250613d1f82613c91565b8060005b83811015613d50578151613d378782613cdc565b9650613d4283613cf4565b925050600181019050613d23565b505050505050565b600061190082019050613d6e6000830184613d01565b92915050565b60008060008060808587031215613d8e57613d8d613c00565b5b6000613d9c87828801613c26565b9450506020613dad87828801613c26565b9350506040613dbe87828801613c26565b9250506060613dcf87828801613c26565b91505092959194509250565b60008115159050919050565b613df081613ddb565b82525050565b6000602082019050613e0b6000830184613de7565b92915050565b600060208284031215613e2757613e26613c00565b5b6000613e3584828501613c26565b91505092915050565b613e4781613c05565b82525050565b6000602082019050613e626000830184613e3e565b92915050565b6000819050919050565b613e7b81613e68565b8114613e8657600080fd5b50565b600081359050613e9881613e72565b92915050565b600080600080600060a08688031215613eba57613eb9613c00565b5b6000613ec888828901613c26565b9550506020613ed988828901613c26565b9450506040613eea88828901613e89565b9350506060613efb88828901613e89565b9250506080613f0c88828901613c26565b9150509295509295909350565b600080600060608486031215613f3257613f31613c00565b5b6000613f4086828701613c26565b9350506020613f5186828701613c26565b9250506040613f6286828701613c26565b9150509250925092565b6000613f7782613c9b565b9050919050565b613f8781613f6c565b82525050565b6000602082019050613fa26000830184613f7e565b92915050565b7f4e487b7100000000000000000000000000000000000000000000000000000000600052602160045260246000fd5b60048110613fe857613fe7613fa8565b5b50565b6000819050613ff982613fd7565b919050565b600061400982613feb565b9050919050565b61401981613ffe565b82525050565b61402881613cbb565b82525050565b600061010082019050614044600083018b613e3e565b614051602083018a613e3e565b61405e6040830189613e3e565b61406b6060830188613e3e565b6140786080830187613e3e565b61408560a0830186614010565b61409260c083018561401f565b61409f60e0830184613e3e565b9998505050505050505050565b6000819050919050565b6140bf816140ac565b81146140ca57600080fd5b50565b6000813590506140dc816140b6565b92915050565b6140eb81613f6c565b81146140f657600080fd5b50565b600081359050614108816140e2565b92915050565b6000806000806080858703121561412857614127613c00565b5b6000614136878288016140cd565b945050602061414787828801613c26565b9350506040614158878288016140f9565b925050606061416987828801613c26565b91505092959194509250565b6000806040838503121561418c5761418b613c00565b5b600061419a858286016140f9565b92505060206141ab85828601613c26565b9150509250929050565b6000602082840312156141cb576141ca613c00565b5b60006141d9848285016140f9565b91505092915050565b60006040820190506141f76000830185613e3e565b6142046020830184613e3e565b9392505050565b600060649050919050565b600081905092915050565b6000819050919050565b61423481613c05565b82525050565b6000614246838361422b565b60208301905092915050565b6000602082019050919050565b6142688161420b565b6142728184614216565b925061427d82614221565b8060005b838110156142ae578151614295878261423a565b96506142a083614252565b925050600181019050614281565b505050505050565b6000610c80820190506142cc600083018461425f565b92915050565b60006040820190506142e76000830185613e3e565b6142f4602083018461401f565b9392505050565b614304816140ac565b82525050565b600061010082019050614320600083018b613e3e565b61432d602083018a6142fb565b61433a6040830189613e3e565b6143476060830188614010565b614354608083018761401f565b61436160a0830186613e3e565b61436e60c0830185613e3e565b61437b60e0830184613e3e565b9998505050505050505050565b7f4e487b7100000000000000000000000000000000000000000000000000000000600052601160045260246000fd5b60006143c282613c05565b91506143cd83613c05565b92508282019050808211156143e5576143e4614388565b5b92915050565b60006143f682613c05565b91507fffffffffffffffffffffffffffffffffffffffffffffffffffffffffffffffff820361442857614427614388565b5b600182019050919050565b7f4e487b7100000000000000000000000000000000000000000000000000000000600052603260045260246000fd5b600082825260208201905092915050565b7f496e76616c6964206d616e756661637475726572000000000000000000000000600082015250565b60006144a9601483614462565b91506144b482614473565b602082019050919050565b600060208201905081810360008301526144d88161449c565b9050919050565b6000819050919050565b6144fa6144f582613c05565b6144df565b82525050565b600061450c82846144e9565b60208201915081905092915050565b60006080820190506145306000830187613e3e565b61453d6020830186613e3e565b61454a6040830185613e3e565b6145576060830184613e3e565b95945050505050565b7f5573657220646f65736e27742065786973740000000000000000000000000000600082015250565b6000614596601283614462565b91506145a182614560565b602082019050919050565b600060208201905081810360008301526145c581614589565b9050919050565b7f41756374696f6e20696e2d70726f677265737320616c72656164790000000000600082015250565b6000614602601b83614462565b915061460d826145cc565b602082019050919050565b60006020820190508181036000830152614631816145f5565b9050919050565b7f4d616e75666163747572657220646f65736e2774206578697374000000000000600082015250565b600061466e601a83614462565b915061467982614638565b602082019050919050565b6000602082019050818103600083015261469d81614661565b9050919050565b7f537570706c69657220646f65736e277420657869737400000000000000000000600082015250565b60006146da601683614462565b91506146e5826146a4565b602082019050919050565b60006020820190508181036000830152614709816146cd565b9050919050565b7f537570706c6965722069736e27742072756e6e696e6720616e2061756374696f60008201527f6e207269676874206e6f77000000000000000000000000000000000000000000602082015250565b600061476c602b83614462565b915061477782614710565b604082019050919050565b6000602082019050818103600083015261479b8161475f565b9050919050565b6147ab81613e68565b82525050565b60006080820190506147c66000830187613e3e565b6147d36020830186613e3e565b6147e060408301856147a2565b6147ed60608301846147a2565b95945050505050565b7f4163636573732044656e69656400000000000000000000000000000000000000600082015250565b600061482c600d83614462565b9150614837826147f6565b602082019050919050565b6000602082019050818103600083015261485b8161481f565b9050919050565b600061486d82613c05565b915061487883613c05565b9250817fffffffffffffffffffffffffffffffffffffffffffffffffffffffffffffffff04831182151516156148b1576148b0614388565b5b828202905092915050565b7f4d6f6e6579206e6f7420656e6f75676800000000000000000000000000000000600082015250565b60006148f2601083614462565b91506148fd826148bc565b602082019050919050565b60006020820190508181036000830152614921816148e5565b9050919050565b600061493382613c05565b915061493e83613c05565b925082820390508181111561495657614955614388565b5b92915050565b7f5175616e74697479206e6f7420417661696c61626c6500000000000000000000600082015250565b6000614992601683614462565b915061499d8261495c565b602082019050919050565b600060208201905081810360008301526149c181614985565b9050919050565b7f41756374696f6e20656e64656420616c72656164790000000000000000000000600082015250565b60006149fe601583614462565b9150614a09826149c8565b602082019050919050565b60006020820190508181036000830152614a2d816149f1565b9050919050565b7f43616e6e6f742062652073657420627920796f75000000000000000000000000600082015250565b6000614a6a601483614462565b9150614a7582614a34565b602082019050919050565b60006020820190508181036000830152614a9981614a5d565b9050919050565b7f52657665616c207068617365206e6f742072756e6e696e670000000000000000600082015250565b6000614ad6601883614462565b9150614ae182614aa0565b602082019050919050565b60006020820190508181036000830152614b0581614ac9565b905091905056fea26469706673582212205ebe5f798ec8a4686b6e7a5bc6d24068c056ddfd9a2ed862f98d5be27829de4c64736f6c63430008100033",
  "immutableReferences": {},
  "source": "pragma solidity >=0.8.16;\npragma experimental ABIEncoderV2;\n\nimport {FirstAuction} from \"./auction.sol\";\n\ncontract Marketplace {\n    enum AuctionState {\n        RUNNING, // auction is running and bids are being places\n        REVEALING, // auction has ended and bidders are revealing their bids\n        NOT_STARTED, // auction hasn't started yet\n        FINISHED // auction has finished\n    }\n\n    struct Bid {\n        uint256 valuePrice;\n        uint256 valueQuantity;\n        address payable bidderAddress;\n        bytes32 blindBidPrice; // will have price and quantity you are bidding\n        bytes32 blindBidQuantity;\n        uint256 limitingResourceQuantity;\n        uint256 buyerID;\n        uint256 sellerID;\n        bool correctReveal;\n    }\n\n    struct Purchase {\n        uint256 sellerID;\n        uint256 buyerID;\n        uint256 quantity;\n        address payable customeraddr;\n        uint256 money;\n    }\n\n    uint256 public num_supplier;\n    uint256 public num_manufacturer;\n    uint256 public num_customer;\n\n    mapping(uint256 => Supplier) public suppliers;\n    mapping(uint256 => Manufacturer) public manufacturers;\n    mapping(uint256 => Customer) public customers;\n    mapping(address => Bid[]) bidsTillNow;\n    mapping(address => Purchase[]) purchasesTillNow;\n\n    address payable public owner;\n\n    constructor() {\n        owner = payable(msg.sender);\n        num_manufacturer = 0;\n        num_supplier = 0;\n        num_customer = 0;\n    }\n\n    struct Supplier {\n        uint256 tag;\n        int256 partType;  // 0 is wheels, 1 is car_parts\n        uint256 quantityAvailable;\n        AuctionState currentState;\n        address wallet;\n        uint256 maxBidders;\n        uint256 bidsPlaced;\n        uint256 bidsRevealed;\n    }\n\n    struct Manufacturer {\n        uint256 _tag;\n        uint256 quantityA;\n        uint256 quantityB;\n        uint256 cars;\n        uint256 carsprice;\n        AuctionState currentState;\n        address wallet;\n        uint256 maxBidders;\n    }\n\n    struct Customer {\n        uint256 _tag;\n        address wallet;\n    }\n\n    // function makeBidSupplier(int index, ...) public {\n    //     suppliers[index].auction.makeBid(...);\n    // }\n    // Helpers\n    function minimum(uint256 a, uint256 b) public pure returns (uint256) {\n        return a >= b ? b : a;\n    }\n\n    function supplierStartAuction(uint256 tag) public returns (uint256) {\n        // function for supplier to start their bidding process\n        require(tag <= num_supplier, \"User doesn't exist\");\n        require(\n            suppliers[tag].currentState != AuctionState.RUNNING,\n            \"Auction in-progress already\"\n        );\n\n        // TODO: UNCOMMENT THE FOLLOWING TO ENSURE PEOPLE ARE STARTING AUCTIONS FOR THEMSELVES ONLY\n        // require(\n        //     suppliers[tag].wallet == msg.sender,\n        //     \"Start auction only for yourself!\"\n        // );\n\n        suppliers[tag].currentState = AuctionState.RUNNING;\n        suppliers[tag].bidsPlaced = 0;\n        suppliers[tag].bidsRevealed = 0;\n        emit StartSupplierAuction(tag, block.timestamp);\n        return block.timestamp;\n    }\n\n    function supplierEndAuction(uint256 tag) public returns (uint256) {\n        // function for suppilier to end their auction\n        require(tag <= num_supplier, \"User doesn't exist\");\n        require(\n            suppliers[tag].currentState == AuctionState.RUNNING,\n            \"Auction ended already\"\n        );\n\n        // TODO: UNCOMMENT THE FOLLOWING TO ENSURE PEOPLE ARE ENDING AUCTIONS FOR THEMSELVES ONLY\n        // require(\n        //     suppliers[tag].wallet == msg.sender,\n        //     \"End auction only for yourself!\"\n        // );\n\n        suppliers[tag].currentState = AuctionState.REVEALING;\n        suppliers[tag].bidsRevealed = 0;\n        emit EndSupplierAuction(tag, block.timestamp);\n        return block.timestamp;\n    }\n \n    function supplierEndReveal(uint256 tag) public \n    // afterOnly(supplierEndAuction(tag)) \n    returns (uint256){\n        require(tag <= num_supplier, \"Supplier doesn't exist\");\n        require(\n            suppliers[tag].currentState == AuctionState.REVEALING,\n            \"Reveal phase not running\"\n        );\n\n        // TODO: UNCOMMENT THE FOLLOWING TO ENSURE PEOPLE ARE ALLOCATING FOR THEMSELVES ONLY\n        // require(\n        //     (suppliers[tag].wallet == msg.sender || owner == msg.sender),\n        //     \"Operation now allowed\"\n        // );\n\n        suppliers[tag].currentState = AuctionState.FINISHED;\n\n        // do allocation logic and emit\n\n        // bubble sort according to bid value\n        for (uint256 i = 0; i < bidsTillNow[suppliers[tag].wallet].length; i++)\n            for (uint256 j = 0; j < i; j++)\n                if (\n                    bidsTillNow[suppliers[tag].wallet][i].valuePrice <\n                    bidsTillNow[suppliers[tag].wallet][j].valuePrice\n                ) {\n                    Bid memory x = bidsTillNow[suppliers[tag].wallet][i];\n                    bidsTillNow[suppliers[tag].wallet][i] = bidsTillNow[\n                        suppliers[tag].wallet\n                    ][j];\n                    bidsTillNow[suppliers[tag].wallet][j] = x;\n                }\n        // allocate according to limiting resource first\n        uint256[100] memory allocatingPrices;\n        uint256[100] memory allocatingQuantities;\n        for (\n            uint256 i = 0;\n            i < bidsTillNow[suppliers[tag].wallet].length;\n            i++\n        ) {\n            Bid memory bid = bidsTillNow[suppliers[tag].wallet][i];\n            uint256 allocatingHere = minimum(\n                suppliers[tag].quantityAvailable,\n                bid.limitingResourceQuantity\n            );\n            allocatingHere = minimum(allocatingHere, bid.valueQuantity);\n\n            allocatingPrices[bid.buyerID] = bid.valuePrice;\n            allocatingQuantities[bid.buyerID] = allocatingHere;\n            suppliers[tag].quantityAvailable -= allocatingHere;\n            bid.valueQuantity -= allocatingHere;\n        }\n\n        // allocate remaining for maximum profit\n        for (\n            uint256 i = 0;\n            i < bidsTillNow[suppliers[tag].wallet].length;\n            i++\n        ) {\n            Bid memory bid = bidsTillNow[suppliers[tag].wallet][i];\n            uint256 allocatingHere = minimum(\n                suppliers[tag].quantityAvailable,\n                bid.valueQuantity\n            );\n\n            allocatingQuantities[bid.buyerID] += allocatingHere;\n            suppliers[tag].quantityAvailable -= allocatingHere;\n            bid.valueQuantity -= allocatingHere;\n        }\n\n        // emit all allocations\n        for (uint256 i = 0; i < 100; i++)\n            if (allocatingQuantities[i] > 0) {\n                emit AllocateFromSupplier(\n                    tag,\n                    i,\n                    allocatingQuantities[i],\n                    allocatingPrices[i]\n                );\n                transferMoney(\n                    suppliers[tag].wallet,\n                    manufacturers[i].wallet,\n                    allocatingPrices[i],\n                    allocatingQuantities[i]\n                );\n                //update all the manufacturers quanitites to make cars\n                if(suppliers[tag].partType == 0)\n                    Update_Manufacturer_Quantities(i,allocatingQuantities[i] , 0);\n                else if (suppliers[tag].partType == 1)\n                    Update_Manufacturer_Quantities(i, 0, allocatingQuantities[i]);\n                else\n                    revert();\n            }\n            \n        return block.timestamp;\n    }\n\n    function transferMoney(\n        address senderaddr,\n        address receiveraddr,\n        uint256 price,\n        uint256 qunatity\n    ) private {\n        // do eth transactions here\n    }\n\n    function refundMoney(\n        address beneficary,\n        uint256 price\n    ) private{\n        // do eth transactions here\n    }\n\n    function manufacturerPlacesBid(\n        uint256 manufacturerID,\n        uint256 supplierID,\n        bytes32 blindPrice,\n        bytes32 blindQuantity,\n        uint256 limit // beforeOnly(supplierEndAuction(supplierID))\n    ) public // afterOnly(supplierEndAuction(supplierID))\n    {\n        //should get all data needed for bid\n        // function for manufacturer to place a bid\n        require(\n            num_manufacturer >= manufacturerID,\n            \"Manufacturer doesn't exist\"\n        );\n        require(num_supplier >= supplierID, \"Supplier doesn't exist\");\n        require(\n            suppliers[supplierID].currentState == AuctionState.RUNNING,\n            \"Supplier isn't running an auction right now\"\n        );\n\n        // TODO: UNCOMMENT THE FOLLOWING TO ENSURE PEOPLE ARE ONLY PLACING BIDS FOR THEMSELVES\n        // require(\n        //     manufacturers[manufacturerID].wallet == msg.sender,\n        //     \"You can only bid for yourself!\"\n        // );\n\n        Bid memory newbid;\n        newbid.bidderAddress = payable(msg.sender);\n        newbid.buyerID = manufacturerID;\n        newbid.sellerID = supplierID;\n        newbid.blindBidPrice = blindPrice;\n        newbid.blindBidQuantity = blindQuantity;\n        newbid.limitingResourceQuantity = limit;\n        newbid.valuePrice = 0;\n        newbid.valueQuantity = 0;\n        newbid.correctReveal = true;\n\n        address supplieraddr = suppliers[supplierID].wallet;\n        bidsTillNow[supplieraddr].push(newbid);\n\n        suppliers[supplierID].bidsPlaced += 1;\n\n        emit ManufacturerBids(\n            supplierID,\n            manufacturerID,\n            blindPrice,\n            blindQuantity\n        );\n\n        if (\n            suppliers[supplierID].bidsPlaced == suppliers[supplierID].maxBidders\n        ) {\n            // go to reveal phase\n            suppliers[supplierID].currentState = AuctionState.REVEALING;\n        }\n    }\n\n    function customerPurchase(uint256 customerID, uint256 manufacturerID, uint256 quantity)\n    external payable\n    {\n        require(customers[customerID].wallet == msg.sender || owner == msg.sender, \"Access Denied\");\n        Purchase memory newpurchase;\n        newpurchase.sellerID = manufacturerID;\n        newpurchase.customeraddr = payable(msg.sender);\n        newpurchase.quantity = quantity;\n        newpurchase.buyerID = customerID;\n        newpurchase.money = msg.value;\n        uint256 unit_cost = manufacturers[manufacturerID].carsprice;\n        uint256 total_cost = unit_cost * quantity;\n        require ( newpurchase.money >=total_cost, \"Money not enough\");\n        address manf_adrr = manufacturers[manufacturerID].wallet;\n        purchasesTillNow[manf_adrr].push(newpurchase);\n        emit CustomerRequest(\n            customerID,\n            manufacturerID,\n            quantity,\n            manufacturers[manufacturerID].carsprice\n        );\n    }\n\n    function manufactuerRevealBid(\n        uint256 manufacturerID,\n        uint256 supplierID,\n        uint256 price,\n        uint256 quantity\n    ) public returns (bool) {\n        require(manufacturerID <= num_manufacturer, \"Invalid manufacturer\");\n\n        // TODO: UNCOMMENT THE FOLLOWING TO ENSURE PEOPLE ARE ONLY REVEALING BIDS FOR THEMSELVES\n        // require(\n        //     manufacturers[manufacturerID].wallet == msg.sender,\n        //     \"Reveal only for yourself!\"\n        // );\n\n        for (\n            uint256 i = 0;\n            i < bidsTillNow[suppliers[supplierID].wallet].length;\n            i++\n        )\n            if (\n                bidsTillNow[suppliers[supplierID].wallet][i].buyerID ==\n                manufacturerID\n            ) {\n                if (\n                    keccak256(abi.encodePacked(price)) !=\n                    bidsTillNow[suppliers[supplierID].wallet][i].blindBidPrice\n                ) {\n                    bidsTillNow[suppliers[supplierID].wallet][i]\n                        .correctReveal = false;\n                    return false;\n                }\n                if (\n                    keccak256(abi.encodePacked(quantity)) !=\n                    bidsTillNow[suppliers[supplierID].wallet][i]\n                        .blindBidQuantity\n                ) {\n                    bidsTillNow[suppliers[supplierID].wallet][i]\n                        .correctReveal = false;\n                    return false;\n                }\n                bidsTillNow[suppliers[supplierID].wallet][i].valuePrice = price;\n                bidsTillNow[suppliers[supplierID].wallet][i]\n                    .valueQuantity = quantity;\n                emit ManufacturerReveal(\n                    supplierID,\n                    manufacturerID,\n                    price,\n                    quantity\n                );\n\n                suppliers[supplierID].bidsRevealed += 1;\n                if (\n                    suppliers[supplierID].bidsRevealed ==\n                    suppliers[supplierID].maxBidders\n                ) {\n                    // go to allocation\n                    supplierEndReveal(supplierID);\n                }\n\n                return true;\n            }\n        return false;\n    }\n\n    function ManufacturerSupplyCars(uint256 manufacturerID) public{\n        for(uint256 i=0;\n            i<purchasesTillNow[manufacturers[manufacturerID].wallet].length;\n            i++\n        ){\n            //Money is already checked, Quantity check is done here\n           if(purchasesTillNow[manufacturers[manufacturerID].wallet][i].quantity <= manufacturers[manufacturerID].cars)\n           {\n                uint256 effective_price = purchasesTillNow[manufacturers[manufacturerID].wallet][i].quantity * manufacturers[manufacturerID].carsprice;\n                uint256 refund_amount = purchasesTillNow[manufacturers[manufacturerID].wallet][i].money - effective_price;\n               \n                manufacturers[manufacturerID].cars-=purchasesTillNow[manufacturers[manufacturerID].wallet][i].quantity;\n                transferMoney(\n                    customers[purchasesTillNow[manufacturers[manufacturerID].wallet][i].buyerID].wallet, \n                    manufacturers[manufacturerID].wallet, \n                    effective_price, \n                    purchasesTillNow[manufacturers[manufacturerID].wallet][i].quantity);\n                // refundMoney(\n                // customers[purchasesTillNow[manufacturers[manufacturerID].wallet][i].buyerID].wallet,\n                // refund_amount);\n                emit AllocateFromManufacturer(\n                    manufacturerID, \n                    purchasesTillNow[manufacturers[manufacturerID].wallet][i].buyerID, \n                    purchasesTillNow[manufacturers[manufacturerID].wallet][i].quantity, \n                    effective_price);\n\n           }\n           else\n           {\n             //send them back the amount saying quantity not available\n             revert(\"Quantity not Available\"); //gas to caller\n           }\n        }\n    }\n\n    function addSupplier(\n        int256 partType,\n        uint256 quantityAvailable,\n        address payable addr,\n        uint256 auctionBidders\n    ) public {\n        num_supplier++;\n        suppliers[num_supplier] = Supplier(\n            num_supplier,\n            partType,\n            quantityAvailable,\n            AuctionState.NOT_STARTED,\n            addr,\n            auctionBidders,\n            0,\n            0\n        );\n    }\n\n    function addManufacturer(address payable addr, uint256 auctionBidders)\n        public\n    {\n        num_manufacturer++;\n        manufacturers[num_manufacturer] = Manufacturer(\n            num_manufacturer,\n            0,\n            0,\n            0,\n            0,\n            AuctionState.NOT_STARTED,\n            addr,\n            auctionBidders\n        );\n    }\n\n    function addCustomer(address payable addr) public {\n        num_customer++;\n        customers[num_customer] = Customer(num_customer, addr);\n    }\n\n    // Setter functions\n    function supplierAddQuantity(uint256 suppliedID, uint256 quantityToAdd)\n        public\n    {\n        require(suppliers[suppliedID].wallet == msg.sender);\n        require(num_supplier >= suppliedID);\n        // increase the supplier quantity\n        suppliers[suppliedID].quantityAvailable += quantityToAdd;\n    }\n\n    function Update_Manufacturer_Quantities(\n        uint256 manufacturerID,\n        uint256 quantityA,\n        uint256 quantityB\n    ) private {\n        manufacturers[manufacturerID].quantityA += quantityA;\n        manufacturers[manufacturerID].quantityB += quantityB;\n        uint256 max_cars = minimum(quantityA, quantityB);\n        manufacturers[manufacturerID].quantityA -= max_cars;\n        manufacturers[manufacturerID].quantityB -= max_cars;\n        manufacturers[manufacturerID].cars += max_cars;\n        \n    }\n    function set_cars_price (uint256 manufacturerID , uint256 price) public {\n        require(msg.sender == manufacturers[manufacturerID].wallet || msg.sender == owner,\"Cannot be set by you\");\n        manufacturers[manufacturerID].carsprice = price;\n    }\n   \n    // Starting, ending and allocation of auction by supplier\n    event StartSupplierAuction(uint256 supplierID, uint256 startTime);\n    event EndSupplierAuction(uint256 supplierID, uint256 endTime);\n    event AllocateFromSupplier(\n        uint256 supplierID,\n        uint256 manufacturerID,\n        uint256 quantity,\n        uint256 price\n    );\n\n    // Starting, ending and allocation of auctions by manufacturers\n    event StartManufacturerAuction(uint256 manufacturerID, uint256 startTime);\n    event EndManufacturerAuction(uint256 manufacturerID, uint256 endTime);\n    event CustomerRequest(\n        uint256 CustomerID,\n        uint256 ManufacturerID,\n        uint256 Quantity ,\n        uint256 Price\n    );\n    event AllocateFromManufacturer(\n        uint256 manufacturerID,\n        uint256 customerID,\n        uint256 quantity,\n        uint256 price\n    );\n\n    // Manufacturer places a bid to the supplier\n    event ManufacturerBids(\n        uint256 supplierID,\n        uint256 manufacturerID,\n        bytes32 blindBidPrice,\n        bytes32 blindBidQuantity\n    );\n    // Manufacturer reveals it's bid to the supplier by providing the key\n    event ManufacturerReveal(\n        uint256 supplierID,\n        uint256 manufacturerID,\n        uint256 price,\n        uint256 quantity\n    );\n\n    // Customer places a bid to the manufacturer\n    event CustomerBid(\n        uint256 manufacturerID,\n        uint256 customerID,\n        bytes32 blindBid\n    );\n    event CustomerReveal(\n        uint256 manufacturerID,\n        uint256 customerID,\n        uint256 price,\n        uint256 quantity\n    );\n\n    // ALL GET FUNCTIONS\n    function getActors() public view returns (address[200] memory) {\n        address[200] memory ret;\n        uint256 idx = 0;\n        for (uint256 i = 1; i <= num_supplier; i += 1)\n            ret[idx++] = suppliers[i].wallet;\n        for (uint256 i = 1; i <= num_manufacturer; i += 1)\n            ret[idx++] = manufacturers[i].wallet;\n        for (uint256 i = 1; i <= num_customer; i += 1)\n            ret[idx++] = customers[i].wallet;\n        return ret;\n    }\n\n    function getBids() public view returns (uint256[100] memory) {\n        uint256[100] memory ret;\n        uint256 idx = 0;\n        for (uint256 i = 1; i <= num_supplier; i++) {\n            for (\n                uint256 j = 0;\n                j < bidsTillNow[suppliers[i].wallet].length;\n                j++\n            ) {\n                ret[idx++] = bidsTillNow[suppliers[i].wallet][j].buyerID;\n                ret[idx++] = bidsTillNow[suppliers[i].wallet][j].sellerID;\n                ret[idx++] = bidsTillNow[suppliers[i].wallet][j].valueQuantity;\n                ret[idx++] = bidsTillNow[suppliers[i].wallet][j].valuePrice;\n                ret[idx++] = bidsTillNow[suppliers[i].wallet][j]\n                    .limitingResourceQuantity;\n                idx++;\n            }\n        }\n        return ret;\n    }\n    function get_cars_price_quantity (uint256 manfID) public view returns (uint256, uint256) {\n        return (manufacturers[manfID].carsprice, manufacturers[manfID].cars);\n    }\n\n    // all modifiers\n    modifier beforeOnly(uint256 _time) {\n        require(block.timestamp < _time);\n        _;\n    }\n    modifier afterOnly(uint256 _time) {\n        require(block.timestamp > _time);\n        _;\n    }\n\n\n    //test only\n    function set_cars(uint256 manfID, uint256 quant) public {\n        manufacturers[manfID].cars=quant;\n    }\n}\n",
  "sourcePath": "/home/sahithi/acads/sem7/dtb/as1/Supply-Chain-Smartcontract/contracts/Marketplace.sol",
  "compiler": {
    "name": "solc",
    "version": "0.8.16+commit.07a7930e.Emscripten.clang"
  },
  "schemaVersion": "3.4.8",
  "updatedAt": "2022-08-31T09:27:39.851Z",
  "networkType": "ethereum",
  "devdoc": {
    "kind": "dev",
    "methods": {},
    "version": 1
  },
  "userdoc": {
    "kind": "user",
    "methods": {},
    "version": 1
  }
}