{
  "contractName": "Marketplace",
  "abi": [
    {
      "inputs": [],
      "stateMutability": "nonpayable",
      "type": "constructor"
    },
    {
      "anonymous": false,
      "inputs": [
        {
          "indexed": false,
          "internalType": "uint256",
          "name": "manufacturerID",
          "type": "uint256"
        },
        {
          "indexed": false,
          "internalType": "uint256",
          "name": "customerID",
          "type": "uint256"
        },
        {
          "indexed": false,
          "internalType": "bytes32",
          "name": "blindBid",
          "type": "bytes32"
        }
      ],
      "name": "CustomerBid",
      "type": "event"
    },
    {
      "anonymous": false,
      "inputs": [],
      "name": "CustomerReveal",
      "type": "event"
    },
    {
      "anonymous": false,
      "inputs": [
        {
          "indexed": false,
          "internalType": "uint256",
          "name": "manufacturerID",
          "type": "uint256"
        },
        {
          "indexed": false,
          "internalType": "uint256",
          "name": "endTime",
          "type": "uint256"
        }
      ],
      "name": "EndManufacturerAuction",
      "type": "event"
    },
    {
      "anonymous": false,
      "inputs": [
        {
          "indexed": false,
          "internalType": "uint256",
          "name": "supplierID",
          "type": "uint256"
        },
        {
          "indexed": false,
          "internalType": "uint256",
          "name": "endTime",
          "type": "uint256"
        }
      ],
      "name": "EndSupplierAuction",
      "type": "event"
    },
    {
      "anonymous": false,
      "inputs": [
        {
          "indexed": false,
          "internalType": "uint256",
          "name": "supplierID",
          "type": "uint256"
        },
        {
          "indexed": false,
          "internalType": "uint256",
          "name": "manufacturerID",
          "type": "uint256"
        },
        {
          "indexed": false,
          "internalType": "bytes32",
          "name": "blindBidPrice",
          "type": "bytes32"
        },
        {
          "indexed": false,
          "internalType": "bytes32",
          "name": "blindBidQuantity",
          "type": "bytes32"
        }
      ],
      "name": "ManufacturerBids",
      "type": "event"
    },
    {
      "anonymous": false,
      "inputs": [],
      "name": "ManufacturerReveal",
      "type": "event"
    },
    {
      "anonymous": false,
      "inputs": [
        {
          "indexed": false,
          "internalType": "uint256",
          "name": "manufacturerID",
          "type": "uint256"
        },
        {
          "indexed": false,
          "internalType": "uint256",
          "name": "startTime",
          "type": "uint256"
        }
      ],
      "name": "StartManufacturerAuction",
      "type": "event"
    },
    {
      "anonymous": false,
      "inputs": [
        {
          "indexed": false,
          "internalType": "uint256",
          "name": "supplierID",
          "type": "uint256"
        },
        {
          "indexed": false,
          "internalType": "uint256",
          "name": "startTime",
          "type": "uint256"
        }
      ],
      "name": "StartSupplierAuction",
      "type": "event"
    },
    {
      "inputs": [
        {
          "internalType": "uint256",
          "name": "",
          "type": "uint256"
        }
      ],
      "name": "customers",
      "outputs": [
        {
          "internalType": "uint256",
          "name": "_tag",
          "type": "uint256"
        },
        {
          "internalType": "address",
          "name": "wallet",
          "type": "address"
        }
      ],
      "stateMutability": "view",
      "type": "function",
      "constant": true
    },
    {
      "inputs": [
        {
          "internalType": "uint256",
          "name": "",
          "type": "uint256"
        }
      ],
      "name": "manufacturers",
      "outputs": [
        {
          "internalType": "uint256",
          "name": "_tag",
          "type": "uint256"
        },
        {
          "internalType": "uint256",
          "name": "quantityA",
          "type": "uint256"
        },
        {
          "internalType": "uint256",
          "name": "quantityB",
          "type": "uint256"
        },
        {
          "internalType": "enum Marketplace.AuctionState",
          "name": "currentState",
          "type": "uint8"
        },
        {
          "internalType": "address",
          "name": "wallet",
          "type": "address"
        },
        {
          "internalType": "uint256",
          "name": "maxBidders",
          "type": "uint256"
        }
      ],
      "stateMutability": "view",
      "type": "function",
      "constant": true
    },
    {
      "inputs": [],
      "name": "num_customer",
      "outputs": [
        {
          "internalType": "uint256",
          "name": "",
          "type": "uint256"
        }
      ],
      "stateMutability": "view",
      "type": "function",
      "constant": true
    },
    {
      "inputs": [],
      "name": "num_manufacturer",
      "outputs": [
        {
          "internalType": "uint256",
          "name": "",
          "type": "uint256"
        }
      ],
      "stateMutability": "view",
      "type": "function",
      "constant": true
    },
    {
      "inputs": [],
      "name": "num_supplier",
      "outputs": [
        {
          "internalType": "uint256",
          "name": "",
          "type": "uint256"
        }
      ],
      "stateMutability": "view",
      "type": "function",
      "constant": true
    },
    {
      "inputs": [],
      "name": "owner",
      "outputs": [
        {
          "internalType": "address payable",
          "name": "",
          "type": "address"
        }
      ],
      "stateMutability": "view",
      "type": "function",
      "constant": true
    },
    {
      "inputs": [
        {
          "internalType": "uint256",
          "name": "",
          "type": "uint256"
        }
      ],
      "name": "suppliers",
      "outputs": [
        {
          "internalType": "uint256",
          "name": "tag",
          "type": "uint256"
        },
        {
          "internalType": "int256",
          "name": "partType",
          "type": "int256"
        },
        {
          "internalType": "uint256",
          "name": "quantityAvailable",
          "type": "uint256"
        },
        {
          "internalType": "enum Marketplace.AuctionState",
          "name": "currentState",
          "type": "uint8"
        },
        {
          "internalType": "address",
          "name": "wallet",
          "type": "address"
        },
        {
          "internalType": "uint256",
          "name": "maxBidders",
          "type": "uint256"
        }
      ],
      "stateMutability": "view",
      "type": "function",
      "constant": true
    },
    {
      "inputs": [
        {
          "internalType": "uint256",
          "name": "tag",
          "type": "uint256"
        }
      ],
      "name": "supplierStartAuction",
      "outputs": [
        {
          "internalType": "bool",
          "name": "",
          "type": "bool"
        }
      ],
      "stateMutability": "nonpayable",
      "type": "function"
    },
    {
      "inputs": [
        {
          "internalType": "uint256",
          "name": "tag",
          "type": "uint256"
        }
      ],
      "name": "supplierEndAuction",
      "outputs": [],
      "stateMutability": "nonpayable",
      "type": "function"
    },
    {
      "inputs": [
        {
          "components": [
            {
              "internalType": "uint256",
              "name": "valuePrice",
              "type": "uint256"
            },
            {
              "internalType": "uint256",
              "name": "valueQuantity",
              "type": "uint256"
            },
            {
              "internalType": "address payable",
              "name": "bidderAddress",
              "type": "address"
            },
            {
              "internalType": "bytes32",
              "name": "blindBidPrice",
              "type": "bytes32"
            },
            {
              "internalType": "bytes32",
              "name": "blindBidQuantity",
              "type": "bytes32"
            },
            {
              "internalType": "uint256",
              "name": "limitingResourceQuantity",
              "type": "uint256"
            },
            {
              "internalType": "uint256",
              "name": "buyerID",
              "type": "uint256"
            },
            {
              "internalType": "uint256",
              "name": "sellerID",
              "type": "uint256"
            }
          ],
          "internalType": "struct Marketplace.Bid",
          "name": "test_bid",
          "type": "tuple"
        }
      ],
      "name": "testbid",
      "outputs": [
        {
          "components": [
            {
              "internalType": "uint256",
              "name": "valuePrice",
              "type": "uint256"
            },
            {
              "internalType": "uint256",
              "name": "valueQuantity",
              "type": "uint256"
            },
            {
              "internalType": "address payable",
              "name": "bidderAddress",
              "type": "address"
            },
            {
              "internalType": "bytes32",
              "name": "blindBidPrice",
              "type": "bytes32"
            },
            {
              "internalType": "bytes32",
              "name": "blindBidQuantity",
              "type": "bytes32"
            },
            {
              "internalType": "uint256",
              "name": "limitingResourceQuantity",
              "type": "uint256"
            },
            {
              "internalType": "uint256",
              "name": "buyerID",
              "type": "uint256"
            },
            {
              "internalType": "uint256",
              "name": "sellerID",
              "type": "uint256"
            }
          ],
          "internalType": "struct Marketplace.Bid",
          "name": "bid",
          "type": "tuple"
        }
      ],
      "stateMutability": "pure",
      "type": "function",
      "constant": true
    },
    {
      "inputs": [
        {
          "internalType": "uint256",
          "name": "manufacturerID",
          "type": "uint256"
        },
        {
          "internalType": "uint256",
          "name": "supplierID",
          "type": "uint256"
        },
        {
          "internalType": "bytes32",
          "name": "price",
          "type": "bytes32"
        },
        {
          "internalType": "bytes32",
          "name": "quant",
          "type": "bytes32"
        },
        {
          "internalType": "uint256",
          "name": "limit",
          "type": "uint256"
        }
      ],
      "name": "manufacturerPlacesBid",
      "outputs": [],
      "stateMutability": "nonpayable",
      "type": "function"
    },
    {
      "inputs": [
        {
          "internalType": "uint256",
          "name": "manufacturerID",
          "type": "uint256"
        },
        {
          "internalType": "uint256",
          "name": "supplierID",
          "type": "uint256"
        }
      ],
      "name": "customerPlacesBid",
      "outputs": [],
      "stateMutability": "nonpayable",
      "type": "function"
    },
    {
      "inputs": [
        {
          "internalType": "uint256",
          "name": "manufacturerID",
          "type": "uint256"
        }
      ],
      "name": "manufactuerRevealBid",
      "outputs": [],
      "stateMutability": "nonpayable",
      "type": "function"
    },
    {
      "inputs": [
        {
          "internalType": "uint256",
          "name": "manufacturerID",
          "type": "uint256"
        }
      ],
      "name": "customerRevealBid",
      "outputs": [],
      "stateMutability": "nonpayable",
      "type": "function"
    },
    {
      "inputs": [
        {
          "internalType": "int256",
          "name": "partType",
          "type": "int256"
        },
        {
          "internalType": "uint256",
          "name": "quantityAvailable",
          "type": "uint256"
        },
        {
          "internalType": "address payable",
          "name": "addr",
          "type": "address"
        },
        {
          "internalType": "uint256",
          "name": "auctionBidders",
          "type": "uint256"
        }
      ],
      "name": "addSupplier",
      "outputs": [],
      "stateMutability": "nonpayable",
      "type": "function"
    },
    {
      "inputs": [
        {
          "internalType": "address payable",
          "name": "addr",
          "type": "address"
        },
        {
          "internalType": "uint256",
          "name": "auctionBidders",
          "type": "uint256"
        }
      ],
      "name": "addManufacturer",
      "outputs": [],
      "stateMutability": "nonpayable",
      "type": "function"
    },
    {
      "inputs": [
        {
          "internalType": "address payable",
          "name": "addr",
          "type": "address"
        }
      ],
      "name": "addCustomer",
      "outputs": [],
      "stateMutability": "nonpayable",
      "type": "function"
    },
    {
      "inputs": [
        {
          "internalType": "uint256",
          "name": "suppliedID",
          "type": "uint256"
        },
        {
          "internalType": "uint256",
          "name": "quantityToAdd",
          "type": "uint256"
        }
      ],
      "name": "supplierAddQuantity",
      "outputs": [],
      "stateMutability": "view",
      "type": "function",
      "constant": true
    },
    {
      "inputs": [],
      "name": "getCustomers",
      "outputs": [
        {
          "internalType": "address[200]",
          "name": "",
          "type": "address[200]"
        }
      ],
      "stateMutability": "view",
      "type": "function",
      "constant": true
    }
  ],
  "bytecode": "0x608060405234801561001057600080fd5b5033600760006101000a81548173ffffffffffffffffffffffffffffffffffffffff021916908373ffffffffffffffffffffffffffffffffffffffff1602179055506000600181905550600080819055506000600281905550611acb806100786000396000f3fe608060405234801561001057600080fd5b50600436106101215760003560e01c8063aa8613c4116100ad578063cea2312111610071578063cea23121146102f4578063eb16d0e414610329578063edcac78b14610347578063f1ba712714610365578063f937a9311461038357610121565b8063aa8613c414610253578063ad973d741461026f578063b82018511461028b578063c0abda2a146102a7578063c8390cec146102d857610121565b80637c071dcc116100f45780637c071dcc146101ac5780638da5cb5b146101c857806390175af1146101e65780639a7a9b131461021b578063a436792b1461023757610121565b80630cf3750d1461012657806317c9dea61461014257806318c15d42146101725780634cc9aff81461018e575b600080fd5b610140600480360381019061013b9190610f34565b6103b3565b005b61015c60048036038101906101579190610f74565b610425565b6040516101699190610fbc565b60405180910390f35b61018c6004803603810190610187919061100d565b610576565b005b6101966107f3565b6040516101a39190611097565b60405180910390f35b6101c660048036038101906101c19190610f74565b6107f9565b005b6101d06107fc565b6040516101dd91906110f3565b60405180910390f35b61020060048036038101906101fb9190610f74565b610822565b604051610212969594939291906111a6565b60405180910390f35b61023560048036038101906102309190611269565b61088b565b005b610251600480360381019061024c91906112d0565b6109b6565b005b61026d60048036038101906102689190610f74565b610ae3565b005b61028960048036038101906102849190611310565b610c2d565b005b6102a560048036038101906102a09190610f34565b610cde565b005b6102c160048036038101906102bc9190610f74565b610ce2565b6040516102cf92919061133d565b60405180910390f35b6102f260048036038101906102ed9190610f74565b610d26565b005b61030e60048036038101906103099190610f74565b610d29565b60405161032096959493929190611375565b60405180910390f35b610331610d92565b60405161033e9190611097565b60405180910390f35b61034f610d98565b60405161035c9190611097565b60405180910390f35b61036d610d9e565b60405161037a9190611481565b60405180910390f35b61039d600480360381019061039891906115f8565b610e5b565b6040516103aa91906116f5565b60405180910390f35b3373ffffffffffffffffffffffffffffffffffffffff166003600084815260200190815260200160002060030160019054906101000a900473ffffffffffffffffffffffffffffffffffffffff1673ffffffffffffffffffffffffffffffffffffffff161461042157600080fd5b5050565b6000805482111561046b576040517f08c379a00000000000000000000000000000000000000000000000000000000081526004016104629061176e565b60405180910390fd5b6000600281111561047f5761047e61110e565b5b6003600084815260200190815260200160002060030160009054906101000a900460ff1660028111156104b5576104b461110e565b5b036104f5576040517f08c379a00000000000000000000000000000000000000000000000000000000081526004016104ec906117da565b60405180910390fd5b60006003600084815260200190815260200160002060030160006101000a81548160ff0219169083600281111561052f5761052e61110e565b5b02179055507f10449cff8425a2b933fdd57a667ad5bdad3da817ddd9179f125f5c7756582e1782426040516105659291906117fa565b60405180910390a160019050919050565b8460015410156105bb576040517f08c379a00000000000000000000000000000000000000000000000000000000081526004016105b29061186f565b60405180910390fd5b836000541015610600576040517f08c379a00000000000000000000000000000000000000000000000000000000081526004016105f7906118db565b60405180910390fd5b610608610e6b565b33816040019073ffffffffffffffffffffffffffffffffffffffff16908173ffffffffffffffffffffffffffffffffffffffff1681525050858160c0018181525050848160e00181815250508381606001818152505082816080018181525050818160a001818152505060006003600087815260200190815260200160002060030160019054906101000a900473ffffffffffffffffffffffffffffffffffffffff169050600660008273ffffffffffffffffffffffffffffffffffffffff1673ffffffffffffffffffffffffffffffffffffffff168152602001908152602001600020829080600181540180825580915050600190039060005260206000209060080201600090919091909150600082015181600001556020820151816001015560408201518160020160006101000a81548173ffffffffffffffffffffffffffffffffffffffff021916908373ffffffffffffffffffffffffffffffffffffffff160217905550606082015181600301556080820151816004015560a0820151816005015560c0820151816006015560e0820151816007015550507fdbd4ed8ca35fd076d8fdc3ddae80bf4fac4fc55dd918d5868cf2b92f82d2de538688846060015185608001516040516107e2949392919061190a565b60405180910390a150505050505050565b60015481565b50565b600760009054906101000a900473ffffffffffffffffffffffffffffffffffffffff1681565b60046020528060005260406000206000915090508060000154908060010154908060020154908060030160009054906101000a900460ff16908060030160019054906101000a900473ffffffffffffffffffffffffffffffffffffffff16908060040154905086565b60008081548092919061089d9061197e565b91905055506040518060c001604052806000548152602001858152602001848152602001600160028111156108d5576108d461110e565b5b81526020018373ffffffffffffffffffffffffffffffffffffffff16815260200182815250600360008054815260200190815260200160002060008201518160000155602082015181600101556040820151816002015560608201518160030160006101000a81548160ff021916908360028111156109575761095661110e565b5b021790555060808201518160030160016101000a81548173ffffffffffffffffffffffffffffffffffffffff021916908373ffffffffffffffffffffffffffffffffffffffff16021790555060a0820151816004015590505050505050565b600160008154809291906109c99061197e565b91905055506040518060c001604052806001548152602001600081526020016000815260200160016002811115610a0357610a0261110e565b5b81526020018373ffffffffffffffffffffffffffffffffffffffff1681526020018281525060046000600154815260200190815260200160002060008201518160000155602082015181600101556040820151816002015560608201518160030160006101000a81548160ff02191690836002811115610a8657610a8561110e565b5b021790555060808201518160030160016101000a81548173ffffffffffffffffffffffffffffffffffffffff021916908373ffffffffffffffffffffffffffffffffffffffff16021790555060a082015181600401559050505050565b600054811115610b28576040517f08c379a0000000000000000000000000000000000000000000000000000000008152600401610b1f9061176e565b60405180910390fd5b60006002811115610b3c57610b3b61110e565b5b6003600083815260200190815260200160002060030160009054906101000a900460ff166002811115610b7257610b7161110e565b5b14610bb2576040517f08c379a0000000000000000000000000000000000000000000000000000000008152600401610ba990611a12565b60405180910390fd5b60026003600083815260200190815260200160002060030160006101000a81548160ff02191690836002811115610bec57610beb61110e565b5b02179055507f0c368e4cdd0e23707857d20056076efe6f588f9ce71ab6ce676d331fdc035f5b8142604051610c229291906117fa565b60405180910390a150565b60026000815480929190610c409061197e565b9190505550604051806040016040528060025481526020018273ffffffffffffffffffffffffffffffffffffffff168152506005600060025481526020019081526020016000206000820151816000015560208201518160010160006101000a81548173ffffffffffffffffffffffffffffffffffffffff021916908373ffffffffffffffffffffffffffffffffffffffff16021790555090505050565b5050565b60056020528060005260406000206000915090508060000154908060010160009054906101000a900473ffffffffffffffffffffffffffffffffffffffff16905082565b50565b60036020528060005260406000206000915090508060000154908060010154908060020154908060030160009054906101000a900460ff16908060030160019054906101000a900473ffffffffffffffffffffffffffffffffffffffff16908060040154905086565b60025481565b60005481565b610da6610ecc565b610dae610ecc565b6000600190505b6002548111610e53576005600082815260200190815260200160002060010160009054906101000a900473ffffffffffffffffffffffffffffffffffffffff16828260c88110610e0857610e07611a32565b5b602002019073ffffffffffffffffffffffffffffffffffffffff16908173ffffffffffffffffffffffffffffffffffffffff1681525050600181610e4c9190611a61565b9050610db5565b508091505090565b610e63610e6b565b819050919050565b6040518061010001604052806000815260200160008152602001600073ffffffffffffffffffffffffffffffffffffffff16815260200160008019168152602001600080191681526020016000815260200160008152602001600081525090565b60405180611900016040528060c890602082028036833780820191505090505090565b6000604051905090565b600080fd5b6000819050919050565b610f1181610efe565b8114610f1c57600080fd5b50565b600081359050610f2e81610f08565b92915050565b60008060408385031215610f4b57610f4a610ef9565b5b6000610f5985828601610f1f565b9250506020610f6a85828601610f1f565b9150509250929050565b600060208284031215610f8a57610f89610ef9565b5b6000610f9884828501610f1f565b91505092915050565b60008115159050919050565b610fb681610fa1565b82525050565b6000602082019050610fd16000830184610fad565b92915050565b6000819050919050565b610fea81610fd7565b8114610ff557600080fd5b50565b60008135905061100781610fe1565b92915050565b600080600080600060a0868803121561102957611028610ef9565b5b600061103788828901610f1f565b955050602061104888828901610f1f565b945050604061105988828901610ff8565b935050606061106a88828901610ff8565b925050608061107b88828901610f1f565b9150509295509295909350565b61109181610efe565b82525050565b60006020820190506110ac6000830184611088565b92915050565b600073ffffffffffffffffffffffffffffffffffffffff82169050919050565b60006110dd826110b2565b9050919050565b6110ed816110d2565b82525050565b600060208201905061110860008301846110e4565b92915050565b7f4e487b7100000000000000000000000000000000000000000000000000000000600052602160045260246000fd5b6003811061114e5761114d61110e565b5b50565b600081905061115f8261113d565b919050565b600061116f82611151565b9050919050565b61117f81611164565b82525050565b6000611190826110b2565b9050919050565b6111a081611185565b82525050565b600060c0820190506111bb6000830189611088565b6111c86020830188611088565b6111d56040830187611088565b6111e26060830186611176565b6111ef6080830185611197565b6111fc60a0830184611088565b979650505050505050565b6000819050919050565b61121a81611207565b811461122557600080fd5b50565b60008135905061123781611211565b92915050565b611246816110d2565b811461125157600080fd5b50565b6000813590506112638161123d565b92915050565b6000806000806080858703121561128357611282610ef9565b5b600061129187828801611228565b94505060206112a287828801610f1f565b93505060406112b387828801611254565b92505060606112c487828801610f1f565b91505092959194509250565b600080604083850312156112e7576112e6610ef9565b5b60006112f585828601611254565b925050602061130685828601610f1f565b9150509250929050565b60006020828403121561132657611325610ef9565b5b600061133484828501611254565b91505092915050565b60006040820190506113526000830185611088565b61135f6020830184611197565b9392505050565b61136f81611207565b82525050565b600060c08201905061138a6000830189611088565b6113976020830188611366565b6113a46040830187611088565b6113b16060830186611176565b6113be6080830185611197565b6113cb60a0830184611088565b979650505050505050565b600060c89050919050565b600081905092915050565b6000819050919050565b6113ff81611185565b82525050565b600061141183836113f6565b60208301905092915050565b6000602082019050919050565b611433816113d6565b61143d81846113e1565b9250611448826113ec565b8060005b838110156114795781516114608782611405565b965061146b8361141d565b92505060018101905061144c565b505050505050565b600061190082019050611497600083018461142a565b92915050565b600080fd5b6000601f19601f8301169050919050565b7f4e487b7100000000000000000000000000000000000000000000000000000000600052604160045260246000fd5b6114eb826114a2565b810181811067ffffffffffffffff8211171561150a576115096114b3565b5b80604052505050565b600061151d610eef565b905061152982826114e2565b919050565b600061010082840312156115455761154461149d565b5b611550610100611513565b9050600061156084828501610f1f565b600083015250602061157484828501610f1f565b602083015250604061158884828501611254565b604083015250606061159c84828501610ff8565b60608301525060806115b084828501610ff8565b60808301525060a06115c484828501610f1f565b60a08301525060c06115d884828501610f1f565b60c08301525060e06115ec84828501610f1f565b60e08301525092915050565b6000610100828403121561160f5761160e610ef9565b5b600061161d8482850161152e565b91505092915050565b61162f81610efe565b82525050565b61163e816110d2565b82525050565b61164d81610fd7565b82525050565b6101008201600082015161166a6000850182611626565b50602082015161167d6020850182611626565b5060408201516116906040850182611635565b5060608201516116a36060850182611644565b5060808201516116b66080850182611644565b5060a08201516116c960a0850182611626565b5060c08201516116dc60c0850182611626565b5060e08201516116ef60e0850182611626565b50505050565b60006101008201905061170b6000830184611653565b92915050565b600082825260208201905092915050565b7f5573657220646f65736e27742065786973740000000000000000000000000000600082015250565b6000611758601283611711565b915061176382611722565b602082019050919050565b600060208201905081810360008301526117878161174b565b9050919050565b7f41756374696f6e20696e2d70726f677265737320616c72656164790000000000600082015250565b60006117c4601b83611711565b91506117cf8261178e565b602082019050919050565b600060208201905081810360008301526117f3816117b7565b9050919050565b600060408201905061180f6000830185611088565b61181c6020830184611088565b9392505050565b7f4d616e75666163747572657220646f65736e2774206578697374000000000000600082015250565b6000611859601a83611711565b915061186482611823565b602082019050919050565b600060208201905081810360008301526118888161184c565b9050919050565b7f537570706c69657220646f65736e277420657869737400000000000000000000600082015250565b60006118c5601683611711565b91506118d08261188f565b602082019050919050565b600060208201905081810360008301526118f4816118b8565b9050919050565b61190481610fd7565b82525050565b600060808201905061191f6000830187611088565b61192c6020830186611088565b61193960408301856118fb565b61194660608301846118fb565b95945050505050565b7f4e487b7100000000000000000000000000000000000000000000000000000000600052601160045260246000fd5b600061198982610efe565b91507fffffffffffffffffffffffffffffffffffffffffffffffffffffffffffffffff82036119bb576119ba61194f565b5b600182019050919050565b7f41756374696f6e20456e64656420416c72656164790000000000000000000000600082015250565b60006119fc601583611711565b9150611a07826119c6565b602082019050919050565b60006020820190508181036000830152611a2b816119ef565b9050919050565b7f4e487b7100000000000000000000000000000000000000000000000000000000600052603260045260246000fd5b6000611a6c82610efe565b9150611a7783610efe565b9250828201905080821115611a8f57611a8e61194f565b5b9291505056fea2646970667358221220c0a5389dc9e843a06e9b74ac8c2ba279b2a743f5130ac46430737b2650d069d764736f6c63430008100033",
  "immutableReferences": {},
  "source": "pragma solidity >=0.8.16;\n\nimport { FirstAuction } from \"./auction.sol\";\n\ncontract Marketplace {\n\n    enum AuctionState {RUNNING, NOT_STARTED, FINISHED}\n\n    struct Bid {\n        uint256 valuePrice;\n        uint256 valueQuantity;\n        address payable bidderAddress;\n        bytes32 blindBidPrice; // will have price and quantity you are bidding  \n        bytes32 blindBidQuantity;\n        uint limitingResourceQuantity;\n        uint buyerID;\n        uint sellerID;\n    }\n\n    uint public num_supplier;\n    uint public num_manufacturer;\n    uint public num_customer;\n\n    mapping (uint => Supplier) public suppliers;\n    mapping (uint => Manufacturer) public manufacturers;\n    mapping (uint => Customer) public customers;\n    mapping (address => Bid[]) bidsTillNow;\n\n    \n\n    address payable public owner;\n\n    constructor() {\n        owner = payable(msg.sender);\n        num_manufacturer = 0;\n        num_supplier = 0;\n        num_customer = 0;                \n    }\n\n    struct Supplier {\n        uint tag;\n        int partType;\n        uint quantityAvailable;\n        AuctionState currentState;\n        address wallet;\n        uint maxBidders;\n    }\n\n    struct Manufacturer {\n        uint _tag;\n        uint quantityA;\n        uint quantityB;\n        AuctionState currentState;\n        address wallet;\n        uint maxBidders;\n    }\n\n    struct Customer {\n        uint _tag;\n        address wallet;\n    }\n\n    // function makeBidSupplier(int index, ...) public {\n    //     suppliers[index].auction.makeBid(...);\n    // }\n\n\n    function supplierStartAuction (uint tag) public returns (bool) {\n        // function for supplier to start their bidding process\n        require(tag<=num_supplier,\"User doesn't exist\");\n        require(suppliers[tag].currentState != AuctionState.RUNNING, \"Auction in-progress already\");\n        suppliers[tag].currentState = AuctionState.RUNNING ;\n        emit StartSupplierAuction (tag, block.timestamp);\n        return true; \n    \n    }\n\n    function supplierEndAuction (uint tag) public {\n        // function for suppilier to end their auction\n        require(tag<=num_supplier,\"User doesn't exist\");\n        require(suppliers[tag].currentState == AuctionState.RUNNING, \"Auction Ended Already\");\n        suppliers[tag].currentState = AuctionState.FINISHED;\n        emit EndSupplierAuction (tag, block.timestamp);\n    }\n    function testbid (Bid memory test_bid) public pure returns (Bid memory bid)\n    {\n        return test_bid;\n    }\n\n    function manufacturerPlacesBid(uint manufacturerID, uint supplierID , bytes32 price, bytes32 quant, uint limit) public { //should get all data needed for bid\n        // function for manufacturer to place a bid\n        require(num_manufacturer >= manufacturerID, \"Manufacturer doesn't exist\");\n        require(num_supplier >= supplierID, \"Supplier doesn't exist\");\n        Bid memory newbid;\n        newbid.bidderAddress = payable(msg.sender);\n        newbid.buyerID = manufacturerID;\n        newbid.sellerID = supplierID;\n        newbid.blindBidPrice = price;\n        newbid.blindBidQuantity = quant;\n        newbid.limitingResourceQuantity = limit;\n        //add this bid to suppliers address\n        address supplieraddr = suppliers[supplierID].wallet;\n        bidsTillNow[supplieraddr].push(newbid) ;\n        //testbid(newbid);\n        emit ManufacturerBids(supplierID, manufacturerID, newbid.blindBidPrice, newbid.blindBidQuantity);\n\n    }\n\n    function customerPlacesBid(uint manufacturerID, uint supplierID) public {\n        // function for customer to place a bid        \n    }\n\n    function manufactuerRevealBid(uint manufacturerID) public {\n\n    }\n\n    function customerRevealBid(uint manufacturerID) public {\n        \n    }\n\n    function allBidsPlacedForSupplier(uint suppliedID) private {\n        // once all bids have been placed, decide how much goes to each bidder\n    }\n\n    function allBidsPlacedForManufacturer(uint manufacturerID) private {\n        // once all bids have been placed, decide how much goes to each bidder\n    }\n\n    function addSupplier(int partType, uint quantityAvailable, address payable addr, uint auctionBidders) public {\n        num_supplier++;\n        suppliers[num_supplier] = Supplier(num_supplier, partType, quantityAvailable, AuctionState.NOT_STARTED, addr, auctionBidders);\n    }\n\n    function addManufacturer(address payable addr, uint auctionBidders) public {\n        num_manufacturer++;\n        manufacturers[num_manufacturer] = Manufacturer(num_manufacturer, 0, 0, AuctionState.NOT_STARTED, addr, auctionBidders);\n    }\n\n    function addCustomer(address payable addr) public {\n        num_customer++;\n        customers[num_customer] = Customer(num_customer, addr);\n    }\n\n    // Setter functions\n    function supplierAddQuantity(uint suppliedID, uint quantityToAdd) public view {\n        require(suppliers[suppliedID].wallet == msg.sender);\n        // increase the supplier quantity\n    }\n\n    event StartSupplierAuction(uint supplierID, uint startTime);\n    event EndSupplierAuction(uint supplierID, uint endTime);\n\n    event StartManufacturerAuction(uint manufacturerID, uint startTime);\n    event EndManufacturerAuction(uint manufacturerID, uint endTime);\n    \n    // Manufacturer places a bid to the supplier\n    event ManufacturerBids(uint supplierID, uint manufacturerID, bytes32 blindBidPrice, bytes32 blindBidQuantity);\n    // Manufacturer reveals it's bid to the supplier by providing the key\n    event ManufacturerReveal();\n    \n    // Customer places a bid to the manufacturer\n    event CustomerBid(uint manufacturerID,uint customerID, bytes32 blindBid);\n    event CustomerReveal();\n\n\n\n    // ALL GET FUNCTIONS\n    function getCustomers() public view returns (address[200] memory){\n        address[200] memory ret;\n        for (uint i = 1; i <= num_customer; i+=1)\n            ret[i] = customers[i].wallet;\n        return ret;        \n    }\n\n    // all modifiers\n    modifier beforeOnly(uint _time) { require(block.timestamp < _time); _; }\n    modifier afterOnly(uint _time) { require(block.timestamp > _time); _; }\n\n    \n}",
  "sourcePath": "/home/sahithi/acads/sem7/dtb/as1/Supply-Chain-Smartcontract/contracts/Marketplace.sol",
  "compiler": {
    "name": "solc",
    "version": "0.8.16+commit.07a7930e.Emscripten.clang"
  },
  "schemaVersion": "3.4.8",
  "updatedAt": "2022-08-30T19:15:55.677Z",
  "networkType": "ethereum",
  "devdoc": {
    "kind": "dev",
    "methods": {},
    "version": 1
  },
  "userdoc": {
    "kind": "user",
    "methods": {},
    "version": 1
  }
}