{
  "contractName": "Marketplace",
  "abi": [
    {
      "inputs": [],
      "stateMutability": "nonpayable",
      "type": "constructor"
    },
    {
      "anonymous": false,
      "inputs": [
        {
          "indexed": false,
          "internalType": "uint256",
          "name": "manufacturerID",
          "type": "uint256"
        },
        {
          "indexed": false,
          "internalType": "uint256",
          "name": "customerID",
          "type": "uint256"
        },
        {
          "indexed": false,
          "internalType": "bytes32",
          "name": "blindBid",
          "type": "bytes32"
        }
      ],
      "name": "CustomerBid",
      "type": "event"
    },
    {
      "anonymous": false,
      "inputs": [],
      "name": "CustomerReveal",
      "type": "event"
    },
    {
      "anonymous": false,
      "inputs": [
        {
          "indexed": false,
          "internalType": "uint256",
          "name": "manufacturerID",
          "type": "uint256"
        },
        {
          "indexed": false,
          "internalType": "uint256",
          "name": "endTime",
          "type": "uint256"
        }
      ],
      "name": "EndManufacturerAuction",
      "type": "event"
    },
    {
      "anonymous": false,
      "inputs": [
        {
          "indexed": false,
          "internalType": "uint256",
          "name": "supplierID",
          "type": "uint256"
        },
        {
          "indexed": false,
          "internalType": "uint256",
          "name": "endTime",
          "type": "uint256"
        }
      ],
      "name": "EndSupplierAuction",
      "type": "event"
    },
    {
      "anonymous": false,
      "inputs": [
        {
          "indexed": false,
          "internalType": "uint256",
          "name": "supplierID",
          "type": "uint256"
        },
        {
          "indexed": false,
          "internalType": "uint256",
          "name": "manufacturerID",
          "type": "uint256"
        },
        {
          "indexed": false,
          "internalType": "bytes32",
          "name": "blindBidPrice",
          "type": "bytes32"
        },
        {
          "indexed": false,
          "internalType": "bytes32",
          "name": "blindBidQuantity",
          "type": "bytes32"
        }
      ],
      "name": "ManufacturerBids",
      "type": "event"
    },
    {
      "anonymous": false,
      "inputs": [],
      "name": "ManufacturerReveal",
      "type": "event"
    },
    {
      "anonymous": false,
      "inputs": [
        {
          "indexed": false,
          "internalType": "uint256",
          "name": "manufacturerID",
          "type": "uint256"
        },
        {
          "indexed": false,
          "internalType": "uint256",
          "name": "startTime",
          "type": "uint256"
        }
      ],
      "name": "StartManufacturerAuction",
      "type": "event"
    },
    {
      "anonymous": false,
      "inputs": [
        {
          "indexed": false,
          "internalType": "uint256",
          "name": "supplierID",
          "type": "uint256"
        },
        {
          "indexed": false,
          "internalType": "uint256",
          "name": "startTime",
          "type": "uint256"
        }
      ],
      "name": "StartSupplierAuction",
      "type": "event"
    },
    {
      "inputs": [
        {
          "internalType": "uint256",
          "name": "",
          "type": "uint256"
        }
      ],
      "name": "customers",
      "outputs": [
        {
          "internalType": "uint256",
          "name": "_tag",
          "type": "uint256"
        },
        {
          "internalType": "address",
          "name": "wallet",
          "type": "address"
        }
      ],
      "stateMutability": "view",
      "type": "function"
    },
    {
      "inputs": [
        {
          "internalType": "uint256",
          "name": "",
          "type": "uint256"
        }
      ],
      "name": "manufacturers",
      "outputs": [
        {
          "internalType": "uint256",
          "name": "_tag",
          "type": "uint256"
        },
        {
          "internalType": "uint256",
          "name": "quantityA",
          "type": "uint256"
        },
        {
          "internalType": "uint256",
          "name": "quantityB",
          "type": "uint256"
        },
        {
          "internalType": "uint256",
          "name": "cars",
          "type": "uint256"
        },
        {
          "internalType": "enum Marketplace.AuctionState",
          "name": "currentState",
          "type": "uint8"
        },
        {
          "internalType": "address",
          "name": "wallet",
          "type": "address"
        },
        {
          "internalType": "uint256",
          "name": "maxBidders",
          "type": "uint256"
        }
      ],
      "stateMutability": "view",
      "type": "function"
    },
    {
      "inputs": [],
      "name": "num_customer",
      "outputs": [
        {
          "internalType": "uint256",
          "name": "",
          "type": "uint256"
        }
      ],
      "stateMutability": "view",
      "type": "function"
    },
    {
      "inputs": [],
      "name": "num_manufacturer",
      "outputs": [
        {
          "internalType": "uint256",
          "name": "",
          "type": "uint256"
        }
      ],
      "stateMutability": "view",
      "type": "function"
    },
    {
      "inputs": [],
      "name": "num_supplier",
      "outputs": [
        {
          "internalType": "uint256",
          "name": "",
          "type": "uint256"
        }
      ],
      "stateMutability": "view",
      "type": "function"
    },
    {
      "inputs": [],
      "name": "owner",
      "outputs": [
        {
          "internalType": "address payable",
          "name": "",
          "type": "address"
        }
      ],
      "stateMutability": "view",
      "type": "function"
    },
    {
      "inputs": [
        {
          "internalType": "uint256",
          "name": "",
          "type": "uint256"
        }
      ],
      "name": "suppliers",
      "outputs": [
        {
          "internalType": "uint256",
          "name": "tag",
          "type": "uint256"
        },
        {
          "internalType": "int256",
          "name": "partType",
          "type": "int256"
        },
        {
          "internalType": "uint256",
          "name": "quantityAvailable",
          "type": "uint256"
        },
        {
          "internalType": "enum Marketplace.AuctionState",
          "name": "currentState",
          "type": "uint8"
        },
        {
          "internalType": "address",
          "name": "wallet",
          "type": "address"
        },
        {
          "internalType": "uint256",
          "name": "maxBidders",
          "type": "uint256"
        }
      ],
      "stateMutability": "view",
      "type": "function"
    },
    {
      "inputs": [
        {
          "internalType": "uint256",
          "name": "a",
          "type": "uint256"
        },
        {
          "internalType": "uint256",
          "name": "b",
          "type": "uint256"
        }
      ],
      "name": "minimum",
      "outputs": [
        {
          "internalType": "uint256",
          "name": "",
          "type": "uint256"
        }
      ],
      "stateMutability": "pure",
      "type": "function"
    },
    {
      "inputs": [
        {
          "internalType": "uint256",
          "name": "tag",
          "type": "uint256"
        }
      ],
      "name": "supplierStartAuction",
      "outputs": [
        {
          "internalType": "uint256",
          "name": "",
          "type": "uint256"
        }
      ],
      "stateMutability": "nonpayable",
      "type": "function"
    },
    {
      "inputs": [
        {
          "internalType": "uint256",
          "name": "tag",
          "type": "uint256"
        }
      ],
      "name": "supplierEndAuction",
      "outputs": [
        {
          "internalType": "uint256",
          "name": "",
          "type": "uint256"
        }
      ],
      "stateMutability": "nonpayable",
      "type": "function"
    },
    {
      "inputs": [
        {
          "internalType": "uint256",
          "name": "manufacturerID",
          "type": "uint256"
        },
        {
          "internalType": "uint256",
          "name": "supplierID",
          "type": "uint256"
        },
        {
          "internalType": "uint256",
          "name": "price",
          "type": "uint256"
        },
        {
          "internalType": "uint256",
          "name": "quant",
          "type": "uint256"
        },
        {
          "internalType": "uint256",
          "name": "limit",
          "type": "uint256"
        }
      ],
      "name": "manufacturerPlacesBid",
      "outputs": [],
      "stateMutability": "nonpayable",
      "type": "function"
    },
    {
      "inputs": [
        {
          "internalType": "uint256",
          "name": "manufacturerID",
          "type": "uint256"
        },
        {
          "internalType": "uint256",
          "name": "supplierID",
          "type": "uint256"
        }
      ],
      "name": "customerPlacesBid",
      "outputs": [],
      "stateMutability": "nonpayable",
      "type": "function"
    },
    {
      "inputs": [
        {
          "internalType": "uint256",
          "name": "manufacturerID",
          "type": "uint256"
        }
      ],
      "name": "manufactuerRevealBid",
      "outputs": [],
      "stateMutability": "nonpayable",
      "type": "function"
    },
    {
      "inputs": [
        {
          "internalType": "uint256",
          "name": "manufacturerID",
          "type": "uint256"
        }
      ],
      "name": "customerRevealBid",
      "outputs": [],
      "stateMutability": "nonpayable",
      "type": "function"
    },
    {
      "inputs": [
        {
          "internalType": "int256",
          "name": "partType",
          "type": "int256"
        },
        {
          "internalType": "uint256",
          "name": "quantityAvailable",
          "type": "uint256"
        },
        {
          "internalType": "address payable",
          "name": "addr",
          "type": "address"
        },
        {
          "internalType": "uint256",
          "name": "auctionBidders",
          "type": "uint256"
        }
      ],
      "name": "addSupplier",
      "outputs": [],
      "stateMutability": "nonpayable",
      "type": "function"
    },
    {
      "inputs": [
        {
          "internalType": "address payable",
          "name": "addr",
          "type": "address"
        },
        {
          "internalType": "uint256",
          "name": "auctionBidders",
          "type": "uint256"
        }
      ],
      "name": "addManufacturer",
      "outputs": [],
      "stateMutability": "nonpayable",
      "type": "function"
    },
    {
      "inputs": [
        {
          "internalType": "address payable",
          "name": "addr",
          "type": "address"
        }
      ],
      "name": "addCustomer",
      "outputs": [],
      "stateMutability": "nonpayable",
      "type": "function"
    },
    {
      "inputs": [
        {
          "internalType": "uint256",
          "name": "suppliedID",
          "type": "uint256"
        },
        {
          "internalType": "uint256",
          "name": "quantityToAdd",
          "type": "uint256"
        }
      ],
      "name": "supplierAddQuantity",
      "outputs": [],
      "stateMutability": "nonpayable",
      "type": "function"
    },
    {
      "inputs": [],
      "name": "getCustomers",
      "outputs": [
        {
          "internalType": "address[200]",
          "name": "",
          "type": "address[200]"
        }
      ],
      "stateMutability": "view",
      "type": "function"
    }
  ],
  "bytecode": "0x608060405234801561001057600080fd5b5033600760006101000a81548173ffffffffffffffffffffffffffffffffffffffff021916908373ffffffffffffffffffffffffffffffffffffffff1602179055506000600181905550600080819055506000600281905550611888806100786000396000f3fe608060405234801561001057600080fd5b50600436106101215760003560e01c8063aa8613c4116100ad578063cea2312111610071578063cea2312114610309578063dd2d2a121461033e578063eb16d0e41461036e578063edcac78b1461038c578063f1ba7127146103aa57610121565b8063aa8613c414610254578063ad973d7414610284578063b8201851146102a0578063c0abda2a146102bc578063c8390cec146102ed57610121565b80637c071dcc116100f45780637c071dcc146101ac5780638da5cb5b146101c857806390175af1146101e65780639a7a9b131461021c578063a436792b1461023857610121565b80630cf3750d146101265780630ef7450a1461014257806317c9dea61461015e5780634cc9aff81461018e575b600080fd5b610140600480360381019061013b9190610fb9565b6103c8565b005b61015c60048036038101906101579190610ff9565b610476565b005b61017860048036038101906101739190611074565b61070b565b60405161018591906110b0565b60405180910390f35b61019661085b565b6040516101a391906110b0565b60405180910390f35b6101c660048036038101906101c19190611074565b610861565b005b6101d0610864565b6040516101dd919061110c565b60405180910390f35b61020060048036038101906101fb9190611074565b61088a565b60405161021397969594939291906111bf565b60405180910390f35b61023660048036038101906102319190611290565b6108f9565b005b610252600480360381019061024d91906112f7565b610a24565b005b61026e60048036038101906102699190611074565b610b62565b60405161027b91906110b0565b60405180910390f35b61029e60048036038101906102999190611337565b610cb2565b005b6102ba60048036038101906102b59190610fb9565b610d63565b005b6102d660048036038101906102d19190611074565b610d67565b6040516102e4929190611364565b60405180910390f35b61030760048036038101906103029190611074565b610dab565b005b610323600480360381019061031e9190611074565b610dae565b6040516103359695949392919061139c565b60405180910390f35b61035860048036038101906103539190610fb9565b610e17565b60405161036591906110b0565b60405180910390f35b610376610e31565b60405161038391906110b0565b60405180910390f35b610394610e37565b6040516103a191906110b0565b60405180910390f35b6103b2610e3d565b6040516103bf91906114a8565b60405180910390f35b3373ffffffffffffffffffffffffffffffffffffffff166003600084815260200190815260200160002060030160019054906101000a900473ffffffffffffffffffffffffffffffffffffffff1673ffffffffffffffffffffffffffffffffffffffff161461043657600080fd5b81600054101561044557600080fd5b8060036000848152602001908152602001600020600201600082825461046b91906114f3565b925050819055505050565b61047f84610b62565b80421061048b57600080fd5b61049485610b62565b8042116104a057600080fd5b8660015410156104e5576040517f08c379a00000000000000000000000000000000000000000000000000000000081526004016104dc90611584565b60405180910390fd5b85600054101561052a576040517f08c379a0000000000000000000000000000000000000000000000000000000008152600401610521906115f0565b60405180910390fd5b610532610efa565b33816040019073ffffffffffffffffffffffffffffffffffffffff16908173ffffffffffffffffffffffffffffffffffffffff1681525050878160c0018181525050868160e0018181525050838160a001818152505060006003600089815260200190815260200160002060030160019054906101000a900473ffffffffffffffffffffffffffffffffffffffff169050600660008273ffffffffffffffffffffffffffffffffffffffff1673ffffffffffffffffffffffffffffffffffffffff168152602001908152602001600020829080600181540180825580915050600190039060005260206000209060080201600090919091909150600082015181600001556020820151816001015560408201518160020160006101000a81548173ffffffffffffffffffffffffffffffffffffffff021916908373ffffffffffffffffffffffffffffffffffffffff160217905550606082015181600301556080820151816004015560a0820151816005015560c0820151816006015560e0820151816007015550507fdbd4ed8ca35fd076d8fdc3ddae80bf4fac4fc55dd918d5868cf2b92f82d2de53888a846060015185608001516040516106f89493929190611629565b60405180910390a1505050505050505050565b60008054821115610751576040517f08c379a0000000000000000000000000000000000000000000000000000000008152600401610748906116ba565b60405180910390fd5b6000600281111561076557610764611127565b5b6003600084815260200190815260200160002060030160009054906101000a900460ff16600281111561079b5761079a611127565b5b036107db576040517f08c379a00000000000000000000000000000000000000000000000000000000081526004016107d290611726565b60405180910390fd5b60006003600084815260200190815260200160002060030160006101000a81548160ff0219169083600281111561081557610814611127565b5b02179055507f10449cff8425a2b933fdd57a667ad5bdad3da817ddd9179f125f5c7756582e17824260405161084b929190611746565b60405180910390a1429050919050565b60015481565b50565b600760009054906101000a900473ffffffffffffffffffffffffffffffffffffffff1681565b60046020528060005260406000206000915090508060000154908060010154908060020154908060030154908060040160009054906101000a900460ff16908060040160019054906101000a900473ffffffffffffffffffffffffffffffffffffffff16908060050154905087565b60008081548092919061090b9061176f565b91905055506040518060c0016040528060005481526020018581526020018481526020016001600281111561094357610942611127565b5b81526020018373ffffffffffffffffffffffffffffffffffffffff16815260200182815250600360008054815260200190815260200160002060008201518160000155602082015181600101556040820151816002015560608201518160030160006101000a81548160ff021916908360028111156109c5576109c4611127565b5b021790555060808201518160030160016101000a81548173ffffffffffffffffffffffffffffffffffffffff021916908373ffffffffffffffffffffffffffffffffffffffff16021790555060a0820151816004015590505050505050565b60016000815480929190610a379061176f565b91905055506040518060e00160405280600154815260200160008152602001600081526020016000815260200160016002811115610a7857610a77611127565b5b81526020018373ffffffffffffffffffffffffffffffffffffffff168152602001828152506004600060015481526020019081526020016000206000820151816000015560208201518160010155604082015181600201556060820151816003015560808201518160040160006101000a81548160ff02191690836002811115610b0557610b04611127565b5b021790555060a08201518160040160016101000a81548173ffffffffffffffffffffffffffffffffffffffff021916908373ffffffffffffffffffffffffffffffffffffffff16021790555060c082015181600501559050505050565b60008054821115610ba8576040517f08c379a0000000000000000000000000000000000000000000000000000000008152600401610b9f906116ba565b60405180910390fd5b60006002811115610bbc57610bbb611127565b5b6003600084815260200190815260200160002060030160009054906101000a900460ff166002811115610bf257610bf1611127565b5b14610c32576040517f08c379a0000000000000000000000000000000000000000000000000000000008152600401610c2990611803565b60405180910390fd5b60026003600084815260200190815260200160002060030160006101000a81548160ff02191690836002811115610c6c57610c6b611127565b5b02179055507f0c368e4cdd0e23707857d20056076efe6f588f9ce71ab6ce676d331fdc035f5b8242604051610ca2929190611746565b60405180910390a1429050919050565b60026000815480929190610cc59061176f565b9190505550604051806040016040528060025481526020018273ffffffffffffffffffffffffffffffffffffffff168152506005600060025481526020019081526020016000206000820151816000015560208201518160010160006101000a81548173ffffffffffffffffffffffffffffffffffffffff021916908373ffffffffffffffffffffffffffffffffffffffff16021790555090505050565b5050565b60056020528060005260406000206000915090508060000154908060010160009054906101000a900473ffffffffffffffffffffffffffffffffffffffff16905082565b50565b60036020528060005260406000206000915090508060000154908060010154908060020154908060030160009054906101000a900460ff16908060030160019054906101000a900473ffffffffffffffffffffffffffffffffffffffff16908060040154905086565b600081831015610e275782610e29565b815b905092915050565b60025481565b60005481565b610e45610f5b565b610e4d610f5b565b6000600190505b6002548111610ef2576005600082815260200190815260200160002060010160009054906101000a900473ffffffffffffffffffffffffffffffffffffffff16828260c88110610ea757610ea6611823565b5b602002019073ffffffffffffffffffffffffffffffffffffffff16908173ffffffffffffffffffffffffffffffffffffffff1681525050600181610eeb91906114f3565b9050610e54565b508091505090565b6040518061010001604052806000815260200160008152602001600073ffffffffffffffffffffffffffffffffffffffff16815260200160008019168152602001600080191681526020016000815260200160008152602001600081525090565b60405180611900016040528060c890602082028036833780820191505090505090565b600080fd5b6000819050919050565b610f9681610f83565b8114610fa157600080fd5b50565b600081359050610fb381610f8d565b92915050565b60008060408385031215610fd057610fcf610f7e565b5b6000610fde85828601610fa4565b9250506020610fef85828601610fa4565b9150509250929050565b600080600080600060a0868803121561101557611014610f7e565b5b600061102388828901610fa4565b955050602061103488828901610fa4565b945050604061104588828901610fa4565b935050606061105688828901610fa4565b925050608061106788828901610fa4565b9150509295509295909350565b60006020828403121561108a57611089610f7e565b5b600061109884828501610fa4565b91505092915050565b6110aa81610f83565b82525050565b60006020820190506110c560008301846110a1565b92915050565b600073ffffffffffffffffffffffffffffffffffffffff82169050919050565b60006110f6826110cb565b9050919050565b611106816110eb565b82525050565b600060208201905061112160008301846110fd565b92915050565b7f4e487b7100000000000000000000000000000000000000000000000000000000600052602160045260246000fd5b6003811061116757611166611127565b5b50565b600081905061117882611156565b919050565b60006111888261116a565b9050919050565b6111988161117d565b82525050565b60006111a9826110cb565b9050919050565b6111b98161119e565b82525050565b600060e0820190506111d4600083018a6110a1565b6111e160208301896110a1565b6111ee60408301886110a1565b6111fb60608301876110a1565b611208608083018661118f565b61121560a08301856111b0565b61122260c08301846110a1565b98975050505050505050565b6000819050919050565b6112418161122e565b811461124c57600080fd5b50565b60008135905061125e81611238565b92915050565b61126d816110eb565b811461127857600080fd5b50565b60008135905061128a81611264565b92915050565b600080600080608085870312156112aa576112a9610f7e565b5b60006112b88782880161124f565b94505060206112c987828801610fa4565b93505060406112da8782880161127b565b92505060606112eb87828801610fa4565b91505092959194509250565b6000806040838503121561130e5761130d610f7e565b5b600061131c8582860161127b565b925050602061132d85828601610fa4565b9150509250929050565b60006020828403121561134d5761134c610f7e565b5b600061135b8482850161127b565b91505092915050565b600060408201905061137960008301856110a1565b61138660208301846111b0565b9392505050565b6113968161122e565b82525050565b600060c0820190506113b160008301896110a1565b6113be602083018861138d565b6113cb60408301876110a1565b6113d8606083018661118f565b6113e560808301856111b0565b6113f260a08301846110a1565b979650505050505050565b600060c89050919050565b600081905092915050565b6000819050919050565b6114268161119e565b82525050565b6000611438838361141d565b60208301905092915050565b6000602082019050919050565b61145a816113fd565b6114648184611408565b925061146f82611413565b8060005b838110156114a0578151611487878261142c565b965061149283611444565b925050600181019050611473565b505050505050565b6000611900820190506114be6000830184611451565b92915050565b7f4e487b7100000000000000000000000000000000000000000000000000000000600052601160045260246000fd5b60006114fe82610f83565b915061150983610f83565b9250828201905080821115611521576115206114c4565b5b92915050565b600082825260208201905092915050565b7f4d616e75666163747572657220646f65736e2774206578697374000000000000600082015250565b600061156e601a83611527565b915061157982611538565b602082019050919050565b6000602082019050818103600083015261159d81611561565b9050919050565b7f537570706c69657220646f65736e277420657869737400000000000000000000600082015250565b60006115da601683611527565b91506115e5826115a4565b602082019050919050565b60006020820190508181036000830152611609816115cd565b9050919050565b6000819050919050565b61162381611610565b82525050565b600060808201905061163e60008301876110a1565b61164b60208301866110a1565b611658604083018561161a565b611665606083018461161a565b95945050505050565b7f5573657220646f65736e27742065786973740000000000000000000000000000600082015250565b60006116a4601283611527565b91506116af8261166e565b602082019050919050565b600060208201905081810360008301526116d381611697565b9050919050565b7f41756374696f6e20696e2d70726f677265737320616c72656164790000000000600082015250565b6000611710601b83611527565b915061171b826116da565b602082019050919050565b6000602082019050818103600083015261173f81611703565b9050919050565b600060408201905061175b60008301856110a1565b61176860208301846110a1565b9392505050565b600061177a82610f83565b91507fffffffffffffffffffffffffffffffffffffffffffffffffffffffffffffffff82036117ac576117ab6114c4565b5b600182019050919050565b7f41756374696f6e20456e64656420416c72656164790000000000000000000000600082015250565b60006117ed601583611527565b91506117f8826117b7565b602082019050919050565b6000602082019050818103600083015261181c816117e0565b9050919050565b7f4e487b7100000000000000000000000000000000000000000000000000000000600052603260045260246000fdfea2646970667358221220142a7a010262db229f9f3c201d34979cd3b73203082d3841719107d831b0842164736f6c63430008100033",
  "immutableReferences": {},
  "source": "pragma solidity >=0.8.16;\n\nimport { FirstAuction } from \"./auction.sol\";\n\ncontract Marketplace {\n\n    enum AuctionState {RUNNING, NOT_STARTED, FINISHED}\n\n    struct Bid {\n        uint256 valuePrice;\n        uint256 valueQuantity;\n        address payable bidderAddress;\n        bytes32 blindBidPrice; // will have price and quantity you are bidding  \n        bytes32 blindBidQuantity;\n        uint limitingResourceQuantity;\n        uint buyerID;\n        uint sellerID;\n    }\n\n    uint public num_supplier;\n    uint public num_manufacturer;\n    uint public num_customer;\n\n    mapping (uint => Supplier) public suppliers;\n    mapping (uint => Manufacturer) public manufacturers;\n    mapping (uint => Customer) public customers;\n    mapping (address => Bid[]) bidsTillNow;\n    \n    \n\n    address payable public owner;\n\n    constructor() {\n        owner = payable(msg.sender);\n        num_manufacturer = 0;\n        num_supplier = 0;\n        num_customer = 0;                \n    }\n\n    struct Supplier {\n        uint tag;\n        int partType;\n        uint quantityAvailable;\n        AuctionState currentState;\n        address wallet;\n        uint maxBidders;\n        \n    }\n\n    struct Manufacturer {\n        uint _tag;\n        uint quantityA;\n        uint quantityB;\n        uint cars;\n        AuctionState currentState;\n        address wallet;\n        uint maxBidders;\n    }\n\n    struct Customer {\n        uint _tag;\n        address wallet;\n    }\n\n    // function makeBidSupplier(int index, ...) public {\n    //     suppliers[index].auction.makeBid(...);\n    // }\n    // Helpers\n    function minimum(uint a, uint b) public pure returns (uint) {\n    return a >= b ? b : a;\n    }\n\n    function supplierStartAuction (uint tag) public returns (uint) {\n        // function for supplier to start their bidding process\n        require(tag<=num_supplier,\"User doesn't exist\");\n        require(suppliers[tag].currentState != AuctionState.RUNNING, \"Auction in-progress already\");\n        suppliers[tag].currentState = AuctionState.RUNNING ;\n        emit StartSupplierAuction (tag, block.timestamp);\n        return block.timestamp;\n    \n    }\n\n    function supplierEndAuction (uint tag) public returns (uint){\n        // function for suppilier to end their auction\n        require(tag<=num_supplier,\"User doesn't exist\");\n        require(suppliers[tag].currentState == AuctionState.RUNNING, \"Auction Ended Already\");\n        suppliers[tag].currentState = AuctionState.FINISHED;\n        emit EndSupplierAuction (tag, block.timestamp);\n        return block.timestamp;\n    }\n \n\n    function manufacturerPlacesBid(uint manufacturerID, uint supplierID , uint price, uint quant, uint limit) public beforeOnly(supplierEndAuction(supplierID)) afterOnly(supplierEndAuction(supplierID)){ //should get all data needed for bid\n        // function for manufacturer to place a bid\n        //@please check price and quant hashing part\n        require(num_manufacturer >= manufacturerID, \"Manufacturer doesn't exist\");\n        require(num_supplier >= supplierID, \"Supplier doesn't exist\");\n        Bid memory newbid;\n        newbid.bidderAddress = payable(msg.sender);\n        newbid.buyerID = manufacturerID;\n        newbid.sellerID = supplierID;\n       // newbid.blindBidPrice = price;\n       // newbid.blindBidQuantity = quant;\n        newbid.limitingResourceQuantity = limit;\n        address supplieraddr = suppliers[supplierID].wallet;\n        bidsTillNow[supplieraddr].push(newbid) ;\n        \n        emit ManufacturerBids(supplierID, manufacturerID, newbid.blindBidPrice, newbid.blindBidQuantity);\n\n    }\n\n    function customerPlacesBid(uint manufacturerID, uint supplierID) public {\n        // function for customer to place a bid        \n    }\n\n    function manufactuerRevealBid(uint manufacturerID) public {\n\n    }\n\n    function customerRevealBid(uint manufacturerID) public {\n        \n    }\n\n    function allBidsPlacedForSupplier(uint suppliedID) private {\n        // once all bids have been placed, decide how much goes to each bidder\n    }\n\n    function allBidsPlacedForManufacturer(uint manufacturerID) private {\n        // once all bids have been placed, decide how much goes to each bidder\n    }\n\n    function addSupplier(int partType, uint quantityAvailable, address payable addr, uint auctionBidders) public {\n        num_supplier++;\n        suppliers[num_supplier] = Supplier(num_supplier, partType, quantityAvailable, AuctionState.NOT_STARTED, addr, auctionBidders);\n    }\n\n    function addManufacturer(address payable addr, uint auctionBidders) public {\n        num_manufacturer++;\n        manufacturers[num_manufacturer] = Manufacturer(num_manufacturer, 0, 0,0, AuctionState.NOT_STARTED, addr, auctionBidders);\n    }\n\n    function addCustomer(address payable addr) public {\n        num_customer++;\n        customers[num_customer] = Customer(num_customer, addr);\n    }\n\n    // Setter functions\n    function supplierAddQuantity(uint suppliedID, uint quantityToAdd) public {\n        require(suppliers[suppliedID].wallet == msg.sender);\n        require(num_supplier>=suppliedID);\n        // increase the supplier quantity\n        suppliers[suppliedID].quantityAvailable+=quantityToAdd;\n    }\n\n    function Update_Manufacturer_Quantities(uint manufacturerID, uint quantityA , uint quantityB) private {\n        manufacturers[manufacturerID].quantityA+=quantityA;\n        manufacturers[manufacturerID].quantityB+=quantityB;\n        uint max_cars= minimum(quantityA, quantityB);\n        manufacturers[manufacturerID].quantityA-=max_cars;\n        manufacturers[manufacturerID].quantityB-=max_cars;\n        manufacturers[manufacturerID].cars+=max_cars;\n    }\n\n    event StartSupplierAuction(uint supplierID, uint startTime);\n    event EndSupplierAuction(uint supplierID, uint endTime);\n\n    event StartManufacturerAuction(uint manufacturerID, uint startTime);\n    event EndManufacturerAuction(uint manufacturerID, uint endTime);\n    \n    // Manufacturer places a bid to the supplier\n    event ManufacturerBids(uint supplierID, uint manufacturerID, bytes32 blindBidPrice, bytes32 blindBidQuantity);\n    // Manufacturer reveals it's bid to the supplier by providing the key\n    event ManufacturerReveal();\n    \n    // Customer places a bid to the manufacturer\n    event CustomerBid(uint manufacturerID,uint customerID, bytes32 blindBid);\n    event CustomerReveal();\n\n\n\n    // ALL GET FUNCTIONS\n    function getCustomers() public view returns (address[200] memory){\n        address[200] memory ret;\n        for (uint i = 1; i <= num_customer; i+=1)\n            ret[i] = customers[i].wallet;\n        return ret;        \n    }\n\n   \n\n    // all modifiers\n    modifier beforeOnly(uint _time) { require(block.timestamp < _time); _; }\n    modifier afterOnly(uint _time) { require(block.timestamp > _time); _; }\n\n    \n}",
  "sourcePath": "/home/sahithi/acads/sem7/dtb/as1/Supply-Chain-Smartcontract/contracts/Marketplace.sol",
  "compiler": {
    "name": "solc",
    "version": "0.8.16+commit.07a7930e.Emscripten.clang"
  },
  "schemaVersion": "3.4.8",
  "updatedAt": "2022-08-30T20:30:05.515Z",
  "devdoc": {
    "kind": "dev",
    "methods": {},
    "version": 1
  },
  "userdoc": {
    "kind": "user",
    "methods": {},
    "version": 1
  }
}