{
  "contractName": "MarketPlace_CustomerInterface",
  "abi": [
    {
      "inputs": [],
      "stateMutability": "nonpayable",
      "type": "constructor"
    },
    {
      "anonymous": false,
      "inputs": [
        {
          "indexed": false,
          "internalType": "uint256",
          "name": "manufacturerID",
          "type": "uint256"
        },
        {
          "indexed": false,
          "internalType": "uint256",
          "name": "customerID",
          "type": "uint256"
        },
        {
          "indexed": false,
          "internalType": "uint256",
          "name": "quantity",
          "type": "uint256"
        },
        {
          "indexed": false,
          "internalType": "uint256",
          "name": "price",
          "type": "uint256"
        },
        {
          "indexed": false,
          "internalType": "uint256[100]",
          "name": "carTag",
          "type": "uint256[100]"
        }
      ],
      "name": "AllocateFromManufacturer",
      "type": "event"
    },
    {
      "anonymous": false,
      "inputs": [
        {
          "indexed": false,
          "internalType": "uint256",
          "name": "supplierID",
          "type": "uint256"
        },
        {
          "indexed": false,
          "internalType": "uint256",
          "name": "manufacturerID",
          "type": "uint256"
        },
        {
          "indexed": false,
          "internalType": "uint256",
          "name": "quantity",
          "type": "uint256"
        },
        {
          "indexed": false,
          "internalType": "uint256",
          "name": "price",
          "type": "uint256"
        }
      ],
      "name": "AllocateFromSupplier",
      "type": "event"
    },
    {
      "anonymous": false,
      "inputs": [
        {
          "indexed": false,
          "internalType": "uint256",
          "name": "CustomerID",
          "type": "uint256"
        },
        {
          "indexed": false,
          "internalType": "uint256",
          "name": "ManufacturerID",
          "type": "uint256"
        },
        {
          "indexed": false,
          "internalType": "uint256",
          "name": "Quantity",
          "type": "uint256"
        },
        {
          "indexed": false,
          "internalType": "uint256",
          "name": "Price",
          "type": "uint256"
        }
      ],
      "name": "CustomerRequest",
      "type": "event"
    },
    {
      "anonymous": false,
      "inputs": [
        {
          "indexed": false,
          "internalType": "uint256",
          "name": "manufacturerID",
          "type": "uint256"
        },
        {
          "indexed": false,
          "internalType": "uint256",
          "name": "endTime",
          "type": "uint256"
        }
      ],
      "name": "EndManufacturerAuction",
      "type": "event"
    },
    {
      "anonymous": false,
      "inputs": [
        {
          "indexed": false,
          "internalType": "uint256",
          "name": "supplierID",
          "type": "uint256"
        },
        {
          "indexed": false,
          "internalType": "uint256",
          "name": "endTime",
          "type": "uint256"
        }
      ],
      "name": "EndSupplierAuction",
      "type": "event"
    },
    {
      "anonymous": false,
      "inputs": [
        {
          "indexed": false,
          "internalType": "uint256",
          "name": "supplierID",
          "type": "uint256"
        },
        {
          "indexed": false,
          "internalType": "uint256",
          "name": "manufacturerID",
          "type": "uint256"
        },
        {
          "indexed": false,
          "internalType": "bytes32",
          "name": "blindBidPrice",
          "type": "bytes32"
        },
        {
          "indexed": false,
          "internalType": "bytes32",
          "name": "blindBidQuantity",
          "type": "bytes32"
        }
      ],
      "name": "ManufacturerBids",
      "type": "event"
    },
    {
      "anonymous": false,
      "inputs": [
        {
          "indexed": false,
          "internalType": "uint256",
          "name": "supplierID",
          "type": "uint256"
        },
        {
          "indexed": false,
          "internalType": "uint256",
          "name": "manufacturerID",
          "type": "uint256"
        },
        {
          "indexed": false,
          "internalType": "uint256",
          "name": "price",
          "type": "uint256"
        },
        {
          "indexed": false,
          "internalType": "uint256",
          "name": "quantity",
          "type": "uint256"
        }
      ],
      "name": "ManufacturerReveal",
      "type": "event"
    },
    {
      "anonymous": false,
      "inputs": [
        {
          "indexed": false,
          "internalType": "uint256",
          "name": "manufacturerID",
          "type": "uint256"
        },
        {
          "indexed": false,
          "internalType": "uint256",
          "name": "startTime",
          "type": "uint256"
        }
      ],
      "name": "StartManufacturerAuction",
      "type": "event"
    },
    {
      "anonymous": false,
      "inputs": [
        {
          "indexed": false,
          "internalType": "uint256",
          "name": "supplierID",
          "type": "uint256"
        },
        {
          "indexed": false,
          "internalType": "uint256",
          "name": "startTime",
          "type": "uint256"
        }
      ],
      "name": "StartSupplierAuction",
      "type": "event"
    },
    {
      "inputs": [
        {
          "internalType": "uint256",
          "name": "",
          "type": "uint256"
        }
      ],
      "name": "customers",
      "outputs": [
        {
          "internalType": "uint256",
          "name": "_tag",
          "type": "uint256"
        },
        {
          "internalType": "address",
          "name": "wallet",
          "type": "address"
        }
      ],
      "stateMutability": "view",
      "type": "function",
      "constant": true
    },
    {
      "inputs": [
        {
          "internalType": "uint256",
          "name": "manufacturerID",
          "type": "uint256"
        },
        {
          "internalType": "uint256",
          "name": "supplierID",
          "type": "uint256"
        },
        {
          "internalType": "uint256",
          "name": "price",
          "type": "uint256"
        },
        {
          "internalType": "uint256",
          "name": "quantity",
          "type": "uint256"
        }
      ],
      "name": "manufactuerRevealBid",
      "outputs": [
        {
          "internalType": "bool",
          "name": "",
          "type": "bool"
        }
      ],
      "stateMutability": "nonpayable",
      "type": "function"
    },
    {
      "inputs": [
        {
          "internalType": "uint256",
          "name": "manufacturerID",
          "type": "uint256"
        },
        {
          "internalType": "uint256",
          "name": "supplierID",
          "type": "uint256"
        },
        {
          "internalType": "bytes32",
          "name": "blindPrice",
          "type": "bytes32"
        },
        {
          "internalType": "bytes32",
          "name": "blindQuantity",
          "type": "bytes32"
        },
        {
          "internalType": "uint256",
          "name": "limit",
          "type": "uint256"
        }
      ],
      "name": "manufacturerPlacesBid",
      "outputs": [],
      "stateMutability": "payable",
      "type": "function",
      "payable": true
    },
    {
      "inputs": [
        {
          "internalType": "uint256",
          "name": "",
          "type": "uint256"
        }
      ],
      "name": "manufacturers",
      "outputs": [
        {
          "internalType": "uint256",
          "name": "_tag",
          "type": "uint256"
        },
        {
          "internalType": "uint256",
          "name": "quantityA",
          "type": "uint256"
        },
        {
          "internalType": "uint256",
          "name": "quantityB",
          "type": "uint256"
        },
        {
          "internalType": "uint256",
          "name": "cars",
          "type": "uint256"
        },
        {
          "internalType": "uint256",
          "name": "carsprice",
          "type": "uint256"
        },
        {
          "internalType": "enum MarketPlace_Structures.AuctionState",
          "name": "currentState",
          "type": "uint8"
        },
        {
          "internalType": "address",
          "name": "wallet",
          "type": "address"
        },
        {
          "internalType": "uint256",
          "name": "maxBidders",
          "type": "uint256"
        },
        {
          "internalType": "uint256",
          "name": "QA_sellerID",
          "type": "uint256"
        },
        {
          "internalType": "uint256",
          "name": "QB_sellerID",
          "type": "uint256"
        }
      ],
      "stateMutability": "view",
      "type": "function",
      "constant": true
    },
    {
      "inputs": [
        {
          "internalType": "uint256",
          "name": "a",
          "type": "uint256"
        },
        {
          "internalType": "uint256",
          "name": "b",
          "type": "uint256"
        }
      ],
      "name": "minimum",
      "outputs": [
        {
          "internalType": "uint256",
          "name": "",
          "type": "uint256"
        }
      ],
      "stateMutability": "pure",
      "type": "function",
      "constant": true
    },
    {
      "inputs": [],
      "name": "num_customer",
      "outputs": [
        {
          "internalType": "uint256",
          "name": "",
          "type": "uint256"
        }
      ],
      "stateMutability": "view",
      "type": "function",
      "constant": true
    },
    {
      "inputs": [],
      "name": "num_manufacturer",
      "outputs": [
        {
          "internalType": "uint256",
          "name": "",
          "type": "uint256"
        }
      ],
      "stateMutability": "view",
      "type": "function",
      "constant": true
    },
    {
      "inputs": [],
      "name": "num_products",
      "outputs": [
        {
          "internalType": "uint256",
          "name": "",
          "type": "uint256"
        }
      ],
      "stateMutability": "view",
      "type": "function",
      "constant": true
    },
    {
      "inputs": [],
      "name": "num_supplier",
      "outputs": [
        {
          "internalType": "uint256",
          "name": "",
          "type": "uint256"
        }
      ],
      "stateMutability": "view",
      "type": "function",
      "constant": true
    },
    {
      "inputs": [],
      "name": "owner",
      "outputs": [
        {
          "internalType": "address payable",
          "name": "",
          "type": "address"
        }
      ],
      "stateMutability": "view",
      "type": "function",
      "constant": true
    },
    {
      "inputs": [
        {
          "internalType": "uint256",
          "name": "manufacturerID",
          "type": "uint256"
        },
        {
          "internalType": "uint256",
          "name": "price",
          "type": "uint256"
        }
      ],
      "name": "set_cars_price",
      "outputs": [],
      "stateMutability": "nonpayable",
      "type": "function"
    },
    {
      "inputs": [
        {
          "internalType": "uint256",
          "name": "suppliedID",
          "type": "uint256"
        },
        {
          "internalType": "uint256",
          "name": "quantityToAdd",
          "type": "uint256"
        }
      ],
      "name": "supplierAddQuantity",
      "outputs": [],
      "stateMutability": "nonpayable",
      "type": "function"
    },
    {
      "inputs": [
        {
          "internalType": "uint256",
          "name": "tag",
          "type": "uint256"
        }
      ],
      "name": "supplierEndAuction",
      "outputs": [
        {
          "internalType": "uint256",
          "name": "",
          "type": "uint256"
        }
      ],
      "stateMutability": "nonpayable",
      "type": "function"
    },
    {
      "inputs": [
        {
          "internalType": "uint256",
          "name": "tag",
          "type": "uint256"
        }
      ],
      "name": "supplierEndReveal",
      "outputs": [
        {
          "internalType": "uint256",
          "name": "",
          "type": "uint256"
        }
      ],
      "stateMutability": "nonpayable",
      "type": "function"
    },
    {
      "inputs": [
        {
          "internalType": "uint256",
          "name": "tag",
          "type": "uint256"
        }
      ],
      "name": "supplierStartAuction",
      "outputs": [
        {
          "internalType": "uint256",
          "name": "",
          "type": "uint256"
        }
      ],
      "stateMutability": "nonpayable",
      "type": "function"
    },
    {
      "inputs": [
        {
          "internalType": "uint256",
          "name": "",
          "type": "uint256"
        }
      ],
      "name": "suppliers",
      "outputs": [
        {
          "internalType": "uint256",
          "name": "tag",
          "type": "uint256"
        },
        {
          "internalType": "int256",
          "name": "partType",
          "type": "int256"
        },
        {
          "internalType": "uint256",
          "name": "quantityAvailable",
          "type": "uint256"
        },
        {
          "internalType": "enum MarketPlace_Structures.AuctionState",
          "name": "currentState",
          "type": "uint8"
        },
        {
          "internalType": "address",
          "name": "wallet",
          "type": "address"
        },
        {
          "internalType": "uint256",
          "name": "maxBidders",
          "type": "uint256"
        },
        {
          "internalType": "uint256",
          "name": "bidsPlaced",
          "type": "uint256"
        },
        {
          "internalType": "uint256",
          "name": "bidsRevealed",
          "type": "uint256"
        }
      ],
      "stateMutability": "view",
      "type": "function",
      "constant": true
    },
    {
      "inputs": [
        {
          "internalType": "address",
          "name": "senderaddr",
          "type": "address"
        },
        {
          "internalType": "uint256",
          "name": "effectivePrice",
          "type": "uint256"
        }
      ],
      "name": "transferMoney",
      "outputs": [],
      "stateMutability": "payable",
      "type": "function",
      "payable": true
    },
    {
      "inputs": [
        {
          "internalType": "uint256",
          "name": "customerID",
          "type": "uint256"
        },
        {
          "internalType": "uint256",
          "name": "manufacturerID",
          "type": "uint256"
        },
        {
          "internalType": "uint256",
          "name": "quantity",
          "type": "uint256"
        }
      ],
      "name": "customerPurchase",
      "outputs": [],
      "stateMutability": "payable",
      "type": "function",
      "payable": true
    },
    {
      "inputs": [
        {
          "internalType": "uint256",
          "name": "manufacturerID",
          "type": "uint256"
        }
      ],
      "name": "manufacturerSupplyCars",
      "outputs": [],
      "stateMutability": "nonpayable",
      "type": "function"
    },
    {
      "inputs": [
        {
          "internalType": "int256",
          "name": "partType",
          "type": "int256"
        },
        {
          "internalType": "uint256",
          "name": "quantityAvailable",
          "type": "uint256"
        },
        {
          "internalType": "address payable",
          "name": "addr",
          "type": "address"
        },
        {
          "internalType": "uint256",
          "name": "auctionBidders",
          "type": "uint256"
        }
      ],
      "name": "addSupplier",
      "outputs": [
        {
          "internalType": "uint256",
          "name": "tag",
          "type": "uint256"
        }
      ],
      "stateMutability": "nonpayable",
      "type": "function"
    },
    {
      "inputs": [
        {
          "internalType": "address payable",
          "name": "addr",
          "type": "address"
        },
        {
          "internalType": "uint256",
          "name": "auctionBidders",
          "type": "uint256"
        }
      ],
      "name": "addManufacturer",
      "outputs": [
        {
          "internalType": "uint256",
          "name": "tag",
          "type": "uint256"
        }
      ],
      "stateMutability": "nonpayable",
      "type": "function"
    },
    {
      "inputs": [
        {
          "internalType": "address payable",
          "name": "addr",
          "type": "address"
        }
      ],
      "name": "addCustomer",
      "outputs": [
        {
          "internalType": "uint256",
          "name": "tag",
          "type": "uint256"
        }
      ],
      "stateMutability": "nonpayable",
      "type": "function"
    },
    {
      "inputs": [
        {
          "internalType": "uint256",
          "name": "customerID",
          "type": "uint256"
        },
        {
          "internalType": "uint256",
          "name": "car_tag",
          "type": "uint256"
        }
      ],
      "name": "verifyproduct",
      "outputs": [
        {
          "internalType": "uint256",
          "name": "carID",
          "type": "uint256"
        },
        {
          "internalType": "uint256",
          "name": "manfID",
          "type": "uint256"
        },
        {
          "internalType": "uint256",
          "name": "sellerIDA",
          "type": "uint256"
        },
        {
          "internalType": "uint256",
          "name": "sellerIDB",
          "type": "uint256"
        }
      ],
      "stateMutability": "view",
      "type": "function",
      "constant": true
    },
    {
      "inputs": [
        {
          "internalType": "uint256",
          "name": "manfID",
          "type": "uint256"
        }
      ],
      "name": "get_cars_price_quantity",
      "outputs": [
        {
          "internalType": "uint256",
          "name": "price",
          "type": "uint256"
        },
        {
          "internalType": "uint256",
          "name": "quantity",
          "type": "uint256"
        }
      ],
      "stateMutability": "view",
      "type": "function",
      "constant": true
    },
    {
      "inputs": [
        {
          "internalType": "uint256",
          "name": "manfID",
          "type": "uint256"
        }
      ],
      "name": "get_manufacturer_data",
      "outputs": [
        {
          "internalType": "uint256",
          "name": "tag",
          "type": "uint256"
        },
        {
          "internalType": "uint256",
          "name": "quantA",
          "type": "uint256"
        },
        {
          "internalType": "uint256",
          "name": "quantB",
          "type": "uint256"
        },
        {
          "internalType": "uint256",
          "name": "cars",
          "type": "uint256"
        }
      ],
      "stateMutability": "view",
      "type": "function",
      "constant": true
    },
    {
      "inputs": [
        {
          "internalType": "uint256",
          "name": "customerID",
          "type": "uint256"
        }
      ],
      "name": "get_car_data",
      "outputs": [
        {
          "internalType": "uint256[10]",
          "name": "cars",
          "type": "uint256[10]"
        }
      ],
      "stateMutability": "view",
      "type": "function",
      "constant": true
    }
  ],
  "bytecode": "0x608060405234801561001057600080fd5b50336000806101000a81548173ffffffffffffffffffffffffffffffffffffffff021916908373ffffffffffffffffffffffffffffffffffffffff1602179055506000600281905550600060018190555060006003819055506159ed80620000796000396000f3fe6080604052600436106101815760003560e01c8063b1877fb9116100d1578063dd2d2a121161008a578063edcac78b11610064578063edcac78b14610613578063f1e4e1bd1461063e578063f895c5201461067b578063fee666ad146106bb57610181565b8063dd2d2a121461056e578063e2416a2c146105ab578063eb16d0e4146105e857610181565b8063b1877fb914610431578063c04052171461046f578063c0abda2a1461049a578063c2ff9e44146104d8578063cea2312114610501578063d6470b491461054557610181565b80638da5cb5b1161013e578063a436792b11610118578063a436792b1461033a578063aa8613c414610377578063ac4ca43c146103b4578063ad973d74146103f457610181565b80638da5cb5b1461028c57806390175af1146102b75780639a7a9b13146102fd57610181565b80630cf3750d146101865780631788b2d9146101af57806317c9dea6146101ec57806318c15d42146102295780634cc9aff81461024557806362949a5d14610270575b600080fd5b34801561019257600080fd5b506101ad60048036038101906101a89190614690565b6106d7565b005b3480156101bb57600080fd5b506101d660048036038101906101d191906146d0565b610785565b6040516101e39190614752565b60405180910390f35b3480156101f857600080fd5b50610213600480360381019061020e919061476d565b610eaf565b60405161022091906147a9565b60405180910390f35b610243600480360381019061023e91906147fa565b611038565b005b34801561025157600080fd5b5061025a611411565b60405161026791906147a9565b60405180910390f35b61028a60048036038101906102859190614875565b611417565b005b34801561029857600080fd5b506102a161175c565b6040516102ae9190614909565b60405180910390f35b3480156102c357600080fd5b506102de60048036038101906102d9919061476d565b611780565b6040516102f49a999897969594939291906149bc565b60405180910390f35b34801561030957600080fd5b50610324600480360381019061031f9190614aba565b611801565b60405161033191906147a9565b60405180910390f35b34801561034657600080fd5b50610361600480360381019061035c9190614b21565b61195a565b60405161036e91906147a9565b60405180910390f35b34801561038357600080fd5b5061039e6004803603810190610399919061476d565b611ad7565b6040516103ab91906147a9565b60405180910390f35b3480156103c057600080fd5b506103db60048036038101906103d6919061476d565b611c44565b6040516103eb9493929190614b61565b60405180910390f35b34801561040057600080fd5b5061041b60048036038101906104169190614ba6565b611d72565b60405161042891906147a9565b60405180910390f35b34801561043d57600080fd5b506104586004803603810190610453919061476d565b611e2c565b604051610466929190614bd3565b60405180910390f35b34801561047b57600080fd5b50610484611eab565b60405161049191906147a9565b60405180910390f35b3480156104a657600080fd5b506104c160048036038101906104bc919061476d565b611eb1565b6040516104cf929190614bfc565b60405180910390f35b3480156104e457600080fd5b506104ff60048036038101906104fa919061476d565b611ef5565b005b34801561050d57600080fd5b506105286004803603810190610523919061476d565b612ba4565b60405161053c989796959493929190614c34565b60405180910390f35b34801561055157600080fd5b5061056c60048036038101906105679190614690565b612c19565b005b34801561057a57600080fd5b5061059560048036038101906105909190614690565b612d32565b6040516105a291906147a9565b60405180910390f35b3480156105b757600080fd5b506105d260048036038101906105cd919061476d565b612d4c565b6040516105df91906147a9565b60405180910390f35b3480156105f457600080fd5b506105fd614016565b60405161060a91906147a9565b60405180910390f35b34801561061f57600080fd5b5061062861401c565b60405161063591906147a9565b60405180910390f35b34801561064a57600080fd5b506106656004803603810190610660919061476d565b614022565b6040516106729190614d5d565b60405180910390f35b34801561068757600080fd5b506106a2600480360381019061069d9190614690565b6140d1565b6040516106b29493929190614b61565b60405180910390f35b6106d560048036038101906106d09190614da5565b614259565b005b3373ffffffffffffffffffffffffffffffffffffffff166005600084815260200190815260200160002060030160019054906101000a900473ffffffffffffffffffffffffffffffffffffffff1673ffffffffffffffffffffffffffffffffffffffff161461074557600080fd5b81600154101561075457600080fd5b8060056000848152602001908152602001600020600201600082825461077a9190614e14565b925050819055505050565b60006002548511156107cc576040517f08c379a00000000000000000000000000000000000000000000000000000000081526004016107c390614ea5565b60405180910390fd5b600160038111156107e0576107df614924565b5b6005600086815260200190815260200160002060030160009054906101000a900460ff16600381111561081657610815614924565b5b1461082057600080fd5b60005b600860006005600088815260200190815260200160002060030160019054906101000a900473ffffffffffffffffffffffffffffffffffffffff1673ffffffffffffffffffffffffffffffffffffffff1673ffffffffffffffffffffffffffffffffffffffff16815260200190815260200160002080549050811015610ea15785600860006005600089815260200190815260200160002060030160019054906101000a900473ffffffffffffffffffffffffffffffffffffffff1673ffffffffffffffffffffffffffffffffffffffff1673ffffffffffffffffffffffffffffffffffffffff168152602001908152602001600020828154811061092b5761092a614ec5565b5b90600052602060002090600a02016006015403610e8e57600860006005600088815260200190815260200160002060030160019054906101000a900473ffffffffffffffffffffffffffffffffffffffff1673ffffffffffffffffffffffffffffffffffffffff1673ffffffffffffffffffffffffffffffffffffffff16815260200190815260200160002081815481106109c9576109c8614ec5565b5b90600052602060002090600a020160030154846040516020016109ec9190614f15565b6040516020818303038152906040528051906020012014610a42576040517f08c379a0000000000000000000000000000000000000000000000000000000008152600401610a3990614fa2565b60405180910390fd5b600860006005600088815260200190815260200160002060030160019054906101000a900473ffffffffffffffffffffffffffffffffffffffff1673ffffffffffffffffffffffffffffffffffffffff1673ffffffffffffffffffffffffffffffffffffffff1681526020019081526020016000208181548110610ac957610ac8614ec5565b5b90600052602060002090600a02016004015483604051602001610aec9190614f15565b6040516020818303038152906040528051906020012014610b42576040517f08c379a0000000000000000000000000000000000000000000000000000000008152600401610b3990615034565b60405180910390fd5b60008385610b509190615054565b9050600860006005600089815260200190815260200160002060030160019054906101000a900473ffffffffffffffffffffffffffffffffffffffff1673ffffffffffffffffffffffffffffffffffffffff1673ffffffffffffffffffffffffffffffffffffffff1681526020019081526020016000208281548110610bd957610bd8614ec5565b5b90600052602060002090600a020160080154811115610c2d576040517f08c379a0000000000000000000000000000000000000000000000000000000008152600401610c2490615120565b60405180910390fd5b600160086000600560008a815260200190815260200160002060030160019054906101000a900473ffffffffffffffffffffffffffffffffffffffff1673ffffffffffffffffffffffffffffffffffffffff1673ffffffffffffffffffffffffffffffffffffffff1681526020019081526020016000208381548110610cb657610cb5614ec5565b5b90600052602060002090600a020160090160006101000a81548160ff0219169083151502179055508460086000600560008a815260200190815260200160002060030160019054906101000a900473ffffffffffffffffffffffffffffffffffffffff1673ffffffffffffffffffffffffffffffffffffffff1673ffffffffffffffffffffffffffffffffffffffff1681526020019081526020016000208381548110610d6657610d65614ec5565b5b90600052602060002090600a0201600001819055508360086000600560008a815260200190815260200160002060030160019054906101000a900473ffffffffffffffffffffffffffffffffffffffff1673ffffffffffffffffffffffffffffffffffffffff1673ffffffffffffffffffffffffffffffffffffffff1681526020019081526020016000208381548110610e0357610e02614ec5565b5b90600052602060002090600a0201600101819055507fee291b467c1ae7dd29ffc047df3454190c09d3730496830a392209c7bc38f5ca86888787604051610e4d9493929190614b61565b60405180910390a16001600560008881526020019081526020016000206006016000828254610e7c9190614e14565b92505081905550600192505050610ea7565b8080610e9990615140565b915050610823565b50600090505b949350505050565b6000600154821115610ef6576040517f08c379a0000000000000000000000000000000000000000000000000000000008152600401610eed906151d4565b60405180910390fd5b60006003811115610f0a57610f09614924565b5b6005600084815260200190815260200160002060030160009054906101000a900460ff166003811115610f4057610f3f614924565b5b03610f80576040517f08c379a0000000000000000000000000000000000000000000000000000000008152600401610f7790615240565b60405180910390fd5b60006005600084815260200190815260200160002060030160006101000a81548160ff02191690836003811115610fba57610fb9614924565b5b021790555060006005600084815260200190815260200160002060050181905550600060056000848152602001908152602001600020600601819055507f10449cff8425a2b933fdd57a667ad5bdad3da817ddd9179f125f5c7756582e178242604051611028929190614bd3565b60405180910390a1429050919050565b84600254101561107d576040517f08c379a0000000000000000000000000000000000000000000000000000000008152600401611074906152ac565b60405180910390fd5b8360015410156110c2576040517f08c379a00000000000000000000000000000000000000000000000000000000081526004016110b990615318565b60405180910390fd5b600060038111156110d6576110d5614924565b5b6005600086815260200190815260200160002060030160009054906101000a900460ff16600381111561110c5761110b614924565b5b1461114c576040517f08c379a0000000000000000000000000000000000000000000000000000000008152600401611143906153aa565b60405180910390fd5b8484148061115a5750600384145b611199576040517f08c379a000000000000000000000000000000000000000000000000000000000815260040161119090615416565b60405180910390fd5b6111a1614509565b33816040019073ffffffffffffffffffffffffffffffffffffffff16908173ffffffffffffffffffffffffffffffffffffffff16815250503481610100018181525050858160c0018181525050848160e00181815250508381606001818152505082816080018181525050818160a00181815250506000816000018181525050600081602001818152505060008161012001901515908115158152505060006005600087815260200190815260200160002060030160019054906101000a900473ffffffffffffffffffffffffffffffffffffffff169050600860008273ffffffffffffffffffffffffffffffffffffffff1673ffffffffffffffffffffffffffffffffffffffff1681526020019081526020016000208290806001815401808255809150506001900390600052602060002090600a0201600090919091909150600082015181600001556020820151816001015560408201518160020160006101000a81548173ffffffffffffffffffffffffffffffffffffffff021916908373ffffffffffffffffffffffffffffffffffffffff160217905550606082015181600301556080820151816004015560a0820151816005015560c0820151816006015560e0820151816007015561010082015181600801556101208201518160090160006101000a81548160ff021916908315150217905550505060016005600088815260200190815260200160002060050160008282546113c49190614e14565b925050819055507fdbd4ed8ca35fd076d8fdc3ddae80bf4fac4fc55dd918d5868cf2b92f82d2de53868887876040516114009493929190615445565b60405180910390a150505050505050565b60025481565b3373ffffffffffffffffffffffffffffffffffffffff166007600085815260200190815260200160002060010160009054906101000a900473ffffffffffffffffffffffffffffffffffffffff1673ffffffffffffffffffffffffffffffffffffffff1614806114d257503373ffffffffffffffffffffffffffffffffffffffff1660008054906101000a900473ffffffffffffffffffffffffffffffffffffffff1673ffffffffffffffffffffffffffffffffffffffff16145b611511576040517f08c379a0000000000000000000000000000000000000000000000000000000008152600401611508906154d6565b60405180910390fd5b61151961457a565b8281600001818152505033816060019073ffffffffffffffffffffffffffffffffffffffff16908173ffffffffffffffffffffffffffffffffffffffff1681525050818160400181815250508381602001818152505034816080018181525050600060066000858152602001908152602001600020600401549050600083826115a29190615054565b905080836080015110156115eb576040517f08c379a00000000000000000000000000000000000000000000000000000000081526004016115e290615542565b60405180910390fd5b60006006600087815260200190815260200160002060050160019054906101000a900473ffffffffffffffffffffffffffffffffffffffff169050600960008273ffffffffffffffffffffffffffffffffffffffff1673ffffffffffffffffffffffffffffffffffffffff16815260200190815260200160002084908060018154018082558091505060019003906000526020600020906005020160009091909190915060008201518160000155602082015181600101556040820151816002015560608201518160030160006101000a81548173ffffffffffffffffffffffffffffffffffffffff021916908373ffffffffffffffffffffffffffffffffffffffff1602179055506080820151816004015550507ffee408fb277c265efa7c7adea166e7ebe6ce1e4bf153cc84a610be9a46d4ba82878787600660008b81526020019081526020016000206004015460405161174b9493929190614b61565b60405180910390a150505050505050565b60008054906101000a900473ffffffffffffffffffffffffffffffffffffffff1681565b60066020528060005260406000206000915090508060000154908060010154908060020154908060030154908060040154908060050160009054906101000a900460ff16908060050160019054906101000a900473ffffffffffffffffffffffffffffffffffffffff1690806006015490806007015490806008015490508a565b60006001600081548092919061181690615140565b919050555060405180610100016040528060015481526020018681526020018581526020016002600381111561184f5761184e614924565b5b81526020018473ffffffffffffffffffffffffffffffffffffffff16815260200183815260200160008152602001600081525060056000600154815260200190815260200160002060008201518160000155602082015181600101556040820151816002015560608201518160030160006101000a81548160ff021916908360038111156118e0576118df614924565b5b021790555060808201518160030160016101000a81548173ffffffffffffffffffffffffffffffffffffffff021916908373ffffffffffffffffffffffffffffffffffffffff16021790555060a0820151816004015560c0820151816005015560e082015181600601559050506001549050949350505050565b60006002600081548092919061196f90615140565b9190505550604051806101400160405280600254815260200160008152602001600081526020016000815260200160008152602001600260038111156119b8576119b7614924565b5b81526020018473ffffffffffffffffffffffffffffffffffffffff168152602001838152602001600081526020016000815250600660006002548152602001908152602001600020600082015181600001556020820151816001015560408201518160020155606082015181600301556080820151816004015560a08201518160050160006101000a81548160ff02191690836003811115611a5d57611a5c614924565b5b021790555060c08201518160050160016101000a81548173ffffffffffffffffffffffffffffffffffffffff021916908373ffffffffffffffffffffffffffffffffffffffff16021790555060e0820151816006015561010082015181600701556101208201518160080155905050600254905092915050565b6000600154821115611b1e576040517f08c379a0000000000000000000000000000000000000000000000000000000008152600401611b15906151d4565b60405180910390fd5b60006003811115611b3257611b31614924565b5b6005600084815260200190815260200160002060030160009054906101000a900460ff166003811115611b6857611b67614924565b5b14611ba8576040517f08c379a0000000000000000000000000000000000000000000000000000000008152600401611b9f906155ae565b60405180910390fd5b60016005600084815260200190815260200160002060030160006101000a81548160ff02191690836003811115611be257611be1614924565b5b0217905550600060056000848152602001908152602001600020600601819055507f0c368e4cdd0e23707857d20056076efe6f588f9ce71ab6ce676d331fdc035f5b8242604051611c34929190614bd3565b60405180910390a1429050919050565b6000806000806000600660008781526020019081526020016000206040518061014001604052908160008201548152602001600182015481526020016002820154815260200160038201548152602001600482015481526020016005820160009054906101000a900460ff166003811115611cc257611cc1614924565b5b6003811115611cd457611cd3614924565b5b81526020016005820160019054906101000a900473ffffffffffffffffffffffffffffffffffffffff1673ffffffffffffffffffffffffffffffffffffffff1673ffffffffffffffffffffffffffffffffffffffff1681526020016006820154815260200160078201548152602001600882015481525050905080600001518160200151826040015183606001519450945094509450509193509193565b600060036000815480929190611d8790615140565b9190505550604051806040016040528060035481526020018373ffffffffffffffffffffffffffffffffffffffff168152506007600060035481526020019081526020016000206000820151816000015560208201518160010160006101000a81548173ffffffffffffffffffffffffffffffffffffffff021916908373ffffffffffffffffffffffffffffffffffffffff1602179055509050506003549050919050565b600080826002541015611e74576040517f08c379a0000000000000000000000000000000000000000000000000000000008152600401611e6b9061561a565b60405180910390fd5b6006600084815260200190815260200160002060040154600660008581526020019081526020016000206003015491509150915091565b60045481565b60076020528060005260406000206000915090508060000154908060010160009054906101000a900473ffffffffffffffffffffffffffffffffffffffff16905082565b806002541015611f0457600080fd5b6006600082815260200190815260200160002060050160019054906101000a900473ffffffffffffffffffffffffffffffffffffffff1673ffffffffffffffffffffffffffffffffffffffff163373ffffffffffffffffffffffffffffffffffffffff161480611fbf575060008054906101000a900473ffffffffffffffffffffffffffffffffffffffff1673ffffffffffffffffffffffffffffffffffffffff163373ffffffffffffffffffffffffffffffffffffffff16145b611fc857600080fd5b60005b600960006006600085815260200190815260200160002060050160019054906101000a900473ffffffffffffffffffffffffffffffffffffffff1673ffffffffffffffffffffffffffffffffffffffff1673ffffffffffffffffffffffffffffffffffffffff16815260200190815260200160002080549050811015612a34576006600083815260200190815260200160002060030154600960006006600086815260200190815260200160002060050160019054906101000a900473ffffffffffffffffffffffffffffffffffffffff1673ffffffffffffffffffffffffffffffffffffffff1673ffffffffffffffffffffffffffffffffffffffff16815260200190815260200160002082815481106120e9576120e8614ec5565b5b906000526020600020906005020160020154116129e65760006006600084815260200190815260200160002060040154600960006006600087815260200190815260200160002060050160019054906101000a900473ffffffffffffffffffffffffffffffffffffffff1673ffffffffffffffffffffffffffffffffffffffff1673ffffffffffffffffffffffffffffffffffffffff16815260200190815260200160002083815481106121a05761219f614ec5565b5b9060005260206000209060050201600201546121bc9190615054565b9050600081600960006006600088815260200190815260200160002060050160019054906101000a900473ffffffffffffffffffffffffffffffffffffffff1673ffffffffffffffffffffffffffffffffffffffff1673ffffffffffffffffffffffffffffffffffffffff168152602001908152602001600020848154811061224857612247614ec5565b5b906000526020600020906005020160040154612264919061563a565b9050600960006006600087815260200190815260200160002060050160019054906101000a900473ffffffffffffffffffffffffffffffffffffffff1673ffffffffffffffffffffffffffffffffffffffff1673ffffffffffffffffffffffffffffffffffffffff16815260200190815260200160002083815481106122ed576122ec614ec5565b5b906000526020600020906005020160020154600660008681526020019081526020016000206003016000828254612324919061563a565b925050819055506000600960006006600088815260200190815260200160002060050160019054906101000a900473ffffffffffffffffffffffffffffffffffffffff1673ffffffffffffffffffffffffffffffffffffffff1673ffffffffffffffffffffffffffffffffffffffff16815260200190815260200160002084815481106123b4576123b3614ec5565b5b906000526020600020906005020160020154905060006006600087815260200190815260200160002060050160019054906101000a900473ffffffffffffffffffffffffffffffffffffffff16905061240b6145bf565b6000805b848110156127535760006001600a60008773ffffffffffffffffffffffffffffffffffffffff1673ffffffffffffffffffffffffffffffffffffffff16815260200190815260200160002080549050612468919061563a565b90506124726145e2565b600a60008773ffffffffffffffffffffffffffffffffffffffff1673ffffffffffffffffffffffffffffffffffffffff16815260200190815260200160002082815481106124c3576124c2614ec5565b5b9060005260206000209060040201600001548160000181815250508a816020018181525050600a60008773ffffffffffffffffffffffffffffffffffffffff1673ffffffffffffffffffffffffffffffffffffffff168152602001908152602001600020828154811061253957612538614ec5565b5b906000526020600020906004020160020154816040018181525050600a60008773ffffffffffffffffffffffffffffffffffffffff1673ffffffffffffffffffffffffffffffffffffffff16815260200190815260200160002082815481106125a5576125a4614ec5565b5b906000526020600020906004020160030154816060018181525050600b6000600960008973ffffffffffffffffffffffffffffffffffffffff1673ffffffffffffffffffffffffffffffffffffffff168152602001908152602001600020848154811061261557612614614ec5565b5b9060005260206000209060050201600101548152602001908152602001600020819080600181540180825580915050600190039060005260206000209060040201600090919091909150600082015181600001556020820151816001015560408201518160020155606082015181600301555050600a60008773ffffffffffffffffffffffffffffffffffffffff1673ffffffffffffffffffffffffffffffffffffffff1681526020019081526020016000208054806126d8576126d761566e565b5b600190038181906000526020600020906004020160008082016000905560018201600090556002820160009055600382016000905550509055806000015185858061272290615140565b96506064811061273557612734614ec5565b5b6020020181815250505050808061274b90615140565b91505061240f565b50612794600660008a815260200190815260200160002060050160019054906101000a900473ffffffffffffffffffffffffffffffffffffffff1687614259565b61286c6007600060096000600660008e815260200190815260200160002060050160019054906101000a900473ffffffffffffffffffffffffffffffffffffffff1673ffffffffffffffffffffffffffffffffffffffff1673ffffffffffffffffffffffffffffffffffffffff1681526020019081526020016000208a8154811061282257612821614ec5565b5b906000526020600020906005020160010154815260200190815260200160002060010160009054906101000a900473ffffffffffffffffffffffffffffffffffffffff1686614259565b7f1aff87a36f8ab51e6d00c79e403e67535da25af06a6dc7b9cac3fc96a25cbfb38860096000600660008d815260200190815260200160002060050160019054906101000a900473ffffffffffffffffffffffffffffffffffffffff1673ffffffffffffffffffffffffffffffffffffffff1673ffffffffffffffffffffffffffffffffffffffff168152602001908152602001600020898154811061291557612914614ec5565b5b90600052602060002090600502016001015460096000600660008e815260200190815260200160002060050160019054906101000a900473ffffffffffffffffffffffffffffffffffffffff1673ffffffffffffffffffffffffffffffffffffffff1673ffffffffffffffffffffffffffffffffffffffff1681526020019081526020016000208a815481106129ae576129ad614ec5565b5b90600052602060002090600502016002015489866040516129d3959493929190615721565b60405180910390a1505050505050612a21565b6040517f08c379a0000000000000000000000000000000000000000000000000000000008152600401612a18906157c1565b60405180910390fd5b8080612a2c90615140565b915050611fcb565b505b6000600960006006600085815260200190815260200160002060050160019054906101000a900473ffffffffffffffffffffffffffffffffffffffff1673ffffffffffffffffffffffffffffffffffffffff1673ffffffffffffffffffffffffffffffffffffffff168152602001908152602001600020805490501115612ba157600960006006600084815260200190815260200160002060050160019054906101000a900473ffffffffffffffffffffffffffffffffffffffff1673ffffffffffffffffffffffffffffffffffffffff1673ffffffffffffffffffffffffffffffffffffffff168152602001908152602001600020805480612b3c57612b3b61566e565b5b6001900381819060005260206000209060050201600080820160009055600182016000905560028201600090556003820160006101000a81549073ffffffffffffffffffffffffffffffffffffffff0219169055600482016000905550509055612a36565b50565b60056020528060005260406000206000915090508060000154908060010154908060020154908060030160009054906101000a900460ff16908060030160019054906101000a900473ffffffffffffffffffffffffffffffffffffffff16908060040154908060050154908060060154905088565b6006600083815260200190815260200160002060050160019054906101000a900473ffffffffffffffffffffffffffffffffffffffff1673ffffffffffffffffffffffffffffffffffffffff163373ffffffffffffffffffffffffffffffffffffffff161480612cd4575060008054906101000a900473ffffffffffffffffffffffffffffffffffffffff1673ffffffffffffffffffffffffffffffffffffffff163373ffffffffffffffffffffffffffffffffffffffff16145b612d13576040517f08c379a0000000000000000000000000000000000000000000000000000000008152600401612d0a9061582d565b60405180910390fd5b8060066000848152602001908152602001600020600401819055505050565b600081831015612d425782612d44565b815b905092915050565b6000600154821115612d93576040517f08c379a0000000000000000000000000000000000000000000000000000000008152600401612d8a90615318565b60405180910390fd5b60016003811115612da757612da6614924565b5b6005600084815260200190815260200160002060030160009054906101000a900460ff166003811115612ddd57612ddc614924565b5b14612e1d576040517f08c379a0000000000000000000000000000000000000000000000000000000008152600401612e1490615899565b60405180910390fd5b60036005600084815260200190815260200160002060030160006101000a81548160ff02191690836003811115612e5757612e56614924565b5b021790555060005b600860006005600086815260200190815260200160002060030160019054906101000a900473ffffffffffffffffffffffffffffffffffffffff1673ffffffffffffffffffffffffffffffffffffffff1673ffffffffffffffffffffffffffffffffffffffff168152602001908152602001600020805490508110156135145760005b8181101561350057600860006005600087815260200190815260200160002060030160019054906101000a900473ffffffffffffffffffffffffffffffffffffffff1673ffffffffffffffffffffffffffffffffffffffff1673ffffffffffffffffffffffffffffffffffffffff1681526020019081526020016000208181548110612f7157612f70614ec5565b5b90600052602060002090600a020160000154600860006005600088815260200190815260200160002060030160019054906101000a900473ffffffffffffffffffffffffffffffffffffffff1673ffffffffffffffffffffffffffffffffffffffff1673ffffffffffffffffffffffffffffffffffffffff168152602001908152602001600020838154811061300a57613009614ec5565b5b90600052602060002090600a02016000015410156134ed576000600860006005600088815260200190815260200160002060030160019054906101000a900473ffffffffffffffffffffffffffffffffffffffff1673ffffffffffffffffffffffffffffffffffffffff1673ffffffffffffffffffffffffffffffffffffffff16815260200190815260200160002083815481106130ab576130aa614ec5565b5b90600052602060002090600a02016040518061014001604052908160008201548152602001600182015481526020016002820160009054906101000a900473ffffffffffffffffffffffffffffffffffffffff1673ffffffffffffffffffffffffffffffffffffffff1673ffffffffffffffffffffffffffffffffffffffff1681526020016003820154815260200160048201548152602001600582015481526020016006820154815260200160078201548152602001600882015481526020016009820160009054906101000a900460ff1615151515815250509050600860006005600088815260200190815260200160002060030160019054906101000a900473ffffffffffffffffffffffffffffffffffffffff1673ffffffffffffffffffffffffffffffffffffffff1673ffffffffffffffffffffffffffffffffffffffff168152602001908152602001600020828154811061320f5761320e614ec5565b5b90600052602060002090600a0201600860006005600089815260200190815260200160002060030160019054906101000a900473ffffffffffffffffffffffffffffffffffffffff1673ffffffffffffffffffffffffffffffffffffffff1673ffffffffffffffffffffffffffffffffffffffff16815260200190815260200160002084815481106132a4576132a3614ec5565b5b90600052602060002090600a020160008201548160000155600182015481600101556002820160009054906101000a900473ffffffffffffffffffffffffffffffffffffffff168160020160006101000a81548173ffffffffffffffffffffffffffffffffffffffff021916908373ffffffffffffffffffffffffffffffffffffffff1602179055506003820154816003015560048201548160040155600582015481600501556006820154816006015560078201548160070155600882015481600801556009820160009054906101000a900460ff168160090160006101000a81548160ff02191690831515021790555090505080600860006005600089815260200190815260200160002060030160019054906101000a900473ffffffffffffffffffffffffffffffffffffffff1673ffffffffffffffffffffffffffffffffffffffff1673ffffffffffffffffffffffffffffffffffffffff168152602001908152602001600020838154811061342157613420614ec5565b5b90600052602060002090600a0201600082015181600001556020820151816001015560408201518160020160006101000a81548173ffffffffffffffffffffffffffffffffffffffff021916908373ffffffffffffffffffffffffffffffffffffffff160217905550606082015181600301556080820151816004015560a0820151816005015560c0820151816006015560e0820151816007015561010082015181600801556101208201518160090160006101000a81548160ff021916908315150217905550905050505b80806134f890615140565b915050612ee2565b50808061350c90615140565b915050612e5f565b5061351d6145bf565b6135256145bf565b61352d6145bf565b60005b600860006005600089815260200190815260200160002060030160019054906101000a900473ffffffffffffffffffffffffffffffffffffffff1673ffffffffffffffffffffffffffffffffffffffff1673ffffffffffffffffffffffffffffffffffffffff168152602001908152602001600020805490508110156138c357600060086000600560008a815260200190815260200160002060030160019054906101000a900473ffffffffffffffffffffffffffffffffffffffff1673ffffffffffffffffffffffffffffffffffffffff1673ffffffffffffffffffffffffffffffffffffffff168152602001908152602001600020828154811061363957613638614ec5565b5b90600052602060002090600a02016040518061014001604052908160008201548152602001600182015481526020016002820160009054906101000a900473ffffffffffffffffffffffffffffffffffffffff1673ffffffffffffffffffffffffffffffffffffffff1673ffffffffffffffffffffffffffffffffffffffff1681526020016003820154815260200160048201548152602001600582015481526020016006820154815260200160078201548152602001600882015481526020016009820160009054906101000a900460ff16151515158152505090506000151581610120015115150361372d57506138b0565b806101000151838260c001516064811061374a57613749614ec5565b5b6020020181815250506000613779600560008a8152602001908152602001600020600201548360a00151612d32565b9050613789818360200151612d32565b90508160000151868360c00151606481106137a7576137a6614ec5565b5b60200201818152505080858360c00151606481106137c8576137c7614ec5565b5b60200201818152505080600560008a815260200190815260200160002060020160008282546137f7919061563a565b925050819055508060086000600560008c815260200190815260200160002060030160019054906101000a900473ffffffffffffffffffffffffffffffffffffffff1673ffffffffffffffffffffffffffffffffffffffff1673ffffffffffffffffffffffffffffffffffffffff168152602001908152602001600020848154811061388657613885614ec5565b5b90600052602060002090600a020160010160008282546138a6919061563a565b9250508190555050505b80806138bb90615140565b915050613530565b5060005b600860006005600089815260200190815260200160002060030160019054906101000a900473ffffffffffffffffffffffffffffffffffffffff1673ffffffffffffffffffffffffffffffffffffffff1673ffffffffffffffffffffffffffffffffffffffff16815260200190815260200160002080549050811015613c0e57600060086000600560008a815260200190815260200160002060030160019054906101000a900473ffffffffffffffffffffffffffffffffffffffff1673ffffffffffffffffffffffffffffffffffffffff1673ffffffffffffffffffffffffffffffffffffffff16815260200190815260200160002082815481106139d0576139cf614ec5565b5b90600052602060002090600a02016040518061014001604052908160008201548152602001600182015481526020016002820160009054906101000a900473ffffffffffffffffffffffffffffffffffffffff1673ffffffffffffffffffffffffffffffffffffffff1673ffffffffffffffffffffffffffffffffffffffff1681526020016003820154815260200160048201548152602001600582015481526020016006820154815260200160078201548152602001600882015481526020016009820160009054906101000a900460ff161515151581525050905060001515816101200151151503613ac45750613bfb565b6000613aea600560008a8152602001908152602001600020600201548360200151612d32565b905080858360c0015160648110613b0457613b03614ec5565b5b60200201818151613b159190614e14565b9150818152505080600560008a81526020019081526020016000206002016000828254613b42919061563a565b925050819055508060086000600560008c815260200190815260200160002060030160019054906101000a900473ffffffffffffffffffffffffffffffffffffffff1673ffffffffffffffffffffffffffffffffffffffff1673ffffffffffffffffffffffffffffffffffffffff1681526020019081526020016000208481548110613bd157613bd0614ec5565b5b90600052602060002090600a02016001016000828254613bf1919061563a565b9250508190555050505b8080613c0690615140565b9150506138c7565b506000600190505b6002548111613e6a576000838260648110613c3457613c33614ec5565b5b60200201511115613e57577f389cc4d2b135e7b676a809ad7bacdde1b644b0bbe73afdd545a176ea73b955178682858460648110613c7557613c74614ec5565b5b6020020151878560648110613c8d57613c8c614ec5565b5b6020020151604051613ca29493929190614b61565b60405180910390a1613d456006600083815260200190815260200160002060050160019054906101000a900473ffffffffffffffffffffffffffffffffffffffff16848360648110613cf757613cf6614ec5565b5b6020020151868460648110613d0f57613d0e614ec5565b5b6020020151613d1e9190615054565b848460648110613d3157613d30614ec5565b5b6020020151613d40919061563a565b614259565b613dbe6005600088815260200190815260200160002060030160019054906101000a900473ffffffffffffffffffffffffffffffffffffffff16848360648110613d9257613d91614ec5565b5b6020020151868460648110613daa57613da9614ec5565b5b6020020151613db99190615054565b614259565b6001600560008881526020019081526020016000206001015403613e0757613e0281848360648110613df357613df2614ec5565b5b602002015160008960006142d1565b613e56565b6002600560008881526020019081526020016000206001015403613e5057613e4b816000858460648110613e3e57613e3d614ec5565b5b602002015160008a6142d1565b613e55565b600080fd5b5b5b8080613e6290615140565b915050613c16565b505b6000600860006005600089815260200190815260200160002060030160019054906101000a900473ffffffffffffffffffffffffffffffffffffffff1673ffffffffffffffffffffffffffffffffffffffff1673ffffffffffffffffffffffffffffffffffffffff16815260200190815260200160002080549050111561400b57600860006005600088815260200190815260200160002060030160019054906101000a900473ffffffffffffffffffffffffffffffffffffffff1673ffffffffffffffffffffffffffffffffffffffff1673ffffffffffffffffffffffffffffffffffffffff168152602001908152602001600020805480613f7257613f7161566e565b5b60019003818190600052602060002090600a020160008082016000905560018201600090556002820160006101000a81549073ffffffffffffffffffffffffffffffffffffffff02191690556003820160009055600482016000905560058201600090556006820160009055600782016000905560088201600090556009820160006101000a81549060ff021916905550509055613e6c565b429350505050919050565b60035481565b60015481565b61402a61460a565b61403261460a565b6000805b600b6000868152602001908152602001600020805490508110156140c657600b6000868152602001908152602001600020818154811061407957614078614ec5565b5b90600052602060002090600402016000015483838061409790615140565b9450600a81106140aa576140a9614ec5565b5b60200201818152505080806140be90615140565b915050614036565b508192505050919050565b60008060008060005b600b6000888152602001908152602001600020805490508110156141fc5785600b6000898152602001908152602001600020828154811061411e5761411d614ec5565b5b906000526020600020906004020160000154036141e95785600b6000898152602001908152602001600020828154811061415b5761415a614ec5565b5b906000526020600020906004020160010154600b60008a8152602001908152602001600020838154811061419257614191614ec5565b5b906000526020600020906004020160020154600b60008b815260200190815260200160002084815481106141c9576141c8614ec5565b5b906000526020600020906004020160030154945094509450945050614250565b80806141f490615140565b9150506140da565b506001600014614241576040517f08c379a00000000000000000000000000000000000000000000000000000000081526004016142389061592b565b60405180910390fd5b60008060008093509350935093505b92959194509250565b8173ffffffffffffffffffffffffffffffffffffffff166108fc829081150290604051600060405180830381858888f193505050506142cd576040517f08c379a00000000000000000000000000000000000000000000000000000000081526004016142c490615997565b60405180910390fd5b5050565b836006600087815260200190815260200160002060010160008282546142f79190614e14565b92505081905550826006600087815260200190815260200160002060020160008282546143249190614e14565b92505081905550600061436360066000888152602001908152602001600020600101546006600089815260200190815260200160002060020154612d32565b90508060066000888152602001908152602001600020600101600082825461438b919061563a565b92505081905550806006600088815260200190815260200160002060020160008282546143b8919061563a565b92505081905550806006600088815260200190815260200160002060030160008282546143e59190614e14565b925050819055506143f461462d565b6004600081548092919061440790615140565b919050555060045481600001818152505086816020018181525050868160400181815250506003816060018181525050600a6000600660008a815260200190815260200160002060050160019054906101000a900473ffffffffffffffffffffffffffffffffffffffff1673ffffffffffffffffffffffffffffffffffffffff1673ffffffffffffffffffffffffffffffffffffffff16815260200190815260200160002081908060018154018082558091505060019003906000526020600020906004020160009091909190915060008201518160000155602082015181600101556040820151816002015560608201518160030155505050505050505050565b6040518061014001604052806000815260200160008152602001600073ffffffffffffffffffffffffffffffffffffffff1681526020016000801916815260200160008019168152602001600081526020016000815260200160008152602001600081526020016000151581525090565b6040518060a00160405280600081526020016000815260200160008152602001600073ffffffffffffffffffffffffffffffffffffffff168152602001600081525090565b60405180610c800160405280606490602082028036833780820191505090505090565b6040518060800160405280600081526020016000815260200160008152602001600081525090565b604051806101400160405280600a90602082028036833780820191505090505090565b6040518060800160405280600081526020016000815260200160008152602001600081525090565b600080fd5b6000819050919050565b61466d8161465a565b811461467857600080fd5b50565b60008135905061468a81614664565b92915050565b600080604083850312156146a7576146a6614655565b5b60006146b58582860161467b565b92505060206146c68582860161467b565b9150509250929050565b600080600080608085870312156146ea576146e9614655565b5b60006146f88782880161467b565b94505060206147098782880161467b565b935050604061471a8782880161467b565b925050606061472b8782880161467b565b91505092959194509250565b60008115159050919050565b61474c81614737565b82525050565b60006020820190506147676000830184614743565b92915050565b60006020828403121561478357614782614655565b5b60006147918482850161467b565b91505092915050565b6147a38161465a565b82525050565b60006020820190506147be600083018461479a565b92915050565b6000819050919050565b6147d7816147c4565b81146147e257600080fd5b50565b6000813590506147f4816147ce565b92915050565b600080600080600060a0868803121561481657614815614655565b5b60006148248882890161467b565b95505060206148358882890161467b565b9450506040614846888289016147e5565b9350506060614857888289016147e5565b92505060806148688882890161467b565b9150509295509295909350565b60008060006060848603121561488e5761488d614655565b5b600061489c8682870161467b565b93505060206148ad8682870161467b565b92505060406148be8682870161467b565b9150509250925092565b600073ffffffffffffffffffffffffffffffffffffffff82169050919050565b60006148f3826148c8565b9050919050565b614903816148e8565b82525050565b600060208201905061491e60008301846148fa565b92915050565b7f4e487b7100000000000000000000000000000000000000000000000000000000600052602160045260246000fd5b6004811061496457614963614924565b5b50565b600081905061497582614953565b919050565b600061498582614967565b9050919050565b6149958161497a565b82525050565b60006149a6826148c8565b9050919050565b6149b68161499b565b82525050565b6000610140820190506149d2600083018d61479a565b6149df602083018c61479a565b6149ec604083018b61479a565b6149f9606083018a61479a565b614a06608083018961479a565b614a1360a083018861498c565b614a2060c08301876149ad565b614a2d60e083018661479a565b614a3b61010083018561479a565b614a4961012083018461479a565b9b9a5050505050505050505050565b6000819050919050565b614a6b81614a58565b8114614a7657600080fd5b50565b600081359050614a8881614a62565b92915050565b614a97816148e8565b8114614aa257600080fd5b50565b600081359050614ab481614a8e565b92915050565b60008060008060808587031215614ad457614ad3614655565b5b6000614ae287828801614a79565b9450506020614af38782880161467b565b9350506040614b0487828801614aa5565b9250506060614b158782880161467b565b91505092959194509250565b60008060408385031215614b3857614b37614655565b5b6000614b4685828601614aa5565b9250506020614b578582860161467b565b9150509250929050565b6000608082019050614b76600083018761479a565b614b83602083018661479a565b614b90604083018561479a565b614b9d606083018461479a565b95945050505050565b600060208284031215614bbc57614bbb614655565b5b6000614bca84828501614aa5565b91505092915050565b6000604082019050614be8600083018561479a565b614bf5602083018461479a565b9392505050565b6000604082019050614c11600083018561479a565b614c1e60208301846149ad565b9392505050565b614c2e81614a58565b82525050565b600061010082019050614c4a600083018b61479a565b614c57602083018a614c25565b614c64604083018961479a565b614c71606083018861498c565b614c7e60808301876149ad565b614c8b60a083018661479a565b614c9860c083018561479a565b614ca560e083018461479a565b9998505050505050505050565b6000600a9050919050565b600081905092915050565b6000819050919050565b614cdb8161465a565b82525050565b6000614ced8383614cd2565b60208301905092915050565b6000602082019050919050565b614d0f81614cb2565b614d198184614cbd565b9250614d2482614cc8565b8060005b83811015614d55578151614d3c8782614ce1565b9650614d4783614cf9565b925050600181019050614d28565b505050505050565b600061014082019050614d736000830184614d06565b92915050565b614d828161499b565b8114614d8d57600080fd5b50565b600081359050614d9f81614d79565b92915050565b60008060408385031215614dbc57614dbb614655565b5b6000614dca85828601614d90565b9250506020614ddb8582860161467b565b9150509250929050565b7f4e487b7100000000000000000000000000000000000000000000000000000000600052601160045260246000fd5b6000614e1f8261465a565b9150614e2a8361465a565b9250828201905080821115614e4257614e41614de5565b5b92915050565b600082825260208201905092915050565b7f496e76616c6964206d616e756661637475726572000000000000000000000000600082015250565b6000614e8f601483614e48565b9150614e9a82614e59565b602082019050919050565b60006020820190508181036000830152614ebe81614e82565b9050919050565b7f4e487b7100000000000000000000000000000000000000000000000000000000600052603260045260246000fd5b6000819050919050565b614f0f614f0a8261465a565b614ef4565b82525050565b6000614f218284614efe565b60208201915081905092915050565b7f496e636f7272656374207072696365202d2d206b656570696e6720796f75722060008201527f6d6f6e6579000000000000000000000000000000000000000000000000000000602082015250565b6000614f8c602583614e48565b9150614f9782614f30565b604082019050919050565b60006020820190508181036000830152614fbb81614f7f565b9050919050565b7f496e636f7272656374207175616e74697479202d2d206b656570696e6720796f60008201527f7572206d6f6e6579000000000000000000000000000000000000000000000000602082015250565b600061501e602883614e48565b915061502982614fc2565b604082019050919050565b6000602082019050818103600083015261504d81615011565b9050919050565b600061505f8261465a565b915061506a8361465a565b9250817fffffffffffffffffffffffffffffffffffffffffffffffffffffffffffffffff04831182151516156150a3576150a2614de5565b5b828202905092915050565b7f496e73756666696369656e742066756e64732073656e74202d2d206b6565706960008201527f6e6720796f7572206d6f6e657900000000000000000000000000000000000000602082015250565b600061510a602d83614e48565b9150615115826150ae565b604082019050919050565b60006020820190508181036000830152615139816150fd565b9050919050565b600061514b8261465a565b91507fffffffffffffffffffffffffffffffffffffffffffffffffffffffffffffffff820361517d5761517c614de5565b5b600182019050919050565b7f5573657220646f65736e27742065786973740000000000000000000000000000600082015250565b60006151be601283614e48565b91506151c982615188565b602082019050919050565b600060208201905081810360008301526151ed816151b1565b9050919050565b7f41756374696f6e20696e2d70726f677265737320616c72656164790000000000600082015250565b600061522a601b83614e48565b9150615235826151f4565b602082019050919050565b600060208201905081810360008301526152598161521d565b9050919050565b7f4d616e75666163747572657220646f65736e2774206578697374000000000000600082015250565b6000615296601a83614e48565b91506152a182615260565b602082019050919050565b600060208201905081810360008301526152c581615289565b9050919050565b7f537570706c69657220646f65736e277420657869737400000000000000000000600082015250565b6000615302601683614e48565b915061530d826152cc565b602082019050919050565b60006020820190508181036000830152615331816152f5565b9050919050565b7f537570706c6965722069736e27742072756e6e696e6720616e2061756374696f60008201527f6e207269676874206e6f77000000000000000000000000000000000000000000602082015250565b6000615394602b83614e48565b915061539f82615338565b604082019050919050565b600060208201905081810360008301526153c381615387565b9050919050565b7f537570706c69657220646f65736e742073656c6c20796f750000000000000000600082015250565b6000615400601883614e48565b915061540b826153ca565b602082019050919050565b6000602082019050818103600083015261542f816153f3565b9050919050565b61543f816147c4565b82525050565b600060808201905061545a600083018761479a565b615467602083018661479a565b6154746040830185615436565b6154816060830184615436565b95945050505050565b7f4163636573732044656e69656400000000000000000000000000000000000000600082015250565b60006154c0600d83614e48565b91506154cb8261548a565b602082019050919050565b600060208201905081810360008301526154ef816154b3565b9050919050565b7f4d6f6e6579206e6f7420656e6f75676800000000000000000000000000000000600082015250565b600061552c601083614e48565b9150615537826154f6565b602082019050919050565b6000602082019050818103600083015261555b8161551f565b9050919050565b7f41756374696f6e20656e64656420616c72656164790000000000000000000000600082015250565b6000615598601583614e48565b91506155a382615562565b602082019050919050565b600060208201905081810360008301526155c78161558b565b9050919050565b7f4d616e75666163747572657220494420646f65736e6f74206578697374000000600082015250565b6000615604601d83614e48565b915061560f826155ce565b602082019050919050565b60006020820190508181036000830152615633816155f7565b9050919050565b60006156458261465a565b91506156508361465a565b925082820390508181111561566857615667614de5565b5b92915050565b7f4e487b7100000000000000000000000000000000000000000000000000000000600052603160045260246000fd5b600060649050919050565b600081905092915050565b6000819050919050565b6000602082019050919050565b6156d38161569d565b6156dd81846156a8565b92506156e8826156b3565b8060005b838110156157195781516157008782614ce1565b965061570b836156bd565b9250506001810190506156ec565b505050505050565b6000610d0082019050615737600083018861479a565b615744602083018761479a565b615751604083018661479a565b61575e606083018561479a565b61576b60808301846156ca565b9695505050505050565b7f5175616e74697479206e6f7420417661696c61626c6500000000000000000000600082015250565b60006157ab601683614e48565b91506157b682615775565b602082019050919050565b600060208201905081810360008301526157da8161579e565b9050919050565b7f43616e6e6f742062652073657420627920796f75000000000000000000000000600082015250565b6000615817601483614e48565b9150615822826157e1565b602082019050919050565b600060208201905081810360008301526158468161580a565b9050919050565b7f52657665616c207068617365206e6f742072756e6e696e670000000000000000600082015250565b6000615883601883614e48565b915061588e8261584d565b602082019050919050565b600060208201905081810360008301526158b281615876565b9050919050565b7f436172206e6f7420666f756e6420696e2074686579206275796572732070757260008201527f6368617365730000000000000000000000000000000000000000000000000000602082015250565b6000615915602683614e48565b9150615920826158b9565b604082019050919050565b6000602082019050818103600083015261594481615908565b9050919050565b7f5472616e73666572206661696c65642100000000000000000000000000000000600082015250565b6000615981601083614e48565b915061598c8261594b565b602082019050919050565b600060208201905081810360008301526159b081615974565b905091905056fea2646970667358221220839e306a374f3c8347b2002b9a7343cb22e27ef74dc8a588033ada548b9c8eb564736f6c63430008100033",
  "immutableReferences": {},
  "source": "pragma solidity >=0.8.16;\n\nimport {MarketPlace_Bidding} from \"./MarketPlace_Bidding.sol\";\n\ncontract MarketPlace_CustomerInterface is MarketPlace_Bidding {\n    constructor() {\n        owner = payable(msg.sender);\n        num_manufacturer = 0;\n        num_supplier = 0;\n        num_customer = 0;\n    }\n\n    function customerPurchase(\n        uint256 customerID,\n        uint256 manufacturerID,\n        uint256 quantity\n    ) external payable {\n        require(\n            customers[customerID].wallet == msg.sender || owner == msg.sender,\n            \"Access Denied\"\n        );\n        Purchase memory newpurchase;\n        newpurchase.sellerID = manufacturerID;\n        newpurchase.customeraddr = payable(msg.sender);\n        newpurchase.quantity = quantity;\n        newpurchase.buyerID = customerID;\n        newpurchase.money = msg.value;\n        uint256 unit_cost = manufacturers[manufacturerID].carsprice;\n        uint256 total_cost = unit_cost * quantity;\n        require(newpurchase.money >= total_cost, \"Money not enough\");\n        address manf_adrr = manufacturers[manufacturerID].wallet;\n        purchasesTillNow[manf_adrr].push(newpurchase);\n        emit CustomerRequest(\n            customerID,\n            manufacturerID,\n            quantity,\n            manufacturers[manufacturerID].carsprice\n        );\n    }\n\n    function manufacturerSupplyCars(uint256 manufacturerID) public {\n        require(num_manufacturer >= manufacturerID);\n        require(\n            msg.sender == manufacturers[manufacturerID].wallet ||\n                msg.sender == owner\n        );\n        for (\n            uint256 i = 0;\n            i < purchasesTillNow[manufacturers[manufacturerID].wallet].length;\n            i++\n        ) {\n            //Money is already checked, Quantity check is done here\n            if (\n                purchasesTillNow[manufacturers[manufacturerID].wallet][i]\n                    .quantity <= manufacturers[manufacturerID].cars\n            ) {\n                uint256 effective_price = purchasesTillNow[\n                    manufacturers[manufacturerID].wallet\n                ][i].quantity * manufacturers[manufacturerID].carsprice;\n                uint256 refund_amount = purchasesTillNow[\n                    manufacturers[manufacturerID].wallet\n                ][i].money - effective_price;\n\n                manufacturers[manufacturerID].cars -= purchasesTillNow[\n                    manufacturers[manufacturerID].wallet\n                ][i].quantity;\n                uint256 num_of_cars = purchasesTillNow[\n                    manufacturers[manufacturerID].wallet\n                ][i].quantity;\n                address mf_adrr = manufacturers[manufacturerID].wallet;\n                uint256[100] memory carTags;\n                uint256 carTagsIdx = 0;\n                for (uint256 j = 0; j < num_of_cars; j++) {\n                    uint256 idx = productsTillNow[mf_adrr].length - 1;\n                    Car memory newcar;\n                    newcar.tag = productsTillNow[mf_adrr][idx].tag;\n                    newcar.manufacturerID = manufacturerID;\n                    newcar.sellerIDA = productsTillNow[mf_adrr][idx].sellerA;\n                    newcar.sellerIDB = productsTillNow[mf_adrr][idx].sellerB;\n                    carsBought[purchasesTillNow[mf_adrr][idx].buyerID].push(\n                        newcar\n                    );\n                    productsTillNow[mf_adrr].pop();\n                    carTags[carTagsIdx++] = newcar.tag;\n                }\n                transferMoney(\n                    manufacturers[manufacturerID].wallet,\n                    effective_price\n                );\n                transferMoney(\n                    customers[\n                        purchasesTillNow[manufacturers[manufacturerID].wallet][\n                            i\n                        ].buyerID\n                    ].wallet,\n                    refund_amount\n                );\n                // refundMoney(\n                // customers[purchasesTillNow[manufacturers[manufacturerID].wallet][i].buyerID].wallet,\n                // refund_amount);\n                emit AllocateFromManufacturer(\n                    manufacturerID,\n                    purchasesTillNow[manufacturers[manufacturerID].wallet][i]\n                        .buyerID,\n                    purchasesTillNow[manufacturers[manufacturerID].wallet][i]\n                        .quantity,\n                    effective_price,\n                    carTags\n                );\n            } else {\n                //send them back the amount saying quantity not available\n                revert(\"Quantity not Available\"); //gas to caller\n            }\n        }\n        while (\n            purchasesTillNow[manufacturers[manufacturerID].wallet].length > 0\n        ) purchasesTillNow[manufacturers[manufacturerID].wallet].pop();\n    }\n\n    function addSupplier(\n        int256 partType,\n        uint256 quantityAvailable,\n        address payable addr,\n        uint256 auctionBidders\n    ) public returns (uint256 tag) {\n        num_supplier++;\n        suppliers[num_supplier] = Supplier(\n            num_supplier,\n            partType,\n            quantityAvailable,\n            AuctionState.NOT_STARTED,\n            addr,\n            auctionBidders,\n            0,\n            0\n        );\n        return num_supplier;\n    }\n\n    function addManufacturer(address payable addr, uint256 auctionBidders)\n        public\n        returns (uint256 tag)\n    {\n        num_manufacturer++;\n        manufacturers[num_manufacturer] = Manufacturer(\n            num_manufacturer,\n            0,\n            0,\n            0,\n            0,\n            AuctionState.NOT_STARTED,\n            addr,\n            auctionBidders,\n            0,\n            0\n        );\n        return num_manufacturer;\n    }\n\n    function addCustomer(address payable addr) public returns (uint256 tag) {\n        num_customer++;\n        customers[num_customer] = Customer(num_customer, addr);\n        return num_customer;\n    }\n\n    function verifyproduct(uint256 customerID, uint256 car_tag)\n        public\n        view\n        returns (\n            uint256 carID,\n            uint256 manfID,\n            uint256 sellerIDA,\n            uint256 sellerIDB\n        )\n    {\n        for (uint256 i = 0; i < carsBought[customerID].length; i++) {\n            if (carsBought[customerID][i].tag == car_tag)\n                return (\n                    car_tag,\n                    carsBought[customerID][i].manufacturerID,\n                    carsBought[customerID][i].sellerIDA,\n                    carsBought[customerID][i].sellerIDB\n                );\n        }\n        require(0 == 1, \"Car not found in they buyers purchases\");\n        return (0, 0, 0, 0);\n    }\n\n    function get_cars_price_quantity(uint256 manfID)\n        public\n        view\n        returns (uint256 price, uint256 quantity)\n    {\n        require(num_manufacturer >= manfID, \"Manufacturer ID doesnot exist\");\n        return (manufacturers[manfID].carsprice, manufacturers[manfID].cars);\n    }\n\n    function get_manufacturer_data(uint256 manfID)\n        public\n        view\n        returns (\n            uint256 tag,\n            uint256 quantA,\n            uint256 quantB,\n            uint256 cars\n        )\n    {\n        Manufacturer memory t = manufacturers[manfID];\n        return (t._tag, t.quantityA, t.quantityB, t.cars);\n    }\n\n    function get_car_data(uint256 customerID)\n        public\n        view\n        returns (uint256[10] memory cars)\n    {\n        uint256[10] memory data;\n        uint256 idx = 0;\n        for (uint256 i = 0; i < carsBought[customerID].length; i++) {\n            data[idx++] = carsBought[customerID][i].tag;\n        }\n        return data;\n    }\n}\n",
  "sourcePath": "/home/kjain1810/Desktop/padhai/sem7/dtb/Supply-Chain-Smartcontract/contracts/MarketPlace_CustomerInterface.sol",
  "compiler": {
    "name": "solc",
    "version": "0.8.16+commit.07a7930e.Emscripten.clang"
  },
  "schemaVersion": "3.4.9",
  "updatedAt": "2022-08-31T17:01:13.479Z",
  "networkType": "ethereum",
  "devdoc": {
    "kind": "dev",
    "methods": {},
    "version": 1
  },
  "userdoc": {
    "kind": "user",
    "methods": {},
    "version": 1
  }
}