{
  "contractName": "Marketplace",
  "abi": [
    {
      "inputs": [],
      "stateMutability": "nonpayable",
      "type": "constructor"
    },
    {
      "anonymous": false,
      "inputs": [
        {
          "indexed": false,
          "internalType": "uint256",
          "name": "manufacturerID",
          "type": "uint256"
        },
        {
          "indexed": false,
          "internalType": "uint256",
          "name": "customerID",
          "type": "uint256"
        },
        {
          "indexed": false,
          "internalType": "uint256",
          "name": "quantity",
          "type": "uint256"
        },
        {
          "indexed": false,
          "internalType": "uint256",
          "name": "price",
          "type": "uint256"
        },
        {
          "indexed": false,
          "internalType": "uint256[100]",
          "name": "carTag",
          "type": "uint256[100]"
        }
      ],
      "name": "AllocateFromManufacturer",
      "type": "event"
    },
    {
      "anonymous": false,
      "inputs": [
        {
          "indexed": false,
          "internalType": "uint256",
          "name": "supplierID",
          "type": "uint256"
        },
        {
          "indexed": false,
          "internalType": "uint256",
          "name": "manufacturerID",
          "type": "uint256"
        },
        {
          "indexed": false,
          "internalType": "uint256",
          "name": "quantity",
          "type": "uint256"
        },
        {
          "indexed": false,
          "internalType": "uint256",
          "name": "price",
          "type": "uint256"
        }
      ],
      "name": "AllocateFromSupplier",
      "type": "event"
    },
    {
      "anonymous": false,
      "inputs": [
        {
          "indexed": false,
          "internalType": "uint256",
          "name": "manufacturerID",
          "type": "uint256"
        },
        {
          "indexed": false,
          "internalType": "uint256",
          "name": "customerID",
          "type": "uint256"
        },
        {
          "indexed": false,
          "internalType": "bytes32",
          "name": "blindBid",
          "type": "bytes32"
        }
      ],
      "name": "CustomerBid",
      "type": "event"
    },
    {
      "anonymous": false,
      "inputs": [
        {
          "indexed": false,
          "internalType": "uint256",
          "name": "CustomerID",
          "type": "uint256"
        },
        {
          "indexed": false,
          "internalType": "uint256",
          "name": "ManufacturerID",
          "type": "uint256"
        },
        {
          "indexed": false,
          "internalType": "uint256",
          "name": "Quantity",
          "type": "uint256"
        },
        {
          "indexed": false,
          "internalType": "uint256",
          "name": "Price",
          "type": "uint256"
        }
      ],
      "name": "CustomerRequest",
      "type": "event"
    },
    {
      "anonymous": false,
      "inputs": [
        {
          "indexed": false,
          "internalType": "uint256",
          "name": "manufacturerID",
          "type": "uint256"
        },
        {
          "indexed": false,
          "internalType": "uint256",
          "name": "customerID",
          "type": "uint256"
        },
        {
          "indexed": false,
          "internalType": "uint256",
          "name": "price",
          "type": "uint256"
        },
        {
          "indexed": false,
          "internalType": "uint256",
          "name": "quantity",
          "type": "uint256"
        }
      ],
      "name": "CustomerReveal",
      "type": "event"
    },
    {
      "anonymous": false,
      "inputs": [
        {
          "indexed": false,
          "internalType": "uint256",
          "name": "manufacturerID",
          "type": "uint256"
        },
        {
          "indexed": false,
          "internalType": "uint256",
          "name": "endTime",
          "type": "uint256"
        }
      ],
      "name": "EndManufacturerAuction",
      "type": "event"
    },
    {
      "anonymous": false,
      "inputs": [
        {
          "indexed": false,
          "internalType": "uint256",
          "name": "supplierID",
          "type": "uint256"
        },
        {
          "indexed": false,
          "internalType": "uint256",
          "name": "endTime",
          "type": "uint256"
        }
      ],
      "name": "EndSupplierAuction",
      "type": "event"
    },
    {
      "anonymous": false,
      "inputs": [
        {
          "indexed": false,
          "internalType": "uint256",
          "name": "supplierID",
          "type": "uint256"
        },
        {
          "indexed": false,
          "internalType": "uint256",
          "name": "manufacturerID",
          "type": "uint256"
        },
        {
          "indexed": false,
          "internalType": "bytes32",
          "name": "blindBidPrice",
          "type": "bytes32"
        },
        {
          "indexed": false,
          "internalType": "bytes32",
          "name": "blindBidQuantity",
          "type": "bytes32"
        },
        {
          "indexed": false,
          "internalType": "bytes32",
          "name": "blindKey",
          "type": "bytes32"
        }
      ],
      "name": "ManufacturerBids",
      "type": "event"
    },
    {
      "anonymous": false,
      "inputs": [
        {
          "indexed": false,
          "internalType": "uint256",
          "name": "supplierID",
          "type": "uint256"
        },
        {
          "indexed": false,
          "internalType": "uint256",
          "name": "manufacturerID",
          "type": "uint256"
        },
        {
          "indexed": false,
          "internalType": "uint256",
          "name": "price",
          "type": "uint256"
        },
        {
          "indexed": false,
          "internalType": "uint256",
          "name": "quantity",
          "type": "uint256"
        },
        {
          "indexed": false,
          "internalType": "uint256",
          "name": "key",
          "type": "uint256"
        }
      ],
      "name": "ManufacturerReveal",
      "type": "event"
    },
    {
      "anonymous": false,
      "inputs": [
        {
          "indexed": false,
          "internalType": "uint256",
          "name": "manufacturerID",
          "type": "uint256"
        },
        {
          "indexed": false,
          "internalType": "uint256",
          "name": "startTime",
          "type": "uint256"
        }
      ],
      "name": "StartManufacturerAuction",
      "type": "event"
    },
    {
      "anonymous": false,
      "inputs": [
        {
          "indexed": false,
          "internalType": "uint256",
          "name": "supplierID",
          "type": "uint256"
        },
        {
          "indexed": false,
          "internalType": "uint256",
          "name": "startTime",
          "type": "uint256"
        }
      ],
      "name": "StartSupplierAuction",
      "type": "event"
    },
    {
      "inputs": [
        {
          "internalType": "uint256",
          "name": "",
          "type": "uint256"
        }
      ],
      "name": "customers",
      "outputs": [
        {
          "internalType": "uint256",
          "name": "_tag",
          "type": "uint256"
        },
        {
          "internalType": "address",
          "name": "wallet",
          "type": "address"
        }
      ],
      "stateMutability": "view",
      "type": "function",
      "constant": true
    },
    {
      "inputs": [
        {
          "internalType": "uint256",
          "name": "",
          "type": "uint256"
        }
      ],
      "name": "manufacturers",
      "outputs": [
        {
          "internalType": "uint256",
          "name": "_tag",
          "type": "uint256"
        },
        {
          "internalType": "uint256",
          "name": "quantityA",
          "type": "uint256"
        },
        {
          "internalType": "uint256",
          "name": "quantityB",
          "type": "uint256"
        },
        {
          "internalType": "uint256",
          "name": "cars",
          "type": "uint256"
        },
        {
          "internalType": "uint256",
          "name": "carsprice",
          "type": "uint256"
        },
        {
          "internalType": "enum Marketplace.AuctionState",
          "name": "currentState",
          "type": "uint8"
        },
        {
          "internalType": "address",
          "name": "wallet",
          "type": "address"
        },
        {
          "internalType": "uint256",
          "name": "maxBidders",
          "type": "uint256"
        },
        {
          "internalType": "uint256",
          "name": "QA_sellerID",
          "type": "uint256"
        },
        {
          "internalType": "uint256",
          "name": "QB_sellerID",
          "type": "uint256"
        }
      ],
      "stateMutability": "view",
      "type": "function",
      "constant": true
    },
    {
      "inputs": [],
      "name": "num_customer",
      "outputs": [
        {
          "internalType": "uint256",
          "name": "",
          "type": "uint256"
        }
      ],
      "stateMutability": "view",
      "type": "function",
      "constant": true
    },
    {
      "inputs": [],
      "name": "num_manufacturer",
      "outputs": [
        {
          "internalType": "uint256",
          "name": "",
          "type": "uint256"
        }
      ],
      "stateMutability": "view",
      "type": "function",
      "constant": true
    },
    {
      "inputs": [],
      "name": "num_products",
      "outputs": [
        {
          "internalType": "uint256",
          "name": "",
          "type": "uint256"
        }
      ],
      "stateMutability": "view",
      "type": "function",
      "constant": true
    },
    {
      "inputs": [],
      "name": "num_supplier",
      "outputs": [
        {
          "internalType": "uint256",
          "name": "",
          "type": "uint256"
        }
      ],
      "stateMutability": "view",
      "type": "function",
      "constant": true
    },
    {
      "inputs": [],
      "name": "owner",
      "outputs": [
        {
          "internalType": "address payable",
          "name": "",
          "type": "address"
        }
      ],
      "stateMutability": "view",
      "type": "function",
      "constant": true
    },
    {
      "inputs": [
        {
          "internalType": "uint256",
          "name": "",
          "type": "uint256"
        }
      ],
      "name": "suppliers",
      "outputs": [
        {
          "internalType": "uint256",
          "name": "tag",
          "type": "uint256"
        },
        {
          "internalType": "int256",
          "name": "partType",
          "type": "int256"
        },
        {
          "internalType": "uint256",
          "name": "quantityAvailable",
          "type": "uint256"
        },
        {
          "internalType": "enum Marketplace.AuctionState",
          "name": "currentState",
          "type": "uint8"
        },
        {
          "internalType": "address",
          "name": "wallet",
          "type": "address"
        },
        {
          "internalType": "uint256",
          "name": "maxBidders",
          "type": "uint256"
        },
        {
          "internalType": "uint256",
          "name": "bidsPlaced",
          "type": "uint256"
        },
        {
          "internalType": "uint256",
          "name": "bidsRevealed",
          "type": "uint256"
        }
      ],
      "stateMutability": "view",
      "type": "function",
      "constant": true
    },
    {
      "inputs": [
        {
          "internalType": "uint256",
          "name": "a",
          "type": "uint256"
        },
        {
          "internalType": "uint256",
          "name": "b",
          "type": "uint256"
        }
      ],
      "name": "minimum",
      "outputs": [
        {
          "internalType": "uint256",
          "name": "",
          "type": "uint256"
        }
      ],
      "stateMutability": "pure",
      "type": "function",
      "constant": true
    },
    {
      "inputs": [
        {
          "internalType": "uint256",
          "name": "tag",
          "type": "uint256"
        }
      ],
      "name": "supplierStartAuction",
      "outputs": [
        {
          "internalType": "uint256",
          "name": "",
          "type": "uint256"
        }
      ],
      "stateMutability": "nonpayable",
      "type": "function"
    },
    {
      "inputs": [
        {
          "internalType": "uint256",
          "name": "tag",
          "type": "uint256"
        }
      ],
      "name": "supplierEndAuction",
      "outputs": [
        {
          "internalType": "uint256",
          "name": "",
          "type": "uint256"
        }
      ],
      "stateMutability": "nonpayable",
      "type": "function"
    },
    {
      "inputs": [
        {
          "internalType": "address",
          "name": "senderaddr",
          "type": "address"
        },
        {
          "internalType": "uint256",
          "name": "effectivePrice",
          "type": "uint256"
        }
      ],
      "name": "transferMoney",
      "outputs": [],
      "stateMutability": "payable",
      "type": "function",
      "payable": true
    },
    {
      "inputs": [
        {
          "internalType": "uint256",
          "name": "tag",
          "type": "uint256"
        }
      ],
      "name": "supplierEndReveal",
      "outputs": [
        {
          "internalType": "uint256",
          "name": "",
          "type": "uint256"
        }
      ],
      "stateMutability": "nonpayable",
      "type": "function"
    },
    {
      "inputs": [
        {
          "internalType": "uint256",
          "name": "manufacturerID",
          "type": "uint256"
        },
        {
          "internalType": "uint256",
          "name": "supplierID",
          "type": "uint256"
        },
        {
          "internalType": "bytes32",
          "name": "blindPrice",
          "type": "bytes32"
        },
        {
          "internalType": "bytes32",
          "name": "blindQuantity",
          "type": "bytes32"
        },
        {
          "internalType": "bytes32",
          "name": "blindKey",
          "type": "bytes32"
        },
        {
          "internalType": "uint256",
          "name": "limit",
          "type": "uint256"
        }
      ],
      "name": "manufacturerPlacesBid",
      "outputs": [],
      "stateMutability": "payable",
      "type": "function",
      "payable": true
    },
    {
      "inputs": [
        {
          "internalType": "uint256",
          "name": "customerID",
          "type": "uint256"
        },
        {
          "internalType": "uint256",
          "name": "manufacturerID",
          "type": "uint256"
        },
        {
          "internalType": "uint256",
          "name": "quantity",
          "type": "uint256"
        }
      ],
      "name": "customerPurchase",
      "outputs": [],
      "stateMutability": "payable",
      "type": "function",
      "payable": true
    },
    {
      "inputs": [
        {
          "internalType": "uint256",
          "name": "manufacturerID",
          "type": "uint256"
        },
        {
          "internalType": "uint256",
          "name": "supplierID",
          "type": "uint256"
        },
        {
          "internalType": "uint256",
          "name": "price",
          "type": "uint256"
        },
        {
          "internalType": "uint256",
          "name": "quantity",
          "type": "uint256"
        },
        {
          "internalType": "uint256",
          "name": "key",
          "type": "uint256"
        }
      ],
      "name": "manufactuerRevealBid",
      "outputs": [
        {
          "internalType": "bool",
          "name": "",
          "type": "bool"
        }
      ],
      "stateMutability": "nonpayable",
      "type": "function"
    },
    {
      "inputs": [
        {
          "internalType": "uint256",
          "name": "manufacturerID",
          "type": "uint256"
        }
      ],
      "name": "manufacturerSupplyCars",
      "outputs": [],
      "stateMutability": "nonpayable",
      "type": "function"
    },
    {
      "inputs": [
        {
          "internalType": "int256",
          "name": "partType",
          "type": "int256"
        },
        {
          "internalType": "uint256",
          "name": "quantityAvailable",
          "type": "uint256"
        },
        {
          "internalType": "address payable",
          "name": "addr",
          "type": "address"
        },
        {
          "internalType": "uint256",
          "name": "auctionBidders",
          "type": "uint256"
        }
      ],
      "name": "addSupplier",
      "outputs": [],
      "stateMutability": "nonpayable",
      "type": "function"
    },
    {
      "inputs": [
        {
          "internalType": "address payable",
          "name": "addr",
          "type": "address"
        },
        {
          "internalType": "uint256",
          "name": "auctionBidders",
          "type": "uint256"
        }
      ],
      "name": "addManufacturer",
      "outputs": [],
      "stateMutability": "nonpayable",
      "type": "function"
    },
    {
      "inputs": [
        {
          "internalType": "address payable",
          "name": "addr",
          "type": "address"
        }
      ],
      "name": "addCustomer",
      "outputs": [],
      "stateMutability": "nonpayable",
      "type": "function"
    },
    {
      "inputs": [
        {
          "internalType": "uint256",
          "name": "suppliedID",
          "type": "uint256"
        },
        {
          "internalType": "uint256",
          "name": "quantityToAdd",
          "type": "uint256"
        }
      ],
      "name": "supplierAddQuantity",
      "outputs": [],
      "stateMutability": "nonpayable",
      "type": "function"
    },
    {
      "inputs": [
        {
          "internalType": "uint256",
          "name": "manufacturerID",
          "type": "uint256"
        },
        {
          "internalType": "uint256",
          "name": "price",
          "type": "uint256"
        }
      ],
      "name": "set_cars_price",
      "outputs": [],
      "stateMutability": "nonpayable",
      "type": "function"
    },
    {
      "inputs": [
        {
          "internalType": "uint256",
          "name": "customerID",
          "type": "uint256"
        },
        {
          "internalType": "uint256",
          "name": "car_tag",
          "type": "uint256"
        }
      ],
      "name": "verifyproduct",
      "outputs": [
        {
          "internalType": "uint256",
          "name": "carID",
          "type": "uint256"
        },
        {
          "internalType": "uint256",
          "name": "manfID",
          "type": "uint256"
        },
        {
          "internalType": "uint256",
          "name": "sellerIDA",
          "type": "uint256"
        },
        {
          "internalType": "uint256",
          "name": "sellerIDB",
          "type": "uint256"
        }
      ],
      "stateMutability": "view",
      "type": "function",
      "constant": true
    },
    {
      "inputs": [
        {
          "internalType": "uint256",
          "name": "manfID",
          "type": "uint256"
        }
      ],
      "name": "get_cars_price_quantity",
      "outputs": [
        {
          "internalType": "uint256",
          "name": "price",
          "type": "uint256"
        },
        {
          "internalType": "uint256",
          "name": "quantity",
          "type": "uint256"
        }
      ],
      "stateMutability": "view",
      "type": "function",
      "constant": true
    },
    {
      "inputs": [
        {
          "internalType": "uint256",
          "name": "manfID",
          "type": "uint256"
        }
      ],
      "name": "get_manufacturer_data",
      "outputs": [
        {
          "internalType": "uint256",
          "name": "tag",
          "type": "uint256"
        },
        {
          "internalType": "uint256",
          "name": "quantA",
          "type": "uint256"
        },
        {
          "internalType": "uint256",
          "name": "quantB",
          "type": "uint256"
        },
        {
          "internalType": "uint256",
          "name": "cars",
          "type": "uint256"
        }
      ],
      "stateMutability": "view",
      "type": "function",
      "constant": true
    },
    {
      "inputs": [
        {
          "internalType": "uint256",
          "name": "customerID",
          "type": "uint256"
        }
      ],
      "name": "get_car_data",
      "outputs": [
        {
          "internalType": "uint256[10]",
          "name": "cars",
          "type": "uint256[10]"
        }
      ],
      "stateMutability": "view",
      "type": "function",
      "constant": true
    },
    {
      "inputs": [],
      "name": "getsuppliers",
      "outputs": [
        {
          "internalType": "uint256",
          "name": "",
          "type": "uint256"
        }
      ],
      "stateMutability": "view",
      "type": "function",
      "constant": true
    },
    {
      "inputs": [],
      "name": "getmanufacturers",
      "outputs": [
        {
          "internalType": "uint256",
          "name": "",
          "type": "uint256"
        }
      ],
      "stateMutability": "view",
      "type": "function",
      "constant": true
    },
    {
      "inputs": [
        {
          "internalType": "uint256",
          "name": "supplierID",
          "type": "uint256"
        }
      ],
      "name": "getstatus",
      "outputs": [
        {
          "internalType": "enum Marketplace.AuctionState",
          "name": "",
          "type": "uint8"
        }
      ],
      "stateMutability": "view",
      "type": "function",
      "constant": true
    },
    {
      "inputs": [
        {
          "internalType": "uint256",
          "name": "supID",
          "type": "uint256"
        }
      ],
      "name": "getbidcount",
      "outputs": [
        {
          "internalType": "uint256",
          "name": "len",
          "type": "uint256"
        }
      ],
      "stateMutability": "view",
      "type": "function",
      "constant": true
    },
    {
      "inputs": [
        {
          "internalType": "uint256",
          "name": "manfID",
          "type": "uint256"
        },
        {
          "internalType": "uint256",
          "name": "quant",
          "type": "uint256"
        }
      ],
      "name": "set_cars",
      "outputs": [],
      "stateMutability": "nonpayable",
      "type": "function"
    }
  ],
  "bytecode": "0x608060405234801561001057600080fd5b5033600a60006101000a81548173ffffffffffffffffffffffffffffffffffffffff021916908373ffffffffffffffffffffffffffffffffffffffff1602179055506000600181905550600080819055506000600281905550615ea080620000796000396000f3fe6080604052600436106101d85760003560e01c8063ad973d7411610102578063dd2d2a1211610095578063f1e4e1bd11610064578063f1e4e1bd14610715578063f895c52014610752578063fad23bdc14610792578063fee666ad146107cf576101d8565b8063dd2d2a1214610645578063e2416a2c14610682578063eb16d0e4146106bf578063edcac78b146106ea576101d8565b8063c2ff9e44116100d1578063c2ff9e4414610586578063c5828c7d146105af578063cea23121146105d8578063d6470b491461061c576101d8565b8063ad973d74146104b6578063b1877fb9146104df578063c04052171461051d578063c0abda2a14610548576101d8565b80638da5cb5b1161017a578063a436792b11610149578063a436792b146103f4578063a83a6c441461041d578063aa8613c414610439578063ac4ca43c14610476576101d8565b80638da5cb5b1461031d57806390175af1146103485780639a7a9b131461038e5780639adc51f9146103b7576101d8565b80634075ccea116101b65780634075ccea146102805780634cc9aff8146102ab5780635ad27277146102d657806362949a5d14610301576101d8565b80630cf3750d146101dd5780630dc98f501461020657806317c9dea614610243575b600080fd5b3480156101e957600080fd5b5061020460048036038101906101ff9190614a0f565b6107eb565b005b34801561021257600080fd5b5061022d60048036038101906102289190614a4f565b610899565b60405161023a9190614ae5565b60405180910390f35b34801561024f57600080fd5b5061026a60048036038101906102659190614b00565b611107565b6040516102779190614b3c565b60405180910390f35b34801561028c57600080fd5b5061029561128f565b6040516102a29190614b3c565b60405180910390f35b3480156102b757600080fd5b506102c0611298565b6040516102cd9190614b3c565b60405180910390f35b3480156102e257600080fd5b506102eb61129e565b6040516102f89190614b3c565b60405180910390f35b61031b60048036038101906103169190614b57565b6112a8565b005b34801561032957600080fd5b506103326115ef565b60405161033f9190614beb565b60405180910390f35b34801561035457600080fd5b5061036f600480360381019061036a9190614b00565b611615565b6040516103859a99989796959493929190614c9e565b60405180910390f35b34801561039a57600080fd5b506103b560048036038101906103b09190614d9c565b611696565b005b3480156103c357600080fd5b506103de60048036038101906103d99190614b00565b6117e4565b6040516103eb9190614b3c565b60405180910390f35b34801561040057600080fd5b5061041b60048036038101906104169190614e03565b611866565b005b61043760048036038101906104329190614e79565b6119da565b005b34801561044557600080fd5b50610460600480360381019061045b9190614b00565b611dcc565b60405161046d9190614b3c565b60405180910390f35b34801561048257600080fd5b5061049d60048036038101906104989190614b00565b611f38565b6040516104ad9493929190614f06565b60405180910390f35b3480156104c257600080fd5b506104dd60048036038101906104d89190614f4b565b612066565b005b3480156104eb57600080fd5b5061050660048036038101906105019190614b00565b612117565b604051610514929190614f78565b60405180910390f35b34801561052957600080fd5b50610532612196565b60405161053f9190614b3c565b60405180910390f35b34801561055457600080fd5b5061056f600480360381019061056a9190614b00565b61219c565b60405161057d929190614fa1565b60405180910390f35b34801561059257600080fd5b506105ad60048036038101906105a89190614b00565b6121e0565b005b3480156105bb57600080fd5b506105d660048036038101906105d19190614a0f565b612e91565b005b3480156105e457600080fd5b506105ff60048036038101906105fa9190614b00565b612eb0565b604051610613989796959493929190614fd9565b60405180910390f35b34801561062857600080fd5b50610643600480360381019061063e9190614a0f565b612f25565b005b34801561065157600080fd5b5061066c60048036038101906106679190614a0f565b613040565b6040516106799190614b3c565b60405180910390f35b34801561068e57600080fd5b506106a960048036038101906106a49190614b00565b61305a565b6040516106b69190614b3c565b60405180910390f35b3480156106cb57600080fd5b506106d461435e565b6040516106e19190614b3c565b60405180910390f35b3480156106f657600080fd5b506106ff614364565b60405161070c9190614b3c565b60405180910390f35b34801561072157600080fd5b5061073c60048036038101906107379190614b00565b61436a565b6040516107499190615102565b60405180910390f35b34801561075e57600080fd5b5061077960048036038101906107749190614a0f565b614419565b6040516107899493929190614f06565b60405180910390f35b34801561079e57600080fd5b506107b960048036038101906107b49190614b00565b6145a1565b6040516107c6919061511e565b60405180910390f35b6107e960048036038101906107e49190615165565b6145ce565b005b3373ffffffffffffffffffffffffffffffffffffffff166004600084815260200190815260200160002060030160019054906101000a900473ffffffffffffffffffffffffffffffffffffffff1673ffffffffffffffffffffffffffffffffffffffff161461085957600080fd5b81600054101561086857600080fd5b8060046000848152602001908152602001600020600201600082825461088e91906151d4565b925050819055505050565b60006001548611156108e0576040517f08c379a00000000000000000000000000000000000000000000000000000000081526004016108d790615265565b60405180910390fd5b600160038111156108f4576108f3614c06565b5b6004600087815260200190815260200160002060030160009054906101000a900460ff16600381111561092a57610929614c06565b5b1461093457600080fd5b60005b600760006004600089815260200190815260200160002060030160019054906101000a900473ffffffffffffffffffffffffffffffffffffffff1673ffffffffffffffffffffffffffffffffffffffff1673ffffffffffffffffffffffffffffffffffffffff168152602001908152602001600020805490508110156110f8578660076000600460008a815260200190815260200160002060030160019054906101000a900473ffffffffffffffffffffffffffffffffffffffff1673ffffffffffffffffffffffffffffffffffffffff1673ffffffffffffffffffffffffffffffffffffffff1681526020019081526020016000208281548110610a3f57610a3e615285565b5b90600052602060002090600b020160070154036110e557600760006004600089815260200190815260200160002060030160019054906101000a900473ffffffffffffffffffffffffffffffffffffffff1673ffffffffffffffffffffffffffffffffffffffff1673ffffffffffffffffffffffffffffffffffffffff1681526020019081526020016000208181548110610add57610adc615285565b5b90600052602060002090600b02016005015483604051602001610b0091906152d5565b6040516020818303038152906040528051906020012014610b56576040517f08c379a0000000000000000000000000000000000000000000000000000000008152600401610b4d90615362565b60405180910390fd5b600760006004600089815260200190815260200160002060030160019054906101000a900473ffffffffffffffffffffffffffffffffffffffff1673ffffffffffffffffffffffffffffffffffffffff1673ffffffffffffffffffffffffffffffffffffffff1681526020019081526020016000208181548110610bdd57610bdc615285565b5b90600052602060002090600b0201600301548386610bfb91906151d4565b604051602001610c0b91906152d5565b6040516020818303038152906040528051906020012014610c61576040517f08c379a0000000000000000000000000000000000000000000000000000000008152600401610c58906153f4565b60405180910390fd5b600760006004600089815260200190815260200160002060030160019054906101000a900473ffffffffffffffffffffffffffffffffffffffff1673ffffffffffffffffffffffffffffffffffffffff1673ffffffffffffffffffffffffffffffffffffffff1681526020019081526020016000208181548110610ce857610ce7615285565b5b90600052602060002090600b0201600401548385610d0691906151d4565b604051602001610d1691906152d5565b6040516020818303038152906040528051906020012014610d6c576040517f08c379a0000000000000000000000000000000000000000000000000000000008152600401610d6390615486565b60405180910390fd5b60008486610d7a91906154a6565b905060076000600460008a815260200190815260200160002060030160019054906101000a900473ffffffffffffffffffffffffffffffffffffffff1673ffffffffffffffffffffffffffffffffffffffff1673ffffffffffffffffffffffffffffffffffffffff1681526020019081526020016000208281548110610e0357610e02615285565b5b90600052602060002090600b0201600901548110610e56576040517f08c379a0000000000000000000000000000000000000000000000000000000008152600401610e4d90615572565b60405180910390fd5b600160076000600460008b815260200190815260200160002060030160019054906101000a900473ffffffffffffffffffffffffffffffffffffffff1673ffffffffffffffffffffffffffffffffffffffff1673ffffffffffffffffffffffffffffffffffffffff1681526020019081526020016000208381548110610edf57610ede615285565b5b90600052602060002090600b0201600a0160006101000a81548160ff0219169083151502179055508560076000600460008b815260200190815260200160002060030160019054906101000a900473ffffffffffffffffffffffffffffffffffffffff1673ffffffffffffffffffffffffffffffffffffffff1673ffffffffffffffffffffffffffffffffffffffff1681526020019081526020016000208381548110610f8f57610f8e615285565b5b90600052602060002090600b0201600001819055508460076000600460008b815260200190815260200160002060030160019054906101000a900473ffffffffffffffffffffffffffffffffffffffff1673ffffffffffffffffffffffffffffffffffffffff1673ffffffffffffffffffffffffffffffffffffffff168152602001908152602001600020838154811061102c5761102b615285565b5b90600052602060002090600b0201600101819055507f1e03b01ba1997c24040f0a2e5145f9dc2be2d1821b811bd7def13c7f41cda8748789888888604051611078959493929190615592565b60405180910390a160016004600089815260200190815260200160002060060160008282546110a791906151d4565b9250508190555060046000888152602001908152602001600020600401546004600089815260200190815260200160002050506001925050506110fe565b80806110f0906155e5565b915050610937565b50600090505b95945050505050565b6000805482111561114d576040517f08c379a000000000000000000000000000000000000000000000000000000000815260040161114490615679565b60405180910390fd5b6000600381111561116157611160614c06565b5b6004600084815260200190815260200160002060030160009054906101000a900460ff16600381111561119757611196614c06565b5b036111d7576040517f08c379a00000000000000000000000000000000000000000000000000000000081526004016111ce906156e5565b60405180910390fd5b60006004600084815260200190815260200160002060030160006101000a81548160ff0219169083600381111561121157611210614c06565b5b021790555060006004600084815260200190815260200160002060050181905550600060046000848152602001908152602001600020600601819055507f10449cff8425a2b933fdd57a667ad5bdad3da817ddd9179f125f5c7756582e17824260405161127f929190614f78565b60405180910390a1429050919050565b60008054905090565b60015481565b6000600154905090565b3373ffffffffffffffffffffffffffffffffffffffff166006600085815260200190815260200160002060010160009054906101000a900473ffffffffffffffffffffffffffffffffffffffff1673ffffffffffffffffffffffffffffffffffffffff16148061136557503373ffffffffffffffffffffffffffffffffffffffff16600a60009054906101000a900473ffffffffffffffffffffffffffffffffffffffff1673ffffffffffffffffffffffffffffffffffffffff16145b6113a4576040517f08c379a000000000000000000000000000000000000000000000000000000000815260040161139b90615751565b60405180910390fd5b6113ac61487e565b8281600001818152505033816060019073ffffffffffffffffffffffffffffffffffffffff16908173ffffffffffffffffffffffffffffffffffffffff16815250508181604001818152505083816020018181525050348160800181815250506000600560008581526020019081526020016000206004015490506000838261143591906154a6565b9050808360800151101561147e576040517f08c379a0000000000000000000000000000000000000000000000000000000008152600401611475906157bd565b60405180910390fd5b60006005600087815260200190815260200160002060050160019054906101000a900473ffffffffffffffffffffffffffffffffffffffff169050600860008273ffffffffffffffffffffffffffffffffffffffff1673ffffffffffffffffffffffffffffffffffffffff16815260200190815260200160002084908060018154018082558091505060019003906000526020600020906005020160009091909190915060008201518160000155602082015181600101556040820151816002015560608201518160030160006101000a81548173ffffffffffffffffffffffffffffffffffffffff021916908373ffffffffffffffffffffffffffffffffffffffff1602179055506080820151816004015550507ffee408fb277c265efa7c7adea166e7ebe6ce1e4bf153cc84a610be9a46d4ba82878787600560008b8152602001908152602001600020600401546040516115de9493929190614f06565b60405180910390a150505050505050565b600a60009054906101000a900473ffffffffffffffffffffffffffffffffffffffff1681565b60056020528060005260406000206000915090508060000154908060010154908060020154908060030154908060040154908060050160009054906101000a900460ff16908060050160019054906101000a900473ffffffffffffffffffffffffffffffffffffffff1690806006015490806007015490806008015490508a565b6000808154809291906116a8906155e5565b91905055506040518061010001604052806000548152602001858152602001848152602001600260038111156116e1576116e0614c06565b5b81526020018373ffffffffffffffffffffffffffffffffffffffff168152602001828152602001600081526020016000815250600460008054815260200190815260200160002060008201518160000155602082015181600101556040820151816002015560608201518160030160006101000a81548160ff0219169083600381111561177157611770614c06565b5b021790555060808201518160030160016101000a81548173ffffffffffffffffffffffffffffffffffffffff021916908373ffffffffffffffffffffffffffffffffffffffff16021790555060a0820151816004015560c0820151816005015560e0820151816006015590505050505050565b6000600760006004600085815260200190815260200160002060030160019054906101000a900473ffffffffffffffffffffffffffffffffffffffff1673ffffffffffffffffffffffffffffffffffffffff1673ffffffffffffffffffffffffffffffffffffffff168152602001908152602001600020805490509050919050565b60016000815480929190611879906155e5565b9190505550604051806101400160405280600154815260200160008152602001600081526020016000815260200160008152602001600260038111156118c2576118c1614c06565b5b81526020018373ffffffffffffffffffffffffffffffffffffffff168152602001828152602001600081526020016000815250600560006001548152602001908152602001600020600082015181600001556020820151816001015560408201518160020155606082015181600301556080820151816004015560a08201518160050160006101000a81548160ff0219169083600381111561196757611966614c06565b5b021790555060c08201518160050160016101000a81548173ffffffffffffffffffffffffffffffffffffffff021916908373ffffffffffffffffffffffffffffffffffffffff16021790555060e08201518160060155610100820151816007015561012082015181600801559050505050565b856001541015611a1f576040517f08c379a0000000000000000000000000000000000000000000000000000000008152600401611a1690615829565b60405180910390fd5b846000541015611a64576040517f08c379a0000000000000000000000000000000000000000000000000000000008152600401611a5b90615895565b60405180910390fd5b60006003811115611a7857611a77614c06565b5b6004600087815260200190815260200160002060030160009054906101000a900460ff166003811115611aae57611aad614c06565b5b14611aee576040517f08c379a0000000000000000000000000000000000000000000000000000000008152600401611ae590615927565b60405180910390fd5b85851480611afc5750600385145b611b3b576040517f08c379a0000000000000000000000000000000000000000000000000000000008152600401611b3290615993565b60405180910390fd5b611b436148c3565b33816040019073ffffffffffffffffffffffffffffffffffffffff16908173ffffffffffffffffffffffffffffffffffffffff16815250503481610120018181525050868160e001818152505085816101000181815250508481606001818152505083816080018181525050828160a0018181525050818160c00181815250506000816000018181525050600081602001818152505060008161014001901515908115158152505060006004600088815260200190815260200160002060030160019054906101000a900473ffffffffffffffffffffffffffffffffffffffff169050600760008273ffffffffffffffffffffffffffffffffffffffff1673ffffffffffffffffffffffffffffffffffffffff1681526020019081526020016000208290806001815401808255809150506001900390600052602060002090600b0201600090919091909150600082015181600001556020820151816001015560408201518160020160006101000a81548173ffffffffffffffffffffffffffffffffffffffff021916908373ffffffffffffffffffffffffffffffffffffffff160217905550606082015181600301556080820151816004015560a0820151816005015560c0820151816006015560e082015181600701556101008201518160080155610120820151816009015561014082015181600a0160006101000a81548160ff02191690831515021790555050506001600460008981526020019081526020016000206005016000828254611d7c91906151d4565b925050819055507f8a06846852690683a485d2a83db8d92c70d8aaaf4693c2c3b223705fb4c916278789888888604051611dba9594939291906159c2565b60405180910390a15050505050505050565b60008054821115611e12576040517f08c379a0000000000000000000000000000000000000000000000000000000008152600401611e0990615679565b60405180910390fd5b60006003811115611e2657611e25614c06565b5b6004600084815260200190815260200160002060030160009054906101000a900460ff166003811115611e5c57611e5b614c06565b5b14611e9c576040517f08c379a0000000000000000000000000000000000000000000000000000000008152600401611e9390615a61565b60405180910390fd5b60016004600084815260200190815260200160002060030160006101000a81548160ff02191690836003811115611ed657611ed5614c06565b5b0217905550600060046000848152602001908152602001600020600601819055507f0c368e4cdd0e23707857d20056076efe6f588f9ce71ab6ce676d331fdc035f5b8242604051611f28929190614f78565b60405180910390a1429050919050565b6000806000806000600560008781526020019081526020016000206040518061014001604052908160008201548152602001600182015481526020016002820154815260200160038201548152602001600482015481526020016005820160009054906101000a900460ff166003811115611fb657611fb5614c06565b5b6003811115611fc857611fc7614c06565b5b81526020016005820160019054906101000a900473ffffffffffffffffffffffffffffffffffffffff1673ffffffffffffffffffffffffffffffffffffffff1673ffffffffffffffffffffffffffffffffffffffff1681526020016006820154815260200160078201548152602001600882015481525050905080600001518160200151826040015183606001519450945094509450509193509193565b60026000815480929190612079906155e5565b9190505550604051806040016040528060025481526020018273ffffffffffffffffffffffffffffffffffffffff168152506006600060025481526020019081526020016000206000820151816000015560208201518160010160006101000a81548173ffffffffffffffffffffffffffffffffffffffff021916908373ffffffffffffffffffffffffffffffffffffffff16021790555090505050565b60008082600154101561215f576040517f08c379a000000000000000000000000000000000000000000000000000000000815260040161215690615acd565b60405180910390fd5b6005600084815260200190815260200160002060040154600560008581526020019081526020016000206003015491509150915091565b60035481565b60066020528060005260406000206000915090508060000154908060010160009054906101000a900473ffffffffffffffffffffffffffffffffffffffff16905082565b8060015410156121ef57600080fd5b6005600082815260200190815260200160002060050160019054906101000a900473ffffffffffffffffffffffffffffffffffffffff1673ffffffffffffffffffffffffffffffffffffffff163373ffffffffffffffffffffffffffffffffffffffff1614806122ac5750600a60009054906101000a900473ffffffffffffffffffffffffffffffffffffffff1673ffffffffffffffffffffffffffffffffffffffff163373ffffffffffffffffffffffffffffffffffffffff16145b6122b557600080fd5b60005b600860006005600085815260200190815260200160002060050160019054906101000a900473ffffffffffffffffffffffffffffffffffffffff1673ffffffffffffffffffffffffffffffffffffffff1673ffffffffffffffffffffffffffffffffffffffff16815260200190815260200160002080549050811015612d21576005600083815260200190815260200160002060030154600860006005600086815260200190815260200160002060050160019054906101000a900473ffffffffffffffffffffffffffffffffffffffff1673ffffffffffffffffffffffffffffffffffffffff1673ffffffffffffffffffffffffffffffffffffffff16815260200190815260200160002082815481106123d6576123d5615285565b5b90600052602060002090600502016002015411612cd35760006005600084815260200190815260200160002060040154600860006005600087815260200190815260200160002060050160019054906101000a900473ffffffffffffffffffffffffffffffffffffffff1673ffffffffffffffffffffffffffffffffffffffff1673ffffffffffffffffffffffffffffffffffffffff168152602001908152602001600020838154811061248d5761248c615285565b5b9060005260206000209060050201600201546124a991906154a6565b9050600081600860006005600088815260200190815260200160002060050160019054906101000a900473ffffffffffffffffffffffffffffffffffffffff1673ffffffffffffffffffffffffffffffffffffffff1673ffffffffffffffffffffffffffffffffffffffff168152602001908152602001600020848154811061253557612534615285565b5b9060005260206000209060050201600401546125519190615aed565b9050600860006005600087815260200190815260200160002060050160019054906101000a900473ffffffffffffffffffffffffffffffffffffffff1673ffffffffffffffffffffffffffffffffffffffff1673ffffffffffffffffffffffffffffffffffffffff16815260200190815260200160002083815481106125da576125d9615285565b5b9060005260206000209060050201600201546005600086815260200190815260200160002060030160008282546126119190615aed565b925050819055506000600860006005600088815260200190815260200160002060050160019054906101000a900473ffffffffffffffffffffffffffffffffffffffff1673ffffffffffffffffffffffffffffffffffffffff1673ffffffffffffffffffffffffffffffffffffffff16815260200190815260200160002084815481106126a1576126a0615285565b5b906000526020600020906005020160020154905060006005600087815260200190815260200160002060050160019054906101000a900473ffffffffffffffffffffffffffffffffffffffff1690506126f861493e565b6000805b84811015612a405760006001600960008773ffffffffffffffffffffffffffffffffffffffff1673ffffffffffffffffffffffffffffffffffffffff168152602001908152602001600020805490506127559190615aed565b905061275f614961565b600960008773ffffffffffffffffffffffffffffffffffffffff1673ffffffffffffffffffffffffffffffffffffffff16815260200190815260200160002082815481106127b0576127af615285565b5b9060005260206000209060040201600001548160000181815250508a816020018181525050600960008773ffffffffffffffffffffffffffffffffffffffff1673ffffffffffffffffffffffffffffffffffffffff168152602001908152602001600020828154811061282657612825615285565b5b906000526020600020906004020160020154816040018181525050600960008773ffffffffffffffffffffffffffffffffffffffff1673ffffffffffffffffffffffffffffffffffffffff168152602001908152602001600020828154811061289257612891615285565b5b906000526020600020906004020160030154816060018181525050600b6000600860008973ffffffffffffffffffffffffffffffffffffffff1673ffffffffffffffffffffffffffffffffffffffff168152602001908152602001600020848154811061290257612901615285565b5b9060005260206000209060050201600101548152602001908152602001600020819080600181540180825580915050600190039060005260206000209060040201600090919091909150600082015181600001556020820151816001015560408201518160020155606082015181600301555050600960008773ffffffffffffffffffffffffffffffffffffffff1673ffffffffffffffffffffffffffffffffffffffff1681526020019081526020016000208054806129c5576129c4615b21565b5b6001900381819060005260206000209060040201600080820160009055600182016000905560028201600090556003820160009055505090558060000151858580612a0f906155e5565b965060648110612a2257612a21615285565b5b60200201818152505050508080612a38906155e5565b9150506126fc565b50612a81600560008a815260200190815260200160002060050160019054906101000a900473ffffffffffffffffffffffffffffffffffffffff16876145ce565b612b596006600060086000600560008e815260200190815260200160002060050160019054906101000a900473ffffffffffffffffffffffffffffffffffffffff1673ffffffffffffffffffffffffffffffffffffffff1673ffffffffffffffffffffffffffffffffffffffff1681526020019081526020016000208a81548110612b0f57612b0e615285565b5b906000526020600020906005020160010154815260200190815260200160002060010160009054906101000a900473ffffffffffffffffffffffffffffffffffffffff16866145ce565b7f1aff87a36f8ab51e6d00c79e403e67535da25af06a6dc7b9cac3fc96a25cbfb38860086000600560008d815260200190815260200160002060050160019054906101000a900473ffffffffffffffffffffffffffffffffffffffff1673ffffffffffffffffffffffffffffffffffffffff1673ffffffffffffffffffffffffffffffffffffffff1681526020019081526020016000208981548110612c0257612c01615285565b5b90600052602060002090600502016001015460086000600560008e815260200190815260200160002060050160019054906101000a900473ffffffffffffffffffffffffffffffffffffffff1673ffffffffffffffffffffffffffffffffffffffff1673ffffffffffffffffffffffffffffffffffffffff1681526020019081526020016000208a81548110612c9b57612c9a615285565b5b9060005260206000209060050201600201548986604051612cc0959493929190615bd4565b60405180910390a1505050505050612d0e565b6040517f08c379a0000000000000000000000000000000000000000000000000000000008152600401612d0590615c74565b60405180910390fd5b8080612d19906155e5565b9150506122b8565b505b6000600860006005600085815260200190815260200160002060050160019054906101000a900473ffffffffffffffffffffffffffffffffffffffff1673ffffffffffffffffffffffffffffffffffffffff1673ffffffffffffffffffffffffffffffffffffffff168152602001908152602001600020805490501115612e8e57600860006005600084815260200190815260200160002060050160019054906101000a900473ffffffffffffffffffffffffffffffffffffffff1673ffffffffffffffffffffffffffffffffffffffff1673ffffffffffffffffffffffffffffffffffffffff168152602001908152602001600020805480612e2957612e28615b21565b5b6001900381819060005260206000209060050201600080820160009055600182016000905560028201600090556003820160006101000a81549073ffffffffffffffffffffffffffffffffffffffff0219169055600482016000905550509055612d23565b50565b8060056000848152602001908152602001600020600301819055505050565b60046020528060005260406000206000915090508060000154908060010154908060020154908060030160009054906101000a900460ff16908060030160019054906101000a900473ffffffffffffffffffffffffffffffffffffffff16908060040154908060050154908060060154905088565b6005600083815260200190815260200160002060050160019054906101000a900473ffffffffffffffffffffffffffffffffffffffff1673ffffffffffffffffffffffffffffffffffffffff163373ffffffffffffffffffffffffffffffffffffffff161480612fe25750600a60009054906101000a900473ffffffffffffffffffffffffffffffffffffffff1673ffffffffffffffffffffffffffffffffffffffff163373ffffffffffffffffffffffffffffffffffffffff16145b613021576040517f08c379a000000000000000000000000000000000000000000000000000000000815260040161301890615ce0565b60405180910390fd5b8060056000848152602001908152602001600020600401819055505050565b6000818310156130505782613052565b815b905092915050565b600080548211156130a0576040517f08c379a000000000000000000000000000000000000000000000000000000000815260040161309790615895565b60405180910390fd5b600160038111156130b4576130b3614c06565b5b6004600084815260200190815260200160002060030160009054906101000a900460ff1660038111156130ea576130e9614c06565b5b1461312a576040517f08c379a000000000000000000000000000000000000000000000000000000000815260040161312190615d4c565b60405180910390fd5b60036004600084815260200190815260200160002060030160006101000a81548160ff0219169083600381111561316457613163614c06565b5b021790555060005b600760006004600086815260200190815260200160002060030160019054906101000a900473ffffffffffffffffffffffffffffffffffffffff1673ffffffffffffffffffffffffffffffffffffffff1673ffffffffffffffffffffffffffffffffffffffff168152602001908152602001600020805490508110156138405760005b8181101561382c57600760006004600087815260200190815260200160002060030160019054906101000a900473ffffffffffffffffffffffffffffffffffffffff1673ffffffffffffffffffffffffffffffffffffffff1673ffffffffffffffffffffffffffffffffffffffff168152602001908152602001600020818154811061327e5761327d615285565b5b90600052602060002090600b020160000154600760006004600088815260200190815260200160002060030160019054906101000a900473ffffffffffffffffffffffffffffffffffffffff1673ffffffffffffffffffffffffffffffffffffffff1673ffffffffffffffffffffffffffffffffffffffff168152602001908152602001600020838154811061331757613316615285565b5b90600052602060002090600b0201600001541015613819576000600760006004600088815260200190815260200160002060030160019054906101000a900473ffffffffffffffffffffffffffffffffffffffff1673ffffffffffffffffffffffffffffffffffffffff1673ffffffffffffffffffffffffffffffffffffffff16815260200190815260200160002083815481106133b8576133b7615285565b5b90600052602060002090600b02016040518061016001604052908160008201548152602001600182015481526020016002820160009054906101000a900473ffffffffffffffffffffffffffffffffffffffff1673ffffffffffffffffffffffffffffffffffffffff1673ffffffffffffffffffffffffffffffffffffffff16815260200160038201548152602001600482015481526020016005820154815260200160068201548152602001600782015481526020016008820154815260200160098201548152602001600a820160009054906101000a900460ff1615151515815250509050600760006004600088815260200190815260200160002060030160019054906101000a900473ffffffffffffffffffffffffffffffffffffffff1673ffffffffffffffffffffffffffffffffffffffff1673ffffffffffffffffffffffffffffffffffffffff168152602001908152602001600020828154811061352657613525615285565b5b90600052602060002090600b0201600760006004600089815260200190815260200160002060030160019054906101000a900473ffffffffffffffffffffffffffffffffffffffff1673ffffffffffffffffffffffffffffffffffffffff1673ffffffffffffffffffffffffffffffffffffffff16815260200190815260200160002084815481106135bb576135ba615285565b5b90600052602060002090600b020160008201548160000155600182015481600101556002820160009054906101000a900473ffffffffffffffffffffffffffffffffffffffff168160020160006101000a81548173ffffffffffffffffffffffffffffffffffffffff021916908373ffffffffffffffffffffffffffffffffffffffff16021790555060038201548160030155600482015481600401556005820154816005015560068201548160060155600782015481600701556008820154816008015560098201548160090155600a820160009054906101000a900460ff1681600a0160006101000a81548160ff02191690831515021790555090505080600760006004600089815260200190815260200160002060030160019054906101000a900473ffffffffffffffffffffffffffffffffffffffff1673ffffffffffffffffffffffffffffffffffffffff1673ffffffffffffffffffffffffffffffffffffffff168152602001908152602001600020838154811061374257613741615285565b5b90600052602060002090600b0201600082015181600001556020820151816001015560408201518160020160006101000a81548173ffffffffffffffffffffffffffffffffffffffff021916908373ffffffffffffffffffffffffffffffffffffffff160217905550606082015181600301556080820151816004015560a0820151816005015560c0820151816006015560e082015181600701556101008201518160080155610120820151816009015561014082015181600a0160006101000a81548160ff021916908315150217905550905050505b8080613824906155e5565b9150506131ef565b508080613838906155e5565b91505061316c565b5061384961493e565b61385161493e565b61385961493e565b60005b600760006004600089815260200190815260200160002060030160019054906101000a900473ffffffffffffffffffffffffffffffffffffffff1673ffffffffffffffffffffffffffffffffffffffff1673ffffffffffffffffffffffffffffffffffffffff16815260200190815260200160002080549050811015613bf957600060076000600460008a815260200190815260200160002060030160019054906101000a900473ffffffffffffffffffffffffffffffffffffffff1673ffffffffffffffffffffffffffffffffffffffff1673ffffffffffffffffffffffffffffffffffffffff168152602001908152602001600020828154811061396557613964615285565b5b90600052602060002090600b02016040518061016001604052908160008201548152602001600182015481526020016002820160009054906101000a900473ffffffffffffffffffffffffffffffffffffffff1673ffffffffffffffffffffffffffffffffffffffff1673ffffffffffffffffffffffffffffffffffffffff16815260200160038201548152602001600482015481526020016005820154815260200160068201548152602001600782015481526020016008820154815260200160098201548152602001600a820160009054906101000a900460ff161515151581525050905060001515816101400151151503613a635750613be6565b806101200151838260e0015160648110613a8057613a7f615285565b5b6020020181815250506000613aaf600460008a8152602001908152602001600020600201548360c00151613040565b9050613abf818360200151613040565b90508160000151868360e0015160648110613add57613adc615285565b5b60200201818152505080858360e0015160648110613afe57613afd615285565b5b60200201818152505080600460008a81526020019081526020016000206002016000828254613b2d9190615aed565b925050819055508060076000600460008c815260200190815260200160002060030160019054906101000a900473ffffffffffffffffffffffffffffffffffffffff1673ffffffffffffffffffffffffffffffffffffffff1673ffffffffffffffffffffffffffffffffffffffff1681526020019081526020016000208481548110613bbc57613bbb615285565b5b90600052602060002090600b02016001016000828254613bdc9190615aed565b9250508190555050505b8080613bf1906155e5565b91505061385c565b5060005b600760006004600089815260200190815260200160002060030160019054906101000a900473ffffffffffffffffffffffffffffffffffffffff1673ffffffffffffffffffffffffffffffffffffffff1673ffffffffffffffffffffffffffffffffffffffff16815260200190815260200160002080549050811015613f4e57600060076000600460008a815260200190815260200160002060030160019054906101000a900473ffffffffffffffffffffffffffffffffffffffff1673ffffffffffffffffffffffffffffffffffffffff1673ffffffffffffffffffffffffffffffffffffffff1681526020019081526020016000208281548110613d0657613d05615285565b5b90600052602060002090600b02016040518061016001604052908160008201548152602001600182015481526020016002820160009054906101000a900473ffffffffffffffffffffffffffffffffffffffff1673ffffffffffffffffffffffffffffffffffffffff1673ffffffffffffffffffffffffffffffffffffffff16815260200160038201548152602001600482015481526020016005820154815260200160068201548152602001600782015481526020016008820154815260200160098201548152602001600a820160009054906101000a900460ff161515151581525050905060001515816101400151151503613e045750613f3b565b6000613e2a600460008a8152602001908152602001600020600201548360200151613040565b905080858360e0015160648110613e4457613e43615285565b5b60200201818151613e5591906151d4565b9150818152505080600460008a81526020019081526020016000206002016000828254613e829190615aed565b925050819055508060076000600460008c815260200190815260200160002060030160019054906101000a900473ffffffffffffffffffffffffffffffffffffffff1673ffffffffffffffffffffffffffffffffffffffff1673ffffffffffffffffffffffffffffffffffffffff1681526020019081526020016000208481548110613f1157613f10615285565b5b90600052602060002090600b02016001016000828254613f319190615aed565b9250508190555050505b8080613f46906155e5565b915050613bfd565b506000600190505b60015481116141aa576000838260648110613f7457613f73615285565b5b60200201511115614197577f389cc4d2b135e7b676a809ad7bacdde1b644b0bbe73afdd545a176ea73b955178682858460648110613fb557613fb4615285565b5b6020020151878560648110613fcd57613fcc615285565b5b6020020151604051613fe29493929190614f06565b60405180910390a16140856005600083815260200190815260200160002060050160019054906101000a900473ffffffffffffffffffffffffffffffffffffffff1684836064811061403757614036615285565b5b602002015186846064811061404f5761404e615285565b5b602002015161405e91906154a6565b84846064811061407157614070615285565b5b60200201516140809190615aed565b6145ce565b6140fe6004600088815260200190815260200160002060030160019054906101000a900473ffffffffffffffffffffffffffffffffffffffff168483606481106140d2576140d1615285565b5b60200201518684606481106140ea576140e9615285565b5b60200201516140f991906154a6565b6145ce565b6001600460008881526020019081526020016000206001015403614147576141428184836064811061413357614132615285565b5b60200201516000896000614646565b614196565b60026004600088815260200190815260200160002060010154036141905761418b81600085846064811061417e5761417d615285565b5b602002015160008a614646565b614195565b600080fd5b5b5b80806141a2906155e5565b915050613f56565b505b6000600760006004600089815260200190815260200160002060030160019054906101000a900473ffffffffffffffffffffffffffffffffffffffff1673ffffffffffffffffffffffffffffffffffffffff1673ffffffffffffffffffffffffffffffffffffffff16815260200190815260200160002080549050111561435357600760006004600088815260200190815260200160002060030160019054906101000a900473ffffffffffffffffffffffffffffffffffffffff1673ffffffffffffffffffffffffffffffffffffffff1673ffffffffffffffffffffffffffffffffffffffff1681526020019081526020016000208054806142b2576142b1615b21565b5b60019003818190600052602060002090600b020160008082016000905560018201600090556002820160006101000a81549073ffffffffffffffffffffffffffffffffffffffff02191690556003820160009055600482016000905560058201600090556006820160009055600782016000905560088201600090556009820160009055600a820160006101000a81549060ff0219169055505090556141ac565b429350505050919050565b60025481565b60005481565b614372614989565b61437a614989565b6000805b600b60008681526020019081526020016000208054905081101561440e57600b600086815260200190815260200160002081815481106143c1576143c0615285565b5b9060005260206000209060040201600001548383806143df906155e5565b9450600a81106143f2576143f1615285565b5b6020020181815250508080614406906155e5565b91505061437e565b508192505050919050565b60008060008060005b600b6000888152602001908152602001600020805490508110156145445785600b6000898152602001908152602001600020828154811061446657614465615285565b5b906000526020600020906004020160000154036145315785600b600089815260200190815260200160002082815481106144a3576144a2615285565b5b906000526020600020906004020160010154600b60008a815260200190815260200160002083815481106144da576144d9615285565b5b906000526020600020906004020160020154600b60008b8152602001908152602001600020848154811061451157614510615285565b5b906000526020600020906004020160030154945094509450945050614598565b808061453c906155e5565b915050614422565b506001600014614589576040517f08c379a000000000000000000000000000000000000000000000000000000000815260040161458090615dde565b60405180910390fd5b60008060008093509350935093505b92959194509250565b60006004600083815260200190815260200160002060030160009054906101000a900460ff169050919050565b8173ffffffffffffffffffffffffffffffffffffffff166108fc829081150290604051600060405180830381858888f19350505050614642576040517f08c379a000000000000000000000000000000000000000000000000000000000815260040161463990615e4a565b60405180910390fd5b5050565b8360056000878152602001908152602001600020600101600082825461466c91906151d4565b925050819055508260056000878152602001908152602001600020600201600082825461469991906151d4565b9250508190555060006146d860056000888152602001908152602001600020600101546005600089815260200190815260200160002060020154613040565b9050806005600088815260200190815260200160002060010160008282546147009190615aed565b925050819055508060056000888152602001908152602001600020600201600082825461472d9190615aed565b925050819055508060056000888152602001908152602001600020600301600082825461475a91906151d4565b925050819055506147696149ac565b6003600081548092919061477c906155e5565b91905055506003548160000181815250508681602001818152505086816040018181525050600381606001818152505060096000600560008a815260200190815260200160002060050160019054906101000a900473ffffffffffffffffffffffffffffffffffffffff1673ffffffffffffffffffffffffffffffffffffffff1673ffffffffffffffffffffffffffffffffffffffff16815260200190815260200160002081908060018154018082558091505060019003906000526020600020906004020160009091909190915060008201518160000155602082015181600101556040820151816002015560608201518160030155505050505050505050565b6040518060a00160405280600081526020016000815260200160008152602001600073ffffffffffffffffffffffffffffffffffffffff168152602001600081525090565b6040518061016001604052806000815260200160008152602001600073ffffffffffffffffffffffffffffffffffffffff168152602001600080191681526020016000801916815260200160008019168152602001600081526020016000815260200160008152602001600081526020016000151581525090565b60405180610c800160405280606490602082028036833780820191505090505090565b6040518060800160405280600081526020016000815260200160008152602001600081525090565b604051806101400160405280600a90602082028036833780820191505090505090565b6040518060800160405280600081526020016000815260200160008152602001600081525090565b600080fd5b6000819050919050565b6149ec816149d9565b81146149f757600080fd5b50565b600081359050614a09816149e3565b92915050565b60008060408385031215614a2657614a256149d4565b5b6000614a34858286016149fa565b9250506020614a45858286016149fa565b9150509250929050565b600080600080600060a08688031215614a6b57614a6a6149d4565b5b6000614a79888289016149fa565b9550506020614a8a888289016149fa565b9450506040614a9b888289016149fa565b9350506060614aac888289016149fa565b9250506080614abd888289016149fa565b9150509295509295909350565b60008115159050919050565b614adf81614aca565b82525050565b6000602082019050614afa6000830184614ad6565b92915050565b600060208284031215614b1657614b156149d4565b5b6000614b24848285016149fa565b91505092915050565b614b36816149d9565b82525050565b6000602082019050614b516000830184614b2d565b92915050565b600080600060608486031215614b7057614b6f6149d4565b5b6000614b7e868287016149fa565b9350506020614b8f868287016149fa565b9250506040614ba0868287016149fa565b9150509250925092565b600073ffffffffffffffffffffffffffffffffffffffff82169050919050565b6000614bd582614baa565b9050919050565b614be581614bca565b82525050565b6000602082019050614c006000830184614bdc565b92915050565b7f4e487b7100000000000000000000000000000000000000000000000000000000600052602160045260246000fd5b60048110614c4657614c45614c06565b5b50565b6000819050614c5782614c35565b919050565b6000614c6782614c49565b9050919050565b614c7781614c5c565b82525050565b6000614c8882614baa565b9050919050565b614c9881614c7d565b82525050565b600061014082019050614cb4600083018d614b2d565b614cc1602083018c614b2d565b614cce604083018b614b2d565b614cdb606083018a614b2d565b614ce86080830189614b2d565b614cf560a0830188614c6e565b614d0260c0830187614c8f565b614d0f60e0830186614b2d565b614d1d610100830185614b2d565b614d2b610120830184614b2d565b9b9a5050505050505050505050565b6000819050919050565b614d4d81614d3a565b8114614d5857600080fd5b50565b600081359050614d6a81614d44565b92915050565b614d7981614bca565b8114614d8457600080fd5b50565b600081359050614d9681614d70565b92915050565b60008060008060808587031215614db657614db56149d4565b5b6000614dc487828801614d5b565b9450506020614dd5878288016149fa565b9350506040614de687828801614d87565b9250506060614df7878288016149fa565b91505092959194509250565b60008060408385031215614e1a57614e196149d4565b5b6000614e2885828601614d87565b9250506020614e39858286016149fa565b9150509250929050565b6000819050919050565b614e5681614e43565b8114614e6157600080fd5b50565b600081359050614e7381614e4d565b92915050565b60008060008060008060c08789031215614e9657614e956149d4565b5b6000614ea489828a016149fa565b9650506020614eb589828a016149fa565b9550506040614ec689828a01614e64565b9450506060614ed789828a01614e64565b9350506080614ee889828a01614e64565b92505060a0614ef989828a016149fa565b9150509295509295509295565b6000608082019050614f1b6000830187614b2d565b614f286020830186614b2d565b614f356040830185614b2d565b614f426060830184614b2d565b95945050505050565b600060208284031215614f6157614f606149d4565b5b6000614f6f84828501614d87565b91505092915050565b6000604082019050614f8d6000830185614b2d565b614f9a6020830184614b2d565b9392505050565b6000604082019050614fb66000830185614b2d565b614fc36020830184614c8f565b9392505050565b614fd381614d3a565b82525050565b600061010082019050614fef600083018b614b2d565b614ffc602083018a614fca565b6150096040830189614b2d565b6150166060830188614c6e565b6150236080830187614c8f565b61503060a0830186614b2d565b61503d60c0830185614b2d565b61504a60e0830184614b2d565b9998505050505050505050565b6000600a9050919050565b600081905092915050565b6000819050919050565b615080816149d9565b82525050565b60006150928383615077565b60208301905092915050565b6000602082019050919050565b6150b481615057565b6150be8184615062565b92506150c98261506d565b8060005b838110156150fa5781516150e18782615086565b96506150ec8361509e565b9250506001810190506150cd565b505050505050565b60006101408201905061511860008301846150ab565b92915050565b60006020820190506151336000830184614c6e565b92915050565b61514281614c7d565b811461514d57600080fd5b50565b60008135905061515f81615139565b92915050565b6000806040838503121561517c5761517b6149d4565b5b600061518a85828601615150565b925050602061519b858286016149fa565b9150509250929050565b7f4e487b7100000000000000000000000000000000000000000000000000000000600052601160045260246000fd5b60006151df826149d9565b91506151ea836149d9565b9250828201905080821115615202576152016151a5565b5b92915050565b600082825260208201905092915050565b7f496e76616c6964206d616e756661637475726572000000000000000000000000600082015250565b600061524f601483615208565b915061525a82615219565b602082019050919050565b6000602082019050818103600083015261527e81615242565b9050919050565b7f4e487b7100000000000000000000000000000000000000000000000000000000600052603260045260246000fd5b6000819050919050565b6152cf6152ca826149d9565b6152b4565b82525050565b60006152e182846152be565b60208201915081905092915050565b7f496e636f7272656374206b6579202d2d206b656570696e6720796f7572206d6f60008201527f6e65790000000000000000000000000000000000000000000000000000000000602082015250565b600061534c602383615208565b9150615357826152f0565b604082019050919050565b6000602082019050818103600083015261537b8161533f565b9050919050565b7f496e636f7272656374207072696365202d2d206b656570696e6720796f75722060008201527f6d6f6e6579000000000000000000000000000000000000000000000000000000602082015250565b60006153de602583615208565b91506153e982615382565b604082019050919050565b6000602082019050818103600083015261540d816153d1565b9050919050565b7f496e636f7272656374207175616e74697479202d2d206b656570696e6720796f60008201527f7572206d6f6e6579000000000000000000000000000000000000000000000000602082015250565b6000615470602883615208565b915061547b82615414565b604082019050919050565b6000602082019050818103600083015261549f81615463565b9050919050565b60006154b1826149d9565b91506154bc836149d9565b9250817fffffffffffffffffffffffffffffffffffffffffffffffffffffffffffffffff04831182151516156154f5576154f46151a5565b5b828202905092915050565b7f496e73756666696369656e742066756e64732073656e74202d2d206b6565706960008201527f6e6720796f7572206d6f6e657900000000000000000000000000000000000000602082015250565b600061555c602d83615208565b915061556782615500565b604082019050919050565b6000602082019050818103600083015261558b8161554f565b9050919050565b600060a0820190506155a76000830188614b2d565b6155b46020830187614b2d565b6155c16040830186614b2d565b6155ce6060830185614b2d565b6155db6080830184614b2d565b9695505050505050565b60006155f0826149d9565b91507fffffffffffffffffffffffffffffffffffffffffffffffffffffffffffffffff8203615622576156216151a5565b5b600182019050919050565b7f5573657220646f65736e27742065786973740000000000000000000000000000600082015250565b6000615663601283615208565b915061566e8261562d565b602082019050919050565b6000602082019050818103600083015261569281615656565b9050919050565b7f41756374696f6e20696e2d70726f677265737320616c72656164790000000000600082015250565b60006156cf601b83615208565b91506156da82615699565b602082019050919050565b600060208201905081810360008301526156fe816156c2565b9050919050565b7f4163636573732044656e69656400000000000000000000000000000000000000600082015250565b600061573b600d83615208565b915061574682615705565b602082019050919050565b6000602082019050818103600083015261576a8161572e565b9050919050565b7f4d6f6e6579206e6f7420656e6f75676800000000000000000000000000000000600082015250565b60006157a7601083615208565b91506157b282615771565b602082019050919050565b600060208201905081810360008301526157d68161579a565b9050919050565b7f4d616e75666163747572657220646f65736e2774206578697374000000000000600082015250565b6000615813601a83615208565b915061581e826157dd565b602082019050919050565b6000602082019050818103600083015261584281615806565b9050919050565b7f537570706c69657220646f65736e277420657869737400000000000000000000600082015250565b600061587f601683615208565b915061588a82615849565b602082019050919050565b600060208201905081810360008301526158ae81615872565b9050919050565b7f537570706c6965722069736e27742072756e6e696e6720616e2061756374696f60008201527f6e207269676874206e6f77000000000000000000000000000000000000000000602082015250565b6000615911602b83615208565b915061591c826158b5565b604082019050919050565b6000602082019050818103600083015261594081615904565b9050919050565b7f537570706c69657220646f65736e742073656c6c20796f750000000000000000600082015250565b600061597d601883615208565b915061598882615947565b602082019050919050565b600060208201905081810360008301526159ac81615970565b9050919050565b6159bc81614e43565b82525050565b600060a0820190506159d76000830188614b2d565b6159e46020830187614b2d565b6159f160408301866159b3565b6159fe60608301856159b3565b615a0b60808301846159b3565b9695505050505050565b7f41756374696f6e20656e64656420616c72656164790000000000000000000000600082015250565b6000615a4b601583615208565b9150615a5682615a15565b602082019050919050565b60006020820190508181036000830152615a7a81615a3e565b9050919050565b7f4d616e75666163747572657220494420646f65736e6f74206578697374000000600082015250565b6000615ab7601d83615208565b9150615ac282615a81565b602082019050919050565b60006020820190508181036000830152615ae681615aaa565b9050919050565b6000615af8826149d9565b9150615b03836149d9565b9250828203905081811115615b1b57615b1a6151a5565b5b92915050565b7f4e487b7100000000000000000000000000000000000000000000000000000000600052603160045260246000fd5b600060649050919050565b600081905092915050565b6000819050919050565b6000602082019050919050565b615b8681615b50565b615b908184615b5b565b9250615b9b82615b66565b8060005b83811015615bcc578151615bb38782615086565b9650615bbe83615b70565b925050600181019050615b9f565b505050505050565b6000610d0082019050615bea6000830188614b2d565b615bf76020830187614b2d565b615c046040830186614b2d565b615c116060830185614b2d565b615c1e6080830184615b7d565b9695505050505050565b7f5175616e74697479206e6f7420417661696c61626c6500000000000000000000600082015250565b6000615c5e601683615208565b9150615c6982615c28565b602082019050919050565b60006020820190508181036000830152615c8d81615c51565b9050919050565b7f43616e6e6f742062652073657420627920796f75000000000000000000000000600082015250565b6000615cca601483615208565b9150615cd582615c94565b602082019050919050565b60006020820190508181036000830152615cf981615cbd565b9050919050565b7f52657665616c207068617365206e6f742072756e6e696e670000000000000000600082015250565b6000615d36601883615208565b9150615d4182615d00565b602082019050919050565b60006020820190508181036000830152615d6581615d29565b9050919050565b7f436172206e6f7420666f756e6420696e2074686579206275796572732070757260008201527f6368617365730000000000000000000000000000000000000000000000000000602082015250565b6000615dc8602683615208565b9150615dd382615d6c565b604082019050919050565b60006020820190508181036000830152615df781615dbb565b9050919050565b7f5472616e73666572206661696c65642100000000000000000000000000000000600082015250565b6000615e34601083615208565b9150615e3f82615dfe565b602082019050919050565b60006020820190508181036000830152615e6381615e27565b905091905056fea26469706673582212204095d771058e0fec2a490d8d599f95be1078cbd73e2fc92f7898bd3c5d646dc364736f6c63430008100033",
  "immutableReferences": {},
  "source": "// SPDX-License-Identifier: MIT\npragma solidity >=0.8.16;\npragma experimental ABIEncoderV2;\n\nimport {FirstAuction} from \"./auction.sol\";\n\ncontract Marketplace {\n    enum AuctionState {\n        RUNNING, // auction is running and bids are being places\n        REVEALING, // auction has ended and bidders are revealing their bids\n        NOT_STARTED, // auction hasn't started yet\n        FINISHED // auction has finished\n    }\n\n    struct Bid {\n        uint256 valuePrice;\n        uint256 valueQuantity;\n        address payable bidderAddress;\n        bytes32 blindBidPrice; // will have price and quantity you are bidding\n        bytes32 blindBidQuantity;\n        bytes32 blindKey;\n        uint256 limitingResourceQuantity;\n        uint256 buyerID;\n        uint256 sellerID;\n        uint256 moneySent;\n        bool correctReveal;\n    }\n\n    struct Purchase {\n        uint256 sellerID;\n        uint256 buyerID;\n        uint256 quantity;\n        address payable customeraddr;\n        uint256 money;\n    }\n\n    struct Product {\n        uint256 tag;\n        uint256 manufacturerID;\n        uint256 sellerA; //wheels\n        uint256 sellerB; //car_body\n    }\n\n    uint256 public num_supplier;\n    uint256 public num_manufacturer;\n    uint256 public num_customer;\n    uint256 public num_products;\n\n    mapping(uint256 => Supplier) public suppliers;\n    mapping(uint256 => Manufacturer) public manufacturers;\n    mapping(uint256 => Customer) public customers;\n    mapping(address => Bid[]) bidsTillNow;\n    mapping(address => Purchase[]) purchasesTillNow;\n    mapping(address => Product[]) productsTillNow;\n\n    address payable public owner;\n\n    constructor() {\n        owner = payable(msg.sender);\n        num_manufacturer = 0;\n        num_supplier = 0;\n        num_customer = 0;\n    }\n\n    struct Supplier {\n        uint256 tag;\n        int256 partType; // 0 is wheels, 1 is car_parts\n        uint256 quantityAvailable;\n        AuctionState currentState;\n        address wallet;\n        uint256 maxBidders;\n        uint256 bidsPlaced;\n        uint256 bidsRevealed;\n    }\n\n    struct Manufacturer {\n        uint256 _tag;\n        uint256 quantityA;\n        uint256 quantityB;\n        uint256 cars;\n        uint256 carsprice;\n        AuctionState currentState;\n        address wallet;\n        uint256 maxBidders;\n        uint256 QA_sellerID;\n        uint256 QB_sellerID;\n    }\n\n    mapping(uint256 => Car[]) carsBought;\n\n    struct Car {\n        uint256 tag;\n        uint256 manufacturerID;\n        uint256 sellerIDA;\n        uint256 sellerIDB;\n    }\n\n    struct Customer {\n        uint256 _tag;\n        address wallet;\n    }\n\n    // function makeBidSupplier(int index, ...) public {\n    //     suppliers[index].auction.makeBid(...);\n    // }\n    // Helpers\n    function minimum(uint256 a, uint256 b) public pure returns (uint256) {\n        return a >= b ? b : a;\n    }\n\n    function supplierStartAuction(uint256 tag) public returns (uint256) {\n        // function for supplier to start their bidding process\n        require(tag <= num_supplier, \"User doesn't exist\");\n        require(\n            suppliers[tag].currentState != AuctionState.RUNNING,\n            \"Auction in-progress already\"\n        );\n\n        // TODO: UNCOMMENT THE FOLLOWING TO ENSURE PEOPLE ARE STARTING AUCTIONS FOR THEMSELVES ONLY\n        // require(\n        //     suppliers[tag].wallet == msg.sender,\n        //     \"Start auction only for yourself!\"\n        // );\n\n        suppliers[tag].currentState = AuctionState.RUNNING;\n        suppliers[tag].bidsPlaced = 0;\n        suppliers[tag].bidsRevealed = 0;\n        emit StartSupplierAuction(tag, block.timestamp);\n        return block.timestamp;\n    }\n\n    function supplierEndAuction(uint256 tag) public returns (uint256) {\n        // function for suppilier to end their auction\n        require(tag <= num_supplier, \"User doesn't exist\");\n        require(\n            suppliers[tag].currentState == AuctionState.RUNNING,\n            \"Auction ended already\"\n        );\n\n        // TODO: UNCOMMENT THE FOLLOWING TO ENSURE PEOPLE ARE ENDING AUCTIONS FOR THEMSELVES ONLY\n        // require(\n        //     suppliers[tag].wallet == msg.sender,\n        //     \"End auction only for yourself!\"\n        // );\n\n        suppliers[tag].currentState = AuctionState.REVEALING;\n        suppliers[tag].bidsRevealed = 0;\n        emit EndSupplierAuction(tag, block.timestamp);\n        return block.timestamp;\n    }\n\n    function transferMoney(address senderaddr, uint256 effectivePrice)\n        public\n        payable\n    {\n        // do eth transactions here\n        require(payable(senderaddr).send(effectivePrice), \"Transfer failed!\");\n    }\n\n    function supplierEndReveal(uint256 tag)\n        public\n        returns (\n            // afterOnly(supplierEndAuction(tag))\n            uint256\n        )\n    {\n        require(tag <= num_supplier, \"Supplier doesn't exist\");\n        require(\n            suppliers[tag].currentState == AuctionState.REVEALING,\n            \"Reveal phase not running\"\n        );\n\n        // TODO: UNCOMMENT THE FOLLOWING TO ENSURE PEOPLE ARE ALLOCATING FOR THEMSELVES ONLY\n        // require(\n        //     (suppliers[tag].wallet == msg.sender || owner == msg.sender),\n        //     \"Operation now allowed\"\n        // );\n\n        suppliers[tag].currentState = AuctionState.FINISHED;\n\n        // do allocation logic and emit\n\n        // bubble sort according to bid value\n        for (uint256 i = 0; i < bidsTillNow[suppliers[tag].wallet].length; i++)\n            for (uint256 j = 0; j < i; j++)\n                if (\n                    bidsTillNow[suppliers[tag].wallet][i].valuePrice <\n                    bidsTillNow[suppliers[tag].wallet][j].valuePrice\n                ) {\n                    Bid memory x = bidsTillNow[suppliers[tag].wallet][i];\n                    bidsTillNow[suppliers[tag].wallet][i] = bidsTillNow[\n                        suppliers[tag].wallet\n                    ][j];\n                    bidsTillNow[suppliers[tag].wallet][j] = x;\n                }\n        // allocate according to limiting resource first\n        uint256[100] memory allocatingPrices;\n        uint256[100] memory allocatingQuantities;\n        uint256[100] memory moneySentWithBid;\n\n        for (\n            uint256 i = 0;\n            i < bidsTillNow[suppliers[tag].wallet].length;\n            i++\n        ) {\n            Bid memory bid = bidsTillNow[suppliers[tag].wallet][i];\n            if (bid.correctReveal == false) continue;\n\n            moneySentWithBid[bid.buyerID] = bid.moneySent;\n\n            uint256 allocatingHere = minimum(\n                suppliers[tag].quantityAvailable,\n                bid.limitingResourceQuantity\n            );\n            allocatingHere = minimum(allocatingHere, bid.valueQuantity);\n\n            allocatingPrices[bid.buyerID] = bid.valuePrice;\n            allocatingQuantities[bid.buyerID] = allocatingHere;\n            suppliers[tag].quantityAvailable -= allocatingHere;\n            bidsTillNow[suppliers[tag].wallet][i]\n                .valueQuantity -= allocatingHere;\n        }\n\n        // allocate remaining for maximum profit\n        for (\n            uint256 i = 0;\n            i < bidsTillNow[suppliers[tag].wallet].length;\n            i++\n        ) {\n            Bid memory bid = bidsTillNow[suppliers[tag].wallet][i];\n            if (bid.correctReveal == false) continue;\n            uint256 allocatingHere = minimum(\n                suppliers[tag].quantityAvailable,\n                bid.valueQuantity\n            );\n\n            allocatingQuantities[bid.buyerID] += allocatingHere;\n            suppliers[tag].quantityAvailable -= allocatingHere;\n            bidsTillNow[suppliers[tag].wallet][i]\n                .valueQuantity -= allocatingHere;\n        }\n\n        // emit all allocations\n        for (uint256 i = 1; i <= num_manufacturer; i++)\n            if (allocatingQuantities[i] > 0) {\n                emit AllocateFromSupplier(\n                    tag,\n                    i,\n                    allocatingQuantities[i],\n                    allocatingPrices[i]\n                );\n                transferMoney(\n                    manufacturers[i].wallet,\n                    (moneySentWithBid[i] -\n                        allocatingPrices[i] *\n                        allocatingQuantities[i])\n                );\n                transferMoney(\n                    suppliers[tag].wallet,\n                    (allocatingPrices[i] * allocatingQuantities[i])\n                );\n                //update all the manufacturers quanitites to make cars\n                if (suppliers[tag].partType == 1)\n                    updateManufacturerQuantities(\n                        i,\n                        allocatingQuantities[i],\n                        0,\n                        tag,\n                        0\n                    );\n                else if (suppliers[tag].partType == 2)\n                    updateManufacturerQuantities(\n                        i,\n                        0,\n                        allocatingQuantities[i],\n                        0,\n                        tag\n                    );\n                else revert();\n            }\n        while (bidsTillNow[suppliers[tag].wallet].length > 0)\n            bidsTillNow[suppliers[tag].wallet].pop();\n        return block.timestamp;\n    }\n\n    function manufacturerPlacesBid(\n        uint256 manufacturerID,\n        uint256 supplierID,\n        bytes32 blindPrice,\n        bytes32 blindQuantity,\n        bytes32 blindKey,\n        uint256 limit // beforeOnly(supplierEndAuction(supplierID)) // afterOnly(supplierEndAuction(supplierID))\n    ) public payable {\n        //should get all data needed for bid\n        // function for manufacturer to place a bid\n        require(\n            num_manufacturer >= manufacturerID,\n            \"Manufacturer doesn't exist\"\n        );\n        require(num_supplier >= supplierID, \"Supplier doesn't exist\");\n        require(\n            suppliers[supplierID].currentState == AuctionState.RUNNING,\n            \"Supplier isn't running an auction right now\"\n        );\n        require(\n            supplierID == manufacturerID || supplierID == 3,\n            \"Supplier doesnt sell you\"\n        );\n\n        // TODO: UNCOMMENT THE FOLLOWING TO ENSURE PEOPLE ARE ONLY PLACING BIDS FOR THEMSELVES\n        // require(\n        //     manufacturers[manufacturerID].wallet == msg.sender,\n        //     \"You can only bid for yourself!\"\n        // );\n\n        Bid memory newbid;\n        newbid.bidderAddress = payable(msg.sender);\n        newbid.moneySent = msg.value;\n        newbid.buyerID = manufacturerID;\n        newbid.sellerID = supplierID;\n        newbid.blindBidPrice = blindPrice;\n        newbid.blindBidQuantity = blindQuantity;\n        newbid.blindKey = blindKey;\n        newbid.limitingResourceQuantity = limit;\n        newbid.valuePrice = 0;\n        newbid.valueQuantity = 0;\n        newbid.correctReveal = false;\n\n        address supplieraddr = suppliers[supplierID].wallet;\n        bidsTillNow[supplieraddr].push(newbid);\n\n        suppliers[supplierID].bidsPlaced += 1;\n\n        emit ManufacturerBids(\n            supplierID,\n            manufacturerID,\n            blindPrice,\n            blindQuantity,\n            blindKey\n        );\n\n        // if (\n        //     suppliers[supplierID].bidsPlaced == suppliers[supplierID].maxBidders\n        // ) {\n        //     // go to reveal phase\n        //     suppliers[supplierID].currentState = AuctionState.REVEALING;\n        //     supplierEndAuction()\n        // }\n    }\n\n    function customerPurchase(\n        uint256 customerID,\n        uint256 manufacturerID,\n        uint256 quantity\n    ) external payable {\n        require(\n            customers[customerID].wallet == msg.sender || owner == msg.sender,\n            \"Access Denied\"\n        );\n        Purchase memory newpurchase;\n        newpurchase.sellerID = manufacturerID;\n        newpurchase.customeraddr = payable(msg.sender);\n        newpurchase.quantity = quantity;\n        newpurchase.buyerID = customerID;\n        newpurchase.money = msg.value;\n        uint256 unit_cost = manufacturers[manufacturerID].carsprice;\n        uint256 total_cost = unit_cost * quantity;\n        require(newpurchase.money >= total_cost, \"Money not enough\");\n        address manf_adrr = manufacturers[manufacturerID].wallet;\n        purchasesTillNow[manf_adrr].push(newpurchase);\n        emit CustomerRequest(\n            customerID,\n            manufacturerID,\n            quantity,\n            manufacturers[manufacturerID].carsprice\n        );\n    }\n\n    function manufactuerRevealBid(\n        uint256 manufacturerID,\n        uint256 supplierID,\n        uint256 price,\n        uint256 quantity,\n        uint256 key\n    ) public returns (bool) {\n        require(manufacturerID <= num_manufacturer, \"Invalid manufacturer\");\n        require(suppliers[supplierID].currentState == AuctionState.REVEALING);\n        // TODO: UNCOMMENT THE FOLLOWING TO ENSURE PEOPLE ARE ONLY REVEALING BIDS FOR THEMSELVES\n        // require(\n        //     manufacturers[manufacturerID].wallet == msg.sender,\n        //     \"Reveal only for yourself!\"\n        // );\n\n        for (\n            uint256 i = 0;\n            i < bidsTillNow[suppliers[supplierID].wallet].length;\n            i++\n        )\n            if (\n                bidsTillNow[suppliers[supplierID].wallet][i].buyerID ==\n                manufacturerID\n            ) {\n                require(\n                    keccak256(abi.encodePacked(key)) ==\n                        bidsTillNow[suppliers[supplierID].wallet][i]\n                            .blindKey,\n                    \"Incorrect key -- keeping your money\"\n                );\n                require(\n                    keccak256(abi.encodePacked(price + key)) ==\n                        bidsTillNow[suppliers[supplierID].wallet][i]\n                            .blindBidPrice,\n                    \"Incorrect price -- keeping your money\"\n                );\n                require(\n                    keccak256(abi.encodePacked(quantity + key)) ==\n                        bidsTillNow[suppliers[supplierID].wallet][i]\n                            .blindBidQuantity,\n                    \"Incorrect quantity -- keeping your money\"\n                );\n\n                uint256 effectivePrice = price * quantity;\n                require(\n                    effectivePrice <\n                        bidsTillNow[suppliers[supplierID].wallet][i].moneySent,\n                    \"Insufficient funds sent -- keeping your money\"\n                );\n\n                bidsTillNow[suppliers[supplierID].wallet][i]\n                    .correctReveal = true;\n\n                bidsTillNow[suppliers[supplierID].wallet][i].valuePrice = price;\n                bidsTillNow[suppliers[supplierID].wallet][i]\n                    .valueQuantity = quantity;\n                emit ManufacturerReveal(\n                    supplierID,\n                    manufacturerID,\n                    price,\n                    quantity,\n                    key\n                );\n\n                suppliers[supplierID].bidsRevealed += 1;\n                if (\n                    suppliers[supplierID].bidsRevealed ==\n                    suppliers[supplierID].maxBidders\n                ) {\n                    // go to allocation\n                    // supplierEndReveal(supplierID);\n                }\n\n                return true;\n            }\n        return false;\n    }\n\n    function manufacturerSupplyCars(uint256 manufacturerID) public {\n        require(num_manufacturer >= manufacturerID);\n        require(\n            msg.sender == manufacturers[manufacturerID].wallet ||\n                msg.sender == owner\n        );\n        for (\n            uint256 i = 0;\n            i < purchasesTillNow[manufacturers[manufacturerID].wallet].length;\n            i++\n        ) {\n            //Money is already checked, Quantity check is done here\n            if (\n                purchasesTillNow[manufacturers[manufacturerID].wallet][i]\n                    .quantity <= manufacturers[manufacturerID].cars\n            ) {\n                uint256 effective_price = purchasesTillNow[\n                    manufacturers[manufacturerID].wallet\n                ][i].quantity * manufacturers[manufacturerID].carsprice;\n                uint256 refund_amount = purchasesTillNow[\n                    manufacturers[manufacturerID].wallet\n                ][i].money - effective_price;\n\n                manufacturers[manufacturerID].cars -= purchasesTillNow[\n                    manufacturers[manufacturerID].wallet\n                ][i].quantity;\n                uint256 num_of_cars = purchasesTillNow[\n                    manufacturers[manufacturerID].wallet\n                ][i].quantity;\n                address mf_adrr = manufacturers[manufacturerID].wallet;\n                uint256[100] memory carTags;\n                uint256 carTagsIdx = 0;\n                for (uint256 j = 0; j < num_of_cars; j++) {\n                    uint256 idx = productsTillNow[mf_adrr].length - 1;\n                    Car memory newcar;\n                    newcar.tag = productsTillNow[mf_adrr][idx].tag;\n                    newcar.manufacturerID = manufacturerID;\n                    newcar.sellerIDA = productsTillNow[mf_adrr][idx].sellerA;\n                    newcar.sellerIDB = productsTillNow[mf_adrr][idx].sellerB;\n                    carsBought[purchasesTillNow[mf_adrr][idx].buyerID].push(\n                        newcar\n                    );\n                    productsTillNow[mf_adrr].pop();\n                    carTags[carTagsIdx++] = newcar.tag;\n                }\n                transferMoney(\n                    manufacturers[manufacturerID].wallet,\n                    effective_price\n                );\n                transferMoney(\n                    customers[\n                        purchasesTillNow[manufacturers[manufacturerID].wallet][\n                            i\n                        ].buyerID\n                    ].wallet,\n                    refund_amount\n                );\n                // refundMoney(\n                // customers[purchasesTillNow[manufacturers[manufacturerID].wallet][i].buyerID].wallet,\n                // refund_amount);\n                emit AllocateFromManufacturer(\n                    manufacturerID,\n                    purchasesTillNow[manufacturers[manufacturerID].wallet][i]\n                        .buyerID,\n                    purchasesTillNow[manufacturers[manufacturerID].wallet][i]\n                        .quantity,\n                    effective_price,\n                    carTags\n                );\n            } else {\n                //send them back the amount saying quantity not available\n                revert(\"Quantity not Available\"); //gas to caller\n            }\n        }\n        while (\n            purchasesTillNow[manufacturers[manufacturerID].wallet].length > 0\n        ) purchasesTillNow[manufacturers[manufacturerID].wallet].pop();\n    }\n\n    function addSupplier(\n        int256 partType,\n        uint256 quantityAvailable,\n        address payable addr,\n        uint256 auctionBidders\n    ) public {\n        num_supplier++;\n        suppliers[num_supplier] = Supplier(\n            num_supplier,\n            partType,\n            quantityAvailable,\n            AuctionState.NOT_STARTED,\n            addr,\n            auctionBidders,\n            0,\n            0\n        );\n    }\n\n    function addManufacturer(address payable addr, uint256 auctionBidders)\n        public\n    {\n        num_manufacturer++;\n        manufacturers[num_manufacturer] = Manufacturer(\n            num_manufacturer,\n            0,\n            0,\n            0,\n            0,\n            AuctionState.NOT_STARTED,\n            addr,\n            auctionBidders,\n            0,\n            0\n        );\n    }\n\n    function addCustomer(address payable addr) public {\n        num_customer++;\n        customers[num_customer] = Customer(num_customer, addr);\n    }\n\n    // Setter functions\n    function supplierAddQuantity(uint256 suppliedID, uint256 quantityToAdd)\n        public\n    {\n        require(suppliers[suppliedID].wallet == msg.sender);\n        require(num_supplier >= suppliedID);\n        // increase the supplier quantity\n        suppliers[suppliedID].quantityAvailable += quantityToAdd;\n    }\n\n    function updateManufacturerQuantities(\n        uint256 manufacturerID,\n        uint256 quantityA,\n        uint256 quantityB,\n        uint256 supplierA,\n        uint256 supplierB\n    ) private {\n        manufacturers[manufacturerID].quantityA += quantityA;\n        manufacturers[manufacturerID].quantityB += quantityB;\n        uint256 max_cars = minimum(\n            manufacturers[manufacturerID].quantityA,\n            manufacturers[manufacturerID].quantityB\n        );\n        manufacturers[manufacturerID].quantityA -= max_cars;\n        manufacturers[manufacturerID].quantityB -= max_cars;\n        manufacturers[manufacturerID].cars += max_cars;\n\n        Product memory newcar;\n        num_products++;\n        newcar.tag = num_products;\n        newcar.manufacturerID = manufacturerID;\n        newcar.sellerA = manufacturerID;\n        newcar.sellerB = 3;\n        productsTillNow[manufacturers[manufacturerID].wallet].push(newcar);\n    }\n\n    function set_cars_price(uint256 manufacturerID, uint256 price) public {\n        require(\n            msg.sender == manufacturers[manufacturerID].wallet ||\n                msg.sender == owner,\n            \"Cannot be set by you\"\n        );\n        manufacturers[manufacturerID].carsprice = price;\n    }\n\n    // Starting, ending and allocation of auction by supplier\n    event StartSupplierAuction(uint256 supplierID, uint256 startTime);\n    event EndSupplierAuction(uint256 supplierID, uint256 endTime);\n    event AllocateFromSupplier(\n        uint256 supplierID,\n        uint256 manufacturerID,\n        uint256 quantity,\n        uint256 price\n    );\n\n    // Starting, ending and allocation of auctions by manufacturers\n    event StartManufacturerAuction(uint256 manufacturerID, uint256 startTime);\n    event EndManufacturerAuction(uint256 manufacturerID, uint256 endTime);\n    event CustomerRequest(\n        uint256 CustomerID,\n        uint256 ManufacturerID,\n        uint256 Quantity,\n        uint256 Price\n    );\n    event AllocateFromManufacturer(\n        uint256 manufacturerID,\n        uint256 customerID,\n        uint256 quantity,\n        uint256 price,\n        uint256[100] carTag\n    );\n\n    // Manufacturer places a bid to the supplier\n    event ManufacturerBids(\n        uint256 supplierID,\n        uint256 manufacturerID,\n        bytes32 blindBidPrice,\n        bytes32 blindBidQuantity,\n        bytes32 blindKey\n    );\n    // Manufacturer reveals it's bid to the supplier by providing the key\n    event ManufacturerReveal(\n        uint256 supplierID,\n        uint256 manufacturerID,\n        uint256 price,\n        uint256 quantity,\n        uint256 key\n    );\n\n    // Customer places a bid to the manufacturer\n    event CustomerBid(\n        uint256 manufacturerID,\n        uint256 customerID,\n        bytes32 blindBid\n    );\n    event CustomerReveal(\n        uint256 manufacturerID,\n        uint256 customerID,\n        uint256 price,\n        uint256 quantity\n    );\n\n    // ALL GET FUNCTIONS\n\n    function verifyproduct(uint256 customerID, uint256 car_tag)\n        public\n        view\n        returns (\n            uint256 carID,\n            uint256 manfID,\n            uint256 sellerIDA,\n            uint256 sellerIDB\n        )\n    {\n        for (uint256 i = 0; i < carsBought[customerID].length; i++) {\n            if (carsBought[customerID][i].tag == car_tag)\n                return (\n                    car_tag,\n                    carsBought[customerID][i].manufacturerID,\n                    carsBought[customerID][i].sellerIDA,\n                    carsBought[customerID][i].sellerIDB\n                );\n        }\n        require(0 == 1, \"Car not found in they buyers purchases\");\n        return (0, 0, 0, 0);\n    }\n\n    //everyone can access it\n    function get_cars_price_quantity(uint256 manfID)\n        public\n        view\n        returns (uint256 price, uint256 quantity)\n    {\n        require(num_manufacturer >= manfID, \"Manufacturer ID doesnot exist\");\n        return (manufacturers[manfID].carsprice, manufacturers[manfID].cars);\n    }\n\n    function get_manufacturer_data(uint256 manfID)\n        public\n        view\n        returns (\n            uint256 tag,\n            uint256 quantA,\n            uint256 quantB,\n            uint256 cars\n        )\n    {\n        Manufacturer memory t = manufacturers[manfID];\n        return (t._tag, t.quantityA, t.quantityB, t.cars);\n    }\n\n    function get_car_data(uint256 customerID)\n        public\n        view\n        returns (uint256[10] memory cars)\n    {\n        uint256[10] memory data;\n        uint256 idx = 0;\n        for (uint256 i = 0; i < carsBought[customerID].length; i++) {\n            data[idx++] = carsBought[customerID][i].tag;\n        }\n        return data;\n    }\n    // all modifiers\n    modifier beforeOnly(uint256 _time) {\n        require(block.timestamp < _time);\n        _;\n    }\n    modifier afterOnly(uint256 _time) {\n        require(block.timestamp > _time);\n        _;\n    }\n    function getsuppliers() public view returns(uint256)\n    {\n        return num_supplier;\n    }\n    function getmanufacturers() public view returns(uint256)\n    {\n        return num_manufacturer;\n    }\n    function getstatus(uint256 supplierID) public view returns(AuctionState)\n    {\n        return suppliers[supplierID].currentState;\n    }\n    function getbidcount(uint256 supID) public view  returns (uint len){\n        return bidsTillNow[suppliers[supID].wallet].length;\n    }\n    //test only\n    function set_cars(uint256 manfID, uint256 quant) public {\n        manufacturers[manfID].cars = quant;\n    }\n}\n",
  "sourcePath": "/home/sahithi/acads/sem7/dtb/as1/Supply-Chain-Smartcontract/contracts/Marketplace.sol",
  "compiler": {
    "name": "solc",
    "version": "0.8.16+commit.07a7930e.Emscripten.clang"
  },
  "schemaVersion": "3.4.8",
  "updatedAt": "2022-08-31T19:34:15.827Z",
  "networkType": "ethereum",
  "devdoc": {
    "kind": "dev",
    "methods": {},
    "version": 1
  },
  "userdoc": {
    "kind": "user",
    "methods": {},
    "version": 1
  }
}