{
  "contractName": "Marketplace",
  "abi": [
    {
      "inputs": [],
      "stateMutability": "nonpayable",
      "type": "constructor"
    },
    {
      "anonymous": false,
      "inputs": [
        {
          "indexed": false,
          "internalType": "uint256",
          "name": "manufacturerID",
          "type": "uint256"
        },
        {
          "indexed": false,
          "internalType": "uint256",
          "name": "customerID",
          "type": "uint256"
        },
        {
          "indexed": false,
          "internalType": "uint256",
          "name": "quantity",
          "type": "uint256"
        },
        {
          "indexed": false,
          "internalType": "uint256",
          "name": "price",
          "type": "uint256"
        }
      ],
      "name": "AllocateFromManufacturer",
      "type": "event"
    },
    {
      "anonymous": false,
      "inputs": [
        {
          "indexed": false,
          "internalType": "uint256",
          "name": "supplierID",
          "type": "uint256"
        },
        {
          "indexed": false,
          "internalType": "uint256",
          "name": "manufacturerID",
          "type": "uint256"
        },
        {
          "indexed": false,
          "internalType": "uint256",
          "name": "quantity",
          "type": "uint256"
        },
        {
          "indexed": false,
          "internalType": "uint256",
          "name": "price",
          "type": "uint256"
        }
      ],
      "name": "AllocateFromSupplier",
      "type": "event"
    },
    {
      "anonymous": false,
      "inputs": [
        {
          "indexed": false,
          "internalType": "uint256",
          "name": "manufacturerID",
          "type": "uint256"
        },
        {
          "indexed": false,
          "internalType": "uint256",
          "name": "customerID",
          "type": "uint256"
        },
        {
          "indexed": false,
          "internalType": "bytes32",
          "name": "blindBid",
          "type": "bytes32"
        }
      ],
      "name": "CustomerBid",
      "type": "event"
    },
    {
      "anonymous": false,
      "inputs": [
        {
          "indexed": false,
          "internalType": "uint256",
          "name": "manufacturerID",
          "type": "uint256"
        },
        {
          "indexed": false,
          "internalType": "uint256",
          "name": "customerID",
          "type": "uint256"
        },
        {
          "indexed": false,
          "internalType": "uint256",
          "name": "price",
          "type": "uint256"
        },
        {
          "indexed": false,
          "internalType": "uint256",
          "name": "quantity",
          "type": "uint256"
        }
      ],
      "name": "CustomerReveal",
      "type": "event"
    },
    {
      "anonymous": false,
      "inputs": [
        {
          "indexed": false,
          "internalType": "uint256",
          "name": "manufacturerID",
          "type": "uint256"
        },
        {
          "indexed": false,
          "internalType": "uint256",
          "name": "endTime",
          "type": "uint256"
        }
      ],
      "name": "EndManufacturerAuction",
      "type": "event"
    },
    {
      "anonymous": false,
      "inputs": [
        {
          "indexed": false,
          "internalType": "uint256",
          "name": "supplierID",
          "type": "uint256"
        },
        {
          "indexed": false,
          "internalType": "uint256",
          "name": "endTime",
          "type": "uint256"
        }
      ],
      "name": "EndSupplierAuction",
      "type": "event"
    },
    {
      "anonymous": false,
      "inputs": [
        {
          "indexed": false,
          "internalType": "uint256",
          "name": "supplierID",
          "type": "uint256"
        },
        {
          "indexed": false,
          "internalType": "uint256",
          "name": "manufacturerID",
          "type": "uint256"
        },
        {
          "indexed": false,
          "internalType": "bytes32",
          "name": "blindBidPrice",
          "type": "bytes32"
        },
        {
          "indexed": false,
          "internalType": "bytes32",
          "name": "blindBidQuantity",
          "type": "bytes32"
        }
      ],
      "name": "ManufacturerBids",
      "type": "event"
    },
    {
      "anonymous": false,
      "inputs": [
        {
          "indexed": false,
          "internalType": "uint256",
          "name": "supplierID",
          "type": "uint256"
        },
        {
          "indexed": false,
          "internalType": "uint256",
          "name": "manufacturerID",
          "type": "uint256"
        },
        {
          "indexed": false,
          "internalType": "uint256",
          "name": "price",
          "type": "uint256"
        },
        {
          "indexed": false,
          "internalType": "uint256",
          "name": "quantity",
          "type": "uint256"
        }
      ],
      "name": "ManufacturerReveal",
      "type": "event"
    },
    {
      "anonymous": false,
      "inputs": [
        {
          "indexed": false,
          "internalType": "uint256",
          "name": "manufacturerID",
          "type": "uint256"
        },
        {
          "indexed": false,
          "internalType": "uint256",
          "name": "startTime",
          "type": "uint256"
        }
      ],
      "name": "StartManufacturerAuction",
      "type": "event"
    },
    {
      "anonymous": false,
      "inputs": [
        {
          "indexed": false,
          "internalType": "uint256",
          "name": "supplierID",
          "type": "uint256"
        },
        {
          "indexed": false,
          "internalType": "uint256",
          "name": "startTime",
          "type": "uint256"
        }
      ],
      "name": "StartSupplierAuction",
      "type": "event"
    },
    {
      "inputs": [
        {
          "internalType": "uint256",
          "name": "",
          "type": "uint256"
        }
      ],
      "name": "customers",
      "outputs": [
        {
          "internalType": "uint256",
          "name": "_tag",
          "type": "uint256"
        },
        {
          "internalType": "address",
          "name": "wallet",
          "type": "address"
        }
      ],
      "stateMutability": "view",
      "type": "function",
      "constant": true
    },
    {
      "inputs": [
        {
          "internalType": "uint256",
          "name": "",
          "type": "uint256"
        }
      ],
      "name": "manufacturers",
      "outputs": [
        {
          "internalType": "uint256",
          "name": "_tag",
          "type": "uint256"
        },
        {
          "internalType": "uint256",
          "name": "quantityA",
          "type": "uint256"
        },
        {
          "internalType": "uint256",
          "name": "quantityB",
          "type": "uint256"
        },
        {
          "internalType": "uint256",
          "name": "cars",
          "type": "uint256"
        },
        {
          "internalType": "enum Marketplace.AuctionState",
          "name": "currentState",
          "type": "uint8"
        },
        {
          "internalType": "address",
          "name": "wallet",
          "type": "address"
        },
        {
          "internalType": "uint256",
          "name": "maxBidders",
          "type": "uint256"
        }
      ],
      "stateMutability": "view",
      "type": "function",
      "constant": true
    },
    {
      "inputs": [],
      "name": "num_customer",
      "outputs": [
        {
          "internalType": "uint256",
          "name": "",
          "type": "uint256"
        }
      ],
      "stateMutability": "view",
      "type": "function",
      "constant": true
    },
    {
      "inputs": [],
      "name": "num_manufacturer",
      "outputs": [
        {
          "internalType": "uint256",
          "name": "",
          "type": "uint256"
        }
      ],
      "stateMutability": "view",
      "type": "function",
      "constant": true
    },
    {
      "inputs": [],
      "name": "num_supplier",
      "outputs": [
        {
          "internalType": "uint256",
          "name": "",
          "type": "uint256"
        }
      ],
      "stateMutability": "view",
      "type": "function",
      "constant": true
    },
    {
      "inputs": [],
      "name": "owner",
      "outputs": [
        {
          "internalType": "address payable",
          "name": "",
          "type": "address"
        }
      ],
      "stateMutability": "view",
      "type": "function",
      "constant": true
    },
    {
      "inputs": [
        {
          "internalType": "uint256",
          "name": "",
          "type": "uint256"
        }
      ],
      "name": "suppliers",
      "outputs": [
        {
          "internalType": "uint256",
          "name": "tag",
          "type": "uint256"
        },
        {
          "internalType": "int256",
          "name": "partType",
          "type": "int256"
        },
        {
          "internalType": "uint256",
          "name": "quantityAvailable",
          "type": "uint256"
        },
        {
          "internalType": "enum Marketplace.AuctionState",
          "name": "currentState",
          "type": "uint8"
        },
        {
          "internalType": "address",
          "name": "wallet",
          "type": "address"
        },
        {
          "internalType": "uint256",
          "name": "maxBidders",
          "type": "uint256"
        },
        {
          "internalType": "uint256",
          "name": "bidsPlaced",
          "type": "uint256"
        },
        {
          "internalType": "uint256",
          "name": "bidsRevealed",
          "type": "uint256"
        }
      ],
      "stateMutability": "view",
      "type": "function",
      "constant": true
    },
    {
      "inputs": [
        {
          "internalType": "uint256",
          "name": "a",
          "type": "uint256"
        },
        {
          "internalType": "uint256",
          "name": "b",
          "type": "uint256"
        }
      ],
      "name": "minimum",
      "outputs": [
        {
          "internalType": "uint256",
          "name": "",
          "type": "uint256"
        }
      ],
      "stateMutability": "pure",
      "type": "function",
      "constant": true
    },
    {
      "inputs": [
        {
          "internalType": "uint256",
          "name": "tag",
          "type": "uint256"
        }
      ],
      "name": "supplierStartAuction",
      "outputs": [
        {
          "internalType": "uint256",
          "name": "",
          "type": "uint256"
        }
      ],
      "stateMutability": "nonpayable",
      "type": "function"
    },
    {
      "inputs": [
        {
          "internalType": "uint256",
          "name": "tag",
          "type": "uint256"
        }
      ],
      "name": "supplierEndAuction",
      "outputs": [
        {
          "internalType": "uint256",
          "name": "",
          "type": "uint256"
        }
      ],
      "stateMutability": "nonpayable",
      "type": "function"
    },
    {
      "inputs": [
        {
          "internalType": "uint256",
          "name": "tag",
          "type": "uint256"
        }
      ],
      "name": "supplierEndReveal",
      "outputs": [
        {
          "internalType": "uint256",
          "name": "",
          "type": "uint256"
        }
      ],
      "stateMutability": "nonpayable",
      "type": "function"
    },
    {
      "inputs": [
        {
          "internalType": "uint256",
          "name": "manufacturerID",
          "type": "uint256"
        },
        {
          "internalType": "uint256",
          "name": "supplierID",
          "type": "uint256"
        },
        {
          "internalType": "bytes32",
          "name": "blindPrice",
          "type": "bytes32"
        },
        {
          "internalType": "bytes32",
          "name": "blindQuantity",
          "type": "bytes32"
        },
        {
          "internalType": "uint256",
          "name": "limit",
          "type": "uint256"
        }
      ],
      "name": "manufacturerPlacesBid",
      "outputs": [],
      "stateMutability": "nonpayable",
      "type": "function"
    },
    {
      "inputs": [
        {
          "internalType": "uint256",
          "name": "manufacturerID",
          "type": "uint256"
        },
        {
          "internalType": "uint256",
          "name": "supplierID",
          "type": "uint256"
        }
      ],
      "name": "customerPlacesBid",
      "outputs": [],
      "stateMutability": "nonpayable",
      "type": "function"
    },
    {
      "inputs": [
        {
          "internalType": "uint256",
          "name": "manufacturerID",
          "type": "uint256"
        },
        {
          "internalType": "uint256",
          "name": "supplierID",
          "type": "uint256"
        },
        {
          "internalType": "uint256",
          "name": "price",
          "type": "uint256"
        },
        {
          "internalType": "uint256",
          "name": "quantity",
          "type": "uint256"
        }
      ],
      "name": "manufactuerRevealBid",
      "outputs": [
        {
          "internalType": "bool",
          "name": "",
          "type": "bool"
        }
      ],
      "stateMutability": "nonpayable",
      "type": "function"
    },
    {
      "inputs": [
        {
          "internalType": "uint256",
          "name": "manufacturerID",
          "type": "uint256"
        }
      ],
      "name": "customerRevealBid",
      "outputs": [],
      "stateMutability": "nonpayable",
      "type": "function"
    },
    {
      "inputs": [
        {
          "internalType": "int256",
          "name": "partType",
          "type": "int256"
        },
        {
          "internalType": "uint256",
          "name": "quantityAvailable",
          "type": "uint256"
        },
        {
          "internalType": "address payable",
          "name": "addr",
          "type": "address"
        },
        {
          "internalType": "uint256",
          "name": "auctionBidders",
          "type": "uint256"
        }
      ],
      "name": "addSupplier",
      "outputs": [],
      "stateMutability": "nonpayable",
      "type": "function"
    },
    {
      "inputs": [
        {
          "internalType": "address payable",
          "name": "addr",
          "type": "address"
        },
        {
          "internalType": "uint256",
          "name": "auctionBidders",
          "type": "uint256"
        }
      ],
      "name": "addManufacturer",
      "outputs": [],
      "stateMutability": "nonpayable",
      "type": "function"
    },
    {
      "inputs": [
        {
          "internalType": "address payable",
          "name": "addr",
          "type": "address"
        }
      ],
      "name": "addCustomer",
      "outputs": [],
      "stateMutability": "nonpayable",
      "type": "function"
    },
    {
      "inputs": [
        {
          "internalType": "uint256",
          "name": "suppliedID",
          "type": "uint256"
        },
        {
          "internalType": "uint256",
          "name": "quantityToAdd",
          "type": "uint256"
        }
      ],
      "name": "supplierAddQuantity",
      "outputs": [],
      "stateMutability": "nonpayable",
      "type": "function"
    },
    {
      "inputs": [],
      "name": "getActors",
      "outputs": [
        {
          "internalType": "address[200]",
          "name": "",
          "type": "address[200]"
        }
      ],
      "stateMutability": "view",
      "type": "function",
      "constant": true
    },
    {
      "inputs": [],
      "name": "getBids",
      "outputs": [
        {
          "internalType": "uint256[100]",
          "name": "",
          "type": "uint256[100]"
        }
      ],
      "stateMutability": "view",
      "type": "function",
      "constant": true
    }
  ],
  "bytecode": "0x608060405234801561001057600080fd5b5033600760006101000a81548173ffffffffffffffffffffffffffffffffffffffff021916908373ffffffffffffffffffffffffffffffffffffffff16021790555060006001819055506000808190555060006002819055506139c4806100786000396000f3fe608060405234801561001057600080fd5b50600436106101375760003560e01c8063aa8613c4116100b8578063c8390cec1161007c578063c8390cec14610353578063cea231211461036f578063dd2d2a12146103a6578063e2416a2c146103d6578063eb16d0e414610406578063edcac78b1461042457610137565b8063aa8613c41461029c578063ad973d74146102cc578063b81c78ec146102e8578063b820185114610306578063c0abda2a1461032257610137565b80634cc9aff8116100ff5780634cc9aff8146101f25780638da5cb5b1461021057806390175af11461022e5780639a7a9b1314610264578063a436792b1461028057610137565b80630cf3750d1461013c578063137e7a7d146101585780631788b2d91461017657806317c9dea6146101a657806318c15d42146101d6575b600080fd5b61015660048036038101906101519190612d29565b610442565b005b6101606104f0565b60405161016d9190612e46565b60405180910390f35b610190600480360381019061018b9190612e62565b61071f565b60405161019d9190612ee4565b60405180910390f35b6101c060048036038101906101bb9190612eff565b610d96565b6040516101cd9190612f3b565b60405180910390f35b6101f060048036038101906101eb9190612f8c565b610f1e565b005b6101fa611307565b6040516102079190612f3b565b60405180910390f35b61021861130d565b6040516102259190613028565b60405180910390f35b61024860048036038101906102439190612eff565b611333565b60405161025b97969594939291906130c9565b60405180910390f35b61027e6004803603810190610279919061319a565b6113a2565b005b61029a60048036038101906102959190613201565b6114f0565b005b6102b660048036038101906102b19190612eff565b61162e565b6040516102c39190612f3b565b60405180910390f35b6102e660048036038101906102e19190613241565b61179a565b005b6102f061184b565b6040516102fd9190613319565b60405180910390f35b610320600480360381019061031b9190612d29565b611cf2565b005b61033c60048036038101906103379190612eff565b611cf6565b60405161034a929190613335565b60405180910390f35b61036d60048036038101906103689190612eff565b611d3a565b005b61038960048036038101906103849190612eff565b611d3d565b60405161039d98979695949392919061336d565b60405180910390f35b6103c060048036038101906103bb9190612d29565b611db2565b6040516103cd9190612f3b565b60405180910390f35b6103f060048036038101906103eb9190612eff565b611dcc565b6040516103fd9190612f3b565b60405180910390f35b61040e612c2c565b60405161041b9190612f3b565b60405180910390f35b61042c612c32565b6040516104399190612f3b565b60405180910390f35b3373ffffffffffffffffffffffffffffffffffffffff166003600084815260200190815260200160002060030160019054906101000a900473ffffffffffffffffffffffffffffffffffffffff1673ffffffffffffffffffffffffffffffffffffffff16146104b057600080fd5b8160005410156104bf57600080fd5b806003600084815260200190815260200160002060020160008282546104e5919061341a565b925050819055505050565b6104f8612c3e565b610500612c3e565b600080600190505b60005481116105b2576003600082815260200190815260200160002060030160019054906101000a900473ffffffffffffffffffffffffffffffffffffffff168383806105549061344e565b945060c8811061056757610566613496565b5b602002019073ffffffffffffffffffffffffffffffffffffffff16908173ffffffffffffffffffffffffffffffffffffffff16815250506001816105ab919061341a565b9050610508565b506000600190505b6001548111610664576004600082815260200190815260200160002060040160019054906101000a900473ffffffffffffffffffffffffffffffffffffffff168383806106069061344e565b945060c8811061061957610618613496565b5b602002019073ffffffffffffffffffffffffffffffffffffffff16908173ffffffffffffffffffffffffffffffffffffffff168152505060018161065d919061341a565b90506105ba565b506000600190505b6002548111610716576005600082815260200190815260200160002060010160009054906101000a900473ffffffffffffffffffffffffffffffffffffffff168383806106b89061344e565b945060c881106106cb576106ca613496565b5b602002019073ffffffffffffffffffffffffffffffffffffffff16908173ffffffffffffffffffffffffffffffffffffffff168152505060018161070f919061341a565b905061066c565b50819250505090565b6000600154851115610766576040517f08c379a000000000000000000000000000000000000000000000000000000000815260040161075d90613522565b60405180910390fd5b60005b600660006003600088815260200190815260200160002060030160019054906101000a900473ffffffffffffffffffffffffffffffffffffffff1673ffffffffffffffffffffffffffffffffffffffff1673ffffffffffffffffffffffffffffffffffffffff16815260200190815260200160002080549050811015610d885785600660006003600089815260200190815260200160002060030160019054906101000a900473ffffffffffffffffffffffffffffffffffffffff1673ffffffffffffffffffffffffffffffffffffffff1673ffffffffffffffffffffffffffffffffffffffff168152602001908152602001600020828154811061087157610870613496565b5b90600052602060002090600902016006015403610d7557600660006003600088815260200190815260200160002060030160019054906101000a900473ffffffffffffffffffffffffffffffffffffffff1673ffffffffffffffffffffffffffffffffffffffff1673ffffffffffffffffffffffffffffffffffffffff168152602001908152602001600020818154811061090f5761090e613496565b5b906000526020600020906009020160030154846040516020016109329190613563565b6040516020818303038152906040528051906020012014610a08576000600660006003600089815260200190815260200160002060030160019054906101000a900473ffffffffffffffffffffffffffffffffffffffff1673ffffffffffffffffffffffffffffffffffffffff1673ffffffffffffffffffffffffffffffffffffffff16815260200190815260200160002082815481106109d6576109d5613496565b5b906000526020600020906009020160080160006101000a81548160ff0219169083151502179055506000915050610d8e565b600660006003600088815260200190815260200160002060030160019054906101000a900473ffffffffffffffffffffffffffffffffffffffff1673ffffffffffffffffffffffffffffffffffffffff1673ffffffffffffffffffffffffffffffffffffffff1681526020019081526020016000208181548110610a8f57610a8e613496565b5b90600052602060002090600902016004015483604051602001610ab29190613563565b6040516020818303038152906040528051906020012014610b88576000600660006003600089815260200190815260200160002060030160019054906101000a900473ffffffffffffffffffffffffffffffffffffffff1673ffffffffffffffffffffffffffffffffffffffff1673ffffffffffffffffffffffffffffffffffffffff1681526020019081526020016000208281548110610b5657610b55613496565b5b906000526020600020906009020160080160006101000a81548160ff0219169083151502179055506000915050610d8e565b83600660006003600089815260200190815260200160002060030160019054906101000a900473ffffffffffffffffffffffffffffffffffffffff1673ffffffffffffffffffffffffffffffffffffffff1673ffffffffffffffffffffffffffffffffffffffff1681526020019081526020016000208281548110610c1057610c0f613496565b5b90600052602060002090600902016000018190555082600660006003600089815260200190815260200160002060030160019054906101000a900473ffffffffffffffffffffffffffffffffffffffff1673ffffffffffffffffffffffffffffffffffffffff1673ffffffffffffffffffffffffffffffffffffffff1681526020019081526020016000208281548110610cad57610cac613496565b5b9060005260206000209060090201600101819055507fee291b467c1ae7dd29ffc047df3454190c09d3730496830a392209c7bc38f5ca85878686604051610cf7949392919061357e565b60405180910390a16001600360008781526020019081526020016000206006016000828254610d26919061341a565b925050819055506003600086815260200190815260200160002060040154600360008781526020019081526020016000206006015403610d6b57610d6985611dcc565b505b6001915050610d8e565b8080610d809061344e565b915050610769565b50600090505b949350505050565b60008054821115610ddc576040517f08c379a0000000000000000000000000000000000000000000000000000000008152600401610dd39061360f565b60405180910390fd5b60006003811115610df057610def613043565b5b6003600084815260200190815260200160002060030160009054906101000a900460ff166003811115610e2657610e25613043565b5b03610e66576040517f08c379a0000000000000000000000000000000000000000000000000000000008152600401610e5d9061367b565b60405180910390fd5b60006003600084815260200190815260200160002060030160006101000a81548160ff02191690836003811115610ea057610e9f613043565b5b021790555060006003600084815260200190815260200160002060050181905550600060036000848152602001908152602001600020600601819055507f10449cff8425a2b933fdd57a667ad5bdad3da817ddd9179f125f5c7756582e178242604051610f0e92919061369b565b60405180910390a1429050919050565b846001541015610f63576040517f08c379a0000000000000000000000000000000000000000000000000000000008152600401610f5a90613710565b60405180910390fd5b836000541015610fa8576040517f08c379a0000000000000000000000000000000000000000000000000000000008152600401610f9f9061377c565b60405180910390fd5b60006003811115610fbc57610fbb613043565b5b6003600086815260200190815260200160002060030160009054906101000a900460ff166003811115610ff257610ff1613043565b5b14611032576040517f08c379a00000000000000000000000000000000000000000000000000000000081526004016110299061380e565b60405180910390fd5b61103a612c61565b33816040019073ffffffffffffffffffffffffffffffffffffffff16908173ffffffffffffffffffffffffffffffffffffffff1681525050858160c0018181525050848160e00181815250508381606001818152505082816080018181525050818160a00181815250506000816000018181525050600081602001818152505060018161010001901515908115158152505060006003600087815260200190815260200160002060030160019054906101000a900473ffffffffffffffffffffffffffffffffffffffff169050600660008273ffffffffffffffffffffffffffffffffffffffff1673ffffffffffffffffffffffffffffffffffffffff168152602001908152602001600020829080600181540180825580915050600190039060005260206000209060090201600090919091909150600082015181600001556020820151816001015560408201518160020160006101000a81548173ffffffffffffffffffffffffffffffffffffffff021916908373ffffffffffffffffffffffffffffffffffffffff160217905550606082015181600301556080820151816004015560a0820151816005015560c0820151816006015560e082015181600701556101008201518160080160006101000a81548160ff02191690831515021790555050506001600360008881526020019081526020016000206005016000828254611247919061341a565b925050819055507fdbd4ed8ca35fd076d8fdc3ddae80bf4fac4fc55dd918d5868cf2b92f82d2de5386888787604051611283949392919061383d565b60405180910390a160036000878152602001908152602001600020600401546003600088815260200190815260200160002060050154036112fe5760016003600088815260200190815260200160002060030160006101000a81548160ff021916908360038111156112f8576112f7613043565b5b02179055505b50505050505050565b60015481565b600760009054906101000a900473ffffffffffffffffffffffffffffffffffffffff1681565b60046020528060005260406000206000915090508060000154908060010154908060020154908060030154908060040160009054906101000a900460ff16908060040160019054906101000a900473ffffffffffffffffffffffffffffffffffffffff16908060050154905087565b6000808154809291906113b49061344e565b91905055506040518061010001604052806000548152602001858152602001848152602001600260038111156113ed576113ec613043565b5b81526020018373ffffffffffffffffffffffffffffffffffffffff168152602001828152602001600081526020016000815250600360008054815260200190815260200160002060008201518160000155602082015181600101556040820151816002015560608201518160030160006101000a81548160ff0219169083600381111561147d5761147c613043565b5b021790555060808201518160030160016101000a81548173ffffffffffffffffffffffffffffffffffffffff021916908373ffffffffffffffffffffffffffffffffffffffff16021790555060a0820151816004015560c0820151816005015560e0820151816006015590505050505050565b600160008154809291906115039061344e565b91905055506040518060e0016040528060015481526020016000815260200160008152602001600081526020016002600381111561154457611543613043565b5b81526020018373ffffffffffffffffffffffffffffffffffffffff168152602001828152506004600060015481526020019081526020016000206000820151816000015560208201518160010155604082015181600201556060820151816003015560808201518160040160006101000a81548160ff021916908360038111156115d1576115d0613043565b5b021790555060a08201518160040160016101000a81548173ffffffffffffffffffffffffffffffffffffffff021916908373ffffffffffffffffffffffffffffffffffffffff16021790555060c082015181600501559050505050565b60008054821115611674576040517f08c379a000000000000000000000000000000000000000000000000000000000815260040161166b9061360f565b60405180910390fd5b6000600381111561168857611687613043565b5b6003600084815260200190815260200160002060030160009054906101000a900460ff1660038111156116be576116bd613043565b5b146116fe576040517f08c379a00000000000000000000000000000000000000000000000000000000081526004016116f5906138ce565b60405180910390fd5b60016003600084815260200190815260200160002060030160006101000a81548160ff0219169083600381111561173857611737613043565b5b0217905550600060036000848152602001908152602001600020600601819055507f0c368e4cdd0e23707857d20056076efe6f588f9ce71ab6ce676d331fdc035f5b824260405161178a92919061369b565b60405180910390a1429050919050565b600260008154809291906117ad9061344e565b9190505550604051806040016040528060025481526020018273ffffffffffffffffffffffffffffffffffffffff168152506005600060025481526020019081526020016000206000820151816000015560208201518160010160006101000a81548173ffffffffffffffffffffffffffffffffffffffff021916908373ffffffffffffffffffffffffffffffffffffffff16021790555090505050565b611853612ccb565b61185b612ccb565b600080600190505b6000548111611ce95760005b600660006003600085815260200190815260200160002060030160019054906101000a900473ffffffffffffffffffffffffffffffffffffffff1673ffffffffffffffffffffffffffffffffffffffff1673ffffffffffffffffffffffffffffffffffffffff16815260200190815260200160002080549050811015611cd557600660006003600085815260200190815260200160002060030160019054906101000a900473ffffffffffffffffffffffffffffffffffffffff1673ffffffffffffffffffffffffffffffffffffffff1673ffffffffffffffffffffffffffffffffffffffff168152602001908152602001600020818154811061197657611975613496565b5b9060005260206000209060090201600601548484806119949061344e565b9550606481106119a7576119a6613496565b5b602002018181525050600660006003600085815260200190815260200160002060030160019054906101000a900473ffffffffffffffffffffffffffffffffffffffff1673ffffffffffffffffffffffffffffffffffffffff1673ffffffffffffffffffffffffffffffffffffffff1681526020019081526020016000208181548110611a3757611a36613496565b5b906000526020600020906009020160070154848480611a559061344e565b955060648110611a6857611a67613496565b5b602002018181525050600660006003600085815260200190815260200160002060030160019054906101000a900473ffffffffffffffffffffffffffffffffffffffff1673ffffffffffffffffffffffffffffffffffffffff1673ffffffffffffffffffffffffffffffffffffffff1681526020019081526020016000208181548110611af857611af7613496565b5b906000526020600020906009020160010154848480611b169061344e565b955060648110611b2957611b28613496565b5b602002018181525050600660006003600085815260200190815260200160002060030160019054906101000a900473ffffffffffffffffffffffffffffffffffffffff1673ffffffffffffffffffffffffffffffffffffffff1673ffffffffffffffffffffffffffffffffffffffff1681526020019081526020016000208181548110611bb957611bb8613496565b5b906000526020600020906009020160000154848480611bd79061344e565b955060648110611bea57611be9613496565b5b602002018181525050600660006003600085815260200190815260200160002060030160019054906101000a900473ffffffffffffffffffffffffffffffffffffffff1673ffffffffffffffffffffffffffffffffffffffff1673ffffffffffffffffffffffffffffffffffffffff1681526020019081526020016000208181548110611c7a57611c79613496565b5b906000526020600020906009020160050154848480611c989061344e565b955060648110611cab57611caa613496565b5b6020020181815250508280611cbf9061344e565b9350508080611ccd9061344e565b91505061186f565b508080611ce19061344e565b915050611863565b50819250505090565b5050565b60056020528060005260406000206000915090508060000154908060010160009054906101000a900473ffffffffffffffffffffffffffffffffffffffff16905082565b50565b60036020528060005260406000206000915090508060000154908060010154908060020154908060030160009054906101000a900460ff16908060030160019054906101000a900473ffffffffffffffffffffffffffffffffffffffff16908060040154908060050154908060060154905088565b600081831015611dc25782611dc4565b815b905092915050565b60008054821115611e12576040517f08c379a0000000000000000000000000000000000000000000000000000000008152600401611e099061377c565b60405180910390fd5b60016003811115611e2657611e25613043565b5b6003600084815260200190815260200160002060030160009054906101000a900460ff166003811115611e5c57611e5b613043565b5b14611e9c576040517f08c379a0000000000000000000000000000000000000000000000000000000008152600401611e939061393a565b60405180910390fd5b600380600084815260200190815260200160002060030160006101000a81548160ff02191690836003811115611ed557611ed4613043565b5b021790555060005b600660006003600086815260200190815260200160002060030160019054906101000a900473ffffffffffffffffffffffffffffffffffffffff1673ffffffffffffffffffffffffffffffffffffffff1673ffffffffffffffffffffffffffffffffffffffff168152602001908152602001600020805490508110156125735760005b8181101561255f57600660006003600087815260200190815260200160002060030160019054906101000a900473ffffffffffffffffffffffffffffffffffffffff1673ffffffffffffffffffffffffffffffffffffffff1673ffffffffffffffffffffffffffffffffffffffff1681526020019081526020016000208181548110611fef57611fee613496565b5b906000526020600020906009020160000154600660006003600088815260200190815260200160002060030160019054906101000a900473ffffffffffffffffffffffffffffffffffffffff1673ffffffffffffffffffffffffffffffffffffffff1673ffffffffffffffffffffffffffffffffffffffff168152602001908152602001600020838154811061208857612087613496565b5b906000526020600020906009020160000154101561254c576000600660006003600088815260200190815260200160002060030160019054906101000a900473ffffffffffffffffffffffffffffffffffffffff1673ffffffffffffffffffffffffffffffffffffffff1673ffffffffffffffffffffffffffffffffffffffff168152602001908152602001600020838154811061212957612128613496565b5b90600052602060002090600902016040518061012001604052908160008201548152602001600182015481526020016002820160009054906101000a900473ffffffffffffffffffffffffffffffffffffffff1673ffffffffffffffffffffffffffffffffffffffff1673ffffffffffffffffffffffffffffffffffffffff16815260200160038201548152602001600482015481526020016005820154815260200160068201548152602001600782015481526020016008820160009054906101000a900460ff1615151515815250509050600660006003600088815260200190815260200160002060030160019054906101000a900473ffffffffffffffffffffffffffffffffffffffff1673ffffffffffffffffffffffffffffffffffffffff1673ffffffffffffffffffffffffffffffffffffffff168152602001908152602001600020828154811061228357612282613496565b5b9060005260206000209060090201600660006003600089815260200190815260200160002060030160019054906101000a900473ffffffffffffffffffffffffffffffffffffffff1673ffffffffffffffffffffffffffffffffffffffff1673ffffffffffffffffffffffffffffffffffffffff168152602001908152602001600020848154811061231857612317613496565b5b906000526020600020906009020160008201548160000155600182015481600101556002820160009054906101000a900473ffffffffffffffffffffffffffffffffffffffff168160020160006101000a81548173ffffffffffffffffffffffffffffffffffffffff021916908373ffffffffffffffffffffffffffffffffffffffff16021790555060038201548160030155600482015481600401556005820154816005015560068201548160060155600782015481600701556008820160009054906101000a900460ff168160080160006101000a81548160ff02191690831515021790555090505080600660006003600089815260200190815260200160002060030160019054906101000a900473ffffffffffffffffffffffffffffffffffffffff1673ffffffffffffffffffffffffffffffffffffffff1673ffffffffffffffffffffffffffffffffffffffff168152602001908152602001600020838154811061248b5761248a613496565b5b9060005260206000209060090201600082015181600001556020820151816001015560408201518160020160006101000a81548173ffffffffffffffffffffffffffffffffffffffff021916908373ffffffffffffffffffffffffffffffffffffffff160217905550606082015181600301556080820151816004015560a0820151816005015560c0820151816006015560e082015181600701556101008201518160080160006101000a81548160ff021916908315150217905550905050505b80806125579061344e565b915050611f60565b50808061256b9061344e565b915050611edd565b5061257c612ccb565b612584612ccb565b60005b600660006003600088815260200190815260200160002060030160019054906101000a900473ffffffffffffffffffffffffffffffffffffffff1673ffffffffffffffffffffffffffffffffffffffff1673ffffffffffffffffffffffffffffffffffffffff1681526020019081526020016000208054905081101561283c576000600660006003600089815260200190815260200160002060030160019054906101000a900473ffffffffffffffffffffffffffffffffffffffff1673ffffffffffffffffffffffffffffffffffffffff1673ffffffffffffffffffffffffffffffffffffffff16815260200190815260200160002082815481106126905761268f613496565b5b90600052602060002090600902016040518061012001604052908160008201548152602001600182015481526020016002820160009054906101000a900473ffffffffffffffffffffffffffffffffffffffff1673ffffffffffffffffffffffffffffffffffffffff1673ffffffffffffffffffffffffffffffffffffffff16815260200160038201548152602001600482015481526020016005820154815260200160068201548152602001600782015481526020016008820160009054906101000a900460ff1615151515815250509050600061278960036000898152602001908152602001600020600201548360a00151611db2565b9050612799818360200151611db2565b90508160000151858360c00151606481106127b7576127b6613496565b5b60200201818152505080848360c00151606481106127d8576127d7613496565b5b60200201818152505080600360008981526020019081526020016000206002016000828254612807919061395a565b925050819055508082602001818151612820919061395a565b91508181525050505080806128349061344e565b915050612587565b5060005b600660006003600088815260200190815260200160002060030160019054906101000a900473ffffffffffffffffffffffffffffffffffffffff1673ffffffffffffffffffffffffffffffffffffffff1673ffffffffffffffffffffffffffffffffffffffff16815260200190815260200160002080549050811015612acf576000600660006003600089815260200190815260200160002060030160019054906101000a900473ffffffffffffffffffffffffffffffffffffffff1673ffffffffffffffffffffffffffffffffffffffff1673ffffffffffffffffffffffffffffffffffffffff168152602001908152602001600020828154811061294957612948613496565b5b90600052602060002090600902016040518061012001604052908160008201548152602001600182015481526020016002820160009054906101000a900473ffffffffffffffffffffffffffffffffffffffff1673ffffffffffffffffffffffffffffffffffffffff1673ffffffffffffffffffffffffffffffffffffffff16815260200160038201548152602001600482015481526020016005820154815260200160068201548152602001600782015481526020016008820160009054906101000a900460ff16151515158152505090506000612a4260036000898152602001908152602001600020600201548360200151611db2565b905080848360c0015160648110612a5c57612a5b613496565b5b60200201818151612a6d919061341a565b9150818152505080600360008981526020019081526020016000206002016000828254612a9a919061395a565b925050819055508082602001818151612ab3919061395a565b9150818152505050508080612ac79061344e565b915050612840565b5060005b6064811015612c21576000828260648110612af157612af0613496565b5b60200201511115612c0e577f389cc4d2b135e7b676a809ad7bacdde1b644b0bbe73afdd545a176ea73b955178582848460648110612b3257612b31613496565b5b6020020151868560648110612b4a57612b49613496565b5b6020020151604051612b5f949392919061357e565b60405180910390a1612c0d6003600087815260200190815260200160002060030160019054906101000a900473ffffffffffffffffffffffffffffffffffffffff166004600084815260200190815260200160002060040160019054906101000a900473ffffffffffffffffffffffffffffffffffffffff16858460648110612beb57612bea613496565b5b6020020151858560648110612c0357612c02613496565b5b6020020151612c38565b5b8080612c199061344e565b915050612ad3565b504292505050919050565b60025481565b60005481565b50505050565b60405180611900016040528060c890602082028036833780820191505090505090565b6040518061012001604052806000815260200160008152602001600073ffffffffffffffffffffffffffffffffffffffff16815260200160008019168152602001600080191681526020016000815260200160008152602001600081526020016000151581525090565b60405180610c800160405280606490602082028036833780820191505090505090565b600080fd5b6000819050919050565b612d0681612cf3565b8114612d1157600080fd5b50565b600081359050612d2381612cfd565b92915050565b60008060408385031215612d4057612d3f612cee565b5b6000612d4e85828601612d14565b9250506020612d5f85828601612d14565b9150509250929050565b600060c89050919050565b600081905092915050565b6000819050919050565b600073ffffffffffffffffffffffffffffffffffffffff82169050919050565b6000612db482612d89565b9050919050565b612dc481612da9565b82525050565b6000612dd68383612dbb565b60208301905092915050565b6000602082019050919050565b612df881612d69565b612e028184612d74565b9250612e0d82612d7f565b8060005b83811015612e3e578151612e258782612dca565b9650612e3083612de2565b925050600181019050612e11565b505050505050565b600061190082019050612e5c6000830184612def565b92915050565b60008060008060808587031215612e7c57612e7b612cee565b5b6000612e8a87828801612d14565b9450506020612e9b87828801612d14565b9350506040612eac87828801612d14565b9250506060612ebd87828801612d14565b91505092959194509250565b60008115159050919050565b612ede81612ec9565b82525050565b6000602082019050612ef96000830184612ed5565b92915050565b600060208284031215612f1557612f14612cee565b5b6000612f2384828501612d14565b91505092915050565b612f3581612cf3565b82525050565b6000602082019050612f506000830184612f2c565b92915050565b6000819050919050565b612f6981612f56565b8114612f7457600080fd5b50565b600081359050612f8681612f60565b92915050565b600080600080600060a08688031215612fa857612fa7612cee565b5b6000612fb688828901612d14565b9550506020612fc788828901612d14565b9450506040612fd888828901612f77565b9350506060612fe988828901612f77565b9250506080612ffa88828901612d14565b9150509295509295909350565b600061301282612d89565b9050919050565b61302281613007565b82525050565b600060208201905061303d6000830184613019565b92915050565b7f4e487b7100000000000000000000000000000000000000000000000000000000600052602160045260246000fd5b6004811061308357613082613043565b5b50565b600081905061309482613072565b919050565b60006130a482613086565b9050919050565b6130b481613099565b82525050565b6130c381612da9565b82525050565b600060e0820190506130de600083018a612f2c565b6130eb6020830189612f2c565b6130f86040830188612f2c565b6131056060830187612f2c565b61311260808301866130ab565b61311f60a08301856130ba565b61312c60c0830184612f2c565b98975050505050505050565b6000819050919050565b61314b81613138565b811461315657600080fd5b50565b60008135905061316881613142565b92915050565b61317781613007565b811461318257600080fd5b50565b6000813590506131948161316e565b92915050565b600080600080608085870312156131b4576131b3612cee565b5b60006131c287828801613159565b94505060206131d387828801612d14565b93505060406131e487828801613185565b92505060606131f587828801612d14565b91505092959194509250565b6000806040838503121561321857613217612cee565b5b600061322685828601613185565b925050602061323785828601612d14565b9150509250929050565b60006020828403121561325757613256612cee565b5b600061326584828501613185565b91505092915050565b600060649050919050565b600081905092915050565b6000819050919050565b61329781612cf3565b82525050565b60006132a9838361328e565b60208301905092915050565b6000602082019050919050565b6132cb8161326e565b6132d58184613279565b92506132e082613284565b8060005b838110156133115781516132f8878261329d565b9650613303836132b5565b9250506001810190506132e4565b505050505050565b6000610c808201905061332f60008301846132c2565b92915050565b600060408201905061334a6000830185612f2c565b61335760208301846130ba565b9392505050565b61336781613138565b82525050565b600061010082019050613383600083018b612f2c565b613390602083018a61335e565b61339d6040830189612f2c565b6133aa60608301886130ab565b6133b760808301876130ba565b6133c460a0830186612f2c565b6133d160c0830185612f2c565b6133de60e0830184612f2c565b9998505050505050505050565b7f4e487b7100000000000000000000000000000000000000000000000000000000600052601160045260246000fd5b600061342582612cf3565b915061343083612cf3565b9250828201905080821115613448576134476133eb565b5b92915050565b600061345982612cf3565b91507fffffffffffffffffffffffffffffffffffffffffffffffffffffffffffffffff820361348b5761348a6133eb565b5b600182019050919050565b7f4e487b7100000000000000000000000000000000000000000000000000000000600052603260045260246000fd5b600082825260208201905092915050565b7f496e76616c6964206d616e756661637475726572000000000000000000000000600082015250565b600061350c6014836134c5565b9150613517826134d6565b602082019050919050565b6000602082019050818103600083015261353b816134ff565b9050919050565b6000819050919050565b61355d61355882612cf3565b613542565b82525050565b600061356f828461354c565b60208201915081905092915050565b60006080820190506135936000830187612f2c565b6135a06020830186612f2c565b6135ad6040830185612f2c565b6135ba6060830184612f2c565b95945050505050565b7f5573657220646f65736e27742065786973740000000000000000000000000000600082015250565b60006135f96012836134c5565b9150613604826135c3565b602082019050919050565b60006020820190508181036000830152613628816135ec565b9050919050565b7f41756374696f6e20696e2d70726f677265737320616c72656164790000000000600082015250565b6000613665601b836134c5565b91506136708261362f565b602082019050919050565b6000602082019050818103600083015261369481613658565b9050919050565b60006040820190506136b06000830185612f2c565b6136bd6020830184612f2c565b9392505050565b7f4d616e75666163747572657220646f65736e2774206578697374000000000000600082015250565b60006136fa601a836134c5565b9150613705826136c4565b602082019050919050565b60006020820190508181036000830152613729816136ed565b9050919050565b7f537570706c69657220646f65736e277420657869737400000000000000000000600082015250565b60006137666016836134c5565b915061377182613730565b602082019050919050565b6000602082019050818103600083015261379581613759565b9050919050565b7f537570706c6965722069736e27742072756e6e696e6720616e2061756374696f60008201527f6e207269676874206e6f77000000000000000000000000000000000000000000602082015250565b60006137f8602b836134c5565b91506138038261379c565b604082019050919050565b60006020820190508181036000830152613827816137eb565b9050919050565b61383781612f56565b82525050565b60006080820190506138526000830187612f2c565b61385f6020830186612f2c565b61386c604083018561382e565b613879606083018461382e565b95945050505050565b7f41756374696f6e20656e64656420616c72656164790000000000000000000000600082015250565b60006138b86015836134c5565b91506138c382613882565b602082019050919050565b600060208201905081810360008301526138e7816138ab565b9050919050565b7f52657665616c207068617365206e6f742072756e6e696e670000000000000000600082015250565b60006139246018836134c5565b915061392f826138ee565b602082019050919050565b6000602082019050818103600083015261395381613917565b9050919050565b600061396582612cf3565b915061397083612cf3565b9250828203905081811115613988576139876133eb565b5b9291505056fea2646970667358221220fe519b33a9f5a9b1e0a910639297b8852224ef1539002e67423b3ab5a4bb10f664736f6c63430008100033",
  "immutableReferences": {},
  "source": "pragma solidity >=0.8.16;\npragma experimental ABIEncoderV2;\n\nimport {FirstAuction} from \"./auction.sol\";\n\ncontract Marketplace {\n    enum AuctionState {\n        RUNNING, // auction is running and bids are being places\n        REVEALING, // auction has ended and bidders are revealing their bids\n        NOT_STARTED, // auction hasn't started yet\n        FINISHED // auction has finished\n    }\n\n    struct Bid {\n        uint256 valuePrice;\n        uint256 valueQuantity;\n        address payable bidderAddress;\n        bytes32 blindBidPrice; // will have price and quantity you are bidding\n        bytes32 blindBidQuantity;\n        uint256 limitingResourceQuantity;\n        uint256 buyerID;\n        uint256 sellerID;\n        bool correctReveal;\n    }\n\n    uint256 public num_supplier;\n    uint256 public num_manufacturer;\n    uint256 public num_customer;\n\n    mapping(uint256 => Supplier) public suppliers;\n    mapping(uint256 => Manufacturer) public manufacturers;\n    mapping(uint256 => Customer) public customers;\n    mapping(address => Bid[]) bidsTillNow;\n\n    address payable public owner;\n\n    constructor() {\n        owner = payable(msg.sender);\n        num_manufacturer = 0;\n        num_supplier = 0;\n        num_customer = 0;\n    }\n\n    struct Supplier {\n        uint256 tag;\n        int256 partType;\n        uint256 quantityAvailable;\n        AuctionState currentState;\n        address wallet;\n        uint256 maxBidders;\n        uint256 bidsPlaced;\n        uint256 bidsRevealed;\n    }\n\n    struct Manufacturer {\n        uint256 _tag;\n        uint256 quantityA;\n        uint256 quantityB;\n        uint256 cars;\n        AuctionState currentState;\n        address wallet;\n        uint256 maxBidders;\n    }\n\n    struct Customer {\n        uint256 _tag;\n        address wallet;\n    }\n\n    // function makeBidSupplier(int index, ...) public {\n    //     suppliers[index].auction.makeBid(...);\n    // }\n    // Helpers\n    function minimum(uint256 a, uint256 b) public pure returns (uint256) {\n        return a >= b ? b : a;\n    }\n\n    function supplierStartAuction(uint256 tag) public returns (uint256) {\n        // function for supplier to start their bidding process\n        require(tag <= num_supplier, \"User doesn't exist\");\n        require(\n            suppliers[tag].currentState != AuctionState.RUNNING,\n            \"Auction in-progress already\"\n        );\n\n        // TODO: UNCOMMENT THE FOLLOWING TO ENSURE PEOPLE ARE STARTING AUCTIONS FOR THEMSELVES ONLY\n        // require(\n        //     suppliers[tag].wallet == msg.sender,\n        //     \"Start auction only for yourself!\"\n        // );\n\n        suppliers[tag].currentState = AuctionState.RUNNING;\n        suppliers[tag].bidsPlaced = 0;\n        suppliers[tag].bidsRevealed = 0;\n        emit StartSupplierAuction(tag, block.timestamp);\n        return block.timestamp;\n    }\n\n    function supplierEndAuction(uint256 tag) public returns (uint256) {\n        // function for suppilier to end their auction\n        require(tag <= num_supplier, \"User doesn't exist\");\n        require(\n            suppliers[tag].currentState == AuctionState.RUNNING,\n            \"Auction ended already\"\n        );\n\n        // TODO: UNCOMMENT THE FOLLOWING TO ENSURE PEOPLE ARE ENDING AUCTIONS FOR THEMSELVES ONLY\n        // require(\n        //     suppliers[tag].wallet == msg.sender,\n        //     \"End auction only for yourself!\"\n        // );\n\n        suppliers[tag].currentState = AuctionState.REVEALING;\n        suppliers[tag].bidsRevealed = 0;\n        emit EndSupplierAuction(tag, block.timestamp);\n        return block.timestamp;\n    }\n\n    function supplierEndReveal(uint256 tag) public returns (uint256) {\n        require(tag <= num_supplier, \"Supplier doesn't exist\");\n        require(\n            suppliers[tag].currentState == AuctionState.REVEALING,\n            \"Reveal phase not running\"\n        );\n\n        // TODO: UNCOMMENT THE FOLLOWING TO ENSURE PEOPLE ARE ALLOCATING FOR THEMSELVES ONLY\n        // require(\n        //     (suppliers[tag].wallet == msg.sender || owner == msg.sender),\n        //     \"Operation now allowed\"\n        // );\n\n        suppliers[tag].currentState = AuctionState.FINISHED;\n\n        // do allocation logic and emit\n\n        // bubble sort according to bid value\n        for (uint256 i = 0; i < bidsTillNow[suppliers[tag].wallet].length; i++)\n            for (uint256 j = 0; j < i; j++)\n                if (\n                    bidsTillNow[suppliers[tag].wallet][i].valuePrice <\n                    bidsTillNow[suppliers[tag].wallet][j].valuePrice\n                ) {\n                    Bid memory x = bidsTillNow[suppliers[tag].wallet][i];\n                    bidsTillNow[suppliers[tag].wallet][i] = bidsTillNow[\n                        suppliers[tag].wallet\n                    ][j];\n                    bidsTillNow[suppliers[tag].wallet][j] = x;\n                }\n        // allocate according to limiting resource first\n        uint256[100] memory allocatingPrices;\n        uint256[100] memory allocatingQuantities;\n        for (\n            uint256 i = 0;\n            i < bidsTillNow[suppliers[tag].wallet].length;\n            i++\n        ) {\n            Bid memory bid = bidsTillNow[suppliers[tag].wallet][i];\n            uint256 allocatingHere = minimum(\n                suppliers[tag].quantityAvailable,\n                bid.limitingResourceQuantity\n            );\n            allocatingHere = minimum(allocatingHere, bid.valueQuantity);\n\n            allocatingPrices[bid.buyerID] = bid.valuePrice;\n            allocatingQuantities[bid.buyerID] = allocatingHere;\n            suppliers[tag].quantityAvailable -= allocatingHere;\n            bid.valueQuantity -= allocatingHere;\n        }\n\n        // allocate remaining for maximum profit\n        for (\n            uint256 i = 0;\n            i < bidsTillNow[suppliers[tag].wallet].length;\n            i++\n        ) {\n            Bid memory bid = bidsTillNow[suppliers[tag].wallet][i];\n            uint256 allocatingHere = minimum(\n                suppliers[tag].quantityAvailable,\n                bid.valueQuantity\n            );\n\n            allocatingQuantities[bid.buyerID] += allocatingHere;\n            suppliers[tag].quantityAvailable -= allocatingHere;\n            bid.valueQuantity -= allocatingHere;\n        }\n\n        // emit all allocations\n        for (uint256 i = 0; i < 100; i++)\n            if (allocatingQuantities[i] > 0) {\n                emit AllocateFromSupplier(\n                    tag,\n                    i,\n                    allocatingQuantities[i],\n                    allocatingPrices[i]\n                );\n                transferMoney(\n                    suppliers[tag].wallet,\n                    manufacturers[i].wallet,\n                    allocatingPrices[i],\n                    allocatingQuantities[i]\n                );\n            }\n        return block.timestamp;\n    }\n\n    function transferMoney(\n        address senderaddr,\n        address receiveraddr,\n        uint256 price,\n        uint256 qunatity\n    ) private {\n        // do eth transactions here\n    }\n\n    function manufacturerPlacesBid(\n        uint256 manufacturerID,\n        uint256 supplierID,\n        bytes32 blindPrice,\n        bytes32 blindQuantity,\n        uint256 limit // beforeOnly(supplierEndAuction(supplierID))\n    ) public // afterOnly(supplierEndAuction(supplierID))\n    {\n        //should get all data needed for bid\n        // function for manufacturer to place a bid\n        //@please check price and quant hashing part @checked\n        require(\n            num_manufacturer >= manufacturerID,\n            \"Manufacturer doesn't exist\"\n        );\n        require(num_supplier >= supplierID, \"Supplier doesn't exist\");\n        require(\n            suppliers[supplierID].currentState == AuctionState.RUNNING,\n            \"Supplier isn't running an auction right now\"\n        );\n\n        // TODO: UNCOMMENT THE FOLLOWING TO ENSURE PEOPLE ARE ONLY PLACING BIDS FOR THEMSELVES\n        // require(\n        //     manufacturers[manufacturerID].wallet == msg.sender,\n        //     \"You can only bid for yourself!\"\n        // );\n\n        Bid memory newbid;\n        newbid.bidderAddress = payable(msg.sender);\n        newbid.buyerID = manufacturerID;\n        newbid.sellerID = supplierID;\n        newbid.blindBidPrice = blindPrice;\n        newbid.blindBidQuantity = blindQuantity;\n        newbid.limitingResourceQuantity = limit;\n        newbid.valuePrice = 0;\n        newbid.valueQuantity = 0;\n        newbid.correctReveal = true;\n\n        address supplieraddr = suppliers[supplierID].wallet;\n        bidsTillNow[supplieraddr].push(newbid);\n\n        suppliers[supplierID].bidsPlaced += 1;\n\n        emit ManufacturerBids(\n            supplierID,\n            manufacturerID,\n            blindPrice,\n            blindQuantity\n        );\n\n        if (\n            suppliers[supplierID].bidsPlaced == suppliers[supplierID].maxBidders\n        ) {\n            // go to reveal phase\n            suppliers[supplierID].currentState = AuctionState.REVEALING;\n        }\n    }\n\n    function customerPlacesBid(uint256 manufacturerID, uint256 supplierID)\n        public\n    {\n        // function for customer to place a bid\n    }\n\n    function manufactuerRevealBid(\n        uint256 manufacturerID,\n        uint256 supplierID,\n        uint256 price,\n        uint256 quantity\n    ) public returns (bool) {\n        require(manufacturerID <= num_manufacturer, \"Invalid manufacturer\");\n\n        // TODO: UNCOMMENT THE FOLLOWING TO ENSURE PEOPLE ARE ONLY REVEALING BIDS FOR THEMSELVES\n        // require(\n        //     manufacturers[manufacturerID].wallet == msg.sender,\n        //     \"Reveal only for yourself!\"\n        // );\n\n        for (\n            uint256 i = 0;\n            i < bidsTillNow[suppliers[supplierID].wallet].length;\n            i++\n        )\n            if (\n                bidsTillNow[suppliers[supplierID].wallet][i].buyerID ==\n                manufacturerID\n            ) {\n                if (\n                    keccak256(abi.encodePacked(price)) !=\n                    bidsTillNow[suppliers[supplierID].wallet][i].blindBidPrice\n                ) {\n                    bidsTillNow[suppliers[supplierID].wallet][i]\n                        .correctReveal = false;\n                    return false;\n                }\n                if (\n                    keccak256(abi.encodePacked(quantity)) !=\n                    bidsTillNow[suppliers[supplierID].wallet][i]\n                        .blindBidQuantity\n                ) {\n                    bidsTillNow[suppliers[supplierID].wallet][i]\n                        .correctReveal = false;\n                    return false;\n                }\n                bidsTillNow[suppliers[supplierID].wallet][i].valuePrice = price;\n                bidsTillNow[suppliers[supplierID].wallet][i]\n                    .valueQuantity = quantity;\n                emit ManufacturerReveal(\n                    supplierID,\n                    manufacturerID,\n                    price,\n                    quantity\n                );\n\n                suppliers[supplierID].bidsRevealed += 1;\n                if (\n                    suppliers[supplierID].bidsRevealed ==\n                    suppliers[supplierID].maxBidders\n                ) {\n                    // go to allocation\n                    supplierEndReveal(supplierID);\n                }\n\n                return true;\n            }\n        return false;\n    }\n\n    function customerRevealBid(uint256 manufacturerID) public {}\n\n    function addSupplier(\n        int256 partType,\n        uint256 quantityAvailable,\n        address payable addr,\n        uint256 auctionBidders\n    ) public {\n        num_supplier++;\n        suppliers[num_supplier] = Supplier(\n            num_supplier,\n            partType,\n            quantityAvailable,\n            AuctionState.NOT_STARTED,\n            addr,\n            auctionBidders,\n            0,\n            0\n        );\n    }\n\n    function addManufacturer(address payable addr, uint256 auctionBidders)\n        public\n    {\n        num_manufacturer++;\n        manufacturers[num_manufacturer] = Manufacturer(\n            num_manufacturer,\n            0,\n            0,\n            0,\n            AuctionState.NOT_STARTED,\n            addr,\n            auctionBidders\n        );\n    }\n\n    function addCustomer(address payable addr) public {\n        num_customer++;\n        customers[num_customer] = Customer(num_customer, addr);\n    }\n\n    // Setter functions\n    function supplierAddQuantity(uint256 suppliedID, uint256 quantityToAdd)\n        public\n    {\n        require(suppliers[suppliedID].wallet == msg.sender);\n        require(num_supplier >= suppliedID);\n        // increase the supplier quantity\n        suppliers[suppliedID].quantityAvailable += quantityToAdd;\n    }\n\n    function Update_Manufacturer_Quantities(\n        uint256 manufacturerID,\n        uint256 quantityA,\n        uint256 quantityB\n    ) private {\n        manufacturers[manufacturerID].quantityA += quantityA;\n        manufacturers[manufacturerID].quantityB += quantityB;\n        uint256 max_cars = minimum(quantityA, quantityB);\n        manufacturers[manufacturerID].quantityA -= max_cars;\n        manufacturers[manufacturerID].quantityB -= max_cars;\n        manufacturers[manufacturerID].cars += max_cars;\n    }\n\n    // Starting, ending and allocation of auction by supplier\n    event StartSupplierAuction(uint256 supplierID, uint256 startTime);\n    event EndSupplierAuction(uint256 supplierID, uint256 endTime);\n    event AllocateFromSupplier(\n        uint256 supplierID,\n        uint256 manufacturerID,\n        uint256 quantity,\n        uint256 price\n    );\n\n    // Starting, ending and allocation of auctions by manufacturers\n    event StartManufacturerAuction(uint256 manufacturerID, uint256 startTime);\n    event EndManufacturerAuction(uint256 manufacturerID, uint256 endTime);\n    event AllocateFromManufacturer(\n        uint256 manufacturerID,\n        uint256 customerID,\n        uint256 quantity,\n        uint256 price\n    );\n\n    // Manufacturer places a bid to the supplier\n    event ManufacturerBids(\n        uint256 supplierID,\n        uint256 manufacturerID,\n        bytes32 blindBidPrice,\n        bytes32 blindBidQuantity\n    );\n    // Manufacturer reveals it's bid to the supplier by providing the key\n    event ManufacturerReveal(\n        uint256 supplierID,\n        uint256 manufacturerID,\n        uint256 price,\n        uint256 quantity\n    );\n\n    // Customer places a bid to the manufacturer\n    event CustomerBid(\n        uint256 manufacturerID,\n        uint256 customerID,\n        bytes32 blindBid\n    );\n    event CustomerReveal(\n        uint256 manufacturerID,\n        uint256 customerID,\n        uint256 price,\n        uint256 quantity\n    );\n\n    // ALL GET FUNCTIONS\n    function getActors() public view returns (address[200] memory) {\n        address[200] memory ret;\n        uint256 idx = 0;\n        for (uint256 i = 1; i <= num_supplier; i += 1)\n            ret[idx++] = suppliers[i].wallet;\n        for (uint256 i = 1; i <= num_manufacturer; i += 1)\n            ret[idx++] = manufacturers[i].wallet;\n        for (uint256 i = 1; i <= num_customer; i += 1)\n            ret[idx++] = customers[i].wallet;\n        return ret;\n    }\n\n    function getBids() public view returns (uint256[100] memory) {\n        uint256[100] memory ret;\n        uint256 idx = 0;\n        for (uint256 i = 1; i <= num_supplier; i++) {\n            for (\n                uint256 j = 0;\n                j < bidsTillNow[suppliers[i].wallet].length;\n                j++\n            ) {\n                ret[idx++] = bidsTillNow[suppliers[i].wallet][j].buyerID;\n                ret[idx++] = bidsTillNow[suppliers[i].wallet][j].sellerID;\n                ret[idx++] = bidsTillNow[suppliers[i].wallet][j].valueQuantity;\n                ret[idx++] = bidsTillNow[suppliers[i].wallet][j].valuePrice;\n                ret[idx++] = bidsTillNow[suppliers[i].wallet][j]\n                    .limitingResourceQuantity;\n                idx++;\n            }\n        }\n        return ret;\n    }\n\n    // all modifiers\n    modifier beforeOnly(uint256 _time) {\n        require(block.timestamp < _time);\n        _;\n    }\n    modifier afterOnly(uint256 _time) {\n        require(block.timestamp > _time);\n        _;\n    }\n}\n",
  "sourcePath": "/home/kjain1810/Desktop/padhai/sem7/dtb/Supply-Chain-Smartcontract/contracts/Marketplace.sol",
  "compiler": {
    "name": "solc",
    "version": "0.8.16+commit.07a7930e.Emscripten.clang"
  },
  "schemaVersion": "3.4.9",
  "updatedAt": "2022-08-31T02:59:21.526Z",
  "networkType": "ethereum",
  "devdoc": {
    "kind": "dev",
    "methods": {},
    "version": 1
  },
  "userdoc": {
    "kind": "user",
    "methods": {},
    "version": 1
  }
}