{
  "contractName": "Marketplace",
  "abi": [
    {
      "inputs": [],
      "stateMutability": "nonpayable",
      "type": "constructor"
    },
    {
      "anonymous": false,
      "inputs": [
        {
          "indexed": false,
          "internalType": "uint256",
          "name": "manufacturerID",
          "type": "uint256"
        },
        {
          "indexed": false,
          "internalType": "uint256",
          "name": "customerID",
          "type": "uint256"
        },
        {
          "indexed": false,
          "internalType": "uint256",
          "name": "quantity",
          "type": "uint256"
        },
        {
          "indexed": false,
          "internalType": "uint256",
          "name": "price",
          "type": "uint256"
        },
        {
          "indexed": false,
          "internalType": "uint256[100]",
          "name": "carTag",
          "type": "uint256[100]"
        }
      ],
      "name": "AllocateFromManufacturer",
      "type": "event"
    },
    {
      "anonymous": false,
      "inputs": [
        {
          "indexed": false,
          "internalType": "uint256",
          "name": "supplierID",
          "type": "uint256"
        },
        {
          "indexed": false,
          "internalType": "uint256",
          "name": "manufacturerID",
          "type": "uint256"
        },
        {
          "indexed": false,
          "internalType": "uint256",
          "name": "quantity",
          "type": "uint256"
        },
        {
          "indexed": false,
          "internalType": "uint256",
          "name": "price",
          "type": "uint256"
        }
      ],
      "name": "AllocateFromSupplier",
      "type": "event"
    },
    {
      "anonymous": false,
      "inputs": [
        {
          "indexed": false,
          "internalType": "uint256",
          "name": "manufacturerID",
          "type": "uint256"
        },
        {
          "indexed": false,
          "internalType": "uint256",
          "name": "customerID",
          "type": "uint256"
        },
        {
          "indexed": false,
          "internalType": "bytes32",
          "name": "blindBid",
          "type": "bytes32"
        }
      ],
      "name": "CustomerBid",
      "type": "event"
    },
    {
      "anonymous": false,
      "inputs": [
        {
          "indexed": false,
          "internalType": "uint256",
          "name": "CustomerID",
          "type": "uint256"
        },
        {
          "indexed": false,
          "internalType": "uint256",
          "name": "ManufacturerID",
          "type": "uint256"
        },
        {
          "indexed": false,
          "internalType": "uint256",
          "name": "Quantity",
          "type": "uint256"
        },
        {
          "indexed": false,
          "internalType": "uint256",
          "name": "Price",
          "type": "uint256"
        }
      ],
      "name": "CustomerRequest",
      "type": "event"
    },
    {
      "anonymous": false,
      "inputs": [
        {
          "indexed": false,
          "internalType": "uint256",
          "name": "manufacturerID",
          "type": "uint256"
        },
        {
          "indexed": false,
          "internalType": "uint256",
          "name": "customerID",
          "type": "uint256"
        },
        {
          "indexed": false,
          "internalType": "uint256",
          "name": "price",
          "type": "uint256"
        },
        {
          "indexed": false,
          "internalType": "uint256",
          "name": "quantity",
          "type": "uint256"
        }
      ],
      "name": "CustomerReveal",
      "type": "event"
    },
    {
      "anonymous": false,
      "inputs": [
        {
          "indexed": false,
          "internalType": "uint256",
          "name": "manufacturerID",
          "type": "uint256"
        },
        {
          "indexed": false,
          "internalType": "uint256",
          "name": "endTime",
          "type": "uint256"
        }
      ],
      "name": "EndManufacturerAuction",
      "type": "event"
    },
    {
      "anonymous": false,
      "inputs": [
        {
          "indexed": false,
          "internalType": "uint256",
          "name": "supplierID",
          "type": "uint256"
        },
        {
          "indexed": false,
          "internalType": "uint256",
          "name": "endTime",
          "type": "uint256"
        }
      ],
      "name": "EndSupplierAuction",
      "type": "event"
    },
    {
      "anonymous": false,
      "inputs": [
        {
          "indexed": false,
          "internalType": "uint256",
          "name": "supplierID",
          "type": "uint256"
        },
        {
          "indexed": false,
          "internalType": "uint256",
          "name": "manufacturerID",
          "type": "uint256"
        },
        {
          "indexed": false,
          "internalType": "bytes32",
          "name": "blindBidPrice",
          "type": "bytes32"
        },
        {
          "indexed": false,
          "internalType": "bytes32",
          "name": "blindBidQuantity",
          "type": "bytes32"
        }
      ],
      "name": "ManufacturerBids",
      "type": "event"
    },
    {
      "anonymous": false,
      "inputs": [
        {
          "indexed": false,
          "internalType": "uint256",
          "name": "supplierID",
          "type": "uint256"
        },
        {
          "indexed": false,
          "internalType": "uint256",
          "name": "manufacturerID",
          "type": "uint256"
        },
        {
          "indexed": false,
          "internalType": "uint256",
          "name": "price",
          "type": "uint256"
        },
        {
          "indexed": false,
          "internalType": "uint256",
          "name": "quantity",
          "type": "uint256"
        }
      ],
      "name": "ManufacturerReveal",
      "type": "event"
    },
    {
      "anonymous": false,
      "inputs": [
        {
          "indexed": false,
          "internalType": "uint256",
          "name": "manufacturerID",
          "type": "uint256"
        },
        {
          "indexed": false,
          "internalType": "uint256",
          "name": "startTime",
          "type": "uint256"
        }
      ],
      "name": "StartManufacturerAuction",
      "type": "event"
    },
    {
      "anonymous": false,
      "inputs": [
        {
          "indexed": false,
          "internalType": "uint256",
          "name": "supplierID",
          "type": "uint256"
        },
        {
          "indexed": false,
          "internalType": "uint256",
          "name": "startTime",
          "type": "uint256"
        }
      ],
      "name": "StartSupplierAuction",
      "type": "event"
    },
    {
      "inputs": [
        {
          "internalType": "uint256",
          "name": "",
          "type": "uint256"
        }
      ],
      "name": "customers",
      "outputs": [
        {
          "internalType": "uint256",
          "name": "_tag",
          "type": "uint256"
        },
        {
          "internalType": "address",
          "name": "wallet",
          "type": "address"
        }
      ],
      "stateMutability": "view",
      "type": "function",
      "constant": true
    },
    {
      "inputs": [
        {
          "internalType": "uint256",
          "name": "",
          "type": "uint256"
        }
      ],
      "name": "manufacturers",
      "outputs": [
        {
          "internalType": "uint256",
          "name": "_tag",
          "type": "uint256"
        },
        {
          "internalType": "uint256",
          "name": "quantityA",
          "type": "uint256"
        },
        {
          "internalType": "uint256",
          "name": "quantityB",
          "type": "uint256"
        },
        {
          "internalType": "uint256",
          "name": "cars",
          "type": "uint256"
        },
        {
          "internalType": "uint256",
          "name": "carsprice",
          "type": "uint256"
        },
        {
          "internalType": "enum Marketplace.AuctionState",
          "name": "currentState",
          "type": "uint8"
        },
        {
          "internalType": "address",
          "name": "wallet",
          "type": "address"
        },
        {
          "internalType": "uint256",
          "name": "maxBidders",
          "type": "uint256"
        },
        {
          "internalType": "uint256",
          "name": "QA_sellerID",
          "type": "uint256"
        },
        {
          "internalType": "uint256",
          "name": "QB_sellerID",
          "type": "uint256"
        }
      ],
      "stateMutability": "view",
      "type": "function",
      "constant": true
    },
    {
      "inputs": [],
      "name": "num_customer",
      "outputs": [
        {
          "internalType": "uint256",
          "name": "",
          "type": "uint256"
        }
      ],
      "stateMutability": "view",
      "type": "function",
      "constant": true
    },
    {
      "inputs": [],
      "name": "num_manufacturer",
      "outputs": [
        {
          "internalType": "uint256",
          "name": "",
          "type": "uint256"
        }
      ],
      "stateMutability": "view",
      "type": "function",
      "constant": true
    },
    {
      "inputs": [],
      "name": "num_products",
      "outputs": [
        {
          "internalType": "uint256",
          "name": "",
          "type": "uint256"
        }
      ],
      "stateMutability": "view",
      "type": "function",
      "constant": true
    },
    {
      "inputs": [],
      "name": "num_supplier",
      "outputs": [
        {
          "internalType": "uint256",
          "name": "",
          "type": "uint256"
        }
      ],
      "stateMutability": "view",
      "type": "function",
      "constant": true
    },
    {
      "inputs": [],
      "name": "owner",
      "outputs": [
        {
          "internalType": "address payable",
          "name": "",
          "type": "address"
        }
      ],
      "stateMutability": "view",
      "type": "function",
      "constant": true
    },
    {
      "inputs": [
        {
          "internalType": "uint256",
          "name": "",
          "type": "uint256"
        }
      ],
      "name": "suppliers",
      "outputs": [
        {
          "internalType": "uint256",
          "name": "tag",
          "type": "uint256"
        },
        {
          "internalType": "int256",
          "name": "partType",
          "type": "int256"
        },
        {
          "internalType": "uint256",
          "name": "quantityAvailable",
          "type": "uint256"
        },
        {
          "internalType": "enum Marketplace.AuctionState",
          "name": "currentState",
          "type": "uint8"
        },
        {
          "internalType": "address",
          "name": "wallet",
          "type": "address"
        },
        {
          "internalType": "uint256",
          "name": "maxBidders",
          "type": "uint256"
        },
        {
          "internalType": "uint256",
          "name": "bidsPlaced",
          "type": "uint256"
        },
        {
          "internalType": "uint256",
          "name": "bidsRevealed",
          "type": "uint256"
        }
      ],
      "stateMutability": "view",
      "type": "function",
      "constant": true
    },
    {
      "inputs": [
        {
          "internalType": "uint256",
          "name": "a",
          "type": "uint256"
        },
        {
          "internalType": "uint256",
          "name": "b",
          "type": "uint256"
        }
      ],
      "name": "minimum",
      "outputs": [
        {
          "internalType": "uint256",
          "name": "",
          "type": "uint256"
        }
      ],
      "stateMutability": "pure",
      "type": "function",
      "constant": true
    },
    {
      "inputs": [
        {
          "internalType": "uint256",
          "name": "tag",
          "type": "uint256"
        }
      ],
      "name": "supplierStartAuction",
      "outputs": [
        {
          "internalType": "uint256",
          "name": "",
          "type": "uint256"
        }
      ],
      "stateMutability": "nonpayable",
      "type": "function"
    },
    {
      "inputs": [
        {
          "internalType": "uint256",
          "name": "tag",
          "type": "uint256"
        }
      ],
      "name": "supplierEndAuction",
      "outputs": [
        {
          "internalType": "uint256",
          "name": "",
          "type": "uint256"
        }
      ],
      "stateMutability": "nonpayable",
      "type": "function"
    },
    {
      "inputs": [
        {
          "internalType": "uint256",
          "name": "tag",
          "type": "uint256"
        }
      ],
      "name": "supplierEndReveal",
      "outputs": [
        {
          "internalType": "uint256",
          "name": "",
          "type": "uint256"
        }
      ],
      "stateMutability": "nonpayable",
      "type": "function"
    },
    {
      "inputs": [
        {
          "internalType": "uint256",
          "name": "manufacturerID",
          "type": "uint256"
        },
        {
          "internalType": "uint256",
          "name": "supplierID",
          "type": "uint256"
        },
        {
          "internalType": "bytes32",
          "name": "blindPrice",
          "type": "bytes32"
        },
        {
          "internalType": "bytes32",
          "name": "blindQuantity",
          "type": "bytes32"
        },
        {
          "internalType": "uint256",
          "name": "limit",
          "type": "uint256"
        }
      ],
      "name": "manufacturerPlacesBid",
      "outputs": [],
      "stateMutability": "nonpayable",
      "type": "function"
    },
    {
      "inputs": [
        {
          "internalType": "uint256",
          "name": "customerID",
          "type": "uint256"
        },
        {
          "internalType": "uint256",
          "name": "manufacturerID",
          "type": "uint256"
        },
        {
          "internalType": "uint256",
          "name": "quantity",
          "type": "uint256"
        }
      ],
      "name": "customerPurchase",
      "outputs": [],
      "stateMutability": "payable",
      "type": "function",
      "payable": true
    },
    {
      "inputs": [
        {
          "internalType": "uint256",
          "name": "manufacturerID",
          "type": "uint256"
        },
        {
          "internalType": "uint256",
          "name": "supplierID",
          "type": "uint256"
        },
        {
          "internalType": "uint256",
          "name": "price",
          "type": "uint256"
        },
        {
          "internalType": "uint256",
          "name": "quantity",
          "type": "uint256"
        }
      ],
      "name": "manufactuerRevealBid",
      "outputs": [
        {
          "internalType": "bool",
          "name": "",
          "type": "bool"
        }
      ],
      "stateMutability": "nonpayable",
      "type": "function"
    },
    {
      "inputs": [
        {
          "internalType": "uint256",
          "name": "manufacturerID",
          "type": "uint256"
        }
      ],
      "name": "manufacturerSupplyCars",
      "outputs": [],
      "stateMutability": "nonpayable",
      "type": "function"
    },
    {
      "inputs": [
        {
          "internalType": "int256",
          "name": "partType",
          "type": "int256"
        },
        {
          "internalType": "uint256",
          "name": "quantityAvailable",
          "type": "uint256"
        },
        {
          "internalType": "address payable",
          "name": "addr",
          "type": "address"
        },
        {
          "internalType": "uint256",
          "name": "auctionBidders",
          "type": "uint256"
        }
      ],
      "name": "addSupplier",
      "outputs": [],
      "stateMutability": "nonpayable",
      "type": "function"
    },
    {
      "inputs": [
        {
          "internalType": "address payable",
          "name": "addr",
          "type": "address"
        },
        {
          "internalType": "uint256",
          "name": "auctionBidders",
          "type": "uint256"
        }
      ],
      "name": "addManufacturer",
      "outputs": [],
      "stateMutability": "nonpayable",
      "type": "function"
    },
    {
      "inputs": [
        {
          "internalType": "address payable",
          "name": "addr",
          "type": "address"
        }
      ],
      "name": "addCustomer",
      "outputs": [],
      "stateMutability": "nonpayable",
      "type": "function"
    },
    {
      "inputs": [
        {
          "internalType": "uint256",
          "name": "suppliedID",
          "type": "uint256"
        },
        {
          "internalType": "uint256",
          "name": "quantityToAdd",
          "type": "uint256"
        }
      ],
      "name": "supplierAddQuantity",
      "outputs": [],
      "stateMutability": "nonpayable",
      "type": "function"
    },
    {
      "inputs": [
        {
          "internalType": "uint256",
          "name": "manufacturerID",
          "type": "uint256"
        },
        {
          "internalType": "uint256",
          "name": "price",
          "type": "uint256"
        }
      ],
      "name": "set_cars_price",
      "outputs": [],
      "stateMutability": "nonpayable",
      "type": "function"
    },
    {
      "inputs": [
        {
          "internalType": "uint256",
          "name": "customerID",
          "type": "uint256"
        },
        {
          "internalType": "uint256",
          "name": "car_tag",
          "type": "uint256"
        }
      ],
      "name": "verifyproduct",
      "outputs": [
        {
          "internalType": "uint256",
          "name": "carID",
          "type": "uint256"
        },
        {
          "internalType": "uint256",
          "name": "manfID",
          "type": "uint256"
        },
        {
          "internalType": "uint256",
          "name": "sellerIDA",
          "type": "uint256"
        },
        {
          "internalType": "uint256",
          "name": "sellerIDB",
          "type": "uint256"
        }
      ],
      "stateMutability": "view",
      "type": "function",
      "constant": true
    },
    {
      "inputs": [
        {
          "internalType": "uint256",
          "name": "manfID",
          "type": "uint256"
        }
      ],
      "name": "get_cars_price_quantity",
      "outputs": [
        {
          "internalType": "uint256",
          "name": "price",
          "type": "uint256"
        },
        {
          "internalType": "uint256",
          "name": "quantity",
          "type": "uint256"
        }
      ],
      "stateMutability": "view",
      "type": "function",
      "constant": true
    },
    {
      "inputs": [
        {
          "internalType": "uint256",
          "name": "manfID",
          "type": "uint256"
        }
      ],
      "name": "get_manufacturer_data",
      "outputs": [
        {
          "internalType": "uint256",
          "name": "tag",
          "type": "uint256"
        },
        {
          "internalType": "uint256",
          "name": "quantA",
          "type": "uint256"
        },
        {
          "internalType": "uint256",
          "name": "quantB",
          "type": "uint256"
        },
        {
          "internalType": "uint256",
          "name": "cars",
          "type": "uint256"
        }
      ],
      "stateMutability": "view",
      "type": "function",
      "constant": true
    },
    {
      "inputs": [],
      "name": "get_car_data",
      "outputs": [
        {
          "internalType": "uint256[10]",
          "name": "cars",
          "type": "uint256[10]"
        }
      ],
      "stateMutability": "view",
      "type": "function",
      "constant": true
    },
    {
      "inputs": [
        {
          "internalType": "uint256",
          "name": "manfID",
          "type": "uint256"
        },
        {
          "internalType": "uint256",
          "name": "quant",
          "type": "uint256"
        }
      ],
      "name": "set_cars",
      "outputs": [],
      "stateMutability": "nonpayable",
      "type": "function"
    }
  ],
  "bytecode": "0x608060405234801561001057600080fd5b5033600a60006101000a81548173ffffffffffffffffffffffffffffffffffffffff021916908373ffffffffffffffffffffffffffffffffffffffff160217905550600060018190555060008081905550600060028190555061574880620000796000396000f3fe6080604052600436106101815760003560e01c8063ad973d74116100d1578063cea231211161008a578063e2416a2c11610064578063e2416a2c146105d0578063eb16d0e41461060d578063edcac78b14610638578063f895c5201461066357610181565b8063cea2312114610526578063d6470b491461056a578063dd2d2a121461059357610181565b8063ad973d7414610404578063b1877fb91461042d578063c04052171461046b578063c0abda2a14610496578063c2ff9e44146104d4578063c5828c7d146104fd57610181565b806378ff8ec61161013e5780639a7a9b13116101185780639a7a9b1314610335578063a436792b1461035e578063aa8613c414610387578063ac4ca43c146103c457610181565b806378ff8ec6146102995780638da5cb5b146102c457806390175af1146102ef57610181565b80630cf3750d146101865780631788b2d9146101af57806317c9dea6146101ec57806318c15d42146102295780634cc9aff81461025257806362949a5d1461027d575b600080fd5b34801561019257600080fd5b506101ad60048036038101906101a891906145a1565b6106a3565b005b3480156101bb57600080fd5b506101d660048036038101906101d191906145e1565b610751565b6040516101e39190614663565b60405180910390f35b3480156101f857600080fd5b50610213600480360381019061020e919061467e565b61100a565b60405161022091906146ba565b60405180910390f35b34801561023557600080fd5b50610250600480360381019061024b919061470b565b611192565b005b34801561025e57600080fd5b50610267611555565b60405161027491906146ba565b60405180910390f35b61029760048036038101906102929190614786565b61155b565b005b3480156102a557600080fd5b506102ae6118a2565b6040516102bb9190614884565b60405180910390f35b3480156102d057600080fd5b506102d9611973565b6040516102e691906148e1565b60405180910390f35b3480156102fb57600080fd5b506103166004803603810190610311919061467e565b611999565b60405161032c9a99989796959493929190614994565b60405180910390f35b34801561034157600080fd5b5061035c60048036038101906103579190614a92565b611a1a565b005b34801561036a57600080fd5b5061038560048036038101906103809190614af9565b611b68565b005b34801561039357600080fd5b506103ae60048036038101906103a9919061467e565b611cdc565b6040516103bb91906146ba565b60405180910390f35b3480156103d057600080fd5b506103eb60048036038101906103e6919061467e565b611e48565b6040516103fb9493929190614b39565b60405180910390f35b34801561041057600080fd5b5061042b60048036038101906104269190614b7e565b611f76565b005b34801561043957600080fd5b50610454600480360381019061044f919061467e565b612027565b604051610462929190614bab565b60405180910390f35b34801561047757600080fd5b506104806120a6565b60405161048d91906146ba565b60405180910390f35b3480156104a257600080fd5b506104bd60048036038101906104b8919061467e565b6120ac565b6040516104cb929190614bd4565b60405180910390f35b3480156104e057600080fd5b506104fb60048036038101906104f6919061467e565b6120f0565b005b34801561050957600080fd5b50610524600480360381019061051f91906145a1565b612cc5565b005b34801561053257600080fd5b5061054d6004803603810190610548919061467e565b612ce4565b604051610561989796959493929190614c0c565b60405180910390f35b34801561057657600080fd5b50610591600480360381019061058c91906145a1565b612d59565b005b34801561059f57600080fd5b506105ba60048036038101906105b591906145a1565b612e74565b6040516105c791906146ba565b60405180910390f35b3480156105dc57600080fd5b506105f760048036038101906105f2919061467e565b612e8e565b60405161060491906146ba565b60405180910390f35b34801561061957600080fd5b5061062261404f565b60405161062f91906146ba565b60405180910390f35b34801561064457600080fd5b5061064d614055565b60405161065a91906146ba565b60405180910390f35b34801561066f57600080fd5b5061068a600480360381019061068591906145a1565b61405b565b60405161069a9493929190614b39565b60405180910390f35b3373ffffffffffffffffffffffffffffffffffffffff166004600084815260200190815260200160002060030160019054906101000a900473ffffffffffffffffffffffffffffffffffffffff1673ffffffffffffffffffffffffffffffffffffffff161461071157600080fd5b81600054101561072057600080fd5b806004600084815260200190815260200160002060020160008282546107469190614cb9565b925050819055505050565b6000600154851115610798576040517f08c379a000000000000000000000000000000000000000000000000000000000815260040161078f90614d4a565b60405180910390fd5b600160038111156107ac576107ab6148fc565b5b6004600086815260200190815260200160002060030160009054906101000a900460ff1660038111156107e2576107e16148fc565b5b146107ec57600080fd5b60005b600760006004600088815260200190815260200160002060030160019054906101000a900473ffffffffffffffffffffffffffffffffffffffff1673ffffffffffffffffffffffffffffffffffffffff1673ffffffffffffffffffffffffffffffffffffffff16815260200190815260200160002080549050811015610ffc5785600760006004600089815260200190815260200160002060030160019054906101000a900473ffffffffffffffffffffffffffffffffffffffff1673ffffffffffffffffffffffffffffffffffffffff1673ffffffffffffffffffffffffffffffffffffffff16815260200190815260200160002082815481106108f7576108f6614d6a565b5b90600052602060002090600902016006015403610fe957600760006004600088815260200190815260200160002060030160019054906101000a900473ffffffffffffffffffffffffffffffffffffffff1673ffffffffffffffffffffffffffffffffffffffff1673ffffffffffffffffffffffffffffffffffffffff168152602001908152602001600020818154811061099557610994614d6a565b5b906000526020600020906009020160030154846040516020016109b89190614dba565b6040516020818303038152906040528051906020012014610a0e576040517f08c379a0000000000000000000000000000000000000000000000000000000008152600401610a0590614e21565b60405180910390fd5b600760006004600088815260200190815260200160002060030160019054906101000a900473ffffffffffffffffffffffffffffffffffffffff1673ffffffffffffffffffffffffffffffffffffffff1673ffffffffffffffffffffffffffffffffffffffff1681526020019081526020016000208181548110610a9557610a94614d6a565b5b90600052602060002090600902016004015483604051602001610ab89190614dba565b6040516020818303038152906040528051906020012014610b0e576040517f08c379a0000000000000000000000000000000000000000000000000000000008152600401610b0590614e8d565b60405180910390fd5b600760006004600088815260200190815260200160002060030160019054906101000a900473ffffffffffffffffffffffffffffffffffffffff1673ffffffffffffffffffffffffffffffffffffffff1673ffffffffffffffffffffffffffffffffffffffff1681526020019081526020016000208181548110610b9557610b94614d6a565b5b90600052602060002090600902016003015484604051602001610bb89190614dba565b6040516020818303038152906040528051906020012014610c8e576000600760006004600089815260200190815260200160002060030160019054906101000a900473ffffffffffffffffffffffffffffffffffffffff1673ffffffffffffffffffffffffffffffffffffffff1673ffffffffffffffffffffffffffffffffffffffff1681526020019081526020016000208281548110610c5c57610c5b614d6a565b5b906000526020600020906009020160080160006101000a81548160ff0219169083151502179055506000915050611002565b600760006004600088815260200190815260200160002060030160019054906101000a900473ffffffffffffffffffffffffffffffffffffffff1673ffffffffffffffffffffffffffffffffffffffff1673ffffffffffffffffffffffffffffffffffffffff1681526020019081526020016000208181548110610d1557610d14614d6a565b5b90600052602060002090600902016004015483604051602001610d389190614dba565b6040516020818303038152906040528051906020012014610e0e576000600760006004600089815260200190815260200160002060030160019054906101000a900473ffffffffffffffffffffffffffffffffffffffff1673ffffffffffffffffffffffffffffffffffffffff1673ffffffffffffffffffffffffffffffffffffffff1681526020019081526020016000208281548110610ddc57610ddb614d6a565b5b906000526020600020906009020160080160006101000a81548160ff0219169083151502179055506000915050611002565b83600760006004600089815260200190815260200160002060030160019054906101000a900473ffffffffffffffffffffffffffffffffffffffff1673ffffffffffffffffffffffffffffffffffffffff1673ffffffffffffffffffffffffffffffffffffffff1681526020019081526020016000208281548110610e9657610e95614d6a565b5b90600052602060002090600902016000018190555082600760006004600089815260200190815260200160002060030160019054906101000a900473ffffffffffffffffffffffffffffffffffffffff1673ffffffffffffffffffffffffffffffffffffffff1673ffffffffffffffffffffffffffffffffffffffff1681526020019081526020016000208281548110610f3357610f32614d6a565b5b9060005260206000209060090201600101819055507fee291b467c1ae7dd29ffc047df3454190c09d3730496830a392209c7bc38f5ca85878686604051610f7d9493929190614b39565b60405180910390a16001600460008781526020019081526020016000206006016000828254610fac9190614cb9565b9250508190555060046000868152602001908152602001600020600401546004600087815260200190815260200160002050506001915050611002565b8080610ff490614ead565b9150506107ef565b50600090505b949350505050565b60008054821115611050576040517f08c379a000000000000000000000000000000000000000000000000000000000815260040161104790614f41565b60405180910390fd5b60006003811115611064576110636148fc565b5b6004600084815260200190815260200160002060030160009054906101000a900460ff16600381111561109a576110996148fc565b5b036110da576040517f08c379a00000000000000000000000000000000000000000000000000000000081526004016110d190614fad565b60405180910390fd5b60006004600084815260200190815260200160002060030160006101000a81548160ff02191690836003811115611114576111136148fc565b5b021790555060006004600084815260200190815260200160002060050181905550600060046000848152602001908152602001600020600601819055507f10449cff8425a2b933fdd57a667ad5bdad3da817ddd9179f125f5c7756582e178242604051611182929190614bab565b60405180910390a1429050919050565b8460015410156111d7576040517f08c379a00000000000000000000000000000000000000000000000000000000081526004016111ce90615019565b60405180910390fd5b83600054101561121c576040517f08c379a000000000000000000000000000000000000000000000000000000000815260040161121390615085565b60405180910390fd5b600060038111156112305761122f6148fc565b5b6004600086815260200190815260200160002060030160009054906101000a900460ff166003811115611266576112656148fc565b5b146112a6576040517f08c379a000000000000000000000000000000000000000000000000000000000815260040161129d90615117565b60405180910390fd5b848414806112b45750600384145b6112f3576040517f08c379a00000000000000000000000000000000000000000000000000000000081526004016112ea90615183565b60405180910390fd5b6112fb614421565b33816040019073ffffffffffffffffffffffffffffffffffffffff16908173ffffffffffffffffffffffffffffffffffffffff1681525050858160c0018181525050848160e00181815250508381606001818152505082816080018181525050818160a00181815250506000816000018181525050600081602001818152505060018161010001901515908115158152505060006004600087815260200190815260200160002060030160019054906101000a900473ffffffffffffffffffffffffffffffffffffffff169050600760008273ffffffffffffffffffffffffffffffffffffffff1673ffffffffffffffffffffffffffffffffffffffff168152602001908152602001600020829080600181540180825580915050600190039060005260206000209060090201600090919091909150600082015181600001556020820151816001015560408201518160020160006101000a81548173ffffffffffffffffffffffffffffffffffffffff021916908373ffffffffffffffffffffffffffffffffffffffff160217905550606082015181600301556080820151816004015560a0820151816005015560c0820151816006015560e082015181600701556101008201518160080160006101000a81548160ff021916908315150217905550505060016004600088815260200190815260200160002060050160008282546115089190614cb9565b925050819055507fdbd4ed8ca35fd076d8fdc3ddae80bf4fac4fc55dd918d5868cf2b92f82d2de538688878760405161154494939291906151b2565b60405180910390a150505050505050565b60015481565b3373ffffffffffffffffffffffffffffffffffffffff166006600085815260200190815260200160002060010160009054906101000a900473ffffffffffffffffffffffffffffffffffffffff1673ffffffffffffffffffffffffffffffffffffffff16148061161857503373ffffffffffffffffffffffffffffffffffffffff16600a60009054906101000a900473ffffffffffffffffffffffffffffffffffffffff1673ffffffffffffffffffffffffffffffffffffffff16145b611657576040517f08c379a000000000000000000000000000000000000000000000000000000000815260040161164e90615243565b60405180910390fd5b61165f61448b565b8281600001818152505033816060019073ffffffffffffffffffffffffffffffffffffffff16908173ffffffffffffffffffffffffffffffffffffffff1681525050818160400181815250508381602001818152505034816080018181525050600060056000858152602001908152602001600020600401549050600083826116e89190615263565b90508083608001511015611731576040517f08c379a000000000000000000000000000000000000000000000000000000000815260040161172890615309565b60405180910390fd5b60006005600087815260200190815260200160002060050160019054906101000a900473ffffffffffffffffffffffffffffffffffffffff169050600860008273ffffffffffffffffffffffffffffffffffffffff1673ffffffffffffffffffffffffffffffffffffffff16815260200190815260200160002084908060018154018082558091505060019003906000526020600020906005020160009091909190915060008201518160000155602082015181600101556040820151816002015560608201518160030160006101000a81548173ffffffffffffffffffffffffffffffffffffffff021916908373ffffffffffffffffffffffffffffffffffffffff1602179055506080820151816004015550507ffee408fb277c265efa7c7adea166e7ebe6ce1e4bf153cc84a610be9a46d4ba82878787600560008b8152602001908152602001600020600401546040516118919493929190614b39565b60405180910390a150505050505050565b6118aa6144d0565b6118b26144d0565b600080600190505b600254811161196a5760005b600b60008381526020019081526020016000208054905081101561195657600b6000838152602001908152602001600020818154811061190957611908614d6a565b5b90600052602060002090600402016000015484848061192790614ead565b9550600a811061193a57611939614d6a565b5b602002018181525050808061194e90614ead565b9150506118c6565b50808061196290614ead565b9150506118ba565b50819250505090565b600a60009054906101000a900473ffffffffffffffffffffffffffffffffffffffff1681565b60056020528060005260406000206000915090508060000154908060010154908060020154908060030154908060040154908060050160009054906101000a900460ff16908060050160019054906101000a900473ffffffffffffffffffffffffffffffffffffffff1690806006015490806007015490806008015490508a565b600080815480929190611a2c90614ead565b9190505550604051806101000160405280600054815260200185815260200184815260200160026003811115611a6557611a646148fc565b5b81526020018373ffffffffffffffffffffffffffffffffffffffff168152602001828152602001600081526020016000815250600460008054815260200190815260200160002060008201518160000155602082015181600101556040820151816002015560608201518160030160006101000a81548160ff02191690836003811115611af557611af46148fc565b5b021790555060808201518160030160016101000a81548173ffffffffffffffffffffffffffffffffffffffff021916908373ffffffffffffffffffffffffffffffffffffffff16021790555060a0820151816004015560c0820151816005015560e0820151816006015590505050505050565b60016000815480929190611b7b90614ead565b919050555060405180610140016040528060015481526020016000815260200160008152602001600081526020016000815260200160026003811115611bc457611bc36148fc565b5b81526020018373ffffffffffffffffffffffffffffffffffffffff168152602001828152602001600081526020016000815250600560006001548152602001908152602001600020600082015181600001556020820151816001015560408201518160020155606082015181600301556080820151816004015560a08201518160050160006101000a81548160ff02191690836003811115611c6957611c686148fc565b5b021790555060c08201518160050160016101000a81548173ffffffffffffffffffffffffffffffffffffffff021916908373ffffffffffffffffffffffffffffffffffffffff16021790555060e08201518160060155610100820151816007015561012082015181600801559050505050565b60008054821115611d22576040517f08c379a0000000000000000000000000000000000000000000000000000000008152600401611d1990614f41565b60405180910390fd5b60006003811115611d3657611d356148fc565b5b6004600084815260200190815260200160002060030160009054906101000a900460ff166003811115611d6c57611d6b6148fc565b5b14611dac576040517f08c379a0000000000000000000000000000000000000000000000000000000008152600401611da390615375565b60405180910390fd5b60016004600084815260200190815260200160002060030160006101000a81548160ff02191690836003811115611de657611de56148fc565b5b0217905550600060046000848152602001908152602001600020600601819055507f0c368e4cdd0e23707857d20056076efe6f588f9ce71ab6ce676d331fdc035f5b8242604051611e38929190614bab565b60405180910390a1429050919050565b6000806000806000600560008781526020019081526020016000206040518061014001604052908160008201548152602001600182015481526020016002820154815260200160038201548152602001600482015481526020016005820160009054906101000a900460ff166003811115611ec657611ec56148fc565b5b6003811115611ed857611ed76148fc565b5b81526020016005820160019054906101000a900473ffffffffffffffffffffffffffffffffffffffff1673ffffffffffffffffffffffffffffffffffffffff1673ffffffffffffffffffffffffffffffffffffffff1681526020016006820154815260200160078201548152602001600882015481525050905080600001518160200151826040015183606001519450945094509450509193509193565b60026000815480929190611f8990614ead565b9190505550604051806040016040528060025481526020018273ffffffffffffffffffffffffffffffffffffffff168152506006600060025481526020019081526020016000206000820151816000015560208201518160010160006101000a81548173ffffffffffffffffffffffffffffffffffffffff021916908373ffffffffffffffffffffffffffffffffffffffff16021790555090505050565b60008082600154101561206f576040517f08c379a0000000000000000000000000000000000000000000000000000000008152600401612066906153e1565b60405180910390fd5b6005600084815260200190815260200160002060040154600560008581526020019081526020016000206003015491509150915091565b60035481565b60066020528060005260406000206000915090508060000154908060010160009054906101000a900473ffffffffffffffffffffffffffffffffffffffff16905082565b8060015410156120ff57600080fd5b6005600082815260200190815260200160002060050160019054906101000a900473ffffffffffffffffffffffffffffffffffffffff1673ffffffffffffffffffffffffffffffffffffffff163373ffffffffffffffffffffffffffffffffffffffff1614806121bc5750600a60009054906101000a900473ffffffffffffffffffffffffffffffffffffffff1673ffffffffffffffffffffffffffffffffffffffff163373ffffffffffffffffffffffffffffffffffffffff16145b6121c557600080fd5b60005b600860006005600085815260200190815260200160002060050160019054906101000a900473ffffffffffffffffffffffffffffffffffffffff1673ffffffffffffffffffffffffffffffffffffffff1673ffffffffffffffffffffffffffffffffffffffff16815260200190815260200160002080549050811015612cc1576005600083815260200190815260200160002060030154600860006005600086815260200190815260200160002060050160019054906101000a900473ffffffffffffffffffffffffffffffffffffffff1673ffffffffffffffffffffffffffffffffffffffff1673ffffffffffffffffffffffffffffffffffffffff16815260200190815260200160002082815481106122e6576122e5614d6a565b5b90600052602060002090600502016002015411612c735760006005600084815260200190815260200160002060040154600860006005600087815260200190815260200160002060050160019054906101000a900473ffffffffffffffffffffffffffffffffffffffff1673ffffffffffffffffffffffffffffffffffffffff1673ffffffffffffffffffffffffffffffffffffffff168152602001908152602001600020838154811061239d5761239c614d6a565b5b9060005260206000209060050201600201546123b99190615263565b9050600081600860006005600088815260200190815260200160002060050160019054906101000a900473ffffffffffffffffffffffffffffffffffffffff1673ffffffffffffffffffffffffffffffffffffffff1673ffffffffffffffffffffffffffffffffffffffff168152602001908152602001600020848154811061244557612444614d6a565b5b9060005260206000209060050201600401546124619190615401565b9050600860006005600087815260200190815260200160002060050160019054906101000a900473ffffffffffffffffffffffffffffffffffffffff1673ffffffffffffffffffffffffffffffffffffffff1673ffffffffffffffffffffffffffffffffffffffff16815260200190815260200160002083815481106124ea576124e9614d6a565b5b9060005260206000209060050201600201546005600086815260200190815260200160002060030160008282546125219190615401565b925050819055506000600860006005600088815260200190815260200160002060050160019054906101000a900473ffffffffffffffffffffffffffffffffffffffff1673ffffffffffffffffffffffffffffffffffffffff1673ffffffffffffffffffffffffffffffffffffffff16815260200190815260200160002084815481106125b1576125b0614d6a565b5b906000526020600020906005020160020154905060006005600087815260200190815260200160002060050160019054906101000a900473ffffffffffffffffffffffffffffffffffffffff1690506126086144f3565b6000805b848110156129505760006001600960008773ffffffffffffffffffffffffffffffffffffffff1673ffffffffffffffffffffffffffffffffffffffff168152602001908152602001600020805490506126659190615401565b905061266f614516565b600960008773ffffffffffffffffffffffffffffffffffffffff1673ffffffffffffffffffffffffffffffffffffffff16815260200190815260200160002082815481106126c0576126bf614d6a565b5b9060005260206000209060040201600001548160000181815250508a816020018181525050600960008773ffffffffffffffffffffffffffffffffffffffff1673ffffffffffffffffffffffffffffffffffffffff168152602001908152602001600020828154811061273657612735614d6a565b5b906000526020600020906004020160020154816040018181525050600960008773ffffffffffffffffffffffffffffffffffffffff1673ffffffffffffffffffffffffffffffffffffffff16815260200190815260200160002082815481106127a2576127a1614d6a565b5b906000526020600020906004020160030154816060018181525050600b6000600860008973ffffffffffffffffffffffffffffffffffffffff1673ffffffffffffffffffffffffffffffffffffffff168152602001908152602001600020848154811061281257612811614d6a565b5b9060005260206000209060050201600101548152602001908152602001600020819080600181540180825580915050600190039060005260206000209060040201600090919091909150600082015181600001556020820151816001015560408201518160020155606082015181600301555050600960008773ffffffffffffffffffffffffffffffffffffffff1673ffffffffffffffffffffffffffffffffffffffff1681526020019081526020016000208054806128d5576128d4615435565b5b600190038181906000526020600020906004020160008082016000905560018201600090556002820160009055600382016000905550509055806000015185858061291f90614ead565b96506064811061293257612931614d6a565b5b6020020181815250505050808061294890614ead565b91505061260c565b50612af96006600060086000600560008e815260200190815260200160002060050160019054906101000a900473ffffffffffffffffffffffffffffffffffffffff1673ffffffffffffffffffffffffffffffffffffffff1673ffffffffffffffffffffffffffffffffffffffff1681526020019081526020016000208a815481106129df576129de614d6a565b5b906000526020600020906005020160010154815260200190815260200160002060010160009054906101000a900473ffffffffffffffffffffffffffffffffffffffff16600560008b815260200190815260200160002060050160019054906101000a900473ffffffffffffffffffffffffffffffffffffffff168860086000600560008f815260200190815260200160002060050160019054906101000a900473ffffffffffffffffffffffffffffffffffffffff1673ffffffffffffffffffffffffffffffffffffffff1673ffffffffffffffffffffffffffffffffffffffff1681526020019081526020016000208b81548110612ae257612ae1614d6a565b5b9060005260206000209060050201600201546141e3565b7f1aff87a36f8ab51e6d00c79e403e67535da25af06a6dc7b9cac3fc96a25cbfb38860086000600560008d815260200190815260200160002060050160019054906101000a900473ffffffffffffffffffffffffffffffffffffffff1673ffffffffffffffffffffffffffffffffffffffff1673ffffffffffffffffffffffffffffffffffffffff1681526020019081526020016000208981548110612ba257612ba1614d6a565b5b90600052602060002090600502016001015460086000600560008e815260200190815260200160002060050160019054906101000a900473ffffffffffffffffffffffffffffffffffffffff1673ffffffffffffffffffffffffffffffffffffffff1673ffffffffffffffffffffffffffffffffffffffff1681526020019081526020016000208a81548110612c3b57612c3a614d6a565b5b9060005260206000209060050201600201548986604051612c609594939291906154e8565b60405180910390a1505050505050612cae565b6040517f08c379a0000000000000000000000000000000000000000000000000000000008152600401612ca590615588565b60405180910390fd5b8080612cb990614ead565b9150506121c8565b5050565b8060056000848152602001908152602001600020600301819055505050565b60046020528060005260406000206000915090508060000154908060010154908060020154908060030160009054906101000a900460ff16908060030160019054906101000a900473ffffffffffffffffffffffffffffffffffffffff16908060040154908060050154908060060154905088565b6005600083815260200190815260200160002060050160019054906101000a900473ffffffffffffffffffffffffffffffffffffffff1673ffffffffffffffffffffffffffffffffffffffff163373ffffffffffffffffffffffffffffffffffffffff161480612e165750600a60009054906101000a900473ffffffffffffffffffffffffffffffffffffffff1673ffffffffffffffffffffffffffffffffffffffff163373ffffffffffffffffffffffffffffffffffffffff16145b612e55576040517f08c379a0000000000000000000000000000000000000000000000000000000008152600401612e4c906155f4565b60405180910390fd5b8060056000848152602001908152602001600020600401819055505050565b600081831015612e845782612e86565b815b905092915050565b60008054821115612ed4576040517f08c379a0000000000000000000000000000000000000000000000000000000008152600401612ecb90615085565b60405180910390fd5b60016003811115612ee857612ee76148fc565b5b6004600084815260200190815260200160002060030160009054906101000a900460ff166003811115612f1e57612f1d6148fc565b5b14612f5e576040517f08c379a0000000000000000000000000000000000000000000000000000000008152600401612f5590615660565b60405180910390fd5b60036004600084815260200190815260200160002060030160006101000a81548160ff02191690836003811115612f9857612f976148fc565b5b021790555060005b600760006004600086815260200190815260200160002060030160019054906101000a900473ffffffffffffffffffffffffffffffffffffffff1673ffffffffffffffffffffffffffffffffffffffff1673ffffffffffffffffffffffffffffffffffffffff168152602001908152602001600020805490508110156136365760005b8181101561362257600760006004600087815260200190815260200160002060030160019054906101000a900473ffffffffffffffffffffffffffffffffffffffff1673ffffffffffffffffffffffffffffffffffffffff1673ffffffffffffffffffffffffffffffffffffffff16815260200190815260200160002081815481106130b2576130b1614d6a565b5b906000526020600020906009020160000154600760006004600088815260200190815260200160002060030160019054906101000a900473ffffffffffffffffffffffffffffffffffffffff1673ffffffffffffffffffffffffffffffffffffffff1673ffffffffffffffffffffffffffffffffffffffff168152602001908152602001600020838154811061314b5761314a614d6a565b5b906000526020600020906009020160000154101561360f576000600760006004600088815260200190815260200160002060030160019054906101000a900473ffffffffffffffffffffffffffffffffffffffff1673ffffffffffffffffffffffffffffffffffffffff1673ffffffffffffffffffffffffffffffffffffffff16815260200190815260200160002083815481106131ec576131eb614d6a565b5b90600052602060002090600902016040518061012001604052908160008201548152602001600182015481526020016002820160009054906101000a900473ffffffffffffffffffffffffffffffffffffffff1673ffffffffffffffffffffffffffffffffffffffff1673ffffffffffffffffffffffffffffffffffffffff16815260200160038201548152602001600482015481526020016005820154815260200160068201548152602001600782015481526020016008820160009054906101000a900460ff1615151515815250509050600760006004600088815260200190815260200160002060030160019054906101000a900473ffffffffffffffffffffffffffffffffffffffff1673ffffffffffffffffffffffffffffffffffffffff1673ffffffffffffffffffffffffffffffffffffffff168152602001908152602001600020828154811061334657613345614d6a565b5b9060005260206000209060090201600760006004600089815260200190815260200160002060030160019054906101000a900473ffffffffffffffffffffffffffffffffffffffff1673ffffffffffffffffffffffffffffffffffffffff1673ffffffffffffffffffffffffffffffffffffffff16815260200190815260200160002084815481106133db576133da614d6a565b5b906000526020600020906009020160008201548160000155600182015481600101556002820160009054906101000a900473ffffffffffffffffffffffffffffffffffffffff168160020160006101000a81548173ffffffffffffffffffffffffffffffffffffffff021916908373ffffffffffffffffffffffffffffffffffffffff16021790555060038201548160030155600482015481600401556005820154816005015560068201548160060155600782015481600701556008820160009054906101000a900460ff168160080160006101000a81548160ff02191690831515021790555090505080600760006004600089815260200190815260200160002060030160019054906101000a900473ffffffffffffffffffffffffffffffffffffffff1673ffffffffffffffffffffffffffffffffffffffff1673ffffffffffffffffffffffffffffffffffffffff168152602001908152602001600020838154811061354e5761354d614d6a565b5b9060005260206000209060090201600082015181600001556020820151816001015560408201518160020160006101000a81548173ffffffffffffffffffffffffffffffffffffffff021916908373ffffffffffffffffffffffffffffffffffffffff160217905550606082015181600301556080820151816004015560a0820151816005015560c0820151816006015560e082015181600701556101008201518160080160006101000a81548160ff021916908315150217905550905050505b808061361a90614ead565b915050613023565b50808061362e90614ead565b915050612fa0565b5061363f6144f3565b6136476144f3565b60005b600760006004600088815260200190815260200160002060030160019054906101000a900473ffffffffffffffffffffffffffffffffffffffff1673ffffffffffffffffffffffffffffffffffffffff1673ffffffffffffffffffffffffffffffffffffffff16815260200190815260200160002080549050811015613995576000600760006004600089815260200190815260200160002060030160019054906101000a900473ffffffffffffffffffffffffffffffffffffffff1673ffffffffffffffffffffffffffffffffffffffff1673ffffffffffffffffffffffffffffffffffffffff168152602001908152602001600020828154811061375357613752614d6a565b5b90600052602060002090600902016040518061012001604052908160008201548152602001600182015481526020016002820160009054906101000a900473ffffffffffffffffffffffffffffffffffffffff1673ffffffffffffffffffffffffffffffffffffffff1673ffffffffffffffffffffffffffffffffffffffff16815260200160038201548152602001600482015481526020016005820154815260200160068201548152602001600782015481526020016008820160009054906101000a900460ff1615151515815250509050600061384c60046000898152602001908152602001600020600201548360a00151612e74565b905061385c818360200151612e74565b90508160000151858360c001516064811061387a57613879614d6a565b5b60200201818152505080848360c001516064811061389b5761389a614d6a565b5b602002018181525050806004600089815260200190815260200160002060020160008282546138ca9190615401565b925050819055508060076000600460008b815260200190815260200160002060030160019054906101000a900473ffffffffffffffffffffffffffffffffffffffff1673ffffffffffffffffffffffffffffffffffffffff1673ffffffffffffffffffffffffffffffffffffffff168152602001908152602001600020848154811061395957613958614d6a565b5b906000526020600020906009020160010160008282546139799190615401565b925050819055505050808061398d90614ead565b91505061364a565b5060005b600760006004600088815260200190815260200160002060030160019054906101000a900473ffffffffffffffffffffffffffffffffffffffff1673ffffffffffffffffffffffffffffffffffffffff1673ffffffffffffffffffffffffffffffffffffffff16815260200190815260200160002080549050811015613cbe576000600760006004600089815260200190815260200160002060030160019054906101000a900473ffffffffffffffffffffffffffffffffffffffff1673ffffffffffffffffffffffffffffffffffffffff1673ffffffffffffffffffffffffffffffffffffffff1681526020019081526020016000208281548110613aa257613aa1614d6a565b5b90600052602060002090600902016040518061012001604052908160008201548152602001600182015481526020016002820160009054906101000a900473ffffffffffffffffffffffffffffffffffffffff1673ffffffffffffffffffffffffffffffffffffffff1673ffffffffffffffffffffffffffffffffffffffff16815260200160038201548152602001600482015481526020016005820154815260200160068201548152602001600782015481526020016008820160009054906101000a900460ff16151515158152505090506000613b9b60046000898152602001908152602001600020600201548360200151612e74565b905080848360c0015160648110613bb557613bb4614d6a565b5b60200201818151613bc69190614cb9565b9150818152505080600460008981526020019081526020016000206002016000828254613bf39190615401565b925050819055508060076000600460008b815260200190815260200160002060030160019054906101000a900473ffffffffffffffffffffffffffffffffffffffff1673ffffffffffffffffffffffffffffffffffffffff1673ffffffffffffffffffffffffffffffffffffffff1681526020019081526020016000208481548110613c8257613c81614d6a565b5b90600052602060002090600902016001016000828254613ca29190615401565b9250508190555050508080613cb690614ead565b915050613999565b506000600190505b6001548111613eac576000828260648110613ce457613ce3614d6a565b5b60200201511115613e99577f389cc4d2b135e7b676a809ad7bacdde1b644b0bbe73afdd545a176ea73b955178582848460648110613d2557613d24614d6a565b5b6020020151868560648110613d3d57613d3c614d6a565b5b6020020151604051613d529493929190614b39565b60405180910390a1613e006004600087815260200190815260200160002060030160019054906101000a900473ffffffffffffffffffffffffffffffffffffffff166005600084815260200190815260200160002060050160019054906101000a900473ffffffffffffffffffffffffffffffffffffffff16858460648110613dde57613ddd614d6a565b5b6020020151858560648110613df657613df5614d6a565b5b60200201516141e3565b6001600460008781526020019081526020016000206001015403613e4957613e4481838360648110613e3557613e34614d6a565b5b602002015160008860006141e9565b613e98565b6002600460008781526020019081526020016000206001015403613e9257613e8d816000848460648110613e8057613e7f614d6a565b5b60200201516000896141e9565b613e97565b600080fd5b5b5b8080613ea490614ead565b915050613cc6565b505b6000600760006004600088815260200190815260200160002060030160019054906101000a900473ffffffffffffffffffffffffffffffffffffffff1673ffffffffffffffffffffffffffffffffffffffff1673ffffffffffffffffffffffffffffffffffffffff16815260200190815260200160002080549050111561404557600760006004600087815260200190815260200160002060030160019054906101000a900473ffffffffffffffffffffffffffffffffffffffff1673ffffffffffffffffffffffffffffffffffffffff1673ffffffffffffffffffffffffffffffffffffffff168152602001908152602001600020805480613fb457613fb3615435565b5b600190038181906000526020600020906009020160008082016000905560018201600090556002820160006101000a81549073ffffffffffffffffffffffffffffffffffffffff0219169055600382016000905560048201600090556005820160009055600682016000905560078201600090556008820160006101000a81549060ff021916905550509055613eae565b4292505050919050565b60025481565b60005481565b60008060008060005b600b6000888152602001908152602001600020805490508110156141865785600b600089815260200190815260200160002082815481106140a8576140a7614d6a565b5b906000526020600020906004020160000154036141735785600b600089815260200190815260200160002082815481106140e5576140e4614d6a565b5b906000526020600020906004020160010154600b60008a8152602001908152602001600020838154811061411c5761411b614d6a565b5b906000526020600020906004020160020154600b60008b8152602001908152602001600020848154811061415357614152614d6a565b5b9060005260206000209060040201600301549450945094509450506141da565b808061417e90614ead565b915050614064565b5060016000146141cb576040517f08c379a00000000000000000000000000000000000000000000000000000000081526004016141c2906156f2565b60405180910390fd5b60008060008093509350935093505b92959194509250565b50505050565b8360056000878152602001908152602001600020600101600082825461420f9190614cb9565b925050819055508260056000878152602001908152602001600020600201600082825461423c9190614cb9565b92505081905550600061427b60056000888152602001908152602001600020600101546005600089815260200190815260200160002060020154612e74565b9050806005600088815260200190815260200160002060010160008282546142a39190615401565b92505081905550806005600088815260200190815260200160002060020160008282546142d09190615401565b92505081905550806005600088815260200190815260200160002060030160008282546142fd9190614cb9565b9250508190555061430c61453e565b6003600081548092919061431f90614ead565b91905055506003548160000181815250508681602001818152505086816040018181525050600381606001818152505060096000600560008a815260200190815260200160002060050160019054906101000a900473ffffffffffffffffffffffffffffffffffffffff1673ffffffffffffffffffffffffffffffffffffffff1673ffffffffffffffffffffffffffffffffffffffff16815260200190815260200160002081908060018154018082558091505060019003906000526020600020906004020160009091909190915060008201518160000155602082015181600101556040820151816002015560608201518160030155505050505050505050565b6040518061012001604052806000815260200160008152602001600073ffffffffffffffffffffffffffffffffffffffff16815260200160008019168152602001600080191681526020016000815260200160008152602001600081526020016000151581525090565b6040518060a00160405280600081526020016000815260200160008152602001600073ffffffffffffffffffffffffffffffffffffffff168152602001600081525090565b604051806101400160405280600a90602082028036833780820191505090505090565b60405180610c800160405280606490602082028036833780820191505090505090565b6040518060800160405280600081526020016000815260200160008152602001600081525090565b6040518060800160405280600081526020016000815260200160008152602001600081525090565b600080fd5b6000819050919050565b61457e8161456b565b811461458957600080fd5b50565b60008135905061459b81614575565b92915050565b600080604083850312156145b8576145b7614566565b5b60006145c68582860161458c565b92505060206145d78582860161458c565b9150509250929050565b600080600080608085870312156145fb576145fa614566565b5b60006146098782880161458c565b945050602061461a8782880161458c565b935050604061462b8782880161458c565b925050606061463c8782880161458c565b91505092959194509250565b60008115159050919050565b61465d81614648565b82525050565b60006020820190506146786000830184614654565b92915050565b60006020828403121561469457614693614566565b5b60006146a28482850161458c565b91505092915050565b6146b48161456b565b82525050565b60006020820190506146cf60008301846146ab565b92915050565b6000819050919050565b6146e8816146d5565b81146146f357600080fd5b50565b600081359050614705816146df565b92915050565b600080600080600060a0868803121561472757614726614566565b5b60006147358882890161458c565b95505060206147468882890161458c565b9450506040614757888289016146f6565b9350506060614768888289016146f6565b92505060806147798882890161458c565b9150509295509295909350565b60008060006060848603121561479f5761479e614566565b5b60006147ad8682870161458c565b93505060206147be8682870161458c565b92505060406147cf8682870161458c565b9150509250925092565b6000600a9050919050565b600081905092915050565b6000819050919050565b6148028161456b565b82525050565b600061481483836147f9565b60208301905092915050565b6000602082019050919050565b614836816147d9565b61484081846147e4565b925061484b826147ef565b8060005b8381101561487c5781516148638782614808565b965061486e83614820565b92505060018101905061484f565b505050505050565b60006101408201905061489a600083018461482d565b92915050565b600073ffffffffffffffffffffffffffffffffffffffff82169050919050565b60006148cb826148a0565b9050919050565b6148db816148c0565b82525050565b60006020820190506148f660008301846148d2565b92915050565b7f4e487b7100000000000000000000000000000000000000000000000000000000600052602160045260246000fd5b6004811061493c5761493b6148fc565b5b50565b600081905061494d8261492b565b919050565b600061495d8261493f565b9050919050565b61496d81614952565b82525050565b600061497e826148a0565b9050919050565b61498e81614973565b82525050565b6000610140820190506149aa600083018d6146ab565b6149b7602083018c6146ab565b6149c4604083018b6146ab565b6149d1606083018a6146ab565b6149de60808301896146ab565b6149eb60a0830188614964565b6149f860c0830187614985565b614a0560e08301866146ab565b614a136101008301856146ab565b614a216101208301846146ab565b9b9a5050505050505050505050565b6000819050919050565b614a4381614a30565b8114614a4e57600080fd5b50565b600081359050614a6081614a3a565b92915050565b614a6f816148c0565b8114614a7a57600080fd5b50565b600081359050614a8c81614a66565b92915050565b60008060008060808587031215614aac57614aab614566565b5b6000614aba87828801614a51565b9450506020614acb8782880161458c565b9350506040614adc87828801614a7d565b9250506060614aed8782880161458c565b91505092959194509250565b60008060408385031215614b1057614b0f614566565b5b6000614b1e85828601614a7d565b9250506020614b2f8582860161458c565b9150509250929050565b6000608082019050614b4e60008301876146ab565b614b5b60208301866146ab565b614b6860408301856146ab565b614b7560608301846146ab565b95945050505050565b600060208284031215614b9457614b93614566565b5b6000614ba284828501614a7d565b91505092915050565b6000604082019050614bc060008301856146ab565b614bcd60208301846146ab565b9392505050565b6000604082019050614be960008301856146ab565b614bf66020830184614985565b9392505050565b614c0681614a30565b82525050565b600061010082019050614c22600083018b6146ab565b614c2f602083018a614bfd565b614c3c60408301896146ab565b614c496060830188614964565b614c566080830187614985565b614c6360a08301866146ab565b614c7060c08301856146ab565b614c7d60e08301846146ab565b9998505050505050505050565b7f4e487b7100000000000000000000000000000000000000000000000000000000600052601160045260246000fd5b6000614cc48261456b565b9150614ccf8361456b565b9250828201905080821115614ce757614ce6614c8a565b5b92915050565b600082825260208201905092915050565b7f496e76616c6964206d616e756661637475726572000000000000000000000000600082015250565b6000614d34601483614ced565b9150614d3f82614cfe565b602082019050919050565b60006020820190508181036000830152614d6381614d27565b9050919050565b7f4e487b7100000000000000000000000000000000000000000000000000000000600052603260045260246000fd5b6000819050919050565b614db4614daf8261456b565b614d99565b82525050565b6000614dc68284614da3565b60208201915081905092915050565b7f496e636f72726563742070726963650000000000000000000000000000000000600082015250565b6000614e0b600f83614ced565b9150614e1682614dd5565b602082019050919050565b60006020820190508181036000830152614e3a81614dfe565b9050919050565b7f496e636f7272656374207175616e746974790000000000000000000000000000600082015250565b6000614e77601283614ced565b9150614e8282614e41565b602082019050919050565b60006020820190508181036000830152614ea681614e6a565b9050919050565b6000614eb88261456b565b91507fffffffffffffffffffffffffffffffffffffffffffffffffffffffffffffffff8203614eea57614ee9614c8a565b5b600182019050919050565b7f5573657220646f65736e27742065786973740000000000000000000000000000600082015250565b6000614f2b601283614ced565b9150614f3682614ef5565b602082019050919050565b60006020820190508181036000830152614f5a81614f1e565b9050919050565b7f41756374696f6e20696e2d70726f677265737320616c72656164790000000000600082015250565b6000614f97601b83614ced565b9150614fa282614f61565b602082019050919050565b60006020820190508181036000830152614fc681614f8a565b9050919050565b7f4d616e75666163747572657220646f65736e2774206578697374000000000000600082015250565b6000615003601a83614ced565b915061500e82614fcd565b602082019050919050565b6000602082019050818103600083015261503281614ff6565b9050919050565b7f537570706c69657220646f65736e277420657869737400000000000000000000600082015250565b600061506f601683614ced565b915061507a82615039565b602082019050919050565b6000602082019050818103600083015261509e81615062565b9050919050565b7f537570706c6965722069736e27742072756e6e696e6720616e2061756374696f60008201527f6e207269676874206e6f77000000000000000000000000000000000000000000602082015250565b6000615101602b83614ced565b915061510c826150a5565b604082019050919050565b60006020820190508181036000830152615130816150f4565b9050919050565b7f537570706c69657220646f65736e742073656c6c20796f750000000000000000600082015250565b600061516d601883614ced565b915061517882615137565b602082019050919050565b6000602082019050818103600083015261519c81615160565b9050919050565b6151ac816146d5565b82525050565b60006080820190506151c760008301876146ab565b6151d460208301866146ab565b6151e160408301856151a3565b6151ee60608301846151a3565b95945050505050565b7f4163636573732044656e69656400000000000000000000000000000000000000600082015250565b600061522d600d83614ced565b9150615238826151f7565b602082019050919050565b6000602082019050818103600083015261525c81615220565b9050919050565b600061526e8261456b565b91506152798361456b565b9250817fffffffffffffffffffffffffffffffffffffffffffffffffffffffffffffffff04831182151516156152b2576152b1614c8a565b5b828202905092915050565b7f4d6f6e6579206e6f7420656e6f75676800000000000000000000000000000000600082015250565b60006152f3601083614ced565b91506152fe826152bd565b602082019050919050565b60006020820190508181036000830152615322816152e6565b9050919050565b7f41756374696f6e20656e64656420616c72656164790000000000000000000000600082015250565b600061535f601583614ced565b915061536a82615329565b602082019050919050565b6000602082019050818103600083015261538e81615352565b9050919050565b7f4d616e75666163747572657220494420646f65736e6f74206578697374000000600082015250565b60006153cb601d83614ced565b91506153d682615395565b602082019050919050565b600060208201905081810360008301526153fa816153be565b9050919050565b600061540c8261456b565b91506154178361456b565b925082820390508181111561542f5761542e614c8a565b5b92915050565b7f4e487b7100000000000000000000000000000000000000000000000000000000600052603160045260246000fd5b600060649050919050565b600081905092915050565b6000819050919050565b6000602082019050919050565b61549a81615464565b6154a4818461546f565b92506154af8261547a565b8060005b838110156154e05781516154c78782614808565b96506154d283615484565b9250506001810190506154b3565b505050505050565b6000610d00820190506154fe60008301886146ab565b61550b60208301876146ab565b61551860408301866146ab565b61552560608301856146ab565b6155326080830184615491565b9695505050505050565b7f5175616e74697479206e6f7420417661696c61626c6500000000000000000000600082015250565b6000615572601683614ced565b915061557d8261553c565b602082019050919050565b600060208201905081810360008301526155a181615565565b9050919050565b7f43616e6e6f742062652073657420627920796f75000000000000000000000000600082015250565b60006155de601483614ced565b91506155e9826155a8565b602082019050919050565b6000602082019050818103600083015261560d816155d1565b9050919050565b7f52657665616c207068617365206e6f742072756e6e696e670000000000000000600082015250565b600061564a601883614ced565b915061565582615614565b602082019050919050565b600060208201905081810360008301526156798161563d565b9050919050565b7f436172206e6f7420666f756e6420696e2074686579206275796572732070757260008201527f6368617365730000000000000000000000000000000000000000000000000000602082015250565b60006156dc602683614ced565b91506156e782615680565b604082019050919050565b6000602082019050818103600083015261570b816156cf565b905091905056fea26469706673582212201a767a82dbb373f11a64538e388d96b6d01d7f9438872037d3bbce094e579ae564736f6c63430008100033",
  "immutableReferences": {},
  "source": "// SPDX-License-Identifier: MIT\npragma solidity >=0.8.16;\npragma experimental ABIEncoderV2;\n\nimport {FirstAuction} from \"./auction.sol\";\n\ncontract Marketplace {\n    enum AuctionState {\n        RUNNING, // auction is running and bids are being places\n        REVEALING, // auction has ended and bidders are revealing their bids\n        NOT_STARTED, // auction hasn't started yet\n        FINISHED // auction has finished\n    }\n\n    struct Bid {\n        uint256 valuePrice;\n        uint256 valueQuantity;\n        address payable bidderAddress;\n        bytes32 blindBidPrice; // will have price and quantity you are bidding\n        bytes32 blindBidQuantity;\n        uint256 limitingResourceQuantity;\n        uint256 buyerID;\n        uint256 sellerID;\n        bool correctReveal;\n    }\n\n    struct Purchase {\n        uint256 sellerID;\n        uint256 buyerID;\n        uint256 quantity;\n        address payable customeraddr;\n        uint256 money;\n    }\n\n    struct Product {\n        uint256 tag;\n        uint256 manufacturerID;\n        uint256 sellerA; //wheels\n        uint256 sellerB; //car_body\n    }\n\n    uint256 public num_supplier;\n    uint256 public num_manufacturer;\n    uint256 public num_customer;\n    uint256 public num_products;\n\n    mapping(uint256 => Supplier) public suppliers;\n    mapping(uint256 => Manufacturer) public manufacturers;\n    mapping(uint256 => Customer) public customers;\n    mapping(address => Bid[]) bidsTillNow;\n    mapping(address => Purchase[]) purchasesTillNow;\n    mapping(address => Product[]) productsTillNow;\n\n    address payable public owner;\n\n    constructor() {\n        owner = payable(msg.sender);\n        num_manufacturer = 0;\n        num_supplier = 0;\n        num_customer = 0;\n    }\n\n    struct Supplier {\n        uint256 tag;\n        int256 partType; // 0 is wheels, 1 is car_parts\n        uint256 quantityAvailable;\n        AuctionState currentState;\n        address wallet;\n        uint256 maxBidders;\n        uint256 bidsPlaced;\n        uint256 bidsRevealed;\n    }\n\n    struct Manufacturer {\n        uint256 _tag;\n        uint256 quantityA;\n        uint256 quantityB;\n        uint256 cars;\n        uint256 carsprice;\n        AuctionState currentState;\n        address wallet;\n        uint256 maxBidders;\n        uint256 QA_sellerID;\n        uint256 QB_sellerID;\n    }\n\n    mapping(uint256 => Car[]) carsBought;\n\n    struct Car {\n        uint256 tag;\n        uint256 manufacturerID;\n        uint256 sellerIDA;\n        uint256 sellerIDB;\n    }\n\n    struct Customer {\n        uint256 _tag;\n        address wallet;\n    }\n\n    // function makeBidSupplier(int index, ...) public {\n    //     suppliers[index].auction.makeBid(...);\n    // }\n    // Helpers\n    function minimum(uint256 a, uint256 b) public pure returns (uint256) {\n        return a >= b ? b : a;\n    }\n\n    function supplierStartAuction(uint256 tag) public returns (uint256) {\n        // function for supplier to start their bidding process\n        require(tag <= num_supplier, \"User doesn't exist\");\n        require(\n            suppliers[tag].currentState != AuctionState.RUNNING,\n            \"Auction in-progress already\"\n        );\n\n        // TODO: UNCOMMENT THE FOLLOWING TO ENSURE PEOPLE ARE STARTING AUCTIONS FOR THEMSELVES ONLY\n        // require(\n        //     suppliers[tag].wallet == msg.sender,\n        //     \"Start auction only for yourself!\"\n        // );\n\n        suppliers[tag].currentState = AuctionState.RUNNING;\n        suppliers[tag].bidsPlaced = 0;\n        suppliers[tag].bidsRevealed = 0;\n        emit StartSupplierAuction(tag, block.timestamp);\n        return block.timestamp;\n    }\n\n    function supplierEndAuction(uint256 tag) public returns (uint256) {\n        // function for suppilier to end their auction\n        require(tag <= num_supplier, \"User doesn't exist\");\n        require(\n            suppliers[tag].currentState == AuctionState.RUNNING,\n            \"Auction ended already\"\n        );\n\n        // TODO: UNCOMMENT THE FOLLOWING TO ENSURE PEOPLE ARE ENDING AUCTIONS FOR THEMSELVES ONLY\n        // require(\n        //     suppliers[tag].wallet == msg.sender,\n        //     \"End auction only for yourself!\"\n        // );\n\n        suppliers[tag].currentState = AuctionState.REVEALING;\n        suppliers[tag].bidsRevealed = 0;\n        emit EndSupplierAuction(tag, block.timestamp);\n        return block.timestamp;\n    }\n\n    function supplierEndReveal(uint256 tag)\n        public\n        returns (\n            // afterOnly(supplierEndAuction(tag))\n            uint256\n        )\n    {\n        require(tag <= num_supplier, \"Supplier doesn't exist\");\n        require(\n            suppliers[tag].currentState == AuctionState.REVEALING,\n            \"Reveal phase not running\"\n        );\n\n        // TODO: UNCOMMENT THE FOLLOWING TO ENSURE PEOPLE ARE ALLOCATING FOR THEMSELVES ONLY\n        // require(\n        //     (suppliers[tag].wallet == msg.sender || owner == msg.sender),\n        //     \"Operation now allowed\"\n        // );\n\n        suppliers[tag].currentState = AuctionState.FINISHED;\n\n        // do allocation logic and emit\n\n        // bubble sort according to bid value\n        for (uint256 i = 0; i < bidsTillNow[suppliers[tag].wallet].length; i++)\n            for (uint256 j = 0; j < i; j++)\n                if (\n                    bidsTillNow[suppliers[tag].wallet][i].valuePrice <\n                    bidsTillNow[suppliers[tag].wallet][j].valuePrice\n                ) {\n                    Bid memory x = bidsTillNow[suppliers[tag].wallet][i];\n                    bidsTillNow[suppliers[tag].wallet][i] = bidsTillNow[\n                        suppliers[tag].wallet\n                    ][j];\n                    bidsTillNow[suppliers[tag].wallet][j] = x;\n                }\n        // allocate according to limiting resource first\n        uint256[100] memory allocatingPrices;\n        uint256[100] memory allocatingQuantities;\n        for (\n            uint256 i = 0;\n            i < bidsTillNow[suppliers[tag].wallet].length;\n            i++\n        ) {\n            Bid memory bid = bidsTillNow[suppliers[tag].wallet][i];\n            uint256 allocatingHere = minimum(\n                suppliers[tag].quantityAvailable,\n                bid.limitingResourceQuantity\n            );\n            allocatingHere = minimum(allocatingHere, bid.valueQuantity);\n\n            allocatingPrices[bid.buyerID] = bid.valuePrice;\n            allocatingQuantities[bid.buyerID] = allocatingHere;\n            suppliers[tag].quantityAvailable -= allocatingHere;\n            bidsTillNow[suppliers[tag].wallet][i]\n                .valueQuantity -= allocatingHere;\n        }\n\n        // allocate remaining for maximum profit\n        for (\n            uint256 i = 0;\n            i < bidsTillNow[suppliers[tag].wallet].length;\n            i++\n        ) {\n            Bid memory bid = bidsTillNow[suppliers[tag].wallet][i];\n            uint256 allocatingHere = minimum(\n                suppliers[tag].quantityAvailable,\n                bid.valueQuantity\n            );\n\n            allocatingQuantities[bid.buyerID] += allocatingHere;\n            suppliers[tag].quantityAvailable -= allocatingHere;\n            bidsTillNow[suppliers[tag].wallet][i]\n                .valueQuantity -= allocatingHere;\n        }\n\n        // emit all allocations\n        for (uint256 i = 1; i <= num_manufacturer; i++)\n            if (allocatingQuantities[i] > 0) {\n                emit AllocateFromSupplier(\n                    tag,\n                    i,\n                    allocatingQuantities[i],\n                    allocatingPrices[i]\n                );\n                transferMoney(\n                    suppliers[tag].wallet,\n                    manufacturers[i].wallet,\n                    allocatingPrices[i],\n                    allocatingQuantities[i]\n                );\n                //update all the manufacturers quanitites to make cars\n                if (suppliers[tag].partType == 1)\n                    update_Manufacturer_Quantities(\n                        i,\n                        allocatingQuantities[i],\n                        0,\n                        tag,\n                        0\n                    );\n                else if (suppliers[tag].partType == 2)\n                    update_Manufacturer_Quantities(\n                        i,\n                        0,\n                        allocatingQuantities[i],\n                        0,\n                        tag\n                    );\n                else revert();\n            }\n        while (bidsTillNow[suppliers[tag].wallet].length > 0)\n            bidsTillNow[suppliers[tag].wallet].pop();\n        return block.timestamp;\n    }\n\n    function transferMoney(\n        address senderaddr,\n        address receiveraddr,\n        uint256 price,\n        uint256 qunatity\n    ) private {\n        // do eth transactions here\n        return;\n    }\n\n    function refundMoney(address beneficary, uint256 price) private {\n        // do eth transactions here\n    }\n\n    function manufacturerPlacesBid(\n        uint256 manufacturerID,\n        uint256 supplierID,\n        bytes32 blindPrice,\n        bytes32 blindQuantity,\n        uint256 limit // beforeOnly(supplierEndAuction(supplierID)) // afterOnly(supplierEndAuction(supplierID))\n    ) public {\n        //should get all data needed for bid\n        // function for manufacturer to place a bid\n        require(\n            num_manufacturer >= manufacturerID,\n            \"Manufacturer doesn't exist\"\n        );\n        require(num_supplier >= supplierID, \"Supplier doesn't exist\");\n        require(\n            suppliers[supplierID].currentState == AuctionState.RUNNING,\n            \"Supplier isn't running an auction right now\"\n        );\n        require(\n            supplierID == manufacturerID || supplierID == 3,\n            \"Supplier doesnt sell you\"\n        );\n\n        // TODO: UNCOMMENT THE FOLLOWING TO ENSURE PEOPLE ARE ONLY PLACING BIDS FOR THEMSELVES\n        // require(\n        //     manufacturers[manufacturerID].wallet == msg.sender,\n        //     \"You can only bid for yourself!\"\n        // );\n\n        Bid memory newbid;\n        newbid.bidderAddress = payable(msg.sender);\n        newbid.buyerID = manufacturerID;\n        newbid.sellerID = supplierID;\n        newbid.blindBidPrice = blindPrice;\n        newbid.blindBidQuantity = blindQuantity;\n        newbid.limitingResourceQuantity = limit;\n        newbid.valuePrice = 0;\n        newbid.valueQuantity = 0;\n        newbid.correctReveal = true;\n\n        address supplieraddr = suppliers[supplierID].wallet;\n        bidsTillNow[supplieraddr].push(newbid);\n\n        suppliers[supplierID].bidsPlaced += 1;\n\n        emit ManufacturerBids(\n            supplierID,\n            manufacturerID,\n            blindPrice,\n            blindQuantity\n        );\n\n        // if (\n        //     suppliers[supplierID].bidsPlaced == suppliers[supplierID].maxBidders\n        // ) {\n        //     // go to reveal phase\n        //     suppliers[supplierID].currentState = AuctionState.REVEALING;\n        //     supplierEndAuction()\n        // }\n    }\n\n    function customerPurchase(\n        uint256 customerID,\n        uint256 manufacturerID,\n        uint256 quantity\n    ) external payable {\n        require(\n            customers[customerID].wallet == msg.sender || owner == msg.sender,\n            \"Access Denied\"\n        );\n        Purchase memory newpurchase;\n        newpurchase.sellerID = manufacturerID;\n        newpurchase.customeraddr = payable(msg.sender);\n        newpurchase.quantity = quantity;\n        newpurchase.buyerID = customerID;\n        newpurchase.money = msg.value;\n        uint256 unit_cost = manufacturers[manufacturerID].carsprice;\n        uint256 total_cost = unit_cost * quantity;\n        require(newpurchase.money >= total_cost, \"Money not enough\");\n        address manf_adrr = manufacturers[manufacturerID].wallet;\n        purchasesTillNow[manf_adrr].push(newpurchase);\n        emit CustomerRequest(\n            customerID,\n            manufacturerID,\n            quantity,\n            manufacturers[manufacturerID].carsprice\n        );\n    }\n\n    function manufactuerRevealBid(\n        uint256 manufacturerID,\n        uint256 supplierID,\n        uint256 price,\n        uint256 quantity\n    ) public returns (bool) {\n        require(manufacturerID <= num_manufacturer, \"Invalid manufacturer\");\n        require(suppliers[supplierID].currentState == AuctionState.REVEALING);\n        // TODO: UNCOMMENT THE FOLLOWING TO ENSURE PEOPLE ARE ONLY REVEALING BIDS FOR THEMSELVES\n        // require(\n        //     manufacturers[manufacturerID].wallet == msg.sender,\n        //     \"Reveal only for yourself!\"\n        // );\n\n        for (\n            uint256 i = 0;\n            i < bidsTillNow[suppliers[supplierID].wallet].length;\n            i++\n        )\n            if (\n                bidsTillNow[suppliers[supplierID].wallet][i].buyerID ==\n                manufacturerID\n            ) {\n                require(\n                    keccak256(abi.encodePacked(price)) ==\n                        bidsTillNow[suppliers[supplierID].wallet][i]\n                            .blindBidPrice,\n                    \"Incorrect price\"\n                );\n                require(\n                    keccak256(abi.encodePacked(quantity)) ==\n                        bidsTillNow[suppliers[supplierID].wallet][i]\n                            .blindBidQuantity,\n                    \"Incorrect quantity\"\n                );\n                if (\n                    keccak256(abi.encodePacked(price)) !=\n                    bidsTillNow[suppliers[supplierID].wallet][i].blindBidPrice\n                ) {\n                    bidsTillNow[suppliers[supplierID].wallet][i]\n                        .correctReveal = false;\n                    return false;\n                }\n                if (\n                    keccak256(abi.encodePacked(quantity)) !=\n                    bidsTillNow[suppliers[supplierID].wallet][i]\n                        .blindBidQuantity\n                ) {\n                    bidsTillNow[suppliers[supplierID].wallet][i]\n                        .correctReveal = false;\n                    return false;\n                }\n                bidsTillNow[suppliers[supplierID].wallet][i].valuePrice = price;\n                bidsTillNow[suppliers[supplierID].wallet][i]\n                    .valueQuantity = quantity;\n                emit ManufacturerReveal(\n                    supplierID,\n                    manufacturerID,\n                    price,\n                    quantity\n                );\n\n                suppliers[supplierID].bidsRevealed += 1;\n                if (\n                    suppliers[supplierID].bidsRevealed ==\n                    suppliers[supplierID].maxBidders\n                ) {\n                    // go to allocation\n                    // supplierEndReveal(supplierID);\n                }\n\n                return true;\n            }\n        return false;\n    }\n\n    function manufacturerSupplyCars(uint256 manufacturerID) public {\n        require(num_manufacturer >= manufacturerID);\n        require(\n            msg.sender == manufacturers[manufacturerID].wallet ||\n                msg.sender == owner\n        );\n        for (\n            uint256 i = 0;\n            i < purchasesTillNow[manufacturers[manufacturerID].wallet].length;\n            i++\n        ) {\n            //Money is already checked, Quantity check is done here\n            if (\n                purchasesTillNow[manufacturers[manufacturerID].wallet][i]\n                    .quantity <= manufacturers[manufacturerID].cars\n            ) {\n                uint256 effective_price = purchasesTillNow[\n                    manufacturers[manufacturerID].wallet\n                ][i].quantity * manufacturers[manufacturerID].carsprice;\n                uint256 refund_amount = purchasesTillNow[\n                    manufacturers[manufacturerID].wallet\n                ][i].money - effective_price;\n\n                manufacturers[manufacturerID].cars -= purchasesTillNow[\n                    manufacturers[manufacturerID].wallet\n                ][i].quantity;\n                uint256 num_of_cars = purchasesTillNow[\n                    manufacturers[manufacturerID].wallet\n                ][i].quantity;\n                address mf_adrr = manufacturers[manufacturerID].wallet;\n                uint256[100] memory carTags;\n                uint256 carTagsIdx = 0;\n                for (uint256 j = 0; j < num_of_cars; j++) {\n                    uint256 idx = productsTillNow[mf_adrr].length - 1;\n                    Car memory newcar;\n                    newcar.tag = productsTillNow[mf_adrr][idx].tag;\n                    newcar.manufacturerID = manufacturerID;\n                    newcar.sellerIDA = productsTillNow[mf_adrr][idx].sellerA;\n                    newcar.sellerIDB = productsTillNow[mf_adrr][idx].sellerB;\n                    carsBought[purchasesTillNow[mf_adrr][idx].buyerID].push(\n                        newcar\n                    );\n                    productsTillNow[mf_adrr].pop();\n                    carTags[carTagsIdx++] = newcar.tag;\n                }\n                transferMoney(\n                    customers[\n                        purchasesTillNow[manufacturers[manufacturerID].wallet][\n                            i\n                        ].buyerID\n                    ].wallet,\n                    manufacturers[manufacturerID].wallet,\n                    effective_price,\n                    purchasesTillNow[manufacturers[manufacturerID].wallet][i]\n                        .quantity\n                );\n                // refundMoney(\n                // customers[purchasesTillNow[manufacturers[manufacturerID].wallet][i].buyerID].wallet,\n                // refund_amount);\n                emit AllocateFromManufacturer(\n                    manufacturerID,\n                    purchasesTillNow[manufacturers[manufacturerID].wallet][i]\n                        .buyerID,\n                    purchasesTillNow[manufacturers[manufacturerID].wallet][i]\n                        .quantity,\n                    effective_price,\n                    carTags\n                );\n            } else {\n                //send them back the amount saying quantity not available\n                revert(\"Quantity not Available\"); //gas to caller\n            }\n        }\n    }\n\n    function addSupplier(\n        int256 partType,\n        uint256 quantityAvailable,\n        address payable addr,\n        uint256 auctionBidders\n    ) public {\n        num_supplier++;\n        suppliers[num_supplier] = Supplier(\n            num_supplier,\n            partType,\n            quantityAvailable,\n            AuctionState.NOT_STARTED,\n            addr,\n            auctionBidders,\n            0,\n            0\n        );\n    }\n\n    function addManufacturer(address payable addr, uint256 auctionBidders)\n        public\n    {\n        num_manufacturer++;\n        manufacturers[num_manufacturer] = Manufacturer(\n            num_manufacturer,\n            0,\n            0,\n            0,\n            0,\n            AuctionState.NOT_STARTED,\n            addr,\n            auctionBidders,\n            0,\n            0\n        );\n    }\n\n    function addCustomer(address payable addr) public {\n        num_customer++;\n        customers[num_customer] = Customer(num_customer, addr);\n    }\n\n    // Setter functions\n    function supplierAddQuantity(uint256 suppliedID, uint256 quantityToAdd)\n        public\n    {\n        require(suppliers[suppliedID].wallet == msg.sender);\n        require(num_supplier >= suppliedID);\n        // increase the supplier quantity\n        suppliers[suppliedID].quantityAvailable += quantityToAdd;\n    }\n\n    function update_Manufacturer_Quantities(\n        uint256 manufacturerID,\n        uint256 quantityA,\n        uint256 quantityB,\n        uint256 supplierA,\n        uint256 supplierB\n    ) private {\n        manufacturers[manufacturerID].quantityA += quantityA;\n        manufacturers[manufacturerID].quantityB += quantityB;\n        uint256 max_cars = minimum(\n            manufacturers[manufacturerID].quantityA,\n            manufacturers[manufacturerID].quantityB\n        );\n        manufacturers[manufacturerID].quantityA -= max_cars;\n        manufacturers[manufacturerID].quantityB -= max_cars;\n        manufacturers[manufacturerID].cars += max_cars;\n\n        Product memory newcar;\n        num_products++;\n        newcar.tag = num_products;\n        newcar.manufacturerID = manufacturerID;\n        newcar.sellerA = manufacturerID;\n        newcar.sellerB = 3;\n        productsTillNow[manufacturers[manufacturerID].wallet].push(newcar);\n    }\n\n    function set_cars_price(uint256 manufacturerID, uint256 price) public {\n        require(\n            msg.sender == manufacturers[manufacturerID].wallet ||\n                msg.sender == owner,\n            \"Cannot be set by you\"\n        );\n        manufacturers[manufacturerID].carsprice = price;\n    }\n\n    // Starting, ending and allocation of auction by supplier\n    event StartSupplierAuction(uint256 supplierID, uint256 startTime);\n    event EndSupplierAuction(uint256 supplierID, uint256 endTime);\n    event AllocateFromSupplier(\n        uint256 supplierID,\n        uint256 manufacturerID,\n        uint256 quantity,\n        uint256 price\n    );\n\n    // Starting, ending and allocation of auctions by manufacturers\n    event StartManufacturerAuction(uint256 manufacturerID, uint256 startTime);\n    event EndManufacturerAuction(uint256 manufacturerID, uint256 endTime);\n    event CustomerRequest(\n        uint256 CustomerID,\n        uint256 ManufacturerID,\n        uint256 Quantity,\n        uint256 Price\n    );\n    event AllocateFromManufacturer(\n        uint256 manufacturerID,\n        uint256 customerID,\n        uint256 quantity,\n        uint256 price,\n        uint256[100] carTag\n    );\n\n    // Manufacturer places a bid to the supplier\n    event ManufacturerBids(\n        uint256 supplierID,\n        uint256 manufacturerID,\n        bytes32 blindBidPrice,\n        bytes32 blindBidQuantity\n    );\n    // Manufacturer reveals it's bid to the supplier by providing the key\n    event ManufacturerReveal(\n        uint256 supplierID,\n        uint256 manufacturerID,\n        uint256 price,\n        uint256 quantity\n    );\n\n    // Customer places a bid to the manufacturer\n    event CustomerBid(\n        uint256 manufacturerID,\n        uint256 customerID,\n        bytes32 blindBid\n    );\n    event CustomerReveal(\n        uint256 manufacturerID,\n        uint256 customerID,\n        uint256 price,\n        uint256 quantity\n    );\n\n    // ALL GET FUNCTIONS\n    // function getActors() public view returns (address[200] memory) {\n    //     address[200] memory ret;\n    //     uint256 idx = 0;\n    //     for (uint256 i = 1; i <= num_supplier; i += 1)\n    //         ret[idx++] = suppliers[i].wallet;\n    //     for (uint256 i = 1; i <= num_manufacturer; i += 1)\n    //         ret[idx++] = manufacturers[i].wallet;\n    //     for (uint256 i = 1; i <= num_customer; i += 1)\n    //         ret[idx++] = customers[i].wallet;\n    //     return ret;\n    // }\n\n    // function getBids() public view returns (uint256[50] memory) {\n    //     uint256[50] memory ret;\n    //     uint256 idx = 0;\n    //     for (uint256 i = 1; i <= num_supplier; i++) {\n    //         for (\n    //             uint256 j = 0;\n    //             j < bidsTillNow[suppliers[i].wallet].length;\n    //             j++\n    //         ) {\n    //             ret[idx++] = bidsTillNow[suppliers[i].wallet][j].buyerID;\n    //             ret[idx++] = bidsTillNow[suppliers[i].wallet][j].sellerID;\n    //             ret[idx++] = bidsTillNow[suppliers[i].wallet][j].valueQuantity;\n    //             ret[idx++] = bidsTillNow[suppliers[i].wallet][j].valuePrice;\n    //             ret[idx++] = bidsTillNow[suppliers[i].wallet][j]\n    //                 .limitingResourceQuantity;\n    //             idx++;\n    //         }\n    //     }\n    //     return ret;\n    // }\n\n    function verifyproduct(uint256 customerID, uint256 car_tag)\n        public\n        view\n        returns (\n            uint256 carID,\n            uint256 manfID,\n            uint256 sellerIDA,\n            uint256 sellerIDB\n        )\n    {\n        for (uint256 i = 0; i < carsBought[customerID].length; i++) {\n            if (carsBought[customerID][i].tag == car_tag)\n                return (\n                    car_tag,\n                    carsBought[customerID][i].manufacturerID,\n                    carsBought[customerID][i].sellerIDA,\n                    carsBought[customerID][i].sellerIDB\n                );\n        }\n        require(0 == 1, \"Car not found in they buyers purchases\");\n        return (0, 0, 0, 0);\n    }\n\n    //everyone can access it\n    function get_cars_price_quantity(uint256 manfID)\n        public\n        view\n        returns (uint256 price, uint256 quantity)\n    {\n        require(num_manufacturer >= manfID, \"Manufacturer ID doesnot exist\");\n        return (manufacturers[manfID].carsprice, manufacturers[manfID].cars);\n    }\n\n    function get_manufacturer_data(uint256 manfID)\n        public\n        view\n        returns (\n            uint256 tag,\n            uint256 quantA,\n            uint256 quantB,\n            uint256 cars\n        )\n    {\n        Manufacturer memory t = manufacturers[manfID];\n        return (t._tag, t.quantityA, t.quantityB, t.cars);\n    }\n\n    function get_car_data() public view returns (uint256[10] memory cars) {\n        uint256[10] memory data;\n        uint256 idx = 0;\n        for (uint256 i = 1; i <= num_customer; i++) {\n            for (uint256 j = 0; j < carsBought[i].length; j++) {\n                data[idx++] = carsBought[i][j].tag;\n            }\n        }\n\n        return data;\n    }\n\n    // all modifiers\n    modifier beforeOnly(uint256 _time) {\n        require(block.timestamp < _time);\n        _;\n    }\n    modifier afterOnly(uint256 _time) {\n        require(block.timestamp > _time);\n        _;\n    }\n\n    //test only\n    function set_cars(uint256 manfID, uint256 quant) public {\n        manufacturers[manfID].cars = quant;\n    }\n}\n",
  "sourcePath": "/home/kjain1810/Desktop/padhai/sem7/dtb/Supply-Chain-Smartcontract/contracts/Marketplace.sol",
  "compiler": {
    "name": "solc",
    "version": "0.8.16+commit.07a7930e.Emscripten.clang"
  },
  "schemaVersion": "3.4.9",
  "updatedAt": "2022-08-31T13:52:36.576Z",
  "networkType": "ethereum",
  "devdoc": {
    "kind": "dev",
    "methods": {},
    "version": 1
  },
  "userdoc": {
    "kind": "user",
    "methods": {},
    "version": 1
  }
}