{
  "contractName": "Marketplace",
  "abi": [
    {
      "inputs": [],
      "stateMutability": "nonpayable",
      "type": "constructor"
    },
    {
      "anonymous": false,
      "inputs": [
        {
          "indexed": false,
          "internalType": "int256",
          "name": "manufacturerID",
          "type": "int256"
        },
        {
          "indexed": false,
          "internalType": "int256",
          "name": "customerID",
          "type": "int256"
        },
        {
          "indexed": false,
          "internalType": "bytes32",
          "name": "blindBid",
          "type": "bytes32"
        }
      ],
      "name": "CustomerBid",
      "type": "event"
    },
    {
      "anonymous": false,
      "inputs": [],
      "name": "CustomerReveal",
      "type": "event"
    },
    {
      "anonymous": false,
      "inputs": [
        {
          "indexed": false,
          "internalType": "int256",
          "name": "manufacturerID",
          "type": "int256"
        },
        {
          "indexed": false,
          "internalType": "int256",
          "name": "endTime",
          "type": "int256"
        }
      ],
      "name": "EndManufacturerAuction",
      "type": "event"
    },
    {
      "anonymous": false,
      "inputs": [
        {
          "indexed": false,
          "internalType": "int256",
          "name": "supplierID",
          "type": "int256"
        },
        {
          "indexed": false,
          "internalType": "int256",
          "name": "endTime",
          "type": "int256"
        }
      ],
      "name": "EndSupplierAuction",
      "type": "event"
    },
    {
      "anonymous": false,
      "inputs": [
        {
          "indexed": false,
          "internalType": "int256",
          "name": "supplierID",
          "type": "int256"
        },
        {
          "indexed": false,
          "internalType": "int256",
          "name": "manufacturerID",
          "type": "int256"
        },
        {
          "indexed": false,
          "internalType": "bytes32",
          "name": "blindBid",
          "type": "bytes32"
        }
      ],
      "name": "ManufacturerBids",
      "type": "event"
    },
    {
      "anonymous": false,
      "inputs": [],
      "name": "ManufacturerReveal",
      "type": "event"
    },
    {
      "anonymous": false,
      "inputs": [
        {
          "indexed": false,
          "internalType": "int256",
          "name": "manufacturerID",
          "type": "int256"
        },
        {
          "indexed": false,
          "internalType": "int256",
          "name": "endTime",
          "type": "int256"
        }
      ],
      "name": "StartManufacturerAuction",
      "type": "event"
    },
    {
      "anonymous": false,
      "inputs": [
        {
          "indexed": false,
          "internalType": "int256",
          "name": "supplierID",
          "type": "int256"
        },
        {
          "indexed": false,
          "internalType": "int256",
          "name": "endTime",
          "type": "int256"
        }
      ],
      "name": "StartSupplierAuction",
      "type": "event"
    },
    {
      "inputs": [
        {
          "internalType": "uint256",
          "name": "",
          "type": "uint256"
        }
      ],
      "name": "customers",
      "outputs": [
        {
          "internalType": "uint256",
          "name": "_tag",
          "type": "uint256"
        },
        {
          "internalType": "address",
          "name": "wallet",
          "type": "address"
        }
      ],
      "stateMutability": "view",
      "type": "function",
      "constant": true
    },
    {
      "inputs": [
        {
          "internalType": "uint256",
          "name": "",
          "type": "uint256"
        }
      ],
      "name": "manufacturers",
      "outputs": [
        {
          "internalType": "uint256",
          "name": "_tag",
          "type": "uint256"
        },
        {
          "internalType": "uint256",
          "name": "quantityA",
          "type": "uint256"
        },
        {
          "internalType": "uint256",
          "name": "quantityB",
          "type": "uint256"
        },
        {
          "internalType": "enum Marketplace.AuctionState",
          "name": "currentState",
          "type": "uint8"
        },
        {
          "internalType": "address",
          "name": "wallet",
          "type": "address"
        },
        {
          "internalType": "uint256",
          "name": "maxBidders",
          "type": "uint256"
        }
      ],
      "stateMutability": "view",
      "type": "function",
      "constant": true
    },
    {
      "inputs": [],
      "name": "num_customer",
      "outputs": [
        {
          "internalType": "uint256",
          "name": "",
          "type": "uint256"
        }
      ],
      "stateMutability": "view",
      "type": "function",
      "constant": true
    },
    {
      "inputs": [],
      "name": "num_manufacturer",
      "outputs": [
        {
          "internalType": "uint256",
          "name": "",
          "type": "uint256"
        }
      ],
      "stateMutability": "view",
      "type": "function",
      "constant": true
    },
    {
      "inputs": [],
      "name": "num_supplier",
      "outputs": [
        {
          "internalType": "uint256",
          "name": "",
          "type": "uint256"
        }
      ],
      "stateMutability": "view",
      "type": "function",
      "constant": true
    },
    {
      "inputs": [],
      "name": "owner",
      "outputs": [
        {
          "internalType": "address payable",
          "name": "",
          "type": "address"
        }
      ],
      "stateMutability": "view",
      "type": "function",
      "constant": true
    },
    {
      "inputs": [
        {
          "internalType": "uint256",
          "name": "",
          "type": "uint256"
        }
      ],
      "name": "suppliers",
      "outputs": [
        {
          "internalType": "uint256",
          "name": "tag",
          "type": "uint256"
        },
        {
          "internalType": "int256",
          "name": "partType",
          "type": "int256"
        },
        {
          "internalType": "uint256",
          "name": "quantityAvailable",
          "type": "uint256"
        },
        {
          "internalType": "enum Marketplace.AuctionState",
          "name": "currentState",
          "type": "uint8"
        },
        {
          "internalType": "address",
          "name": "wallet",
          "type": "address"
        },
        {
          "internalType": "uint256",
          "name": "maxBidders",
          "type": "uint256"
        }
      ],
      "stateMutability": "view",
      "type": "function",
      "constant": true
    },
    {
      "inputs": [
        {
          "internalType": "int256",
          "name": "partType",
          "type": "int256"
        },
        {
          "internalType": "uint256",
          "name": "quantityAvailable",
          "type": "uint256"
        },
        {
          "internalType": "address payable",
          "name": "addr",
          "type": "address"
        },
        {
          "internalType": "uint256",
          "name": "auctionBidders",
          "type": "uint256"
        }
      ],
      "name": "addSupplier",
      "outputs": [],
      "stateMutability": "nonpayable",
      "type": "function"
    },
    {
      "inputs": [
        {
          "internalType": "address payable",
          "name": "addr",
          "type": "address"
        },
        {
          "internalType": "uint256",
          "name": "auctionBidders",
          "type": "uint256"
        }
      ],
      "name": "addManufacturer",
      "outputs": [],
      "stateMutability": "nonpayable",
      "type": "function"
    },
    {
      "inputs": [
        {
          "internalType": "address payable",
          "name": "addr",
          "type": "address"
        }
      ],
      "name": "addCustomer",
      "outputs": [],
      "stateMutability": "nonpayable",
      "type": "function"
    },
    {
      "inputs": [],
      "name": "getCustomers",
      "outputs": [
        {
          "internalType": "address[200]",
          "name": "",
          "type": "address[200]"
        }
      ],
      "stateMutability": "view",
      "type": "function",
      "constant": true
    }
  ],
  "bytecode": "0x608060405234801561001057600080fd5b5033600760006101000a81548173ffffffffffffffffffffffffffffffffffffffff021916908373ffffffffffffffffffffffffffffffffffffffff1602179055506000600181905550600080819055506000600281905550610cf7806100786000396000f3fe608060405234801561001057600080fd5b50600436106100a95760003560e01c8063ad973d7411610071578063ad973d7414610157578063c0abda2a14610173578063cea23121146101a4578063eb16d0e4146101d9578063edcac78b146101f7578063f1ba712714610215576100a9565b80634cc9aff8146100ae5780638da5cb5b146100cc57806390175af1146100ea5780639a7a9b131461011f578063a436792b1461013b575b600080fd5b6100b6610233565b6040516100c39190610783565b60405180910390f35b6100d4610239565b6040516100e191906107df565b60405180910390f35b61010460048036038101906100ff919061082b565b61025f565b604051610116969594939291906108f0565b60405180910390f35b610139600480360381019061013491906109b3565b6102c8565b005b61015560048036038101906101509190610a1a565b6103f3565b005b610171600480360381019061016c9190610a5a565b610520565b005b61018d6004803603810190610188919061082b565b6105d1565b60405161019b929190610a87565b60405180910390f35b6101be60048036038101906101b9919061082b565b610615565b6040516101d096959493929190610abf565b60405180910390f35b6101e161067e565b6040516101ee9190610783565b60405180910390f35b6101ff610684565b60405161020c9190610783565b60405180910390f35b61021d61068a565b60405161022a9190610bcb565b60405180910390f35b60015481565b600760009054906101000a900473ffffffffffffffffffffffffffffffffffffffff1681565b60046020528060005260406000206000915090508060000154908060010154908060020154908060030160009054906101000a900460ff16908060030160019054906101000a900473ffffffffffffffffffffffffffffffffffffffff16908060040154905086565b6000808154809291906102da90610c16565b91905055506040518060c0016040528060005481526020018581526020018481526020016001600281111561031257610311610858565b5b81526020018373ffffffffffffffffffffffffffffffffffffffff16815260200182815250600360008054815260200190815260200160002060008201518160000155602082015181600101556040820151816002015560608201518160030160006101000a81548160ff0219169083600281111561039457610393610858565b5b021790555060808201518160030160016101000a81548173ffffffffffffffffffffffffffffffffffffffff021916908373ffffffffffffffffffffffffffffffffffffffff16021790555060a0820151816004015590505050505050565b6001600081548092919061040690610c16565b91905055506040518060c0016040528060015481526020016000815260200160008152602001600160028111156104405761043f610858565b5b81526020018373ffffffffffffffffffffffffffffffffffffffff1681526020018281525060046000600154815260200190815260200160002060008201518160000155602082015181600101556040820151816002015560608201518160030160006101000a81548160ff021916908360028111156104c3576104c2610858565b5b021790555060808201518160030160016101000a81548173ffffffffffffffffffffffffffffffffffffffff021916908373ffffffffffffffffffffffffffffffffffffffff16021790555060a082015181600401559050505050565b6002600081548092919061053390610c16565b9190505550604051806040016040528060025481526020018273ffffffffffffffffffffffffffffffffffffffff168152506005600060025481526020019081526020016000206000820151816000015560208201518160010160006101000a81548173ffffffffffffffffffffffffffffffffffffffff021916908373ffffffffffffffffffffffffffffffffffffffff16021790555090505050565b60056020528060005260406000206000915090508060000154908060010160009054906101000a900473ffffffffffffffffffffffffffffffffffffffff16905082565b60036020528060005260406000206000915090508060000154908060010154908060020154908060030160009054906101000a900460ff16908060030160019054906101000a900473ffffffffffffffffffffffffffffffffffffffff16908060040154905086565b60025481565b60005481565b610692610747565b61069a610747565b6000600190505b600254811161073f576005600082815260200190815260200160002060010160009054906101000a900473ffffffffffffffffffffffffffffffffffffffff16828260c881106106f4576106f3610c5e565b5b602002019073ffffffffffffffffffffffffffffffffffffffff16908173ffffffffffffffffffffffffffffffffffffffff16815250506001816107389190610c8d565b90506106a1565b508091505090565b60405180611900016040528060c890602082028036833780820191505090505090565b6000819050919050565b61077d8161076a565b82525050565b60006020820190506107986000830184610774565b92915050565b600073ffffffffffffffffffffffffffffffffffffffff82169050919050565b60006107c98261079e565b9050919050565b6107d9816107be565b82525050565b60006020820190506107f460008301846107d0565b92915050565b600080fd5b6108088161076a565b811461081357600080fd5b50565b600081359050610825816107ff565b92915050565b600060208284031215610841576108406107fa565b5b600061084f84828501610816565b91505092915050565b7f4e487b7100000000000000000000000000000000000000000000000000000000600052602160045260246000fd5b6003811061089857610897610858565b5b50565b60008190506108a982610887565b919050565b60006108b98261089b565b9050919050565b6108c9816108ae565b82525050565b60006108da8261079e565b9050919050565b6108ea816108cf565b82525050565b600060c0820190506109056000830189610774565b6109126020830188610774565b61091f6040830187610774565b61092c60608301866108c0565b61093960808301856108e1565b61094660a0830184610774565b979650505050505050565b6000819050919050565b61096481610951565b811461096f57600080fd5b50565b6000813590506109818161095b565b92915050565b610990816107be565b811461099b57600080fd5b50565b6000813590506109ad81610987565b92915050565b600080600080608085870312156109cd576109cc6107fa565b5b60006109db87828801610972565b94505060206109ec87828801610816565b93505060406109fd8782880161099e565b9250506060610a0e87828801610816565b91505092959194509250565b60008060408385031215610a3157610a306107fa565b5b6000610a3f8582860161099e565b9250506020610a5085828601610816565b9150509250929050565b600060208284031215610a7057610a6f6107fa565b5b6000610a7e8482850161099e565b91505092915050565b6000604082019050610a9c6000830185610774565b610aa960208301846108e1565b9392505050565b610ab981610951565b82525050565b600060c082019050610ad46000830189610774565b610ae16020830188610ab0565b610aee6040830187610774565b610afb60608301866108c0565b610b0860808301856108e1565b610b1560a0830184610774565b979650505050505050565b600060c89050919050565b600081905092915050565b6000819050919050565b610b49816108cf565b82525050565b6000610b5b8383610b40565b60208301905092915050565b6000602082019050919050565b610b7d81610b20565b610b878184610b2b565b9250610b9282610b36565b8060005b83811015610bc3578151610baa8782610b4f565b9650610bb583610b67565b925050600181019050610b96565b505050505050565b600061190082019050610be16000830184610b74565b92915050565b7f4e487b7100000000000000000000000000000000000000000000000000000000600052601160045260246000fd5b6000610c218261076a565b91507fffffffffffffffffffffffffffffffffffffffffffffffffffffffffffffffff8203610c5357610c52610be7565b5b600182019050919050565b7f4e487b7100000000000000000000000000000000000000000000000000000000600052603260045260246000fd5b6000610c988261076a565b9150610ca38361076a565b9250828201905080821115610cbb57610cba610be7565b5b9291505056fea2646970667358221220885da5e881840b5751214fe1ddc6ab360a1060faa70de67dc6e4e1917c31677664736f6c63430008100033",
  "immutableReferences": {},
  "source": "pragma solidity >=0.8.16;\n\nimport { FirstAuction } from \"./auction.sol\";\n\ncontract Marketplace {\n\n    enum AuctionState {RUNNING, NOT_STARTED, FINISHED}\n\n    struct Bid {\n        uint256 valuePrice;\n        uint256 valueQuantity;\n        address payable bidderAddress;\n        bytes32 blindBidPrice; // will have price and quantity you are bidding  \n        bytes32 blindBidQuantity;\n        uint limitingResourceQuantity;\n        uint buyerID;\n        uint sellerID;\n    }\n\n    uint public num_supplier;\n    uint public num_manufacturer;\n    uint public num_customer;\n\n    mapping (uint => Supplier) public suppliers;\n    mapping (uint => Manufacturer) public manufacturers;\n    mapping (uint => Customer) public customers;\n    mapping (address => Bid) bidsTillNow;\n\n    address payable public owner;\n\n    constructor() {\n        owner = payable(msg.sender);\n        num_manufacturer = 0;\n        num_supplier = 0;\n        num_customer = 0;                \n    }\n\n    struct Supplier {\n        uint tag;\n        int partType;\n        uint quantityAvailable;\n        AuctionState currentState;\n        address wallet;\n        uint maxBidders;\n    }\n\n    struct Manufacturer {\n        uint _tag;\n        uint quantityA;\n        uint quantityB;\n        AuctionState currentState;\n        address wallet;\n        uint maxBidders;\n    }\n\n    struct Customer {\n        uint _tag;\n        address wallet;\n    }\n\n    // function makeBidSupplier(int index, ...) public {\n    //     suppliers[index].auction.makeBid(...);\n    // }\n\n    function addSupplier(int partType, uint quantityAvailable, address payable addr, uint auctionBidders) public {\n        num_supplier++;\n        suppliers[num_supplier] = Supplier(num_supplier, partType, quantityAvailable, AuctionState.NOT_STARTED, addr, auctionBidders);\n    }\n\n    function addManufacturer(address payable addr, uint auctionBidders) public {\n        num_manufacturer++;\n        manufacturers[num_manufacturer] = Manufacturer(num_manufacturer, 0, 0, AuctionState.NOT_STARTED, addr, auctionBidders);\n    }\n\n    function addCustomer(address payable addr) public {\n        num_customer++;\n        customers[num_customer] = Customer(num_customer, addr);\n    }\n\n\n    event StartSupplierAuction(int supplierID, int endTime);\n    event EndSupplierAuction(int supplierID, int endTime);\n\n    event StartManufacturerAuction(int manufacturerID, int endTime);\n    event EndManufacturerAuction(int manufacturerID, int endTime);\n    \n    // Manufacturer places a bid to the supplier\n    event ManufacturerBids(int supplierID, int manufacturerID, bytes32 blindBid);\n    // Manufacturer reveals it's bid to the supplier by providing the key\n    event ManufacturerReveal();\n    \n    // Customer places a bid to the manufacturer\n    event CustomerBid(int manufacturerID, int customerID, bytes32 blindBid);\n    event CustomerReveal();\n\n\n\n    // ALL GET FUNCTIONS\n    function getCustomers() public view returns (address[200] memory){\n        address[200] memory ret;\n        for (uint i = 1; i <= num_customer; i+=1)\n            ret[i] = customers[i].wallet;\n        return ret;        \n    }\n}",
  "sourcePath": "/home/kjain1810/Desktop/padhai/sem7/dtb/Supply-Chain-Smartcontract/contracts/Marketplace.sol",
  "compiler": {
    "name": "solc",
    "version": "0.8.16+commit.07a7930e.Emscripten.clang"
  },
  "schemaVersion": "3.4.9",
  "updatedAt": "2022-08-30T14:16:05.977Z",
  "networkType": "ethereum",
  "devdoc": {
    "kind": "dev",
    "methods": {},
    "version": 1
  },
  "userdoc": {
    "kind": "user",
    "methods": {},
    "version": 1
  }
}