{
  "contractName": "MarketPlace_Structures",
  "abi": [
    {
      "inputs": [
        {
          "internalType": "uint256",
          "name": "a",
          "type": "uint256"
        },
        {
          "internalType": "uint256",
          "name": "b",
          "type": "uint256"
        }
      ],
      "name": "minimum",
      "outputs": [
        {
          "internalType": "uint256",
          "name": "",
          "type": "uint256"
        }
      ],
      "stateMutability": "pure",
      "type": "function"
    }
  ],
  "bytecode": "0x608060405234801561001057600080fd5b50610155806100206000396000f3fe608060405234801561001057600080fd5b506004361061002b5760003560e01c8063dd2d2a1214610030575b600080fd5b61004a600480360381019061004591906100b5565b610060565b6040516100579190610104565b60405180910390f35b6000818310156100705782610072565b815b905092915050565b600080fd5b6000819050919050565b6100928161007f565b811461009d57600080fd5b50565b6000813590506100af81610089565b92915050565b600080604083850312156100cc576100cb61007a565b5b60006100da858286016100a0565b92505060206100eb858286016100a0565b9150509250929050565b6100fe8161007f565b82525050565b600060208201905061011960008301846100f5565b9291505056fea2646970667358221220772badcffafdea836bd1be9a9ab8d503271d803b0c242149e49eb71def8066d364736f6c63430008100033",
  "immutableReferences": {},
  "source": "pragma solidity >=0.8.16;\n\ncontract MarketPlace_Structures {\n    // @dev State of the auction\n    // @param RUNNING auction is running and bids are being places\n    // @param REVEALING auction has ended and bidders are revealing their bids\n    // @param NOT_STARTED auction hasn't started yet\n    // @param FINISHED auction has finished\n    enum AuctionState {\n        RUNNING,\n        REVEALING,\n        NOT_STARTED,\n        FINISHED\n    }\n\n    // @dev Stores details of the bids\n    struct Bid {\n        uint256 valuePrice;\n        uint256 valueQuantity;\n        address payable bidderAddress;\n        bytes32 blindBidPrice;\n        bytes32 blindBidQuantity;\n        uint256 limitingResourceQuantity;\n        uint256 buyerID;\n        uint256 sellerID;\n        uint256 moneySent;\n        bool correctReveal;\n    }\n\n    // @dev Stores details of purchases requested\n    struct Purchase {\n        uint256 sellerID;\n        uint256 buyerID;\n        uint256 quantity;\n        address payable customeraddr;\n        uint256 money;\n    }\n\n    // @dev Stores details of successful purchases or products bought\n    struct Product {\n        uint256 tag;\n        uint256 manufacturerID;\n        uint256 sellerA;\n        uint256 sellerB;\n    }\n\n    // @dev Stores details of all the suppliers\n    // @note partType is 0 for wheels and 1 for car parts\n    struct Supplier {\n        uint256 tag;\n        int256 partType; // 0 is wheels, 1 is car_parts\n        uint256 quantityAvailable;\n        AuctionState currentState;\n        address wallet;\n        uint256 maxBidders;\n        uint256 bidsPlaced;\n        uint256 bidsRevealed;\n    }\n\n    // @dev Stores details of all the manufacturers\n    struct Manufacturer {\n        uint256 _tag;\n        uint256 quantityA;\n        uint256 quantityB;\n        uint256 cars;\n        uint256 carsprice;\n        AuctionState currentState;\n        address wallet;\n        uint256 maxBidders;\n        uint256 QA_sellerID;\n        uint256 QB_sellerID;\n    }\n\n    // @dev Stores details of all the cars developed\n    struct Car {\n        uint256 tag;\n        uint256 manufacturerID;\n        uint256 sellerIDA;\n        uint256 sellerIDB;\n    }\n\n    // @dev Stores details of all the customers\n    struct Customer {\n        uint256 _tag;\n        address wallet;\n    }\n\n    // @dev Returns minimum of 2 uint256 integers\n    function minimum(uint256 a, uint256 b) public pure returns (uint256) {\n        return a >= b ? b : a;\n    }\n}\n",
  "sourcePath": "/home/kjain1810/Desktop/padhai/sem7/dtb/Supply-Chain-Smartcontract/contracts/MP_Structures.sol",
  "compiler": {
    "name": "solc",
    "version": "0.8.16+commit.07a7930e.Emscripten.clang"
  },
  "schemaVersion": "3.4.9",
  "updatedAt": "2022-08-31T16:03:36.498Z",
  "devdoc": {
    "kind": "dev",
    "methods": {},
    "version": 1
  },
  "userdoc": {
    "kind": "user",
    "methods": {},
    "version": 1
  }
}